{
  "abi": [
    {
      "inputs": [],
      "stateMutability": "nonpayable",
      "type": "constructor"
    },
    {
      "inputs": [],
      "name": "CreateFail",
      "type": "error"
    },
    {
      "inputs": [
        {
          "internalType": "enum IAstariaRouter.CollateralStates",
          "name": "",
          "type": "uint8"
        }
      ],
      "name": "InvalidCollateralState",
      "type": "error"
    },
    {
      "inputs": [
        {
          "internalType": "enum IAstariaRouter.CommitmentState",
          "name": "",
          "type": "uint8"
        }
      ],
      "name": "InvalidCommitmentState",
      "type": "error"
    },
    {
      "inputs": [
        {
          "internalType": "uint256",
          "name": "",
          "type": "uint256"
        }
      ],
      "name": "InvalidEpochLength",
      "type": "error"
    },
    {
      "inputs": [],
      "name": "InvalidFileData",
      "type": "error"
    },
    {
      "inputs": [
        {
          "internalType": "enum IAstariaRouter.LienState",
          "name": "",
          "type": "uint8"
        }
      ],
      "name": "InvalidLienState",
      "type": "error"
    },
    {
      "inputs": [
        {
          "internalType": "uint256",
          "name": "",
          "type": "uint256"
        }
      ],
      "name": "InvalidRefinanceDuration",
      "type": "error"
    },
    {
      "inputs": [
        {
          "internalType": "uint256",
          "name": "",
          "type": "uint256"
        }
      ],
      "name": "InvalidRefinanceRate",
      "type": "error"
    },
    {
      "inputs": [
        {
          "internalType": "address",
          "name": "",
          "type": "address"
        },
        {
          "internalType": "uint256",
          "name": "",
          "type": "uint256"
        }
      ],
      "name": "InvalidSenderForCollateral",
      "type": "error"
    },
    {
      "inputs": [
        {
          "internalType": "enum IPublicVault.InvalidStates",
          "name": "",
          "type": "uint8"
        }
      ],
      "name": "InvalidState",
      "type": "error"
    },
    {
      "inputs": [
        {
          "internalType": "uint16",
          "name": "",
          "type": "uint16"
        }
      ],
      "name": "InvalidStrategy",
      "type": "error"
    },
    {
      "inputs": [
        {
          "internalType": "address",
          "name": "",
          "type": "address"
        }
      ],
      "name": "InvalidUnderlying",
      "type": "error"
    },
    {
      "inputs": [
        {
          "internalType": "address",
          "name": "",
          "type": "address"
        }
      ],
      "name": "InvalidVault",
      "type": "error"
    },
    {
      "inputs": [
        {
          "internalType": "enum IAstariaRouter.VaultState",
          "name": "",
          "type": "uint8"
        }
      ],
      "name": "InvalidVaultState",
      "type": "error"
    },
    {
      "inputs": [],
      "name": "MaxAmountError",
      "type": "error"
    },
    {
      "inputs": [],
      "name": "MaxSharesError",
      "type": "error"
    },
    {
      "inputs": [],
      "name": "MinAmountError",
      "type": "error"
    },
    {
      "inputs": [],
      "name": "MinSharesError",
      "type": "error"
    },
    {
      "inputs": [],
      "name": "UnsupportedFile",
      "type": "error"
    },
    {
      "anonymous": false,
      "inputs": [
        {
          "indexed": true,
          "internalType": "address",
          "name": "user",
          "type": "address"
        },
        {
          "indexed": true,
          "internalType": "contract Authority",
          "name": "newAuthority",
          "type": "address"
        }
      ],
      "name": "AuthorityUpdated",
      "type": "event"
    },
    {
      "anonymous": false,
      "inputs": [
        {
          "indexed": false,
          "internalType": "enum IAstariaRouter.FileType",
          "name": "what",
          "type": "uint8"
        },
        {
          "indexed": false,
          "internalType": "bytes",
          "name": "data",
          "type": "bytes"
        }
      ],
      "name": "FileUpdated",
      "type": "event"
    },
    {
      "anonymous": false,
      "inputs": [
        {
          "indexed": false,
          "internalType": "uint8",
          "name": "version",
          "type": "uint8"
        }
      ],
      "name": "Initialized",
      "type": "event"
    },
    {
      "anonymous": false,
      "inputs": [
        {
          "indexed": false,
          "internalType": "uint256",
          "name": "collateralId",
          "type": "uint256"
        },
        {
          "indexed": false,
          "internalType": "uint256",
          "name": "position",
          "type": "uint256"
        }
      ],
      "name": "Liquidation",
      "type": "event"
    },
    {
      "anonymous": false,
      "inputs": [
        {
          "indexed": false,
          "internalType": "address",
          "name": "strategist",
          "type": "address"
        },
        {
          "indexed": false,
          "internalType": "address",
          "name": "delegate",
          "type": "address"
        },
        {
          "indexed": false,
          "internalType": "address",
          "name": "vault",
          "type": "address"
        },
        {
          "indexed": false,
          "internalType": "uint8",
          "name": "vaultType",
          "type": "uint8"
        }
      ],
      "name": "NewVault",
      "type": "event"
    },
    {
      "anonymous": false,
      "inputs": [
        {
          "indexed": true,
          "internalType": "address",
          "name": "user",
          "type": "address"
        },
        {
          "indexed": true,
          "internalType": "address",
          "name": "newOwner",
          "type": "address"
        }
      ],
      "name": "OwnershipTransferred",
      "type": "event"
    },
    {
      "anonymous": false,
      "inputs": [
        {
          "indexed": false,
          "internalType": "address",
          "name": "account",
          "type": "address"
        }
      ],
      "name": "Paused",
      "type": "event"
    },
    {
      "anonymous": false,
      "inputs": [
        {
          "indexed": false,
          "internalType": "address",
          "name": "account",
          "type": "address"
        }
      ],
      "name": "Unpaused",
      "type": "event"
    },
    {
      "inputs": [],
      "name": "BEACON_PROXY_IMPLEMENTATION",
      "outputs": [
        {
          "internalType": "address",
          "name": "",
          "type": "address"
        }
      ],
      "stateMutability": "view",
      "type": "function"
    },
    {
      "inputs": [],
      "name": "COLLATERAL_TOKEN",
      "outputs": [
        {
          "internalType": "contract ICollateralToken",
          "name": "",
          "type": "address"
        }
      ],
      "stateMutability": "view",
      "type": "function"
    },
    {
      "inputs": [],
      "name": "LIEN_TOKEN",
      "outputs": [
        {
          "internalType": "contract ILienToken",
          "name": "",
          "type": "address"
        }
      ],
      "stateMutability": "view",
      "type": "function"
    },
    {
      "inputs": [],
      "name": "TRANSFER_PROXY",
      "outputs": [
        {
          "internalType": "contract ITransferProxy",
          "name": "",
          "type": "address"
        }
      ],
      "stateMutability": "view",
      "type": "function"
    },
    {
      "inputs": [],
      "name": "__acceptGuardian",
      "outputs": [],
      "stateMutability": "nonpayable",
      "type": "function"
    },
    {
      "inputs": [],
      "name": "__emergencyPause",
      "outputs": [],
      "stateMutability": "nonpayable",
      "type": "function"
    },
    {
      "inputs": [],
      "name": "__emergencyUnpause",
      "outputs": [],
      "stateMutability": "nonpayable",
      "type": "function"
    },
    {
      "inputs": [],
      "name": "__renounceGuardian",
      "outputs": [],
      "stateMutability": "nonpayable",
      "type": "function"
    },
    {
      "inputs": [],
      "name": "authority",
      "outputs": [
        {
          "internalType": "contract Authority",
          "name": "",
          "type": "address"
        }
      ],
      "stateMutability": "view",
      "type": "function"
    },
    {
      "inputs": [
        {
          "components": [
            {
              "components": [
                {
                  "internalType": "uint8",
                  "name": "collateralType",
                  "type": "uint8"
                },
                {
                  "internalType": "address",
                  "name": "token",
                  "type": "address"
                },
                {
                  "internalType": "address",
                  "name": "vault",
                  "type": "address"
                },
                {
                  "internalType": "bytes32",
                  "name": "strategyRoot",
                  "type": "bytes32"
                },
                {
                  "internalType": "uint256",
                  "name": "collateralId",
                  "type": "uint256"
                },
                {
                  "components": [
                    {
                      "internalType": "uint256",
                      "name": "maxAmount",
                      "type": "uint256"
                    },
                    {
                      "internalType": "uint256",
                      "name": "rate",
                      "type": "uint256"
                    },
                    {
                      "internalType": "uint256",
                      "name": "duration",
                      "type": "uint256"
                    },
                    {
                      "internalType": "uint256",
                      "name": "maxPotentialDebt",
                      "type": "uint256"
                    },
                    {
                      "internalType": "uint256",
                      "name": "liquidationInitialAsk",
                      "type": "uint256"
                    }
                  ],
                  "internalType": "struct ILienToken.Details",
                  "name": "details",
                  "type": "tuple"
                }
              ],
              "internalType": "struct ILienToken.Lien",
              "name": "lien",
              "type": "tuple"
            },
            {
              "components": [
                {
                  "internalType": "uint256",
                  "name": "amount",
                  "type": "uint256"
                },
                {
                  "internalType": "uint40",
                  "name": "last",
                  "type": "uint40"
                },
                {
                  "internalType": "uint40",
                  "name": "end",
                  "type": "uint40"
                },
                {
                  "internalType": "uint256",
                  "name": "lienId",
                  "type": "uint256"
                }
              ],
              "internalType": "struct ILienToken.Point",
              "name": "point",
              "type": "tuple"
            }
          ],
          "internalType": "struct ILienToken.Stack",
          "name": "stack",
          "type": "tuple"
        }
      ],
      "name": "canLiquidate",
      "outputs": [
        {
          "internalType": "bool",
          "name": "",
          "type": "bool"
        }
      ],
      "stateMutability": "view",
      "type": "function"
    },
    {
      "inputs": [
        {
          "components": [
            {
              "internalType": "address",
              "name": "tokenContract",
              "type": "address"
            },
            {
              "internalType": "uint256",
              "name": "tokenId",
              "type": "uint256"
            },
            {
              "components": [
                {
                  "components": [
                    {
                      "internalType": "uint8",
                      "name": "version",
                      "type": "uint8"
                    },
                    {
                      "internalType": "uint256",
                      "name": "deadline",
                      "type": "uint256"
                    },
                    {
                      "internalType": "address",
                      "name": "vault",
                      "type": "address"
                    }
                  ],
                  "internalType": "struct IAstariaRouter.StrategyDetailsParam",
                  "name": "strategy",
                  "type": "tuple"
                },
                {
                  "components": [
                    {
                      "components": [
                        {
                          "internalType": "uint8",
                          "name": "collateralType",
                          "type": "uint8"
                        },
                        {
                          "internalType": "address",
                          "name": "token",
                          "type": "address"
                        },
                        {
                          "internalType": "address",
                          "name": "vault",
                          "type": "address"
                        },
                        {
                          "internalType": "bytes32",
                          "name": "strategyRoot",
                          "type": "bytes32"
                        },
                        {
                          "internalType": "uint256",
                          "name": "collateralId",
                          "type": "uint256"
                        },
                        {
                          "components": [
                            {
                              "internalType": "uint256",
                              "name": "maxAmount",
                              "type": "uint256"
                            },
                            {
                              "internalType": "uint256",
                              "name": "rate",
                              "type": "uint256"
                            },
                            {
                              "internalType": "uint256",
                              "name": "duration",
                              "type": "uint256"
                            },
                            {
                              "internalType": "uint256",
                              "name": "maxPotentialDebt",
                              "type": "uint256"
                            },
                            {
                              "internalType": "uint256",
                              "name": "liquidationInitialAsk",
                              "type": "uint256"
                            }
                          ],
                          "internalType": "struct ILienToken.Details",
                          "name": "details",
                          "type": "tuple"
                        }
                      ],
                      "internalType": "struct ILienToken.Lien",
                      "name": "lien",
                      "type": "tuple"
                    },
                    {
                      "components": [
                        {
                          "internalType": "uint256",
                          "name": "amount",
                          "type": "uint256"
                        },
                        {
                          "internalType": "uint40",
                          "name": "last",
                          "type": "uint40"
                        },
                        {
                          "internalType": "uint40",
                          "name": "end",
                          "type": "uint40"
                        },
                        {
                          "internalType": "uint256",
                          "name": "lienId",
                          "type": "uint256"
                        }
                      ],
                      "internalType": "struct ILienToken.Point",
                      "name": "point",
                      "type": "tuple"
                    }
                  ],
                  "internalType": "struct ILienToken.Stack[]",
                  "name": "stack",
                  "type": "tuple[]"
                },
                {
                  "internalType": "bytes",
                  "name": "nlrDetails",
                  "type": "bytes"
                },
                {
                  "components": [
                    {
                      "internalType": "bytes32",
                      "name": "root",
                      "type": "bytes32"
                    },
                    {
                      "internalType": "bytes32[]",
                      "name": "proof",
                      "type": "bytes32[]"
                    }
                  ],
                  "internalType": "struct IAstariaRouter.MerkleData",
                  "name": "merkle",
                  "type": "tuple"
                },
                {
                  "internalType": "uint256",
                  "name": "amount",
                  "type": "uint256"
                },
                {
                  "internalType": "uint8",
                  "name": "v",
                  "type": "uint8"
                },
                {
                  "internalType": "bytes32",
                  "name": "r",
                  "type": "bytes32"
                },
                {
                  "internalType": "bytes32",
                  "name": "s",
                  "type": "bytes32"
                }
              ],
              "internalType": "struct IAstariaRouter.NewLienRequest",
              "name": "lienRequest",
              "type": "tuple"
            }
          ],
          "internalType": "struct IAstariaRouter.Commitment[]",
          "name": "commitments",
          "type": "tuple[]"
        }
      ],
      "name": "commitToLiens",
      "outputs": [
        {
          "internalType": "uint256[]",
          "name": "lienIds",
          "type": "uint256[]"
        },
        {
          "components": [
            {
              "components": [
                {
                  "internalType": "uint8",
                  "name": "collateralType",
                  "type": "uint8"
                },
                {
                  "internalType": "address",
                  "name": "token",
                  "type": "address"
                },
                {
                  "internalType": "address",
                  "name": "vault",
                  "type": "address"
                },
                {
                  "internalType": "bytes32",
                  "name": "strategyRoot",
                  "type": "bytes32"
                },
                {
                  "internalType": "uint256",
                  "name": "collateralId",
                  "type": "uint256"
                },
                {
                  "components": [
                    {
                      "internalType": "uint256",
                      "name": "maxAmount",
                      "type": "uint256"
                    },
                    {
                      "internalType": "uint256",
                      "name": "rate",
                      "type": "uint256"
                    },
                    {
                      "internalType": "uint256",
                      "name": "duration",
                      "type": "uint256"
                    },
                    {
                      "internalType": "uint256",
                      "name": "maxPotentialDebt",
                      "type": "uint256"
                    },
                    {
                      "internalType": "uint256",
                      "name": "liquidationInitialAsk",
                      "type": "uint256"
                    }
                  ],
                  "internalType": "struct ILienToken.Details",
                  "name": "details",
                  "type": "tuple"
                }
              ],
              "internalType": "struct ILienToken.Lien",
              "name": "lien",
              "type": "tuple"
            },
            {
              "components": [
                {
                  "internalType": "uint256",
                  "name": "amount",
                  "type": "uint256"
                },
                {
                  "internalType": "uint40",
                  "name": "last",
                  "type": "uint40"
                },
                {
                  "internalType": "uint40",
                  "name": "end",
                  "type": "uint40"
                },
                {
                  "internalType": "uint256",
                  "name": "lienId",
                  "type": "uint256"
                }
              ],
              "internalType": "struct ILienToken.Point",
              "name": "point",
              "type": "tuple"
            }
          ],
          "internalType": "struct ILienToken.Stack[]",
          "name": "stack",
          "type": "tuple[]"
        }
      ],
      "stateMutability": "nonpayable",
      "type": "function"
    },
    {
      "inputs": [
        {
          "internalType": "contract IERC4626",
          "name": "vault",
          "type": "address"
        },
        {
          "internalType": "address",
          "name": "to",
          "type": "address"
        },
        {
          "internalType": "uint256",
          "name": "amount",
          "type": "uint256"
        },
        {
          "internalType": "uint256",
          "name": "minSharesOut",
          "type": "uint256"
        }
      ],
      "name": "deposit",
      "outputs": [
        {
          "internalType": "uint256",
          "name": "sharesOut",
          "type": "uint256"
        }
      ],
      "stateMutability": "payable",
      "type": "function"
    },
    {
      "inputs": [
        {
          "internalType": "contract IERC4626",
          "name": "vault",
          "type": "address"
        },
        {
          "internalType": "address",
          "name": "to",
          "type": "address"
        },
        {
          "internalType": "uint256",
          "name": "minSharesOut",
          "type": "uint256"
        }
      ],
      "name": "depositMax",
      "outputs": [
        {
          "internalType": "uint256",
          "name": "sharesOut",
          "type": "uint256"
        }
      ],
      "stateMutability": "payable",
      "type": "function"
    },
    {
      "inputs": [
        {
          "internalType": "contract IERC4626",
          "name": "vault",
          "type": "address"
        },
        {
          "internalType": "address",
          "name": "to",
          "type": "address"
        },
        {
          "internalType": "uint256",
          "name": "amount",
          "type": "uint256"
        },
        {
          "internalType": "uint256",
          "name": "minSharesOut",
          "type": "uint256"
        }
      ],
      "name": "depositToVault",
      "outputs": [
        {
          "internalType": "uint256",
          "name": "sharesOut",
          "type": "uint256"
        }
      ],
      "stateMutability": "payable",
      "type": "function"
    },
    {
      "inputs": [],
      "name": "feeTo",
      "outputs": [
        {
          "internalType": "address",
          "name": "",
          "type": "address"
        }
      ],
      "stateMutability": "view",
      "type": "function"
    },
    {
      "inputs": [
        {
          "components": [
            {
              "internalType": "enum IAstariaRouter.FileType",
              "name": "what",
              "type": "uint8"
            },
            {
              "internalType": "bytes",
              "name": "data",
              "type": "bytes"
            }
          ],
          "internalType": "struct IAstariaRouter.File",
          "name": "incoming",
          "type": "tuple"
        }
      ],
      "name": "file",
      "outputs": [],
      "stateMutability": "nonpayable",
      "type": "function"
    },
    {
      "inputs": [
        {
          "components": [
            {
              "internalType": "enum IAstariaRouter.FileType",
              "name": "what",
              "type": "uint8"
            },
            {
              "internalType": "bytes",
              "name": "data",
              "type": "bytes"
            }
          ],
          "internalType": "struct IAstariaRouter.File[]",
          "name": "files",
          "type": "tuple[]"
        }
      ],
      "name": "fileBatch",
      "outputs": [],
      "stateMutability": "nonpayable",
      "type": "function"
    },
    {
      "inputs": [
        {
          "components": [
            {
              "internalType": "enum IAstariaRouter.FileType",
              "name": "what",
              "type": "uint8"
            },
            {
              "internalType": "bytes",
              "name": "data",
              "type": "bytes"
            }
          ],
          "internalType": "struct IAstariaRouter.File[]",
          "name": "file",
          "type": "tuple[]"
        }
      ],
      "name": "fileGuardian",
      "outputs": [],
      "stateMutability": "nonpayable",
      "type": "function"
    },
    {
      "inputs": [],
      "name": "getAuctionWindow",
      "outputs": [
        {
          "internalType": "uint256",
          "name": "",
          "type": "uint256"
        }
      ],
      "stateMutability": "view",
      "type": "function"
    },
    {
      "inputs": [
        {
          "internalType": "uint8",
          "name": "implType",
          "type": "uint8"
        }
      ],
      "name": "getImpl",
      "outputs": [
        {
          "internalType": "address",
          "name": "impl",
          "type": "address"
        }
      ],
      "stateMutability": "view",
      "type": "function"
    },
    {
      "inputs": [
        {
          "internalType": "uint256",
          "name": "amountIn",
          "type": "uint256"
        }
      ],
      "name": "getLiquidatorFee",
      "outputs": [
        {
          "internalType": "uint256",
          "name": "",
          "type": "uint256"
        }
      ],
      "stateMutability": "view",
      "type": "function"
    },
    {
      "inputs": [
        {
          "internalType": "uint256",
          "name": "amountIn",
          "type": "uint256"
        }
      ],
      "name": "getProtocolFee",
      "outputs": [
        {
          "internalType": "uint256",
          "name": "",
          "type": "uint256"
        }
      ],
      "stateMutability": "view",
      "type": "function"
    },
    {
      "inputs": [
        {
          "internalType": "uint8",
          "name": "validator",
          "type": "uint8"
        }
      ],
      "name": "getStrategyValidator",
      "outputs": [
        {
          "internalType": "address",
          "name": "",
          "type": "address"
        }
      ],
      "stateMutability": "view",
      "type": "function"
    },
    {
      "inputs": [
        {
          "internalType": "contract Authority",
          "name": "_AUTHORITY",
          "type": "address"
        },
        {
          "internalType": "contract ICollateralToken",
          "name": "_COLLATERAL_TOKEN",
          "type": "address"
        },
        {
          "internalType": "contract ILienToken",
          "name": "_LIEN_TOKEN",
          "type": "address"
        },
        {
          "internalType": "contract ITransferProxy",
          "name": "_TRANSFER_PROXY",
          "type": "address"
        },
        {
          "internalType": "address",
          "name": "_VAULT_IMPL",
          "type": "address"
        },
        {
          "internalType": "address",
          "name": "_SOLO_IMPL",
          "type": "address"
        },
        {
          "internalType": "address",
          "name": "_WITHDRAW_IMPL",
          "type": "address"
        },
        {
          "internalType": "address",
          "name": "_BEACON_PROXY_IMPL",
          "type": "address"
        },
        {
          "internalType": "address",
          "name": "_CLEARING_HOUSE_IMPL",
          "type": "address"
        }
      ],
      "name": "initialize",
      "outputs": [],
      "stateMutability": "nonpayable",
      "type": "function"
    },
    {
      "inputs": [
        {
          "internalType": "address",
          "name": "vault",
          "type": "address"
        }
      ],
      "name": "isValidVault",
      "outputs": [
        {
          "internalType": "bool",
          "name": "",
          "type": "bool"
        }
      ],
      "stateMutability": "view",
      "type": "function"
    },
    {
      "inputs": [
        {
          "components": [
            {
              "components": [
                {
                  "internalType": "uint8",
                  "name": "collateralType",
                  "type": "uint8"
                },
                {
                  "internalType": "address",
                  "name": "token",
                  "type": "address"
                },
                {
                  "internalType": "address",
                  "name": "vault",
                  "type": "address"
                },
                {
                  "internalType": "bytes32",
                  "name": "strategyRoot",
                  "type": "bytes32"
                },
                {
                  "internalType": "uint256",
                  "name": "collateralId",
                  "type": "uint256"
                },
                {
                  "components": [
                    {
                      "internalType": "uint256",
                      "name": "maxAmount",
                      "type": "uint256"
                    },
                    {
                      "internalType": "uint256",
                      "name": "rate",
                      "type": "uint256"
                    },
                    {
                      "internalType": "uint256",
                      "name": "duration",
                      "type": "uint256"
                    },
                    {
                      "internalType": "uint256",
                      "name": "maxPotentialDebt",
                      "type": "uint256"
                    },
                    {
                      "internalType": "uint256",
                      "name": "liquidationInitialAsk",
                      "type": "uint256"
                    }
                  ],
                  "internalType": "struct ILienToken.Details",
                  "name": "details",
                  "type": "tuple"
                }
              ],
              "internalType": "struct ILienToken.Lien",
              "name": "lien",
              "type": "tuple"
            },
            {
              "components": [
                {
                  "internalType": "uint256",
                  "name": "amount",
                  "type": "uint256"
                },
                {
                  "internalType": "uint40",
                  "name": "last",
                  "type": "uint40"
                },
                {
                  "internalType": "uint40",
                  "name": "end",
                  "type": "uint40"
                },
                {
                  "internalType": "uint256",
                  "name": "lienId",
                  "type": "uint256"
                }
              ],
              "internalType": "struct ILienToken.Point",
              "name": "point",
              "type": "tuple"
            }
          ],
          "internalType": "struct ILienToken.Stack[]",
          "name": "stack",
          "type": "tuple[]"
        },
        {
          "internalType": "uint8",
          "name": "position",
          "type": "uint8"
        }
      ],
      "name": "liquidate",
      "outputs": [
        {
          "components": [
            {
              "internalType": "address",
              "name": "offerer",
              "type": "address"
            },
            {
              "internalType": "address",
              "name": "zone",
              "type": "address"
            },
            {
              "components": [
                {
                  "internalType": "enum ItemType",
                  "name": "itemType",
                  "type": "uint8"
                },
                {
                  "internalType": "address",
                  "name": "token",
                  "type": "address"
                },
                {
                  "internalType": "uint256",
                  "name": "identifierOrCriteria",
                  "type": "uint256"
                },
                {
                  "internalType": "uint256",
                  "name": "startAmount",
                  "type": "uint256"
                },
                {
                  "internalType": "uint256",
                  "name": "endAmount",
                  "type": "uint256"
                }
              ],
              "internalType": "struct OfferItem[]",
              "name": "offer",
              "type": "tuple[]"
            },
            {
              "components": [
                {
                  "internalType": "enum ItemType",
                  "name": "itemType",
                  "type": "uint8"
                },
                {
                  "internalType": "address",
                  "name": "token",
                  "type": "address"
                },
                {
                  "internalType": "uint256",
                  "name": "identifierOrCriteria",
                  "type": "uint256"
                },
                {
                  "internalType": "uint256",
                  "name": "startAmount",
                  "type": "uint256"
                },
                {
                  "internalType": "uint256",
                  "name": "endAmount",
                  "type": "uint256"
                },
                {
                  "internalType": "address payable",
                  "name": "recipient",
                  "type": "address"
                }
              ],
              "internalType": "struct ConsiderationItem[]",
              "name": "consideration",
              "type": "tuple[]"
            },
            {
              "internalType": "enum OrderType",
              "name": "orderType",
              "type": "uint8"
            },
            {
              "internalType": "uint256",
              "name": "startTime",
              "type": "uint256"
            },
            {
              "internalType": "uint256",
              "name": "endTime",
              "type": "uint256"
            },
            {
              "internalType": "bytes32",
              "name": "zoneHash",
              "type": "bytes32"
            },
            {
              "internalType": "uint256",
              "name": "salt",
              "type": "uint256"
            },
            {
              "internalType": "bytes32",
              "name": "conduitKey",
              "type": "bytes32"
            },
            {
              "internalType": "uint256",
              "name": "totalOriginalConsiderationItems",
              "type": "uint256"
            }
          ],
          "internalType": "struct OrderParameters",
          "name": "listedOrder",
          "type": "tuple"
        }
      ],
      "stateMutability": "nonpayable",
      "type": "function"
    },
    {
      "inputs": [
        {
          "internalType": "contract IERC4626",
          "name": "vault",
          "type": "address"
        },
        {
          "internalType": "address",
          "name": "to",
          "type": "address"
        },
        {
          "internalType": "uint256",
          "name": "shares",
          "type": "uint256"
        },
        {
          "internalType": "uint256",
          "name": "maxAmountIn",
          "type": "uint256"
        }
      ],
      "name": "mint",
      "outputs": [
        {
          "internalType": "uint256",
          "name": "amountIn",
          "type": "uint256"
        }
      ],
      "stateMutability": "payable",
      "type": "function"
    },
    {
      "inputs": [
        {
          "internalType": "bytes[]",
          "name": "data",
          "type": "bytes[]"
        }
      ],
      "name": "multicall",
      "outputs": [
        {
          "internalType": "bytes[]",
          "name": "results",
          "type": "bytes[]"
        }
      ],
      "stateMutability": "payable",
      "type": "function"
    },
    {
      "inputs": [
        {
          "internalType": "uint256",
          "name": "epochLength",
          "type": "uint256"
        },
        {
          "internalType": "address",
          "name": "delegate",
          "type": "address"
        },
        {
          "internalType": "address",
          "name": "underlying",
          "type": "address"
        },
        {
          "internalType": "uint256",
          "name": "vaultFee",
          "type": "uint256"
        },
        {
          "internalType": "bool",
          "name": "allowListEnabled",
          "type": "bool"
        },
        {
          "internalType": "address[]",
          "name": "allowList",
          "type": "address[]"
        },
        {
          "internalType": "uint256",
          "name": "depositCap",
          "type": "uint256"
        }
      ],
      "name": "newPublicVault",
      "outputs": [
        {
          "internalType": "address",
          "name": "",
          "type": "address"
        }
      ],
      "stateMutability": "nonpayable",
      "type": "function"
    },
    {
      "inputs": [
        {
          "internalType": "address",
          "name": "delegate",
          "type": "address"
        },
        {
          "internalType": "address",
          "name": "underlying",
          "type": "address"
        }
      ],
      "name": "newVault",
      "outputs": [
        {
          "internalType": "address",
          "name": "",
          "type": "address"
        }
      ],
      "stateMutability": "nonpayable",
      "type": "function"
    },
    {
      "inputs": [],
      "name": "owner",
      "outputs": [
        {
          "internalType": "address",
          "name": "",
          "type": "address"
        }
      ],
      "stateMutability": "view",
      "type": "function"
    },
    {
      "inputs": [],
      "name": "paused",
      "outputs": [
        {
          "internalType": "bool",
          "name": "",
          "type": "bool"
        }
      ],
      "stateMutability": "view",
      "type": "function"
    },
    {
      "inputs": [
        {
          "internalType": "address",
          "name": "token",
          "type": "address"
        },
        {
          "internalType": "uint256",
          "name": "amount",
          "type": "uint256"
        },
        {
          "internalType": "address",
          "name": "recipient",
          "type": "address"
        }
      ],
      "name": "pullToken",
      "outputs": [],
      "stateMutability": "payable",
      "type": "function"
    },
    {
      "inputs": [
        {
          "internalType": "contract IERC4626",
          "name": "vault",
          "type": "address"
        },
        {
          "internalType": "address",
          "name": "to",
          "type": "address"
        },
        {
          "internalType": "uint256",
          "name": "shares",
          "type": "uint256"
        },
        {
          "internalType": "uint256",
          "name": "minAmountOut",
          "type": "uint256"
        }
      ],
      "name": "redeem",
      "outputs": [
        {
          "internalType": "uint256",
          "name": "amountOut",
          "type": "uint256"
        }
      ],
      "stateMutability": "payable",
      "type": "function"
    },
    {
      "inputs": [
        {
          "internalType": "contract IPublicVault",
          "name": "vault",
          "type": "address"
        },
        {
          "internalType": "uint256",
          "name": "shares",
          "type": "uint256"
        },
        {
          "internalType": "address",
          "name": "receiver",
          "type": "address"
        },
        {
          "internalType": "uint64",
          "name": "epoch",
          "type": "uint64"
        }
      ],
      "name": "redeemFutureEpoch",
      "outputs": [
        {
          "internalType": "uint256",
          "name": "assets",
          "type": "uint256"
        }
      ],
      "stateMutability": "nonpayable",
      "type": "function"
    },
    {
      "inputs": [
        {
          "internalType": "contract IERC4626",
          "name": "vault",
          "type": "address"
        },
        {
          "internalType": "address",
          "name": "to",
          "type": "address"
        },
        {
          "internalType": "uint256",
          "name": "minAmountOut",
          "type": "uint256"
        }
      ],
      "name": "redeemMax",
      "outputs": [
        {
          "internalType": "uint256",
          "name": "amountOut",
          "type": "uint256"
        }
      ],
      "stateMutability": "payable",
      "type": "function"
    },
    {
      "inputs": [
        {
          "components": [
            {
              "internalType": "address",
              "name": "tokenContract",
              "type": "address"
            },
            {
              "internalType": "uint256",
              "name": "tokenId",
              "type": "uint256"
            },
            {
              "components": [
                {
                  "components": [
                    {
                      "internalType": "uint8",
                      "name": "version",
                      "type": "uint8"
                    },
                    {
                      "internalType": "uint256",
                      "name": "deadline",
                      "type": "uint256"
                    },
                    {
                      "internalType": "address",
                      "name": "vault",
                      "type": "address"
                    }
                  ],
                  "internalType": "struct IAstariaRouter.StrategyDetailsParam",
                  "name": "strategy",
                  "type": "tuple"
                },
                {
                  "components": [
                    {
                      "components": [
                        {
                          "internalType": "uint8",
                          "name": "collateralType",
                          "type": "uint8"
                        },
                        {
                          "internalType": "address",
                          "name": "token",
                          "type": "address"
                        },
                        {
                          "internalType": "address",
                          "name": "vault",
                          "type": "address"
                        },
                        {
                          "internalType": "bytes32",
                          "name": "strategyRoot",
                          "type": "bytes32"
                        },
                        {
                          "internalType": "uint256",
                          "name": "collateralId",
                          "type": "uint256"
                        },
                        {
                          "components": [
                            {
                              "internalType": "uint256",
                              "name": "maxAmount",
                              "type": "uint256"
                            },
                            {
                              "internalType": "uint256",
                              "name": "rate",
                              "type": "uint256"
                            },
                            {
                              "internalType": "uint256",
                              "name": "duration",
                              "type": "uint256"
                            },
                            {
                              "internalType": "uint256",
                              "name": "maxPotentialDebt",
                              "type": "uint256"
                            },
                            {
                              "internalType": "uint256",
                              "name": "liquidationInitialAsk",
                              "type": "uint256"
                            }
                          ],
                          "internalType": "struct ILienToken.Details",
                          "name": "details",
                          "type": "tuple"
                        }
                      ],
                      "internalType": "struct ILienToken.Lien",
                      "name": "lien",
                      "type": "tuple"
                    },
                    {
                      "components": [
                        {
                          "internalType": "uint256",
                          "name": "amount",
                          "type": "uint256"
                        },
                        {
                          "internalType": "uint40",
                          "name": "last",
                          "type": "uint40"
                        },
                        {
                          "internalType": "uint40",
                          "name": "end",
                          "type": "uint40"
                        },
                        {
                          "internalType": "uint256",
                          "name": "lienId",
                          "type": "uint256"
                        }
                      ],
                      "internalType": "struct ILienToken.Point",
                      "name": "point",
                      "type": "tuple"
                    }
                  ],
                  "internalType": "struct ILienToken.Stack[]",
                  "name": "stack",
                  "type": "tuple[]"
                },
                {
                  "internalType": "bytes",
                  "name": "nlrDetails",
                  "type": "bytes"
                },
                {
                  "components": [
                    {
                      "internalType": "bytes32",
                      "name": "root",
                      "type": "bytes32"
                    },
                    {
                      "internalType": "bytes32[]",
                      "name": "proof",
                      "type": "bytes32[]"
                    }
                  ],
                  "internalType": "struct IAstariaRouter.MerkleData",
                  "name": "merkle",
                  "type": "tuple"
                },
                {
                  "internalType": "uint256",
                  "name": "amount",
                  "type": "uint256"
                },
                {
                  "internalType": "uint8",
                  "name": "v",
                  "type": "uint8"
                },
                {
                  "internalType": "bytes32",
                  "name": "r",
                  "type": "bytes32"
                },
                {
                  "internalType": "bytes32",
                  "name": "s",
                  "type": "bytes32"
                }
              ],
              "internalType": "struct IAstariaRouter.NewLienRequest",
              "name": "lienRequest",
              "type": "tuple"
            }
          ],
          "internalType": "struct IAstariaRouter.Commitment",
          "name": "params",
          "type": "tuple"
        },
        {
          "internalType": "address",
          "name": "receiver",
          "type": "address"
        }
      ],
      "name": "requestLienPosition",
      "outputs": [
        {
          "internalType": "uint256",
          "name": "",
          "type": "uint256"
        },
        {
          "components": [
            {
              "components": [
                {
                  "internalType": "uint8",
                  "name": "collateralType",
                  "type": "uint8"
                },
                {
                  "internalType": "address",
                  "name": "token",
                  "type": "address"
                },
                {
                  "internalType": "address",
                  "name": "vault",
                  "type": "address"
                },
                {
                  "internalType": "bytes32",
                  "name": "strategyRoot",
                  "type": "bytes32"
                },
                {
                  "internalType": "uint256",
                  "name": "collateralId",
                  "type": "uint256"
                },
                {
                  "components": [
                    {
                      "internalType": "uint256",
                      "name": "maxAmount",
                      "type": "uint256"
                    },
                    {
                      "internalType": "uint256",
                      "name": "rate",
                      "type": "uint256"
                    },
                    {
                      "internalType": "uint256",
                      "name": "duration",
                      "type": "uint256"
                    },
                    {
                      "internalType": "uint256",
                      "name": "maxPotentialDebt",
                      "type": "uint256"
                    },
                    {
                      "internalType": "uint256",
                      "name": "liquidationInitialAsk",
                      "type": "uint256"
                    }
                  ],
                  "internalType": "struct ILienToken.Details",
                  "name": "details",
                  "type": "tuple"
                }
              ],
              "internalType": "struct ILienToken.Lien",
              "name": "lien",
              "type": "tuple"
            },
            {
              "components": [
                {
                  "internalType": "uint256",
                  "name": "amount",
                  "type": "uint256"
                },
                {
                  "internalType": "uint40",
                  "name": "last",
                  "type": "uint40"
                },
                {
                  "internalType": "uint40",
                  "name": "end",
                  "type": "uint40"
                },
                {
                  "internalType": "uint256",
                  "name": "lienId",
                  "type": "uint256"
                }
              ],
              "internalType": "struct ILienToken.Point",
              "name": "point",
              "type": "tuple"
            }
          ],
          "internalType": "struct ILienToken.Stack[]",
          "name": "",
          "type": "tuple[]"
        },
        {
          "internalType": "uint256",
          "name": "",
          "type": "uint256"
        }
      ],
      "stateMutability": "nonpayable",
      "type": "function"
    },
    {
      "inputs": [
        {
          "internalType": "contract Authority",
          "name": "newAuthority",
          "type": "address"
        }
      ],
      "name": "setAuthority",
      "outputs": [],
      "stateMutability": "nonpayable",
      "type": "function"
    },
    {
      "inputs": [
        {
          "internalType": "address",
          "name": "_guardian",
          "type": "address"
        }
      ],
      "name": "setNewGuardian",
      "outputs": [],
      "stateMutability": "nonpayable",
      "type": "function"
    },
    {
      "inputs": [
        {
          "internalType": "address",
          "name": "newOwner",
          "type": "address"
        }
      ],
      "name": "transferOwnership",
      "outputs": [],
      "stateMutability": "nonpayable",
      "type": "function"
    },
    {
      "inputs": [
        {
          "components": [
            {
              "internalType": "address",
              "name": "tokenContract",
              "type": "address"
            },
            {
              "internalType": "uint256",
              "name": "tokenId",
              "type": "uint256"
            },
            {
              "components": [
                {
                  "components": [
                    {
                      "internalType": "uint8",
                      "name": "version",
                      "type": "uint8"
                    },
                    {
                      "internalType": "uint256",
                      "name": "deadline",
                      "type": "uint256"
                    },
                    {
                      "internalType": "address",
                      "name": "vault",
                      "type": "address"
                    }
                  ],
                  "internalType": "struct IAstariaRouter.StrategyDetailsParam",
                  "name": "strategy",
                  "type": "tuple"
                },
                {
                  "components": [
                    {
                      "components": [
                        {
                          "internalType": "uint8",
                          "name": "collateralType",
                          "type": "uint8"
                        },
                        {
                          "internalType": "address",
                          "name": "token",
                          "type": "address"
                        },
                        {
                          "internalType": "address",
                          "name": "vault",
                          "type": "address"
                        },
                        {
                          "internalType": "bytes32",
                          "name": "strategyRoot",
                          "type": "bytes32"
                        },
                        {
                          "internalType": "uint256",
                          "name": "collateralId",
                          "type": "uint256"
                        },
                        {
                          "components": [
                            {
                              "internalType": "uint256",
                              "name": "maxAmount",
                              "type": "uint256"
                            },
                            {
                              "internalType": "uint256",
                              "name": "rate",
                              "type": "uint256"
                            },
                            {
                              "internalType": "uint256",
                              "name": "duration",
                              "type": "uint256"
                            },
                            {
                              "internalType": "uint256",
                              "name": "maxPotentialDebt",
                              "type": "uint256"
                            },
                            {
                              "internalType": "uint256",
                              "name": "liquidationInitialAsk",
                              "type": "uint256"
                            }
                          ],
                          "internalType": "struct ILienToken.Details",
                          "name": "details",
                          "type": "tuple"
                        }
                      ],
                      "internalType": "struct ILienToken.Lien",
                      "name": "lien",
                      "type": "tuple"
                    },
                    {
                      "components": [
                        {
                          "internalType": "uint256",
                          "name": "amount",
                          "type": "uint256"
                        },
                        {
                          "internalType": "uint40",
                          "name": "last",
                          "type": "uint40"
                        },
                        {
                          "internalType": "uint40",
                          "name": "end",
                          "type": "uint40"
                        },
                        {
                          "internalType": "uint256",
                          "name": "lienId",
                          "type": "uint256"
                        }
                      ],
                      "internalType": "struct ILienToken.Point",
                      "name": "point",
                      "type": "tuple"
                    }
                  ],
                  "internalType": "struct ILienToken.Stack[]",
                  "name": "stack",
                  "type": "tuple[]"
                },
                {
                  "internalType": "bytes",
                  "name": "nlrDetails",
                  "type": "bytes"
                },
                {
                  "components": [
                    {
                      "internalType": "bytes32",
                      "name": "root",
                      "type": "bytes32"
                    },
                    {
                      "internalType": "bytes32[]",
                      "name": "proof",
                      "type": "bytes32[]"
                    }
                  ],
                  "internalType": "struct IAstariaRouter.MerkleData",
                  "name": "merkle",
                  "type": "tuple"
                },
                {
                  "internalType": "uint256",
                  "name": "amount",
                  "type": "uint256"
                },
                {
                  "internalType": "uint8",
                  "name": "v",
                  "type": "uint8"
                },
                {
                  "internalType": "bytes32",
                  "name": "r",
                  "type": "bytes32"
                },
                {
                  "internalType": "bytes32",
                  "name": "s",
                  "type": "bytes32"
                }
              ],
              "internalType": "struct IAstariaRouter.NewLienRequest",
              "name": "lienRequest",
              "type": "tuple"
            }
          ],
          "internalType": "struct IAstariaRouter.Commitment",
          "name": "commitment",
          "type": "tuple"
        },
        {
          "internalType": "uint256",
          "name": "timeToSecondEpochEnd",
          "type": "uint256"
        }
      ],
      "name": "validateCommitment",
      "outputs": [
        {
          "components": [
            {
              "internalType": "uint8",
              "name": "collateralType",
              "type": "uint8"
            },
            {
              "internalType": "address",
              "name": "token",
              "type": "address"
            },
            {
              "internalType": "address",
              "name": "vault",
              "type": "address"
            },
            {
              "internalType": "bytes32",
              "name": "strategyRoot",
              "type": "bytes32"
            },
            {
              "internalType": "uint256",
              "name": "collateralId",
              "type": "uint256"
            },
            {
              "components": [
                {
                  "internalType": "uint256",
                  "name": "maxAmount",
                  "type": "uint256"
                },
                {
                  "internalType": "uint256",
                  "name": "rate",
                  "type": "uint256"
                },
                {
                  "internalType": "uint256",
                  "name": "duration",
                  "type": "uint256"
                },
                {
                  "internalType": "uint256",
                  "name": "maxPotentialDebt",
                  "type": "uint256"
                },
                {
                  "internalType": "uint256",
                  "name": "liquidationInitialAsk",
                  "type": "uint256"
                }
              ],
              "internalType": "struct ILienToken.Details",
              "name": "details",
              "type": "tuple"
            }
          ],
          "internalType": "struct ILienToken.Lien",
          "name": "lien",
          "type": "tuple"
        }
      ],
      "stateMutability": "view",
      "type": "function"
    },
    {
      "inputs": [
        {
          "internalType": "contract IERC4626",
          "name": "vault",
          "type": "address"
        },
        {
          "internalType": "address",
          "name": "to",
          "type": "address"
        },
        {
          "internalType": "uint256",
          "name": "amount",
          "type": "uint256"
        },
        {
          "internalType": "uint256",
          "name": "maxSharesOut",
          "type": "uint256"
        }
      ],
      "name": "withdraw",
      "outputs": [
        {
          "internalType": "uint256",
          "name": "sharesOut",
          "type": "uint256"
        }
      ],
      "stateMutability": "payable",
      "type": "function"
    }
  ],
  "bytecode": {
    "object": "0x60806040523480156200001157600080fd5b506200001c62000022565b62000147565b60006200002e620000ef565b8054909150610100900460ff16156200009d5760405162461bcd60e51b815260206004820152602760248201527f496e697469616c697a61626c653a20636f6e747261637420697320696e697469604482015266616c697a696e6760c81b606482015260840160405180910390fd5b805460ff9081161015620000ec57805460ff191660ff90811782556040519081527f7f26b83ff96e1f2b6a682f133852f6798a09c465da95921460cefb38474024989060200160405180910390a15b50565b6000806200011f60017fe54d104cc32597338d9a7867d41ca0c8fb6144529e0565413f4b3671fc57878562000125565b92915050565b818103818111156200011f57634e487b7160e01b600052601160045260246000fd5b61598f80620001576000396000f3fe6080604052600436106102515760003560e01c80638da5cb5b11610139578063c2e4ba50116100b6578063e87f7c311161007a578063e87f7c3114610678578063ed01c6e514610698578063f2fde38b146106ab578063f5e95acb146106cb578063f5f1f1a7146106eb578063f943028c1461070057600080fd5b8063c2e4ba50146105d3578063c65a7ecf14610600578063ca17ba7514610615578063d2fb007f14610635578063d54aa70a1461066357600080fd5b8063ac9650d8116100fd578063ac9650d814610556578063b05e52fd14610576578063b3f1c93d14610596578063bce1e58b146105a9578063bf7e214f146105be57600080fd5b80638da5cb5b146104d757806396d6401d146104ec5780639c37b27f14610501578063a246bd3014610516578063aaffd4ad1461052957600080fd5b80634be47418116101d257806364c7a42e1161019657806364c7a42e1461043157806373d15414146104515780637a9e5e4b146104645780637bfe950c146104845780637f4eb920146104975780637fdfeead146104b757600080fd5b80634be474181461039757806354d84628146103aa5780635c975abb146103ca578063609a8b8c146103ef578063642194501461041157600080fd5b80631ff0c9d6116102195780631ff0c9d61461032557806320e8c5651461033a57806322ba6a331461034d5780632b50bfe31461036d57806341700b971461038257600080fd5b8063017e7e58146102565780630472a61d146102885780630f0245ad146102a85780631276cf53146102d6578063191e0aca146102f6575b600080fd5b34801561026257600080fd5b5061026b610713565b6040516001600160a01b0390911681526020015b60405180910390f35b34801561029457600080fd5b5061026b6102a3366004613ae8565b610731565b3480156102b457600080fd5b506102c86102c3366004613b05565b6107a7565b60405190815260200161027f565b3480156102e257600080fd5b506102c86102f1366004613b05565b6107e3565b34801561030257600080fd5b50610316610311366004613b4b565b610819565b60405161027f93929190613c97565b34801561033157600080fd5b5061026b610a92565b6102c8610348366004613cc0565b610ab0565b34801561035957600080fd5b5061026b610368366004613d58565b610afa565b34801561037957600080fd5b506102c8610be4565b34801561038e57600080fd5b5061026b610bfc565b6102c86103a5366004613cc0565b610c1a565b3480156103b657600080fd5b5061026b6103c5366004613ded565b610c5a565b3480156103d657600080fd5b506103df610d02565b604051901515815260200161027f565b3480156103fb57600080fd5b5061040f61040a366004613e1b565b610d15565b005b34801561041d57600080fd5b506103df61042c366004613e5c565b610d8b565b34801561043d57600080fd5b5061026b61044c366004613ae8565b610dba565b61040f61045f366004613e79565b610de9565b34801561047057600080fd5b5061040f61047f366004613e5c565b610e72565b6102c8610492366004613cc0565b610f6d565b3480156104a357600080fd5b506103df6104b236600461414f565b610fad565b3480156104c357600080fd5b506102c86104d236600461416c565b610fd2565b3480156104e357600080fd5b5061026b61108e565b3480156104f857600080fd5b5061026b6110a7565b34801561050d57600080fd5b5061040f6110c5565b6102c86105243660046141cb565b61110e565b34801561053557600080fd5b506105496105443660046142a5565b611220565b60405161027f919061440f565b610569610564366004613e1b565b6114dc565b60405161027f9190614539565b34801561058257600080fd5b5061040f61059136600461459b565b611633565b6102c86105a4366004613cc0565b611671565b3480156105b557600080fd5b5061040f6116b1565b3480156105ca57600080fd5b5061026b611712565b3480156105df57600080fd5b506105f36105ee3660046145d5565b61172e565b60405161027f9190614619565b34801561060c57600080fd5b5061040f611748565b34801561062157600080fd5b5061040f610630366004613e1b565b6117cd565b34801561064157600080fd5b50610655610650366004614792565b611b19565b60405161027f929190614954565b34801561066f57600080fd5b5061040f611d42565b34801561068457600080fd5b5061040f610693366004613e5c565b611d96565b6102c86106a63660046141cb565b611ddf565b3480156106b757600080fd5b5061040f6106c6366004613e5c565b611f5a565b3480156106d757600080fd5b5061040f6106e63660046149a1565b611fe4565b3480156106f757600080fd5b5061026b6122a8565b6102c861070e366004613cc0565b6122c6565b60008061071e61234b565b600401546001600160a01b031692915050565b600061073b61234b565b60ff83166000908152600a9190910160205260409020546001600160a01b03169050806107a25760405162461bcd60e51b815260206004820152601060248201526f1d5b9cdd5c1c1bdc9d19590bda5b5c1b60821b60448201526064015b60405180910390fd5b919050565b6000806107b261234b565b80549091506107dc90849063ffffffff600160a01b8204811691600160c01b900481169061237916565b9392505050565b6000806107ee61234b565b80549091506107dc90849063ffffffff6401000000008204811691600160401b900481169061237916565b600060606000610827610d02565b156108445760405162461bcd60e51b815260040161079990614a5d565b3361084e81610d8b565b610876576040516357b980d760e11b81526001600160a01b0382166004820152602401610799565b600061088061234b565b6002810154604080516080810182529293506001600160a01b03909116916392310e109181906108b2908c018c614a87565b60c0013581526001600160a01b038a166020820152604080516301ffc9a760e01b8152636ff515cb60e01b60048201529101906109ab9086908d9033906301ffc9a790602401602060405180830381865afa158015610915573d6000803e3d6000fd5b505050506040513d601f19601f820116820180604052508101906109399190614aa8565b610944576000612397565b336001600160a01b03166390bec11d6040518163ffffffff1660e01b8152600401602060405180830381865afa158015610982573d6000803e3d6000fd5b505050506040513d601f19601f820116820180604052508101906109a69190614ac5565b612397565b81526020016109bd60408c018c614a87565b6109cb906060810190614ade565b808060200260200160405190810160405280939291908181526020016000905b82821015610a1857610a096101c0830286013681900381019061414f565b815260200190600101906109eb565b50505050508152506040518263ffffffff1660e01b8152600401610a3c9190614b5c565b6000604051808303816000875af1158015610a5b573d6000803e3d6000fd5b505050506040513d6000823e601f3d908101601f19168201604052610a839190810190614d53565b94509450945050509250925092565b600080610a9d61234b565b600501546001600160a01b031692915050565b600084610abc81610d8b565b610ae4576040516357b980d760e11b81526001600160a01b0382166004820152602401610799565b610af08686868661278b565b9695505050505050565b6000610b04610d02565b15610b215760405162461bcd60e51b815260040161079990614a5d565b6000610b2b61234b565b8054909150600160801b900463ffffffff168a1015610b6057600060405163683f44bb60e11b81526004016107999190614da2565b8054600160601b900463ffffffff168a1115610b9257600160405163683f44bb60e11b81526004016107999190614da2565b610bd681898c8c8b8b8b8b808060200260200160405190810160405280939291908181526020018383602002808284376000920191909152508d925061289c915050565b9a9950505050505050505050565b600080610bef61234b565b5463ffffffff1692915050565b600080610c0761234b565b600201546001600160a01b031692915050565b600084610c2681610d8b565b610c4e576040516357b980d760e11b81526001600160a01b0382166004820152602401610799565b610af086868686612b47565b6000610c64610d02565b15610c815760405162461bcd60e51b815260040161079990614a5d565b604080516001808252818301909252600091602080830190803683370190505090503381600081518110610cb757610cb7614dbc565b60200260200101906001600160a01b031690816001600160a01b0316815250506000610ce161234b565b9050610cf781856000886000600188600061289c565b925050505b92915050565b6000610d0c612be7565b5460ff16919050565b610d2b336000356001600160e01b031916612c15565b610d475760405162461bcd60e51b815260040161079990614dd2565b60005b81811015610d8657610d7e838383818110610d6757610d67614dbc565b9050602002810190610d799190614df8565b612ccb565b600101610d4a565b505050565b6000610d9561234b565b6001600160a01b039092166000908152600b9290920160205250604090205460ff1690565b6000610dc461234b565b60ff90921660009081526009929092016020525060409020546001600160a01b031690565b6000610df361234b565b600381015460405163f3913e6960e01b81526001600160a01b03878116600483015233602483015285811660448301526064820187905292935091169063f3913e69906084015b600060405180830381600087803b158015610e5457600080fd5b505af1158015610e68573d6000803e3d6000fd5b5050505050505050565b6000610e7c613123565b80549091506001600160a01b0316331480610f155750600181015460405163b700961360e01b81526001600160a01b039091169063b700961390610ed490339030906001600160e01b03196000351690600401614e0e565b602060405180830381865afa158015610ef1573d6000803e3d6000fd5b505050506040513d601f19601f82011682018060405250810190610f159190614aa8565b610f1e57600080fd5b6001810180546001600160a01b0319166001600160a01b03841690811790915560405133907fa3396fd7f6e0a21b50e5089d2da70d5ac0a3bbbd1f617a93f134b7638998019890600090a35050565b600084610f7981610d8b565b610fa1576040516357b980d760e11b81526001600160a01b0382166004820152602401610799565b610af086868686613151565b600080610fb861234b565b50505060200151604001514264ffffffffff909116111590565b600084610fde81610d8b565b611006576040516357b980d760e11b81526001600160a01b0382166004820152602401610799565b6040516351d488dd60e11b8152600481018690526001600160a01b0385811660248301523360448301526001600160401b038516606483015287169063a3a911ba906084016020604051808303816000875af115801561106a573d6000803e3d6000fd5b505050506040513d601f19601f82011682018060405250810190610af09190614ac5565b6000611098613123565b546001600160a01b0316919050565b6000806110b261234b565b600301546001600160a01b031692915050565b60006110cf61234b565b60078101549091506001600160a01b031633146110eb57600080fd5b6007810180546001600160a01b0319908116909155600890910180549091169055565b6040516370a0823160e01b815233600482015260009081906001600160a01b038616906370a0823190602401602060405180830381865afa158015611157573d6000803e3d6000fd5b505050506040513d601f19601f8201168201806040525081019061117b9190614ac5565b604051636c82bbbf60e11b81523360048201529091506000906001600160a01b0387169063d905777e90602401602060405180830381865afa1580156111c5573d6000803e3d6000fd5b505050506040513d601f19601f820116820180604052508101906111e99190614ac5565b905060008282106111fa57826111fc565b815b9050611209878230610de9565b61121587878388610c1a565b979650505050505050565b6112286139d4565b61124d838360ff168151811061124057611240614dbc565b6020026020010151610fad565b61126d576000604051634b4208b960e01b81526004016107999190614e3b565b600061127761234b565b80546002820154865192935063ffffffff909116916001600160a01b0390911690633cdd1c1e90879060ff88169081106112b3576112b3614dbc565b602002602001015160000151608001518388336040518563ffffffff1660e01b81526004016112e59493929190614e4f565b600060405180830381600087803b1580156112ff57600080fd5b505af1158015611313573d6000803e3d6000fd5b505050507fd2f6618ba448f8b76ee0e823f8bb8c568b748f1687e1bc6bd625306fc4fb5035858560ff168151811061134d5761134d614dbc565b602002602001015160000151608001518560405161137892919091825260ff16602082015260400190565b60405180910390a18160010160009054906101000a90046001600160a01b03166001600160a01b031663d163259a6040518060a00160405280888860ff16815181106113c6576113c6614dbc565b602002602001015160000151602001516001600160a01b03168152602001888860ff16815181106113f9576113f9614dbc565b6020026020010151600001516080015181526020018481526020018860008151811061142757611427614dbc565b6020908102919091018101515160a0015160809081015183526103e892820192909252604080516001600160e01b031960e087901b16815284516001600160a01b03166004820152918401516024830152830151604482015260608301516064820152910151608482015260a4016000604051808303816000875af11580156114b4573d6000803e3d6000fd5b505050506040513d6000823e601f3d908101601f19168201604052610cf7919081019061500e565b6060816001600160401b038111156114f6576114f6613ebb565b60405190808252806020026020018201604052801561152957816020015b60608152602001906001900390816115145790505b50905060005b8281101561162c576000803086868581811061154d5761154d614dbc565b905060200281019061155f9190615113565b60405161156d929190615159565b600060405180830381855af49150503d80600081146115a8576040519150601f19603f3d011682016040523d82523d6000602084013e6115ad565b606091505b5091509150816115f9576044815110156115c657600080fd5b600481019050808060200190518101906115e09190615169565b60405162461bcd60e51b815260040161079991906151df565b8084848151811061160c5761160c614dbc565b60200260200101819052505050808061162490615208565b91505061152f565b5092915050565b611649336000356001600160e01b031916612c15565b6116655760405162461bcd60e51b815260040161079990614dd2565b61166e81612ccb565b50565b60008461167d81610d8b565b6116a5576040516357b980d760e11b81526001600160a01b0382166004820152602401610799565b610af0868686866131f1565b6116c7336000356001600160e01b031916612c15565b6116e35760405162461bcd60e51b815260040161079990614dd2565b6116eb610d02565b156117085760405162461bcd60e51b815260040161079990614a5d565b61171061328b565b565b600061171c613123565b600101546001600160a01b0316919050565b611736613a51565b6107dc61174161234b565b8484612397565b61175e336000356001600160e01b031916612c15565b61177a5760405162461bcd60e51b815260040161079990614dd2565b611782610d02565b6117c55760405162461bcd60e51b815260206004820152601460248201527314185d5cd8589b194e881b9bdd081c185d5cd95960621b6044820152606401610799565b6117106132ff565b60006117d761234b565b60078101549091506001600160a01b031633146117f357600080fd5b60005b82811015611b1357600084848381811061181257611812614dbc565b90506020028101906118249190614df8565b611832906020810190615221565b9050600085858481811061184857611848614dbc565b905060200281019061185a9190614df8565b611868906020810190615113565b8080601f016020809104026020016040519081016040528093929190818152602001838380828437600092019190915250929350600a92506118a8915050565b82600d8111156118ba576118ba6142eb565b0361193a57600080828060200190518101906118d69190615242565b90925090506001600160a01b038116611902576040516350ca491160e11b815260040160405180910390fd5b60ff919091166000908152600a86016020526040902080546001600160a01b0319166001600160a01b03909216919091179055611ad0565b600b82600d81111561194e5761194e6142eb565b036119b9576000818060200190518101906119699190615271565b90506001600160a01b038116611992576040516350ca491160e11b815260040160405180910390fd5b6001850180546001600160a01b0319166001600160a01b0392909216919091179055611ad0565b600c82600d8111156119cd576119cd6142eb565b03611a38576000818060200190518101906119e89190615271565b90506001600160a01b038116611a11576040516350ca491160e11b815260040160405180910390fd5b6002850180546001600160a01b0319166001600160a01b0392909216919091179055611ad0565b600d82600d811115611a4c57611a4c6142eb565b03611ab757600081806020019051810190611a679190615271565b90506001600160a01b038116611a90576040516350ca491160e11b815260040160405180910390fd5b6003850180546001600160a01b0319166001600160a01b0392909216919091179055611ad0565b6040516345f279ab60e01b815260040160405180910390fd5b7f4aa20127da97281124f6c5bf77f293274afb4745d8b41b9c40434f8e51ac7c818282604051611b0192919061528e565b60405180910390a150506001016117f6565b50505050565b606080611b24610d02565b15611b415760405162461bcd60e51b815260040161079990614a5d565b6000611b4b61234b565b9050600084516001600160401b03811115611b6857611b68613ebb565b604051908082528060200260200182016040528015611b91578160200160208202803683370190505b509350611bdb8286600081518110611bab57611bab614dbc565b60200260200101516000015187600081518110611bca57611bca614dbc565b602002602001015160200151613393565b60005b8551811015611c9d578015611c145783868281518110611c0057611c00614dbc565b602002602001015160400151602001819052505b611c3783878381518110611c2a57611c2a614dbc565b602002602001015161345d565b868381518110611c4957611c49614dbc565b602002602001018196508281525050508360018551611c6891906152b7565b81518110611c7857611c78614dbc565b6020026020010151602001516000015182611c9391906152ca565b9150600101611bde565b611d3a338388600081518110611cb557611cb5614dbc565b60200260200101516040015160000151604001516001600160a01b03166338d52e0f6040518163ffffffff1660e01b8152600401602060405180830381865afa158015611d06573d6000803e3d6000fd5b505050506040513d601f19601f82011682018060405250810190611d2a9190615271565b6001600160a01b03169190613611565b505050915091565b6000611d4c61234b565b60088101549091506001600160a01b03163314611d6857600080fd5b600881018054600790920180546001600160a01b03199081166001600160a01b038516179091559091169055565b6000611da061234b565b60078101549091506001600160a01b03163314611dbc57600080fd5b60080180546001600160a01b0319166001600160a01b0392909216919091179055565b600080846001600160a01b03166338d52e0f6040518163ffffffff1660e01b8152600401602060405180830381865afa158015611e20573d6000803e3d6000fd5b505050506040513d601f19601f82011682018060405250810190611e449190615271565b6040516370a0823160e01b81523360048201529091506000906001600160a01b038316906370a0823190602401602060405180830381865afa158015611e8e573d6000803e3d6000fd5b505050506040513d601f19601f82011682018060405250810190611eb29190614ac5565b60405163402d267d60e01b81526001600160a01b03878116600483015291925060009188169063402d267d90602401602060405180830381865afa158015611efe573d6000803e3d6000fd5b505050506040513d601f19601f82011682018060405250810190611f229190614ac5565b90506000828210611f335782611f35565b815b9050611f42848230610de9565b611f4e88888389610ab0565b98975050505050505050565b611f70336000356001600160e01b031916612c15565b611f8c5760405162461bcd60e51b815260040161079990614dd2565b6000611f96613123565b80546001600160a01b0319166001600160a01b03841690811782556040519192509033907f8be0079c531659141344cd1fd0a4f28419497f9722a3daafe3b4186f6b6457e090600090a35050565b6000611fee613689565b8054909150610100900460ff161580801561200f57508154600160ff909116105b806120285750303b1580156120285750815460ff166001145b61208b5760405162461bcd60e51b815260206004820152602e60248201527f496e697469616c697a61626c653a20636f6e747261637420697320616c72656160448201526d191e481a5b9a5d1a585b1a5e995960921b6064820152608401610799565b815460ff1916600117825580156120aa57815461ff0019166101001782555b6120b4338c6136b7565b60006120be61234b565b6001810180546001600160a01b03808f166001600160a01b0319928316179092556002830180548e8416908316179055600383018054928d1692909116919091179055905086600a820160008060ff1681526020810191909152604001600090812080546001600160a01b0319166001600160a01b0393909316929092179091558890600a830190600160ff1681526020810191909152604001600090812080546001600160a01b0319166001600160a01b0393909316929092179091558690600a830190600260ff1681526020810191909152604001600090812080546001600160a01b0319166001600160a01b0393909316929092179091558490600a830190600360ff168152602081019190915260400160002080546001600160a01b03199081166001600160a01b039384161790915560058301805482169288169290921790915581541672093a80003b5380000003e8000000820003f4801781556301e13380612235662386f26fc1000060c86152dd565b61223f91906152f4565b600682015560070180546001600160a01b03191633179055801561229b57815461ff0019168255604051600181527f7f26b83ff96e1f2b6a682f133852f6798a09c465da95921460cefb38474024989060200160405180910390a15b5050505050505050505050565b6000806122b361234b565b600101546001600160a01b031692915050565b6000612334856001600160a01b03166338d52e0f6040518163ffffffff1660e01b8152600401602060405180830381865afa158015612309573d6000803e3d6000fd5b505050506040513d601f19601f8201168201806040525081019061232d9190615271565b8430610de9565b61234085858585610ab0565b90505b949350505050565b600080610cfc60017fb5d37468eefb1c75507259f9212a7d55dca0c7d08d9ef7be1cda5c5103eaa88e6152b7565b600082600019048411830215820261239057600080fd5b5091020490565b61239f613a51565b60006123f96123b16040860186614a87565b6123bf906080810190615113565b8080601f016020809104026020016040519081016040528093929190818152602001838380828437600092018290525092506137a6915050565b60ff811660009081526009870160205260409020549091506001600160a01b03168061243d57604051630ee899e360e41b815260ff83166004820152602401610799565b6000806001600160a01b03831663e1d81b3e61245c60408a018a614a87565b60018b01546001600160a01b0316636352211e61249a60208d01803590612483908f613e5c565b6001600160a01b03166000526020526034600c2090565b6040518263ffffffff1660e01b81526004016124b891815260200190565b602060405180830381865afa1580156124d5573d6000803e3d6000fd5b505050506040513d601f19601f820116820180604052508101906124f99190615271565b61250660208c018c613e5c565b8b602001356040518563ffffffff1660e01b815260040161252a9493929190615577565b60c060405180830381865afa158015612547573d6000803e3d6000fd5b505050506040513d601f19601f8201168201806040525081019061256b9190615687565b91509150600081602001511480612589575087600601548160200151115b156125aa5760016040516321d4d76960e21b815260040161079991906156b4565b6125b76040880188614a87565b60c00135816000015110156125e25760026040516321d4d76960e21b815260040161079991906156b4565b6126306125f26040890189614a87565b6126009060a0810190614df8565b61260e9060208101906156c8565b61261b60408b018b614a87565b6126299060a0810190614df8565b35856137e5565b6126505760006040516321d4d76960e21b815260040161079991906156b4565b6000861180156126635750858160400151115b1561267057604081018690525b6040518060c001604052808560ff1681526020018880604001906126949190614a87565b6126a5906060810190604001613e5c565b6001600160a01b03166338d52e0f6040518163ffffffff1660e01b8152600401602060405180830381865afa1580156126e2573d6000803e3d6000fd5b505050506040513d601f19601f820116820180604052508101906127069190615271565b6001600160a01b0316815260200161272160408a018a614a87565b612732906060810190604001613e5c565b6001600160a01b0316815260200161274d60408a018a614a87565b61275b9060a0810190614df8565b358152602090810190612777908a01803590612483908c613e5c565b815260200191909152979650505050505050565b60006128048584876001600160a01b03166338d52e0f6040518163ffffffff1660e01b8152600401602060405180830381865afa1580156127d0573d6000803e3d6000fd5b505050506040513d601f19601f820116820180604052508101906127f49190615271565b6001600160a01b0316919061381f565b604051636e553f6560e01b8152600481018490526001600160a01b038581166024830152839190871690636e553f65906044016020604051808303816000875af1158015612856573d6000803e3d6000fd5b505050506040513d601f19601f8201168201806040525081019061287a9190614ac5565b9150811015612343576040516305133e6360e51b815260040160405180910390fd5b600080886001600160a01b03163b6000036128d55760405163077e8c5560e21b81526001600160a01b038a166004820152602401610799565b87156128e3575060016128e7565b5060005b60058a01546040516bffffffffffffffffffffffff1930606090811b821660208401526001600160f81b031960f886901b16603484015233811b821660358401528c901b16604982015242605d820152607d81018a9052609d81018890526129b3916001600160a01b03169060bd0160408051601f19818403018152919052336129726001436152b7565b60405160609290921b6bffffffffffffffffffffffff1916602083015240603482015260540160405160208183030381529060405280519060200120613896565b60028b01546040516370a0823160e01b81526001600160a01b038084166004830152929450600092909116906370a0823190602401602060405180830381865afa158015612a05573d6000803e3d6000fd5b505050506040513d601f19601f82011682018060405250810190612a299190614ac5565b1115612a4b57600160405163201f67df60e01b81526004016107999190615711565b604080516080810182526001600160a01b03898116825287151560208301528183018790526060820186905291516311d2879560e21b81529184169163474a1e5491612a999160040161571e565b600060405180830381600087803b158015612ab357600080fd5b505af1158015612ac7573d6000803e3d6000fd5b505050506001600160a01b038281166000818152600b8d016020908152604091829020805460ff191660011790558151338152938b169084015282015260ff821660608201527f9aa6282003aa425f2bb942f91daaf7080de24835fc4fa8f3f4dc52c7d014ea979060800160405180910390a15098975050505050505050565b604051635d043b2960e11b8152600481018390526001600160a01b038481166024830152336044830152600091839187169063ba087652906064016020604051808303816000875af1158015612ba1573d6000803e3d6000fd5b505050506040513d601f19601f82011682018060405250810190612bc59190614ac5565b915081101561234357604051636e8c873b60e01b815260040160405180910390fd5b600080610cfc60017f79e01b51e3a67f26dfcce791888d253159e9690f0dd937c21f9267c37958ff956152b7565b600080612c20613123565b60018101549091506001600160a01b03168015801590612cac575060405163b700961360e01b81526001600160a01b0382169063b700961390612c6b90889030908990600401614e0e565b602060405180830381865afa158015612c88573d6000803e3d6000fd5b505050506040513d601f19601f82011682018060405250810190612cac9190614aa8565b80610cf7575050546001600160a01b0390811693169290921492915050565b6000612cd561234b565b90506000612ce66020840184615221565b90506000612cf76020850185615113565b8080601f01602080910402602001604051908101604052809392919081815260200183838082843760009201919091525092935060089250612d37915050565b82600d811115612d4957612d496142eb565b03612d8a57600081806020019051810190612d649190614ac5565b9050612d6f816138e1565b845463ffffffff191663ffffffff91909116178455506130e4565b600182600d811115612d9e57612d9e6142eb565b03612e405760008082806020019051810190612dba91906157a2565b9150915081811015612ddf576040516350ca491160e11b815260040160405180910390fd5b612de8826138e1565b855463ffffffff919091166401000000000267ffffffff0000000019909116178555612e13816138e1565b855463ffffffff91909116600160401b026bffffffff000000000000000019909116178555506130e49050565b600282600d811115612e5457612e546142eb565b03612eef5760008082806020019051810190612e7091906157a2565b9150915081811015612e95576040516350ca491160e11b815260040160405180910390fd5b612e9e826138e1565b855463ffffffff91909116600160a01b0263ffffffff60a01b19909116178555612ec7816138e1565b855463ffffffff91909116600160c01b0263ffffffff60c01b19909116178555506130e49050565b600482600d811115612f0357612f036142eb565b03612f4957612f2481806020019051810190612f1f9190614ac5565b6138e1565b835463ffffffff91909116600160801b0263ffffffff60801b199091161783556130e4565b600582600d811115612f5d57612f5d6142eb565b03612f9e57612f7981806020019051810190612f1f9190614ac5565b835463ffffffff91909116600160601b0263ffffffff60601b199091161783556130e4565b600782600d811115612fb257612fb26142eb565b03612fd55780806020019051810190612fcb9190614ac5565b60068401556130e4565b600082600d811115612fe957612fe96142eb565b03613054576000818060200190518101906130049190615271565b90506001600160a01b03811661302d576040516350ca491160e11b815260040160405180910390fd5b6004840180546001600160a01b0319166001600160a01b03929092169190911790556130e4565b600982600d811115613068576130686142eb565b03611ab757600080828060200190518101906130849190615242565b90925090506001600160a01b0381166130b0576040516350ca491160e11b815260040160405180910390fd5b60ff919091166000908152600985016020526040902080546001600160a01b0319166001600160a01b039092169190911790555b7f4aa20127da97281124f6c5bf77f293274afb4745d8b41b9c40434f8e51ac7c81828260405161311592919061528e565b60405180910390a150505050565b600080610cfc60017f39509ba13edbf55c1c882ff847dd8db4cc4806e85b9952f85673490851bc713b6152b7565b604051632d182be560e21b8152600481018390526001600160a01b038481166024830152336044830152600091839187169063b460af94906064016020604051808303816000875af11580156131ab573d6000803e3d6000fd5b505050506040513d601f19601f820116820180604052508101906131cf9190614ac5565b91508111156123435760405163ac11961360e01b815260040160405180910390fd5b6040516394bf804d60e01b8152600481018390526001600160a01b03848116602483015260009183918716906394bf804d906044016020604051808303816000875af1158015613245573d6000803e3d6000fd5b505050506040513d601f19601f820116820180604052508101906132699190614ac5565b915081111561234357604051634e3c485360e01b815260040160405180910390fd5b613293610d02565b156132b05760405162461bcd60e51b815260040161079990614a5d565b60016132ba612be7565b805460ff19169115159190911790556040513381527f62e78cea01bee320cd4e420270b5ea74000d11b0c9f74754ebdbfc544b05a258906020015b60405180910390a1565b613307610d02565b61334a5760405162461bcd60e51b815260206004820152601460248201527314185d5cd8589b194e881b9bdd081c185d5cd95960621b6044820152606401610799565b6000613354612be7565b805460ff19169115159190911790556040513381527f5db9ee0a495bf2e6ff9c91a7834c1ba4fdd244a5e8aa4e537bd38aeae4b073aa906020016132f5565b6040516331a9108f60e11b815260048101829052829033906001600160a01b03831690636352211e90602401602060405180830381865afa1580156133dc573d6000803e3d6000fd5b505050506040513d601f19601f820116820180604052508101906134009190615271565b6001600160a01b031603611b13576001840154604051635c46a7ef60e11b81523360048201526001600160a01b0391821660248201526044810184905260806064820152600060848201529082169063b88d4fde9060a401610e3a565b600060606000613487846020015185600001516001600160a01b03166137d490919063ffffffff16565b60018601546040516331a9108f60e11b8152600481018390529192506001600160a01b031690636352211e90602401602060405180830381865afa1580156134d3573d6000803e3d6000fd5b505050506040513d601f19601f820116820180604052508101906134f79190615271565b6001600160a01b0316336001600160a01b03161461353157604051632729ad6960e21b815233600482015260248101829052604401610799565b604080850151518101516001600160a01b03166000908152600b8701602052205460ff16613587576040848101515181015190516357b980d760e11b81526001600160a01b039091166004820152602401610799565b6040808501515181015190516329aee4bd60e01b81526001600160a01b03909116906329aee4bd906135bd90879060040161581d565b6000604051808303816000875af11580156135dc573d6000803e3d6000fd5b505050506040513d6000823e601f3d908101601f191682016040526136049190810190615913565b92509250505b9250929050565b600060405163a9059cbb60e01b8152836004820152826024820152602060006044836000895af13d15601f3d1160016000511416171691505080611b135760405162461bcd60e51b815260206004820152600f60248201526e1514905394d1915497d19052531151608a1b6044820152606401610799565b600080610cfc60017fe54d104cc32597338d9a7867d41ca0c8fb6144529e0565413f4b3671fc5787856152b7565b60006136c1613123565b80549091506001600160a01b0316156137125760405162461bcd60e51b8152602060048201526013602482015272105b1c9958591e481a5b9a5d1a585b1a5e9959606a1b6044820152606401610799565b80546001600160a01b03199081166001600160a01b0385811691821784556001840180549093169085161790915560405133907f8be0079c531659141344cd1fd0a4f28419497f9722a3daafe3b4186f6b6457e090600090a36040516001600160a01b0383169033907fa3396fd7f6e0a21b50e5089d2da70d5ac0a3bbbd1f617a93f134b7638998019890600090a3505050565b815160009060208301808210156137c85763571e08d160e01b60005260206000fd5b93909301519392505050565b6000919091526020526034600c2090565b60008315613817578360051b8501855b803580851160051b948552602094851852604060002093018181106137f55750505b501492915050565b600060405163095ea7b360e01b8152836004820152826024820152602060006044836000895af13d15601f3d1160016000511416171691505080611b135760405162461bcd60e51b815260206004820152600e60248201526d1054141493d59157d1905253115160921b6044820152606401610799565b60008060006138a586866138f8565b915091508381836000f592506001600160a01b0383166138d857604051631d7fde3160e31b815260040160405180910390fd5b50509392505050565b600064010000000082106138f457600080fd5b5090565b8051604051606160f81b81526039820160f081811b60018401526f3d81600a3d39f33d3d3d3d363d3d376160801b600384015260028401901b601383018190526560373639366160d01b6015840152601b83015262013d7360e81b601d830152606085901b6020808401919091526c5af43d3d93803e603557fd5bf360981b603484015291926043810192909190850182604186015b602082106139ad5782518152602092830192601f19909201910161398e565b915160001960208390036101000a011916825260f09390931b920191909152509250929050565b60405180610160016040528060006001600160a01b0316815260200160006001600160a01b03168152602001606081526020016060815260200160006003811115613a2157613a216142eb565b815260006020820181905260408201819052606082018190526080820181905260a0820181905260c09091015290565b6040518060c00160405280600060ff16815260200160006001600160a01b0316815260200160006001600160a01b031681526020016000801916815260200160008152602001613ac96040518060a0016040528060008152602001600081526020016000815260200160008152602001600081525090565b905290565b60ff8116811461166e57600080fd5b80356107a281613ace565b600060208284031215613afa57600080fd5b81356107dc81613ace565b600060208284031215613b1757600080fd5b5035919050565b600060608284031215613b3057600080fd5b50919050565b6001600160a01b038116811461166e57600080fd5b60008060408385031215613b5e57600080fd5b82356001600160401b03811115613b7457600080fd5b613b8085828601613b1e565b9250506020830135613b9181613b36565b809150509250929050565b805160ff1682526020808201516001600160a01b039081168285015260408084015190911681850152606080840151818601526080808501518187015260a0948501518051958701959095529284015160c08601529083015160e0850152820151610100840152015161012090910152565b613c19828251613b9c565b60209081015180516101408401529081015164ffffffffff908116610160840152604082015116610180830152606001516101a08201526101c00190565b600081518084526020808501945080840160005b83811015613c8c57613c7e878351613c0e565b965090820190600101613c6b565b509495945050505050565b838152606060208201526000613cb06060830185613c57565b9050826040830152949350505050565b60008060008060808587031215613cd657600080fd5b8435613ce181613b36565b93506020850135613cf181613b36565b93969395505050506040820135916060013590565b801515811461166e57600080fd5b60008083601f840112613d2657600080fd5b5081356001600160401b03811115613d3d57600080fd5b6020830191508360208260051b850101111561360a57600080fd5b60008060008060008060008060e0898b031215613d7457600080fd5b883597506020890135613d8681613b36565b96506040890135613d9681613b36565b9550606089013594506080890135613dad81613d06565b935060a08901356001600160401b03811115613dc857600080fd5b613dd48b828c01613d14565b999c989b50969995989497949560c00135949350505050565b60008060408385031215613e0057600080fd5b8235613e0b81613b36565b91506020830135613b9181613b36565b60008060208385031215613e2e57600080fd5b82356001600160401b03811115613e4457600080fd5b613e5085828601613d14565b90969095509350505050565b600060208284031215613e6e57600080fd5b81356107dc81613b36565b600080600060608486031215613e8e57600080fd5b8335613e9981613b36565b9250602084013591506040840135613eb081613b36565b809150509250925092565b634e487b7160e01b600052604160045260246000fd5b604051608081016001600160401b0381118282101715613ef357613ef3613ebb565b60405290565b604080519081016001600160401b0381118282101715613ef357613ef3613ebb565b60405160c081016001600160401b0381118282101715613ef357613ef3613ebb565b60405160a081016001600160401b0381118282101715613ef357613ef3613ebb565b604051606081016001600160401b0381118282101715613ef357613ef3613ebb565b60405161010081016001600160401b0381118282101715613ef357613ef3613ebb565b60405161016081016001600160401b0381118282101715613ef357613ef3613ebb565b604051601f8201601f191681016001600160401b0381118282101715613fef57613fef613ebb565b604052919050565b64ffffffffff8116811461166e57600080fd5b60006080828403121561401c57600080fd5b614024613ed1565b905081358152602082013561403881613ff7565b6020820152604082013561404b81613ff7565b806040830152506060820135606082015292915050565b60008183036101c081121561407657600080fd5b61407e613ef9565b91506101408082121561409057600080fd5b614098613f1b565b84356140a381613ace565b815260208501356140b381613b36565b602082015260408501356140c681613b36565b6040820152606085810135908201526080808601359082015260a0609f19840112156140f157600080fd5b6140f9613f3d565b925060a0850135835260c0850135602084015260e08501356040840152610100850135606084015261012085013560808401528260a0820152808452506141428582860161400a565b6020840152505092915050565b60006101c0828403121561416257600080fd5b6107dc8383614062565b6000806000806080858703121561418257600080fd5b843561418d81613b36565b93506020850135925060408501356141a481613b36565b915060608501356001600160401b03811681146141c057600080fd5b939692955090935050565b6000806000606084860312156141e057600080fd5b83356141eb81613b36565b925060208401356141fb81613b36565b929592945050506040919091013590565b60006001600160401b0382111561422557614225613ebb565b5060051b60200190565b600082601f83011261424057600080fd5b813560206142556142508361420c565b613fc7565b8281526101c0928302850182019282820191908785111561427557600080fd5b8387015b858110156142985761428b8982614062565b8452928401928101614279565b5090979650505050505050565b600080604083850312156142b857600080fd5b82356001600160401b038111156142ce57600080fd5b6142da8582860161422f565b9250506020830135613b9181613ace565b634e487b7160e01b600052602160045260246000fd5b60068110614311576143116142eb565b9052565b600081518084526020808501945080840160005b83811015613c8c57815161433e888251614301565b838101516001600160a01b03168885015260408082015190890152606080820151908901526080908101519088015260a09096019590820190600101614329565b600081518084526020808501945080840160005b83811015613c8c5781516143a8888251614301565b808401516001600160a01b0390811689860152604080830151908a0152606080830151908a0152608080830151908a015260a091820151169088015260c09096019590820190600101614393565b6004811061166e5761166e6142eb565b614311816143f6565b602081526144296020820183516001600160a01b03169052565b6000602083015161444560408401826001600160a01b03169052565b506040830151610160806060850152614462610180850183614315565b91506060850151601f1985840301608086015261447f838261437f565b925050608085015161449460a0860182614406565b5060a085015160c085015260c085015160e085015260e0850151610100818187015280870151915050610120818187015280870151915050610140818187015280870151838701525050508091505092915050565b60005b838110156145045781810151838201526020016144ec565b50506000910152565b600081518084526145258160208601602086016144e9565b601f01601f19169290920160200192915050565b6000602080830181845280855180835260408601915060408160051b870101925083870160005b8281101561458e57603f1988860301845261457c85835161450d565b94509285019290850190600101614560565b5092979650505050505050565b6000602082840312156145ad57600080fd5b81356001600160401b038111156145c357600080fd5b8201604081850312156107dc57600080fd5b600080604083850312156145e857600080fd5b82356001600160401b038111156145fe57600080fd5b61460a85828601613b1e565b95602094909401359450505050565b6101408101610cfc8284613b9c565b60006060828403121561463a57600080fd5b614642613f5f565b9050813561464f81613ace565b815260208281013590820152604082013561466981613b36565b604082015292915050565b60006001600160401b0382111561468d5761468d613ebb565b50601f01601f191660200190565b600082601f8301126146ac57600080fd5b81356146ba61425082614674565b8181528460208386010111156146cf57600080fd5b816020850160208301376000918101602001919091529392505050565b6000604082840312156146fe57600080fd5b614706613ef9565b9050813581526020808301356001600160401b0381111561472657600080fd5b8301601f8101851361473757600080fd5b80356147456142508261420c565b81815260059190911b8201830190838101908783111561476457600080fd5b928401925b8284101561478257833582529284019290840190614769565b8085870152505050505092915050565b600060208083850312156147a557600080fd5b82356001600160401b03808211156147bc57600080fd5b818501915085601f8301126147d057600080fd5b81356147de6142508261420c565b81815260059190911b830184019084810190888311156147fd57600080fd5b8585015b838110156149475780358581111561481857600080fd5b8601601f196060828d038201121561482f57600080fd5b614837613f5f565b8983013561484481613b36565b815260408301358a82015260608301358881111561486157600080fd5b9290920191610140838e038301121561487957600080fd5b614881613f81565b915061488f8d8b8501614628565b82526080830135888111156148a357600080fd5b6148b18e8c8387010161422f565b8b8401525060a0830135888111156148c857600080fd5b6148d68e8c8387010161469b565b60408401525060c0830135888111156148ee57600080fd5b6148fc8e8c838701016146ec565b60608401525060e083013560808301526149196101008401613add565b60a083015261012083013560c08301526101409092013560e082015260408201528352918601918601614801565b5098975050505050505050565b604080825283519082018190526000906020906060840190828701845b8281101561498d57815184529284019290840190600101614971565b50505083810382850152610af08186613c57565b60008060008060008060008060006101208a8c0312156149c057600080fd5b89356149cb81613b36565b985060208a01356149db81613b36565b975060408a01356149eb81613b36565b965060608a01356149fb81613b36565b955060808a0135614a0b81613b36565b945060a08a0135614a1b81613b36565b935060c08a0135614a2b81613b36565b925060e08a0135614a3b81613b36565b91506101008a0135614a4c81613b36565b809150509295985092959850929598565b60208082526010908201526f14185d5cd8589b194e881c185d5cd95960821b604082015260600190565b6000823561013e19833603018112614a9e57600080fd5b9190910192915050565b600060208284031215614aba57600080fd5b81516107dc81613d06565b600060208284031215614ad757600080fd5b5051919050565b6000808335601e19843603018112614af557600080fd5b8301803591506001600160401b03821115614b0f57600080fd5b60200191506101c08102360382131561360a57600080fd5b600081518084526020808501945080840160005b83811015613c8c57614b4e878351613c0e565b965090820190600101614b3b565b602081528151602082015260018060a01b03602083015116604082015260006040830151614b8d6060840182613b9c565b5060608301516101a0838101526123436101c0840182614b27565b80516107a281613b36565b600060a08284031215614bc557600080fd5b614bcd613f3d565b9050815181526020820151602082015260408201516040820152606082015160608201526080820151608082015292915050565b600060808284031215614c1357600080fd5b614c1b613ed1565b9050815181526020820151614c2f81613ff7565b60208201526040820151614c4281613ff7565b806040830152506060820151606082015292915050565b600082601f830112614c6a57600080fd5b81516020614c7a6142508361420c565b8281526101c09283028501820192828201919087851115614c9a57600080fd5b8387015b858110156142985780890382811215614cb75760008081fd5b614cbf613ef9565b61014080831215614cd05760008081fd5b614cd8613f1b565b92508351614ce581613ace565b835283880151614cf481613b36565b83890152604084810151614d0781613b36565b90840152606084810151908401526080808501519084015260a0614d2d8d828701614bb3565b90840152828252614d408c858301614c01565b8289015250855250928401928101614c9e565b600080600060608486031215614d6857600080fd5b8351925060208401516001600160401b03811115614d8557600080fd5b614d9186828701614c59565b925050604084015190509250925092565b6020810160088310614db657614db66142eb565b91905290565b634e487b7160e01b600052603260045260246000fd5b6020808252600c908201526b15539055551213d49256915160a21b604082015260600190565b60008235603e19833603018112614a9e57600080fd5b6001600160a01b0393841681529190921660208201526001600160e01b0319909116604082015260600190565b6020810160028310614db657614db66142eb565b848152836020820152608060408201526000614e6e6080830185613c57565b905060018060a01b038316606083015295945050505050565b8051600681106107a257600080fd5b600082601f830112614ea757600080fd5b81516020614eb76142508361420c565b82815260a09283028501820192828201919087851115614ed657600080fd5b8387015b858110156142985781818a031215614ef25760008081fd5b614efa613f3d565b614f0382614e87565b815285820151614f1281613b36565b818701526040828101519082015260608083015190820152608080830151908201528452928401928101614eda565b600082601f830112614f5257600080fd5b81516020614f626142508361420c565b82815260c09283028501820192828201919087851115614f8157600080fd5b8387015b858110156142985781818a031215614f9d5760008081fd5b614fa5613f1b565b614fae82614e87565b815285820151614fbd81613b36565b8187015260408281015190820152606080830151908201526080808301519082015260a080830151614fee81613b36565b908201528452928401928101614f85565b8051600481106107a257600080fd5b60006020828403121561502057600080fd5b81516001600160401b038082111561503757600080fd5b90830190610160828603121561504c57600080fd5b615054613fa4565b61505d83614ba8565b815261506b60208401614ba8565b602082015260408301518281111561508257600080fd5b61508e87828601614e96565b6040830152506060830151828111156150a657600080fd5b6150b287828601614f41565b6060830152506150c460808401614fff565b608082015260a0838101519082015260c0808401519082015260e08084015190820152610100808401519082015261012080840151908201526101409283015192810192909252509392505050565b6000808335601e1984360301811261512a57600080fd5b8301803591506001600160401b0382111561514457600080fd5b60200191503681900382131561360a57600080fd5b8183823760009101908152919050565b60006020828403121561517b57600080fd5b81516001600160401b0381111561519157600080fd5b8201601f810184136151a257600080fd5b80516151b061425082614674565b8181528560208385010111156151c557600080fd5b6151d68260208301602086016144e9565b95945050505050565b6020815260006107dc602083018461450d565b634e487b7160e01b600052601160045260246000fd5b60006001820161521a5761521a6151f2565b5060010190565b60006020828403121561523357600080fd5b8135600e81106107dc57600080fd5b6000806040838503121561525557600080fd5b825161526081613ace565b6020840151909250613b9181613b36565b60006020828403121561528357600080fd5b81516107dc81613b36565b6000600e84106152a0576152a06142eb565b83825260406020830152612343604083018461450d565b81810381811115610cfc57610cfc6151f2565b80820180821115610cfc57610cfc6151f2565b8082028115828204841417610cfc57610cfc6151f2565b60008261531157634e487b7160e01b600052601260045260246000fd5b500490565b6000808335601e1984360301811261532d57600080fd5b83016020810192503590506001600160401b0381111561534c57600080fd5b6101c08102360382131561360a57600080fd5b80358252602081013561537181613ff7565b64ffffffffff908116602084015260408201359061538e82613ff7565b166040830152606090810135910152565b8183526000602080850194508260005b85811015613c8c5781356153c281613ace565b60ff168752818301356153d481613b36565b6001600160a01b0390811688850152604090838201356153f381613b36565b1690880152606082810135908801526080808301359088015260a0808301359088015260c0808301359088015260e080830135908801526101008083013590880152610120808301359088015261014061545181890182850161535f565b506101c09687019691909101906001016153af565b6000808335601e1984360301811261547d57600080fd5b83016020810192503590506001600160401b0381111561549c57600080fd5b80360382131561360a57600080fd5b81835281816020850137506000828201602090810191909152601f909101601f19169091010190565b60008235603e198336030181126154ea57600080fd5b90910192915050565b8035825260006020820135601e1983360301811261551057600080fd5b82016020810190356001600160401b0381111561552c57600080fd5b8060051b80360383131561553f57600080fd5b60406020870181905286018290526001600160fb1b0382111561556157600080fd5b8083606088013794909401606001949350505050565b608081526000853561558881613ace565b60ff166080830152602086013560a083015260408601356155a881613b36565b6001600160a01b031660c08301526155c36060870187615316565b6101408060e08601526155db6101c08601838561539f565b92506155ea60808a018a615466565b9250607f196101008188870301818901526156068686856154ab565b955061561560a08d018d6154d4565b9450610120925081888703018389015261562f86866154f3565b955060c08c01358489015261564660e08d01613add565b60ff166101608901528b013561018088015250909801356101a0850152506001600160a01b0395861660208401529390941660408201526060015292915050565b60008060c0838503121561569a57600080fd5b825191506156ab8460208501614bb3565b90509250929050565b6020810160058310614db657614db66142eb565b6000808335601e198436030181126156df57600080fd5b8301803591506001600160401b038211156156f957600080fd5b6020019150600581901b360382131561360a57600080fd5b60208101614db6836143f6565b602080825282516001600160a01b039081168383015283820151151560408085019190915284015160806060850152805160a08501819052600093929183019190849060c08701905b8083101561578957845184168252938501936001929092019190850190615767565b5060608801516080880152809550505050505092915050565b600080604083850312156157b557600080fd5b505080516020909101519092909150565b600060408301825184526020808401516040828701528281518085526060880191508383019450600092505b8083101561581257845182529383019360019290920191908301906157f2565b509695505050505050565b6020815260018060a01b0382511660208201526020820151604082015260006040830151606080840152615875608084018251805160ff168252602080820151908301526040908101516001600160a01b0316910152565b60208101516101408060e08601526158916101c0860183614b27565b91506040830151607f1980878503016101008801526158b0848361450d565b9350606085015191508087850301610120880152506158cf83826157c6565b9250506080830151818601525060a08201516158f161016086018260ff169052565b5060c082015161018085015260e08201516101a0850152809250505092915050565b6000806040838503121561592657600080fd5b8251915060208301516001600160401b0381111561594357600080fd5b61594f85828601614c59565b915050925092905056fea264697066735822122020643969a5473b16eaa6aea45bd5372ffd622b51d5bdad54ff81dd67bfc436a164736f6c63430008110033",
    "linkReferences": {}
  },
  "methodIdentifiers": {
    "BEACON_PROXY_IMPLEMENTATION()": "1ff0c9d6",
    "COLLATERAL_TOKEN()": "f5f1f1a7",
    "LIEN_TOKEN()": "41700b97",
    "TRANSFER_PROXY()": "96d6401d",
    "__acceptGuardian()": "d54aa70a",
    "__emergencyPause()": "bce1e58b",
    "__emergencyUnpause()": "c65a7ecf",
    "__renounceGuardian()": "9c37b27f",
    "authority()": "bf7e214f",
    "canLiquidate(((uint8,address,address,bytes32,uint256,(uint256,uint256,uint256,uint256,uint256)),(uint256,uint40,uint40,uint256)))": "7f4eb920",
    "commitToLiens((address,uint256,((uint8,uint256,address),((uint8,address,address,bytes32,uint256,(uint256,uint256,uint256,uint256,uint256)),(uint256,uint40,uint40,uint256))[],bytes,(bytes32,bytes32[]),uint256,uint8,bytes32,bytes32))[])": "d2fb007f",
    "deposit(address,address,uint256,uint256)": "20e8c565",
    "depositMax(address,address,uint256)": "ed01c6e5",
    "depositToVault(address,address,uint256,uint256)": "f943028c",
    "feeTo()": "017e7e58",
    "file((uint8,bytes))": "b05e52fd",
    "fileBatch((uint8,bytes)[])": "609a8b8c",
    "fileGuardian((uint8,bytes)[])": "ca17ba75",
    "getAuctionWindow()": "2b50bfe3",
    "getImpl(uint8)": "0472a61d",
    "getLiquidatorFee(uint256)": "1276cf53",
    "getProtocolFee(uint256)": "0f0245ad",
    "getStrategyValidator(uint8)": "64c7a42e",
    "initialize(address,address,address,address,address,address,address,address,address)": "f5e95acb",
    "isValidVault(address)": "64219450",
    "liquidate(((uint8,address,address,bytes32,uint256,(uint256,uint256,uint256,uint256,uint256)),(uint256,uint40,uint40,uint256))[],uint8)": "aaffd4ad",
    "mint(address,address,uint256,uint256)": "b3f1c93d",
    "multicall(bytes[])": "ac9650d8",
    "newPublicVault(uint256,address,address,uint256,bool,address[],uint256)": "22ba6a33",
    "newVault(address,address)": "54d84628",
    "owner()": "8da5cb5b",
    "paused()": "5c975abb",
    "pullToken(address,uint256,address)": "73d15414",
    "redeem(address,address,uint256,uint256)": "4be47418",
    "redeemFutureEpoch(address,uint256,address,uint64)": "7fdfeead",
    "redeemMax(address,address,uint256)": "a246bd30",
    "requestLienPosition((address,uint256,((uint8,uint256,address),((uint8,address,address,bytes32,uint256,(uint256,uint256,uint256,uint256,uint256)),(uint256,uint40,uint40,uint256))[],bytes,(bytes32,bytes32[]),uint256,uint8,bytes32,bytes32)),address)": "191e0aca",
    "setAuthority(address)": "7a9e5e4b",
    "setNewGuardian(address)": "e87f7c31",
    "transferOwnership(address)": "f2fde38b",
    "validateCommitment((address,uint256,((uint8,uint256,address),((uint8,address,address,bytes32,uint256,(uint256,uint256,uint256,uint256,uint256)),(uint256,uint40,uint40,uint256))[],bytes,(bytes32,bytes32[]),uint256,uint8,bytes32,bytes32)),uint256)": "c2e4ba50",
    "withdraw(address,address,uint256,uint256)": "7bfe950c"
  },
  "id": 144
}