{
  "abi": [
    {
      "inputs": [
        {
          "internalType": "contract Authority",
          "name": "_AUTHORITY",
          "type": "address"
        },
        {
          "internalType": "address",
          "name": "_WETH",
          "type": "address"
        },
        {
          "internalType": "contract ICollateralToken",
          "name": "_COLLATERAL_TOKEN",
          "type": "address"
        },
        {
          "internalType": "contract ILienToken",
          "name": "_LIEN_TOKEN",
          "type": "address"
        },
        {
          "internalType": "contract ITransferProxy",
          "name": "_TRANSFER_PROXY",
          "type": "address"
        },
        {
          "internalType": "address",
          "name": "_VAULT_IMPL",
          "type": "address"
        },
        {
          "internalType": "address",
          "name": "_SOLO_IMPL",
          "type": "address"
        },
        {
          "internalType": "address",
          "name": "_WITHDRAW_IMPL",
          "type": "address"
        },
        {
          "internalType": "address",
          "name": "_BEACON_PROXY_IMPL",
          "type": "address"
        },
        {
          "internalType": "address",
          "name": "_CLEARING_HOUSE_IMPL",
          "type": "address"
        }
      ],
      "stateMutability": "nonpayable",
      "type": "constructor"
    },
    {
      "inputs": [],
      "name": "CreateFail",
      "type": "error"
    },
    {
      "inputs": [
        {
          "internalType": "enum IAstariaRouter.CollateralStates",
          "name": "",
          "type": "uint8"
        }
      ],
      "name": "InvalidCollateralState",
      "type": "error"
    },
    {
      "inputs": [
        {
          "internalType": "enum IAstariaRouter.CommitmentState",
          "name": "",
          "type": "uint8"
        }
      ],
      "name": "InvalidCommitmentState",
      "type": "error"
    },
    {
      "inputs": [
        {
          "internalType": "uint256",
          "name": "",
          "type": "uint256"
        }
      ],
      "name": "InvalidEpochLength",
      "type": "error"
    },
    {
      "inputs": [
        {
          "internalType": "enum IAstariaRouter.LienState",
          "name": "",
          "type": "uint8"
        }
      ],
      "name": "InvalidLienState",
      "type": "error"
    },
    {
      "inputs": [
        {
          "internalType": "uint256",
          "name": "",
          "type": "uint256"
        }
      ],
      "name": "InvalidRefinanceCollateral",
      "type": "error"
    },
    {
      "inputs": [
        {
          "internalType": "uint256",
          "name": "",
          "type": "uint256"
        }
      ],
      "name": "InvalidRefinanceDuration",
      "type": "error"
    },
    {
      "inputs": [
        {
          "internalType": "uint256",
          "name": "",
          "type": "uint256"
        }
      ],
      "name": "InvalidRefinanceRate",
      "type": "error"
    },
    {
      "inputs": [
        {
          "internalType": "address",
          "name": "",
          "type": "address"
        },
        {
          "internalType": "uint256",
          "name": "",
          "type": "uint256"
        }
      ],
      "name": "InvalidSenderForCollateral",
      "type": "error"
    },
    {
      "inputs": [
        {
          "internalType": "enum IPublicVault.InvalidStates",
          "name": "",
          "type": "uint8"
        }
      ],
      "name": "InvalidState",
      "type": "error"
    },
    {
      "inputs": [
        {
          "internalType": "uint16",
          "name": "",
          "type": "uint16"
        }
      ],
      "name": "InvalidStrategy",
      "type": "error"
    },
    {
      "inputs": [
        {
          "internalType": "enum IAstariaRouter.VaultState",
          "name": "",
          "type": "uint8"
        }
      ],
      "name": "InvalidVaultState",
      "type": "error"
    },
    {
      "inputs": [],
      "name": "MaxAmountError",
      "type": "error"
    },
    {
      "inputs": [],
      "name": "MaxSharesError",
      "type": "error"
    },
    {
      "inputs": [],
      "name": "MinAmountError",
      "type": "error"
    },
    {
      "inputs": [],
      "name": "MinSharesError",
      "type": "error"
    },
    {
      "inputs": [],
      "name": "UnsupportedFile",
      "type": "error"
    },
    {
      "anonymous": false,
      "inputs": [
        {
          "indexed": true,
          "internalType": "address",
          "name": "user",
          "type": "address"
        },
        {
          "indexed": true,
          "internalType": "contract Authority",
          "name": "newAuthority",
          "type": "address"
        }
      ],
      "name": "AuthorityUpdated",
      "type": "event"
    },
    {
      "anonymous": false,
      "inputs": [
        {
          "indexed": false,
          "internalType": "enum IAstariaRouter.FileType",
          "name": "what",
          "type": "uint8"
        },
        {
          "indexed": false,
          "internalType": "bytes",
          "name": "data",
          "type": "bytes"
        }
      ],
      "name": "FileUpdated",
      "type": "event"
    },
    {
      "anonymous": false,
      "inputs": [
        {
          "indexed": false,
          "internalType": "uint256",
          "name": "collateralId",
          "type": "uint256"
        },
        {
          "indexed": false,
          "internalType": "uint256",
          "name": "position",
          "type": "uint256"
        }
      ],
      "name": "Liquidation",
      "type": "event"
    },
    {
      "anonymous": false,
      "inputs": [
        {
          "indexed": false,
          "internalType": "address",
          "name": "strategist",
          "type": "address"
        },
        {
          "indexed": false,
          "internalType": "address",
          "name": "delegate",
          "type": "address"
        },
        {
          "indexed": false,
          "internalType": "address",
          "name": "vault",
          "type": "address"
        },
        {
          "indexed": false,
          "internalType": "uint8",
          "name": "vaultType",
          "type": "uint8"
        }
      ],
      "name": "NewVault",
      "type": "event"
    },
    {
      "anonymous": false,
      "inputs": [
        {
          "indexed": true,
          "internalType": "address",
          "name": "user",
          "type": "address"
        },
        {
          "indexed": true,
          "internalType": "address",
          "name": "newOwner",
          "type": "address"
        }
      ],
      "name": "OwnershipTransferred",
      "type": "event"
    },
    {
      "anonymous": false,
      "inputs": [
        {
          "indexed": false,
          "internalType": "address",
          "name": "account",
          "type": "address"
        }
      ],
      "name": "Paused",
      "type": "event"
    },
    {
      "anonymous": false,
      "inputs": [
        {
          "indexed": false,
          "internalType": "address",
          "name": "account",
          "type": "address"
        }
      ],
      "name": "Unpaused",
      "type": "event"
    },
    {
      "inputs": [],
      "name": "BEACON_PROXY_IMPLEMENTATION",
      "outputs": [
        {
          "internalType": "address",
          "name": "",
          "type": "address"
        }
      ],
      "stateMutability": "view",
      "type": "function"
    },
    {
      "inputs": [],
      "name": "COLLATERAL_TOKEN",
      "outputs": [
        {
          "internalType": "contract ICollateralToken",
          "name": "",
          "type": "address"
        }
      ],
      "stateMutability": "view",
      "type": "function"
    },
    {
      "inputs": [],
      "name": "LIEN_TOKEN",
      "outputs": [
        {
          "internalType": "contract ILienToken",
          "name": "",
          "type": "address"
        }
      ],
      "stateMutability": "view",
      "type": "function"
    },
    {
      "inputs": [],
      "name": "TRANSFER_PROXY",
      "outputs": [
        {
          "internalType": "contract ITransferProxy",
          "name": "",
          "type": "address"
        }
      ],
      "stateMutability": "view",
      "type": "function"
    },
    {
      "inputs": [],
      "name": "WETH",
      "outputs": [
        {
          "internalType": "contract ERC20",
          "name": "",
          "type": "address"
        }
      ],
      "stateMutability": "view",
      "type": "function"
    },
    {
      "inputs": [],
      "name": "__emergencyPause",
      "outputs": [],
      "stateMutability": "nonpayable",
      "type": "function"
    },
    {
      "inputs": [],
      "name": "__emergencyUnpause",
      "outputs": [],
      "stateMutability": "nonpayable",
      "type": "function"
    },
    {
      "inputs": [],
      "name": "authority",
      "outputs": [
        {
          "internalType": "contract Authority",
          "name": "",
          "type": "address"
        }
      ],
      "stateMutability": "view",
      "type": "function"
    },
    {
      "inputs": [
        {
          "components": [
            {
              "components": [
                {
                  "internalType": "address",
                  "name": "token",
                  "type": "address"
                },
                {
                  "internalType": "address",
                  "name": "vault",
                  "type": "address"
                },
                {
                  "internalType": "bytes32",
                  "name": "strategyRoot",
                  "type": "bytes32"
                },
                {
                  "internalType": "uint256",
                  "name": "collateralId",
                  "type": "uint256"
                },
                {
                  "components": [
                    {
                      "internalType": "uint256",
                      "name": "maxAmount",
                      "type": "uint256"
                    },
                    {
                      "internalType": "uint256",
                      "name": "rate",
                      "type": "uint256"
                    },
                    {
                      "internalType": "uint256",
                      "name": "duration",
                      "type": "uint256"
                    },
                    {
                      "internalType": "uint256",
                      "name": "maxPotentialDebt",
                      "type": "uint256"
                    },
                    {
                      "internalType": "uint256",
                      "name": "liquidationInitialAsk",
                      "type": "uint256"
                    }
                  ],
                  "internalType": "struct ILienToken.Details",
                  "name": "details",
                  "type": "tuple"
                }
              ],
              "internalType": "struct ILienToken.Lien",
              "name": "lien",
              "type": "tuple"
            },
            {
              "components": [
                {
                  "internalType": "uint88",
                  "name": "amount",
                  "type": "uint88"
                },
                {
                  "internalType": "uint8",
                  "name": "position",
                  "type": "uint8"
                },
                {
                  "internalType": "uint40",
                  "name": "last",
                  "type": "uint40"
                },
                {
                  "internalType": "uint40",
                  "name": "end",
                  "type": "uint40"
                },
                {
                  "internalType": "uint256",
                  "name": "lienId",
                  "type": "uint256"
                }
              ],
              "internalType": "struct ILienToken.Point",
              "name": "point",
              "type": "tuple"
            }
          ],
          "internalType": "struct ILienToken.Stack",
          "name": "stack",
          "type": "tuple"
        }
      ],
      "name": "canLiquidate",
      "outputs": [
        {
          "internalType": "bool",
          "name": "",
          "type": "bool"
        }
      ],
      "stateMutability": "view",
      "type": "function"
    },
    {
      "inputs": [
        {
          "components": [
            {
              "internalType": "address",
              "name": "tokenContract",
              "type": "address"
            },
            {
              "internalType": "uint256",
              "name": "tokenId",
              "type": "uint256"
            },
            {
              "components": [
                {
                  "components": [
                    {
                      "internalType": "uint8",
                      "name": "version",
                      "type": "uint8"
                    },
                    {
                      "internalType": "uint256",
                      "name": "deadline",
                      "type": "uint256"
                    },
                    {
                      "internalType": "address",
                      "name": "vault",
                      "type": "address"
                    }
                  ],
                  "internalType": "struct IAstariaRouter.StrategyDetails",
                  "name": "strategy",
                  "type": "tuple"
                },
                {
                  "components": [
                    {
                      "components": [
                        {
                          "internalType": "address",
                          "name": "token",
                          "type": "address"
                        },
                        {
                          "internalType": "address",
                          "name": "vault",
                          "type": "address"
                        },
                        {
                          "internalType": "bytes32",
                          "name": "strategyRoot",
                          "type": "bytes32"
                        },
                        {
                          "internalType": "uint256",
                          "name": "collateralId",
                          "type": "uint256"
                        },
                        {
                          "components": [
                            {
                              "internalType": "uint256",
                              "name": "maxAmount",
                              "type": "uint256"
                            },
                            {
                              "internalType": "uint256",
                              "name": "rate",
                              "type": "uint256"
                            },
                            {
                              "internalType": "uint256",
                              "name": "duration",
                              "type": "uint256"
                            },
                            {
                              "internalType": "uint256",
                              "name": "maxPotentialDebt",
                              "type": "uint256"
                            },
                            {
                              "internalType": "uint256",
                              "name": "liquidationInitialAsk",
                              "type": "uint256"
                            }
                          ],
                          "internalType": "struct ILienToken.Details",
                          "name": "details",
                          "type": "tuple"
                        }
                      ],
                      "internalType": "struct ILienToken.Lien",
                      "name": "lien",
                      "type": "tuple"
                    },
                    {
                      "components": [
                        {
                          "internalType": "uint88",
                          "name": "amount",
                          "type": "uint88"
                        },
                        {
                          "internalType": "uint8",
                          "name": "position",
                          "type": "uint8"
                        },
                        {
                          "internalType": "uint40",
                          "name": "last",
                          "type": "uint40"
                        },
                        {
                          "internalType": "uint40",
                          "name": "end",
                          "type": "uint40"
                        },
                        {
                          "internalType": "uint256",
                          "name": "lienId",
                          "type": "uint256"
                        }
                      ],
                      "internalType": "struct ILienToken.Point",
                      "name": "point",
                      "type": "tuple"
                    }
                  ],
                  "internalType": "struct ILienToken.Stack[]",
                  "name": "stack",
                  "type": "tuple[]"
                },
                {
                  "internalType": "bytes",
                  "name": "nlrDetails",
                  "type": "bytes"
                },
                {
                  "components": [
                    {
                      "internalType": "bytes32",
                      "name": "root",
                      "type": "bytes32"
                    },
                    {
                      "internalType": "bytes32[]",
                      "name": "proof",
                      "type": "bytes32[]"
                    }
                  ],
                  "internalType": "struct IAstariaRouter.MerkleData",
                  "name": "merkle",
                  "type": "tuple"
                },
                {
                  "internalType": "uint256",
                  "name": "amount",
                  "type": "uint256"
                },
                {
                  "internalType": "uint8",
                  "name": "v",
                  "type": "uint8"
                },
                {
                  "internalType": "bytes32",
                  "name": "r",
                  "type": "bytes32"
                },
                {
                  "internalType": "bytes32",
                  "name": "s",
                  "type": "bytes32"
                }
              ],
              "internalType": "struct IAstariaRouter.NewLienRequest",
              "name": "lienRequest",
              "type": "tuple"
            }
          ],
          "internalType": "struct IAstariaRouter.Commitment[]",
          "name": "commitments",
          "type": "tuple[]"
        }
      ],
      "name": "commitToLiens",
      "outputs": [
        {
          "internalType": "uint256[]",
          "name": "lienIds",
          "type": "uint256[]"
        },
        {
          "components": [
            {
              "components": [
                {
                  "internalType": "address",
                  "name": "token",
                  "type": "address"
                },
                {
                  "internalType": "address",
                  "name": "vault",
                  "type": "address"
                },
                {
                  "internalType": "bytes32",
                  "name": "strategyRoot",
                  "type": "bytes32"
                },
                {
                  "internalType": "uint256",
                  "name": "collateralId",
                  "type": "uint256"
                },
                {
                  "components": [
                    {
                      "internalType": "uint256",
                      "name": "maxAmount",
                      "type": "uint256"
                    },
                    {
                      "internalType": "uint256",
                      "name": "rate",
                      "type": "uint256"
                    },
                    {
                      "internalType": "uint256",
                      "name": "duration",
                      "type": "uint256"
                    },
                    {
                      "internalType": "uint256",
                      "name": "maxPotentialDebt",
                      "type": "uint256"
                    },
                    {
                      "internalType": "uint256",
                      "name": "liquidationInitialAsk",
                      "type": "uint256"
                    }
                  ],
                  "internalType": "struct ILienToken.Details",
                  "name": "details",
                  "type": "tuple"
                }
              ],
              "internalType": "struct ILienToken.Lien",
              "name": "lien",
              "type": "tuple"
            },
            {
              "components": [
                {
                  "internalType": "uint88",
                  "name": "amount",
                  "type": "uint88"
                },
                {
                  "internalType": "uint8",
                  "name": "position",
                  "type": "uint8"
                },
                {
                  "internalType": "uint40",
                  "name": "last",
                  "type": "uint40"
                },
                {
                  "internalType": "uint40",
                  "name": "end",
                  "type": "uint40"
                },
                {
                  "internalType": "uint256",
                  "name": "lienId",
                  "type": "uint256"
                }
              ],
              "internalType": "struct ILienToken.Point",
              "name": "point",
              "type": "tuple"
            }
          ],
          "internalType": "struct ILienToken.Stack[]",
          "name": "stack",
          "type": "tuple[]"
        }
      ],
      "stateMutability": "nonpayable",
      "type": "function"
    },
    {
      "inputs": [
        {
          "internalType": "contract IERC4626",
          "name": "vault",
          "type": "address"
        },
        {
          "internalType": "address",
          "name": "to",
          "type": "address"
        },
        {
          "internalType": "uint256",
          "name": "amount",
          "type": "uint256"
        },
        {
          "internalType": "uint256",
          "name": "minSharesOut",
          "type": "uint256"
        }
      ],
      "name": "deposit",
      "outputs": [
        {
          "internalType": "uint256",
          "name": "sharesOut",
          "type": "uint256"
        }
      ],
      "stateMutability": "payable",
      "type": "function"
    },
    {
      "inputs": [
        {
          "internalType": "contract IERC4626",
          "name": "vault",
          "type": "address"
        },
        {
          "internalType": "address",
          "name": "to",
          "type": "address"
        },
        {
          "internalType": "uint256",
          "name": "minSharesOut",
          "type": "uint256"
        }
      ],
      "name": "depositMax",
      "outputs": [
        {
          "internalType": "uint256",
          "name": "sharesOut",
          "type": "uint256"
        }
      ],
      "stateMutability": "payable",
      "type": "function"
    },
    {
      "inputs": [
        {
          "internalType": "contract IERC4626",
          "name": "vault",
          "type": "address"
        },
        {
          "internalType": "address",
          "name": "to",
          "type": "address"
        },
        {
          "internalType": "uint256",
          "name": "amount",
          "type": "uint256"
        },
        {
          "internalType": "uint256",
          "name": "minSharesOut",
          "type": "uint256"
        }
      ],
      "name": "depositToVault",
      "outputs": [
        {
          "internalType": "uint256",
          "name": "sharesOut",
          "type": "uint256"
        }
      ],
      "stateMutability": "payable",
      "type": "function"
    },
    {
      "inputs": [],
      "name": "feeTo",
      "outputs": [
        {
          "internalType": "address",
          "name": "",
          "type": "address"
        }
      ],
      "stateMutability": "view",
      "type": "function"
    },
    {
      "inputs": [
        {
          "components": [
            {
              "internalType": "enum IAstariaRouter.FileType",
              "name": "what",
              "type": "uint8"
            },
            {
              "internalType": "bytes",
              "name": "data",
              "type": "bytes"
            }
          ],
          "internalType": "struct IAstariaRouter.File",
          "name": "incoming",
          "type": "tuple"
        }
      ],
      "name": "file",
      "outputs": [],
      "stateMutability": "nonpayable",
      "type": "function"
    },
    {
      "inputs": [
        {
          "components": [
            {
              "internalType": "enum IAstariaRouter.FileType",
              "name": "what",
              "type": "uint8"
            },
            {
              "internalType": "bytes",
              "name": "data",
              "type": "bytes"
            }
          ],
          "internalType": "struct IAstariaRouter.File[]",
          "name": "files",
          "type": "tuple[]"
        }
      ],
      "name": "fileBatch",
      "outputs": [],
      "stateMutability": "nonpayable",
      "type": "function"
    },
    {
      "inputs": [
        {
          "components": [
            {
              "internalType": "enum IAstariaRouter.FileType",
              "name": "what",
              "type": "uint8"
            },
            {
              "internalType": "bytes",
              "name": "data",
              "type": "bytes"
            }
          ],
          "internalType": "struct IAstariaRouter.File[]",
          "name": "file",
          "type": "tuple[]"
        }
      ],
      "name": "fileGuardian",
      "outputs": [],
      "stateMutability": "nonpayable",
      "type": "function"
    },
    {
      "inputs": [
        {
          "internalType": "bool",
          "name": "includeBuffer",
          "type": "bool"
        }
      ],
      "name": "getAuctionWindow",
      "outputs": [
        {
          "internalType": "uint256",
          "name": "",
          "type": "uint256"
        }
      ],
      "stateMutability": "view",
      "type": "function"
    },
    {
      "inputs": [
        {
          "internalType": "uint256",
          "name": "remainingInterestIn",
          "type": "uint256"
        }
      ],
      "name": "getBuyoutFee",
      "outputs": [
        {
          "internalType": "uint256",
          "name": "",
          "type": "uint256"
        }
      ],
      "stateMutability": "view",
      "type": "function"
    },
    {
      "inputs": [
        {
          "internalType": "uint8",
          "name": "implType",
          "type": "uint8"
        }
      ],
      "name": "getImpl",
      "outputs": [
        {
          "internalType": "address",
          "name": "impl",
          "type": "address"
        }
      ],
      "stateMutability": "view",
      "type": "function"
    },
    {
      "inputs": [
        {
          "internalType": "uint256",
          "name": "amountIn",
          "type": "uint256"
        }
      ],
      "name": "getLiquidatorFee",
      "outputs": [
        {
          "internalType": "uint256",
          "name": "",
          "type": "uint256"
        }
      ],
      "stateMutability": "view",
      "type": "function"
    },
    {
      "inputs": [
        {
          "internalType": "uint256",
          "name": "amountIn",
          "type": "uint256"
        }
      ],
      "name": "getProtocolFee",
      "outputs": [
        {
          "internalType": "uint256",
          "name": "",
          "type": "uint256"
        }
      ],
      "stateMutability": "view",
      "type": "function"
    },
    {
      "inputs": [
        {
          "internalType": "uint256",
          "name": "amountIn",
          "type": "uint256"
        }
      ],
      "name": "getStrategistFee",
      "outputs": [
        {
          "internalType": "uint256",
          "name": "",
          "type": "uint256"
        }
      ],
      "stateMutability": "view",
      "type": "function"
    },
    {
      "inputs": [
        {
          "components": [
            {
              "internalType": "address",
              "name": "token",
              "type": "address"
            },
            {
              "internalType": "address",
              "name": "vault",
              "type": "address"
            },
            {
              "internalType": "bytes32",
              "name": "strategyRoot",
              "type": "bytes32"
            },
            {
              "internalType": "uint256",
              "name": "collateralId",
              "type": "uint256"
            },
            {
              "components": [
                {
                  "internalType": "uint256",
                  "name": "maxAmount",
                  "type": "uint256"
                },
                {
                  "internalType": "uint256",
                  "name": "rate",
                  "type": "uint256"
                },
                {
                  "internalType": "uint256",
                  "name": "duration",
                  "type": "uint256"
                },
                {
                  "internalType": "uint256",
                  "name": "maxPotentialDebt",
                  "type": "uint256"
                },
                {
                  "internalType": "uint256",
                  "name": "liquidationInitialAsk",
                  "type": "uint256"
                }
              ],
              "internalType": "struct ILienToken.Details",
              "name": "details",
              "type": "tuple"
            }
          ],
          "internalType": "struct ILienToken.Lien",
          "name": "newLien",
          "type": "tuple"
        },
        {
          "internalType": "uint8",
          "name": "position",
          "type": "uint8"
        },
        {
          "components": [
            {
              "components": [
                {
                  "internalType": "address",
                  "name": "token",
                  "type": "address"
                },
                {
                  "internalType": "address",
                  "name": "vault",
                  "type": "address"
                },
                {
                  "internalType": "bytes32",
                  "name": "strategyRoot",
                  "type": "bytes32"
                },
                {
                  "internalType": "uint256",
                  "name": "collateralId",
                  "type": "uint256"
                },
                {
                  "components": [
                    {
                      "internalType": "uint256",
                      "name": "maxAmount",
                      "type": "uint256"
                    },
                    {
                      "internalType": "uint256",
                      "name": "rate",
                      "type": "uint256"
                    },
                    {
                      "internalType": "uint256",
                      "name": "duration",
                      "type": "uint256"
                    },
                    {
                      "internalType": "uint256",
                      "name": "maxPotentialDebt",
                      "type": "uint256"
                    },
                    {
                      "internalType": "uint256",
                      "name": "liquidationInitialAsk",
                      "type": "uint256"
                    }
                  ],
                  "internalType": "struct ILienToken.Details",
                  "name": "details",
                  "type": "tuple"
                }
              ],
              "internalType": "struct ILienToken.Lien",
              "name": "lien",
              "type": "tuple"
            },
            {
              "components": [
                {
                  "internalType": "uint88",
                  "name": "amount",
                  "type": "uint88"
                },
                {
                  "internalType": "uint8",
                  "name": "position",
                  "type": "uint8"
                },
                {
                  "internalType": "uint40",
                  "name": "last",
                  "type": "uint40"
                },
                {
                  "internalType": "uint40",
                  "name": "end",
                  "type": "uint40"
                },
                {
                  "internalType": "uint256",
                  "name": "lienId",
                  "type": "uint256"
                }
              ],
              "internalType": "struct ILienToken.Point",
              "name": "point",
              "type": "tuple"
            }
          ],
          "internalType": "struct ILienToken.Stack[]",
          "name": "stack",
          "type": "tuple[]"
        }
      ],
      "name": "isValidRefinance",
      "outputs": [
        {
          "internalType": "bool",
          "name": "",
          "type": "bool"
        }
      ],
      "stateMutability": "view",
      "type": "function"
    },
    {
      "inputs": [
        {
          "internalType": "address",
          "name": "vault",
          "type": "address"
        }
      ],
      "name": "isValidVault",
      "outputs": [
        {
          "internalType": "bool",
          "name": "",
          "type": "bool"
        }
      ],
      "stateMutability": "view",
      "type": "function"
    },
    {
      "inputs": [
        {
          "components": [
            {
              "components": [
                {
                  "internalType": "address",
                  "name": "token",
                  "type": "address"
                },
                {
                  "internalType": "address",
                  "name": "vault",
                  "type": "address"
                },
                {
                  "internalType": "bytes32",
                  "name": "strategyRoot",
                  "type": "bytes32"
                },
                {
                  "internalType": "uint256",
                  "name": "collateralId",
                  "type": "uint256"
                },
                {
                  "components": [
                    {
                      "internalType": "uint256",
                      "name": "maxAmount",
                      "type": "uint256"
                    },
                    {
                      "internalType": "uint256",
                      "name": "rate",
                      "type": "uint256"
                    },
                    {
                      "internalType": "uint256",
                      "name": "duration",
                      "type": "uint256"
                    },
                    {
                      "internalType": "uint256",
                      "name": "maxPotentialDebt",
                      "type": "uint256"
                    },
                    {
                      "internalType": "uint256",
                      "name": "liquidationInitialAsk",
                      "type": "uint256"
                    }
                  ],
                  "internalType": "struct ILienToken.Details",
                  "name": "details",
                  "type": "tuple"
                }
              ],
              "internalType": "struct ILienToken.Lien",
              "name": "lien",
              "type": "tuple"
            },
            {
              "components": [
                {
                  "internalType": "uint88",
                  "name": "amount",
                  "type": "uint88"
                },
                {
                  "internalType": "uint8",
                  "name": "position",
                  "type": "uint8"
                },
                {
                  "internalType": "uint40",
                  "name": "last",
                  "type": "uint40"
                },
                {
                  "internalType": "uint40",
                  "name": "end",
                  "type": "uint40"
                },
                {
                  "internalType": "uint256",
                  "name": "lienId",
                  "type": "uint256"
                }
              ],
              "internalType": "struct ILienToken.Point",
              "name": "point",
              "type": "tuple"
            }
          ],
          "internalType": "struct ILienToken.Stack[]",
          "name": "stack",
          "type": "tuple[]"
        },
        {
          "internalType": "uint8",
          "name": "position",
          "type": "uint8"
        }
      ],
      "name": "liquidate",
      "outputs": [
        {
          "components": [
            {
              "internalType": "address",
              "name": "offerer",
              "type": "address"
            },
            {
              "internalType": "address",
              "name": "zone",
              "type": "address"
            },
            {
              "components": [
                {
                  "internalType": "enum ItemType",
                  "name": "itemType",
                  "type": "uint8"
                },
                {
                  "internalType": "address",
                  "name": "token",
                  "type": "address"
                },
                {
                  "internalType": "uint256",
                  "name": "identifierOrCriteria",
                  "type": "uint256"
                },
                {
                  "internalType": "uint256",
                  "name": "startAmount",
                  "type": "uint256"
                },
                {
                  "internalType": "uint256",
                  "name": "endAmount",
                  "type": "uint256"
                }
              ],
              "internalType": "struct OfferItem[]",
              "name": "offer",
              "type": "tuple[]"
            },
            {
              "components": [
                {
                  "internalType": "enum ItemType",
                  "name": "itemType",
                  "type": "uint8"
                },
                {
                  "internalType": "address",
                  "name": "token",
                  "type": "address"
                },
                {
                  "internalType": "uint256",
                  "name": "identifierOrCriteria",
                  "type": "uint256"
                },
                {
                  "internalType": "uint256",
                  "name": "startAmount",
                  "type": "uint256"
                },
                {
                  "internalType": "uint256",
                  "name": "endAmount",
                  "type": "uint256"
                },
                {
                  "internalType": "address payable",
                  "name": "recipient",
                  "type": "address"
                }
              ],
              "internalType": "struct ConsiderationItem[]",
              "name": "consideration",
              "type": "tuple[]"
            },
            {
              "internalType": "enum OrderType",
              "name": "orderType",
              "type": "uint8"
            },
            {
              "internalType": "uint256",
              "name": "startTime",
              "type": "uint256"
            },
            {
              "internalType": "uint256",
              "name": "endTime",
              "type": "uint256"
            },
            {
              "internalType": "bytes32",
              "name": "zoneHash",
              "type": "bytes32"
            },
            {
              "internalType": "uint256",
              "name": "salt",
              "type": "uint256"
            },
            {
              "internalType": "bytes32",
              "name": "conduitKey",
              "type": "bytes32"
            },
            {
              "internalType": "uint256",
              "name": "totalOriginalConsiderationItems",
              "type": "uint256"
            }
          ],
          "internalType": "struct OrderParameters",
          "name": "listedOrder",
          "type": "tuple"
        }
      ],
      "stateMutability": "nonpayable",
      "type": "function"
    },
    {
      "inputs": [],
      "name": "maxInterestRate",
      "outputs": [
        {
          "internalType": "uint256",
          "name": "",
          "type": "uint256"
        }
      ],
      "stateMutability": "view",
      "type": "function"
    },
    {
      "inputs": [
        {
          "internalType": "contract IERC4626",
          "name": "vault",
          "type": "address"
        },
        {
          "internalType": "address",
          "name": "to",
          "type": "address"
        },
        {
          "internalType": "uint256",
          "name": "shares",
          "type": "uint256"
        },
        {
          "internalType": "uint256",
          "name": "maxAmountIn",
          "type": "uint256"
        }
      ],
      "name": "mint",
      "outputs": [
        {
          "internalType": "uint256",
          "name": "amountIn",
          "type": "uint256"
        }
      ],
      "stateMutability": "payable",
      "type": "function"
    },
    {
      "inputs": [
        {
          "internalType": "bytes[]",
          "name": "data",
          "type": "bytes[]"
        }
      ],
      "name": "multicall",
      "outputs": [
        {
          "internalType": "bytes[]",
          "name": "results",
          "type": "bytes[]"
        }
      ],
      "stateMutability": "payable",
      "type": "function"
    },
    {
      "inputs": [
        {
          "internalType": "uint256",
          "name": "epochLength",
          "type": "uint256"
        },
        {
          "internalType": "address",
          "name": "delegate",
          "type": "address"
        },
        {
          "internalType": "uint256",
          "name": "vaultFee",
          "type": "uint256"
        },
        {
          "internalType": "bool",
          "name": "allowListEnabled",
          "type": "bool"
        },
        {
          "internalType": "address[]",
          "name": "allowList",
          "type": "address[]"
        },
        {
          "internalType": "uint256",
          "name": "depositCap",
          "type": "uint256"
        }
      ],
      "name": "newPublicVault",
      "outputs": [
        {
          "internalType": "address",
          "name": "",
          "type": "address"
        }
      ],
      "stateMutability": "nonpayable",
      "type": "function"
    },
    {
      "inputs": [
        {
          "internalType": "address",
          "name": "delegate",
          "type": "address"
        }
      ],
      "name": "newVault",
      "outputs": [
        {
          "internalType": "address",
          "name": "",
          "type": "address"
        }
      ],
      "stateMutability": "nonpayable",
      "type": "function"
    },
    {
      "inputs": [],
      "name": "owner",
      "outputs": [
        {
          "internalType": "address",
          "name": "",
          "type": "address"
        }
      ],
      "stateMutability": "view",
      "type": "function"
    },
    {
      "inputs": [],
      "name": "paused",
      "outputs": [
        {
          "internalType": "bool",
          "name": "",
          "type": "bool"
        }
      ],
      "stateMutability": "view",
      "type": "function"
    },
    {
      "inputs": [
        {
          "internalType": "address",
          "name": "token",
          "type": "address"
        },
        {
          "internalType": "uint256",
          "name": "amount",
          "type": "uint256"
        },
        {
          "internalType": "address",
          "name": "recipient",
          "type": "address"
        }
      ],
      "name": "pullToken",
      "outputs": [],
      "stateMutability": "payable",
      "type": "function"
    },
    {
      "inputs": [
        {
          "internalType": "contract IERC4626",
          "name": "vault",
          "type": "address"
        },
        {
          "internalType": "address",
          "name": "to",
          "type": "address"
        },
        {
          "internalType": "uint256",
          "name": "shares",
          "type": "uint256"
        },
        {
          "internalType": "uint256",
          "name": "minAmountOut",
          "type": "uint256"
        }
      ],
      "name": "redeem",
      "outputs": [
        {
          "internalType": "uint256",
          "name": "amountOut",
          "type": "uint256"
        }
      ],
      "stateMutability": "payable",
      "type": "function"
    },
    {
      "inputs": [
        {
          "internalType": "contract IPublicVault",
          "name": "vault",
          "type": "address"
        },
        {
          "internalType": "uint256",
          "name": "shares",
          "type": "uint256"
        },
        {
          "internalType": "address",
          "name": "receiver",
          "type": "address"
        },
        {
          "internalType": "uint64",
          "name": "epoch",
          "type": "uint64"
        }
      ],
      "name": "redeemFutureEpoch",
      "outputs": [
        {
          "internalType": "uint256",
          "name": "assets",
          "type": "uint256"
        }
      ],
      "stateMutability": "nonpayable",
      "type": "function"
    },
    {
      "inputs": [
        {
          "internalType": "contract IERC4626",
          "name": "vault",
          "type": "address"
        },
        {
          "internalType": "address",
          "name": "to",
          "type": "address"
        },
        {
          "internalType": "uint256",
          "name": "minAmountOut",
          "type": "uint256"
        }
      ],
      "name": "redeemMax",
      "outputs": [
        {
          "internalType": "uint256",
          "name": "amountOut",
          "type": "uint256"
        }
      ],
      "stateMutability": "payable",
      "type": "function"
    },
    {
      "inputs": [
        {
          "components": [
            {
              "internalType": "address",
              "name": "tokenContract",
              "type": "address"
            },
            {
              "internalType": "uint256",
              "name": "tokenId",
              "type": "uint256"
            },
            {
              "components": [
                {
                  "components": [
                    {
                      "internalType": "uint8",
                      "name": "version",
                      "type": "uint8"
                    },
                    {
                      "internalType": "uint256",
                      "name": "deadline",
                      "type": "uint256"
                    },
                    {
                      "internalType": "address",
                      "name": "vault",
                      "type": "address"
                    }
                  ],
                  "internalType": "struct IAstariaRouter.StrategyDetails",
                  "name": "strategy",
                  "type": "tuple"
                },
                {
                  "components": [
                    {
                      "components": [
                        {
                          "internalType": "address",
                          "name": "token",
                          "type": "address"
                        },
                        {
                          "internalType": "address",
                          "name": "vault",
                          "type": "address"
                        },
                        {
                          "internalType": "bytes32",
                          "name": "strategyRoot",
                          "type": "bytes32"
                        },
                        {
                          "internalType": "uint256",
                          "name": "collateralId",
                          "type": "uint256"
                        },
                        {
                          "components": [
                            {
                              "internalType": "uint256",
                              "name": "maxAmount",
                              "type": "uint256"
                            },
                            {
                              "internalType": "uint256",
                              "name": "rate",
                              "type": "uint256"
                            },
                            {
                              "internalType": "uint256",
                              "name": "duration",
                              "type": "uint256"
                            },
                            {
                              "internalType": "uint256",
                              "name": "maxPotentialDebt",
                              "type": "uint256"
                            },
                            {
                              "internalType": "uint256",
                              "name": "liquidationInitialAsk",
                              "type": "uint256"
                            }
                          ],
                          "internalType": "struct ILienToken.Details",
                          "name": "details",
                          "type": "tuple"
                        }
                      ],
                      "internalType": "struct ILienToken.Lien",
                      "name": "lien",
                      "type": "tuple"
                    },
                    {
                      "components": [
                        {
                          "internalType": "uint88",
                          "name": "amount",
                          "type": "uint88"
                        },
                        {
                          "internalType": "uint8",
                          "name": "position",
                          "type": "uint8"
                        },
                        {
                          "internalType": "uint40",
                          "name": "last",
                          "type": "uint40"
                        },
                        {
                          "internalType": "uint40",
                          "name": "end",
                          "type": "uint40"
                        },
                        {
                          "internalType": "uint256",
                          "name": "lienId",
                          "type": "uint256"
                        }
                      ],
                      "internalType": "struct ILienToken.Point",
                      "name": "point",
                      "type": "tuple"
                    }
                  ],
                  "internalType": "struct ILienToken.Stack[]",
                  "name": "stack",
                  "type": "tuple[]"
                },
                {
                  "internalType": "bytes",
                  "name": "nlrDetails",
                  "type": "bytes"
                },
                {
                  "components": [
                    {
                      "internalType": "bytes32",
                      "name": "root",
                      "type": "bytes32"
                    },
                    {
                      "internalType": "bytes32[]",
                      "name": "proof",
                      "type": "bytes32[]"
                    }
                  ],
                  "internalType": "struct IAstariaRouter.MerkleData",
                  "name": "merkle",
                  "type": "tuple"
                },
                {
                  "internalType": "uint256",
                  "name": "amount",
                  "type": "uint256"
                },
                {
                  "internalType": "uint8",
                  "name": "v",
                  "type": "uint8"
                },
                {
                  "internalType": "bytes32",
                  "name": "r",
                  "type": "bytes32"
                },
                {
                  "internalType": "bytes32",
                  "name": "s",
                  "type": "bytes32"
                }
              ],
              "internalType": "struct IAstariaRouter.NewLienRequest",
              "name": "lienRequest",
              "type": "tuple"
            }
          ],
          "internalType": "struct IAstariaRouter.Commitment",
          "name": "params",
          "type": "tuple"
        },
        {
          "internalType": "address",
          "name": "receiver",
          "type": "address"
        }
      ],
      "name": "requestLienPosition",
      "outputs": [
        {
          "internalType": "uint256",
          "name": "",
          "type": "uint256"
        },
        {
          "components": [
            {
              "components": [
                {
                  "internalType": "address",
                  "name": "token",
                  "type": "address"
                },
                {
                  "internalType": "address",
                  "name": "vault",
                  "type": "address"
                },
                {
                  "internalType": "bytes32",
                  "name": "strategyRoot",
                  "type": "bytes32"
                },
                {
                  "internalType": "uint256",
                  "name": "collateralId",
                  "type": "uint256"
                },
                {
                  "components": [
                    {
                      "internalType": "uint256",
                      "name": "maxAmount",
                      "type": "uint256"
                    },
                    {
                      "internalType": "uint256",
                      "name": "rate",
                      "type": "uint256"
                    },
                    {
                      "internalType": "uint256",
                      "name": "duration",
                      "type": "uint256"
                    },
                    {
                      "internalType": "uint256",
                      "name": "maxPotentialDebt",
                      "type": "uint256"
                    },
                    {
                      "internalType": "uint256",
                      "name": "liquidationInitialAsk",
                      "type": "uint256"
                    }
                  ],
                  "internalType": "struct ILienToken.Details",
                  "name": "details",
                  "type": "tuple"
                }
              ],
              "internalType": "struct ILienToken.Lien",
              "name": "lien",
              "type": "tuple"
            },
            {
              "components": [
                {
                  "internalType": "uint88",
                  "name": "amount",
                  "type": "uint88"
                },
                {
                  "internalType": "uint8",
                  "name": "position",
                  "type": "uint8"
                },
                {
                  "internalType": "uint40",
                  "name": "last",
                  "type": "uint40"
                },
                {
                  "internalType": "uint40",
                  "name": "end",
                  "type": "uint40"
                },
                {
                  "internalType": "uint256",
                  "name": "lienId",
                  "type": "uint256"
                }
              ],
              "internalType": "struct ILienToken.Point",
              "name": "point",
              "type": "tuple"
            }
          ],
          "internalType": "struct ILienToken.Stack[]",
          "name": "",
          "type": "tuple[]"
        },
        {
          "internalType": "uint256",
          "name": "",
          "type": "uint256"
        }
      ],
      "stateMutability": "nonpayable",
      "type": "function"
    },
    {
      "inputs": [
        {
          "internalType": "contract Authority",
          "name": "newAuthority",
          "type": "address"
        }
      ],
      "name": "setAuthority",
      "outputs": [],
      "stateMutability": "nonpayable",
      "type": "function"
    },
    {
      "inputs": [
        {
          "internalType": "address",
          "name": "_guardian",
          "type": "address"
        }
      ],
      "name": "setNewGuardian",
      "outputs": [],
      "stateMutability": "nonpayable",
      "type": "function"
    },
    {
      "inputs": [
        {
          "internalType": "address",
          "name": "newOwner",
          "type": "address"
        }
      ],
      "name": "transferOwnership",
      "outputs": [],
      "stateMutability": "nonpayable",
      "type": "function"
    },
    {
      "inputs": [
        {
          "components": [
            {
              "internalType": "address",
              "name": "tokenContract",
              "type": "address"
            },
            {
              "internalType": "uint256",
              "name": "tokenId",
              "type": "uint256"
            },
            {
              "components": [
                {
                  "components": [
                    {
                      "internalType": "uint8",
                      "name": "version",
                      "type": "uint8"
                    },
                    {
                      "internalType": "uint256",
                      "name": "deadline",
                      "type": "uint256"
                    },
                    {
                      "internalType": "address",
                      "name": "vault",
                      "type": "address"
                    }
                  ],
                  "internalType": "struct IAstariaRouter.StrategyDetails",
                  "name": "strategy",
                  "type": "tuple"
                },
                {
                  "components": [
                    {
                      "components": [
                        {
                          "internalType": "address",
                          "name": "token",
                          "type": "address"
                        },
                        {
                          "internalType": "address",
                          "name": "vault",
                          "type": "address"
                        },
                        {
                          "internalType": "bytes32",
                          "name": "strategyRoot",
                          "type": "bytes32"
                        },
                        {
                          "internalType": "uint256",
                          "name": "collateralId",
                          "type": "uint256"
                        },
                        {
                          "components": [
                            {
                              "internalType": "uint256",
                              "name": "maxAmount",
                              "type": "uint256"
                            },
                            {
                              "internalType": "uint256",
                              "name": "rate",
                              "type": "uint256"
                            },
                            {
                              "internalType": "uint256",
                              "name": "duration",
                              "type": "uint256"
                            },
                            {
                              "internalType": "uint256",
                              "name": "maxPotentialDebt",
                              "type": "uint256"
                            },
                            {
                              "internalType": "uint256",
                              "name": "liquidationInitialAsk",
                              "type": "uint256"
                            }
                          ],
                          "internalType": "struct ILienToken.Details",
                          "name": "details",
                          "type": "tuple"
                        }
                      ],
                      "internalType": "struct ILienToken.Lien",
                      "name": "lien",
                      "type": "tuple"
                    },
                    {
                      "components": [
                        {
                          "internalType": "uint88",
                          "name": "amount",
                          "type": "uint88"
                        },
                        {
                          "internalType": "uint8",
                          "name": "position",
                          "type": "uint8"
                        },
                        {
                          "internalType": "uint40",
                          "name": "last",
                          "type": "uint40"
                        },
                        {
                          "internalType": "uint40",
                          "name": "end",
                          "type": "uint40"
                        },
                        {
                          "internalType": "uint256",
                          "name": "lienId",
                          "type": "uint256"
                        }
                      ],
                      "internalType": "struct ILienToken.Point",
                      "name": "point",
                      "type": "tuple"
                    }
                  ],
                  "internalType": "struct ILienToken.Stack[]",
                  "name": "stack",
                  "type": "tuple[]"
                },
                {
                  "internalType": "bytes",
                  "name": "nlrDetails",
                  "type": "bytes"
                },
                {
                  "components": [
                    {
                      "internalType": "bytes32",
                      "name": "root",
                      "type": "bytes32"
                    },
                    {
                      "internalType": "bytes32[]",
                      "name": "proof",
                      "type": "bytes32[]"
                    }
                  ],
                  "internalType": "struct IAstariaRouter.MerkleData",
                  "name": "merkle",
                  "type": "tuple"
                },
                {
                  "internalType": "uint256",
                  "name": "amount",
                  "type": "uint256"
                },
                {
                  "internalType": "uint8",
                  "name": "v",
                  "type": "uint8"
                },
                {
                  "internalType": "bytes32",
                  "name": "r",
                  "type": "bytes32"
                },
                {
                  "internalType": "bytes32",
                  "name": "s",
                  "type": "bytes32"
                }
              ],
              "internalType": "struct IAstariaRouter.NewLienRequest",
              "name": "lienRequest",
              "type": "tuple"
            }
          ],
          "internalType": "struct IAstariaRouter.Commitment",
          "name": "commitment",
          "type": "tuple"
        },
        {
          "internalType": "uint256",
          "name": "timeToSecondEpochEnd",
          "type": "uint256"
        }
      ],
      "name": "validateCommitment",
      "outputs": [
        {
          "components": [
            {
              "internalType": "address",
              "name": "token",
              "type": "address"
            },
            {
              "internalType": "address",
              "name": "vault",
              "type": "address"
            },
            {
              "internalType": "bytes32",
              "name": "strategyRoot",
              "type": "bytes32"
            },
            {
              "internalType": "uint256",
              "name": "collateralId",
              "type": "uint256"
            },
            {
              "components": [
                {
                  "internalType": "uint256",
                  "name": "maxAmount",
                  "type": "uint256"
                },
                {
                  "internalType": "uint256",
                  "name": "rate",
                  "type": "uint256"
                },
                {
                  "internalType": "uint256",
                  "name": "duration",
                  "type": "uint256"
                },
                {
                  "internalType": "uint256",
                  "name": "maxPotentialDebt",
                  "type": "uint256"
                },
                {
                  "internalType": "uint256",
                  "name": "liquidationInitialAsk",
                  "type": "uint256"
                }
              ],
              "internalType": "struct ILienToken.Details",
              "name": "details",
              "type": "tuple"
            }
          ],
          "internalType": "struct ILienToken.Lien",
          "name": "lien",
          "type": "tuple"
        }
      ],
      "stateMutability": "view",
      "type": "function"
    },
    {
      "inputs": [
        {
          "internalType": "contract IERC4626",
          "name": "vault",
          "type": "address"
        },
        {
          "internalType": "address",
          "name": "to",
          "type": "address"
        },
        {
          "internalType": "uint256",
          "name": "amount",
          "type": "uint256"
        },
        {
          "internalType": "uint256",
          "name": "maxSharesOut",
          "type": "uint256"
        }
      ],
      "name": "withdraw",
      "outputs": [
        {
          "internalType": "uint256",
          "name": "sharesOut",
          "type": "uint256"
        }
      ],
      "stateMutability": "payable",
      "type": "function"
    }
  ],
  "bytecode": {
    "object": "0x60806040523480156200001157600080fd5b5060405162005c1d38038062005c1d833981016040819052620000349162000421565b60008054336001600160a01b031991821681178355600180549092166001600160a01b038e161790915560405190918c91839182917f8be0079c531659141344cd1fd0a4f28419497f9722a3daafe3b4186f6b6457e09190a36040516001600160a01b0382169033907fa3396fd7f6e0a21b50e5089d2da70d5ac0a3bbbd1f617a93f134b7638998019890600090a350507fb5d37468eefb1c75507259f9212a7d55dca0c7d08d9ef7be1cda5c5103eaa88f80546001600160a01b038b81166001600160a01b0319928316179092557fb5d37468eefb1c75507259f9212a7d55dca0c7d08d9ef7be1cda5c5103eaa89080548b84169083161790557fb5d37468eefb1c75507259f9212a7d55dca0c7d08d9ef7be1cda5c5103eaa89180548a84169083161790557fb5d37468eefb1c75507259f9212a7d55dca0c7d08d9ef7be1cda5c5103eaa89280548984169083161790557fb5d37468eefb1c75507259f9212a7d55dca0c7d08d9ef7be1cda5c5103eaa8986020527fff189b940e548487540013148f4918c457e59a459ebf43e8d5a7e2bf6511cc70805482168784161790557f6e31dac7cf6a81eebbe5474571f1f502b19e53b3aba020e5edec2271c544d7cc805482168884161790557fbeb6404a5679479fa2807e8d94d04029ee9c88411faac0a02cf6c3ab3a65f93f8054821686841617905560036000527f364b758d82466761b14e0f945562e1f545874b538b4a757ceeb9f958ba9d1641805482168484161790557fb5d37468eefb1c75507259f9212a7d55dca0c7d08d9ef7be1cda5c5103eaa89480549091169184169190911790557fb5d37468eefb1c75507259f9212a7d55dca0c7d08d9ef7be1cda5c5103eaa88e80546001600160801b0319166d03e800000082000151800002a3001781556301e13380620002e366038d7ea4c6800060056200050f565b620002ef91906200053b565b60078201805463ffffffff191663ffffffff929092169190911790558054600160801b600160c01b031916651275000076a760871b178155620003616301e1338062000344662386f26fc1000060c86200050f565b6200035091906200053b565b620003e960201b62002b431760201c565b600682018054600160a01b600160f81b031916600160a01b6001600160581b039390931692909202919091179055600881018054600790920180546001600160601b03199093166a069780000000c8000003e81790915564fa0000001960c21b63ffffffff909216640100000000330217919091179055506200055e98505050505050505050565b60006b01000000000000000000000082106200040457600080fd5b5090565b6001600160a01b03811681146200041e57600080fd5b50565b6000806000806000806000806000806101408b8d0312156200044257600080fd5b8a516200044f8162000408565b60208c0151909a50620004628162000408565b60408c0151909950620004758162000408565b60608c0151909850620004888162000408565b60808c01519097506200049b8162000408565b60a08c0151909650620004ae8162000408565b60c08c0151909550620004c18162000408565b60e08c0151909450620004d48162000408565b6101008c0151909350620004e88162000408565b6101208c0151909250620004fc8162000408565b809150509295989b9194979a5092959850565b80820281158282048414176200053557634e487b7160e01b600052601160045260246000fd5b92915050565b6000826200055957634e487b7160e01b600052601260045260246000fd5b500490565b6156af806200056e6000396000f3fe60806040526004361061025c5760003560e01c80637fdfeead11610144578063bf7e214f116100b6578063ed01c6e51161007a578063ed01c6e5146106b7578063f2fde38b146106ca578063f44794ca146106ea578063f5f1f1a714610717578063f943028c1461072c578063fd940dad1461073f57600080fd5b8063bf7e214f14610622578063c65a7ecf14610642578063ca17ba7514610657578063e87f7c3114610677578063e9edc4771461069757600080fd5b8063aaf6b93b11610108578063aaf6b93b14610585578063ac9650d8146105a5578063ad5c4648146105c5578063b05e52fd146105da578063b3f1c93d146105fa578063bce1e58b1461060d57600080fd5b80637fdfeead146105085780638da5cb5b1461052857806396d6401d14610548578063a246bd301461055d578063a9583d5f1461057057600080fd5b806334e4b616116101dd5780635c975abb116101a15780635c975abb1461046b578063609a8b8c1461048057806364219450146104a257806373d15414146104c25780637a9e5e4b146104d55780637bfe950c146104f557600080fd5b806334e4b616146103d6578063379bd553146103f657806341700b97146104165780634252c5c61461042b5780634be474181461045857600080fd5b8063100fea6611610224578063100fea661461032f5780631276cf531461035f5780631ff0c9d61461037f57806320e8c5651461039457806322d51d7e146103a757600080fd5b8063017e7e58146102615780630472a61d1461029357806306ce7e7b146102b35780630a036a0a146102e15780630f0245ad14610301575b600080fd5b34801561026d57600080fd5b5061027661075f565b6040516001600160a01b0390911681526020015b60405180910390f35b34801561029f57600080fd5b506102766102ae36600461385b565b61077d565b3480156102bf57600080fd5b506102d36102ce366004613d1f565b6107f3565b60405161028a929190613fd4565b3480156102ed57600080fd5b506102766102fc36600461402b565b610a0d565b34801561030d57600080fd5b5061032161031c366004614048565b610ae4565b60405190815260200161028a565b34801561033b57600080fd5b5061034f61034a366004614061565b610b20565b604051901515815260200161028a565b34801561036b57600080fd5b5061032161037a366004614048565b610bdc565b34801561038b57600080fd5b50610276610c11565b6103216103a236600461407e565b610c2f565b3480156103b357600080fd5b506103c76103c23660046140dc565b610d40565b60405161028a9392919061412d565b3480156103e257600080fd5b5061034f6103f1366004614156565b610ff5565b34801561040257600080fd5b50610321610411366004614048565b61118d565b34801561042257600080fd5b506102766111be565b34801561043757600080fd5b5061044b6104463660046141f4565b6111dc565b60405161028a9190614359565b61032161046636600461407e565b6114ac565b34801561047757600080fd5b5061034f61158f565b34801561048c57600080fd5b506104a061049b366004614477565b6115b7565b005b3480156104ae57600080fd5b5061034f6104bd36600461402b565b611632565b6104a06104d03660046144b8565b611667565b3480156104e157600080fd5b506104a06104f036600461402b565b6116f2565b61032161050336600461407e565b6117dc565b34801561051457600080fd5b506103216105233660046144fa565b6118bf565b34801561053457600080fd5b50600054610276906001600160a01b031681565b34801561055457600080fd5b50610276611971565b61032161056b366004614559565b61198f565b34801561057c57600080fd5b50610321611a8b565b34801561059157600080fd5b506103216105a0366004614048565b611ab0565b6105b86105b3366004614477565b611ae8565b60405161028a91906145ea565b3480156105d157600080fd5b50610276611c3f565b3480156105e657600080fd5b506104a06105f536600461464c565b611c5d565b61032161060836600461407e565b6122db565b34801561061957600080fd5b506104a06123b8565b34801561062e57600080fd5b50600154610276906001600160a01b031681565b34801561064e57600080fd5b506104a0612419565b34801561066357600080fd5b506104a0610672366004614477565b61249e565b34801561068357600080fd5b506104a061069236600461402b565b612705565b3480156106a357600080fd5b506103216106b2366004614694565b612760565b6103216106c5366004614559565b6127a8565b3480156106d657600080fd5b506104a06106e536600461402b565b612923565b3480156106f657600080fd5b5061070a6107053660046146b1565b6129a0565b60405161028a91906146f5565b34801561072357600080fd5b506102766129c3565b61032161073a36600461407e565b6129e1565b34801561074b57600080fd5b5061027661075a366004614704565b612a5b565b60008061076a612b59565b600501546001600160a01b031692915050565b6000610787612b59565b60ff83166000908152600a9190910160205260409020546001600160a01b03169050806107ee5760405162461bcd60e51b815260206004820152601060248201526f1d5b9cdd5c1c1bdc9d19590bda5b5c1b60821b60448201526064015b60405180910390fd5b919050565b6060806107fe61158f565b1561081b5760405162461bcd60e51b81526004016107e590614788565b6000610825612b59565b9050600084516001600160401b0381111561084257610842613878565b60405190808252806020026020018201604052801561086b578160200160208202803683370190505b5093506108b58286600081518110610885576108856147b2565b602002602001015160000151876000815181106108a4576108a46147b2565b602002602001015160200151612b7d565b60005b855181101561096a5780156108ee57838682815181106108da576108da6147b2565b602002602001015160400151602001819052505b61091183878381518110610904576109046147b2565b6020026020010151612c47565b868381518110610923576109236147b2565b60200260200101819650828152505050858181518110610945576109456147b2565b602002602001015160400151608001518261096091906147de565b91506001016108b8565b506004820154600183015461098c916001600160a01b03918216911683612da7565b600482810154600184015460405163f3913e6960e01b81526001600160a01b039182169381019390935230602484015233604484015260648301849052169063f3913e6990608401600060405180830381600087803b1580156109ee57600080fd5b505af1158015610a02573d6000803e3d6000fd5b505050505050915091565b6000610a1761158f565b15610a345760405162461bcd60e51b81526004016107e590614788565b6040805160028082526060820183526000926020830190803683370190505090503381600081518110610a6957610a696147b2565b60200260200101906001600160a01b031690816001600160a01b0316815250508281600181518110610a9d57610a9d6147b2565b60200260200101906001600160a01b031690816001600160a01b0316815250506000610ac7612b59565b9050610adc8160008660006001876000612e1e565b949350505050565b600080610aef612b59565b8054909150610b1990849063ffffffff600160c01b8204811691600160e01b9004811690612fcc16565b9392505050565b600080610b2b612b59565b90504283602001516060015164ffffffffff16111580610b19575060028101548351606001516040516331a9108f60e11b81526001600160a01b0390921691636352211e91610b809160040190815260200190565b602060405180830381865afa158015610b9d573d6000803e3d6000fd5b505050506040513d601f19601f82011682018060405250810190610bc191906147fc565b6001600160a01b0316336001600160a01b0316149392505050565b600080610be7612b59565b8054909150610b1990849063ffffffff600160401b8204811691600160601b9004811690612fcc16565b600080610c1c612b59565b600601546001600160a01b031692915050565b6000610ca88584876001600160a01b03166338d52e0f6040518163ffffffff1660e01b8152600401602060405180830381865afa158015610c74573d6000803e3d6000fd5b505050506040513d601f19601f82011682018060405250810190610c9891906147fc565b6001600160a01b03169190612da7565b604051636e553f6560e01b8152600481018490526001600160a01b038581166024830152839190871690636e553f65906044016020604051808303816000875af1158015610cfa573d6000803e3d6000fd5b505050506040513d601f19601f82011682018060405250810190610d1e9190614819565b9150811015610adc576040516305133e6360e51b815260040160405180910390fd5b600060606000610d4e61158f565b15610d6b5760405162461bcd60e51b81526004016107e590614788565b6000610d75612b59565b336000908152600b9190910160205260409020546001600160a01b031603610db357600060405163201f67df60e01b81526004016107e59190614832565b6000610dbd612b59565b60038101546040805160a081019091529192506001600160a01b03169063eb1895389080610e0460208b01803590610df5908d61402b565b6001600160a01b031690612fea565b8152602001610e1660408b018b61484c565b60c0013581526001600160a01b0389166020820152604080516301ffc9a760e01b81526301929e5560e11b6004820152910190610f0f9086908c9033906301ffc9a790602401602060405180830381865afa158015610e79573d6000803e3d6000fd5b505050506040513d601f19601f82011682018060405250810190610e9d919061486d565b610ea8576000613032565b336001600160a01b03166390bec11d6040518163ffffffff1660e01b8152600401602060405180830381865afa158015610ee6573d6000803e3d6000fd5b505050506040513d601f19601f82011682018060405250810190610f0a9190614819565b613032565b8152602001610f2160408b018b61484c565b610f2f90606081019061488a565b808060200260200160405190810160405280939291908181526020016000905b82821015610f7c57610f6d6101c08302860136819003810190614061565b81526020019060010190610f4f565b50505050508152506040518263ffffffff1660e01b8152600401610fa091906148d3565b6000604051808303816000875af1158015610fbf573d6000803e3d6000fd5b505050506040513d6000823e601f3d908101601f19168201604052610fe79190810190614ad2565b935093509350509250925092565b600080611000612b59565b600781015490915060009063ffffffff16858560ff8916818110611026576110266147b2565b61103d939260a06101c09092020101359050614b21565b905084846000818110611052576110526147b2565b90506101c00201600001606001358760600135146110895760405163d513b3ed60e01b8152606088013560048201526024016107e5565b60a0870135811180156110e0575084848760ff168181106110ac576110ac6147b2565b6110c8926101a06101c090920201908101915061018001614b34565b64ffffffffff166110dd4260c08a01356147de565b10155b8061118257506008820154600160401b900463ffffffff16858560ff891681811061110d5761110d6147b2565b611129926101a06101c090920201908101915061018001614b34565b64ffffffffff1661113e60c08a0135426147de565b6111489190614b21565b10158015611182575084848760ff16818110611166576111666147b2565b90506101c0020160000160800160200135876080016020013511155b979650505050505050565b600080611198612b59565b6008810154909150610b1990849063ffffffff600160201b8204811691811690612fcc16565b6000806111c9612b59565b600301546001600160a01b031692915050565b6111e461374e565b611209838360ff16815181106111fc576111fc6147b2565b6020026020010151610b20565b611229576000604051634b4208b960e01b81526004016107e59190614b51565b6000611233612b59565b80549091506000906112549063ffffffff600160201b820481169116614b65565b6003830154865163ffffffff9290921692506001600160a01b031690636037a83a90879060ff881690811061128b5761128b6147b2565b602002602001015160000151606001518388336040518563ffffffff1660e01b81526004016112bd9493929190614b82565b600060405180830381600087803b1580156112d757600080fd5b505af11580156112eb573d6000803e3d6000fd5b505050507fd2f6618ba448f8b76ee0e823f8bb8c568b748f1687e1bc6bd625306fc4fb5035858560ff1681518110611325576113256147b2565b602002602001015160000151606001518560405161135092919091825260ff16602082015260400190565b60405180910390a160028201546040805160a0810190915260018401546001600160a01b039081168252875192169163d163259a91906020820190899060ff8a169081106113a0576113a06147b2565b6020908102919091018101515160600151825286549101906113d19063ffffffff600160201b820481169116614b65565b63ffffffff168152602001886000815181106113ef576113ef6147b2565b6020908102919091018101515160809081015181015183526103e892820192909252604080516001600160e01b031960e087901b16815284516001600160a01b03166004820152918401516024830152830151604482015260608301516064820152910151608482015260a4016000604051808303816000875af115801561147b573d6000803e3d6000fd5b505050506040513d6000823e601f3d908101601f191682016040526114a39190810190614d41565b95945050505050565b60006114f18584876001600160a01b03166338d52e0f6040518163ffffffff1660e01b8152600401602060405180830381865afa158015610c74573d6000803e3d6000fd5b604051635d043b2960e11b8152600481018490526001600160a01b03858116602483015233604483015283919087169063ba087652906064016020604051808303816000875af1158015611549573d6000803e3d6000fd5b505050506040513d601f19601f8201168201806040525081019061156d9190614819565b9150811015610adc57604051636e8c873b60e01b815260040160405180910390fd5b7f79e01b51e3a67f26dfcce791888d253159e9690f0dd937c21f9267c37958ff955460ff1690565b6115cd336000356001600160e01b0319166133e4565b6115e95760405162461bcd60e51b81526004016107e590614e46565b60005b8181101561162d5761161b838383818110611609576116096147b2565b90506020028101906105f59190614e6c565b8061162581614e82565b9150506115ec565b505050565b60008061163d612b59565b6001600160a01b039384166000908152600b91909101602052604090205490921690911415919050565b6000611671612b59565b60048181015460405163f3913e6960e01b81526001600160a01b0388811693820193909352336024820152858316604482015260648101879052929350169063f3913e69906084015b600060405180830381600087803b1580156116d457600080fd5b505af11580156116e8573d6000803e3d6000fd5b5050505050505050565b6000546001600160a01b0316331480611787575060015460405163b700961360e01b81526001600160a01b039091169063b70096139061174690339030906001600160e01b03196000351690600401614e9b565b602060405180830381865afa158015611763573d6000803e3d6000fd5b505050506040513d601f19601f82011682018060405250810190611787919061486d565b61179057600080fd5b600180546001600160a01b0319166001600160a01b03831690811790915560405133907fa3396fd7f6e0a21b50e5089d2da70d5ac0a3bbbd1f617a93f134b7638998019890600090a350565b60006118218584876001600160a01b03166338d52e0f6040518163ffffffff1660e01b8152600401602060405180830381865afa158015610c74573d6000803e3d6000fd5b604051632d182be560e21b8152600481018490526001600160a01b03858116602483015233604483015283919087169063b460af94906064016020604051808303816000875af1158015611879573d6000803e3d6000fd5b505050506040513d601f19601f8201168201806040525081019061189d9190614819565b9150811115610adc5760405163ac11961360e01b815260040160405180910390fd5b60006118cc858530611667565b6118e06001600160a01b0386168686612da7565b6040516351d488dd60e11b8152600481018590526001600160a01b0384811660248301523360448301526001600160401b038416606483015286169063a3a911ba906084016020604051808303816000875af1158015611944573d6000803e3d6000fd5b505050506040513d601f19601f820116820180604052508101906119689190614819565b50949350505050565b60008061197c612b59565b600401546001600160a01b031692915050565b6040516370a0823160e01b815233600482015260009081906001600160a01b038616906370a0823190602401602060405180830381865afa1580156119d8573d6000803e3d6000fd5b505050506040513d601f19601f820116820180604052508101906119fc9190614819565b604051636c82bbbf60e11b81523360048201529091506000906001600160a01b0387169063d905777e90602401602060405180830381865afa158015611a46573d6000803e3d6000fd5b505050506040513d601f19601f82011682018060405250810190611a6a9190614819565b90506000828210611a7b5782611a7d565b815b9050611182878783886114ac565b600080611a96612b59565b60060154600160a01b90046001600160581b031692915050565b600080611abb612b59565b6007810154909150610b1990849063ffffffff600160c01b8204811691600160e01b9004811690612fcc16565b6060816001600160401b03811115611b0257611b02613878565b604051908082528060200260200182016040528015611b3557816020015b6060815260200190600190039081611b205790505b50905060005b82811015611c385760008030868685818110611b5957611b596147b2565b9050602002810190611b6b9190614ec8565b604051611b79929190614f0e565b600060405180830381855af49150503d8060008114611bb4576040519150601f19603f3d011682016040523d82523d6000602084013e611bb9565b606091505b509150915081611c0557604481511015611bd257600080fd5b60048101905080806020019051810190611bec9190614f1e565b60405162461bcd60e51b81526004016107e59190614f8b565b80848481518110611c1857611c186147b2565b602002602001018190525050508080611c3090614e82565b915050611b3b565b5092915050565b600080611c4a612b59565b600101546001600160a01b031692915050565b611c73336000356001600160e01b0319166133e4565b611c8f5760405162461bcd60e51b81526004016107e590614e46565b6000611c99612b59565b90506000611caa6020840184614f9e565b90506000611cbb6020850185614ec8565b8080601f016020809104026020016040519081016040528093929190818152602001838380828437600092019190915250929350600c9250611cfb915050565b826012811115611d0d57611d0d61423a565b03611d7d5760008082806020019051810190611d299190614fbf565b91509150611d368261348d565b855463ffffffff191663ffffffff91909116178555611d548161348d565b855463ffffffff91909116600160201b0267ffffffff00000000199091161785555061229c9050565b6001826012811115611d9157611d9161423a565b03611e105760008082806020019051810190611dad9190614fbf565b91509150611dba8261348d565b855463ffffffff91909116600160401b026bffffffff000000000000000019909116178555611de88161348d565b855463ffffffff91909116600160601b0263ffffffff60601b199091161785555061229c9050565b6003826012811115611e2457611e2461423a565b03611e9c5760008082806020019051810190611e409190614fbf565b91509150611e4d8261348d565b8560080160046101000a81548163ffffffff021916908363ffffffff160217905550611e788161348d565b60088601805463ffffffff191663ffffffff929092169190911790555061229c9050565b6002826012811115611eb057611eb061423a565b03611f295760008082806020019051810190611ecc9190614fbf565b91509150611ed98261348d565b855463ffffffff91909116600160c01b0263ffffffff60c01b19909116178555611f028161348d565b855463ffffffff91909116600160e01b026001600160e01b039091161785555061229c9050565b6009826012811115611f3d57611f3d61423a565b03611fba5760008082806020019051810190611f599190614fbf565b91509150611f668261348d565b8560070160186101000a81548163ffffffff021916908363ffffffff160217905550611f918161348d565b85600701601c6101000a81548163ffffffff021916908363ffffffff160217905550505061229c565b6004826012811115611fce57611fce61423a565b0361201657600081806020019051810190611fe99190614819565b9050611ff48161348d565b60078501805463ffffffff191663ffffffff929092169190911790555061229c565b600a82601281111561202a5761202a61423a565b03612078576000818060200190518101906120459190614819565b90506120508161348d565b8460080160086101000a81548163ffffffff021916908363ffffffff1602179055505061229c565b600582601281111561208c5761208c61423a565b036120d2576120ad818060200190518101906120a89190614819565b61348d565b835463ffffffff91909116600160a01b0263ffffffff60a01b1990911617835561229c565b60068260128111156120e6576120e661423a565b0361212757612102818060200190518101906120a89190614819565b835463ffffffff91909116600160801b0263ffffffff60801b1990911617835561229c565b600882601281111561213b5761213b61423a565b036121915761215c818060200190518101906121579190614819565b61349f565b65ffffffffffff168360060160146101000a8154816001600160581b0302191690836001600160581b0316021790555061229c565b60078260128111156121a5576121a561423a565b036121c15761215c818060200190518101906121579190614819565b60008260128111156121d5576121d561423a565b03612218576000818060200190518101906121f091906147fc565b6005850180546001600160a01b0319166001600160a01b03929092169190911790555061229c565b600d82601281111561222c5761222c61423a565b0361228357600080828060200190518101906122489190614fe3565b60ff919091166000908152600987016020526040902080546001600160a01b0319166001600160a01b039092169190911790555061229c9050565b6040516345f279ab60e01b815260040160405180910390fd5b7f4aa20127da97281124f6c5bf77f293274afb4745d8b41b9c40434f8e51ac7c8182826040516122cd929190615012565b60405180910390a150505050565b60006123208584876001600160a01b03166338d52e0f6040518163ffffffff1660e01b8152600401602060405180830381865afa158015610c74573d6000803e3d6000fd5b6040516394bf804d60e01b8152600481018490526001600160a01b0385811660248301528391908716906394bf804d906044016020604051808303816000875af1158015612372573d6000803e3d6000fd5b505050506040513d601f19601f820116820180604052508101906123969190614819565b9150811115610adc57604051634e3c485360e01b815260040160405180910390fd5b6123ce336000356001600160e01b0319166133e4565b6123ea5760405162461bcd60e51b81526004016107e590614e46565b6123f261158f565b1561240f5760405162461bcd60e51b81526004016107e590614788565b6124176134b4565b565b61242f336000356001600160e01b0319166133e4565b61244b5760405162461bcd60e51b81526004016107e590614e46565b61245361158f565b6124965760405162461bcd60e51b815260206004820152601460248201527314185d5cd8589b194e881b9bdd081c185d5cd95960621b60448201526064016107e5565b61241761353b565b60006124a8612b59565b6007810154909150600160201b90046001600160a01b031633146124cb57600080fd5b60005b828110156126ff5760008484838181106124ea576124ea6147b2565b90506020028101906124fc9190614e6c565b61250a906020810190614f9e565b90506000858584818110612520576125206147b2565b90506020028101906125329190614e6c565b612540906020810190614ec8565b8080601f016020809104026020016040519081016040528093929190818152602001838380828437600092019190915250929350600f9250612580915050565b8260128111156125925761259261423a565b036125e957600080828060200190518101906125ae9190614fe3565b60ff919091166000908152600a88016020526040902080546001600160a01b0319166001600160a01b03909216919091179055506126ea9050565b60108260128111156125fd576125fd61423a565b036126405760008180602001905181019061261891906147fc565b6002860180546001600160a01b0319166001600160a01b0392909216919091179055506126ea565b60118260128111156126545761265461423a565b036126975760008180602001905181019061266f91906147fc565b6003860180546001600160a01b0319166001600160a01b0392909216919091179055506126ea565b60128260128111156126ab576126ab61423a565b03612283576000818060200190518101906126c691906147fc565b6004860180546001600160a01b0319166001600160a01b0392909216919091179055505b505080806126f790614e82565b9150506124ce565b50505050565b600061270f612b59565b6007810154909150600160201b90046001600160a01b0316331461273257600080fd5b60070180546001600160a01b03909216600160201b02640100000000600160c01b0319909216919091179055565b60008061276b612b59565b905082612779576000612789565b8054600160201b900463ffffffff165b815461279b919063ffffffff16614b65565b63ffffffff169392505050565b600080846001600160a01b03166338d52e0f6040518163ffffffff1660e01b8152600401602060405180830381865afa1580156127e9573d6000803e3d6000fd5b505050506040513d601f19601f8201168201806040525081019061280d91906147fc565b6040516370a0823160e01b81523360048201529091506000906001600160a01b038316906370a0823190602401602060405180830381865afa158015612857573d6000803e3d6000fd5b505050506040513d601f19601f8201168201806040525081019061287b9190614819565b60405163402d267d60e01b81526001600160a01b03878116600483015291925060009188169063402d267d90602401602060405180830381865afa1580156128c7573d6000803e3d6000fd5b505050506040513d601f19601f820116820180604052508101906128eb9190614819565b905060008282106128fc57826128fe565b815b905061290b848230611667565b61291788888389610c2f565b98975050505050505050565b612939336000356001600160e01b0319166133e4565b6129555760405162461bcd60e51b81526004016107e590614e46565b600080546001600160a01b0319166001600160a01b0383169081178255604051909133917f8be0079c531659141344cd1fd0a4f28419497f9722a3daafe3b4186f6b6457e09190a350565b6129a86137cb565b6129ba6129b3612b59565b8484613032565b90505b92915050565b6000806129ce612b59565b600201546001600160a01b031692915050565b6000612a4f856001600160a01b03166338d52e0f6040518163ffffffff1660e01b8152600401602060405180830381865afa158015612a24573d6000803e3d6000fd5b505050506040513d601f19601f82011682018060405250810190612a4891906147fc565b8430611667565b6114a385858585610c2f565b6000612a6561158f565b15612a825760405162461bcd60e51b81526004016107e590614788565b6000612a8c612b59565b8054909150600160a01b900463ffffffff16891015612ac157600060405163683f44bb60e11b81526004016107e5919061503b565b8054600160801b900463ffffffff16891115612af357600160405163683f44bb60e11b81526004016107e5919061503b565b612b36818a8a8a8a8a8a808060200260200160405190810160405280939291908181526020018383602002808284376000920191909152508c9250612e1e915050565b9998505050505050505050565b6000600160581b8210612b5557600080fd5b5090565b7fb5d37468eefb1c75507259f9212a7d55dca0c7d08d9ef7be1cda5c5103eaa88e90565b6040516331a9108f60e11b815260048101829052829033906001600160a01b03831690636352211e90602401602060405180830381865afa158015612bc6573d6000803e3d6000fd5b505050506040513d601f19601f82011682018060405250810190612bea91906147fc565b6001600160a01b0316036126ff576002840154604051635c46a7ef60e11b81523360048201526001600160a01b0391821660248201526044810184905260806064820152600060848201529082169063b88d4fde9060a4016116ba565b600060606000612c71846020015185600001516001600160a01b0316612fea90919063ffffffff16565b60028601546040516331a9108f60e11b8152600481018390529192506001600160a01b031690636352211e90602401602060405180830381865afa158015612cbd573d6000803e3d6000fd5b505050506040513d601f19601f82011682018060405250810190612ce191906147fc565b6001600160a01b0316336001600160a01b031614612d1b57604051632729ad6960e21b8152336004820152602481018290526044016107e5565b60408085015151810151905163d4208b7360e01b81526001600160a01b039091169063d4208b7390612d5390879030906004016150a6565b6000604051808303816000875af1158015612d72573d6000803e3d6000fd5b505050506040513d6000823e601f3d908101601f19168201604052612d9a91908101906151aa565b92509250505b9250929050565b600060405163095ea7b360e01b8152836004820152826024820152602060006044836000895af13d15601f3d11600160005114161716915050806126ff5760405162461bcd60e51b815260206004820152600e60248201526d1054141493d59157d1905253115160921b60448201526064016107e5565b6000808715612e2f57506001612e33565b5060005b600689015460018a01546040516bffffffffffffffffffffffff1930606090811b821660208401526001600160f81b031960f887901b16603484015233811b821660358401529290921b909116604982015242605d820152607d81018a9052609d8101889052612ebe916001600160a01b03169060bd016040516020818303038152906040526135df565b9150816001600160a01b031663474a1e5460405180608001604052808a6001600160a01b031681526020018815158152602001878152602001868152506040518263ffffffff1660e01b8152600401612f1791906151f0565b600060405180830381600087803b158015612f3157600080fd5b505af1158015612f45573d6000803e3d6000fd5b505050506001600160a01b038281166000818152600b8c01602090815260409182902080546001600160a01b031916339081179091558251908152938b169084015282015260ff821660608201527f9aa6282003aa425f2bb942f91daaf7080de24835fc4fa8f3f4dc52c7d014ea979060800160405180910390a150979650505050505050565b6000826000190484118302158202612fe357600080fd5b5091020490565b6040516bffffffffffffffffffffffff19606084901b1660208201526034810182905260009060540160408051601f1981840301815291905280516020909101209392505050565b61303a6137cb565b613047604084018461484c565b6020013542111561306e5760036040516321d4d76960e21b81526004016107e59190615274565b60006130c8613080604086018661484c565b61308e906080810190614ec8565b8080601f016020809104026020016040519081016040528093929190818152602001838380828437600092018290525092506136f1915050565b60ff811660009081526009870160205260409020549091506001600160a01b031661310b57604051630ee899e360e41b815260ff821660048201526024016107e5565b60ff811660009081526009860160205260408082205482916001600160a01b039091169063195b3f59906131419089018961484c565b60028a01546001600160a01b0316636352211e61316860208c01803590610df5908e61402b565b6040518263ffffffff1660e01b815260040161318691815260200190565b602060405180830381865afa1580156131a3573d6000803e3d6000fd5b505050506040513d601f19601f820116820180604052508101906131c791906147fc565b6131d460208b018b61402b565b8a602001356040518563ffffffff1660e01b81526004016131f894939291906154f3565b60c060405180830381865afa158015613215573d6000803e3d6000fd5b505050506040513d601f19601f820116820180604052508101906132399190615603565b91509150600081602001511480613268575060068701546020820151600160a01b9091046001600160581b0316105b156132895760016040516321d4d76960e21b81526004016107e59190615274565b613296604087018761484c565b60c00135816000015110156132c15760026040516321d4d76960e21b81526004016107e59190615274565b61330f6132d1604088018861484c565b6132df9060a0810190614e6c565b6132ed906020810190615630565b6132fa60408a018a61484c565b6133089060a0810190614e6c565b3585613714565b61332f5760006040516321d4d76960e21b81526004016107e59190615274565b6000851180156133425750848160400151115b1561334f57604081018590525b6040805160a08101825260018901546001600160a01b0316815290602082019061337b9089018961484c565b61338c90606081019060400161402b565b6001600160a01b031681526020016133a7604089018961484c565b6133b59060a0810190614e6c565b3581526020908101906133d1908901803590610df5908b61402b565b8152602001919091529695505050505050565b6001546000906001600160a01b0316801580159061346e575060405163b700961360e01b81526001600160a01b0382169063b70096139061342d90879030908890600401614e9b565b602060405180830381865afa15801561344a573d6000803e3d6000fd5b505050506040513d601f19601f8201168201806040525081019061346e919061486d565b80610adc57506000546001600160a01b03858116911614949350505050565b6000600160201b8210612b5557600080fd5b600066010000000000008210612b5557600080fd5b6134bc61158f565b156134d95760405162461bcd60e51b81526004016107e590614788565b7f79e01b51e3a67f26dfcce791888d253159e9690f0dd937c21f9267c37958ff95805460ff191660011790556040513381527f62e78cea01bee320cd4e420270b5ea74000d11b0c9f74754ebdbfc544b05a258906020015b60405180910390a1565b61354361158f565b6135865760405162461bcd60e51b815260206004820152601460248201527314185d5cd8589b194e881b9bdd081c185d5cd95960621b60448201526064016107e5565b7f79e01b51e3a67f26dfcce791888d253159e9690f0dd937c21f9267c37958ff95805460ff191690556040513381527f5db9ee0a495bf2e6ff9c91a7834c1ba4fdd244a5e8aa4e537bd38aeae4b073aa90602001613531565b8051604051606160f81b81526039820160f081811b60018401526f3d81600a3d39f33d3d3d3d363d3d376160801b600384015260028401901b601383018190526560373639366160d01b6015840152601b83015262013d7360e81b601d830152606085901b6020808401919091526c5af43d3d93803e603557fd5bf360981b60348401526000939260438401929186019084604182015b602082106136955783518152602093840193601f199092019101613676565b835160001960208490036101000a0119908116825260f088901b91830191825286846000f098506001600160a01b0389166136e357604051631d7fde3160e31b815260040160405180910390fd5b505050505050505092915050565b60006136fe8260206147de565b8351101561370b57600080fd5b50016020015190565b60008315613746578360051b8501855b803580851160051b948552602094851852604060002093018181106137245750505b501492915050565b60405180610160016040528060006001600160a01b0316815260200160006001600160a01b0316815260200160608152602001606081526020016000600381111561379b5761379b61423a565b815260006020820181905260408201819052606082018190526080820181905260a0820181905260c09091015290565b6040518060a0016040528060006001600160a01b0316815260200160006001600160a01b0316815260200160008019168152602001600081526020016138396040518060a0016040528060008152602001600081526020016000815260200160008152602001600081525090565b905290565b60ff8116811461384d57600080fd5b50565b80356107ee8161383e565b60006020828403121561386d57600080fd5b8135610b198161383e565b634e487b7160e01b600052604160045260246000fd5b604051606081016001600160401b03811182821017156138b0576138b0613878565b60405290565b60405160a081016001600160401b03811182821017156138b0576138b0613878565b604080519081016001600160401b03811182821017156138b0576138b0613878565b60405161010081016001600160401b03811182821017156138b0576138b0613878565b60405160c081016001600160401b03811182821017156138b0576138b0613878565b60405161016081016001600160401b03811182821017156138b0576138b0613878565b604051601f8201601f191681016001600160401b038111828210171561398a5761398a613878565b604052919050565b60006001600160401b038211156139ab576139ab613878565b5060051b60200190565b6001600160a01b038116811461384d57600080fd5b6000606082840312156139dc57600080fd5b6139e461388e565b905081356139f18161383e565b8152602082810135908201526040820135613a0b816139b5565b604082015292915050565b6001600160581b038116811461384d57600080fd5b64ffffffffff8116811461384d57600080fd5b600060a08284031215613a5057600080fd5b613a586138b6565b90508135613a6581613a16565b81526020820135613a758161383e565b60208201526040820135613a8881613a2b565b60408201526060820135613a9b81613a2b565b806060830152506080820135608082015292915050565b60008183036101c0811215613ac657600080fd5b613ace6138d8565b915061012080821215613ae057600080fd5b613ae86138b6565b8435613af3816139b5565b81526020850135613b03816139b5565b6020820152604085810135908201526060808601359082015260a0607f1984011215613b2e57600080fd5b613b366138b6565b92506080850135835260a0850135602084015260c0850135604084015260e08501356060840152610100850135608084015282608082015280845250613b7e85828601613a3e565b6020840152505092915050565b600082601f830112613b9c57600080fd5b81356020613bb1613bac83613992565b613962565b8281526101c09283028501820192828201919087851115613bd157600080fd5b8387015b85811015613bf457613be78982613ab2565b8452928401928101613bd5565b5090979650505050505050565b60006001600160401b03821115613c1a57613c1a613878565b50601f01601f191660200190565b600082601f830112613c3957600080fd5b8135613c47613bac82613c01565b818152846020838601011115613c5c57600080fd5b816020850160208301376000918101602001919091529392505050565b600060408284031215613c8b57600080fd5b613c936138d8565b9050813581526020808301356001600160401b03811115613cb357600080fd5b8301601f81018513613cc457600080fd5b8035613cd2613bac82613992565b81815260059190911b82018301908381019087831115613cf157600080fd5b928401925b82841015613d0f57833582529284019290840190613cf6565b8085870152505050505092915050565b60006020808385031215613d3257600080fd5b82356001600160401b0380821115613d4957600080fd5b818501915085601f830112613d5d57600080fd5b8135613d6b613bac82613992565b81815260059190911b83018401908481019088831115613d8a57600080fd5b8585015b83811015613ed457803585811115613da557600080fd5b8601601f196060828d0382011215613dbc57600080fd5b613dc461388e565b89830135613dd1816139b5565b815260408301358a820152606083013588811115613dee57600080fd5b9290920191610140838e0383011215613e0657600080fd5b613e0e6138fa565b9150613e1c8d8b85016139ca565b8252608083013588811115613e3057600080fd5b613e3e8e8c83870101613b8b565b8b8401525060a083013588811115613e5557600080fd5b613e638e8c83870101613c28565b60408401525060c083013588811115613e7b57600080fd5b613e898e8c83870101613c79565b60608401525060e08301356080830152613ea66101008401613850565b60a083015261012083013560c08301526101409092013560e082015260408201528352918601918601613d8e565b5098975050505050505050565b80516001600160a01b0390811683526020808301519091168184015260408083015181850152606080840151818601526080938401518051858701529283015160a08601529082015160c085015281015160e0840152015161010090910152565b600081518084526020808501945080840160005b83811015613fc9578151613f6b888251613ee1565b83015180516001600160581b03166101208901528084015160ff16610140890152604081015164ffffffffff9081166101608a0152606082015116610180890152608001516101a08801526101c09096019590820190600101613f56565b509495945050505050565b604080825283519082018190526000906020906060840190828701845b8281101561400d57815184529284019290840190600101613ff1565b505050838103828501526140218186613f42565b9695505050505050565b60006020828403121561403d57600080fd5b8135610b19816139b5565b60006020828403121561405a57600080fd5b5035919050565b60006101c0828403121561407457600080fd5b6129ba8383613ab2565b6000806000806080858703121561409457600080fd5b843561409f816139b5565b935060208501356140af816139b5565b93969395505050506040820135916060013590565b6000606082840312156140d657600080fd5b50919050565b600080604083850312156140ef57600080fd5b82356001600160401b0381111561410557600080fd5b614111858286016140c4565b9250506020830135614122816139b5565b809150509250929050565b8381526060602082015260006141466060830185613f42565b9050826040830152949350505050565b60008060008084860361016081121561416e57600080fd5b6101208082121561417e57600080fd5b869550850135905061418f8161383e565b92506101408501356001600160401b03808211156141ac57600080fd5b818701915087601f8301126141c057600080fd5b8135818111156141cf57600080fd5b8860206101c0830285010111156141e557600080fd5b95989497505060200194505050565b6000806040838503121561420757600080fd5b82356001600160401b0381111561421d57600080fd5b61422985828601613b8b565b92505060208301356141228161383e565b634e487b7160e01b600052602160045260246000fd5b6006811061384d5761384d61423a565b600081518084526020808501945080840160005b83811015613fc9578151805161428981614250565b8852808401516001600160a01b03168489015260408082015190890152606080820151908901526080908101519088015260a09096019590820190600101614274565b600081518084526020808501945080840160005b83811015613fc957815180516142f581614250565b8852808401516001600160a01b03908116858a0152604080830151908a0152606080830151908a0152608080830151908a015260a091820151169088015260c090960195908201906001016142e0565b600481106143555761435561423a565b9052565b602081526143736020820183516001600160a01b03169052565b6000602083015161438f60408401826001600160a01b03169052565b5060408301516101608060608501526143ac610180850183614260565b91506060850151601f198584030160808601526143c983826142cc565b92505060808501516143de60a0860182614345565b5060a085015160c085015260c085015160e085015260e0850151610100818187015280870151915050610120818187015280870151915050610140818187015280870151838701525050508091505092915050565b60008083601f84011261444557600080fd5b5081356001600160401b0381111561445c57600080fd5b6020830191508360208260051b8501011115612da057600080fd5b6000806020838503121561448a57600080fd5b82356001600160401b038111156144a057600080fd5b6144ac85828601614433565b90969095509350505050565b6000806000606084860312156144cd57600080fd5b83356144d8816139b5565b92506020840135915060408401356144ef816139b5565b809150509250925092565b6000806000806080858703121561451057600080fd5b843561451b816139b5565b9350602085013592506040850135614532816139b5565b915060608501356001600160401b038116811461454e57600080fd5b939692955090935050565b60008060006060848603121561456e57600080fd5b8335614579816139b5565b92506020840135614589816139b5565b929592945050506040919091013590565b60005b838110156145b557818101518382015260200161459d565b50506000910152565b600081518084526145d681602086016020860161459a565b601f01601f19169290920160200192915050565b6000602080830181845280855180835260408601915060408160051b870101925083870160005b8281101561463f57603f1988860301845261462d8583516145be565b94509285019290850190600101614611565b5092979650505050505050565b60006020828403121561465e57600080fd5b81356001600160401b0381111561467457600080fd5b820160408185031215610b1957600080fd5b801515811461384d57600080fd5b6000602082840312156146a657600080fd5b8135610b1981614686565b600080604083850312156146c457600080fd5b82356001600160401b038111156146da57600080fd5b6146e6858286016140c4565b95602094909401359450505050565b61012081016129bd8284613ee1565b600080600080600080600060c0888a03121561471f57600080fd5b873596506020880135614731816139b5565b955060408801359450606088013561474881614686565b935060808801356001600160401b0381111561476357600080fd5b61476f8a828b01614433565b989b979a5095989497959660a090950135949350505050565b60208082526010908201526f14185d5cd8589b194e881c185d5cd95960821b604082015260600190565b634e487b7160e01b600052603260045260246000fd5b634e487b7160e01b600052601160045260246000fd5b808201808211156129bd576129bd6147c8565b80516107ee816139b5565b60006020828403121561480e57600080fd5b8151610b19816139b5565b60006020828403121561482b57600080fd5b5051919050565b60208101600383106148465761484661423a565b91905290565b6000823561013e1983360301811261486357600080fd5b9190910192915050565b60006020828403121561487f57600080fd5b8151610b1981614686565b6000808335601e198436030181126148a157600080fd5b8301803591506001600160401b038211156148bb57600080fd5b60200191506101c081023603821315612da057600080fd5b60208152815160208201526020820151604082015260018060a01b0360408301511660608201526000606083015161490e6080840182613ee1565b5060808301516101a083810152610adc6101c0840182613f42565b600060a0828403121561493b57600080fd5b6149436138b6565b9050815181526020820151602082015260408201516040820152606082015160608201526080820151608082015292915050565b600060a0828403121561498957600080fd5b6149916138b6565b9050815161499e81613a16565b815260208201516149ae8161383e565b602082015260408201516149c181613a2b565b604082015260608201516149d481613a2b565b806060830152506080820151608082015292915050565b600082601f8301126149fc57600080fd5b81516020614a0c613bac83613992565b8281526101c09283028501820192828201919087851115614a2c57600080fd5b8387015b85811015613bf45780890382811215614a495760008081fd5b614a516138d8565b61012080831215614a625760008081fd5b614a6a6138b6565b92508351614a77816139b5565b835283880151614a86816139b5565b8389015260408481015190840152606080850151908401526080614aac8d828701614929565b90840152828252614abf8c858301614977565b8289015250855250928401928101614a30565b600080600060608486031215614ae757600080fd5b8351925060208401516001600160401b03811115614b0457600080fd5b614b10868287016149eb565b925050604084015190509250925092565b818103818111156129bd576129bd6147c8565b600060208284031215614b4657600080fd5b8135610b1981613a2b565b60208101600283106148465761484661423a565b63ffffffff818116838216019080821115611c3857611c386147c8565b848152836020820152608060408201526000614ba16080830185613f42565b905060018060a01b038316606083015295945050505050565b8051600681106107ee57600080fd5b600082601f830112614bda57600080fd5b81516020614bea613bac83613992565b82815260a09283028501820192828201919087851115614c0957600080fd5b8387015b85811015613bf45781818a031215614c255760008081fd5b614c2d6138b6565b614c3682614bba565b815285820151614c45816139b5565b818701526040828101519082015260608083015190820152608080830151908201528452928401928101614c0d565b600082601f830112614c8557600080fd5b81516020614c95613bac83613992565b82815260c09283028501820192828201919087851115614cb457600080fd5b8387015b85811015613bf45781818a031215614cd05760008081fd5b614cd861391d565b614ce182614bba565b815285820151614cf0816139b5565b8187015260408281015190820152606080830151908201526080808301519082015260a080830151614d21816139b5565b908201528452928401928101614cb8565b8051600481106107ee57600080fd5b600060208284031215614d5357600080fd5b81516001600160401b0380821115614d6a57600080fd5b908301906101608286031215614d7f57600080fd5b614d8761393f565b614d90836147f1565b8152614d9e602084016147f1565b6020820152604083015182811115614db557600080fd5b614dc187828601614bc9565b604083015250606083015182811115614dd957600080fd5b614de587828601614c74565b606083015250614df760808401614d32565b608082015260a0838101519082015260c0808401519082015260e08084015190820152610100808401519082015261012080840151908201526101409283015192810192909252509392505050565b6020808252600c908201526b15539055551213d49256915160a21b604082015260600190565b60008235603e1983360301811261486357600080fd5b600060018201614e9457614e946147c8565b5060010190565b6001600160a01b0393841681529190921660208201526001600160e01b0319909116604082015260600190565b6000808335601e19843603018112614edf57600080fd5b8301803591506001600160401b03821115614ef957600080fd5b602001915036819003821315612da057600080fd5b8183823760009101908152919050565b600060208284031215614f3057600080fd5b81516001600160401b03811115614f4657600080fd5b8201601f81018413614f5757600080fd5b8051614f65613bac82613c01565b818152856020838501011115614f7a57600080fd5b6114a382602083016020860161459a565b6020815260006129ba60208301846145be565b600060208284031215614fb057600080fd5b813560138110610b1957600080fd5b60008060408385031215614fd257600080fd5b505080516020909101519092909150565b60008060408385031215614ff657600080fd5b82516150018161383e565b6020840151909250614122816139b5565b6000601384106150245761502461423a565b83825260406020830152610adc60408301846145be565b60208101600883106148465761484661423a565b600060408301825184526020808401516040828701528281518085526060880191508383019450600092505b8083101561509b578451825293830193600192909201919083019061507b565b509695505050505050565b6040815260018060a01b0383511660408201526020830151606082015260006040840151606060808401526150ff60a084018251805160ff168252602080820151908301526040908101516001600160a01b0316910152565b60208101516101408061010086015261511c6101e0860183613f42565b91506040830151609f19808785030161012088015261513b84836145be565b93506060850151915080878503018388015250615158838261504f565b92505050608082015161016085015260a082015161517c61018086018260ff169052565b5060c08201516101a085015260e0909101516101c08401526001600160a01b03841660208401529050610b19565b600080604083850312156151bd57600080fd5b8251915060208301516001600160401b038111156151da57600080fd5b6151e6858286016149eb565b9150509250929050565b602080825282516001600160a01b039081168383015283820151151560408085019190915284015160806060850152805160a08501819052600093929183019190849060c08701905b8083101561525b57845184168252938501936001929092019190850190615239565b5060608801516080880152809550505050505092915050565b6020810161484683614250565b6000808335601e1984360301811261529857600080fd5b83016020810192503590506001600160401b038111156152b757600080fd5b6101c081023603821315612da057600080fd5b80356152d581613a16565b6001600160581b0316825260208101356152ee8161383e565b60ff166020830152604081013561530481613a2b565b64ffffffffff908116604084015260608201359061532182613a2b565b166060830152608090810135910152565b8183526000602080850194508260005b85811015613fc9578135615355816139b5565b6001600160a01b0390811688528284013590615370826139b5565b168784015260408281013590880152606080830135908801526080808301359088015260a0808301359088015260c0808301359088015260e0808301359088015261010080830135908801526101206153cd8189018285016152ca565b506101c0968701969190910190600101615342565b6000808335601e198436030181126153f957600080fd5b83016020810192503590506001600160401b0381111561541857600080fd5b803603821315612da057600080fd5b81835281816020850137506000828201602090810191909152601f909101601f19169091010190565b60008235603e1983360301811261546657600080fd5b90910192915050565b8035825260006020820135601e1983360301811261548c57600080fd5b82016020810190356001600160401b038111156154a857600080fd5b8060051b8036038313156154bb57600080fd5b60406020870181905286018290526001600160fb1b038211156154dd57600080fd5b8083606088013794909401606001949350505050565b60808152600085356155048161383e565b60ff166080830152602086013560a08301526040860135615524816139b5565b6001600160a01b031660c083015261553f6060870187615281565b6101408060e08601526155576101c086018385615332565b925061556660808a018a6153e2565b9250607f19610100818887030181890152615582868685615427565b955061559160a08d018d615450565b945061012092508188870301838901526155ab868661546f565b955060c08c0135848901526155c260e08d01613850565b60ff166101608901528b013561018088015250909801356101a0850152506001600160a01b0395861660208401529390941660408201526060015292915050565b60008060c0838503121561561657600080fd5b825191506156278460208501614929565b90509250929050565b6000808335601e1984360301811261564757600080fd5b8301803591506001600160401b0382111561566157600080fd5b6020019150600581901b3603821315612da057600080fdfea2646970667358221220314aa37d994a3cbc335a1a9aa3dc3b83d81b6f0cee13b795acdfb453cbd5cd4564736f6c63430008110033",
    "linkReferences": {}
  },
  "methodIdentifiers": {
    "BEACON_PROXY_IMPLEMENTATION()": "1ff0c9d6",
    "COLLATERAL_TOKEN()": "f5f1f1a7",
    "LIEN_TOKEN()": "41700b97",
    "TRANSFER_PROXY()": "96d6401d",
    "WETH()": "ad5c4648",
    "__emergencyPause()": "bce1e58b",
    "__emergencyUnpause()": "c65a7ecf",
    "authority()": "bf7e214f",
    "canLiquidate(((address,address,bytes32,uint256,(uint256,uint256,uint256,uint256,uint256)),(uint88,uint8,uint40,uint40,uint256)))": "100fea66",
    "commitToLiens((address,uint256,((uint8,uint256,address),((address,address,bytes32,uint256,(uint256,uint256,uint256,uint256,uint256)),(uint88,uint8,uint40,uint40,uint256))[],bytes,(bytes32,bytes32[]),uint256,uint8,bytes32,bytes32))[])": "06ce7e7b",
    "deposit(address,address,uint256,uint256)": "20e8c565",
    "depositMax(address,address,uint256)": "ed01c6e5",
    "depositToVault(address,address,uint256,uint256)": "f943028c",
    "feeTo()": "017e7e58",
    "file((uint8,bytes))": "b05e52fd",
    "fileBatch((uint8,bytes)[])": "609a8b8c",
    "fileGuardian((uint8,bytes)[])": "ca17ba75",
    "getAuctionWindow(bool)": "e9edc477",
    "getBuyoutFee(uint256)": "aaf6b93b",
    "getImpl(uint8)": "0472a61d",
    "getLiquidatorFee(uint256)": "1276cf53",
    "getProtocolFee(uint256)": "0f0245ad",
    "getStrategistFee(uint256)": "379bd553",
    "isValidRefinance((address,address,bytes32,uint256,(uint256,uint256,uint256,uint256,uint256)),uint8,((address,address,bytes32,uint256,(uint256,uint256,uint256,uint256,uint256)),(uint88,uint8,uint40,uint40,uint256))[])": "34e4b616",
    "isValidVault(address)": "64219450",
    "liquidate(((address,address,bytes32,uint256,(uint256,uint256,uint256,uint256,uint256)),(uint88,uint8,uint40,uint40,uint256))[],uint8)": "4252c5c6",
    "maxInterestRate()": "a9583d5f",
    "mint(address,address,uint256,uint256)": "b3f1c93d",
    "multicall(bytes[])": "ac9650d8",
    "newPublicVault(uint256,address,uint256,bool,address[],uint256)": "fd940dad",
    "newVault(address)": "0a036a0a",
    "owner()": "8da5cb5b",
    "paused()": "5c975abb",
    "pullToken(address,uint256,address)": "73d15414",
    "redeem(address,address,uint256,uint256)": "4be47418",
    "redeemFutureEpoch(address,uint256,address,uint64)": "7fdfeead",
    "redeemMax(address,address,uint256)": "a246bd30",
    "requestLienPosition((address,uint256,((uint8,uint256,address),((address,address,bytes32,uint256,(uint256,uint256,uint256,uint256,uint256)),(uint88,uint8,uint40,uint40,uint256))[],bytes,(bytes32,bytes32[]),uint256,uint8,bytes32,bytes32)),address)": "22d51d7e",
    "setAuthority(address)": "7a9e5e4b",
    "setNewGuardian(address)": "e87f7c31",
    "transferOwnership(address)": "f2fde38b",
    "validateCommitment((address,uint256,((uint8,uint256,address),((address,address,bytes32,uint256,(uint256,uint256,uint256,uint256,uint256)),(uint88,uint8,uint40,uint40,uint256))[],bytes,(bytes32,bytes32[]),uint256,uint8,bytes32,bytes32)),uint256)": "f44794ca",
    "withdraw(address,address,uint256,uint256)": "7bfe950c"
  },
  "id": 128
}