{
  "abi": [
    {
      "inputs": [
        {
          "internalType": "address",
          "name": "weth_",
          "type": "address"
        },
        {
          "internalType": "contract Authority",
          "name": "AUTHORITY_",
          "type": "address"
        },
        {
          "internalType": "contract ICollateralToken",
          "name": "COLLATERAL_TOKEN_",
          "type": "address"
        },
        {
          "internalType": "contract ILienToken",
          "name": "LIEN_TOKEN_",
          "type": "address"
        },
        {
          "internalType": "contract ITransferProxy",
          "name": "TRANSFER_PROXY_",
          "type": "address"
        },
        {
          "internalType": "contract IAstariaRouter",
          "name": "ASTARIA_ROUTER_",
          "type": "address"
        }
      ],
      "stateMutability": "nonpayable",
      "type": "constructor"
    },
    {
      "anonymous": false,
      "inputs": [
        {
          "indexed": true,
          "internalType": "uint256",
          "name": "tokenId",
          "type": "uint256"
        },
        {
          "indexed": false,
          "internalType": "address",
          "name": "sender",
          "type": "address"
        },
        {
          "indexed": false,
          "internalType": "uint256",
          "name": "value",
          "type": "uint256"
        },
        {
          "indexed": false,
          "internalType": "bool",
          "name": "firstBid",
          "type": "bool"
        },
        {
          "indexed": false,
          "internalType": "bool",
          "name": "extended",
          "type": "bool"
        }
      ],
      "name": "AuctionBid",
      "type": "event"
    },
    {
      "anonymous": false,
      "inputs": [
        {
          "indexed": true,
          "internalType": "uint256",
          "name": "tokenId",
          "type": "uint256"
        }
      ],
      "name": "AuctionCanceled",
      "type": "event"
    },
    {
      "anonymous": false,
      "inputs": [
        {
          "indexed": true,
          "internalType": "uint256",
          "name": "tokenId",
          "type": "uint256"
        },
        {
          "indexed": false,
          "internalType": "uint256",
          "name": "duration",
          "type": "uint256"
        },
        {
          "indexed": false,
          "internalType": "uint256",
          "name": "reservePrice",
          "type": "uint256"
        }
      ],
      "name": "AuctionCreated",
      "type": "event"
    },
    {
      "anonymous": false,
      "inputs": [
        {
          "indexed": true,
          "internalType": "uint256",
          "name": "tokenId",
          "type": "uint256"
        },
        {
          "indexed": false,
          "internalType": "uint256",
          "name": "duration",
          "type": "uint256"
        }
      ],
      "name": "AuctionDurationExtended",
      "type": "event"
    },
    {
      "anonymous": false,
      "inputs": [
        {
          "indexed": true,
          "internalType": "uint256",
          "name": "tokenId",
          "type": "uint256"
        },
        {
          "indexed": false,
          "internalType": "address",
          "name": "winner",
          "type": "address"
        },
        {
          "indexed": false,
          "internalType": "uint256",
          "name": "winningBid",
          "type": "uint256"
        }
      ],
      "name": "AuctionEnded",
      "type": "event"
    },
    {
      "anonymous": false,
      "inputs": [
        {
          "indexed": true,
          "internalType": "address",
          "name": "user",
          "type": "address"
        },
        {
          "indexed": true,
          "internalType": "contract Authority",
          "name": "newAuthority",
          "type": "address"
        }
      ],
      "name": "AuthorityUpdated",
      "type": "event"
    },
    {
      "anonymous": false,
      "inputs": [
        {
          "indexed": true,
          "internalType": "address",
          "name": "user",
          "type": "address"
        },
        {
          "indexed": true,
          "internalType": "address",
          "name": "newOwner",
          "type": "address"
        }
      ],
      "name": "OwnershipTransferred",
      "type": "event"
    },
    {
      "inputs": [
        {
          "internalType": "uint256",
          "name": "tokenId",
          "type": "uint256"
        }
      ],
      "name": "auctionExists",
      "outputs": [
        {
          "internalType": "bool",
          "name": "",
          "type": "bool"
        }
      ],
      "stateMutability": "view",
      "type": "function"
    },
    {
      "inputs": [],
      "name": "authority",
      "outputs": [
        {
          "internalType": "contract Authority",
          "name": "",
          "type": "address"
        }
      ],
      "stateMutability": "view",
      "type": "function"
    },
    {
      "inputs": [
        {
          "internalType": "uint256",
          "name": "auctionId",
          "type": "uint256"
        },
        {
          "internalType": "address",
          "name": "canceledBy",
          "type": "address"
        }
      ],
      "name": "cancelAuction",
      "outputs": [],
      "stateMutability": "nonpayable",
      "type": "function"
    },
    {
      "inputs": [
        {
          "internalType": "uint256",
          "name": "tokenId",
          "type": "uint256"
        },
        {
          "internalType": "uint256",
          "name": "duration",
          "type": "uint256"
        },
        {
          "internalType": "uint256",
          "name": "maxDuration",
          "type": "uint256"
        },
        {
          "internalType": "address",
          "name": "initiator",
          "type": "address"
        },
        {
          "internalType": "uint256",
          "name": "initiatorFeeNumerator",
          "type": "uint256"
        },
        {
          "internalType": "uint256",
          "name": "initiatorFeeDenominator",
          "type": "uint256"
        },
        {
          "internalType": "uint256",
          "name": "reserve",
          "type": "uint256"
        },
        {
          "components": [
            {
              "internalType": "uint256",
              "name": "lienId",
              "type": "uint256"
            },
            {
              "internalType": "uint40",
              "name": "end",
              "type": "uint40"
            }
          ],
          "internalType": "struct ILienToken.AuctionStack[]",
          "name": "stack",
          "type": "tuple[]"
        }
      ],
      "name": "createAuction",
      "outputs": [],
      "stateMutability": "nonpayable",
      "type": "function"
    },
    {
      "inputs": [
        {
          "internalType": "uint256",
          "name": "tokenId",
          "type": "uint256"
        },
        {
          "internalType": "uint256",
          "name": "amount",
          "type": "uint256"
        }
      ],
      "name": "createBid",
      "outputs": [],
      "stateMutability": "nonpayable",
      "type": "function"
    },
    {
      "inputs": [
        {
          "internalType": "uint256",
          "name": "auctionId",
          "type": "uint256"
        }
      ],
      "name": "endAuction",
      "outputs": [
        {
          "internalType": "address",
          "name": "winner",
          "type": "address"
        }
      ],
      "stateMutability": "nonpayable",
      "type": "function"
    },
    {
      "inputs": [
        {
          "internalType": "uint256",
          "name": "_auctionId",
          "type": "uint256"
        }
      ],
      "name": "getAuctionData",
      "outputs": [
        {
          "internalType": "uint256",
          "name": "amount",
          "type": "uint256"
        },
        {
          "internalType": "uint256",
          "name": "duration",
          "type": "uint256"
        },
        {
          "internalType": "uint256",
          "name": "firstBidTime",
          "type": "uint256"
        },
        {
          "internalType": "uint256",
          "name": "reservePrice",
          "type": "uint256"
        },
        {
          "internalType": "address",
          "name": "bidder",
          "type": "address"
        }
      ],
      "stateMutability": "view",
      "type": "function"
    },
    {
      "inputs": [],
      "name": "minBidIncrementDenominator",
      "outputs": [
        {
          "internalType": "uint32",
          "name": "",
          "type": "uint32"
        }
      ],
      "stateMutability": "view",
      "type": "function"
    },
    {
      "inputs": [],
      "name": "minBidIncrementNumerator",
      "outputs": [
        {
          "internalType": "uint32",
          "name": "",
          "type": "uint32"
        }
      ],
      "stateMutability": "view",
      "type": "function"
    },
    {
      "inputs": [],
      "name": "owner",
      "outputs": [
        {
          "internalType": "address",
          "name": "",
          "type": "address"
        }
      ],
      "stateMutability": "view",
      "type": "function"
    },
    {
      "inputs": [
        {
          "internalType": "contract Authority",
          "name": "newAuthority",
          "type": "address"
        }
      ],
      "name": "setAuthority",
      "outputs": [],
      "stateMutability": "nonpayable",
      "type": "function"
    },
    {
      "inputs": [],
      "name": "timeBuffer",
      "outputs": [
        {
          "internalType": "uint32",
          "name": "",
          "type": "uint32"
        }
      ],
      "stateMutability": "view",
      "type": "function"
    },
    {
      "inputs": [
        {
          "internalType": "address",
          "name": "newOwner",
          "type": "address"
        }
      ],
      "name": "transferOwnership",
      "outputs": [],
      "stateMutability": "nonpayable",
      "type": "function"
    },
    {
      "inputs": [],
      "name": "weth",
      "outputs": [
        {
          "internalType": "address",
          "name": "",
          "type": "address"
        }
      ],
      "stateMutability": "view",
      "type": "function"
    }
  ],
  "bytecode": {
    "object": "0x60806040523480156200001157600080fd5b5060405162001d8d38038062001d8d833981016040819052620000349162000207565b60008054336001600160a01b031991821681178355600180549092166001600160a01b0389161790915560405190918791839182917f8be0079c531659141344cd1fd0a4f28419497f9722a3daafe3b4186f6b6457e09190a36040516001600160a01b0382169033907fa3396fd7f6e0a21b50e5089d2da70d5ac0a3bbbd1f617a93f134b7638998019890600090a35050600280546001600160a01b03199081166001600160a01b038981169182179093556003805483168685161790556006805483168885161790556005805483168785169081179091556004805490931685851617909255600180549093167d03e800000032000003840000000000000000000000000000000000000000179092556200016091906000196200016c602090811b6200113417901c565b5050505050506200029b565b600060405163095ea7b360e01b8152836004820152826024820152602060006044836000895af13d15601f3d1160016000511416171691505080620001e85760405162461bcd60e51b815260206004820152600e60248201526d1054141493d59157d1905253115160921b604482015260640160405180910390fd5b50505050565b6001600160a01b03811681146200020457600080fd5b50565b60008060008060008060c087890312156200022157600080fd5b86516200022e81620001ee565b60208801519096506200024181620001ee565b60408801519095506200025481620001ee565b60608801519094506200026781620001ee565b60808801519093506200027a81620001ee565b60a08801519092506200028d81620001ee565b809150509295509295509295565b611ae280620002ab6000396000f3fe608060405234801561001057600080fd5b50600436106100ea5760003560e01c80638da5cb5b1161008c578063bf7e214f11610066578063bf7e214f1461024a578063d950f8ec1461025d578063ec91f2a414610270578063f2fde38b1461028757600080fd5b80638da5cb5b14610211578063b7751c7114610224578063b9a2de3a1461023757600080fd5b806344f27e30116100c857806344f27e301461018e5780634e8eaa13146101d257806369e06c8e146101e75780637a9e5e4b146101fe57600080fd5b80631568aa12146100ef5780633c0868f0146101205780633fc8cef314610163575b600080fd5b60015461010690600160e01b900463ffffffff1681565b60405163ffffffff90911681526020015b60405180910390f35b61015361012e366004611577565b600090815260076020526040902060040154600160501b900464ffffffffff16151590565b6040519015158152602001610117565b600254610176906001600160a01b031681565b6040516001600160a01b039091168152602001610117565b6101a161019c366004611577565b61029a565b6040805195865260208601949094529284019190915260608301526001600160a01b0316608082015260a001610117565b6101e56101e03660046115a5565b610405565b005b60015461010690600160c01b900463ffffffff1681565b6101e561020c3660046115d5565b610623565b600054610176906001600160a01b031681565b6101e56102323660046115f9565b61070d565b610176610245366004611577565b610bf1565b600154610176906001600160a01b031681565b6101e561026b3660046116c2565b610e12565b60015461010690600160a01b900463ffffffff1681565b6101e56102953660046115d5565b6110b7565b60008181526007602090815260408083208151610160810183528154815260018201546001600160a01b039081168286015260028301548116828501526003830154908116606083015264ffffffffff600160a01b820481166080840152600160c81b909104811660a0830152600483015480821660c0840152600160281b8104821660e0840152600160501b81049091166101008301526001600160581b03600160781b9091041661012082015260058201805484518187028101870190955280855286958695869586958695909491936101408601939290879084015b828210156103bf57600084815260209081902060408051808201909152600285029091018054825260019081015464ffffffffff16828401529083529092019101610379565b50505091525050805160c0820151610100830151610120840151606090940151929b64ffffffffff9283169b50911698506001600160581b039092169650945092505050565b61041b336000356001600160e01b0319166111ab565b6104405760405162461bcd60e51b8152600401610437906117df565b60405180910390fd5b600082815260076020526040902060040154600160501b900464ffffffffff166104a55760405162461bcd60e51b8152602060048201526016602482015275105d58dd1a5bdb88191bd95cc81b9bdd08195e1a5cdd60521b6044820152606401610437565b600082815260076020526040902060048101549054600160781b9091046001600160581b0316908111801561050c57506000838152600760205260409020600401546105029064ffffffffff80821691600160501b90041661181b565b64ffffffffff1642105b61057e5760405162461bcd60e51b815260206004820152603c60248201527f63616e63656c41756374696f6e3a2041756374696f6e206973206174206f722060448201527f61626f76652072657365727665206f72206861732065787069726564000000006064820152608401610437565b6000838152600760205260409020600301546001600160a01b031680156105d6576000848152600760205260409020546105ba90829085611257565b6000848152600760205260409020546105d39083611840565b91505b6105e18483856112d4565b6105eb9083611840565b600085815260076020526040902060020154909250610614906001600160a01b03168385611257565b61061d84611455565b50505050565b6000546001600160a01b03163314806106b8575060015460405163b700961360e01b81526001600160a01b039091169063b70096139061067790339030906001600160e01b03196000351690600401611853565b602060405180830381865afa158015610694573d6000803e3d6000fd5b505050506040513d601f19601f820116820180604052508101906106b89190611880565b6106c157600080fd5b600180546001600160a01b0319166001600160a01b03831690811790915560405133907fa3396fd7f6e0a21b50e5089d2da70d5ac0a3bbbd1f617a93f134b7638998019890600090a350565b600082815260076020526040902060040154600160501b900464ffffffffff1661073657600080fd5b6000828152600760205260409020600381015481546004909201546001600160a01b03909116919064ffffffffff80821691600160501b90041661077a82826118a2565b42106107ba5760405162461bcd60e51b815260206004820152600f60248201526e105d58dd1a5bdb88195e1c1a5c9959608a1b6044820152606401610437565b60015463ffffffff600160e01b82048116916107df91600160c01b90910416856118b5565b6107e991906118cc565b6107f390846118a2565b85101561086a576040805162461bcd60e51b81526020600482015260248101919091527f4d7573742073656e64206d6f7265207468616e206c617374206269642062792060448201527f6d696e426964496e6372656d656e7450657263656e7461676520616d6f756e746064820152608401610437565b60006108768487611840565b90506001600160a01b038516156108a25760006108938288611840565b90506108a0868233611257565b505b6000878152600760205260408120600301546108d790839064ffffffffff600160a01b8204811691600160c81b9004166114e8565b600089815260076020526040902060020154909150610900906001600160a01b03168233611257565b600061090c8284611840565b90506109198982336112d4565b6109239082611840565b90508015610a1d576003546002546006546040516331a9108f60e11b8152600481018d90526001600160a01b039384169363f3913e69938116923392911690636352211e90602401602060405180830381865afa158015610988573d6000803e3d6000fd5b505050506040513d601f19601f820116820180604052508101906109ac91906118ee565b60405160e085901b6001600160e01b03191681526001600160a01b0393841660048201529183166024830152909116604482015260648101849052608401600060405180830381600087803b158015610a0457600080fd5b505af1158015610a18573d6000803e3d6000fd5b505050505b600089815260076020526040812089815560030180546001600160a01b0319163317905560015463ffffffff600160a01b9091041642610a648864ffffffffff89166118a2565b610a6e9190611840565b1015610b3a57600154600090610aad9064ffffffffff881690610a9e90600160a01b900463ffffffff16426118a2565b610aa89190611840565b611506565b60008c81526007602052604090206004015490915064ffffffffff600160281b909104811690821611610b055760008b8152600760205260409020600401805464ffffffffff191664ffffffffff8316179055610b34565b60008b81526007602052604090206004018054600160281b810464ffffffffff1664ffffffffff199091161790555b60019150505b60408051338152602081018b90526001600160a01b038a161581830152821515606082015290518b917fac7b4956ef620044e10f430450c0069d356507570c460567101eebac99165c0a919081900360800190a28015610be55760008a81526007602090815260409182902060040154915164ffffffffff90921682528b917f8fdd260941d3b80e0b9ee888471b99a809d93315f1c2ccd41ac35dbfd64f2269910160405180910390a25b50505050505050505050565b6000610c09336000356001600160e01b0319166111ab565b610c255760405162461bcd60e51b8152600401610437906117df565b600082815260076020526040902060040154610c529064ffffffffff80821691600160501b90041661181b565b64ffffffffff16421015610ca85760405162461bcd60e51b815260206004820152601860248201527f41756374696f6e206861736e277420636f6d706c6574656400000000000000006044820152606401610437565b600082815260076020526040902060038101546001600160a01b0316610cdd5760028101546001600160a01b03169150610cee565b60038101546001600160a01b031691505b8054604080516001600160a01b0385168152602081019290925284917fd2aa34a4fdbbc6dff6a3e56f46e0f3ae2a31d7785ff3487aa5c95c642acea501910160405180910390a2600581015415610da7576005805460405163a546d9d960e01b81526001600160a01b039091169163a546d9d991610d749187919086019060040161195e565b600060405180830381600087803b158015610d8e57600080fd5b505af1158015610da2573d6000803e3d6000fd5b505050505b60008381526007602052604081208181556001810180546001600160a01b031990811690915560028201805490911690556003810180546001600160f01b03191690556004810180546001600160d01b031916905590610e0a600583018261152e565b505050919050565b610e28336000356001600160e01b0319166111ab565b610e445760405162461bcd60e51b8152600401610437906117df565b6001600160a01b038516610e5757600080fd5b600088815260076020526040902060040154600160501b900464ffffffffff1615610ebd5760405162461bcd60e51b815260206004820152601660248201527541756374696f6e20616c72656164792065786973747360501b6044820152606401610437565b6000888152600760205260409020610ed488611506565b60048201805464ffffffffff191664ffffffffff9290921691909117905560005b8251811015610f6d5781600501838281518110610f1457610f1461197f565b60209081029190910181015182546001808201855560009485529383902082516002909202019081559101519101805464ffffffffff191664ffffffffff90921691909117905580610f6581611995565b915050610ef5565b50610f778361151c565b6004820180546001600160581b0392909216600160781b026affffffffffffffffffffff60781b199092169190911790556002810180546001600160a01b0388166001600160a01b031990911617905560038101805464ffffffffff868116600160c81b0264ffffffffff60c81b19918916600160a01b029190911669ffffffffffffffffffff60a01b199092169190911717905561101542611506565b81600401600a6101000a81548164ffffffffff021916908364ffffffffff16021790555061104287611506565b60048201805464ffffffffff92909216600160281b0269ffffffffff0000000000199092169190911790556000815560408051898152602081018590528a917fd6eddd1118d71820909c1197aa966dbc15ed6f508554252169cc3d5ccac756ca910160405180910390a2505050505050505050565b6110cd336000356001600160e01b0319166111ab565b6110e95760405162461bcd60e51b8152600401610437906117df565b600080546001600160a01b0319166001600160a01b0383169081178255604051909133917f8be0079c531659141344cd1fd0a4f28419497f9722a3daafe3b4186f6b6457e09190a350565b600060405163095ea7b360e01b8152836004820152826024820152602060006044836000895af13d15601f3d116001600051141617169150508061061d5760405162461bcd60e51b815260206004820152600e60248201526d1054141493d59157d1905253115160921b6044820152606401610437565b6001546000906001600160a01b03168015801590611235575060405163b700961360e01b81526001600160a01b0382169063b7009613906111f490879030908890600401611853565b602060405180830381865afa158015611211573d6000803e3d6000fd5b505050506040513d601f19601f820116820180604052508101906112359190611880565b8061124d57506000546001600160a01b038581169116145b9150505b92915050565b60035460025460405163f3913e6960e01b81526001600160a01b039182166004820152838216602482015285821660448201526064810185905291169063f3913e6990608401600060405180830381600087803b1580156112b757600080fd5b505af11580156112cb573d6000803e3d6000fd5b50505050505050565b600080831161131b5760405162461bcd60e51b815260206004820152601360248201527263616e6e6f742073656e64206e6f7468696e6760681b6044820152606401610437565b600084815260076020526040902060058101541580159061133c5750600084115b1561144d576005805460405163844833fd60e01b815260009283926001600160a01b03169163844833fd9161137d91908701908b908b908b906004016119ae565b6000604051808303816000875af115801561139c573d6000803e3d6000fd5b505050506040513d6000823e601f3d908101601f191682016040526113c491908101906119e6565b945091508390506113d960058401600061152e565b60005b825181101561144957836005018382815181106113fb576113fb61197f565b6020908102919091018101518254600180820185556000948552938390208251600290920201908155910151908201805464ffffffffff191664ffffffffff909216919091179055016113dc565b5050505b509392505050565b60405181907f28601d865dccc9f113e15a7185c1b38c085d598c71250d3337916a428536d77190600090a260008181526007602052604081208181556001810180546001600160a01b031990811690915560028201805490911690556003810180546001600160f01b03191690556004810180546001600160d01b0319169055906114e3600583018261152e565b505050565b60008260001904841183021582026114ff57600080fd5b5091020490565b6000600160281b821061151857600080fd5b5090565b6000600160581b821061151857600080fd5b508054600082556002029060005260206000209081019061154f9190611552565b50565b5b80821115611518576000815560018101805464ffffffffff19169055600201611553565b60006020828403121561158957600080fd5b5035919050565b6001600160a01b038116811461154f57600080fd5b600080604083850312156115b857600080fd5b8235915060208301356115ca81611590565b809150509250929050565b6000602082840312156115e757600080fd5b81356115f281611590565b9392505050565b6000806040838503121561160c57600080fd5b50508035926020909101359150565b634e487b7160e01b600052604160045260246000fd5b6040805190810167ffffffffffffffff811182821017156116545761165461161b565b60405290565b604051601f8201601f1916810167ffffffffffffffff811182821017156116835761168361161b565b604052919050565b600067ffffffffffffffff8211156116a5576116a561161b565b5060051b60200190565b64ffffffffff8116811461154f57600080fd5b600080600080600080600080610100898b0312156116df57600080fd5b88359750602089013596506040890135955060608901356116ff81611590565b94506080890135935060a0890135925060c0890135915060e089013567ffffffffffffffff81111561173057600080fd5b8901601f81018b1361174157600080fd5b803561175461174f8261168b565b61165a565b8082825260208201915060208360061b85010192508d83111561177657600080fd5b6020840193505b828410156117cb576040848f03121561179557600080fd5b61179d611631565b8435815260208501356117af816116af565b806020830152508083525060208201915060408401935061177d565b809450505050509295985092959890939650565b6020808252600c908201526b15539055551213d49256915160a21b604082015260600190565b634e487b7160e01b600052601160045260246000fd5b64ffffffffff81811683821601908082111561183957611839611805565b5092915050565b8181038181111561125157611251611805565b6001600160a01b0393841681529190921660208201526001600160e01b0319909116604082015260600190565b60006020828403121561189257600080fd5b815180151581146115f257600080fd5b8082018082111561125157611251611805565b808202811582820484141761125157611251611805565b6000826118e957634e487b7160e01b600052601260045260246000fd5b500490565b60006020828403121561190057600080fd5b81516115f281611590565b6000815480845260208085019450836000528060002060005b83811015611953578154875260018083015464ffffffffff168489015260409097019660029092019101611924565b509495945050505050565b828152604060208201526000611977604083018461190b565b949350505050565b634e487b7160e01b600052603260045260246000fd5b6000600182016119a7576119a7611805565b5060010190565b6080815260006119c1608083018761190b565b60208301959095525060408101929092526001600160a01b0316606090910152919050565b60008060408084860312156119fa57600080fd5b835167ffffffffffffffff811115611a1157600080fd5b8401601f81018613611a2257600080fd5b80516020611a3261174f8361168b565b82815260069290921b83018101918181019089841115611a5157600080fd5b938201935b83851015611a9a5785858b031215611a6e5760008081fd5b611a76611631565b8551815283860151611a87816116af565b8185015282529385019390820190611a56565b9790910151969896975050505050505056fea2646970667358221220208b9439e62702e7191d7422475931a6a0bcade3b260b1ab5a7ab4a0b2da181264736f6c63430008110033",
    "linkReferences": {}
  },
  "methodIdentifiers": {
    "auctionExists(uint256)": "3c0868f0",
    "authority()": "bf7e214f",
    "cancelAuction(uint256,address)": "4e8eaa13",
    "createAuction(uint256,uint256,uint256,address,uint256,uint256,uint256,(uint256,uint40)[])": "d950f8ec",
    "createBid(uint256,uint256)": "b7751c71",
    "endAuction(uint256)": "b9a2de3a",
    "getAuctionData(uint256)": "44f27e30",
    "minBidIncrementDenominator()": "1568aa12",
    "minBidIncrementNumerator()": "69e06c8e",
    "owner()": "8da5cb5b",
    "setAuthority(address)": "7a9e5e4b",
    "timeBuffer()": "ec91f2a4",
    "transferOwnership(address)": "f2fde38b",
    "weth()": "3fc8cef3"
  },
  "id": 21
}