{
  "abi": [
    {
      "inputs": [
        {
          "internalType": "contract Authority",
          "name": "AUTHORITY_",
          "type": "address"
        },
        {
          "internalType": "contract ITransferProxy",
          "name": "TRANSFER_PROXY_",
          "type": "address"
        },
        {
          "internalType": "contract ILienToken",
          "name": "LIEN_TOKEN_",
          "type": "address"
        },
        {
          "internalType": "contract ConsiderationInterface",
          "name": "SEAPORT_",
          "type": "address"
        },
        {
          "internalType": "contract IRoyaltyEngine",
          "name": "ROYALTY_REGISTRY_",
          "type": "address"
        }
      ],
      "stateMutability": "nonpayable",
      "type": "constructor"
    },
    {
      "inputs": [],
      "name": "CreateFail",
      "type": "error"
    },
    {
      "inputs": [],
      "name": "FlashActionCallbackFailed",
      "type": "error"
    },
    {
      "inputs": [],
      "name": "FlashActionNFTNotReturned",
      "type": "error"
    },
    {
      "inputs": [],
      "name": "FlashActionSecurityCheckFailed",
      "type": "error"
    },
    {
      "inputs": [],
      "name": "InvalidCollateral",
      "type": "error"
    },
    {
      "inputs": [
        {
          "internalType": "enum ICollateralToken.InvalidCollateralStates",
          "name": "",
          "type": "uint8"
        }
      ],
      "name": "InvalidCollateralState",
      "type": "error"
    },
    {
      "inputs": [],
      "name": "InvalidConduitKey",
      "type": "error"
    },
    {
      "inputs": [],
      "name": "InvalidSender",
      "type": "error"
    },
    {
      "inputs": [],
      "name": "InvalidZone",
      "type": "error"
    },
    {
      "inputs": [],
      "name": "ListPriceTooLow",
      "type": "error"
    },
    {
      "inputs": [],
      "name": "ProtocolPaused",
      "type": "error"
    },
    {
      "inputs": [],
      "name": "UnsupportedFile",
      "type": "error"
    },
    {
      "anonymous": false,
      "inputs": [
        {
          "indexed": true,
          "internalType": "address",
          "name": "owner",
          "type": "address"
        },
        {
          "indexed": true,
          "internalType": "address",
          "name": "spender",
          "type": "address"
        },
        {
          "indexed": true,
          "internalType": "uint256",
          "name": "id",
          "type": "uint256"
        }
      ],
      "name": "Approval",
      "type": "event"
    },
    {
      "anonymous": false,
      "inputs": [
        {
          "indexed": true,
          "internalType": "address",
          "name": "owner",
          "type": "address"
        },
        {
          "indexed": true,
          "internalType": "address",
          "name": "operator",
          "type": "address"
        },
        {
          "indexed": false,
          "internalType": "bool",
          "name": "approved",
          "type": "bool"
        }
      ],
      "name": "ApprovalForAll",
      "type": "event"
    },
    {
      "anonymous": false,
      "inputs": [
        {
          "indexed": true,
          "internalType": "address",
          "name": "user",
          "type": "address"
        },
        {
          "indexed": true,
          "internalType": "contract Authority",
          "name": "newAuthority",
          "type": "address"
        }
      ],
      "name": "AuthorityUpdated",
      "type": "event"
    },
    {
      "anonymous": false,
      "inputs": [
        {
          "indexed": true,
          "internalType": "address",
          "name": "tokenContract",
          "type": "address"
        },
        {
          "indexed": true,
          "internalType": "uint256",
          "name": "tokenId",
          "type": "uint256"
        },
        {
          "indexed": true,
          "internalType": "uint256",
          "name": "collateralId",
          "type": "uint256"
        },
        {
          "indexed": false,
          "internalType": "address",
          "name": "depositedFor",
          "type": "address"
        }
      ],
      "name": "Deposit721",
      "type": "event"
    },
    {
      "anonymous": false,
      "inputs": [
        {
          "indexed": false,
          "internalType": "enum ICollateralToken.FileType",
          "name": "what",
          "type": "uint8"
        },
        {
          "indexed": false,
          "internalType": "bytes",
          "name": "data",
          "type": "bytes"
        }
      ],
      "name": "FileUpdated",
      "type": "event"
    },
    {
      "anonymous": false,
      "inputs": [
        {
          "indexed": false,
          "internalType": "uint256",
          "name": "collateralId",
          "type": "uint256"
        },
        {
          "components": [
            {
              "components": [
                {
                  "internalType": "address",
                  "name": "offerer",
                  "type": "address"
                },
                {
                  "internalType": "address",
                  "name": "zone",
                  "type": "address"
                },
                {
                  "components": [
                    {
                      "internalType": "enum ItemType",
                      "name": "itemType",
                      "type": "uint8"
                    },
                    {
                      "internalType": "address",
                      "name": "token",
                      "type": "address"
                    },
                    {
                      "internalType": "uint256",
                      "name": "identifierOrCriteria",
                      "type": "uint256"
                    },
                    {
                      "internalType": "uint256",
                      "name": "startAmount",
                      "type": "uint256"
                    },
                    {
                      "internalType": "uint256",
                      "name": "endAmount",
                      "type": "uint256"
                    }
                  ],
                  "internalType": "struct OfferItem[]",
                  "name": "offer",
                  "type": "tuple[]"
                },
                {
                  "components": [
                    {
                      "internalType": "enum ItemType",
                      "name": "itemType",
                      "type": "uint8"
                    },
                    {
                      "internalType": "address",
                      "name": "token",
                      "type": "address"
                    },
                    {
                      "internalType": "uint256",
                      "name": "identifierOrCriteria",
                      "type": "uint256"
                    },
                    {
                      "internalType": "uint256",
                      "name": "startAmount",
                      "type": "uint256"
                    },
                    {
                      "internalType": "uint256",
                      "name": "endAmount",
                      "type": "uint256"
                    },
                    {
                      "internalType": "address payable",
                      "name": "recipient",
                      "type": "address"
                    }
                  ],
                  "internalType": "struct ConsiderationItem[]",
                  "name": "consideration",
                  "type": "tuple[]"
                },
                {
                  "internalType": "enum OrderType",
                  "name": "orderType",
                  "type": "uint8"
                },
                {
                  "internalType": "uint256",
                  "name": "startTime",
                  "type": "uint256"
                },
                {
                  "internalType": "uint256",
                  "name": "endTime",
                  "type": "uint256"
                },
                {
                  "internalType": "bytes32",
                  "name": "zoneHash",
                  "type": "bytes32"
                },
                {
                  "internalType": "uint256",
                  "name": "salt",
                  "type": "uint256"
                },
                {
                  "internalType": "bytes32",
                  "name": "conduitKey",
                  "type": "bytes32"
                },
                {
                  "internalType": "uint256",
                  "name": "totalOriginalConsiderationItems",
                  "type": "uint256"
                }
              ],
              "internalType": "struct OrderParameters",
              "name": "parameters",
              "type": "tuple"
            },
            {
              "internalType": "bytes",
              "name": "signature",
              "type": "bytes"
            }
          ],
          "indexed": false,
          "internalType": "struct Order",
          "name": "listingOrder",
          "type": "tuple"
        }
      ],
      "name": "ListedOnSeaport",
      "type": "event"
    },
    {
      "anonymous": false,
      "inputs": [
        {
          "indexed": true,
          "internalType": "address",
          "name": "user",
          "type": "address"
        },
        {
          "indexed": true,
          "internalType": "address",
          "name": "newOwner",
          "type": "address"
        }
      ],
      "name": "OwnershipTransferred",
      "type": "event"
    },
    {
      "anonymous": false,
      "inputs": [
        {
          "indexed": true,
          "internalType": "address",
          "name": "underlyingAsset",
          "type": "address"
        },
        {
          "indexed": false,
          "internalType": "uint256",
          "name": "assetId",
          "type": "uint256"
        },
        {
          "indexed": true,
          "internalType": "address",
          "name": "to",
          "type": "address"
        }
      ],
      "name": "ReleaseTo",
      "type": "event"
    },
    {
      "anonymous": false,
      "inputs": [
        {
          "indexed": true,
          "internalType": "address",
          "name": "from",
          "type": "address"
        },
        {
          "indexed": true,
          "internalType": "address",
          "name": "to",
          "type": "address"
        },
        {
          "indexed": true,
          "internalType": "uint256",
          "name": "id",
          "type": "uint256"
        }
      ],
      "name": "Transfer",
      "type": "event"
    },
    {
      "inputs": [],
      "name": "SEAPORT",
      "outputs": [
        {
          "internalType": "contract ConsiderationInterface",
          "name": "",
          "type": "address"
        }
      ],
      "stateMutability": "view",
      "type": "function"
    },
    {
      "inputs": [
        {
          "internalType": "address",
          "name": "spender",
          "type": "address"
        },
        {
          "internalType": "uint256",
          "name": "id",
          "type": "uint256"
        }
      ],
      "name": "approve",
      "outputs": [],
      "stateMutability": "nonpayable",
      "type": "function"
    },
    {
      "inputs": [
        {
          "components": [
            {
              "internalType": "address",
              "name": "settlementToken",
              "type": "address"
            },
            {
              "internalType": "uint256",
              "name": "collateralId",
              "type": "uint256"
            },
            {
              "internalType": "uint256",
              "name": "maxDuration",
              "type": "uint256"
            },
            {
              "internalType": "uint256",
              "name": "startingPrice",
              "type": "uint256"
            },
            {
              "internalType": "uint256",
              "name": "endingPrice",
              "type": "uint256"
            }
          ],
          "internalType": "struct ICollateralToken.AuctionVaultParams",
          "name": "params",
          "type": "tuple"
        }
      ],
      "name": "auctionVault",
      "outputs": [
        {
          "components": [
            {
              "internalType": "address",
              "name": "offerer",
              "type": "address"
            },
            {
              "internalType": "address",
              "name": "zone",
              "type": "address"
            },
            {
              "components": [
                {
                  "internalType": "enum ItemType",
                  "name": "itemType",
                  "type": "uint8"
                },
                {
                  "internalType": "address",
                  "name": "token",
                  "type": "address"
                },
                {
                  "internalType": "uint256",
                  "name": "identifierOrCriteria",
                  "type": "uint256"
                },
                {
                  "internalType": "uint256",
                  "name": "startAmount",
                  "type": "uint256"
                },
                {
                  "internalType": "uint256",
                  "name": "endAmount",
                  "type": "uint256"
                }
              ],
              "internalType": "struct OfferItem[]",
              "name": "offer",
              "type": "tuple[]"
            },
            {
              "components": [
                {
                  "internalType": "enum ItemType",
                  "name": "itemType",
                  "type": "uint8"
                },
                {
                  "internalType": "address",
                  "name": "token",
                  "type": "address"
                },
                {
                  "internalType": "uint256",
                  "name": "identifierOrCriteria",
                  "type": "uint256"
                },
                {
                  "internalType": "uint256",
                  "name": "startAmount",
                  "type": "uint256"
                },
                {
                  "internalType": "uint256",
                  "name": "endAmount",
                  "type": "uint256"
                },
                {
                  "internalType": "address payable",
                  "name": "recipient",
                  "type": "address"
                }
              ],
              "internalType": "struct ConsiderationItem[]",
              "name": "consideration",
              "type": "tuple[]"
            },
            {
              "internalType": "enum OrderType",
              "name": "orderType",
              "type": "uint8"
            },
            {
              "internalType": "uint256",
              "name": "startTime",
              "type": "uint256"
            },
            {
              "internalType": "uint256",
              "name": "endTime",
              "type": "uint256"
            },
            {
              "internalType": "bytes32",
              "name": "zoneHash",
              "type": "bytes32"
            },
            {
              "internalType": "uint256",
              "name": "salt",
              "type": "uint256"
            },
            {
              "internalType": "bytes32",
              "name": "conduitKey",
              "type": "bytes32"
            },
            {
              "internalType": "uint256",
              "name": "totalOriginalConsiderationItems",
              "type": "uint256"
            }
          ],
          "internalType": "struct OrderParameters",
          "name": "orderParameters",
          "type": "tuple"
        }
      ],
      "stateMutability": "nonpayable",
      "type": "function"
    },
    {
      "inputs": [],
      "name": "authority",
      "outputs": [
        {
          "internalType": "contract Authority",
          "name": "",
          "type": "address"
        }
      ],
      "stateMutability": "view",
      "type": "function"
    },
    {
      "inputs": [
        {
          "internalType": "address",
          "name": "owner",
          "type": "address"
        }
      ],
      "name": "balanceOf",
      "outputs": [
        {
          "internalType": "uint256",
          "name": "",
          "type": "uint256"
        }
      ],
      "stateMutability": "view",
      "type": "function"
    },
    {
      "inputs": [
        {
          "components": [
            {
              "internalType": "enum ICollateralToken.FileType",
              "name": "what",
              "type": "uint8"
            },
            {
              "internalType": "bytes",
              "name": "data",
              "type": "bytes"
            }
          ],
          "internalType": "struct ICollateralToken.File",
          "name": "incoming",
          "type": "tuple"
        }
      ],
      "name": "file",
      "outputs": [],
      "stateMutability": "nonpayable",
      "type": "function"
    },
    {
      "inputs": [
        {
          "components": [
            {
              "internalType": "enum ICollateralToken.FileType",
              "name": "what",
              "type": "uint8"
            },
            {
              "internalType": "bytes",
              "name": "data",
              "type": "bytes"
            }
          ],
          "internalType": "struct ICollateralToken.File[]",
          "name": "files",
          "type": "tuple[]"
        }
      ],
      "name": "fileBatch",
      "outputs": [],
      "stateMutability": "nonpayable",
      "type": "function"
    },
    {
      "inputs": [
        {
          "internalType": "contract IFlashAction",
          "name": "receiver",
          "type": "address"
        },
        {
          "internalType": "uint256",
          "name": "collateralId",
          "type": "uint256"
        },
        {
          "internalType": "bytes",
          "name": "data",
          "type": "bytes"
        }
      ],
      "name": "flashAction",
      "outputs": [],
      "stateMutability": "nonpayable",
      "type": "function"
    },
    {
      "inputs": [
        {
          "internalType": "uint256",
          "name": "tokenId",
          "type": "uint256"
        }
      ],
      "name": "getApproved",
      "outputs": [
        {
          "internalType": "address",
          "name": "",
          "type": "address"
        }
      ],
      "stateMutability": "view",
      "type": "function"
    },
    {
      "inputs": [
        {
          "internalType": "uint256",
          "name": "collateralId",
          "type": "uint256"
        }
      ],
      "name": "getClearingHouse",
      "outputs": [
        {
          "internalType": "address",
          "name": "",
          "type": "address"
        }
      ],
      "stateMutability": "view",
      "type": "function"
    },
    {
      "inputs": [],
      "name": "getConduit",
      "outputs": [
        {
          "internalType": "address",
          "name": "",
          "type": "address"
        }
      ],
      "stateMutability": "view",
      "type": "function"
    },
    {
      "inputs": [],
      "name": "getConduitKey",
      "outputs": [
        {
          "internalType": "bytes32",
          "name": "",
          "type": "bytes32"
        }
      ],
      "stateMutability": "view",
      "type": "function"
    },
    {
      "inputs": [],
      "name": "getOpenSeaData",
      "outputs": [
        {
          "internalType": "address",
          "name": "",
          "type": "address"
        },
        {
          "internalType": "uint16",
          "name": "",
          "type": "uint16"
        },
        {
          "internalType": "uint16",
          "name": "",
          "type": "uint16"
        }
      ],
      "stateMutability": "view",
      "type": "function"
    },
    {
      "inputs": [
        {
          "internalType": "uint256",
          "name": "collateralId",
          "type": "uint256"
        }
      ],
      "name": "getUnderlying",
      "outputs": [
        {
          "internalType": "address",
          "name": "",
          "type": "address"
        },
        {
          "internalType": "uint256",
          "name": "",
          "type": "uint256"
        }
      ],
      "stateMutability": "view",
      "type": "function"
    },
    {
      "inputs": [
        {
          "internalType": "address",
          "name": "owner",
          "type": "address"
        },
        {
          "internalType": "address",
          "name": "operator",
          "type": "address"
        }
      ],
      "name": "isApprovedForAll",
      "outputs": [
        {
          "internalType": "bool",
          "name": "",
          "type": "bool"
        }
      ],
      "stateMutability": "view",
      "type": "function"
    },
    {
      "inputs": [
        {
          "internalType": "bytes32",
          "name": "orderHash",
          "type": "bytes32"
        },
        {
          "internalType": "address",
          "name": "caller",
          "type": "address"
        },
        {
          "internalType": "address",
          "name": "offerer",
          "type": "address"
        },
        {
          "internalType": "bytes32",
          "name": "zoneHash",
          "type": "bytes32"
        }
      ],
      "name": "isValidOrder",
      "outputs": [
        {
          "internalType": "bytes4",
          "name": "validOrderMagicValue",
          "type": "bytes4"
        }
      ],
      "stateMutability": "view",
      "type": "function"
    },
    {
      "inputs": [
        {
          "internalType": "bytes32",
          "name": "orderHash",
          "type": "bytes32"
        },
        {
          "internalType": "address",
          "name": "caller",
          "type": "address"
        },
        {
          "components": [
            {
              "components": [
                {
                  "internalType": "address",
                  "name": "offerer",
                  "type": "address"
                },
                {
                  "internalType": "address",
                  "name": "zone",
                  "type": "address"
                },
                {
                  "components": [
                    {
                      "internalType": "enum ItemType",
                      "name": "itemType",
                      "type": "uint8"
                    },
                    {
                      "internalType": "address",
                      "name": "token",
                      "type": "address"
                    },
                    {
                      "internalType": "uint256",
                      "name": "identifierOrCriteria",
                      "type": "uint256"
                    },
                    {
                      "internalType": "uint256",
                      "name": "startAmount",
                      "type": "uint256"
                    },
                    {
                      "internalType": "uint256",
                      "name": "endAmount",
                      "type": "uint256"
                    }
                  ],
                  "internalType": "struct OfferItem[]",
                  "name": "offer",
                  "type": "tuple[]"
                },
                {
                  "components": [
                    {
                      "internalType": "enum ItemType",
                      "name": "itemType",
                      "type": "uint8"
                    },
                    {
                      "internalType": "address",
                      "name": "token",
                      "type": "address"
                    },
                    {
                      "internalType": "uint256",
                      "name": "identifierOrCriteria",
                      "type": "uint256"
                    },
                    {
                      "internalType": "uint256",
                      "name": "startAmount",
                      "type": "uint256"
                    },
                    {
                      "internalType": "uint256",
                      "name": "endAmount",
                      "type": "uint256"
                    },
                    {
                      "internalType": "address payable",
                      "name": "recipient",
                      "type": "address"
                    }
                  ],
                  "internalType": "struct ConsiderationItem[]",
                  "name": "consideration",
                  "type": "tuple[]"
                },
                {
                  "internalType": "enum OrderType",
                  "name": "orderType",
                  "type": "uint8"
                },
                {
                  "internalType": "uint256",
                  "name": "startTime",
                  "type": "uint256"
                },
                {
                  "internalType": "uint256",
                  "name": "endTime",
                  "type": "uint256"
                },
                {
                  "internalType": "bytes32",
                  "name": "zoneHash",
                  "type": "bytes32"
                },
                {
                  "internalType": "uint256",
                  "name": "salt",
                  "type": "uint256"
                },
                {
                  "internalType": "bytes32",
                  "name": "conduitKey",
                  "type": "bytes32"
                },
                {
                  "internalType": "uint256",
                  "name": "totalOriginalConsiderationItems",
                  "type": "uint256"
                }
              ],
              "internalType": "struct OrderParameters",
              "name": "parameters",
              "type": "tuple"
            },
            {
              "internalType": "uint120",
              "name": "numerator",
              "type": "uint120"
            },
            {
              "internalType": "uint120",
              "name": "denominator",
              "type": "uint120"
            },
            {
              "internalType": "bytes",
              "name": "signature",
              "type": "bytes"
            },
            {
              "internalType": "bytes",
              "name": "extraData",
              "type": "bytes"
            }
          ],
          "internalType": "struct AdvancedOrder",
          "name": "order",
          "type": "tuple"
        },
        {
          "internalType": "bytes32[]",
          "name": "priorOrderHashes",
          "type": "bytes32[]"
        },
        {
          "components": [
            {
              "internalType": "uint256",
              "name": "orderIndex",
              "type": "uint256"
            },
            {
              "internalType": "enum Side",
              "name": "side",
              "type": "uint8"
            },
            {
              "internalType": "uint256",
              "name": "index",
              "type": "uint256"
            },
            {
              "internalType": "uint256",
              "name": "identifier",
              "type": "uint256"
            },
            {
              "internalType": "bytes32[]",
              "name": "criteriaProof",
              "type": "bytes32[]"
            }
          ],
          "internalType": "struct CriteriaResolver[]",
          "name": "criteriaResolvers",
          "type": "tuple[]"
        }
      ],
      "name": "isValidOrderIncludingExtraData",
      "outputs": [
        {
          "internalType": "bytes4",
          "name": "validOrderMagicValue",
          "type": "bytes4"
        }
      ],
      "stateMutability": "view",
      "type": "function"
    },
    {
      "inputs": [
        {
          "components": [
            {
              "internalType": "address",
              "name": "offerer",
              "type": "address"
            },
            {
              "internalType": "address",
              "name": "zone",
              "type": "address"
            },
            {
              "components": [
                {
                  "internalType": "enum ItemType",
                  "name": "itemType",
                  "type": "uint8"
                },
                {
                  "internalType": "address",
                  "name": "token",
                  "type": "address"
                },
                {
                  "internalType": "uint256",
                  "name": "identifierOrCriteria",
                  "type": "uint256"
                },
                {
                  "internalType": "uint256",
                  "name": "startAmount",
                  "type": "uint256"
                },
                {
                  "internalType": "uint256",
                  "name": "endAmount",
                  "type": "uint256"
                }
              ],
              "internalType": "struct OfferItem[]",
              "name": "offer",
              "type": "tuple[]"
            },
            {
              "components": [
                {
                  "internalType": "enum ItemType",
                  "name": "itemType",
                  "type": "uint8"
                },
                {
                  "internalType": "address",
                  "name": "token",
                  "type": "address"
                },
                {
                  "internalType": "uint256",
                  "name": "identifierOrCriteria",
                  "type": "uint256"
                },
                {
                  "internalType": "uint256",
                  "name": "startAmount",
                  "type": "uint256"
                },
                {
                  "internalType": "uint256",
                  "name": "endAmount",
                  "type": "uint256"
                },
                {
                  "internalType": "address payable",
                  "name": "recipient",
                  "type": "address"
                }
              ],
              "internalType": "struct ConsiderationItem[]",
              "name": "consideration",
              "type": "tuple[]"
            },
            {
              "internalType": "enum OrderType",
              "name": "orderType",
              "type": "uint8"
            },
            {
              "internalType": "uint256",
              "name": "startTime",
              "type": "uint256"
            },
            {
              "internalType": "uint256",
              "name": "endTime",
              "type": "uint256"
            },
            {
              "internalType": "bytes32",
              "name": "zoneHash",
              "type": "bytes32"
            },
            {
              "internalType": "uint256",
              "name": "salt",
              "type": "uint256"
            },
            {
              "internalType": "bytes32",
              "name": "conduitKey",
              "type": "bytes32"
            },
            {
              "internalType": "uint256",
              "name": "totalOriginalConsiderationItems",
              "type": "uint256"
            }
          ],
          "internalType": "struct OrderParameters",
          "name": "params",
          "type": "tuple"
        }
      ],
      "name": "liquidatorNFTClaim",
      "outputs": [],
      "stateMutability": "nonpayable",
      "type": "function"
    },
    {
      "inputs": [
        {
          "components": [
            {
              "components": [
                {
                  "components": [
                    {
                      "internalType": "address",
                      "name": "token",
                      "type": "address"
                    },
                    {
                      "internalType": "address",
                      "name": "vault",
                      "type": "address"
                    },
                    {
                      "internalType": "bytes32",
                      "name": "strategyRoot",
                      "type": "bytes32"
                    },
                    {
                      "internalType": "uint256",
                      "name": "collateralId",
                      "type": "uint256"
                    },
                    {
                      "components": [
                        {
                          "internalType": "uint256",
                          "name": "maxAmount",
                          "type": "uint256"
                        },
                        {
                          "internalType": "uint256",
                          "name": "rate",
                          "type": "uint256"
                        },
                        {
                          "internalType": "uint256",
                          "name": "duration",
                          "type": "uint256"
                        },
                        {
                          "internalType": "uint256",
                          "name": "maxPotentialDebt",
                          "type": "uint256"
                        },
                        {
                          "internalType": "uint256",
                          "name": "liquidationInitialAsk",
                          "type": "uint256"
                        }
                      ],
                      "internalType": "struct ILienToken.Details",
                      "name": "details",
                      "type": "tuple"
                    }
                  ],
                  "internalType": "struct ILienToken.Lien",
                  "name": "lien",
                  "type": "tuple"
                },
                {
                  "components": [
                    {
                      "internalType": "uint88",
                      "name": "amount",
                      "type": "uint88"
                    },
                    {
                      "internalType": "uint8",
                      "name": "position",
                      "type": "uint8"
                    },
                    {
                      "internalType": "uint40",
                      "name": "last",
                      "type": "uint40"
                    },
                    {
                      "internalType": "uint40",
                      "name": "end",
                      "type": "uint40"
                    },
                    {
                      "internalType": "uint256",
                      "name": "lienId",
                      "type": "uint256"
                    }
                  ],
                  "internalType": "struct ILienToken.Point",
                  "name": "point",
                  "type": "tuple"
                }
              ],
              "internalType": "struct ILienToken.Stack[]",
              "name": "stack",
              "type": "tuple[]"
            },
            {
              "internalType": "uint256",
              "name": "listPrice",
              "type": "uint256"
            },
            {
              "internalType": "uint56",
              "name": "maxDuration",
              "type": "uint56"
            }
          ],
          "internalType": "struct ICollateralToken.ListUnderlyingForSaleParams",
          "name": "params",
          "type": "tuple"
        }
      ],
      "name": "listForSaleOnSeaport",
      "outputs": [],
      "stateMutability": "nonpayable",
      "type": "function"
    },
    {
      "inputs": [
        {
          "internalType": "address",
          "name": "operator_",
          "type": "address"
        },
        {
          "internalType": "address",
          "name": "from_",
          "type": "address"
        },
        {
          "internalType": "uint256",
          "name": "tokenId_",
          "type": "uint256"
        },
        {
          "internalType": "bytes",
          "name": "data_",
          "type": "bytes"
        }
      ],
      "name": "onERC721Received",
      "outputs": [
        {
          "internalType": "bytes4",
          "name": "",
          "type": "bytes4"
        }
      ],
      "stateMutability": "nonpayable",
      "type": "function"
    },
    {
      "inputs": [],
      "name": "owner",
      "outputs": [
        {
          "internalType": "address",
          "name": "",
          "type": "address"
        }
      ],
      "stateMutability": "view",
      "type": "function"
    },
    {
      "inputs": [
        {
          "internalType": "uint256",
          "name": "id",
          "type": "uint256"
        }
      ],
      "name": "ownerOf",
      "outputs": [
        {
          "internalType": "address",
          "name": "owner",
          "type": "address"
        }
      ],
      "stateMutability": "view",
      "type": "function"
    },
    {
      "inputs": [
        {
          "internalType": "uint256",
          "name": "collateralId",
          "type": "uint256"
        },
        {
          "internalType": "address",
          "name": "releaseTo",
          "type": "address"
        }
      ],
      "name": "releaseToAddress",
      "outputs": [],
      "stateMutability": "nonpayable",
      "type": "function"
    },
    {
      "inputs": [
        {
          "internalType": "address",
          "name": "from",
          "type": "address"
        },
        {
          "internalType": "address",
          "name": "to",
          "type": "address"
        },
        {
          "internalType": "uint256",
          "name": "id",
          "type": "uint256"
        }
      ],
      "name": "safeTransferFrom",
      "outputs": [],
      "stateMutability": "nonpayable",
      "type": "function"
    },
    {
      "inputs": [
        {
          "internalType": "address",
          "name": "from",
          "type": "address"
        },
        {
          "internalType": "address",
          "name": "to",
          "type": "address"
        },
        {
          "internalType": "uint256",
          "name": "id",
          "type": "uint256"
        },
        {
          "internalType": "bytes",
          "name": "data",
          "type": "bytes"
        }
      ],
      "name": "safeTransferFrom",
      "outputs": [],
      "stateMutability": "nonpayable",
      "type": "function"
    },
    {
      "inputs": [
        {
          "internalType": "address",
          "name": "target",
          "type": "address"
        }
      ],
      "name": "securityHooks",
      "outputs": [
        {
          "internalType": "address",
          "name": "",
          "type": "address"
        }
      ],
      "stateMutability": "view",
      "type": "function"
    },
    {
      "inputs": [
        {
          "internalType": "address",
          "name": "operator",
          "type": "address"
        },
        {
          "internalType": "bool",
          "name": "approved",
          "type": "bool"
        }
      ],
      "name": "setApprovalForAll",
      "outputs": [],
      "stateMutability": "nonpayable",
      "type": "function"
    },
    {
      "inputs": [
        {
          "internalType": "contract Authority",
          "name": "newAuthority",
          "type": "address"
        }
      ],
      "name": "setAuthority",
      "outputs": [],
      "stateMutability": "nonpayable",
      "type": "function"
    },
    {
      "inputs": [
        {
          "internalType": "uint256",
          "name": "collateralId",
          "type": "uint256"
        }
      ],
      "name": "settleAuction",
      "outputs": [],
      "stateMutability": "nonpayable",
      "type": "function"
    },
    {
      "inputs": [
        {
          "internalType": "bytes4",
          "name": "interfaceId",
          "type": "bytes4"
        }
      ],
      "name": "supportsInterface",
      "outputs": [
        {
          "internalType": "bool",
          "name": "",
          "type": "bool"
        }
      ],
      "stateMutability": "view",
      "type": "function"
    },
    {
      "inputs": [
        {
          "internalType": "uint256",
          "name": "collateralId",
          "type": "uint256"
        }
      ],
      "name": "tokenURI",
      "outputs": [
        {
          "internalType": "string",
          "name": "",
          "type": "string"
        }
      ],
      "stateMutability": "view",
      "type": "function"
    },
    {
      "inputs": [
        {
          "internalType": "address",
          "name": "from",
          "type": "address"
        },
        {
          "internalType": "address",
          "name": "to",
          "type": "address"
        },
        {
          "internalType": "uint256",
          "name": "id",
          "type": "uint256"
        }
      ],
      "name": "transferFrom",
      "outputs": [],
      "stateMutability": "nonpayable",
      "type": "function"
    },
    {
      "inputs": [
        {
          "internalType": "address",
          "name": "newOwner",
          "type": "address"
        }
      ],
      "name": "transferOwnership",
      "outputs": [],
      "stateMutability": "nonpayable",
      "type": "function"
    }
  ],
  "bytecode": {
    "object": "0x60806040523480156200001157600080fd5b5060405162004df038038062004df08339810160408190526200003491620003e7565b604080518082018252601881527f4173746172696120436f6c6c61746572616c20546f6b656e00000000000000006020808301919091528251808401845260038152621050d560ea1b9181019190915260008054336001600160a01b031991821681178355600180549092166001600160a01b038c16179091559351929391928991839182917f8be0079c531659141344cd1fd0a4f28419497f9722a3daafe3b4186f6b6457e091a36040516001600160a01b0382169033907fa3396fd7f6e0a21b50e5089d2da70d5ac0a3bbbd1f617a93f134b7638998019890600090a3507ffc8793c2139a57fdc041f52e5a6e70e2c8f6402d67cb75321c29bc8c4ab736ab9050806200014484826200050c565b50600181016200015583826200050c565b5050505060006200016b6200039a60201b60201c565b80546001600160a01b03199081166001600160a01b03888116919091178355600183018054831688831617905560038301805483168783169081179091556008840180546001600160c01b03191677271000fa8de9c5a032463c561423387a9648c5c7bcc5bc901790556004808501805490941692871692909217909255604080516303d1eddd60e61b8152905193945060009363f47b77409282810192869291908290030181865afa15801562000227573d6000803e3d6000fd5b505050506040513d6000823e601f3d908101601f19168201604052620002519190810190620005ea565b9250505060006200026d30620003be60201b6200236a1760201c565b600984018190556005840180546001600160a01b0319166001600160a01b038516908117909155604051631e5164ef60e21b8152600481018390523060248201529192509063794593bc906044016020604051808303816000875af1158015620002db573d6000803e3d6000fd5b505050506040513d601f19601f82011682018060405250810190620003019190620006db565b6007840180546001600160a01b0319166001600160a01b0392831690811790915560058501546040516313ad9cab60e01b81526004810192909252878316602483015260016044830152909116906313ad9cab90606401600060405180830381600087803b1580156200037357600080fd5b505af115801562000388573d6000803e3d6000fd5b50505050505050505050505062000702565b7fd6569137fd08fe949c286f37fb9bd830d1299d041edc1069ea252b26b4db955190565b60601b6001600160601b03191690565b6001600160a01b0381168114620003e457600080fd5b50565b600080600080600060a086880312156200040057600080fd5b85516200040d81620003ce565b60208701519095506200042081620003ce565b60408701519094506200043381620003ce565b60608701519093506200044681620003ce565b60808701519092506200045981620003ce565b809150509295509295909350565b634e487b7160e01b600052604160045260246000fd5b600181811c908216806200049257607f821691505b602082108103620004b357634e487b7160e01b600052602260045260246000fd5b50919050565b601f8211156200050757600081815260208120601f850160051c81016020861015620004e25750805b601f850160051c820191505b818110156200050357828155600101620004ee565b5050505b505050565b81516001600160401b0381111562000528576200052862000467565b62000540816200053984546200047d565b84620004b9565b602080601f8311600181146200057857600084156200055f5750858301515b600019600386901b1c1916600185901b17855562000503565b600085815260208120601f198616915b82811015620005a95788860151825594840194600190910190840162000588565b5085821015620005c85787850151600019600388901b60f8161c191681555b5050505050600190811b01905550565b8051620005e581620003ce565b919050565b6000806000606084860312156200060057600080fd5b83516001600160401b03808211156200061857600080fd5b818601915086601f8301126200062d57600080fd5b81518181111562000642576200064262000467565b604051601f8201601f19908116603f011681019083821181831017156200066d576200066d62000467565b816040528281526020935089848487010111156200068a57600080fd5b600091505b82821015620006ae57848201840151818301850152908301906200068f565b60008484830101528097505050508086015193505050620006d260408501620005d8565b90509250925092565b600060208284031215620006ee57600080fd5b8151620006fb81620003ce565b9392505050565b6146de80620007126000396000f3fe608060405234801561001057600080fd5b50600436106101fb5760003560e01c80637a9e5e4b1161011a578063b88d4fde116100ad578063d68265c31161007c578063d68265c3146104b7578063db067b43146104ca578063e71d541e146104dd578063e985e9c51461050f578063f2fde38b1461056a57600080fd5b8063b88d4fde14610451578063bf7e214f14610464578063c87b56dd14610477578063d163259a1461049757600080fd5b80639ce9d319116100e95780639ce9d319146103e6578063a22cb46514610418578063b05e52fd1461042b578063b58e1c351461043e57600080fd5b80637a9e5e4b146103a557806384eafda0146103b857806388803a9f146103c05780638da5cb5b146103d357600080fd5b80633313157011610192578063609a8b8c11610161578063609a8b8c146103595780636352211e1461036c57806370a082311461037f5780637202c8481461039257600080fd5b80633313157014610315578063387b66291461032857806342842e0e146103305780636080d7101461034357600080fd5b80630e1d31dc116101ce5780630e1d31dc146102b0578063150b7a02146102dc57806323b872dd146102ef5780632e9936111461030257600080fd5b806301ffc9a7146102005780630330e35b14610228578063081812fc1461023d578063095ea7b31461029d575b600080fd5b61021361020e366004613257565b61057d565b60405190151581526020015b60405180910390f35b61023b61023636600461329b565b6105a8565b005b61028561024b3660046132cb565b60009081527ffc8793c2139a57fdc041f52e5a6e70e2c8f6402d67cb75321c29bc8c4ab736af60205260409020546001600160a01b031690565b6040516001600160a01b03909116815260200161021f565b61023b6102ab3660046132e4565b6106df565b6102c36102be366004613310565b6107e3565b6040516001600160e01b0319909116815260200161021f565b6102c36102ea3660046133a0565b61082a565b61023b6102fd366004613412565b610b9c565b61023b6103103660046132cb565b610d06565b6102c36103233660046134a9565b610dbc565b610285610e19565b61023b61033e366004613412565b610e35565b61034b610f2d565b60405190815260200161021f565b61023b610367366004613559565b610f42565b61028561037a3660046132cb565b610fb8565b61034b61038d36600461359a565b61101c565b61023b6103a03660046135b7565b61109e565b61023b6103b336600461359a565b61131e565b610285611408565b61023b6103ce3660046135f1565b611426565b600054610285906001600160a01b031681565b6103ee6118b8565b604080516001600160a01b03909416845261ffff928316602085015291169082015260600161021f565b61023b61042636600461365a565b6118f5565b61023b610439366004613688565b611980565b61023b61044c366004613975565b611ec7565b61023b61045f3660046133a0565b612045565b600154610285906001600160a01b031681565b61048a6104853660046132cb565b612126565b60405161021f9190613aca565b6104aa6104a5366004613add565b6121ae565b60405161021f9190613cda565b6102856104c536600461359a565b61224c565b6102856104d83660046132cb565b61227c565b6104f06104eb3660046132cb565b6122a3565b604080516001600160a01b03909316835260208301919091520161021f565b61021361051d366004613ced565b6001600160a01b0391821660009081527ffc8793c2139a57fdc041f52e5a6e70e2c8f6402d67cb75321c29bc8c4ab736b06020908152604080832093909416825291909152205460ff1690565b61023b61057836600461359a565b6122ed565b60006001600160e01b03198216632d0938ed60e01b14806105a257506105a28261237a565b92915050565b8160006105b36123c8565b6001810154604051631a94da4760e21b8152600481018590529192506000916001600160a01b0390911690636a53691c90602401602060405180830381865afa158015610604573d6000803e3d6000fd5b505050506040513d601f19601f820116820180604052508101906106289190613d1b565b1461065257600460405163fa5e5f7f60e01b81526004016106499190613d34565b60405180910390fd5b6000828152600a8201602052604090205460ff161561068757600360405163fa5e5f7f60e01b81526004016106499190613d34565b60006106916123c8565b905061069c85610fb8565b6001600160a01b0316336001600160a01b0316146106cd57604051636edaef2f60e11b815260040160405180910390fd5b6106d88186866123ec565b5050505050565b60008181526000805160206146698339815191526020526040902054600080516020614689833981519152906001600160a01b03163381148061074757506001600160a01b0381166000908152600583016020908152604080832033845290915290205460ff165b6107845760405162461bcd60e51b815260206004820152600e60248201526d1393d517d055551213d49256915160921b6044820152606401610649565b600083815260048301602052604080822080546001600160a01b0319166001600160a01b0388811691821790925591518693918516917f8c5be1e5ebec7d5bd14f71427d1e84f3dd0314c0f7b2291e5b200ac8c7c3b92591a450505050565b6000806107ee6123c8565b6000848152600a8201602052604090205490915060ff16610817576001600160e01b0319610820565b6303874c7760e21b5b9695505050505050565b60006108346123c8565b60020160009054906101000a90046001600160a01b03166001600160a01b0316635c975abb6040518163ffffffff1660e01b8152600401602060405180830381865afa158015610888573d6000803e3d6000fd5b505050506040513d601f19601f820116820180604052508101906108ac9190613d4e565b156108ca57604051634427925560e01b815260040160405180910390fd5b60006108d46123c8565b905060006108e233876124f2565b6000818152600f840160205260409020549091506001600160a01b03166109f65760006109c68360020160009054906101000a90046001600160a01b03166001600160a01b0316631ff0c9d66040518163ffffffff1660e01b8152600401602060405180830381865afa15801561095d573d6000803e3d6000fd5b505050506040513d601f19601f820116820180604052508101906109819190613d6b565b600285015460405160609190911b6001600160601b0319166020820152600360f81b603482015260358101859052605501604051602081830303815290604052612535565b6000838152600f85016020526040902080546001600160a01b0319166001600160a01b0392909216919091179055505b6000818152600d83016020908152604091829020825180840190935280546001600160a01b0316808452600190910154918301919091526101fb576040516331a9108f60e11b81526004810188905230903390636352211e90602401602060405180830381865afa158015610a6f573d6000803e3d6000fd5b505050506040513d601f19601f82011682018060405250810190610a939190613d6b565b6001600160a01b031614610aa657600080fd5b33301480610ac0575060018301546001600160a01b031633145b15610ade576040516368f7a67560e11b815260040160405180910390fd5b886001600160a01b03808216908a1614610af55750875b610aff8184612647565b6040805180820182523380825260208083018c81526000888152600d8a018352859020935184546001600160a01b0319166001600160a01b0391821617855590516001909401939093559251918416825285928b927fd6b6bfb15fe5be5c1a8af879e26df8c0e2470c4ad95a47a1397868b45910e853910160405180910390a450630a85bd0160e11b9350610b9392505050565b95945050505050565b60008181526000805160206146698339815191526020526040902054600080516020614689833981519152906001600160a01b03858116911614610c0f5760405162461bcd60e51b815260206004820152600a60248201526957524f4e475f46524f4d60b01b6044820152606401610649565b6001600160a01b038316610c595760405162461bcd60e51b81526020600482015260116024820152701253959053125117d49150d25412515395607a1b6044820152606401610649565b336001600160a01b0385161480610c9557506001600160a01b0384166000908152600582016020908152604080832033845290915290205460ff165b80610cb8575060008281526004820160205260409020546001600160a01b031633145b610cf55760405162461bcd60e51b815260206004820152600e60248201526d1393d517d055551213d49256915160921b6044820152606401610649565b610d00848484612774565b50505050565b610d1c336000356001600160e01b031916612862565b610d385760405162461bcd60e51b815260040161064990613d88565b6000610d426123c8565b6000838152600a8201602052604090205490915060ff16610d7957600160405163fa5e5f7f60e01b81526004016106499190613d34565b6000828152600a820160209081526040808320805460ff19169055600d8401909152812080546001600160a01b031916815560010155610db88261290b565b5050565b600080610dc76123c8565b9050600a81016000610dd98980613dae565b60e00135815260208101919091526040016000205460ff16610e03576001600160e01b0319610e0c565b6303874c7760e21b5b9998505050505050505050565b6000610e236123c8565b600301546001600160a01b0316919050565b610e40838383610b9c565b6001600160a01b0382163b1580610ee95750604051630a85bd0160e11b8082523360048301526001600160a01b03858116602484015260448301849052608060648401526000608484015290919084169063150b7a029060a4016020604051808303816000875af1158015610eb9573d6000803e3d6000fd5b505050506040513d601f19601f82011682018060405250810190610edd9190613dcf565b6001600160e01b031916145b610f285760405162461bcd60e51b815260206004820152601060248201526f155394d0519157d49150d2541251539560821b6044820152606401610649565b505050565b600080610f386123c8565b6009015492915050565b610f58336000356001600160e01b031916612862565b610f745760405162461bcd60e51b815260040161064990613d88565b60005b81811015610f2857610fa6838383818110610f9457610f94613dec565b90506020028101906104399190613e02565b80610fb081613e2e565b915050610f77565b600081815260008051602061466983398151915260205260409020546001600160a01b0316806110175760405162461bcd60e51b815260206004820152600a6024820152691393d517d3525395115160b21b6044820152606401610649565b919050565b60006001600160a01b0382166110635760405162461bcd60e51b815260206004820152600c60248201526b5a45524f5f4144445245535360a01b6044820152606401610649565b506001600160a01b031660009081527ffc8793c2139a57fdc041f52e5a6e70e2c8f6402d67cb75321c29bc8c4ab736ae602052604090205490565b6110a88180613e47565b60008181106110b9576110b9613dec565b90506101c002016000016060013560006110d16123c8565b9050336110dd83610fb8565b6001600160a01b0316146110f057600080fd5b60006110fa6123c8565b9050600a8101600061110c8680613e47565b600081811061111d5761111d613dec565b90506101c0020160000160600135815260200190815260200160002060009054906101000a900460ff161561116857600360405163fa5e5f7f60e01b81526004016106499190613d34565b60018101546000906001600160a01b031663e544b5946111888780613e47565b61119860608a0160408b01613e90565b6111ab9066ffffffffffffff1642613eb9565b6040518463ffffffff1660e01b81526004016111c993929190613f69565b602060405180830381865afa1580156111e6573d6000803e3d6000fd5b505050506040513d601f19601f8201168201806040525081019061120a9190613d1b565b90508460200135811115611231576040516365c1453f60e11b815260040160405180910390fd5b600061128b836112418880613e47565b600081811061125257611252613dec565b90506101c0020160000160600135886020013589602001358a604001602081019061127d9190613e90565b66ffffffffffffff166129fc565b90506113168361129b8880613e47565b60008181106112ac576112ac613dec565b90506101c0020160000160600135604051806040016040528085815260200160006001600160401b038111156112e4576112e46136c2565b6040519080825280601f01601f19166020018201604052801561130e576020820181803683370190505b509052612f1d565b505050505050565b6000546001600160a01b03163314806113b3575060015460405163b700961360e01b81526001600160a01b039091169063b70096139061137290339030906001600160e01b03196000351690600401614033565b602060405180830381865afa15801561138f573d6000803e3d6000fd5b505050506040513d601f19601f820116820180604052508101906113b39190613d4e565b6113bc57600080fd5b600180546001600160a01b0319166001600160a01b03831690811790915560405133907fa3396fd7f6e0a21b50e5089d2da70d5ac0a3bbbd1f617a93f134b7638998019890600090a350565b6000806114136123c8565b600701546001600160a01b031692915050565b8260006114316123c8565b90503361143d83610fb8565b6001600160a01b03161461145057600080fd5b600080600061145d6123c8565b9050611468886122a3565b6001600160a01b0382166000908152600c84016020526040902054919450925060ff166114ab57600360405163fa5e5f7f60e01b81526004016106499190613d34565b6001810154604051631a94da4760e21b8152600481018a90526d20a1aa24ab22afa0aaa1aa24a7a760911b916001600160a01b031690636a53691c90602401602060405180830381865afa158015611507573d6000803e3d6000fd5b505050506040513d601f19601f8201168201806040525081019061152b9190613d1b565b0361154c57600360405163fa5e5f7f60e01b81526004016106499190613d34565b6001600160a01b038084166000908152600e8301602052604090205484916060911615611601576001600160a01b038581166000818152600e8601602052604090819020549051631782048560e31b81526004810192909252602482018790529091169063bc10242890604401600060405180830381865afa1580156115d6573d6000803e3d6000fd5b505050506040513d6000823e601f3d908101601f191682016040526115fe91908101906140ae565b90505b604051632142170760e11b81523060048201526001600160a01b038c81166024830152604482018690528316906342842e0e90606401600060405180830381600087803b15801561165157600080fd5b505af1158015611665573d6000803e3d6000fd5b505050507faa25e84734a4b82484cf83d828b61c4d597ef4bdc387f66fbb53e460a4de6f868b6001600160a01b0316632ea552ca6040518060400160405280896001600160a01b03168152602001888152508c8c6040518463ffffffff1660e01b81526004016116d79392919061411f565b6020604051808303816000875af11580156116f6573d6000803e3d6000fd5b505050506040513d601f19601f8201168201806040525081019061171a9190613d1b565b1461173857604051633c6771ff60e21b815260040160405180910390fd5b6001600160a01b038581166000908152600e8501602052604090205416158015906117fb57506001600160a01b038581166000818152600e8601602052604090819020549051631782048560e31b81526004810192909252602482018790529091169063bc10242890604401600060405180830381865afa1580156117c1573d6000803e3d6000fd5b505050506040513d6000823e601f3d908101601f191682016040526117e991908101906140ae565b80519060200120818051906020012014155b1561181957604051636cfcd84960e11b815260040160405180910390fd5b6040516331a9108f60e11b81526004810185905230906001600160a01b03841690636352211e90602401602060405180830381865afa158015611860573d6000803e3d6000fd5b505050506040513d601f19601f820116820180604052508101906118849190613d6b565b6001600160a01b0316146118ab57604051633102ff8f60e01b815260040160405180910390fd5b5050505050505050505050565b6000806000806118c66123c8565b600801546001600160a01b0381169561ffff600160a01b830481169650600160b01b9092049091169350915050565b3360008181527ffc8793c2139a57fdc041f52e5a6e70e2c8f6402d67cb75321c29bc8c4ab736b0602090815260408083206001600160a01b03871680855290835292819020805460ff191686151590811790915590519081529192917f17307eab39ab6107e8899845ad3d59bd9653f200f220920489ca2b5937696c31910160405180910390a35050565b611996336000356001600160e01b031916612862565b6119b25760405162461bcd60e51b815260040161064990613d88565b60006119bc6123c8565b905060006119cd602084018461414c565b905060006119de602085018561416d565b8080601f01602080910402602001604051908101604052809392919081815260200183838082843760009201919091525092935060019250611a1e915050565b826006811115611a3057611a30613af9565b03611a7357600081806020019051810190611a4b9190613d6b565b6002850180546001600160a01b0319166001600160a01b039290921691909117905550611e88565b6003826006811115611a8757611a87613af9565b03611ad95760008082806020019051810190611aa391906141b3565b6001600160a01b039182166000908152600e88016020526040902080546001600160a01b0319169190921617905550611e889050565b6004826006811115611aed57611aed613af9565b03611b3c5760008082806020019051810190611b0991906141e2565b6001600160a01b03919091166000908152600c870160205260409020805460ff191691151591909117905550611e889050565b6006826006811115611b5057611b50613af9565b03611bc957600080600083806020019051810190611b6e9190614223565b60088901805463ffffffff60a01b1916600160a01b61ffff9485160261ffff60b01b191617600160b01b9290931691909102919091176001600160a01b0319166001600160a01b039290921691909117905550611e88915050565b6005826006811115611bdd57611bdd613af9565b03611e6f5780806020019051810190611bf69190613d6b565b6003840180546001600160a01b0319166001600160a01b03929092169182179055604080516303d1eddd60e61b815290516000929163f47b774091600480830192869291908290030181865afa158015611c54573d6000803e3d6000fd5b505050506040513d6000823e601f3d908101601f19168201604052611c7c9190810190614288565b60098701549093509150611c9b905057611c953061236a565b60098501555b6005840180546001600160a01b0319166001600160a01b0383169081179091556009850154604051636e9bfd9f60e01b815260048101919091526000918291636e9bfd9f906024016040805180830381865afa158015611cff573d6000803e3d6000fd5b505050506040513d601f19601f82011682018060405250810190611d2391906141e2565b9150915080611dd05760058601546009870154604051631e5164ef60e21b815260048101919091523060248201526001600160a01b039091169063794593bc906044016020604051808303816000875af1158015611d85573d6000803e3d6000fd5b505050506040513d601f19601f82011682018060405250810190611da99190613d6b565b6007870180546001600160a01b0319166001600160a01b0392909216919091179055611dee565b6007860180546001600160a01b0319166001600160a01b0384161790555b6005860154600787015460038801546040516313ad9cab60e01b81526001600160a01b0392831660048201529082166024820152600160448201529116906313ad9cab90606401600060405180830381600087803b158015611e4f57600080fd5b505af1158015611e63573d6000803e3d6000fd5b50505050505050611e88565b6040516345f279ab60e01b815260040160405180910390fd5b7f4aa20127da97281124f6c5bf77f293274afb4745d8b41b9c40434f8e51ac7c818282604051611eb99291906142e2565b60405180910390a150505050565b6000611ed16123c8565b90506000611f358360400151600081518110611eef57611eef613dec565b6020026020010151604001518460400151600081518110611f1257611f12613dec565b6020026020010151602001516001600160a01b03166124f290919063ffffffff16565b600183015460405163044f27e360e41b8152600481018390529192506000916001600160a01b03909116906344f27e3090602401600060405180830381865afa158015611f86573d6000803e3d6000fd5b505050506040513d6000823e601f3d908101601f19168201604052611fae919081019061430b565b516000838152600a8501602052604090205490915060ff161580611fd957506001600160a01b038116155b15611ffa57600160405163fa5e5f7f60e01b81526004016106499190613d34565b8360c0015142101561202257600360405163fa5e5f7f60e01b81526004016106499190613d34565b6000828152600a840160205260409020805460ff19169055610d008383836123ec565b612050858585610b9c565b6001600160a01b0384163b15806120e75750604051630a85bd0160e11b808252906001600160a01b0386169063150b7a02906120989033908a90899089908990600401614422565b6020604051808303816000875af11580156120b7573d6000803e3d6000fd5b505050506040513d601f19601f820116820180604052508101906120db9190613dcf565b6001600160e01b031916145b6106d85760405162461bcd60e51b815260206004820152601060248201526f155394d0519157d49150d2541251539560821b6044820152606401610649565b6060600080612134846122a3565b60405163c87b56dd60e01b81526004810182905291935091506001600160a01b0383169063c87b56dd90602401600060405180830381865afa15801561217e573d6000803e3d6000fd5b505050506040513d6000823e601f3d908101601f191682016040526121a69190810190614461565b949350505050565b6121b66131a1565b6121cc336000356001600160e01b031916612862565b6121e85760405162461bcd60e51b815260040161064990613d88565b60006121f26123c8565b90506122118184602001358560600135866080013587604001356129fc565b9150612246818460200135604051806040016040528086815260200160006001600160401b038111156112e4576112e46136c2565b50919050565b60006122566123c8565b6001600160a01b039283166000908152600e919091016020526040902054909116919050565b60006122866123c8565b6000928352600f016020525060409020546001600160a01b031690565b60008060006122b06123c8565b6000948552600d016020908152604094859020855180870190965280546001600160a01b0316808752600190910154959091018590529492505050565b612303336000356001600160e01b031916612862565b61231f5760405162461bcd60e51b815260040161064990613d88565b600080546001600160a01b0319166001600160a01b0383169081178255604051909133917f8be0079c531659141344cd1fd0a4f28419497f9722a3daafe3b4186f6b6457e09190a350565b60601b6001600160601b03191690565b60006301ffc9a760e01b6001600160e01b0319831614806123ab57506380ac58cd60e01b6001600160e01b03198316145b806105a25750506001600160e01b031916635b5e139f60e01b1490565b7fd6569137fd08fe949c286f37fb9bd830d1299d041edc1069ea252b26b4db955190565b6000806123f8846122a3565b6000868152600d88016020526040812080546001600160a01b03191681556001015590925090506124288461290b565b604051635c46a7ef60e11b81523060048201526001600160a01b03848116602483015260448201839052608060648301526000608483015283169063b88d4fde9060a401600060405180830381600087803b15801561248657600080fd5b505af115801561249a573d6000803e3d6000fd5b50505050826001600160a01b0316826001600160a01b03167fef3539ded9c4dd21e2549099e61175b76a6090b26b0ea7bea4e25c9d8ab8b418836040516124e391815260200190565b60405180910390a35050505050565b6040516001600160601b0319606084901b1660208201526034810182905260009060540160408051601f1981840301815291905280516020909101209392505050565b8051604051606160f81b81526039820160f081811b60018401526f3d81600a3d39f33d3d3d3d363d3d376160801b600384015260028401901b601383018190526560373639366160d01b6015840152601b83015262013d7360e81b601d830152606085901b6020808401919091526c5af43d3d93803e603557fd5bf360981b60348401526000939260438401929186019084604182015b602082106125eb5783518152602093840193601f1990920191016125cc565b835160001960208490036101000a0119908116825260f088901b91830191825286846000f098506001600160a01b03891661263957604051631d7fde3160e31b815260040160405180910390fd5b505050505050505092915050565b6001600160a01b0382166126915760405162461bcd60e51b81526020600482015260116024820152701253959053125117d49150d25412515395607a1b6044820152606401610649565b60008181526000805160206146698339815191526020526040902054600080516020614689833981519152906001600160a01b0316156127045760405162461bcd60e51b815260206004820152600e60248201526d1053149150511657d3525395115160921b6044820152606401610649565b6001600160a01b03831660008181526003830160209081526040808320805460010190558583526002850190915280822080546001600160a01b0319168417905551849291907fddf252ad1be2c89b69c2b068fc378daa952ba7f163c4a11628f55a4df523b3ef908290a4505050565b6001600160a01b0383811660008181527ffc8793c2139a57fdc041f52e5a6e70e2c8f6402d67cb75321c29bc8c4ab736ae60209081526040808320805460001901905593861680835284832080546001019055858352600080516020614669833981519152825284832080546001600160a01b031990811683179091557ffc8793c2139a57fdc041f52e5a6e70e2c8f6402d67cb75321c29bc8c4ab736af90925284832080549092169091559251600080516020614689833981519152938593909290917fddf252ad1be2c89b69c2b068fc378daa952ba7f163c4a11628f55a4df523b3ef9190a450505050565b6001546000906001600160a01b031680158015906128ec575060405163b700961360e01b81526001600160a01b0382169063b7009613906128ab90879030908890600401614033565b602060405180830381865afa1580156128c8573d6000803e3d6000fd5b505050506040513d601f19601f820116820180604052508101906128ec9190613d4e565b806121a657506000546001600160a01b03858116911614949350505050565b60008181526000805160206146698339815191526020526040902054600080516020614689833981519152906001600160a01b03168061297a5760405162461bcd60e51b815260206004820152600a6024820152691393d517d3525395115160b21b6044820152606401610649565b6001600160a01b03811660008181526003840160209081526040808320805460001901905586835260028601825280832080546001600160a01b0319908116909155600487019092528083208054909216909155518592907fddf252ad1be2c89b69c2b068fc378daa952ba7f163c4a11628f55a4df523b3ef908390a4505050565b612a046131a1565b604080516001808252818301909252600091816020015b612a576040805160a08101909152806000815260200160006001600160a01b031681526020016000815260200160008152602001600081525090565b815260200190600190039081612a1b579050506000878152600d890160209081526040918290208251808401845281546001600160a01b0316815260019091015491810191909152815160a08101909252919250806002815260200182600001516001600160a01b031681526020018260200151815260200160018152602001600181525082600081518110612aef57612aef613dec565b602090810291909101810191909152600489810154835192840151604051630f84100560e21b81526001600160a01b0394851693810193909352602483015260448201899052606092839283929190911690633e10401490606401600060405180830381865afa925050508015612b8857506040513d6000823e601f3d908101601f19168201604052612b8591908101906144fb565b60015b15612c2d57815115612c2a576004808e015487516020890151604051630f84100560e21b81526001600160a01b03928316948101949094526024840152604483018d9052939650919450859285921690633e10401490606401600060405180830381865afa158015612bfe573d6000803e3d6000fd5b505050506040513d6000823e601f3d908101601f19168201604052612c2691908101906144fb565b9350505b50505b600080845111612c3e576002612c41565b60035b60ff166001600160401b03811115612c5b57612c5b6136c2565b604051908082528060200260200182016040528015612cbb57816020015b6040805160c08101825260008082526020808301829052928201819052606082018190526080820181905260a08201528252600019909201910181612c795790505b506040805160c08101909152909150806000815260200160006001600160a01b03168152602001600081526020018b81526020018a81526020018d600f0160008e815260200190815260200160002060009054906101000a90046001600160a01b03166001600160a01b031681525081600081518110612d3d57612d3d613dec565b60209081029190910101526040805160c081019091528060008152600060208201819052604082015260088e0154606090910190612d91908d9061ffff600160a01b8204811691600160b01b900416613183565b815260088e0154602090910190612dbe908c9061ffff600160a01b8204811691600160b01b900416613183565b815260088e01546001600160a01b0316602090910152815182906001908110612de957612de9613dec565b6020908102919091010152835115612eab576040805160c08101909152806000815260200160006001600160a01b031681526020016000815260200184600081518110612e3857612e38613dec565b6020026020010151815260200183600081518110612e5857612e58613dec565b6020026020010151815260200185600081518110612e7857612e78613dec565b60200260200101516001600160a01b031681525081600281518110612e9f57612e9f613dec565b60200260200101819052505b60408051610160810182523080825260208201529081018790526060810182905260808101600081526020014281526020018942612ee99190613eb9565b8152602081019c909c52434060408d01526009909c015460608c0152516080909a0199909952509798975050505050505050565b60098301548151610120015114612f4757604051634f38bef960e11b815260040160405180910390fd5b8051602001516001600160a01b03163014612f7557604051639d3c586b60e01b815260040160405180910390fd5b8051604001518051600090612f8c57612f8c613dec565b6020026020010151602001516001600160a01b031663095ea7b38460070160009054906101000a90046001600160a01b0316836000015160400151600081518110612fd957612fd9613dec565b6020026020010151604001516040518363ffffffff1660e01b81526004016130169291906001600160a01b03929092168252602082015260400190565b600060405180830381600087803b15801561303057600080fd5b505af1158015613044573d6000803e3d6000fd5b5060009250600191506130549050565b60405190808252806020026020018201604052801561308d57816020015b61307a61321e565b8152602001906001900390816130725790505b50905081816000815181106130a4576130a4613dec565b6020908102919091010152600384015460405163440a3b9960e11b81526001600160a01b03909116906388147732906130e19084906004016145ed565b6020604051808303816000875af1158015613100573d6000803e3d6000fd5b505050506040513d601f19601f820116820180604052508101906131249190613d4e565b507fc8cbd72919e48975a97a1ddde66fd8043eb9d4495c8d41aeccf83a96e45a1c6a838360405161315692919061464f565b60405180910390a1505160e001516000908152600a9092016020525060409020805460ff19166001179055565b600082600019048411830215820261319a57600080fd5b5091020490565b60405180610160016040528060006001600160a01b0316815260200160006001600160a01b031681526020016060815260200160608152602001600060038111156131ee576131ee613af9565b815260006020820181905260408201819052606082018190526080820181905260a0820181905260c09091015290565b60405180604001604052806132316131a1565b8152602001606081525090565b6001600160e01b03198116811461325457600080fd5b50565b60006020828403121561326957600080fd5b81356132748161323e565b9392505050565b6001600160a01b038116811461325457600080fd5b80356110178161327b565b600080604083850312156132ae57600080fd5b8235915060208301356132c08161327b565b809150509250929050565b6000602082840312156132dd57600080fd5b5035919050565b600080604083850312156132f757600080fd5b82356133028161327b565b946020939093013593505050565b6000806000806080858703121561332657600080fd5b8435935060208501356133388161327b565b925060408501356133488161327b565b9396929550929360600135925050565b60008083601f84011261336a57600080fd5b5081356001600160401b0381111561338157600080fd5b60208301915083602082850101111561339957600080fd5b9250929050565b6000806000806000608086880312156133b857600080fd5b85356133c38161327b565b945060208601356133d38161327b565b93506040860135925060608601356001600160401b038111156133f557600080fd5b61340188828901613358565b969995985093965092949392505050565b60008060006060848603121561342757600080fd5b83356134328161327b565b925060208401356134428161327b565b929592945050506040919091013590565b600060a0828403121561224657600080fd5b60008083601f84011261347757600080fd5b5081356001600160401b0381111561348e57600080fd5b6020830191508360208260051b850101111561339957600080fd5b600080600080600080600060a0888a0312156134c457600080fd5b8735965060208801356134d68161327b565b955060408801356001600160401b03808211156134f257600080fd5b6134fe8b838c01613453565b965060608a013591508082111561351457600080fd5b6135208b838c01613465565b909650945060808a013591508082111561353957600080fd5b506135468a828b01613465565b989b979a50959850939692959293505050565b6000806020838503121561356c57600080fd5b82356001600160401b0381111561358257600080fd5b61358e85828601613465565b90969095509350505050565b6000602082840312156135ac57600080fd5b81356132748161327b565b6000602082840312156135c957600080fd5b81356001600160401b038111156135df57600080fd5b82016060818503121561327457600080fd5b6000806000806060858703121561360757600080fd5b84356136128161327b565b93506020850135925060408501356001600160401b0381111561363457600080fd5b61364087828801613358565b95989497509550505050565b801515811461325457600080fd5b6000806040838503121561366d57600080fd5b82356136788161327b565b915060208301356132c08161364c565b60006020828403121561369a57600080fd5b81356001600160401b038111156136b057600080fd5b82016040818503121561327457600080fd5b634e487b7160e01b600052604160045260246000fd5b60405160a081016001600160401b03811182821017156136fa576136fa6136c2565b60405290565b60405160c081016001600160401b03811182821017156136fa576136fa6136c2565b60405161016081016001600160401b03811182821017156136fa576136fa6136c2565b604080519081016001600160401b03811182821017156136fa576136fa6136c2565b604051606081016001600160401b03811182821017156136fa576136fa6136c2565b604051601f8201601f191681016001600160401b03811182821017156137b1576137b16136c2565b604052919050565b60006001600160401b038211156137d2576137d26136c2565b5060051b60200190565b80356006811061101757600080fd5b600082601f8301126137fc57600080fd5b8135602061381161380c836137b9565b613789565b82815260a0928302850182019282820191908785111561383057600080fd5b8387015b8581101561389b5781818a03121561384c5760008081fd5b6138546136d8565b61385d826137dc565b81528582013561386c8161327b565b818701526040828101359082015260608083013590820152608080830135908201528452928401928101613834565b5090979650505050505050565b600082601f8301126138b957600080fd5b813560206138c961380c836137b9565b82815260c092830285018201928282019190878511156138e857600080fd5b8387015b8581101561389b5781818a0312156139045760008081fd5b61390c613700565b613915826137dc565b8152858201356139248161327b565b8187015260408281013590820152606080830135908201526080808301359082015260a0808301356139558161327b565b9082015284529284019281016138ec565b80356004811061101757600080fd5b60006020828403121561398757600080fd5b81356001600160401b038082111561399e57600080fd5b9083019061016082860312156139b357600080fd5b6139bb613722565b6139c483613290565b81526139d260208401613290565b60208201526040830135828111156139e957600080fd5b6139f5878286016137eb565b604083015250606083013582811115613a0d57600080fd5b613a19878286016138a8565b606083015250613a2b60808401613966565b608082015260a0838101359082015260c0808401359082015260e08084013590820152610100808401359082015261012080840135908201526101409283013592810192909252509392505050565b60005b83811015613a95578181015183820152602001613a7d565b50506000910152565b60008151808452613ab6816020860160208601613a7a565b601f01601f19169290920160200192915050565b6020815260006132746020830184613a9e565b600060a08284031215613aef57600080fd5b6132748383613453565b634e487b7160e01b600052602160045260246000fd5b60068110613b1f57613b1f613af9565b9052565b600081518084526020808501945080840160005b83811015613b8d578151613b4c888251613b0f565b838101516001600160a01b03168885015260408082015190890152606080820151908901526080908101519088015260a09096019590820190600101613b37565b509495945050505050565b600081518084526020808501945080840160005b83811015613b8d578151613bc1888251613b0f565b808401516001600160a01b0390811689860152604080830151908a0152606080830151908a0152608080830151908a015260a091820151169088015260c09096019590820190600101613bac565b60048110613b1f57613b1f613af9565b80516001600160a01b0316825260006101606020830151613c4b60208601826001600160a01b03169052565b506040830151816040860152613c6382860182613b23565b91505060608301518482036060860152613c7d8282613b98565b9150506080830151613c926080860182613c0f565b5060a0838101519085015260c0808401519085015260e08084015190850152610100808401519085015261012080840151908501526101409283015192909301919091525090565b6020815260006132746020830184613c1f565b60008060408385031215613d0057600080fd5b8235613d0b8161327b565b915060208301356132c08161327b565b600060208284031215613d2d57600080fd5b5051919050565b6020810160058310613d4857613d48613af9565b91905290565b600060208284031215613d6057600080fd5b81516132748161364c565b600060208284031215613d7d57600080fd5b81516132748161327b565b6020808252600c908201526b15539055551213d49256915160a21b604082015260600190565b6000823561015e19833603018112613dc557600080fd5b9190910192915050565b600060208284031215613de157600080fd5b81516132748161323e565b634e487b7160e01b600052603260045260246000fd5b60008235603e19833603018112613dc557600080fd5b634e487b7160e01b600052601160045260246000fd5b600060018201613e4057613e40613e18565b5060010190565b6000808335601e19843603018112613e5e57600080fd5b8301803591506001600160401b03821115613e7857600080fd5b60200191506101c08102360382131561339957600080fd5b600060208284031215613ea257600080fd5b813566ffffffffffffff8116811461327457600080fd5b808201808211156105a2576105a2613e18565b6affffffffffffffffffffff8116811461325457600080fd5b64ffffffffff8116811461325457600080fd5b8035613f0381613ecc565b6affffffffffffffffffffff168252602081013560ff8116808214613f2757600080fd5b6020840152506040810135613f3b81613ee5565b64ffffffffff9081166040840152606082013590613f5882613ee5565b166060830152608090810135910152565b6040808252818101849052600090606080840187845b8881101561401d578135613f928161327b565b6001600160a01b03908116845260209083820135613faf8161327b565b1690840152818501358584015283820135848401526080808301359084015260a0808301359084015260c0808301359084015260e080830135908401526101008083013590840152610120614008818501828501613ef8565b506101c0928301929190910190600101613f7f565b5050809350505050826020830152949350505050565b6001600160a01b0393841681529190921660208201526001600160e01b0319909116604082015260600190565b60006001600160401b03831115614079576140796136c2565b61408c601f8401601f1916602001613789565b90508281528383830111156140a057600080fd5b613274836020830184613a7a565b6000602082840312156140c057600080fd5b81516001600160401b038111156140d657600080fd5b8201601f810184136140e757600080fd5b6121a684825160208401614060565b81835281816020850137506000828201602090810191909152601f909101601f19169091010190565b60018060a01b03845116815260208401516020820152606060408201526000610b936060830184866140f6565b60006020828403121561415e57600080fd5b81356007811061327457600080fd5b6000808335601e1984360301811261418457600080fd5b8301803591506001600160401b0382111561419e57600080fd5b60200191503681900382131561339957600080fd5b600080604083850312156141c657600080fd5b82516141d18161327b565b60208401519092506132c08161327b565b600080604083850312156141f557600080fd5b82516142008161327b565b60208401519092506132c08161364c565b805161ffff8116811461101757600080fd5b60008060006060848603121561423857600080fd5b83516142438161327b565b925061425160208501614211565b915061425f60408501614211565b90509250925092565b600082601f83011261427957600080fd5b61327483835160208501614060565b60008060006060848603121561429d57600080fd5b83516001600160401b038111156142b357600080fd5b6142bf86828701614268565b9350506020840151915060408401516142d78161327b565b809150509250925092565b6000600784106142f4576142f4613af9565b838252604060208301526121a66040830184613a9e565b6000602080838503121561431e57600080fd5b82516001600160401b038082111561433557600080fd5b8185019150604080838803121561434b57600080fd5b614353613745565b835161435e8161327b565b8152838501518381111561437157600080fd5b80850194505087601f85011261438657600080fd5b8351925061439661380c846137b9565b8381526060938402850186019386820191908a8611156143b557600080fd5b958701955b8587101561440f5780878c0312156143d25760008081fd5b6143da613767565b87518152888801516143eb81613ecc565b818a0152878601516143fc81613ee5565b81870152835295860195918701916143ba565b5095820195909552979650505050505050565b6001600160a01b038681168252851660208201526040810184905260806060820181905260009061445690830184866140f6565b979650505050505050565b60006020828403121561447357600080fd5b81516001600160401b0381111561448957600080fd5b6121a684828501614268565b600082601f8301126144a657600080fd5b815160206144b661380c836137b9565b82815260059290921b840181019181810190868411156144d557600080fd5b8286015b848110156144f057805183529183019183016144d9565b509695505050505050565b6000806040838503121561450e57600080fd5b82516001600160401b038082111561452557600080fd5b818501915085601f83011261453957600080fd5b8151602061454961380c836137b9565b82815260059290921b8401810191818101908984111561456857600080fd5b948201945b8386101561458f5785516145808161327b565b8252948201949082019061456d565b918801519196509093505050808211156145a857600080fd5b506145b585828601614495565b9150509250929050565b60008151604084526145d46040850182613c1f565b905060208301518482036020860152610b938282613a9e565b6000602080830181845280855180835260408601915060408160051b870101925083870160005b8281101561464257603f198886030184526146308583516145bf565b94509285019290850190600101614614565b5092979650505050505050565b8281526040602082015260006121a660408301846145bf56fefc8793c2139a57fdc041f52e5a6e70e2c8f6402d67cb75321c29bc8c4ab736adfc8793c2139a57fdc041f52e5a6e70e2c8f6402d67cb75321c29bc8c4ab736aba26469706673582212202afa333b00702ff668e1401c8c0d23fcdbd79b9c21485fb43563472e277d953264736f6c63430008110033",
    "linkReferences": {}
  },
  "methodIdentifiers": {
    "SEAPORT()": "387b6629",
    "approve(address,uint256)": "095ea7b3",
    "auctionVault((address,uint256,uint256,uint256,uint256))": "d163259a",
    "authority()": "bf7e214f",
    "balanceOf(address)": "70a08231",
    "file((uint8,bytes))": "b05e52fd",
    "fileBatch((uint8,bytes)[])": "609a8b8c",
    "flashAction(address,uint256,bytes)": "88803a9f",
    "getApproved(uint256)": "081812fc",
    "getClearingHouse(uint256)": "db067b43",
    "getConduit()": "84eafda0",
    "getConduitKey()": "6080d710",
    "getOpenSeaData()": "9ce9d319",
    "getUnderlying(uint256)": "e71d541e",
    "isApprovedForAll(address,address)": "e985e9c5",
    "isValidOrder(bytes32,address,address,bytes32)": "0e1d31dc",
    "isValidOrderIncludingExtraData(bytes32,address,((address,address,(uint8,address,uint256,uint256,uint256)[],(uint8,address,uint256,uint256,uint256,address)[],uint8,uint256,uint256,bytes32,uint256,bytes32,uint256),uint120,uint120,bytes,bytes),bytes32[],(uint256,uint8,uint256,uint256,bytes32[])[])": "33131570",
    "liquidatorNFTClaim((address,address,(uint8,address,uint256,uint256,uint256)[],(uint8,address,uint256,uint256,uint256,address)[],uint8,uint256,uint256,bytes32,uint256,bytes32,uint256))": "b58e1c35",
    "listForSaleOnSeaport((((address,address,bytes32,uint256,(uint256,uint256,uint256,uint256,uint256)),(uint88,uint8,uint40,uint40,uint256))[],uint256,uint56))": "7202c848",
    "onERC721Received(address,address,uint256,bytes)": "150b7a02",
    "owner()": "8da5cb5b",
    "ownerOf(uint256)": "6352211e",
    "releaseToAddress(uint256,address)": "0330e35b",
    "safeTransferFrom(address,address,uint256)": "42842e0e",
    "safeTransferFrom(address,address,uint256,bytes)": "b88d4fde",
    "securityHooks(address)": "d68265c3",
    "setApprovalForAll(address,bool)": "a22cb465",
    "setAuthority(address)": "7a9e5e4b",
    "settleAuction(uint256)": "2e993611",
    "supportsInterface(bytes4)": "01ffc9a7",
    "tokenURI(uint256)": "c87b56dd",
    "transferFrom(address,address,uint256)": "23b872dd",
    "transferOwnership(address)": "f2fde38b"
  },
  "id": 132
}