{
  "abi": [
    {
      "inputs": [],
      "stateMutability": "nonpayable",
      "type": "constructor"
    },
    {
      "inputs": [],
      "name": "CreateFail",
      "type": "error"
    },
    {
      "inputs": [],
      "name": "FlashActionCallbackFailed",
      "type": "error"
    },
    {
      "inputs": [],
      "name": "FlashActionNFTNotReturned",
      "type": "error"
    },
    {
      "inputs": [],
      "name": "FlashActionSecurityCheckFailed",
      "type": "error"
    },
    {
      "inputs": [],
      "name": "InvalidCollateral",
      "type": "error"
    },
    {
      "inputs": [
        {
          "internalType": "enum ICollateralToken.InvalidCollateralStates",
          "name": "",
          "type": "uint8"
        }
      ],
      "name": "InvalidCollateralState",
      "type": "error"
    },
    {
      "inputs": [],
      "name": "InvalidConduitKey",
      "type": "error"
    },
    {
      "inputs": [],
      "name": "InvalidSender",
      "type": "error"
    },
    {
      "inputs": [],
      "name": "InvalidZone",
      "type": "error"
    },
    {
      "inputs": [],
      "name": "ListPriceTooLow",
      "type": "error"
    },
    {
      "inputs": [],
      "name": "ProtocolPaused",
      "type": "error"
    },
    {
      "inputs": [],
      "name": "UnsupportedFile",
      "type": "error"
    },
    {
      "anonymous": false,
      "inputs": [
        {
          "indexed": true,
          "internalType": "address",
          "name": "owner",
          "type": "address"
        },
        {
          "indexed": true,
          "internalType": "address",
          "name": "spender",
          "type": "address"
        },
        {
          "indexed": true,
          "internalType": "uint256",
          "name": "id",
          "type": "uint256"
        }
      ],
      "name": "Approval",
      "type": "event"
    },
    {
      "anonymous": false,
      "inputs": [
        {
          "indexed": true,
          "internalType": "address",
          "name": "owner",
          "type": "address"
        },
        {
          "indexed": true,
          "internalType": "address",
          "name": "operator",
          "type": "address"
        },
        {
          "indexed": false,
          "internalType": "bool",
          "name": "approved",
          "type": "bool"
        }
      ],
      "name": "ApprovalForAll",
      "type": "event"
    },
    {
      "anonymous": false,
      "inputs": [
        {
          "indexed": true,
          "internalType": "address",
          "name": "user",
          "type": "address"
        },
        {
          "indexed": true,
          "internalType": "contract Authority",
          "name": "newAuthority",
          "type": "address"
        }
      ],
      "name": "AuthorityUpdated",
      "type": "event"
    },
    {
      "anonymous": false,
      "inputs": [
        {
          "indexed": true,
          "internalType": "address",
          "name": "tokenContract",
          "type": "address"
        },
        {
          "indexed": true,
          "internalType": "uint256",
          "name": "tokenId",
          "type": "uint256"
        },
        {
          "indexed": true,
          "internalType": "uint256",
          "name": "collateralId",
          "type": "uint256"
        },
        {
          "indexed": false,
          "internalType": "address",
          "name": "depositedFor",
          "type": "address"
        }
      ],
      "name": "Deposit721",
      "type": "event"
    },
    {
      "anonymous": false,
      "inputs": [
        {
          "indexed": false,
          "internalType": "enum ICollateralToken.FileType",
          "name": "what",
          "type": "uint8"
        },
        {
          "indexed": false,
          "internalType": "bytes",
          "name": "data",
          "type": "bytes"
        }
      ],
      "name": "FileUpdated",
      "type": "event"
    },
    {
      "anonymous": false,
      "inputs": [
        {
          "indexed": false,
          "internalType": "uint8",
          "name": "version",
          "type": "uint8"
        }
      ],
      "name": "Initialized",
      "type": "event"
    },
    {
      "anonymous": false,
      "inputs": [
        {
          "indexed": false,
          "internalType": "uint256",
          "name": "collateralId",
          "type": "uint256"
        },
        {
          "components": [
            {
              "components": [
                {
                  "internalType": "address",
                  "name": "offerer",
                  "type": "address"
                },
                {
                  "internalType": "address",
                  "name": "zone",
                  "type": "address"
                },
                {
                  "components": [
                    {
                      "internalType": "enum ItemType",
                      "name": "itemType",
                      "type": "uint8"
                    },
                    {
                      "internalType": "address",
                      "name": "token",
                      "type": "address"
                    },
                    {
                      "internalType": "uint256",
                      "name": "identifierOrCriteria",
                      "type": "uint256"
                    },
                    {
                      "internalType": "uint256",
                      "name": "startAmount",
                      "type": "uint256"
                    },
                    {
                      "internalType": "uint256",
                      "name": "endAmount",
                      "type": "uint256"
                    }
                  ],
                  "internalType": "struct OfferItem[]",
                  "name": "offer",
                  "type": "tuple[]"
                },
                {
                  "components": [
                    {
                      "internalType": "enum ItemType",
                      "name": "itemType",
                      "type": "uint8"
                    },
                    {
                      "internalType": "address",
                      "name": "token",
                      "type": "address"
                    },
                    {
                      "internalType": "uint256",
                      "name": "identifierOrCriteria",
                      "type": "uint256"
                    },
                    {
                      "internalType": "uint256",
                      "name": "startAmount",
                      "type": "uint256"
                    },
                    {
                      "internalType": "uint256",
                      "name": "endAmount",
                      "type": "uint256"
                    },
                    {
                      "internalType": "address payable",
                      "name": "recipient",
                      "type": "address"
                    }
                  ],
                  "internalType": "struct ConsiderationItem[]",
                  "name": "consideration",
                  "type": "tuple[]"
                },
                {
                  "internalType": "enum OrderType",
                  "name": "orderType",
                  "type": "uint8"
                },
                {
                  "internalType": "uint256",
                  "name": "startTime",
                  "type": "uint256"
                },
                {
                  "internalType": "uint256",
                  "name": "endTime",
                  "type": "uint256"
                },
                {
                  "internalType": "bytes32",
                  "name": "zoneHash",
                  "type": "bytes32"
                },
                {
                  "internalType": "uint256",
                  "name": "salt",
                  "type": "uint256"
                },
                {
                  "internalType": "bytes32",
                  "name": "conduitKey",
                  "type": "bytes32"
                },
                {
                  "internalType": "uint256",
                  "name": "totalOriginalConsiderationItems",
                  "type": "uint256"
                }
              ],
              "internalType": "struct OrderParameters",
              "name": "parameters",
              "type": "tuple"
            },
            {
              "internalType": "bytes",
              "name": "signature",
              "type": "bytes"
            }
          ],
          "indexed": false,
          "internalType": "struct Order",
          "name": "listingOrder",
          "type": "tuple"
        }
      ],
      "name": "ListedOnSeaport",
      "type": "event"
    },
    {
      "anonymous": false,
      "inputs": [
        {
          "indexed": true,
          "internalType": "address",
          "name": "user",
          "type": "address"
        },
        {
          "indexed": true,
          "internalType": "address",
          "name": "newOwner",
          "type": "address"
        }
      ],
      "name": "OwnershipTransferred",
      "type": "event"
    },
    {
      "anonymous": false,
      "inputs": [
        {
          "indexed": true,
          "internalType": "address",
          "name": "underlyingAsset",
          "type": "address"
        },
        {
          "indexed": false,
          "internalType": "uint256",
          "name": "assetId",
          "type": "uint256"
        },
        {
          "indexed": true,
          "internalType": "address",
          "name": "to",
          "type": "address"
        }
      ],
      "name": "ReleaseTo",
      "type": "event"
    },
    {
      "anonymous": false,
      "inputs": [
        {
          "indexed": true,
          "internalType": "address",
          "name": "from",
          "type": "address"
        },
        {
          "indexed": true,
          "internalType": "address",
          "name": "to",
          "type": "address"
        },
        {
          "indexed": true,
          "internalType": "uint256",
          "name": "id",
          "type": "uint256"
        }
      ],
      "name": "Transfer",
      "type": "event"
    },
    {
      "inputs": [],
      "name": "SEAPORT",
      "outputs": [
        {
          "internalType": "contract ConsiderationInterface",
          "name": "",
          "type": "address"
        }
      ],
      "stateMutability": "view",
      "type": "function"
    },
    {
      "inputs": [
        {
          "internalType": "address",
          "name": "spender",
          "type": "address"
        },
        {
          "internalType": "uint256",
          "name": "id",
          "type": "uint256"
        }
      ],
      "name": "approve",
      "outputs": [],
      "stateMutability": "nonpayable",
      "type": "function"
    },
    {
      "inputs": [
        {
          "components": [
            {
              "internalType": "address",
              "name": "settlementToken",
              "type": "address"
            },
            {
              "internalType": "uint256",
              "name": "collateralId",
              "type": "uint256"
            },
            {
              "internalType": "uint256",
              "name": "maxDuration",
              "type": "uint256"
            },
            {
              "internalType": "uint256",
              "name": "startingPrice",
              "type": "uint256"
            },
            {
              "internalType": "uint256",
              "name": "endingPrice",
              "type": "uint256"
            }
          ],
          "internalType": "struct ICollateralToken.AuctionVaultParams",
          "name": "params",
          "type": "tuple"
        }
      ],
      "name": "auctionVault",
      "outputs": [
        {
          "components": [
            {
              "internalType": "address",
              "name": "offerer",
              "type": "address"
            },
            {
              "internalType": "address",
              "name": "zone",
              "type": "address"
            },
            {
              "components": [
                {
                  "internalType": "enum ItemType",
                  "name": "itemType",
                  "type": "uint8"
                },
                {
                  "internalType": "address",
                  "name": "token",
                  "type": "address"
                },
                {
                  "internalType": "uint256",
                  "name": "identifierOrCriteria",
                  "type": "uint256"
                },
                {
                  "internalType": "uint256",
                  "name": "startAmount",
                  "type": "uint256"
                },
                {
                  "internalType": "uint256",
                  "name": "endAmount",
                  "type": "uint256"
                }
              ],
              "internalType": "struct OfferItem[]",
              "name": "offer",
              "type": "tuple[]"
            },
            {
              "components": [
                {
                  "internalType": "enum ItemType",
                  "name": "itemType",
                  "type": "uint8"
                },
                {
                  "internalType": "address",
                  "name": "token",
                  "type": "address"
                },
                {
                  "internalType": "uint256",
                  "name": "identifierOrCriteria",
                  "type": "uint256"
                },
                {
                  "internalType": "uint256",
                  "name": "startAmount",
                  "type": "uint256"
                },
                {
                  "internalType": "uint256",
                  "name": "endAmount",
                  "type": "uint256"
                },
                {
                  "internalType": "address payable",
                  "name": "recipient",
                  "type": "address"
                }
              ],
              "internalType": "struct ConsiderationItem[]",
              "name": "consideration",
              "type": "tuple[]"
            },
            {
              "internalType": "enum OrderType",
              "name": "orderType",
              "type": "uint8"
            },
            {
              "internalType": "uint256",
              "name": "startTime",
              "type": "uint256"
            },
            {
              "internalType": "uint256",
              "name": "endTime",
              "type": "uint256"
            },
            {
              "internalType": "bytes32",
              "name": "zoneHash",
              "type": "bytes32"
            },
            {
              "internalType": "uint256",
              "name": "salt",
              "type": "uint256"
            },
            {
              "internalType": "bytes32",
              "name": "conduitKey",
              "type": "bytes32"
            },
            {
              "internalType": "uint256",
              "name": "totalOriginalConsiderationItems",
              "type": "uint256"
            }
          ],
          "internalType": "struct OrderParameters",
          "name": "orderParameters",
          "type": "tuple"
        }
      ],
      "stateMutability": "nonpayable",
      "type": "function"
    },
    {
      "inputs": [],
      "name": "authority",
      "outputs": [
        {
          "internalType": "contract Authority",
          "name": "",
          "type": "address"
        }
      ],
      "stateMutability": "view",
      "type": "function"
    },
    {
      "inputs": [
        {
          "internalType": "address",
          "name": "owner",
          "type": "address"
        }
      ],
      "name": "balanceOf",
      "outputs": [
        {
          "internalType": "uint256",
          "name": "",
          "type": "uint256"
        }
      ],
      "stateMutability": "view",
      "type": "function"
    },
    {
      "inputs": [
        {
          "components": [
            {
              "internalType": "enum ICollateralToken.FileType",
              "name": "what",
              "type": "uint8"
            },
            {
              "internalType": "bytes",
              "name": "data",
              "type": "bytes"
            }
          ],
          "internalType": "struct ICollateralToken.File",
          "name": "incoming",
          "type": "tuple"
        }
      ],
      "name": "file",
      "outputs": [],
      "stateMutability": "nonpayable",
      "type": "function"
    },
    {
      "inputs": [
        {
          "components": [
            {
              "internalType": "enum ICollateralToken.FileType",
              "name": "what",
              "type": "uint8"
            },
            {
              "internalType": "bytes",
              "name": "data",
              "type": "bytes"
            }
          ],
          "internalType": "struct ICollateralToken.File[]",
          "name": "files",
          "type": "tuple[]"
        }
      ],
      "name": "fileBatch",
      "outputs": [],
      "stateMutability": "nonpayable",
      "type": "function"
    },
    {
      "inputs": [
        {
          "internalType": "contract IFlashAction",
          "name": "receiver",
          "type": "address"
        },
        {
          "internalType": "uint256",
          "name": "collateralId",
          "type": "uint256"
        },
        {
          "internalType": "bytes",
          "name": "data",
          "type": "bytes"
        }
      ],
      "name": "flashAction",
      "outputs": [],
      "stateMutability": "nonpayable",
      "type": "function"
    },
    {
      "inputs": [
        {
          "internalType": "uint256",
          "name": "tokenId",
          "type": "uint256"
        }
      ],
      "name": "getApproved",
      "outputs": [
        {
          "internalType": "address",
          "name": "",
          "type": "address"
        }
      ],
      "stateMutability": "view",
      "type": "function"
    },
    {
      "inputs": [
        {
          "internalType": "uint256",
          "name": "collateralId",
          "type": "uint256"
        }
      ],
      "name": "getClearingHouse",
      "outputs": [
        {
          "internalType": "contract ClearingHouse",
          "name": "",
          "type": "address"
        }
      ],
      "stateMutability": "view",
      "type": "function"
    },
    {
      "inputs": [],
      "name": "getConduit",
      "outputs": [
        {
          "internalType": "address",
          "name": "",
          "type": "address"
        }
      ],
      "stateMutability": "view",
      "type": "function"
    },
    {
      "inputs": [],
      "name": "getConduitKey",
      "outputs": [
        {
          "internalType": "bytes32",
          "name": "",
          "type": "bytes32"
        }
      ],
      "stateMutability": "view",
      "type": "function"
    },
    {
      "inputs": [
        {
          "internalType": "uint256",
          "name": "collateralId",
          "type": "uint256"
        }
      ],
      "name": "getUnderlying",
      "outputs": [
        {
          "internalType": "address",
          "name": "",
          "type": "address"
        },
        {
          "internalType": "uint256",
          "name": "",
          "type": "uint256"
        }
      ],
      "stateMutability": "view",
      "type": "function"
    },
    {
      "inputs": [
        {
          "internalType": "contract Authority",
          "name": "AUTHORITY_",
          "type": "address"
        },
        {
          "internalType": "contract ITransferProxy",
          "name": "TRANSFER_PROXY_",
          "type": "address"
        },
        {
          "internalType": "contract ILienToken",
          "name": "LIEN_TOKEN_",
          "type": "address"
        },
        {
          "internalType": "contract ConsiderationInterface",
          "name": "SEAPORT_",
          "type": "address"
        }
      ],
      "name": "initialize",
      "outputs": [],
      "stateMutability": "nonpayable",
      "type": "function"
    },
    {
      "inputs": [
        {
          "internalType": "address",
          "name": "owner",
          "type": "address"
        },
        {
          "internalType": "address",
          "name": "operator",
          "type": "address"
        }
      ],
      "name": "isApprovedForAll",
      "outputs": [
        {
          "internalType": "bool",
          "name": "",
          "type": "bool"
        }
      ],
      "stateMutability": "view",
      "type": "function"
    },
    {
      "inputs": [
        {
          "internalType": "bytes32",
          "name": "orderHash",
          "type": "bytes32"
        },
        {
          "internalType": "address",
          "name": "caller",
          "type": "address"
        },
        {
          "internalType": "address",
          "name": "offerer",
          "type": "address"
        },
        {
          "internalType": "bytes32",
          "name": "zoneHash",
          "type": "bytes32"
        }
      ],
      "name": "isValidOrder",
      "outputs": [
        {
          "internalType": "bytes4",
          "name": "validOrderMagicValue",
          "type": "bytes4"
        }
      ],
      "stateMutability": "view",
      "type": "function"
    },
    {
      "inputs": [
        {
          "internalType": "bytes32",
          "name": "orderHash",
          "type": "bytes32"
        },
        {
          "internalType": "address",
          "name": "caller",
          "type": "address"
        },
        {
          "components": [
            {
              "components": [
                {
                  "internalType": "address",
                  "name": "offerer",
                  "type": "address"
                },
                {
                  "internalType": "address",
                  "name": "zone",
                  "type": "address"
                },
                {
                  "components": [
                    {
                      "internalType": "enum ItemType",
                      "name": "itemType",
                      "type": "uint8"
                    },
                    {
                      "internalType": "address",
                      "name": "token",
                      "type": "address"
                    },
                    {
                      "internalType": "uint256",
                      "name": "identifierOrCriteria",
                      "type": "uint256"
                    },
                    {
                      "internalType": "uint256",
                      "name": "startAmount",
                      "type": "uint256"
                    },
                    {
                      "internalType": "uint256",
                      "name": "endAmount",
                      "type": "uint256"
                    }
                  ],
                  "internalType": "struct OfferItem[]",
                  "name": "offer",
                  "type": "tuple[]"
                },
                {
                  "components": [
                    {
                      "internalType": "enum ItemType",
                      "name": "itemType",
                      "type": "uint8"
                    },
                    {
                      "internalType": "address",
                      "name": "token",
                      "type": "address"
                    },
                    {
                      "internalType": "uint256",
                      "name": "identifierOrCriteria",
                      "type": "uint256"
                    },
                    {
                      "internalType": "uint256",
                      "name": "startAmount",
                      "type": "uint256"
                    },
                    {
                      "internalType": "uint256",
                      "name": "endAmount",
                      "type": "uint256"
                    },
                    {
                      "internalType": "address payable",
                      "name": "recipient",
                      "type": "address"
                    }
                  ],
                  "internalType": "struct ConsiderationItem[]",
                  "name": "consideration",
                  "type": "tuple[]"
                },
                {
                  "internalType": "enum OrderType",
                  "name": "orderType",
                  "type": "uint8"
                },
                {
                  "internalType": "uint256",
                  "name": "startTime",
                  "type": "uint256"
                },
                {
                  "internalType": "uint256",
                  "name": "endTime",
                  "type": "uint256"
                },
                {
                  "internalType": "bytes32",
                  "name": "zoneHash",
                  "type": "bytes32"
                },
                {
                  "internalType": "uint256",
                  "name": "salt",
                  "type": "uint256"
                },
                {
                  "internalType": "bytes32",
                  "name": "conduitKey",
                  "type": "bytes32"
                },
                {
                  "internalType": "uint256",
                  "name": "totalOriginalConsiderationItems",
                  "type": "uint256"
                }
              ],
              "internalType": "struct OrderParameters",
              "name": "parameters",
              "type": "tuple"
            },
            {
              "internalType": "uint120",
              "name": "numerator",
              "type": "uint120"
            },
            {
              "internalType": "uint120",
              "name": "denominator",
              "type": "uint120"
            },
            {
              "internalType": "bytes",
              "name": "signature",
              "type": "bytes"
            },
            {
              "internalType": "bytes",
              "name": "extraData",
              "type": "bytes"
            }
          ],
          "internalType": "struct AdvancedOrder",
          "name": "order",
          "type": "tuple"
        },
        {
          "internalType": "bytes32[]",
          "name": "priorOrderHashes",
          "type": "bytes32[]"
        },
        {
          "components": [
            {
              "internalType": "uint256",
              "name": "orderIndex",
              "type": "uint256"
            },
            {
              "internalType": "enum Side",
              "name": "side",
              "type": "uint8"
            },
            {
              "internalType": "uint256",
              "name": "index",
              "type": "uint256"
            },
            {
              "internalType": "uint256",
              "name": "identifier",
              "type": "uint256"
            },
            {
              "internalType": "bytes32[]",
              "name": "criteriaProof",
              "type": "bytes32[]"
            }
          ],
          "internalType": "struct CriteriaResolver[]",
          "name": "criteriaResolvers",
          "type": "tuple[]"
        }
      ],
      "name": "isValidOrderIncludingExtraData",
      "outputs": [
        {
          "internalType": "bytes4",
          "name": "validOrderMagicValue",
          "type": "bytes4"
        }
      ],
      "stateMutability": "view",
      "type": "function"
    },
    {
      "inputs": [
        {
          "components": [
            {
              "internalType": "address",
              "name": "offerer",
              "type": "address"
            },
            {
              "internalType": "address",
              "name": "zone",
              "type": "address"
            },
            {
              "components": [
                {
                  "internalType": "enum ItemType",
                  "name": "itemType",
                  "type": "uint8"
                },
                {
                  "internalType": "address",
                  "name": "token",
                  "type": "address"
                },
                {
                  "internalType": "uint256",
                  "name": "identifierOrCriteria",
                  "type": "uint256"
                },
                {
                  "internalType": "uint256",
                  "name": "startAmount",
                  "type": "uint256"
                },
                {
                  "internalType": "uint256",
                  "name": "endAmount",
                  "type": "uint256"
                }
              ],
              "internalType": "struct OfferItem[]",
              "name": "offer",
              "type": "tuple[]"
            },
            {
              "components": [
                {
                  "internalType": "enum ItemType",
                  "name": "itemType",
                  "type": "uint8"
                },
                {
                  "internalType": "address",
                  "name": "token",
                  "type": "address"
                },
                {
                  "internalType": "uint256",
                  "name": "identifierOrCriteria",
                  "type": "uint256"
                },
                {
                  "internalType": "uint256",
                  "name": "startAmount",
                  "type": "uint256"
                },
                {
                  "internalType": "uint256",
                  "name": "endAmount",
                  "type": "uint256"
                },
                {
                  "internalType": "address payable",
                  "name": "recipient",
                  "type": "address"
                }
              ],
              "internalType": "struct ConsiderationItem[]",
              "name": "consideration",
              "type": "tuple[]"
            },
            {
              "internalType": "enum OrderType",
              "name": "orderType",
              "type": "uint8"
            },
            {
              "internalType": "uint256",
              "name": "startTime",
              "type": "uint256"
            },
            {
              "internalType": "uint256",
              "name": "endTime",
              "type": "uint256"
            },
            {
              "internalType": "bytes32",
              "name": "zoneHash",
              "type": "bytes32"
            },
            {
              "internalType": "uint256",
              "name": "salt",
              "type": "uint256"
            },
            {
              "internalType": "bytes32",
              "name": "conduitKey",
              "type": "bytes32"
            },
            {
              "internalType": "uint256",
              "name": "totalOriginalConsiderationItems",
              "type": "uint256"
            }
          ],
          "internalType": "struct OrderParameters",
          "name": "params",
          "type": "tuple"
        }
      ],
      "name": "liquidatorNFTClaim",
      "outputs": [],
      "stateMutability": "nonpayable",
      "type": "function"
    },
    {
      "inputs": [],
      "name": "name",
      "outputs": [
        {
          "internalType": "string",
          "name": "",
          "type": "string"
        }
      ],
      "stateMutability": "view",
      "type": "function"
    },
    {
      "inputs": [
        {
          "internalType": "address",
          "name": "",
          "type": "address"
        },
        {
          "internalType": "address",
          "name": "from_",
          "type": "address"
        },
        {
          "internalType": "uint256",
          "name": "tokenId_",
          "type": "uint256"
        },
        {
          "internalType": "bytes",
          "name": "",
          "type": "bytes"
        }
      ],
      "name": "onERC721Received",
      "outputs": [
        {
          "internalType": "bytes4",
          "name": "",
          "type": "bytes4"
        }
      ],
      "stateMutability": "nonpayable",
      "type": "function"
    },
    {
      "inputs": [],
      "name": "owner",
      "outputs": [
        {
          "internalType": "address",
          "name": "",
          "type": "address"
        }
      ],
      "stateMutability": "view",
      "type": "function"
    },
    {
      "inputs": [
        {
          "internalType": "uint256",
          "name": "id",
          "type": "uint256"
        }
      ],
      "name": "ownerOf",
      "outputs": [
        {
          "internalType": "address",
          "name": "owner",
          "type": "address"
        }
      ],
      "stateMutability": "view",
      "type": "function"
    },
    {
      "inputs": [
        {
          "internalType": "uint256",
          "name": "collateralId",
          "type": "uint256"
        },
        {
          "internalType": "address",
          "name": "releaseTo",
          "type": "address"
        }
      ],
      "name": "releaseToAddress",
      "outputs": [],
      "stateMutability": "nonpayable",
      "type": "function"
    },
    {
      "inputs": [
        {
          "internalType": "address",
          "name": "from",
          "type": "address"
        },
        {
          "internalType": "address",
          "name": "to",
          "type": "address"
        },
        {
          "internalType": "uint256",
          "name": "id",
          "type": "uint256"
        }
      ],
      "name": "safeTransferFrom",
      "outputs": [],
      "stateMutability": "nonpayable",
      "type": "function"
    },
    {
      "inputs": [
        {
          "internalType": "address",
          "name": "from",
          "type": "address"
        },
        {
          "internalType": "address",
          "name": "to",
          "type": "address"
        },
        {
          "internalType": "uint256",
          "name": "id",
          "type": "uint256"
        },
        {
          "internalType": "bytes",
          "name": "data",
          "type": "bytes"
        }
      ],
      "name": "safeTransferFrom",
      "outputs": [],
      "stateMutability": "nonpayable",
      "type": "function"
    },
    {
      "inputs": [
        {
          "internalType": "address",
          "name": "target",
          "type": "address"
        }
      ],
      "name": "securityHooks",
      "outputs": [
        {
          "internalType": "address",
          "name": "",
          "type": "address"
        }
      ],
      "stateMutability": "view",
      "type": "function"
    },
    {
      "inputs": [
        {
          "internalType": "address",
          "name": "operator",
          "type": "address"
        },
        {
          "internalType": "bool",
          "name": "approved",
          "type": "bool"
        }
      ],
      "name": "setApprovalForAll",
      "outputs": [],
      "stateMutability": "nonpayable",
      "type": "function"
    },
    {
      "inputs": [
        {
          "internalType": "contract Authority",
          "name": "newAuthority",
          "type": "address"
        }
      ],
      "name": "setAuthority",
      "outputs": [],
      "stateMutability": "nonpayable",
      "type": "function"
    },
    {
      "inputs": [
        {
          "internalType": "uint256",
          "name": "collateralId",
          "type": "uint256"
        }
      ],
      "name": "settleAuction",
      "outputs": [],
      "stateMutability": "nonpayable",
      "type": "function"
    },
    {
      "inputs": [
        {
          "internalType": "bytes4",
          "name": "interfaceId",
          "type": "bytes4"
        }
      ],
      "name": "supportsInterface",
      "outputs": [
        {
          "internalType": "bool",
          "name": "",
          "type": "bool"
        }
      ],
      "stateMutability": "view",
      "type": "function"
    },
    {
      "inputs": [],
      "name": "symbol",
      "outputs": [
        {
          "internalType": "string",
          "name": "",
          "type": "string"
        }
      ],
      "stateMutability": "view",
      "type": "function"
    },
    {
      "inputs": [
        {
          "internalType": "uint256",
          "name": "collateralId",
          "type": "uint256"
        }
      ],
      "name": "tokenURI",
      "outputs": [
        {
          "internalType": "string",
          "name": "",
          "type": "string"
        }
      ],
      "stateMutability": "view",
      "type": "function"
    },
    {
      "inputs": [
        {
          "internalType": "address",
          "name": "from",
          "type": "address"
        },
        {
          "internalType": "address",
          "name": "to",
          "type": "address"
        },
        {
          "internalType": "uint256",
          "name": "id",
          "type": "uint256"
        }
      ],
      "name": "transferFrom",
      "outputs": [],
      "stateMutability": "nonpayable",
      "type": "function"
    },
    {
      "inputs": [
        {
          "internalType": "address",
          "name": "newOwner",
          "type": "address"
        }
      ],
      "name": "transferOwnership",
      "outputs": [],
      "stateMutability": "nonpayable",
      "type": "function"
    }
  ],
  "bytecode": {
    "object": "0x60806040523480156200001157600080fd5b506200001c62000022565b62000147565b60006200002e620000ef565b8054909150610100900460ff16156200009d5760405162461bcd60e51b815260206004820152602760248201527f496e697469616c697a61626c653a20636f6e747261637420697320696e697469604482015266616c697a696e6760c81b606482015260840160405180910390fd5b805460ff9081161015620000ec57805460ff191660ff90811782556040519081527f7f26b83ff96e1f2b6a682f133852f6798a09c465da95921460cefb38474024989060200160405180910390a15b50565b6000806200011f60017fe54d104cc32597338d9a7867d41ca0c8fb6144529e0565413f4b3671fc57878562000125565b92915050565b818103818111156200011f57634e487b7160e01b600052601160045260246000fd5b6143df80620001576000396000f3fe608060405234801561001057600080fd5b50600436106102065760003560e01c806384eafda01161011a578063bf7e214f116100ad578063db067b431161007c578063db067b4314610455578063e71d541e14610468578063e985e9c51461049a578063f2fde38b146104ad578063f8c8765e146104c057600080fd5b8063bf7e214f14610407578063c87b56dd1461040f578063d163259a14610422578063d68265c31461044257600080fd5b8063a22cb465116100e9578063a22cb465146103bb578063b05e52fd146103ce578063b58e1c35146103e1578063b88d4fde146103f457600080fd5b806384eafda01461039057806388803a9f146103985780638da5cb5b146103ab57806395d89b41146103b357600080fd5b80632e9936111161019d5780636080d7101161016c5780636080d7101461032e578063609a8b8c146103445780636352211e1461035757806370a082311461036a5780637a9e5e4b1461037d57600080fd5b80632e993611146102ed5780633313157014610300578063387b66291461031357806342842e0e1461031b57600080fd5b8063095ea7b3116101d9578063095ea7b3146102885780630e1d31dc1461029b578063150b7a02146102c757806323b872dd146102da57600080fd5b806301ffc9a71461020b5780630330e35b1461023357806306fdde0314610248578063081812fc1461025d575b600080fd5b61021e610219366004613382565b6104d3565b60405190151581526020015b60405180910390f35b6102466102413660046133c6565b6104fe565b005b6102506106b6565b60405161022a9190613446565b61027061026b366004613459565b61074e565b6040516001600160a01b03909116815260200161022a565b610246610296366004613472565b610775565b6102ae6102a936600461349e565b61086b565b6040516001600160e01b0319909116815260200161022a565b6102ae6102d536600461352e565b6108b1565b6102466102e83660046135a0565b610c93565b6102466102fb366004613459565b610def565b6102ae61030e36600461363d565b610f3b565b610270610f98565b6102466103293660046135a0565b610fb4565b6103366110ac565b60405190815260200161022a565b6102466103523660046136ed565b6110c1565b610270610365366004613459565b611132565b61033661037836600461372e565b61119b565b61024661038b36600461372e565b61120c565b610270611307565b6102466103a636600461374b565b611325565b610270611791565b6102506117aa565b6102466103c93660046137b4565b6117c2565b6102466103dc3660046137e2565b611845565b6102466103ef366004613a94565b611883565b61024661040236600461352e565b611ad2565b610270611bba565b61025061041d366004613459565b611bd6565b610435610430366004613b99565b611c5e565b60405161022a9190613da3565b61027061045036600461372e565b611da5565b610270610463366004613459565b611dd5565b61047b610476366004613459565b611dfc565b604080516001600160a01b03909316835260208301919091520161022a565b61021e6104a8366004613db6565b611e46565b6102466104bb36600461372e565b611e83565b6102466104ce366004613de4565b611f0d565b60006001600160e01b031982166309e2024360e21b14806104f857506104f882612262565b92915050565b8160006105096122b0565b6001810154604051631a94da4760e21b8152600481018590529192506000916001600160a01b0390911690636a53691c90602401602060405180830381865afa15801561055a573d6000803e3d6000fd5b505050506040513d601f19601f8201168201806040525081019061057e9190613e40565b146105a857600560405163fa5e5f7f60e01b815260040161059f9190613e59565b60405180910390fd5b6000828152600782016020526040902054156105da57600360405163fa5e5f7f60e01b815260040161059f9190613e59565b83336105e582611132565b6001600160a01b0316146105f857600080fd5b60006106026122b0565b905061060d86611132565b6001600160a01b0316336001600160a01b03161461063e57604051636edaef2f60e11b815260040160405180910390fd5b6000868152600982016020908152604091829020825180840190935280546001600160a01b03168084526001909101549183019190915261067e886122de565b6000888152600984016020526040812080546001600160a01b0319168155600101556106ac83838a8a6123c1565b5050505050505050565b60606106c06124a0565b80546106cb90613e6c565b80601f01602080910402602001604051908101604052809291908181526020018280546106f790613e6c565b80156107445780601f1061071957610100808354040283529160200191610744565b820191906000526020600020905b81548152906001019060200180831161072757829003601f168201915b5050505050905090565b60006107586124a0565b60009283526004016020525060409020546001600160a01b031690565b600061077f6124a0565b60008381526002820160205260409020549091506001600160a01b0316338114806107cf57506001600160a01b0381166000908152600583016020908152604080832033845290915290205460ff165b61080c5760405162461bcd60e51b815260206004820152600e60248201526d1393d517d055551213d49256915160921b604482015260640161059f565b600083815260048301602052604080822080546001600160a01b0319166001600160a01b0388811691821790925591518693918516917f8c5be1e5ebec7d5bd14f71427d1e84f3dd0314c0f7b2291e5b200ac8c7c3b92591a450505050565b6000806108766122b0565b6000848152600782016020526040902054909150861461089e576001600160e01b03196108a7565b6303874c7760e21b5b9695505050505050565b60006108bb6122b0565b60020160009054906101000a90046001600160a01b03166001600160a01b0316635c975abb6040518163ffffffff1660e01b8152600401602060405180830381865afa15801561090f573d6000803e3d6000fd5b505050506040513d601f19601f820116820180604052508101906109339190613ea0565b1561095157604051634427925560e01b815260040160405180910390fd5b600061095b6122b0565b9050600061097533876000919091526020526034600c2090565b6000818152600984016020908152604091829020825180840190935280546001600160a01b03168084526001909101549183019190915291925090610206576040516331a9108f60e11b81526004810188905230903390636352211e90602401602060405180830381865afa1580156109f2573d6000803e3d6000fd5b505050506040513d601f19601f82011682018060405250810190610a169190613ebd565b6001600160a01b031614610a2957600080fd5b6000828152600b840160205260409020546001600160a01b0316610b3a576000610b0a8460020160009054906101000a90046001600160a01b03166001600160a01b0316631ff0c9d66040518163ffffffff1660e01b8152600401602060405180830381865afa158015610aa1573d6000803e3d6000fd5b505050506040513d601f19601f82011682018060405250810190610ac59190613ebd565b600286015460405160609190911b6001600160601b0319166020820152600360f81b6034820152603581018690526055016040516020818303038152906040526124df565b6000848152600b86016020526040902080546001600160a01b0319166001600160a01b0392909216919091179055505b6000828152600b8401602052604090819020549051632142170760e11b81523060048201526001600160a01b0390911660248201526044810188905233906342842e0e90606401600060405180830381600087803b158015610b9b57600080fd5b505af1158015610baf573d6000803e3d6000fd5b50503330149150819050610bcf575060018301546001600160a01b031633145b15610bed576040516368f7a67560e11b815260040160405180910390fd5b610bf788836125f1565b6040805180820182523380825260208083018b81526000878152600989018352859020935184546001600160a01b0319166001600160a01b0391821617855590516001909401939093559251918b16825284928a927fd6b6bfb15fe5be5c1a8af879e26df8c0e2470c4ad95a47a1397868b45910e853910160405180910390a450630a85bd0160e11b9250610c8a915050565b95945050505050565b6000610c9d6124a0565b60008381526002820160205260409020549091506001600160a01b03858116911614610cf85760405162461bcd60e51b815260206004820152600a60248201526957524f4e475f46524f4d60b01b604482015260640161059f565b6001600160a01b038316610d425760405162461bcd60e51b81526020600482015260116024820152701253959053125117d49150d25412515395607a1b604482015260640161059f565b336001600160a01b0385161480610d7e57506001600160a01b0384166000908152600582016020908152604080832033845290915290205460ff165b80610da1575060008281526004820160205260409020546001600160a01b031633145b610dde5760405162461bcd60e51b815260206004820152600e60248201526d1393d517d055551213d49256915160921b604482015260640161059f565b610de9848484612710565b50505050565b6000610df96122b0565b6000838152600782016020526040902054909150158015610eb557506000828152600b820160209081526040808320546009850190925291829020805460019091015492516331a9108f60e11b815260048101939093526001600160a01b0391821692911690636352211e90602401602060405180830381865afa158015610e85573d6000803e3d6000fd5b505050506040513d601f19601f82011682018060405250810190610ea99190613ebd565b6001600160a01b031614155b15610ed657600160405163fa5e5f7f60e01b815260040161059f9190613e59565b6000828152600b820160205260409020546001600160a01b03163314610efb57600080fd5b60008281526007820160205260408120556000828152600982016020526040812080546001600160a01b031916815560010155610f37826122de565b5050565b600080610f466122b0565b905088600782016000610f598a80613eda565b60e0013560001c81526020019081526020016000205414610f82576001600160e01b0319610f8b565b6303874c7760e21b5b9998505050505050505050565b6000610fa26122b0565b600301546001600160a01b0316919050565b610fbf838383610c93565b6001600160a01b0382163b15806110685750604051630a85bd0160e11b8082523360048301526001600160a01b03858116602484015260448301849052608060648401526000608484015290919084169063150b7a029060a4016020604051808303816000875af1158015611038573d6000803e3d6000fd5b505050506040513d601f19601f8201168201806040525081019061105c9190613efb565b6001600160e01b031916145b6110a75760405162461bcd60e51b815260206004820152601060248201526f155394d0519157d49150d2541251539560821b604482015260640161059f565b505050565b6000806110b76122b0565b6006015492915050565b6110d7336000356001600160e01b0319166127b2565b6110f35760405162461bcd60e51b815260040161059f90613f18565b60005b818110156110a75761112a83838381811061111357611113613f3e565b90506020028101906111259190613f54565b612868565b6001016110f6565b60008061113d6124a0565b600084815260029190910160205260409020546001600160a01b0316915081036111965760405162461bcd60e51b815260206004820152600a6024820152691393d517d3525395115160b21b604482015260640161059f565b919050565b60006001600160a01b0382166111e25760405162461bcd60e51b815260206004820152600c60248201526b5a45524f5f4144445245535360a01b604482015260640161059f565b6111ea6124a0565b6001600160a01b03909216600090815260039290920160205250604090205490565b6000611216612cef565b80549091506001600160a01b03163314806112af5750600181015460405163b700961360e01b81526001600160a01b039091169063b70096139061126e90339030906001600160e01b03196000351690600401613f6a565b602060405180830381865afa15801561128b573d6000803e3d6000fd5b505050506040513d601f19601f820116820180604052508101906112af9190613ea0565b6112b857600080fd5b6001810180546001600160a01b0319166001600160a01b03841690811790915560405133907fa3396fd7f6e0a21b50e5089d2da70d5ac0a3bbbd1f617a93f134b7638998019890600090a35050565b6000806113126122b0565b600501546001600160a01b031692915050565b823361133082611132565b6001600160a01b03161461134357600080fd5b60008060006113506122b0565b905061135b87611dfc565b6001600160a01b0382166000908152600884016020526040902054919450925060ff1661139e57600260405163fa5e5f7f60e01b815260040161059f9190613e59565b6001810154604051631a94da4760e21b8152600481018990526d20a1aa24ab22afa0aaa1aa24a7a760911b916001600160a01b031690636a53691c90602401602060405180830381865afa1580156113fa573d6000803e3d6000fd5b505050506040513d601f19601f8201168201806040525081019061141e9190613e40565b0361143f57600360405163fa5e5f7f60e01b815260040161059f9190613e59565b6001600160a01b038084166000908152600a8301602052604081205490911680156114d857604051631782048560e31b81526001600160a01b0386811660048301526024820186905282169063bc10242890604401602060405180830381865afa1580156114b1573d6000803e3d6000fd5b505050506040513d601f19601f820116820180604052508101906114d59190613e40565b91505b6000898152600b8401602052604090819020549051630f1f4da160e21b81526001600160a01b038781166004830152602482018790528c8116604483015290911690633c7d368490606401600060405180830381600087803b15801561153d57600080fd5b505af1158015611551573d6000803e3d6000fd5b50506040805160608101825260008d8152600b8801602090815290839020546001600160a01b0390811683528a81169183019190915281830189905291516315b1e65160e11b81527faa25e84734a4b82484cf83d828b61c4d597ef4bdc387f66fbb53e460a4de6f869450918e169250632b63cca2916115d891908d908d90600401613fc0565b6020604051808303816000875af11580156115f7573d6000803e3d6000fd5b505050506040513d601f19601f8201168201806040525081019061161b9190613e40565b1461163957604051633c6771ff60e21b815260040160405180910390fd5b6001600160a01b038116158015906116c15750604051631782048560e31b81526001600160a01b0386811660048301526024820186905282169063bc10242890604401602060405180830381865afa158015611699573d6000803e3d6000fd5b505050506040513d601f19601f820116820180604052508101906116bd9190613e40565b8214155b156116df57604051636cfcd84960e11b815260040160405180910390fd5b6000898152600b84016020526040908190205490516331a9108f60e11b8152600481018690526001600160a01b0391821691871690636352211e90602401602060405180830381865afa15801561173a573d6000803e3d6000fd5b505050506040513d601f19601f8201168201806040525081019061175e9190613ebd565b6001600160a01b03161461178557604051633102ff8f60e01b815260040160405180910390fd5b50505050505050505050565b600061179b612cef565b546001600160a01b0316919050565b60606117b46124a0565b60010180546106cb90613e6c565b806117cb6124a0565b336000818152600592909201602090815260408084206001600160a01b038816808652925292839020805494151560ff199095169490941790935590517f17307eab39ab6107e8899845ad3d59bd9653f200f220920489ca2b5937696c319061183990851515815260200190565b60405180910390a35050565b61185b336000356001600160e01b0319166127b2565b6118775760405162461bcd60e51b815260040161059f90613f18565b61188081612868565b50565b600061188d6122b0565b905060006118f183604001516000815181106118ab576118ab613f3e565b60200260200101516040015184604001516000815181106118ce576118ce613f3e565b6020026020010151602001516001600160a01b03166124ce90919063ffffffff16565b60018301546040516363373ceb60e11b8152600481018390529192506000916001600160a01b039091169063c66e79d690602401602060405180830381865afa158015611942573d6000803e3d6000fd5b505050506040513d601f19601f820116820180604052508101906119669190613ebd565b6000838152600785016020526040902054909150158061198d57506001600160a01b038116155b156119ae57600160405163fa5e5f7f60e01b815260040161059f9190613e59565b836040516020016119bf9190613da3565b60408051601f19818403018152918152815160209283012060008581526007870190935291205414611a0757600460405163fa5e5f7f60e01b815260040161059f9190613e59565b8360c00151421015611a2f57600360405163fa5e5f7f60e01b815260040161059f9190613e59565b600082815260098401602090815260408083208151808301835281546001600160a01b03908116808352600190930154828601819052888752600b8a0190955283862054845163b06b41f960e01b815294519296939594911692839263b06b41f992600480820193929182900301818387803b158015611aae57600080fd5b505af1158015611ac2573d6000803e3d6000fd5b505050506106ac878588886123c1565b611add858585610c93565b6001600160a01b0384163b1580611b745750604051630a85bd0160e11b808252906001600160a01b0386169063150b7a0290611b259033908a90899089908990600401613ffb565b6020604051808303816000875af1158015611b44573d6000803e3d6000fd5b505050506040513d601f19601f82011682018060405250810190611b689190613efb565b6001600160e01b031916145b611bb35760405162461bcd60e51b815260206004820152601060248201526f155394d0519157d49150d2541251539560821b604482015260640161059f565b5050505050565b6000611bc4612cef565b600101546001600160a01b0316919050565b6060600080611be484611dfc565b60405163c87b56dd60e01b81526004810182905291935091506001600160a01b0383169063c87b56dd90602401600060405180830381865afa158015611c2e573d6000803e3d6000fd5b505050506040513d6000823e601f3d908101601f19168201604052611c56919081019061409d565b949350505050565b611c666132ef565b611c7c336000356001600160e01b0319166127b2565b611c985760405162461bcd60e51b815260040161059f90613f18565b6000611ca26122b0565b6040805160028082526060820183529293506000929091602083019080368337019050509050836060013581600081518110611ce057611ce0613f3e565b602002602001018181525050836080013581600181518110611d0457611d04613f3e565b602002602001018181525050611d3782856000016020810190611d27919061372e565b8660200135848860400135612d1d565b9250611d9e828560200135604051806040016040528087815260200160006001600160401b03811115611d6c57611d6c61381c565b6040519080825280601f01601f191660200182016040528015611d96576020820181803683370190505b509052613069565b5050919050565b6000611daf6122b0565b6001600160a01b039283166000908152600a919091016020526040902054909116919050565b6000611ddf6122b0565b6000928352600b016020525060409020546001600160a01b031690565b6000806000611e096122b0565b60009485526009016020908152604094859020855180870190965280546001600160a01b0316808752600190910154959091018590529492505050565b6000611e506124a0565b6001600160a01b039384166000908152600591909101602090815260408083209490951682529290925250205460ff1690565b611e99336000356001600160e01b0319166127b2565b611eb55760405162461bcd60e51b815260040161059f90613f18565b6000611ebf612cef565b80546001600160a01b0319166001600160a01b03841690811782556040519192509033907f8be0079c531659141344cd1fd0a4f28419497f9722a3daafe3b4186f6b6457e090600090a35050565b6000611f176131ac565b8054909150610100900460ff1615808015611f3857508154600160ff909116105b80611f515750303b158015611f515750815460ff166001145b611fb45760405162461bcd60e51b815260206004820152602e60248201527f496e697469616c697a61626c653a20636f6e747261637420697320616c72656160448201526d191e481a5b9a5d1a585b1a5e995960921b606482015260840161059f565b815460ff191660011782558015611fd357815461ff0019166101001782555b611fdd33876131da565b6120376040518060400160405280601881526020017f4173746172696120436f6c6c61746572616c20546f6b656e0000000000000000815250604051806040016040528060038152602001621050d560ea1b8152506132c9565b60006120416122b0565b80546001600160a01b038089166001600160a01b0319928316178355600183018054898316908416179055600383018054918816919092168117909155604080516303d1eddd60e61b8152905192935060009263f47b77409160048082019286929091908290030181865afa1580156120be573d6000803e3d6000fd5b505050506040513d6000823e601f3d908101601f191682016040526120e691908101906140d1565b925060009150503060601b6001600160601b03191660068401819055600480850180546001600160a01b0319166001600160a01b038616908117909155604051631e5164ef60e21b815291820183905230602483015291925063794593bc906044016020604051808303816000875af1158015612167573d6000803e3d6000fd5b505050506040513d601f19601f8201168201806040525081019061218b9190613ebd565b6005840180546001600160a01b0319166001600160a01b039283169081179091556004808601546040516313ad9cab60e01b8152918201929092528883166024820152600160448201529116906313ad9cab90606401600060405180830381600087803b1580156121fb57600080fd5b505af115801561220f573d6000803e3d6000fd5b50505050505050801561225a57815461ff0019168255604051600181527f7f26b83ff96e1f2b6a682f133852f6798a09c465da95921460cefb38474024989060200160405180910390a15b505050505050565b60006301ffc9a760e01b6001600160e01b03198316148061229357506380ac58cd60e01b6001600160e01b03198316145b806104f85750506001600160e01b031916635b5e139f60e01b1490565b6000806104f860017feb3d65abb24ad4e157eb73531bc0123773bad5b24c4b6490cdc684bfa46d7d49614141565b60006122e86124a0565b60008381526002820160205260409020549091506001600160a01b03168061233f5760405162461bcd60e51b815260206004820152600a6024820152691393d517d3525395115160b21b604482015260640161059f565b6001600160a01b03811660008181526003840160209081526040808320805460001901905586835260028601825280832080546001600160a01b0319908116909155600487019092528083208054909216909155518592907fddf252ad1be2c89b69c2b068fc378daa952ba7f163c4a11628f55a4df523b3ef908390a4505050565b6000828152600b85016020908152604091829020548551918601519251630f1f4da160e21b81526001600160a01b039283166004820152602481019390935283821660448401521690633c7d368490606401600060405180830381600087803b15801561242d57600080fd5b505af1158015612441573d6000803e3d6000fd5b50505050806001600160a01b031683600001516001600160a01b03167fef3539ded9c4dd21e2549099e61175b76a6090b26b0ea7bea4e25c9d8ab8b418856020015160405161249291815260200190565b60405180910390a350505050565b6000806104f860017ffc8793c2139a57fdc041f52e5a6e70e2c8f6402d67cb75321c29bc8c4ab736ab614141565b6000919091526020526034600c2090565b8051604051606160f81b81526039820160f081811b60018401526f3d81600a3d39f33d3d3d3d363d3d376160801b600384015260028401901b601383018190526560373639366160d01b6015840152601b83015262013d7360e81b601d830152606085901b6020808401919091526c5af43d3d93803e603557fd5bf360981b60348401526000939260438401929186019084604182015b602082106125955783518152602093840193601f199092019101612576565b835160001960208490036101000a0119908116825260f088901b91830191825286846000f098506001600160a01b0389166125e357604051631d7fde3160e31b815260040160405180910390fd5b505050505050505092915050565b6001600160a01b03821661263b5760405162461bcd60e51b81526020600482015260116024820152701253959053125117d49150d25412515395607a1b604482015260640161059f565b60006126456124a0565b60008381526002820160205260409020549091506001600160a01b0316156126a05760405162461bcd60e51b815260206004820152600e60248201526d1053149150511657d3525395115160921b604482015260640161059f565b6001600160a01b03831660008181526003830160209081526040808320805460010190558583526002850190915280822080546001600160a01b0319168417905551849291907fddf252ad1be2c89b69c2b068fc378daa952ba7f163c4a11628f55a4df523b3ef908290a4505050565b600061271a6124a0565b6001600160a01b038086166000818152600384016020908152604080832080546000190190559388168083528483208054600101905587835260028601825284832080546001600160a01b03199081168317909155600487019092528483208054909216909155925193945085937fddf252ad1be2c89b69c2b068fc378daa952ba7f163c4a11628f55a4df523b3ef9190a450505050565b6000806127bd612cef565b60018101549091506001600160a01b03168015801590612849575060405163b700961360e01b81526001600160a01b0382169063b70096139061280890889030908990600401613f6a565b602060405180830381865afa158015612825573d6000803e3d6000fd5b505050506040513d601f19601f820116820180604052508101906128499190613ea0565b80610c8a575081546001600160a01b0386811691161495945050505050565b60006128726122b0565b905060006128836020840184614154565b905060006128946020850185614171565b8080601f016020809104026020016040519081016040528093929190818152602001838380828437600092019190915250929350600192506128d4915050565b8260048111156128e6576128e6613bb5565b03612929576000818060200190518101906129019190613ebd565b6002850180546001600160a01b0319166001600160a01b039290921691909117905550612cb0565b600282600481111561293d5761293d613bb5565b0361298f576000808280602001905181019061295991906141b7565b6001600160a01b039182166000908152600a88016020526040902080546001600160a01b0319169190921617905550612cb09050565b60038260048111156129a3576129a3613bb5565b036129f257600080828060200190518101906129bf91906141e6565b6001600160a01b039190911660009081526008870160205260409020805460ff191691151591909117905550612cb09050565b6004826004811115612a0657612a06613bb5565b03612c975780806020019051810190612a1f9190613ebd565b6003840180546001600160a01b0319166001600160a01b03929092169182179055604080516303d1eddd60e61b815290516000929163f47b774091600480830192869291908290030181865afa158015612a7d573d6000803e3d6000fd5b505050506040513d6000823e601f3d908101601f19168201604052612aa591908101906140d1565b60068701549093509150612ac99050573060601b6001600160601b03191660068501555b600484810180546001600160a01b0319166001600160a01b0384169081179091556006860154604051636e9bfd9f60e01b815292830152600091829190636e9bfd9f906024016040805180830381865afa158015612b2b573d6000803e3d6000fd5b505050506040513d601f19601f82011682018060405250810190612b4f91906141e6565b9150915080612bf7576004868101546006880154604051631e5164ef60e21b8152928301523060248301526001600160a01b03169063794593bc906044016020604051808303816000875af1158015612bac573d6000803e3d6000fd5b505050506040513d601f19601f82011682018060405250810190612bd09190613ebd565b6005870180546001600160a01b0319166001600160a01b0392909216919091179055612c15565b6005860180546001600160a01b0319166001600160a01b0384161790555b600486810154600588015460038901546040516313ad9cab60e01b81526001600160a01b0392831694810194909452811660248401526001604484015216906313ad9cab90606401600060405180830381600087803b158015612c7757600080fd5b505af1158015612c8b573d6000803e3d6000fd5b50505050505050612cb0565b6040516345f279ab60e01b815260040160405180910390fd5b7f4aa20127da97281124f6c5bf77f293274afb4745d8b41b9c40434f8e51ac7c818282604051612ce1929190614215565b60405180910390a150505050565b6000806104f860017f39509ba13edbf55c1c882ff847dd8db4cc4806e85b9952f85673490851bc713b614141565b612d256132ef565b604080516001808252818301909252600091816020015b612d786040805160a08101909152806000815260200160006001600160a01b031681526020016000815260200160008152602001600081525090565b815260200190600190039081612d3c5790505060008681526009890160209081526040918290208251808401845281546001600160a01b0316815260019091015491810191909152815160a08101909252919250806002815260200182600001516001600160a01b031681526020018260200151815260200160018152602001600181525082600081518110612e1057612e10613f3e565b602090810291909101015260408051600280825260608201909252600091816020015b6040805160c08101825260008082526020808301829052928201819052606082018190526080820181905260a08201528252600019909201910181612e33579050506040805160c081019091529091508060018152602001896001600160a01b031681526020016000815260200187600081518110612eb457612eb4613f3e565b6020026020010151815260200187600181518110612ed457612ed4613f3e565b602090810291909101810151825260008a8152600b8d01825260408120546001600160a01b031692909101919091528251839190612f1457612f14613f3e565b60209081029190910101526040805160c0810190915280600381526000898152600b8c0160209081526040808320546001600160a01b0390811692850192909252908c16908301528851606090920191899190612f7357612f73613f3e565b6020026020010151815260200187600181518110612f9357612f93613f3e565b602090810291909101810151825260008a8152600b8d01825260409020546001600160a01b0316910152815182906001908110612fd257612fd2613f3e565b602090810291909101810191909152604080516101608101825260008a8152600b8d018452828120546001600160a01b03168252309382019390935290810185905260608101839052906080820190815260200142815260200186426130389190614237565b8152602081019890985243406040890152600690990154606088015251608090960195909552509495945050505050565b6006830154815161012001511461309357604051634f38bef960e11b815260040160405180910390fd5b8051602001516001600160a01b031630146130c157604051639d3c586b60e01b815260040160405180910390fd5b6000828152600b84016020526040908190205490516367231ac360e11b81526001600160a01b039091169063ce46358690613100908490600401614278565b600060405180830381600087803b15801561311a57600080fd5b505af115801561312e573d6000803e3d6000fd5b505050507fc8cbd72919e48975a97a1ddde66fd8043eb9d4495c8d41aeccf83a96e45a1c6a828260405161316392919061428b565b60405180910390a1805160405161317d9190602001613da3565b60408051601f198184030181529181528151602092830120600094855260079095019091529091209190915550565b6000806104f860017fe54d104cc32597338d9a7867d41ca0c8fb6144529e0565413f4b3671fc578785614141565b60006131e4612cef565b80549091506001600160a01b0316156132355760405162461bcd60e51b8152602060048201526013602482015272105b1c9958591e481a5b9a5d1a585b1a5e9959606a1b604482015260640161059f565b80546001600160a01b03199081166001600160a01b0385811691821784556001840180549093169085161790915560405133907f8be0079c531659141344cd1fd0a4f28419497f9722a3daafe3b4186f6b6457e090600090a36040516001600160a01b0383169033907fa3396fd7f6e0a21b50e5089d2da70d5ac0a3bbbd1f617a93f134b7638998019890600090a3505050565b60006132d36124a0565b9050806132e084826142ea565b5060018101610de983826142ea565b60405180610160016040528060006001600160a01b0316815260200160006001600160a01b0316815260200160608152602001606081526020016000600481111561333c5761333c613bb5565b815260006020820181905260408201819052606082018190526080820181905260a0820181905260c09091015290565b6001600160e01b03198116811461188057600080fd5b60006020828403121561339457600080fd5b813561339f8161336c565b9392505050565b6001600160a01b038116811461188057600080fd5b8035611196816133a6565b600080604083850312156133d957600080fd5b8235915060208301356133eb816133a6565b809150509250929050565b60005b838110156134115781810151838201526020016133f9565b50506000910152565b600081518084526134328160208601602086016133f6565b601f01601f19169290920160200192915050565b60208152600061339f602083018461341a565b60006020828403121561346b57600080fd5b5035919050565b6000806040838503121561348557600080fd5b8235613490816133a6565b946020939093013593505050565b600080600080608085870312156134b457600080fd5b8435935060208501356134c6816133a6565b925060408501356134d6816133a6565b9396929550929360600135925050565b60008083601f8401126134f857600080fd5b5081356001600160401b0381111561350f57600080fd5b60208301915083602082850101111561352757600080fd5b9250929050565b60008060008060006080868803121561354657600080fd5b8535613551816133a6565b94506020860135613561816133a6565b93506040860135925060608601356001600160401b0381111561358357600080fd5b61358f888289016134e6565b969995985093965092949392505050565b6000806000606084860312156135b557600080fd5b83356135c0816133a6565b925060208401356135d0816133a6565b929592945050506040919091013590565b600060a082840312156135f357600080fd5b50919050565b60008083601f84011261360b57600080fd5b5081356001600160401b0381111561362257600080fd5b6020830191508360208260051b850101111561352757600080fd5b600080600080600080600060a0888a03121561365857600080fd5b87359650602088013561366a816133a6565b955060408801356001600160401b038082111561368657600080fd5b6136928b838c016135e1565b965060608a01359150808211156136a857600080fd5b6136b48b838c016135f9565b909650945060808a01359150808211156136cd57600080fd5b506136da8a828b016135f9565b989b979a50959850939692959293505050565b6000806020838503121561370057600080fd5b82356001600160401b0381111561371657600080fd5b613722858286016135f9565b90969095509350505050565b60006020828403121561374057600080fd5b813561339f816133a6565b6000806000806060858703121561376157600080fd5b843561376c816133a6565b93506020850135925060408501356001600160401b0381111561378e57600080fd5b61379a878288016134e6565b95989497509550505050565b801515811461188057600080fd5b600080604083850312156137c757600080fd5b82356137d2816133a6565b915060208301356133eb816137a6565b6000602082840312156137f457600080fd5b81356001600160401b0381111561380a57600080fd5b82016040818503121561339f57600080fd5b634e487b7160e01b600052604160045260246000fd5b60405160a081016001600160401b03811182821017156138545761385461381c565b60405290565b60405160c081016001600160401b03811182821017156138545761385461381c565b60405161016081016001600160401b03811182821017156138545761385461381c565b604051601f8201601f191681016001600160401b03811182821017156138c7576138c761381c565b604052919050565b60006001600160401b038211156138e8576138e861381c565b5060051b60200190565b80356006811061119657600080fd5b600082601f83011261391257600080fd5b81356020613927613922836138cf565b61389f565b82815260a0928302850182019282820191908785111561394657600080fd5b8387015b858110156139b15781818a0312156139625760008081fd5b61396a613832565b613973826138f2565b815285820135613982816133a6565b81870152604082810135908201526060808301359082015260808083013590820152845292840192810161394a565b5090979650505050505050565b600082601f8301126139cf57600080fd5b813560206139df613922836138cf565b82815260c092830285018201928282019190878511156139fe57600080fd5b8387015b858110156139b15781818a031215613a1a5760008081fd5b613a2261385a565b613a2b826138f2565b815285820135613a3a816133a6565b8187015260408281013590820152606080830135908201526080808301359082015260a080830135613a6b816133a6565b908201528452928401928101613a02565b6005811061188057600080fd5b803561119681613a7c565b600060208284031215613aa657600080fd5b81356001600160401b0380821115613abd57600080fd5b908301906101608286031215613ad257600080fd5b613ada61387c565b613ae3836133bb565b8152613af1602084016133bb565b6020820152604083013582811115613b0857600080fd5b613b1487828601613901565b604083015250606083013582811115613b2c57600080fd5b613b38878286016139be565b606083015250613b4a60808401613a89565b608082015260a0838101359082015260c0808401359082015260e08084013590820152610100808401359082015261012080840135908201526101409283013592810192909252509392505050565b600060a08284031215613bab57600080fd5b61339f83836135e1565b634e487b7160e01b600052602160045260246000fd5b6006811061188057611880613bb5565b600081518084526020808501945080840160005b83811015613c475781518051613c0481613bcb565b8852808401516001600160a01b03168489015260408082015190890152606080820151908901526080908101519088015260a09096019590820190600101613bef565b509495945050505050565b600081518084526020808501945080840160005b83811015613c475781518051613c7b81613bcb565b8852808401516001600160a01b03908116858a0152604080830151908a0152606080830151908a0152608080830151908a015260a091820151169088015260c09096019590820190600101613c66565b6005811061188057611880613bb5565b613ce481613ccb565b9052565b80516001600160a01b0316825260006101606020830151613d1460208601826001600160a01b03169052565b506040830151816040860152613d2c82860182613bdb565b91505060608301518482036060860152613d468282613c52565b9150506080830151613d5b6080860182613cdb565b5060a0838101519085015260c0808401519085015260e08084015190850152610100808401519085015261012080840151908501526101409283015192909301919091525090565b60208152600061339f6020830184613ce8565b60008060408385031215613dc957600080fd5b8235613dd4816133a6565b915060208301356133eb816133a6565b60008060008060808587031215613dfa57600080fd5b8435613e05816133a6565b93506020850135613e15816133a6565b92506040850135613e25816133a6565b91506060850135613e35816133a6565b939692955090935050565b600060208284031215613e5257600080fd5b5051919050565b60208101613e6683613bcb565b91905290565b600181811c90821680613e8057607f821691505b6020821081036135f357634e487b7160e01b600052602260045260246000fd5b600060208284031215613eb257600080fd5b815161339f816137a6565b600060208284031215613ecf57600080fd5b815161339f816133a6565b6000823561015e19833603018112613ef157600080fd5b9190910192915050565b600060208284031215613f0d57600080fd5b815161339f8161336c565b6020808252600c908201526b15539055551213d49256915160a21b604082015260600190565b634e487b7160e01b600052603260045260246000fd5b60008235603e19833603018112613ef157600080fd5b6001600160a01b0393841681529190921660208201526001600160e01b0319909116604082015260600190565b81835281816020850137506000828201602090810191909152601f909101601f19169091010190565b600060018060a01b03808651168352806020870151166020840152506040850151604083015260806060830152610c8a608083018486613f97565b6001600160a01b038681168252851660208201526040810184905260806060820181905260009061402f9083018486613f97565b979650505050505050565b600082601f83011261404b57600080fd5b81516001600160401b038111156140645761406461381c565b614077601f8201601f191660200161389f565b81815284602083860101111561408c57600080fd5b611c568260208301602087016133f6565b6000602082840312156140af57600080fd5b81516001600160401b038111156140c557600080fd5b611c568482850161403a565b6000806000606084860312156140e657600080fd5b83516001600160401b038111156140fc57600080fd5b6141088682870161403a565b935050602084015191506040840151614120816133a6565b809150509250925092565b634e487b7160e01b600052601160045260246000fd5b818103818111156104f8576104f861412b565b60006020828403121561416657600080fd5b813561339f81613a7c565b6000808335601e1984360301811261418857600080fd5b8301803591506001600160401b038211156141a257600080fd5b60200191503681900382131561352757600080fd5b600080604083850312156141ca57600080fd5b82516141d5816133a6565b60208401519092506133eb816133a6565b600080604083850312156141f957600080fd5b8251614204816133a6565b60208401519092506133eb816137a6565b61421e83613ccb565b828152604060208201526000611c56604083018461341a565b808201808211156104f8576104f861412b565b600081516040845261425f6040850182613ce8565b905060208301518482036020860152610c8a828261341a565b60208152600061339f602083018461424a565b828152604060208201526000611c56604083018461424a565b601f8211156110a757600081815260208120601f850160051c810160208610156142cb5750805b601f850160051c820191505b8181101561225a578281556001016142d7565b81516001600160401b038111156143035761430361381c565b614317816143118454613e6c565b846142a4565b602080601f83116001811461434c57600084156143345750858301515b600019600386901b1c1916600185901b17855561225a565b600085815260208120601f198616915b8281101561437b5788860151825594840194600190910190840161435c565b50858210156143995787850151600019600388901b60f8161c191681555b5050505050600190811b0190555056fea26469706673582212204c744bed73fa9632bb25d6235703442f500eb3bd465f308ebe46101295f633fd64736f6c63430008110033",
    "linkReferences": {}
  },
  "methodIdentifiers": {
    "SEAPORT()": "387b6629",
    "approve(address,uint256)": "095ea7b3",
    "auctionVault((address,uint256,uint256,uint256,uint256))": "d163259a",
    "authority()": "bf7e214f",
    "balanceOf(address)": "70a08231",
    "file((uint8,bytes))": "b05e52fd",
    "fileBatch((uint8,bytes)[])": "609a8b8c",
    "flashAction(address,uint256,bytes)": "88803a9f",
    "getApproved(uint256)": "081812fc",
    "getClearingHouse(uint256)": "db067b43",
    "getConduit()": "84eafda0",
    "getConduitKey()": "6080d710",
    "getUnderlying(uint256)": "e71d541e",
    "initialize(address,address,address,address)": "f8c8765e",
    "isApprovedForAll(address,address)": "e985e9c5",
    "isValidOrder(bytes32,address,address,bytes32)": "0e1d31dc",
    "isValidOrderIncludingExtraData(bytes32,address,((address,address,(uint8,address,uint256,uint256,uint256)[],(uint8,address,uint256,uint256,uint256,address)[],uint8,uint256,uint256,bytes32,uint256,bytes32,uint256),uint120,uint120,bytes,bytes),bytes32[],(uint256,uint8,uint256,uint256,bytes32[])[])": "33131570",
    "liquidatorNFTClaim((address,address,(uint8,address,uint256,uint256,uint256)[],(uint8,address,uint256,uint256,uint256,address)[],uint8,uint256,uint256,bytes32,uint256,bytes32,uint256))": "b58e1c35",
    "name()": "06fdde03",
    "onERC721Received(address,address,uint256,bytes)": "150b7a02",
    "owner()": "8da5cb5b",
    "ownerOf(uint256)": "6352211e",
    "releaseToAddress(uint256,address)": "0330e35b",
    "safeTransferFrom(address,address,uint256)": "42842e0e",
    "safeTransferFrom(address,address,uint256,bytes)": "b88d4fde",
    "securityHooks(address)": "d68265c3",
    "setApprovalForAll(address,bool)": "a22cb465",
    "setAuthority(address)": "7a9e5e4b",
    "settleAuction(uint256)": "2e993611",
    "supportsInterface(bytes4)": "01ffc9a7",
    "symbol()": "95d89b41",
    "tokenURI(uint256)": "c87b56dd",
    "transferFrom(address,address,uint256)": "23b872dd",
    "transferOwnership(address)": "f2fde38b"
  },
  "id": 147
}