{
  "abi": [
    {
      "inputs": [],
      "stateMutability": "nonpayable",
      "type": "constructor"
    },
    {
      "inputs": [],
      "name": "CreateFail",
      "type": "error"
    },
    {
      "inputs": [],
      "name": "FlashActionCallbackFailed",
      "type": "error"
    },
    {
      "inputs": [],
      "name": "FlashActionNFTNotReturned",
      "type": "error"
    },
    {
      "inputs": [],
      "name": "FlashActionSecurityCheckFailed",
      "type": "error"
    },
    {
      "inputs": [],
      "name": "InvalidCollateral",
      "type": "error"
    },
    {
      "inputs": [
        {
          "internalType": "enum ICollateralToken.InvalidCollateralStates",
          "name": "",
          "type": "uint8"
        }
      ],
      "name": "InvalidCollateralState",
      "type": "error"
    },
    {
      "inputs": [],
      "name": "InvalidConduitKey",
      "type": "error"
    },
    {
      "inputs": [],
      "name": "InvalidSender",
      "type": "error"
    },
    {
      "inputs": [],
      "name": "InvalidZone",
      "type": "error"
    },
    {
      "inputs": [],
      "name": "ListPriceTooLow",
      "type": "error"
    },
    {
      "inputs": [],
      "name": "ProtocolPaused",
      "type": "error"
    },
    {
      "inputs": [],
      "name": "UnsupportedFile",
      "type": "error"
    },
    {
      "anonymous": false,
      "inputs": [
        {
          "indexed": true,
          "internalType": "address",
          "name": "owner",
          "type": "address"
        },
        {
          "indexed": true,
          "internalType": "address",
          "name": "spender",
          "type": "address"
        },
        {
          "indexed": true,
          "internalType": "uint256",
          "name": "id",
          "type": "uint256"
        }
      ],
      "name": "Approval",
      "type": "event"
    },
    {
      "anonymous": false,
      "inputs": [
        {
          "indexed": true,
          "internalType": "address",
          "name": "owner",
          "type": "address"
        },
        {
          "indexed": true,
          "internalType": "address",
          "name": "operator",
          "type": "address"
        },
        {
          "indexed": false,
          "internalType": "bool",
          "name": "approved",
          "type": "bool"
        }
      ],
      "name": "ApprovalForAll",
      "type": "event"
    },
    {
      "anonymous": false,
      "inputs": [
        {
          "indexed": true,
          "internalType": "address",
          "name": "user",
          "type": "address"
        },
        {
          "indexed": true,
          "internalType": "contract Authority",
          "name": "newAuthority",
          "type": "address"
        }
      ],
      "name": "AuthorityUpdated",
      "type": "event"
    },
    {
      "anonymous": false,
      "inputs": [
        {
          "indexed": true,
          "internalType": "address",
          "name": "tokenContract",
          "type": "address"
        },
        {
          "indexed": true,
          "internalType": "uint256",
          "name": "tokenId",
          "type": "uint256"
        },
        {
          "indexed": true,
          "internalType": "uint256",
          "name": "collateralId",
          "type": "uint256"
        },
        {
          "indexed": false,
          "internalType": "address",
          "name": "depositedFor",
          "type": "address"
        }
      ],
      "name": "Deposit721",
      "type": "event"
    },
    {
      "anonymous": false,
      "inputs": [
        {
          "indexed": false,
          "internalType": "enum ICollateralToken.FileType",
          "name": "what",
          "type": "uint8"
        },
        {
          "indexed": false,
          "internalType": "bytes",
          "name": "data",
          "type": "bytes"
        }
      ],
      "name": "FileUpdated",
      "type": "event"
    },
    {
      "anonymous": false,
      "inputs": [
        {
          "indexed": false,
          "internalType": "uint8",
          "name": "version",
          "type": "uint8"
        }
      ],
      "name": "Initialized",
      "type": "event"
    },
    {
      "anonymous": false,
      "inputs": [
        {
          "indexed": false,
          "internalType": "uint256",
          "name": "collateralId",
          "type": "uint256"
        },
        {
          "components": [
            {
              "components": [
                {
                  "internalType": "address",
                  "name": "offerer",
                  "type": "address"
                },
                {
                  "internalType": "address",
                  "name": "zone",
                  "type": "address"
                },
                {
                  "components": [
                    {
                      "internalType": "enum ItemType",
                      "name": "itemType",
                      "type": "uint8"
                    },
                    {
                      "internalType": "address",
                      "name": "token",
                      "type": "address"
                    },
                    {
                      "internalType": "uint256",
                      "name": "identifierOrCriteria",
                      "type": "uint256"
                    },
                    {
                      "internalType": "uint256",
                      "name": "startAmount",
                      "type": "uint256"
                    },
                    {
                      "internalType": "uint256",
                      "name": "endAmount",
                      "type": "uint256"
                    }
                  ],
                  "internalType": "struct OfferItem[]",
                  "name": "offer",
                  "type": "tuple[]"
                },
                {
                  "components": [
                    {
                      "internalType": "enum ItemType",
                      "name": "itemType",
                      "type": "uint8"
                    },
                    {
                      "internalType": "address",
                      "name": "token",
                      "type": "address"
                    },
                    {
                      "internalType": "uint256",
                      "name": "identifierOrCriteria",
                      "type": "uint256"
                    },
                    {
                      "internalType": "uint256",
                      "name": "startAmount",
                      "type": "uint256"
                    },
                    {
                      "internalType": "uint256",
                      "name": "endAmount",
                      "type": "uint256"
                    },
                    {
                      "internalType": "address payable",
                      "name": "recipient",
                      "type": "address"
                    }
                  ],
                  "internalType": "struct ConsiderationItem[]",
                  "name": "consideration",
                  "type": "tuple[]"
                },
                {
                  "internalType": "enum OrderType",
                  "name": "orderType",
                  "type": "uint8"
                },
                {
                  "internalType": "uint256",
                  "name": "startTime",
                  "type": "uint256"
                },
                {
                  "internalType": "uint256",
                  "name": "endTime",
                  "type": "uint256"
                },
                {
                  "internalType": "bytes32",
                  "name": "zoneHash",
                  "type": "bytes32"
                },
                {
                  "internalType": "uint256",
                  "name": "salt",
                  "type": "uint256"
                },
                {
                  "internalType": "bytes32",
                  "name": "conduitKey",
                  "type": "bytes32"
                },
                {
                  "internalType": "uint256",
                  "name": "totalOriginalConsiderationItems",
                  "type": "uint256"
                }
              ],
              "internalType": "struct OrderParameters",
              "name": "parameters",
              "type": "tuple"
            },
            {
              "internalType": "bytes",
              "name": "signature",
              "type": "bytes"
            }
          ],
          "indexed": false,
          "internalType": "struct Order",
          "name": "listingOrder",
          "type": "tuple"
        }
      ],
      "name": "ListedOnSeaport",
      "type": "event"
    },
    {
      "anonymous": false,
      "inputs": [
        {
          "indexed": true,
          "internalType": "address",
          "name": "user",
          "type": "address"
        },
        {
          "indexed": true,
          "internalType": "address",
          "name": "newOwner",
          "type": "address"
        }
      ],
      "name": "OwnershipTransferred",
      "type": "event"
    },
    {
      "anonymous": false,
      "inputs": [
        {
          "indexed": true,
          "internalType": "address",
          "name": "underlyingAsset",
          "type": "address"
        },
        {
          "indexed": false,
          "internalType": "uint256",
          "name": "assetId",
          "type": "uint256"
        },
        {
          "indexed": true,
          "internalType": "address",
          "name": "to",
          "type": "address"
        }
      ],
      "name": "ReleaseTo",
      "type": "event"
    },
    {
      "anonymous": false,
      "inputs": [
        {
          "indexed": true,
          "internalType": "address",
          "name": "from",
          "type": "address"
        },
        {
          "indexed": true,
          "internalType": "address",
          "name": "to",
          "type": "address"
        },
        {
          "indexed": true,
          "internalType": "uint256",
          "name": "id",
          "type": "uint256"
        }
      ],
      "name": "Transfer",
      "type": "event"
    },
    {
      "inputs": [],
      "name": "SEAPORT",
      "outputs": [
        {
          "internalType": "contract ConsiderationInterface",
          "name": "",
          "type": "address"
        }
      ],
      "stateMutability": "view",
      "type": "function"
    },
    {
      "inputs": [
        {
          "internalType": "address",
          "name": "spender",
          "type": "address"
        },
        {
          "internalType": "uint256",
          "name": "id",
          "type": "uint256"
        }
      ],
      "name": "approve",
      "outputs": [],
      "stateMutability": "nonpayable",
      "type": "function"
    },
    {
      "inputs": [
        {
          "components": [
            {
              "internalType": "address",
              "name": "settlementToken",
              "type": "address"
            },
            {
              "internalType": "uint256",
              "name": "collateralId",
              "type": "uint256"
            },
            {
              "internalType": "uint256",
              "name": "maxDuration",
              "type": "uint256"
            },
            {
              "internalType": "uint256",
              "name": "startingPrice",
              "type": "uint256"
            },
            {
              "internalType": "uint256",
              "name": "endingPrice",
              "type": "uint256"
            }
          ],
          "internalType": "struct ICollateralToken.AuctionVaultParams",
          "name": "params",
          "type": "tuple"
        }
      ],
      "name": "auctionVault",
      "outputs": [
        {
          "components": [
            {
              "internalType": "address",
              "name": "offerer",
              "type": "address"
            },
            {
              "internalType": "address",
              "name": "zone",
              "type": "address"
            },
            {
              "components": [
                {
                  "internalType": "enum ItemType",
                  "name": "itemType",
                  "type": "uint8"
                },
                {
                  "internalType": "address",
                  "name": "token",
                  "type": "address"
                },
                {
                  "internalType": "uint256",
                  "name": "identifierOrCriteria",
                  "type": "uint256"
                },
                {
                  "internalType": "uint256",
                  "name": "startAmount",
                  "type": "uint256"
                },
                {
                  "internalType": "uint256",
                  "name": "endAmount",
                  "type": "uint256"
                }
              ],
              "internalType": "struct OfferItem[]",
              "name": "offer",
              "type": "tuple[]"
            },
            {
              "components": [
                {
                  "internalType": "enum ItemType",
                  "name": "itemType",
                  "type": "uint8"
                },
                {
                  "internalType": "address",
                  "name": "token",
                  "type": "address"
                },
                {
                  "internalType": "uint256",
                  "name": "identifierOrCriteria",
                  "type": "uint256"
                },
                {
                  "internalType": "uint256",
                  "name": "startAmount",
                  "type": "uint256"
                },
                {
                  "internalType": "uint256",
                  "name": "endAmount",
                  "type": "uint256"
                },
                {
                  "internalType": "address payable",
                  "name": "recipient",
                  "type": "address"
                }
              ],
              "internalType": "struct ConsiderationItem[]",
              "name": "consideration",
              "type": "tuple[]"
            },
            {
              "internalType": "enum OrderType",
              "name": "orderType",
              "type": "uint8"
            },
            {
              "internalType": "uint256",
              "name": "startTime",
              "type": "uint256"
            },
            {
              "internalType": "uint256",
              "name": "endTime",
              "type": "uint256"
            },
            {
              "internalType": "bytes32",
              "name": "zoneHash",
              "type": "bytes32"
            },
            {
              "internalType": "uint256",
              "name": "salt",
              "type": "uint256"
            },
            {
              "internalType": "bytes32",
              "name": "conduitKey",
              "type": "bytes32"
            },
            {
              "internalType": "uint256",
              "name": "totalOriginalConsiderationItems",
              "type": "uint256"
            }
          ],
          "internalType": "struct OrderParameters",
          "name": "orderParameters",
          "type": "tuple"
        }
      ],
      "stateMutability": "nonpayable",
      "type": "function"
    },
    {
      "inputs": [],
      "name": "authority",
      "outputs": [
        {
          "internalType": "contract Authority",
          "name": "",
          "type": "address"
        }
      ],
      "stateMutability": "view",
      "type": "function"
    },
    {
      "inputs": [
        {
          "internalType": "address",
          "name": "owner",
          "type": "address"
        }
      ],
      "name": "balanceOf",
      "outputs": [
        {
          "internalType": "uint256",
          "name": "",
          "type": "uint256"
        }
      ],
      "stateMutability": "view",
      "type": "function"
    },
    {
      "inputs": [
        {
          "components": [
            {
              "internalType": "enum ICollateralToken.FileType",
              "name": "what",
              "type": "uint8"
            },
            {
              "internalType": "bytes",
              "name": "data",
              "type": "bytes"
            }
          ],
          "internalType": "struct ICollateralToken.File",
          "name": "incoming",
          "type": "tuple"
        }
      ],
      "name": "file",
      "outputs": [],
      "stateMutability": "nonpayable",
      "type": "function"
    },
    {
      "inputs": [
        {
          "components": [
            {
              "internalType": "enum ICollateralToken.FileType",
              "name": "what",
              "type": "uint8"
            },
            {
              "internalType": "bytes",
              "name": "data",
              "type": "bytes"
            }
          ],
          "internalType": "struct ICollateralToken.File[]",
          "name": "files",
          "type": "tuple[]"
        }
      ],
      "name": "fileBatch",
      "outputs": [],
      "stateMutability": "nonpayable",
      "type": "function"
    },
    {
      "inputs": [
        {
          "internalType": "contract IFlashAction",
          "name": "receiver",
          "type": "address"
        },
        {
          "internalType": "uint256",
          "name": "collateralId",
          "type": "uint256"
        },
        {
          "internalType": "bytes",
          "name": "data",
          "type": "bytes"
        }
      ],
      "name": "flashAction",
      "outputs": [],
      "stateMutability": "nonpayable",
      "type": "function"
    },
    {
      "inputs": [
        {
          "internalType": "uint256",
          "name": "tokenId",
          "type": "uint256"
        }
      ],
      "name": "getApproved",
      "outputs": [
        {
          "internalType": "address",
          "name": "",
          "type": "address"
        }
      ],
      "stateMutability": "view",
      "type": "function"
    },
    {
      "inputs": [
        {
          "internalType": "uint256",
          "name": "collateralId",
          "type": "uint256"
        }
      ],
      "name": "getClearingHouse",
      "outputs": [
        {
          "internalType": "contract ClearingHouse",
          "name": "",
          "type": "address"
        }
      ],
      "stateMutability": "view",
      "type": "function"
    },
    {
      "inputs": [],
      "name": "getConduit",
      "outputs": [
        {
          "internalType": "address",
          "name": "",
          "type": "address"
        }
      ],
      "stateMutability": "view",
      "type": "function"
    },
    {
      "inputs": [],
      "name": "getConduitKey",
      "outputs": [
        {
          "internalType": "bytes32",
          "name": "",
          "type": "bytes32"
        }
      ],
      "stateMutability": "view",
      "type": "function"
    },
    {
      "inputs": [
        {
          "internalType": "uint256",
          "name": "collateralId",
          "type": "uint256"
        }
      ],
      "name": "getUnderlying",
      "outputs": [
        {
          "internalType": "address",
          "name": "",
          "type": "address"
        },
        {
          "internalType": "uint256",
          "name": "",
          "type": "uint256"
        }
      ],
      "stateMutability": "view",
      "type": "function"
    },
    {
      "inputs": [
        {
          "internalType": "contract Authority",
          "name": "AUTHORITY_",
          "type": "address"
        },
        {
          "internalType": "contract ITransferProxy",
          "name": "TRANSFER_PROXY_",
          "type": "address"
        },
        {
          "internalType": "contract ILienToken",
          "name": "LIEN_TOKEN_",
          "type": "address"
        },
        {
          "internalType": "contract ConsiderationInterface",
          "name": "SEAPORT_",
          "type": "address"
        }
      ],
      "name": "initialize",
      "outputs": [],
      "stateMutability": "nonpayable",
      "type": "function"
    },
    {
      "inputs": [
        {
          "internalType": "address",
          "name": "owner",
          "type": "address"
        },
        {
          "internalType": "address",
          "name": "operator",
          "type": "address"
        }
      ],
      "name": "isApprovedForAll",
      "outputs": [
        {
          "internalType": "bool",
          "name": "",
          "type": "bool"
        }
      ],
      "stateMutability": "view",
      "type": "function"
    },
    {
      "inputs": [
        {
          "internalType": "bytes32",
          "name": "orderHash",
          "type": "bytes32"
        },
        {
          "internalType": "address",
          "name": "caller",
          "type": "address"
        },
        {
          "internalType": "address",
          "name": "offerer",
          "type": "address"
        },
        {
          "internalType": "bytes32",
          "name": "zoneHash",
          "type": "bytes32"
        }
      ],
      "name": "isValidOrder",
      "outputs": [
        {
          "internalType": "bytes4",
          "name": "validOrderMagicValue",
          "type": "bytes4"
        }
      ],
      "stateMutability": "view",
      "type": "function"
    },
    {
      "inputs": [
        {
          "internalType": "bytes32",
          "name": "orderHash",
          "type": "bytes32"
        },
        {
          "internalType": "address",
          "name": "caller",
          "type": "address"
        },
        {
          "components": [
            {
              "components": [
                {
                  "internalType": "address",
                  "name": "offerer",
                  "type": "address"
                },
                {
                  "internalType": "address",
                  "name": "zone",
                  "type": "address"
                },
                {
                  "components": [
                    {
                      "internalType": "enum ItemType",
                      "name": "itemType",
                      "type": "uint8"
                    },
                    {
                      "internalType": "address",
                      "name": "token",
                      "type": "address"
                    },
                    {
                      "internalType": "uint256",
                      "name": "identifierOrCriteria",
                      "type": "uint256"
                    },
                    {
                      "internalType": "uint256",
                      "name": "startAmount",
                      "type": "uint256"
                    },
                    {
                      "internalType": "uint256",
                      "name": "endAmount",
                      "type": "uint256"
                    }
                  ],
                  "internalType": "struct OfferItem[]",
                  "name": "offer",
                  "type": "tuple[]"
                },
                {
                  "components": [
                    {
                      "internalType": "enum ItemType",
                      "name": "itemType",
                      "type": "uint8"
                    },
                    {
                      "internalType": "address",
                      "name": "token",
                      "type": "address"
                    },
                    {
                      "internalType": "uint256",
                      "name": "identifierOrCriteria",
                      "type": "uint256"
                    },
                    {
                      "internalType": "uint256",
                      "name": "startAmount",
                      "type": "uint256"
                    },
                    {
                      "internalType": "uint256",
                      "name": "endAmount",
                      "type": "uint256"
                    },
                    {
                      "internalType": "address payable",
                      "name": "recipient",
                      "type": "address"
                    }
                  ],
                  "internalType": "struct ConsiderationItem[]",
                  "name": "consideration",
                  "type": "tuple[]"
                },
                {
                  "internalType": "enum OrderType",
                  "name": "orderType",
                  "type": "uint8"
                },
                {
                  "internalType": "uint256",
                  "name": "startTime",
                  "type": "uint256"
                },
                {
                  "internalType": "uint256",
                  "name": "endTime",
                  "type": "uint256"
                },
                {
                  "internalType": "bytes32",
                  "name": "zoneHash",
                  "type": "bytes32"
                },
                {
                  "internalType": "uint256",
                  "name": "salt",
                  "type": "uint256"
                },
                {
                  "internalType": "bytes32",
                  "name": "conduitKey",
                  "type": "bytes32"
                },
                {
                  "internalType": "uint256",
                  "name": "totalOriginalConsiderationItems",
                  "type": "uint256"
                }
              ],
              "internalType": "struct OrderParameters",
              "name": "parameters",
              "type": "tuple"
            },
            {
              "internalType": "uint120",
              "name": "numerator",
              "type": "uint120"
            },
            {
              "internalType": "uint120",
              "name": "denominator",
              "type": "uint120"
            },
            {
              "internalType": "bytes",
              "name": "signature",
              "type": "bytes"
            },
            {
              "internalType": "bytes",
              "name": "extraData",
              "type": "bytes"
            }
          ],
          "internalType": "struct AdvancedOrder",
          "name": "order",
          "type": "tuple"
        },
        {
          "internalType": "bytes32[]",
          "name": "priorOrderHashes",
          "type": "bytes32[]"
        },
        {
          "components": [
            {
              "internalType": "uint256",
              "name": "orderIndex",
              "type": "uint256"
            },
            {
              "internalType": "enum Side",
              "name": "side",
              "type": "uint8"
            },
            {
              "internalType": "uint256",
              "name": "index",
              "type": "uint256"
            },
            {
              "internalType": "uint256",
              "name": "identifier",
              "type": "uint256"
            },
            {
              "internalType": "bytes32[]",
              "name": "criteriaProof",
              "type": "bytes32[]"
            }
          ],
          "internalType": "struct CriteriaResolver[]",
          "name": "criteriaResolvers",
          "type": "tuple[]"
        }
      ],
      "name": "isValidOrderIncludingExtraData",
      "outputs": [
        {
          "internalType": "bytes4",
          "name": "validOrderMagicValue",
          "type": "bytes4"
        }
      ],
      "stateMutability": "view",
      "type": "function"
    },
    {
      "inputs": [
        {
          "components": [
            {
              "internalType": "address",
              "name": "offerer",
              "type": "address"
            },
            {
              "internalType": "address",
              "name": "zone",
              "type": "address"
            },
            {
              "components": [
                {
                  "internalType": "enum ItemType",
                  "name": "itemType",
                  "type": "uint8"
                },
                {
                  "internalType": "address",
                  "name": "token",
                  "type": "address"
                },
                {
                  "internalType": "uint256",
                  "name": "identifierOrCriteria",
                  "type": "uint256"
                },
                {
                  "internalType": "uint256",
                  "name": "startAmount",
                  "type": "uint256"
                },
                {
                  "internalType": "uint256",
                  "name": "endAmount",
                  "type": "uint256"
                }
              ],
              "internalType": "struct OfferItem[]",
              "name": "offer",
              "type": "tuple[]"
            },
            {
              "components": [
                {
                  "internalType": "enum ItemType",
                  "name": "itemType",
                  "type": "uint8"
                },
                {
                  "internalType": "address",
                  "name": "token",
                  "type": "address"
                },
                {
                  "internalType": "uint256",
                  "name": "identifierOrCriteria",
                  "type": "uint256"
                },
                {
                  "internalType": "uint256",
                  "name": "startAmount",
                  "type": "uint256"
                },
                {
                  "internalType": "uint256",
                  "name": "endAmount",
                  "type": "uint256"
                },
                {
                  "internalType": "address payable",
                  "name": "recipient",
                  "type": "address"
                }
              ],
              "internalType": "struct ConsiderationItem[]",
              "name": "consideration",
              "type": "tuple[]"
            },
            {
              "internalType": "enum OrderType",
              "name": "orderType",
              "type": "uint8"
            },
            {
              "internalType": "uint256",
              "name": "startTime",
              "type": "uint256"
            },
            {
              "internalType": "uint256",
              "name": "endTime",
              "type": "uint256"
            },
            {
              "internalType": "bytes32",
              "name": "zoneHash",
              "type": "bytes32"
            },
            {
              "internalType": "uint256",
              "name": "salt",
              "type": "uint256"
            },
            {
              "internalType": "bytes32",
              "name": "conduitKey",
              "type": "bytes32"
            },
            {
              "internalType": "uint256",
              "name": "totalOriginalConsiderationItems",
              "type": "uint256"
            }
          ],
          "internalType": "struct OrderParameters",
          "name": "params",
          "type": "tuple"
        }
      ],
      "name": "liquidatorNFTClaim",
      "outputs": [],
      "stateMutability": "nonpayable",
      "type": "function"
    },
    {
      "inputs": [],
      "name": "name",
      "outputs": [
        {
          "internalType": "string",
          "name": "",
          "type": "string"
        }
      ],
      "stateMutability": "view",
      "type": "function"
    },
    {
      "inputs": [
        {
          "internalType": "address",
          "name": "",
          "type": "address"
        },
        {
          "internalType": "address",
          "name": "from_",
          "type": "address"
        },
        {
          "internalType": "uint256",
          "name": "tokenId_",
          "type": "uint256"
        },
        {
          "internalType": "bytes",
          "name": "",
          "type": "bytes"
        }
      ],
      "name": "onERC721Received",
      "outputs": [
        {
          "internalType": "bytes4",
          "name": "",
          "type": "bytes4"
        }
      ],
      "stateMutability": "nonpayable",
      "type": "function"
    },
    {
      "inputs": [],
      "name": "owner",
      "outputs": [
        {
          "internalType": "address",
          "name": "",
          "type": "address"
        }
      ],
      "stateMutability": "view",
      "type": "function"
    },
    {
      "inputs": [
        {
          "internalType": "uint256",
          "name": "id",
          "type": "uint256"
        }
      ],
      "name": "ownerOf",
      "outputs": [
        {
          "internalType": "address",
          "name": "owner",
          "type": "address"
        }
      ],
      "stateMutability": "view",
      "type": "function"
    },
    {
      "inputs": [
        {
          "internalType": "uint256",
          "name": "collateralId",
          "type": "uint256"
        },
        {
          "internalType": "address",
          "name": "releaseTo",
          "type": "address"
        }
      ],
      "name": "releaseToAddress",
      "outputs": [],
      "stateMutability": "nonpayable",
      "type": "function"
    },
    {
      "inputs": [
        {
          "internalType": "address",
          "name": "from",
          "type": "address"
        },
        {
          "internalType": "address",
          "name": "to",
          "type": "address"
        },
        {
          "internalType": "uint256",
          "name": "id",
          "type": "uint256"
        }
      ],
      "name": "safeTransferFrom",
      "outputs": [],
      "stateMutability": "nonpayable",
      "type": "function"
    },
    {
      "inputs": [
        {
          "internalType": "address",
          "name": "from",
          "type": "address"
        },
        {
          "internalType": "address",
          "name": "to",
          "type": "address"
        },
        {
          "internalType": "uint256",
          "name": "id",
          "type": "uint256"
        },
        {
          "internalType": "bytes",
          "name": "data",
          "type": "bytes"
        }
      ],
      "name": "safeTransferFrom",
      "outputs": [],
      "stateMutability": "nonpayable",
      "type": "function"
    },
    {
      "inputs": [
        {
          "internalType": "address",
          "name": "target",
          "type": "address"
        }
      ],
      "name": "securityHooks",
      "outputs": [
        {
          "internalType": "address",
          "name": "",
          "type": "address"
        }
      ],
      "stateMutability": "view",
      "type": "function"
    },
    {
      "inputs": [
        {
          "internalType": "address",
          "name": "operator",
          "type": "address"
        },
        {
          "internalType": "bool",
          "name": "approved",
          "type": "bool"
        }
      ],
      "name": "setApprovalForAll",
      "outputs": [],
      "stateMutability": "nonpayable",
      "type": "function"
    },
    {
      "inputs": [
        {
          "internalType": "contract Authority",
          "name": "newAuthority",
          "type": "address"
        }
      ],
      "name": "setAuthority",
      "outputs": [],
      "stateMutability": "nonpayable",
      "type": "function"
    },
    {
      "inputs": [
        {
          "internalType": "uint256",
          "name": "collateralId",
          "type": "uint256"
        }
      ],
      "name": "settleAuction",
      "outputs": [],
      "stateMutability": "nonpayable",
      "type": "function"
    },
    {
      "inputs": [
        {
          "internalType": "bytes4",
          "name": "interfaceId",
          "type": "bytes4"
        }
      ],
      "name": "supportsInterface",
      "outputs": [
        {
          "internalType": "bool",
          "name": "",
          "type": "bool"
        }
      ],
      "stateMutability": "view",
      "type": "function"
    },
    {
      "inputs": [],
      "name": "symbol",
      "outputs": [
        {
          "internalType": "string",
          "name": "",
          "type": "string"
        }
      ],
      "stateMutability": "view",
      "type": "function"
    },
    {
      "inputs": [
        {
          "internalType": "uint256",
          "name": "collateralId",
          "type": "uint256"
        }
      ],
      "name": "tokenURI",
      "outputs": [
        {
          "internalType": "string",
          "name": "",
          "type": "string"
        }
      ],
      "stateMutability": "view",
      "type": "function"
    },
    {
      "inputs": [
        {
          "internalType": "address",
          "name": "from",
          "type": "address"
        },
        {
          "internalType": "address",
          "name": "to",
          "type": "address"
        },
        {
          "internalType": "uint256",
          "name": "id",
          "type": "uint256"
        }
      ],
      "name": "transferFrom",
      "outputs": [],
      "stateMutability": "nonpayable",
      "type": "function"
    },
    {
      "inputs": [
        {
          "internalType": "address",
          "name": "newOwner",
          "type": "address"
        }
      ],
      "name": "transferOwnership",
      "outputs": [],
      "stateMutability": "nonpayable",
      "type": "function"
    }
  ],
  "bytecode": {
    "object": "0x60806040523480156200001157600080fd5b506200001c62000022565b62000147565b60006200002e620000ef565b8054909150610100900460ff16156200009d5760405162461bcd60e51b815260206004820152602760248201527f496e697469616c697a61626c653a20636f6e747261637420697320696e697469604482015266616c697a696e6760c81b606482015260840160405180910390fd5b805460ff9081161015620000ec57805460ff191660ff90811782556040519081527f7f26b83ff96e1f2b6a682f133852f6798a09c465da95921460cefb38474024989060200160405180910390a15b50565b6000806200011f60017fe54d104cc32597338d9a7867d41ca0c8fb6144529e0565413f4b3671fc57878562000125565b92915050565b818103818111156200011f57634e487b7160e01b600052601160045260246000fd5b61466580620001576000396000f3fe608060405234801561001057600080fd5b50600436106102065760003560e01c806384eafda01161011a578063bf7e214f116100ad578063db067b431161007c578063db067b4314610455578063e71d541e14610468578063e985e9c51461049a578063f2fde38b146104ad578063f8c8765e146104c057600080fd5b8063bf7e214f14610407578063c87b56dd1461040f578063d163259a14610422578063d68265c31461044257600080fd5b8063a22cb465116100e9578063a22cb465146103bb578063b05e52fd146103ce578063b58e1c35146103e1578063b88d4fde146103f457600080fd5b806384eafda01461039057806388803a9f146103985780638da5cb5b146103ab57806395d89b41146103b357600080fd5b80632e9936111161019d5780636080d7101161016c5780636080d7101461032e578063609a8b8c146103445780636352211e1461035757806370a082311461036a5780637a9e5e4b1461037d57600080fd5b80632e993611146102ed5780633313157014610300578063387b66291461031357806342842e0e1461031b57600080fd5b8063095ea7b3116101d9578063095ea7b3146102885780630e1d31dc1461029b578063150b7a02146102c757806323b872dd146102da57600080fd5b806301ffc9a71461020b5780630330e35b1461023357806306fdde0314610248578063081812fc1461025d575b600080fd5b61021e610219366004613452565b6104d3565b60405190151581526020015b60405180910390f35b610246610241366004613496565b6104fe565b005b6102506106ca565b60405161022a9190613516565b61027061026b366004613529565b610762565b6040516001600160a01b03909116815260200161022a565b610246610296366004613542565b610789565b6102ae6102a936600461356e565b61087f565b6040516001600160e01b0319909116815260200161022a565b6102ae6102d53660046135f7565b6108c5565b6102466102e8366004613669565b610c4b565b6102466102fb366004613529565b610da7565b6102ae61030e366004613706565b610ee3565b610270610f40565b610246610329366004613669565b610f5c565b610336611054565b60405190815260200161022a565b6102466103523660046137b6565b611069565b610270610365366004613529565b6110da565b6103366103783660046137f7565b611143565b61024661038b3660046137f7565b6111b4565b6102706112af565b6102466103a6366004613814565b6112cd565b610270611749565b610250611762565b6102466103c936600461387d565b61177a565b6102466103dc3660046138ab565b6117fd565b6102466103ef366004613b98565b61183b565b6102466104023660046135f7565b611ad5565b610270611bbd565b61025061041d366004613529565b611bd9565b610435610430366004613c9d565b611c61565b60405161022a9190613e9e565b6102706104503660046137f7565b611da8565b610270610463366004613529565b611dd8565b61047b610476366004613529565b611e04565b604080516001600160a01b03909316835260208301919091520161022a565b61021e6104a8366004613eb1565b611e7e565b6102466104bb3660046137f7565b611ebb565b6102466104ce366004613edf565b611f45565b60006001600160e01b031982166309e2024360e21b14806104f857506104f88261229a565b92915050565b8160006105096122e8565b6001810154604051631a94da4760e21b8152600481018590529192506000916001600160a01b0390911690636a53691c90602401602060405180830381865afa15801561055a573d6000803e3d6000fd5b505050506040513d601f19601f8201168201806040525081019061057e9190613f3b565b146105a857600560405163fa5e5f7f60e01b815260040161059f9190613f54565b60405180910390fd5b6000828152600982016020526040902060030154156105dd57600360405163fa5e5f7f60e01b815260040161059f9190613f54565b83336105e8826110da565b6001600160a01b0316146105fb57600080fd5b60006106056122e8565b9050610610866110da565b6001600160a01b0316336001600160a01b03161461064157604051636edaef2f60e11b815260040160405180910390fd5b6000868152600982016020526040902060018101546001600160a01b031661066888612316565b815460ff19168083556040805160a081018252600081526101009092046001600160a01b0390811660208401526001850154169082015260028301546060820152600383015460808201526106c09084908a8a6123f9565b5050505050505050565b60606106d46124df565b80546106df90613f67565b80601f016020809104026020016040519081016040528092919081815260200182805461070b90613f67565b80156107585780601f1061072d57610100808354040283529160200191610758565b820191906000526020600020905b81548152906001019060200180831161073b57829003601f168201915b5050505050905090565b600061076c6124df565b60009283526004016020525060409020546001600160a01b031690565b60006107936124df565b60008381526002820160205260409020549091506001600160a01b0316338114806107e357506001600160a01b0381166000908152600583016020908152604080832033845290915290205460ff165b6108205760405162461bcd60e51b815260206004820152600e60248201526d1393d517d055551213d49256915160921b604482015260640161059f565b600083815260048301602052604080822080546001600160a01b0319166001600160a01b0388811691821790925591518693918516917f8c5be1e5ebec7d5bd14f71427d1e84f3dd0314c0f7b2291e5b200ac8c7c3b92591a450505050565b60008061088a6122e8565b600084815260078201602052604090205490915086146108b2576001600160e01b03196108bb565b6303874c7760e21b5b9695505050505050565b60006108cf6122e8565b60020160009054906101000a90046001600160a01b03166001600160a01b0316635c975abb6040518163ffffffff1660e01b8152600401602060405180830381865afa158015610923573d6000803e3d6000fd5b505050506040513d601f19601f820116820180604052508101906109479190613f9b565b1561096557604051634427925560e01b815260040160405180910390fd5b600061096f6122e8565b9050600061098933876000919091526020526034600c2090565b600081815260098401602052604090206001810154919250906001600160a01b0316610206576040516331a9108f60e11b81526004810188905230903390636352211e90602401602060405180830381865afa1580156109ed573d6000803e3d6000fd5b505050506040513d601f19601f82011682018060405250810190610a119190613fc3565b6001600160a01b031614610a2457600080fd5b805461010090046001600160a01b0316610b20576000610afd8460020160009054906101000a90046001600160a01b03166001600160a01b0316631ff0c9d66040518163ffffffff1660e01b8152600401602060405180830381865afa158015610a92573d6000803e3d6000fd5b505050506040513d601f19601f82011682018060405250810190610ab69190613fc3565b600286015460405160609190911b6001600160601b0319166020820152600360f81b60348201526035810186905260550160408051601f198184030181529190528561251e565b82546001600160a01b0390911661010002610100600160a81b0319909116178255505b8054604051632142170760e11b81523060048201526101009091046001600160a01b031660248201526044810188905233906342842e0e90606401600060405180830381600087803b158015610b7557600080fd5b505af1158015610b89573d6000803e3d6000fd5b50503330149150819050610ba9575060018301546001600160a01b031633145b15610bc7576040516368f7a67560e11b815260040160405180910390fd5b610bd18883612569565b6001810180546001600160a01b03191633908117909155600282018890556040516001600160a01b038a168152839189917fd6b6bfb15fe5be5c1a8af879e26df8c0e2470c4ad95a47a1397868b45910e8539060200160405180910390a450630a85bd0160e11b9250610c42915050565b95945050505050565b6000610c556124df565b60008381526002820160205260409020549091506001600160a01b03858116911614610cb05760405162461bcd60e51b815260206004820152600a60248201526957524f4e475f46524f4d60b01b604482015260640161059f565b6001600160a01b038316610cfa5760405162461bcd60e51b81526020600482015260116024820152701253959053125117d49150d25412515395607a1b604482015260640161059f565b336001600160a01b0385161480610d3657506001600160a01b0384166000908152600582016020908152604080832033845290915290205460ff165b80610d59575060008281526004820160205260409020546001600160a01b031633145b610d965760405162461bcd60e51b815260206004820152600e60248201526d1393d517d055551213d49256915160921b604482015260640161059f565b610da1848484612688565b50505050565b6000610db16122e8565b600083815260098201602052604090205490915061010090046001600160a01b03163314610dde57600080fd5b60008281526009820160205260409020600301541580610e9557506000828152600982016020526040908190208054600182015460029092015492516331a9108f60e11b8152600481019390935261010090046001600160a01b0390811692911690636352211e90602401602060405180830381865afa158015610e66573d6000803e3d6000fd5b505050506040513d601f19601f82011682018060405250810190610e8a9190613fc3565b6001600160a01b0316145b15610eb657600160405163fa5e5f7f60e01b815260040161059f9190613f54565b600082815260098201602052604081206003810191909155805460ff19169055610edf82612316565b5050565b600080610eee6122e8565b905088600782016000610f018a80613fe0565b60e0013560001c81526020019081526020016000205414610f2a576001600160e01b0319610f33565b6303874c7760e21b5b9998505050505050505050565b6000610f4a6122e8565b600301546001600160a01b0316919050565b610f67838383610c4b565b6001600160a01b0382163b15806110105750604051630a85bd0160e11b8082523360048301526001600160a01b03858116602484015260448301849052608060648401526000608484015290919084169063150b7a029060a4016020604051808303816000875af1158015610fe0573d6000803e3d6000fd5b505050506040513d601f19601f820116820180604052508101906110049190614001565b6001600160e01b031916145b61104f5760405162461bcd60e51b815260206004820152601060248201526f155394d0519157d49150d2541251539560821b604482015260640161059f565b505050565b60008061105f6122e8565b6006015492915050565b61107f336000356001600160e01b03191661272a565b61109b5760405162461bcd60e51b815260040161059f9061401e565b60005b8181101561104f576110d28383838181106110bb576110bb614044565b90506020028101906110cd919061405a565b6127e0565b60010161109e565b6000806110e56124df565b600084815260029190910160205260409020546001600160a01b03169150810361113e5760405162461bcd60e51b815260206004820152600a6024820152691393d517d3525395115160b21b604482015260640161059f565b919050565b60006001600160a01b03821661118a5760405162461bcd60e51b815260206004820152600c60248201526b5a45524f5f4144445245535360a01b604482015260640161059f565b6111926124df565b6001600160a01b03909216600090815260039290920160205250604090205490565b60006111be612c67565b80549091506001600160a01b03163314806112575750600181015460405163b700961360e01b81526001600160a01b039091169063b70096139061121690339030906001600160e01b03196000351690600401614070565b602060405180830381865afa158015611233573d6000803e3d6000fd5b505050506040513d601f19601f820116820180604052508101906112579190613f9b565b61126057600080fd5b6001810180546001600160a01b0319166001600160a01b03841690811790915560405133907fa3396fd7f6e0a21b50e5089d2da70d5ac0a3bbbd1f617a93f134b7638998019890600090a35050565b6000806112ba6122e8565b600501546001600160a01b031692915050565b82336112d8826110da565b6001600160a01b0316146112eb57600080fd5b60008060006112f86122e8565b905061130387611e04565b6001600160a01b0382166000908152600884016020526040902054919450925060ff1661134657600260405163fa5e5f7f60e01b815260040161059f9190613f54565b6001810154604051631a94da4760e21b8152600481018990526d20a1aa24ab22afa0aaa1aa24a7a760911b916001600160a01b031690636a53691c90602401602060405180830381865afa1580156113a2573d6000803e3d6000fd5b505050506040513d601f19601f820116820180604052508101906113c69190613f3b565b036113e757600360405163fa5e5f7f60e01b815260040161059f9190613f54565b6001600160a01b038084166000908152600a83016020526040812054909116801561148057604051631782048560e31b81526001600160a01b0386811660048301526024820186905282169063bc10242890604401602060405180830381865afa158015611459573d6000803e3d6000fd5b505050506040513d601f19601f8201168201806040525081019061147d9190613f3b565b91505b600089815260098401602052604090819020549051630f1f4da160e21b81526001600160a01b038781166004830152602482018790528c8116604483015261010090920490911690633c7d368490606401600060405180830381600087803b1580156114eb57600080fd5b505af11580156114ff573d6000803e3d6000fd5b50506040805160608101825260008d8152600988016020908152908390205461010090046001600160a01b0390811683528a81169183019190915281830189905291516315b1e65160e11b81527faa25e84734a4b82484cf83d828b61c4d597ef4bdc387f66fbb53e460a4de6f869450918e169250632b63cca29161158b91908d908d906004016140c6565b6020604051808303816000875af11580156115aa573d6000803e3d6000fd5b505050506040513d601f19601f820116820180604052508101906115ce9190613f3b565b146115ec57604051633c6771ff60e21b815260040160405180910390fd5b6001600160a01b038116158015906116745750604051631782048560e31b81526001600160a01b0386811660048301526024820186905282169063bc10242890604401602060405180830381865afa15801561164c573d6000803e3d6000fd5b505050506040513d601f19601f820116820180604052508101906116709190613f3b565b8214155b1561169257604051636cfcd84960e11b815260040160405180910390fd5b6000898152600984016020526040908190205490516331a9108f60e11b8152600481018690526001600160a01b03610100909204821691871690636352211e90602401602060405180830381865afa1580156116f2573d6000803e3d6000fd5b505050506040513d601f19601f820116820180604052508101906117169190613fc3565b6001600160a01b03161461173d57604051633102ff8f60e01b815260040160405180910390fd5b50505050505050505050565b6000611753612c67565b546001600160a01b0316919050565b606061176c6124df565b60010180546106df90613f67565b806117836124df565b336000818152600592909201602090815260408084206001600160a01b038816808652925292839020805494151560ff199095169490941790935590517f17307eab39ab6107e8899845ad3d59bd9653f200f220920489ca2b5937696c31906117f190851515815260200190565b60405180910390a35050565b611813336000356001600160e01b03191661272a565b61182f5760405162461bcd60e51b815260040161059f9061401e565b611838816127e0565b50565b60006118456122e8565b905060006118a9836040015160008151811061186357611863614044565b602002602001015160400151846040015160008151811061188657611886614044565b6020026020010151602001516001600160a01b031661250d90919063ffffffff16565b60008181526009840160205260409020600301549091506118e057600160405163fa5e5f7f60e01b815260040161059f9190613f54565b6000818152600983016020526040808220548151636a67acc560e01b815291516101009091046001600160a01b031691636a67acc591600480830192869291908290030181865afa158015611939573d6000803e3d6000fd5b505050506040513d6000823e601f3d908101601f1916820160405261196191908101906141b2565b608001519050836040516020016119789190613e9e565b60408051601f198184030181529181528151602092830120600085815260098701909352912060030154146119c357600460405163fa5e5f7f60e01b815260040161059f9190613f54565b8360c001514210156119eb57600360405163fa5e5f7f60e01b815260040161059f9190613f54565b60008281526009840160208181526040808420815160a081018352815460ff8116151582526001600160a01b0361010090910481168286018190526001840154909116828501819052600284015460608401819052600390940154608084015289885295909452825163b06b41f960e01b815292519095919392839263b06b41f99260048084019382900301818387803b158015611a8857600080fd5b505af1158015611a9c573d6000803e3d6000fd5b50505050611aac878588886123f9565b600086815260098801602052604081206003810191909155805460ff191690556106c086612316565b611ae0858585610c4b565b6001600160a01b0384163b1580611b775750604051630a85bd0160e11b808252906001600160a01b0386169063150b7a0290611b289033908a90899089908990600401614276565b6020604051808303816000875af1158015611b47573d6000803e3d6000fd5b505050506040513d601f19601f82011682018060405250810190611b6b9190614001565b6001600160e01b031916145b611bb65760405162461bcd60e51b815260206004820152601060248201526f155394d0519157d49150d2541251539560821b604482015260640161059f565b5050505050565b6000611bc7612c67565b600101546001600160a01b0316919050565b6060600080611be784611e04565b60405163c87b56dd60e01b81526004810182905291935091506001600160a01b0383169063c87b56dd90602401600060405180830381865afa158015611c31573d6000803e3d6000fd5b505050506040513d6000823e601f3d908101601f19168201604052611c599190810190614318565b949350505050565b611c696133bf565b611c7f336000356001600160e01b03191661272a565b611c9b5760405162461bcd60e51b815260040161059f9061401e565b6000611ca56122e8565b6040805160028082526060820183529293506000929091602083019080368337019050509050836060013581600081518110611ce357611ce3614044565b602002602001018181525050836080013581600181518110611d0757611d07614044565b602002602001018181525050611d3a82856000016020810190611d2a91906137f7565b8660200135848860400135612c95565b9250611da1828560200135604051806040016040528087815260200160006001600160401b03811115611d6f57611d6f6138e5565b6040519080825280601f01601f191660200182016040528015611d99576020820181803683370190505b509052613055565b5050919050565b6000611db26122e8565b6001600160a01b039283166000908152600a919091016020526040902054909116919050565b6000611de26122e8565b600092835260090160205250604090205461010090046001600160a01b031690565b6000806000611e116122e8565b60009485526009016020908152604094859020855160a081018752815460ff8116151582526001600160a01b036101009091048116938201939093526001820154909216958201869052600281015460608301819052600390910154608090920191909152939492505050565b6000611e886124df565b6001600160a01b039384166000908152600591909101602090815260408083209490951682529290925250205460ff1690565b611ed1336000356001600160e01b03191661272a565b611eed5760405162461bcd60e51b815260040161059f9061401e565b6000611ef7612c67565b80546001600160a01b0319166001600160a01b03841690811782556040519192509033907f8be0079c531659141344cd1fd0a4f28419497f9722a3daafe3b4186f6b6457e090600090a35050565b6000611f4f61319f565b8054909150610100900460ff1615808015611f7057508154600160ff909116105b80611f895750303b158015611f895750815460ff166001145b611fec5760405162461bcd60e51b815260206004820152602e60248201527f496e697469616c697a61626c653a20636f6e747261637420697320616c72656160448201526d191e481a5b9a5d1a585b1a5e995960921b606482015260840161059f565b815460ff19166001178255801561200b57815461ff0019166101001782555b61201533876131cd565b61206f6040518060400160405280601881526020017f4173746172696120436f6c6c61746572616c20546f6b656e0000000000000000815250604051806040016040528060038152602001621050d560ea1b8152506132bc565b60006120796122e8565b80546001600160a01b038089166001600160a01b0319928316178355600183018054898316908416179055600383018054918816919092168117909155604080516303d1eddd60e61b8152905192935060009263f47b77409160048082019286929091908290030181865afa1580156120f6573d6000803e3d6000fd5b505050506040513d6000823e601f3d908101601f1916820160405261211e919081019061434c565b925060009150503060601b6001600160601b03191660068401819055600480850180546001600160a01b0319166001600160a01b038616908117909155604051631e5164ef60e21b815291820183905230602483015291925063794593bc906044016020604051808303816000875af115801561219f573d6000803e3d6000fd5b505050506040513d601f19601f820116820180604052508101906121c39190613fc3565b6005840180546001600160a01b0319166001600160a01b039283169081179091556004808601546040516313ad9cab60e01b8152918201929092528883166024820152600160448201529116906313ad9cab90606401600060405180830381600087803b15801561223357600080fd5b505af1158015612247573d6000803e3d6000fd5b50505050505050801561229257815461ff0019168255604051600181527f7f26b83ff96e1f2b6a682f133852f6798a09c465da95921460cefb38474024989060200160405180910390a15b505050505050565b60006301ffc9a760e01b6001600160e01b0319831614806122cb57506380ac58cd60e01b6001600160e01b03198316145b806104f85750506001600160e01b031916635b5e139f60e01b1490565b6000806104f860017feb3d65abb24ad4e157eb73531bc0123773bad5b24c4b6490cdc684bfa46d7d496143bc565b60006123206124df565b60008381526002820160205260409020549091506001600160a01b0316806123775760405162461bcd60e51b815260206004820152600a6024820152691393d517d3525395115160b21b604482015260640161059f565b6001600160a01b03811660008181526003840160209081526040808320805460001901905586835260028601825280832080546001600160a01b0319908116909155600487019092528083208054909216909155518592907fddf252ad1be2c89b69c2b068fc378daa952ba7f163c4a11628f55a4df523b3ef908390a4505050565b600082815260098501602052604090819020548482015160608601519251630f1f4da160e21b81526001600160a01b039182166004820152602481019390935283811660448401526101009091041690633c7d368490606401600060405180830381600087803b15801561246c57600080fd5b505af1158015612480573d6000803e3d6000fd5b50505050806001600160a01b031683604001516001600160a01b03167fef3539ded9c4dd21e2549099e61175b76a6090b26b0ea7bea4e25c9d8ab8b41885606001516040516124d191815260200190565b60405180910390a350505050565b6000806104f860017ffc8793c2139a57fdc041f52e5a6e70e2c8f6402d67cb75321c29bc8c4ab736ab6143bc565b6000919091526020526034600c2090565b600080600061252d86866132e2565b915091508381836000f592506001600160a01b03831661256057604051631d7fde3160e31b815260040160405180910390fd5b50509392505050565b6001600160a01b0382166125b35760405162461bcd60e51b81526020600482015260116024820152701253959053125117d49150d25412515395607a1b604482015260640161059f565b60006125bd6124df565b60008381526002820160205260409020549091506001600160a01b0316156126185760405162461bcd60e51b815260206004820152600e60248201526d1053149150511657d3525395115160921b604482015260640161059f565b6001600160a01b03831660008181526003830160209081526040808320805460010190558583526002850190915280822080546001600160a01b0319168417905551849291907fddf252ad1be2c89b69c2b068fc378daa952ba7f163c4a11628f55a4df523b3ef908290a4505050565b60006126926124df565b6001600160a01b038086166000818152600384016020908152604080832080546000190190559388168083528483208054600101905587835260028601825284832080546001600160a01b03199081168317909155600487019092528483208054909216909155925193945085937fddf252ad1be2c89b69c2b068fc378daa952ba7f163c4a11628f55a4df523b3ef9190a450505050565b600080612735612c67565b60018101549091506001600160a01b031680158015906127c1575060405163b700961360e01b81526001600160a01b0382169063b70096139061278090889030908990600401614070565b602060405180830381865afa15801561279d573d6000803e3d6000fd5b505050506040513d601f19601f820116820180604052508101906127c19190613f9b565b80610c42575081546001600160a01b0386811691161495945050505050565b60006127ea6122e8565b905060006127fb60208401846143cf565b9050600061280c60208501856143f0565b8080601f0160208091040260200160405190810160405280939291908181526020018383808284376000920191909152509293506001925061284c915050565b82600481111561285e5761285e613cb9565b036128a1576000818060200190518101906128799190613fc3565b6002850180546001600160a01b0319166001600160a01b039290921691909117905550612c28565b60028260048111156128b5576128b5613cb9565b0361290757600080828060200190518101906128d19190614436565b6001600160a01b039182166000908152600a88016020526040902080546001600160a01b0319169190921617905550612c289050565b600382600481111561291b5761291b613cb9565b0361296a57600080828060200190518101906129379190614465565b6001600160a01b039190911660009081526008870160205260409020805460ff191691151591909117905550612c289050565b600482600481111561297e5761297e613cb9565b03612c0f57808060200190518101906129979190613fc3565b6003840180546001600160a01b0319166001600160a01b03929092169182179055604080516303d1eddd60e61b815290516000929163f47b774091600480830192869291908290030181865afa1580156129f5573d6000803e3d6000fd5b505050506040513d6000823e601f3d908101601f19168201604052612a1d919081019061434c565b60068701549093509150612a419050573060601b6001600160601b03191660068501555b600484810180546001600160a01b0319166001600160a01b0384169081179091556006860154604051636e9bfd9f60e01b815292830152600091829190636e9bfd9f906024016040805180830381865afa158015612aa3573d6000803e3d6000fd5b505050506040513d601f19601f82011682018060405250810190612ac79190614465565b9150915080612b6f576004868101546006880154604051631e5164ef60e21b8152928301523060248301526001600160a01b03169063794593bc906044016020604051808303816000875af1158015612b24573d6000803e3d6000fd5b505050506040513d601f19601f82011682018060405250810190612b489190613fc3565b6005870180546001600160a01b0319166001600160a01b0392909216919091179055612b8d565b6005860180546001600160a01b0319166001600160a01b0384161790555b600486810154600588015460038901546040516313ad9cab60e01b81526001600160a01b0392831694810194909452811660248401526001604484015216906313ad9cab90606401600060405180830381600087803b158015612bef57600080fd5b505af1158015612c03573d6000803e3d6000fd5b50505050505050612c28565b6040516345f279ab60e01b815260040160405180910390fd5b7f4aa20127da97281124f6c5bf77f293274afb4745d8b41b9c40434f8e51ac7c818282604051612c59929190614494565b60405180910390a150505050565b6000806104f860017f39509ba13edbf55c1c882ff847dd8db4cc4806e85b9952f85673490851bc713b6143bc565b612c9d6133bf565b604080516001808252818301909252600091816020015b612cf06040805160a08101909152806000815260200160006001600160a01b031681526020016000815260200160008152602001600081525090565b815260200190600190039081612cb4579050506000868152600989016020908152604091829020825160a08082018552825460ff8116151583526001600160a01b0361010090910481169483019490945260018301549093168185015260028083015460608301526003909201546080820152835192830190935292935090918190815260200182604001516001600160a01b031681526020018260600151815260200160018152602001600181525082600081518110612db357612db3614044565b602090810291909101015260408051600280825260608201909252600091816020015b6040805160c08101825260008082526020808301829052928201819052606082018190526080820181905260a08201528252600019909201910181612dd6579050506040805160c081019091529091508060018152602001896001600160a01b031681526020016000815260200187600081518110612e5757612e57614044565b6020026020010151815260200187600181518110612e7757612e77614044565b602090810291909101810151825260008a815260098d018252604081205461010090046001600160a01b031692909101919091528251839190612ebc57612ebc614044565b60209081029190910101526040805160c081019091528060038152600089815260098c01602090815260408083205461010090046001600160a01b03169184019190915282018a90528851606090920191899190612f1c57612f1c614044565b6020026020010151815260200187600181518110612f3c57612f3c614044565b602090810291909101810151825260008a815260098d018252604090205461010090046001600160a01b0316910152815182906001908110612f8057612f80614044565b602090810291909101810191909152604080516101608101825260008a815260098d0184528281205461010090046001600160a01b0316825230938201939093529081018590526060810183905290608082019081526020014281526020018642612feb91906144bd565b815260208101899052604001886130036001436143bc565b60405161301e92914090602001918252602082015260400190565b60408051601f19818403018152918152815160209283012083526006909c0154908201529151919099015250959695505050505050565b6006830154815161012001511461307f57604051634f38bef960e11b815260040160405180910390fd5b8051602001516001600160a01b031630146130ad57604051639d3c586b60e01b815260040160405180910390fd5b6000828152600984016020526040908190205490516367231ac360e11b81526101009091046001600160a01b03169063ce463586906130f09084906004016144fe565b600060405180830381600087803b15801561310a57600080fd5b505af115801561311e573d6000803e3d6000fd5b505050507fc8cbd72919e48975a97a1ddde66fd8043eb9d4495c8d41aeccf83a96e45a1c6a8282604051613153929190614511565b60405180910390a1805160405161316d9190602001613e9e565b60408051601f198184030181529181528151602092830120600094855260099095019091529091206003019190915550565b6000806104f860017fe54d104cc32597338d9a7867d41ca0c8fb6144529e0565413f4b3671fc5787856143bc565b60006131d7612c67565b80549091506001600160a01b0316156132285760405162461bcd60e51b8152602060048201526013602482015272105b1c9958591e481a5b9a5d1a585b1a5e9959606a1b604482015260640161059f565b80546001600160a01b03199081166001600160a01b0385811691821784556001840180549093169085161790915560405133907f8be0079c531659141344cd1fd0a4f28419497f9722a3daafe3b4186f6b6457e090600090a36040516001600160a01b0383169033907fa3396fd7f6e0a21b50e5089d2da70d5ac0a3bbbd1f617a93f134b7638998019890600090a3505050565b60006132c66124df565b9050806132d38482614570565b5060018101610da18382614570565b8051604051606160f81b81526039820160f081811b60018401526f3d81600a3d39f33d3d3d3d363d3d376160801b600384015260028401901b601383018190526560373639366160d01b6015840152601b83015262013d7360e81b601d830152606085901b6020808401919091526c5af43d3d93803e603557fd5bf360981b603484015291926043810192909190850182604186015b602082106133975782518152602092830192601f199092019101613378565b915160001960208390036101000a011916825260f09390931b920191909152505b9250929050565b60405180610160016040528060006001600160a01b0316815260200160006001600160a01b0316815260200160608152602001606081526020016000600381111561340c5761340c613cb9565b815260006020820181905260408201819052606082018190526080820181905260a0820181905260c09091015290565b6001600160e01b03198116811461183857600080fd5b60006020828403121561346457600080fd5b813561346f8161343c565b9392505050565b6001600160a01b038116811461183857600080fd5b803561113e81613476565b600080604083850312156134a957600080fd5b8235915060208301356134bb81613476565b809150509250929050565b60005b838110156134e15781810151838201526020016134c9565b50506000910152565b600081518084526135028160208601602086016134c6565b601f01601f19169290920160200192915050565b60208152600061346f60208301846134ea565b60006020828403121561353b57600080fd5b5035919050565b6000806040838503121561355557600080fd5b823561356081613476565b946020939093013593505050565b6000806000806080858703121561358457600080fd5b84359350602085013561359681613476565b925060408501356135a681613476565b9396929550929360600135925050565b60008083601f8401126135c857600080fd5b5081356001600160401b038111156135df57600080fd5b6020830191508360208285010111156133b857600080fd5b60008060008060006080868803121561360f57600080fd5b853561361a81613476565b9450602086013561362a81613476565b93506040860135925060608601356001600160401b0381111561364c57600080fd5b613658888289016135b6565b969995985093965092949392505050565b60008060006060848603121561367e57600080fd5b833561368981613476565b9250602084013561369981613476565b929592945050506040919091013590565b600060a082840312156136bc57600080fd5b50919050565b60008083601f8401126136d457600080fd5b5081356001600160401b038111156136eb57600080fd5b6020830191508360208260051b85010111156133b857600080fd5b600080600080600080600060a0888a03121561372157600080fd5b87359650602088013561373381613476565b955060408801356001600160401b038082111561374f57600080fd5b61375b8b838c016136aa565b965060608a013591508082111561377157600080fd5b61377d8b838c016136c2565b909650945060808a013591508082111561379657600080fd5b506137a38a828b016136c2565b989b979a50959850939692959293505050565b600080602083850312156137c957600080fd5b82356001600160401b038111156137df57600080fd5b6137eb858286016136c2565b90969095509350505050565b60006020828403121561380957600080fd5b813561346f81613476565b6000806000806060858703121561382a57600080fd5b843561383581613476565b93506020850135925060408501356001600160401b0381111561385757600080fd5b613863878288016135b6565b95989497509550505050565b801515811461183857600080fd5b6000806040838503121561389057600080fd5b823561389b81613476565b915060208301356134bb8161386f565b6000602082840312156138bd57600080fd5b81356001600160401b038111156138d357600080fd5b82016040818503121561346f57600080fd5b634e487b7160e01b600052604160045260246000fd5b60405160a081016001600160401b038111828210171561391d5761391d6138e5565b60405290565b60405160c081016001600160401b038111828210171561391d5761391d6138e5565b60405161016081016001600160401b038111828210171561391d5761391d6138e5565b604051606081016001600160401b038111828210171561391d5761391d6138e5565b60405160e081016001600160401b038111828210171561391d5761391d6138e5565b604051601f8201601f191681016001600160401b03811182821017156139d4576139d46138e5565b604052919050565b60006001600160401b038211156139f5576139f56138e5565b5060051b60200190565b80356006811061113e57600080fd5b600082601f830112613a1f57600080fd5b81356020613a34613a2f836139dc565b6139ac565b82815260a09283028501820192828201919087851115613a5357600080fd5b8387015b85811015613abe5781818a031215613a6f5760008081fd5b613a776138fb565b613a80826139ff565b815285820135613a8f81613476565b818701526040828101359082015260608083013590820152608080830135908201528452928401928101613a57565b5090979650505050505050565b600082601f830112613adc57600080fd5b81356020613aec613a2f836139dc565b82815260c09283028501820192828201919087851115613b0b57600080fd5b8387015b85811015613abe5781818a031215613b275760008081fd5b613b2f613923565b613b38826139ff565b815285820135613b4781613476565b8187015260408281013590820152606080830135908201526080808301359082015260a080830135613b7881613476565b908201528452928401928101613b0f565b80356004811061113e57600080fd5b600060208284031215613baa57600080fd5b81356001600160401b0380821115613bc157600080fd5b908301906101608286031215613bd657600080fd5b613bde613945565b613be78361348b565b8152613bf56020840161348b565b6020820152604083013582811115613c0c57600080fd5b613c1887828601613a0e565b604083015250606083013582811115613c3057600080fd5b613c3c87828601613acb565b606083015250613c4e60808401613b89565b608082015260a0838101359082015260c0808401359082015260e08084013590820152610100808401359082015261012080840135908201526101409283013592810192909252509392505050565b600060a08284031215613caf57600080fd5b61346f83836136aa565b634e487b7160e01b600052602160045260246000fd5b6006811061183857611838613cb9565b600081518084526020808501945080840160005b83811015613d4b5781518051613d0881613ccf565b8852808401516001600160a01b03168489015260408082015190890152606080820151908901526080908101519088015260a09096019590820190600101613cf3565b509495945050505050565b600081518084526020808501945080840160005b83811015613d4b5781518051613d7f81613ccf565b8852808401516001600160a01b03908116858a0152604080830151908a0152606080830151908a0152608080830151908a015260a091820151169088015260c09096019590820190600101613d6a565b60048110613ddf57613ddf613cb9565b9052565b80516001600160a01b0316825260006101606020830151613e0f60208601826001600160a01b03169052565b506040830151816040860152613e2782860182613cdf565b91505060608301518482036060860152613e418282613d56565b9150506080830151613e566080860182613dcf565b5060a0838101519085015260c0808401519085015260e08084015190850152610100808401519085015261012080840151908501526101409283015192909301919091525090565b60208152600061346f6020830184613de3565b60008060408385031215613ec457600080fd5b8235613ecf81613476565b915060208301356134bb81613476565b60008060008060808587031215613ef557600080fd5b8435613f0081613476565b93506020850135613f1081613476565b92506040850135613f2081613476565b91506060850135613f3081613476565b939692955090935050565b600060208284031215613f4d57600080fd5b5051919050565b60208101613f6183613ccf565b91905290565b600181811c90821680613f7b57607f821691505b6020821081036136bc57634e487b7160e01b600052602260045260246000fd5b600060208284031215613fad57600080fd5b815161346f8161386f565b805161113e81613476565b600060208284031215613fd557600080fd5b815161346f81613476565b6000823561015e19833603018112613ff757600080fd5b9190910192915050565b60006020828403121561401357600080fd5b815161346f8161343c565b6020808252600c908201526b15539055551213d49256915160a21b604082015260600190565b634e487b7160e01b600052603260045260246000fd5b60008235603e19833603018112613ff757600080fd5b6001600160a01b0393841681529190921660208201526001600160e01b0319909116604082015260600190565b81835281816020850137506000828201602090810191909152601f909101601f19169091010190565b600060018060a01b03808651168352806020870151166020840152506040850151604083015260806060830152610c4260808301848661409d565b805165ffffffffffff8116811461113e57600080fd5b600082601f83011261412857600080fd5b81516020614138613a2f836139dc565b8281526060928302850182019282820191908785111561415757600080fd5b8387015b85811015613abe5781818a0312156141735760008081fd5b61417b613968565b81518152858201518682015260408083015164ffffffffff811681146141a15760008081fd5b90820152845292840192810161415b565b6000602082840312156141c457600080fd5b81516001600160401b03808211156141db57600080fd5b9083019060e082860312156141ef57600080fd5b6141f761398a565b825181526020830151602082015261421160408401614101565b604082015261422260608401614101565b606082015261423360808401613fb8565b608082015261424460a08401613fb8565b60a082015260c08301518281111561425b57600080fd5b61426787828601614117565b60c08301525095945050505050565b6001600160a01b03868116825285166020820152604081018490526080606082018190526000906142aa908301848661409d565b979650505050505050565b600082601f8301126142c657600080fd5b81516001600160401b038111156142df576142df6138e5565b6142f2601f8201601f19166020016139ac565b81815284602083860101111561430757600080fd5b611c598260208301602087016134c6565b60006020828403121561432a57600080fd5b81516001600160401b0381111561434057600080fd5b611c59848285016142b5565b60008060006060848603121561436157600080fd5b83516001600160401b0381111561437757600080fd5b614383868287016142b5565b93505060208401519150604084015161439b81613476565b809150509250925092565b634e487b7160e01b600052601160045260246000fd5b818103818111156104f8576104f86143a6565b6000602082840312156143e157600080fd5b81356005811061346f57600080fd5b6000808335601e1984360301811261440757600080fd5b8301803591506001600160401b0382111561442157600080fd5b6020019150368190038213156133b857600080fd5b6000806040838503121561444957600080fd5b825161445481613476565b60208401519092506134bb81613476565b6000806040838503121561447857600080fd5b825161448381613476565b60208401519092506134bb8161386f565b6000600584106144a6576144a6613cb9565b83825260406020830152611c5960408301846134ea565b808201808211156104f8576104f86143a6565b60008151604084526144e56040850182613de3565b905060208301518482036020860152610c4282826134ea565b60208152600061346f60208301846144d0565b828152604060208201526000611c5960408301846144d0565b601f82111561104f57600081815260208120601f850160051c810160208610156145515750805b601f850160051c820191505b818110156122925782815560010161455d565b81516001600160401b03811115614589576145896138e5565b61459d816145978454613f67565b8461452a565b602080601f8311600181146145d257600084156145ba5750858301515b600019600386901b1c1916600185901b178555612292565b600085815260208120601f198616915b82811015614601578886015182559484019460019091019084016145e2565b508582101561461f5787850151600019600388901b60f8161c191681555b5050505050600190811b0190555056fea2646970667358221220eabf2b0ee5c78b08bed59424bad0787c2321bffe9bcf4e6097f480f871825f9e64736f6c63430008110033",
    "linkReferences": {}
  },
  "methodIdentifiers": {
    "SEAPORT()": "387b6629",
    "approve(address,uint256)": "095ea7b3",
    "auctionVault((address,uint256,uint256,uint256,uint256))": "d163259a",
    "authority()": "bf7e214f",
    "balanceOf(address)": "70a08231",
    "file((uint8,bytes))": "b05e52fd",
    "fileBatch((uint8,bytes)[])": "609a8b8c",
    "flashAction(address,uint256,bytes)": "88803a9f",
    "getApproved(uint256)": "081812fc",
    "getClearingHouse(uint256)": "db067b43",
    "getConduit()": "84eafda0",
    "getConduitKey()": "6080d710",
    "getUnderlying(uint256)": "e71d541e",
    "initialize(address,address,address,address)": "f8c8765e",
    "isApprovedForAll(address,address)": "e985e9c5",
    "isValidOrder(bytes32,address,address,bytes32)": "0e1d31dc",
    "isValidOrderIncludingExtraData(bytes32,address,((address,address,(uint8,address,uint256,uint256,uint256)[],(uint8,address,uint256,uint256,uint256,address)[],uint8,uint256,uint256,bytes32,uint256,bytes32,uint256),uint120,uint120,bytes,bytes),bytes32[],(uint256,uint8,uint256,uint256,bytes32[])[])": "33131570",
    "liquidatorNFTClaim((address,address,(uint8,address,uint256,uint256,uint256)[],(uint8,address,uint256,uint256,uint256,address)[],uint8,uint256,uint256,bytes32,uint256,bytes32,uint256))": "b58e1c35",
    "name()": "06fdde03",
    "onERC721Received(address,address,uint256,bytes)": "150b7a02",
    "owner()": "8da5cb5b",
    "ownerOf(uint256)": "6352211e",
    "releaseToAddress(uint256,address)": "0330e35b",
    "safeTransferFrom(address,address,uint256)": "42842e0e",
    "safeTransferFrom(address,address,uint256,bytes)": "b88d4fde",
    "securityHooks(address)": "d68265c3",
    "setApprovalForAll(address,bool)": "a22cb465",
    "setAuthority(address)": "7a9e5e4b",
    "settleAuction(uint256)": "2e993611",
    "supportsInterface(bytes4)": "01ffc9a7",
    "symbol()": "95d89b41",
    "tokenURI(uint256)": "c87b56dd",
    "transferFrom(address,address,uint256)": "23b872dd",
    "transferOwnership(address)": "f2fde38b"
  },
  "id": 147
}