{
  "abi": [
    {
      "inputs": [
        {
          "internalType": "contract Authority",
          "name": "_AUTHORITY",
          "type": "address"
        },
        {
          "internalType": "contract ITransferProxy",
          "name": "_TRANSFER_PROXY",
          "type": "address"
        },
        {
          "internalType": "address",
          "name": "_WETH",
          "type": "address"
        }
      ],
      "stateMutability": "nonpayable",
      "type": "constructor"
    },
    {
      "inputs": [
        {
          "internalType": "uint256",
          "name": "lienMaxAmount",
          "type": "uint256"
        },
        {
          "internalType": "uint256",
          "name": "owed",
          "type": "uint256"
        }
      ],
      "name": "InvalidBuyoutDetails",
      "type": "error"
    },
    {
      "inputs": [
        {
          "internalType": "enum ILienToken.InvalidStates",
          "name": "",
          "type": "uint8"
        }
      ],
      "name": "InvalidCollateralState",
      "type": "error"
    },
    {
      "inputs": [],
      "name": "InvalidLoanState",
      "type": "error"
    },
    {
      "inputs": [],
      "name": "InvalidRefinance",
      "type": "error"
    },
    {
      "inputs": [
        {
          "internalType": "enum ILienToken.InvalidStates",
          "name": "",
          "type": "uint8"
        }
      ],
      "name": "InvalidState",
      "type": "error"
    },
    {
      "inputs": [],
      "name": "InvalidTerms",
      "type": "error"
    },
    {
      "inputs": [],
      "name": "UnsupportedFile",
      "type": "error"
    },
    {
      "anonymous": false,
      "inputs": [
        {
          "indexed": true,
          "internalType": "uint256",
          "name": "collateralId",
          "type": "uint256"
        },
        {
          "indexed": false,
          "internalType": "uint8",
          "name": "position",
          "type": "uint8"
        },
        {
          "indexed": true,
          "internalType": "uint256",
          "name": "lienId",
          "type": "uint256"
        },
        {
          "components": [
            {
              "components": [
                {
                  "internalType": "address",
                  "name": "token",
                  "type": "address"
                },
                {
                  "internalType": "address",
                  "name": "vault",
                  "type": "address"
                },
                {
                  "internalType": "bytes32",
                  "name": "strategyRoot",
                  "type": "bytes32"
                },
                {
                  "internalType": "uint256",
                  "name": "collateralId",
                  "type": "uint256"
                },
                {
                  "components": [
                    {
                      "internalType": "uint256",
                      "name": "maxAmount",
                      "type": "uint256"
                    },
                    {
                      "internalType": "uint256",
                      "name": "rate",
                      "type": "uint256"
                    },
                    {
                      "internalType": "uint256",
                      "name": "duration",
                      "type": "uint256"
                    },
                    {
                      "internalType": "uint256",
                      "name": "maxPotentialDebt",
                      "type": "uint256"
                    },
                    {
                      "internalType": "uint256",
                      "name": "liquidationInitialAsk",
                      "type": "uint256"
                    }
                  ],
                  "internalType": "struct ILienToken.Details",
                  "name": "details",
                  "type": "tuple"
                }
              ],
              "internalType": "struct ILienToken.Lien",
              "name": "lien",
              "type": "tuple"
            },
            {
              "components": [
                {
                  "internalType": "uint88",
                  "name": "amount",
                  "type": "uint88"
                },
                {
                  "internalType": "uint8",
                  "name": "position",
                  "type": "uint8"
                },
                {
                  "internalType": "uint40",
                  "name": "last",
                  "type": "uint40"
                },
                {
                  "internalType": "uint40",
                  "name": "end",
                  "type": "uint40"
                },
                {
                  "internalType": "uint256",
                  "name": "lienId",
                  "type": "uint256"
                }
              ],
              "internalType": "struct ILienToken.Point",
              "name": "point",
              "type": "tuple"
            }
          ],
          "indexed": false,
          "internalType": "struct ILienToken.Stack",
          "name": "stack",
          "type": "tuple"
        }
      ],
      "name": "AddLien",
      "type": "event"
    },
    {
      "anonymous": false,
      "inputs": [
        {
          "indexed": true,
          "internalType": "address",
          "name": "owner",
          "type": "address"
        },
        {
          "indexed": true,
          "internalType": "address",
          "name": "spender",
          "type": "address"
        },
        {
          "indexed": true,
          "internalType": "uint256",
          "name": "id",
          "type": "uint256"
        }
      ],
      "name": "Approval",
      "type": "event"
    },
    {
      "anonymous": false,
      "inputs": [
        {
          "indexed": true,
          "internalType": "address",
          "name": "owner",
          "type": "address"
        },
        {
          "indexed": true,
          "internalType": "address",
          "name": "operator",
          "type": "address"
        },
        {
          "indexed": false,
          "internalType": "bool",
          "name": "approved",
          "type": "bool"
        }
      ],
      "name": "ApprovalForAll",
      "type": "event"
    },
    {
      "anonymous": false,
      "inputs": [
        {
          "indexed": true,
          "internalType": "address",
          "name": "user",
          "type": "address"
        },
        {
          "indexed": true,
          "internalType": "contract Authority",
          "name": "newAuthority",
          "type": "address"
        }
      ],
      "name": "AuthorityUpdated",
      "type": "event"
    },
    {
      "anonymous": false,
      "inputs": [
        {
          "indexed": true,
          "internalType": "address",
          "name": "buyer",
          "type": "address"
        },
        {
          "indexed": false,
          "internalType": "uint256",
          "name": "lienId",
          "type": "uint256"
        },
        {
          "indexed": false,
          "internalType": "uint256",
          "name": "buyout",
          "type": "uint256"
        }
      ],
      "name": "BuyoutLien",
      "type": "event"
    },
    {
      "anonymous": false,
      "inputs": [
        {
          "indexed": false,
          "internalType": "enum ILienToken.FileType",
          "name": "what",
          "type": "uint8"
        },
        {
          "indexed": false,
          "internalType": "bytes",
          "name": "data",
          "type": "bytes"
        }
      ],
      "name": "FileUpdated",
      "type": "event"
    },
    {
      "anonymous": false,
      "inputs": [
        {
          "indexed": true,
          "internalType": "uint256",
          "name": "collateralId",
          "type": "uint256"
        },
        {
          "indexed": false,
          "internalType": "uint8",
          "name": "position",
          "type": "uint8"
        },
        {
          "indexed": false,
          "internalType": "enum ILienToken.StackAction",
          "name": "action",
          "type": "uint8"
        },
        {
          "indexed": false,
          "internalType": "uint8",
          "name": "stackLength",
          "type": "uint8"
        }
      ],
      "name": "LienStackUpdated",
      "type": "event"
    },
    {
      "anonymous": false,
      "inputs": [
        {
          "indexed": true,
          "internalType": "address",
          "name": "user",
          "type": "address"
        },
        {
          "indexed": true,
          "internalType": "address",
          "name": "newOwner",
          "type": "address"
        }
      ],
      "name": "OwnershipTransferred",
      "type": "event"
    },
    {
      "anonymous": false,
      "inputs": [
        {
          "indexed": true,
          "internalType": "uint256",
          "name": "lienId",
          "type": "uint256"
        },
        {
          "indexed": true,
          "internalType": "address",
          "name": "payee",
          "type": "address"
        }
      ],
      "name": "PayeeChanged",
      "type": "event"
    },
    {
      "anonymous": false,
      "inputs": [
        {
          "indexed": true,
          "internalType": "uint256",
          "name": "lienId",
          "type": "uint256"
        },
        {
          "indexed": false,
          "internalType": "uint256",
          "name": "amount",
          "type": "uint256"
        }
      ],
      "name": "Payment",
      "type": "event"
    },
    {
      "anonymous": false,
      "inputs": [
        {
          "indexed": true,
          "internalType": "uint256",
          "name": "collateralId",
          "type": "uint256"
        }
      ],
      "name": "RemovedLiens",
      "type": "event"
    },
    {
      "anonymous": false,
      "inputs": [
        {
          "indexed": true,
          "internalType": "address",
          "name": "from",
          "type": "address"
        },
        {
          "indexed": true,
          "internalType": "address",
          "name": "to",
          "type": "address"
        },
        {
          "indexed": true,
          "internalType": "uint256",
          "name": "id",
          "type": "uint256"
        }
      ],
      "name": "Transfer",
      "type": "event"
    },
    {
      "inputs": [],
      "name": "ASTARIA_ROUTER",
      "outputs": [
        {
          "internalType": "contract IAstariaRouter",
          "name": "",
          "type": "address"
        }
      ],
      "stateMutability": "view",
      "type": "function"
    },
    {
      "inputs": [],
      "name": "COLLATERAL_TOKEN",
      "outputs": [
        {
          "internalType": "contract ICollateralToken",
          "name": "",
          "type": "address"
        }
      ],
      "stateMutability": "view",
      "type": "function"
    },
    {
      "inputs": [
        {
          "components": [
            {
              "components": [
                {
                  "internalType": "address",
                  "name": "token",
                  "type": "address"
                },
                {
                  "internalType": "address",
                  "name": "vault",
                  "type": "address"
                },
                {
                  "internalType": "bytes32",
                  "name": "strategyRoot",
                  "type": "bytes32"
                },
                {
                  "internalType": "uint256",
                  "name": "collateralId",
                  "type": "uint256"
                },
                {
                  "components": [
                    {
                      "internalType": "uint256",
                      "name": "maxAmount",
                      "type": "uint256"
                    },
                    {
                      "internalType": "uint256",
                      "name": "rate",
                      "type": "uint256"
                    },
                    {
                      "internalType": "uint256",
                      "name": "duration",
                      "type": "uint256"
                    },
                    {
                      "internalType": "uint256",
                      "name": "maxPotentialDebt",
                      "type": "uint256"
                    },
                    {
                      "internalType": "uint256",
                      "name": "liquidationInitialAsk",
                      "type": "uint256"
                    }
                  ],
                  "internalType": "struct ILienToken.Details",
                  "name": "details",
                  "type": "tuple"
                }
              ],
              "internalType": "struct ILienToken.Lien",
              "name": "lien",
              "type": "tuple"
            },
            {
              "components": [
                {
                  "internalType": "uint88",
                  "name": "amount",
                  "type": "uint88"
                },
                {
                  "internalType": "uint8",
                  "name": "position",
                  "type": "uint8"
                },
                {
                  "internalType": "uint40",
                  "name": "last",
                  "type": "uint40"
                },
                {
                  "internalType": "uint40",
                  "name": "end",
                  "type": "uint40"
                },
                {
                  "internalType": "uint256",
                  "name": "lienId",
                  "type": "uint256"
                }
              ],
              "internalType": "struct ILienToken.Point",
              "name": "point",
              "type": "tuple"
            }
          ],
          "internalType": "struct ILienToken.Stack[]",
          "name": "stack",
          "type": "tuple[]"
        }
      ],
      "name": "_getMaxPotentialDebtForCollateral",
      "outputs": [
        {
          "internalType": "uint256",
          "name": "maxPotentialDebt",
          "type": "uint256"
        }
      ],
      "stateMutability": "pure",
      "type": "function"
    },
    {
      "inputs": [
        {
          "internalType": "address",
          "name": "spender",
          "type": "address"
        },
        {
          "internalType": "uint256",
          "name": "id",
          "type": "uint256"
        }
      ],
      "name": "approve",
      "outputs": [],
      "stateMutability": "nonpayable",
      "type": "function"
    },
    {
      "inputs": [],
      "name": "authority",
      "outputs": [
        {
          "internalType": "contract Authority",
          "name": "",
          "type": "address"
        }
      ],
      "stateMutability": "view",
      "type": "function"
    },
    {
      "inputs": [
        {
          "internalType": "address",
          "name": "owner",
          "type": "address"
        }
      ],
      "name": "balanceOf",
      "outputs": [
        {
          "internalType": "uint256",
          "name": "",
          "type": "uint256"
        }
      ],
      "stateMutability": "view",
      "type": "function"
    },
    {
      "inputs": [
        {
          "components": [
            {
              "components": [
                {
                  "internalType": "address",
                  "name": "tokenContract",
                  "type": "address"
                },
                {
                  "internalType": "uint256",
                  "name": "tokenId",
                  "type": "uint256"
                },
                {
                  "components": [
                    {
                      "components": [
                        {
                          "internalType": "uint8",
                          "name": "version",
                          "type": "uint8"
                        },
                        {
                          "internalType": "uint256",
                          "name": "deadline",
                          "type": "uint256"
                        },
                        {
                          "internalType": "address",
                          "name": "vault",
                          "type": "address"
                        }
                      ],
                      "internalType": "struct IAstariaRouter.StrategyDetails",
                      "name": "strategy",
                      "type": "tuple"
                    },
                    {
                      "components": [
                        {
                          "components": [
                            {
                              "internalType": "address",
                              "name": "token",
                              "type": "address"
                            },
                            {
                              "internalType": "address",
                              "name": "vault",
                              "type": "address"
                            },
                            {
                              "internalType": "bytes32",
                              "name": "strategyRoot",
                              "type": "bytes32"
                            },
                            {
                              "internalType": "uint256",
                              "name": "collateralId",
                              "type": "uint256"
                            },
                            {
                              "components": [
                                {
                                  "internalType": "uint256",
                                  "name": "maxAmount",
                                  "type": "uint256"
                                },
                                {
                                  "internalType": "uint256",
                                  "name": "rate",
                                  "type": "uint256"
                                },
                                {
                                  "internalType": "uint256",
                                  "name": "duration",
                                  "type": "uint256"
                                },
                                {
                                  "internalType": "uint256",
                                  "name": "maxPotentialDebt",
                                  "type": "uint256"
                                },
                                {
                                  "internalType": "uint256",
                                  "name": "liquidationInitialAsk",
                                  "type": "uint256"
                                }
                              ],
                              "internalType": "struct ILienToken.Details",
                              "name": "details",
                              "type": "tuple"
                            }
                          ],
                          "internalType": "struct ILienToken.Lien",
                          "name": "lien",
                          "type": "tuple"
                        },
                        {
                          "components": [
                            {
                              "internalType": "uint88",
                              "name": "amount",
                              "type": "uint88"
                            },
                            {
                              "internalType": "uint8",
                              "name": "position",
                              "type": "uint8"
                            },
                            {
                              "internalType": "uint40",
                              "name": "last",
                              "type": "uint40"
                            },
                            {
                              "internalType": "uint40",
                              "name": "end",
                              "type": "uint40"
                            },
                            {
                              "internalType": "uint256",
                              "name": "lienId",
                              "type": "uint256"
                            }
                          ],
                          "internalType": "struct ILienToken.Point",
                          "name": "point",
                          "type": "tuple"
                        }
                      ],
                      "internalType": "struct ILienToken.Stack[]",
                      "name": "stack",
                      "type": "tuple[]"
                    },
                    {
                      "internalType": "bytes",
                      "name": "nlrDetails",
                      "type": "bytes"
                    },
                    {
                      "components": [
                        {
                          "internalType": "bytes32",
                          "name": "root",
                          "type": "bytes32"
                        },
                        {
                          "internalType": "bytes32[]",
                          "name": "proof",
                          "type": "bytes32[]"
                        }
                      ],
                      "internalType": "struct IAstariaRouter.MerkleData",
                      "name": "merkle",
                      "type": "tuple"
                    },
                    {
                      "internalType": "uint256",
                      "name": "amount",
                      "type": "uint256"
                    },
                    {
                      "internalType": "uint8",
                      "name": "v",
                      "type": "uint8"
                    },
                    {
                      "internalType": "bytes32",
                      "name": "r",
                      "type": "bytes32"
                    },
                    {
                      "internalType": "bytes32",
                      "name": "s",
                      "type": "bytes32"
                    }
                  ],
                  "internalType": "struct IAstariaRouter.NewLienRequest",
                  "name": "lienRequest",
                  "type": "tuple"
                }
              ],
              "internalType": "struct IAstariaRouter.Commitment",
              "name": "incoming",
              "type": "tuple"
            },
            {
              "internalType": "uint8",
              "name": "position",
              "type": "uint8"
            },
            {
              "components": [
                {
                  "internalType": "uint256",
                  "name": "collateralId",
                  "type": "uint256"
                },
                {
                  "internalType": "uint256",
                  "name": "amount",
                  "type": "uint256"
                },
                {
                  "internalType": "address",
                  "name": "receiver",
                  "type": "address"
                },
                {
                  "components": [
                    {
                      "internalType": "address",
                      "name": "token",
                      "type": "address"
                    },
                    {
                      "internalType": "address",
                      "name": "vault",
                      "type": "address"
                    },
                    {
                      "internalType": "bytes32",
                      "name": "strategyRoot",
                      "type": "bytes32"
                    },
                    {
                      "internalType": "uint256",
                      "name": "collateralId",
                      "type": "uint256"
                    },
                    {
                      "components": [
                        {
                          "internalType": "uint256",
                          "name": "maxAmount",
                          "type": "uint256"
                        },
                        {
                          "internalType": "uint256",
                          "name": "rate",
                          "type": "uint256"
                        },
                        {
                          "internalType": "uint256",
                          "name": "duration",
                          "type": "uint256"
                        },
                        {
                          "internalType": "uint256",
                          "name": "maxPotentialDebt",
                          "type": "uint256"
                        },
                        {
                          "internalType": "uint256",
                          "name": "liquidationInitialAsk",
                          "type": "uint256"
                        }
                      ],
                      "internalType": "struct ILienToken.Details",
                      "name": "details",
                      "type": "tuple"
                    }
                  ],
                  "internalType": "struct ILienToken.Lien",
                  "name": "lien",
                  "type": "tuple"
                },
                {
                  "components": [
                    {
                      "components": [
                        {
                          "internalType": "address",
                          "name": "token",
                          "type": "address"
                        },
                        {
                          "internalType": "address",
                          "name": "vault",
                          "type": "address"
                        },
                        {
                          "internalType": "bytes32",
                          "name": "strategyRoot",
                          "type": "bytes32"
                        },
                        {
                          "internalType": "uint256",
                          "name": "collateralId",
                          "type": "uint256"
                        },
                        {
                          "components": [
                            {
                              "internalType": "uint256",
                              "name": "maxAmount",
                              "type": "uint256"
                            },
                            {
                              "internalType": "uint256",
                              "name": "rate",
                              "type": "uint256"
                            },
                            {
                              "internalType": "uint256",
                              "name": "duration",
                              "type": "uint256"
                            },
                            {
                              "internalType": "uint256",
                              "name": "maxPotentialDebt",
                              "type": "uint256"
                            },
                            {
                              "internalType": "uint256",
                              "name": "liquidationInitialAsk",
                              "type": "uint256"
                            }
                          ],
                          "internalType": "struct ILienToken.Details",
                          "name": "details",
                          "type": "tuple"
                        }
                      ],
                      "internalType": "struct ILienToken.Lien",
                      "name": "lien",
                      "type": "tuple"
                    },
                    {
                      "components": [
                        {
                          "internalType": "uint88",
                          "name": "amount",
                          "type": "uint88"
                        },
                        {
                          "internalType": "uint8",
                          "name": "position",
                          "type": "uint8"
                        },
                        {
                          "internalType": "uint40",
                          "name": "last",
                          "type": "uint40"
                        },
                        {
                          "internalType": "uint40",
                          "name": "end",
                          "type": "uint40"
                        },
                        {
                          "internalType": "uint256",
                          "name": "lienId",
                          "type": "uint256"
                        }
                      ],
                      "internalType": "struct ILienToken.Point",
                      "name": "point",
                      "type": "tuple"
                    }
                  ],
                  "internalType": "struct ILienToken.Stack[]",
                  "name": "stack",
                  "type": "tuple[]"
                }
              ],
              "internalType": "struct ILienToken.LienActionEncumber",
              "name": "encumber",
              "type": "tuple"
            }
          ],
          "internalType": "struct ILienToken.LienActionBuyout",
          "name": "params",
          "type": "tuple"
        }
      ],
      "name": "buyoutLien",
      "outputs": [
        {
          "components": [
            {
              "components": [
                {
                  "internalType": "address",
                  "name": "token",
                  "type": "address"
                },
                {
                  "internalType": "address",
                  "name": "vault",
                  "type": "address"
                },
                {
                  "internalType": "bytes32",
                  "name": "strategyRoot",
                  "type": "bytes32"
                },
                {
                  "internalType": "uint256",
                  "name": "collateralId",
                  "type": "uint256"
                },
                {
                  "components": [
                    {
                      "internalType": "uint256",
                      "name": "maxAmount",
                      "type": "uint256"
                    },
                    {
                      "internalType": "uint256",
                      "name": "rate",
                      "type": "uint256"
                    },
                    {
                      "internalType": "uint256",
                      "name": "duration",
                      "type": "uint256"
                    },
                    {
                      "internalType": "uint256",
                      "name": "maxPotentialDebt",
                      "type": "uint256"
                    },
                    {
                      "internalType": "uint256",
                      "name": "liquidationInitialAsk",
                      "type": "uint256"
                    }
                  ],
                  "internalType": "struct ILienToken.Details",
                  "name": "details",
                  "type": "tuple"
                }
              ],
              "internalType": "struct ILienToken.Lien",
              "name": "lien",
              "type": "tuple"
            },
            {
              "components": [
                {
                  "internalType": "uint88",
                  "name": "amount",
                  "type": "uint88"
                },
                {
                  "internalType": "uint8",
                  "name": "position",
                  "type": "uint8"
                },
                {
                  "internalType": "uint40",
                  "name": "last",
                  "type": "uint40"
                },
                {
                  "internalType": "uint40",
                  "name": "end",
                  "type": "uint40"
                },
                {
                  "internalType": "uint256",
                  "name": "lienId",
                  "type": "uint256"
                }
              ],
              "internalType": "struct ILienToken.Point",
              "name": "point",
              "type": "tuple"
            }
          ],
          "internalType": "struct ILienToken.Stack[]",
          "name": "",
          "type": "tuple[]"
        },
        {
          "components": [
            {
              "components": [
                {
                  "internalType": "address",
                  "name": "token",
                  "type": "address"
                },
                {
                  "internalType": "address",
                  "name": "vault",
                  "type": "address"
                },
                {
                  "internalType": "bytes32",
                  "name": "strategyRoot",
                  "type": "bytes32"
                },
                {
                  "internalType": "uint256",
                  "name": "collateralId",
                  "type": "uint256"
                },
                {
                  "components": [
                    {
                      "internalType": "uint256",
                      "name": "maxAmount",
                      "type": "uint256"
                    },
                    {
                      "internalType": "uint256",
                      "name": "rate",
                      "type": "uint256"
                    },
                    {
                      "internalType": "uint256",
                      "name": "duration",
                      "type": "uint256"
                    },
                    {
                      "internalType": "uint256",
                      "name": "maxPotentialDebt",
                      "type": "uint256"
                    },
                    {
                      "internalType": "uint256",
                      "name": "liquidationInitialAsk",
                      "type": "uint256"
                    }
                  ],
                  "internalType": "struct ILienToken.Details",
                  "name": "details",
                  "type": "tuple"
                }
              ],
              "internalType": "struct ILienToken.Lien",
              "name": "lien",
              "type": "tuple"
            },
            {
              "components": [
                {
                  "internalType": "uint88",
                  "name": "amount",
                  "type": "uint88"
                },
                {
                  "internalType": "uint8",
                  "name": "position",
                  "type": "uint8"
                },
                {
                  "internalType": "uint40",
                  "name": "last",
                  "type": "uint40"
                },
                {
                  "internalType": "uint40",
                  "name": "end",
                  "type": "uint40"
                },
                {
                  "internalType": "uint256",
                  "name": "lienId",
                  "type": "uint256"
                }
              ],
              "internalType": "struct ILienToken.Point",
              "name": "point",
              "type": "tuple"
            }
          ],
          "internalType": "struct ILienToken.Stack",
          "name": "newStack",
          "type": "tuple"
        }
      ],
      "stateMutability": "nonpayable",
      "type": "function"
    },
    {
      "inputs": [
        {
          "components": [
            {
              "components": [
                {
                  "internalType": "address",
                  "name": "token",
                  "type": "address"
                },
                {
                  "internalType": "address",
                  "name": "vault",
                  "type": "address"
                },
                {
                  "internalType": "bytes32",
                  "name": "strategyRoot",
                  "type": "bytes32"
                },
                {
                  "internalType": "uint256",
                  "name": "collateralId",
                  "type": "uint256"
                },
                {
                  "components": [
                    {
                      "internalType": "uint256",
                      "name": "maxAmount",
                      "type": "uint256"
                    },
                    {
                      "internalType": "uint256",
                      "name": "rate",
                      "type": "uint256"
                    },
                    {
                      "internalType": "uint256",
                      "name": "duration",
                      "type": "uint256"
                    },
                    {
                      "internalType": "uint256",
                      "name": "maxPotentialDebt",
                      "type": "uint256"
                    },
                    {
                      "internalType": "uint256",
                      "name": "liquidationInitialAsk",
                      "type": "uint256"
                    }
                  ],
                  "internalType": "struct ILienToken.Details",
                  "name": "details",
                  "type": "tuple"
                }
              ],
              "internalType": "struct ILienToken.Lien",
              "name": "lien",
              "type": "tuple"
            },
            {
              "components": [
                {
                  "internalType": "uint88",
                  "name": "amount",
                  "type": "uint88"
                },
                {
                  "internalType": "uint8",
                  "name": "position",
                  "type": "uint8"
                },
                {
                  "internalType": "uint40",
                  "name": "last",
                  "type": "uint40"
                },
                {
                  "internalType": "uint40",
                  "name": "end",
                  "type": "uint40"
                },
                {
                  "internalType": "uint256",
                  "name": "lienId",
                  "type": "uint256"
                }
              ],
              "internalType": "struct ILienToken.Point",
              "name": "point",
              "type": "tuple"
            }
          ],
          "internalType": "struct ILienToken.Stack",
          "name": "stack",
          "type": "tuple"
        }
      ],
      "name": "calculateSlope",
      "outputs": [
        {
          "internalType": "uint256",
          "name": "",
          "type": "uint256"
        }
      ],
      "stateMutability": "pure",
      "type": "function"
    },
    {
      "inputs": [
        {
          "components": [
            {
              "internalType": "uint256",
              "name": "collateralId",
              "type": "uint256"
            },
            {
              "internalType": "uint256",
              "name": "amount",
              "type": "uint256"
            },
            {
              "internalType": "address",
              "name": "receiver",
              "type": "address"
            },
            {
              "components": [
                {
                  "internalType": "address",
                  "name": "token",
                  "type": "address"
                },
                {
                  "internalType": "address",
                  "name": "vault",
                  "type": "address"
                },
                {
                  "internalType": "bytes32",
                  "name": "strategyRoot",
                  "type": "bytes32"
                },
                {
                  "internalType": "uint256",
                  "name": "collateralId",
                  "type": "uint256"
                },
                {
                  "components": [
                    {
                      "internalType": "uint256",
                      "name": "maxAmount",
                      "type": "uint256"
                    },
                    {
                      "internalType": "uint256",
                      "name": "rate",
                      "type": "uint256"
                    },
                    {
                      "internalType": "uint256",
                      "name": "duration",
                      "type": "uint256"
                    },
                    {
                      "internalType": "uint256",
                      "name": "maxPotentialDebt",
                      "type": "uint256"
                    },
                    {
                      "internalType": "uint256",
                      "name": "liquidationInitialAsk",
                      "type": "uint256"
                    }
                  ],
                  "internalType": "struct ILienToken.Details",
                  "name": "details",
                  "type": "tuple"
                }
              ],
              "internalType": "struct ILienToken.Lien",
              "name": "lien",
              "type": "tuple"
            },
            {
              "components": [
                {
                  "components": [
                    {
                      "internalType": "address",
                      "name": "token",
                      "type": "address"
                    },
                    {
                      "internalType": "address",
                      "name": "vault",
                      "type": "address"
                    },
                    {
                      "internalType": "bytes32",
                      "name": "strategyRoot",
                      "type": "bytes32"
                    },
                    {
                      "internalType": "uint256",
                      "name": "collateralId",
                      "type": "uint256"
                    },
                    {
                      "components": [
                        {
                          "internalType": "uint256",
                          "name": "maxAmount",
                          "type": "uint256"
                        },
                        {
                          "internalType": "uint256",
                          "name": "rate",
                          "type": "uint256"
                        },
                        {
                          "internalType": "uint256",
                          "name": "duration",
                          "type": "uint256"
                        },
                        {
                          "internalType": "uint256",
                          "name": "maxPotentialDebt",
                          "type": "uint256"
                        },
                        {
                          "internalType": "uint256",
                          "name": "liquidationInitialAsk",
                          "type": "uint256"
                        }
                      ],
                      "internalType": "struct ILienToken.Details",
                      "name": "details",
                      "type": "tuple"
                    }
                  ],
                  "internalType": "struct ILienToken.Lien",
                  "name": "lien",
                  "type": "tuple"
                },
                {
                  "components": [
                    {
                      "internalType": "uint88",
                      "name": "amount",
                      "type": "uint88"
                    },
                    {
                      "internalType": "uint8",
                      "name": "position",
                      "type": "uint8"
                    },
                    {
                      "internalType": "uint40",
                      "name": "last",
                      "type": "uint40"
                    },
                    {
                      "internalType": "uint40",
                      "name": "end",
                      "type": "uint40"
                    },
                    {
                      "internalType": "uint256",
                      "name": "lienId",
                      "type": "uint256"
                    }
                  ],
                  "internalType": "struct ILienToken.Point",
                  "name": "point",
                  "type": "tuple"
                }
              ],
              "internalType": "struct ILienToken.Stack[]",
              "name": "stack",
              "type": "tuple[]"
            }
          ],
          "internalType": "struct ILienToken.LienActionEncumber",
          "name": "params",
          "type": "tuple"
        }
      ],
      "name": "createLien",
      "outputs": [
        {
          "internalType": "uint256",
          "name": "lienId",
          "type": "uint256"
        },
        {
          "components": [
            {
              "components": [
                {
                  "internalType": "address",
                  "name": "token",
                  "type": "address"
                },
                {
                  "internalType": "address",
                  "name": "vault",
                  "type": "address"
                },
                {
                  "internalType": "bytes32",
                  "name": "strategyRoot",
                  "type": "bytes32"
                },
                {
                  "internalType": "uint256",
                  "name": "collateralId",
                  "type": "uint256"
                },
                {
                  "components": [
                    {
                      "internalType": "uint256",
                      "name": "maxAmount",
                      "type": "uint256"
                    },
                    {
                      "internalType": "uint256",
                      "name": "rate",
                      "type": "uint256"
                    },
                    {
                      "internalType": "uint256",
                      "name": "duration",
                      "type": "uint256"
                    },
                    {
                      "internalType": "uint256",
                      "name": "maxPotentialDebt",
                      "type": "uint256"
                    },
                    {
                      "internalType": "uint256",
                      "name": "liquidationInitialAsk",
                      "type": "uint256"
                    }
                  ],
                  "internalType": "struct ILienToken.Details",
                  "name": "details",
                  "type": "tuple"
                }
              ],
              "internalType": "struct ILienToken.Lien",
              "name": "lien",
              "type": "tuple"
            },
            {
              "components": [
                {
                  "internalType": "uint88",
                  "name": "amount",
                  "type": "uint88"
                },
                {
                  "internalType": "uint8",
                  "name": "position",
                  "type": "uint8"
                },
                {
                  "internalType": "uint40",
                  "name": "last",
                  "type": "uint40"
                },
                {
                  "internalType": "uint40",
                  "name": "end",
                  "type": "uint40"
                },
                {
                  "internalType": "uint256",
                  "name": "lienId",
                  "type": "uint256"
                }
              ],
              "internalType": "struct ILienToken.Point",
              "name": "point",
              "type": "tuple"
            }
          ],
          "internalType": "struct ILienToken.Stack[]",
          "name": "newStack",
          "type": "tuple[]"
        },
        {
          "internalType": "uint256",
          "name": "lienSlope",
          "type": "uint256"
        }
      ],
      "stateMutability": "nonpayable",
      "type": "function"
    },
    {
      "inputs": [
        {
          "components": [
            {
              "internalType": "enum ILienToken.FileType",
              "name": "what",
              "type": "uint8"
            },
            {
              "internalType": "bytes",
              "name": "data",
              "type": "bytes"
            }
          ],
          "internalType": "struct ILienToken.File",
          "name": "incoming",
          "type": "tuple"
        }
      ],
      "name": "file",
      "outputs": [],
      "stateMutability": "nonpayable",
      "type": "function"
    },
    {
      "inputs": [
        {
          "components": [
            {
              "components": [
                {
                  "internalType": "address",
                  "name": "token",
                  "type": "address"
                },
                {
                  "internalType": "address",
                  "name": "vault",
                  "type": "address"
                },
                {
                  "internalType": "bytes32",
                  "name": "strategyRoot",
                  "type": "bytes32"
                },
                {
                  "internalType": "uint256",
                  "name": "collateralId",
                  "type": "uint256"
                },
                {
                  "components": [
                    {
                      "internalType": "uint256",
                      "name": "maxAmount",
                      "type": "uint256"
                    },
                    {
                      "internalType": "uint256",
                      "name": "rate",
                      "type": "uint256"
                    },
                    {
                      "internalType": "uint256",
                      "name": "duration",
                      "type": "uint256"
                    },
                    {
                      "internalType": "uint256",
                      "name": "maxPotentialDebt",
                      "type": "uint256"
                    },
                    {
                      "internalType": "uint256",
                      "name": "liquidationInitialAsk",
                      "type": "uint256"
                    }
                  ],
                  "internalType": "struct ILienToken.Details",
                  "name": "details",
                  "type": "tuple"
                }
              ],
              "internalType": "struct ILienToken.Lien",
              "name": "lien",
              "type": "tuple"
            },
            {
              "components": [
                {
                  "internalType": "uint88",
                  "name": "amount",
                  "type": "uint88"
                },
                {
                  "internalType": "uint8",
                  "name": "position",
                  "type": "uint8"
                },
                {
                  "internalType": "uint40",
                  "name": "last",
                  "type": "uint40"
                },
                {
                  "internalType": "uint40",
                  "name": "end",
                  "type": "uint40"
                },
                {
                  "internalType": "uint256",
                  "name": "lienId",
                  "type": "uint256"
                }
              ],
              "internalType": "struct ILienToken.Point",
              "name": "point",
              "type": "tuple"
            }
          ],
          "internalType": "struct ILienToken.Stack",
          "name": "stack",
          "type": "tuple"
        }
      ],
      "name": "getAmountOwingAtLiquidation",
      "outputs": [
        {
          "internalType": "uint256",
          "name": "",
          "type": "uint256"
        }
      ],
      "stateMutability": "view",
      "type": "function"
    },
    {
      "inputs": [
        {
          "internalType": "uint256",
          "name": "tokenId",
          "type": "uint256"
        }
      ],
      "name": "getApproved",
      "outputs": [
        {
          "internalType": "address",
          "name": "",
          "type": "address"
        }
      ],
      "stateMutability": "view",
      "type": "function"
    },
    {
      "inputs": [
        {
          "internalType": "uint256",
          "name": "collateralId",
          "type": "uint256"
        }
      ],
      "name": "getAuctionData",
      "outputs": [
        {
          "components": [
            {
              "internalType": "address",
              "name": "liquidator",
              "type": "address"
            },
            {
              "components": [
                {
                  "internalType": "uint256",
                  "name": "lienId",
                  "type": "uint256"
                },
                {
                  "internalType": "uint88",
                  "name": "amountOwed",
                  "type": "uint88"
                },
                {
                  "internalType": "uint40",
                  "name": "end",
                  "type": "uint40"
                }
              ],
              "internalType": "struct ILienToken.AuctionStack[]",
              "name": "stack",
              "type": "tuple[]"
            }
          ],
          "internalType": "struct ILienToken.AuctionData",
          "name": "",
          "type": "tuple"
        }
      ],
      "stateMutability": "view",
      "type": "function"
    },
    {
      "inputs": [
        {
          "components": [
            {
              "components": [
                {
                  "internalType": "address",
                  "name": "token",
                  "type": "address"
                },
                {
                  "internalType": "address",
                  "name": "vault",
                  "type": "address"
                },
                {
                  "internalType": "bytes32",
                  "name": "strategyRoot",
                  "type": "bytes32"
                },
                {
                  "internalType": "uint256",
                  "name": "collateralId",
                  "type": "uint256"
                },
                {
                  "components": [
                    {
                      "internalType": "uint256",
                      "name": "maxAmount",
                      "type": "uint256"
                    },
                    {
                      "internalType": "uint256",
                      "name": "rate",
                      "type": "uint256"
                    },
                    {
                      "internalType": "uint256",
                      "name": "duration",
                      "type": "uint256"
                    },
                    {
                      "internalType": "uint256",
                      "name": "maxPotentialDebt",
                      "type": "uint256"
                    },
                    {
                      "internalType": "uint256",
                      "name": "liquidationInitialAsk",
                      "type": "uint256"
                    }
                  ],
                  "internalType": "struct ILienToken.Details",
                  "name": "details",
                  "type": "tuple"
                }
              ],
              "internalType": "struct ILienToken.Lien",
              "name": "lien",
              "type": "tuple"
            },
            {
              "components": [
                {
                  "internalType": "uint88",
                  "name": "amount",
                  "type": "uint88"
                },
                {
                  "internalType": "uint8",
                  "name": "position",
                  "type": "uint8"
                },
                {
                  "internalType": "uint40",
                  "name": "last",
                  "type": "uint40"
                },
                {
                  "internalType": "uint40",
                  "name": "end",
                  "type": "uint40"
                },
                {
                  "internalType": "uint256",
                  "name": "lienId",
                  "type": "uint256"
                }
              ],
              "internalType": "struct ILienToken.Point",
              "name": "point",
              "type": "tuple"
            }
          ],
          "internalType": "struct ILienToken.Stack",
          "name": "stack",
          "type": "tuple"
        }
      ],
      "name": "getBuyout",
      "outputs": [
        {
          "internalType": "uint256",
          "name": "",
          "type": "uint256"
        },
        {
          "internalType": "uint256",
          "name": "",
          "type": "uint256"
        }
      ],
      "stateMutability": "view",
      "type": "function"
    },
    {
      "inputs": [
        {
          "internalType": "uint256",
          "name": "collateralId",
          "type": "uint256"
        }
      ],
      "name": "getCollateralState",
      "outputs": [
        {
          "internalType": "bytes32",
          "name": "",
          "type": "bytes32"
        }
      ],
      "stateMutability": "view",
      "type": "function"
    },
    {
      "inputs": [
        {
          "components": [
            {
              "components": [
                {
                  "internalType": "address",
                  "name": "token",
                  "type": "address"
                },
                {
                  "internalType": "address",
                  "name": "vault",
                  "type": "address"
                },
                {
                  "internalType": "bytes32",
                  "name": "strategyRoot",
                  "type": "bytes32"
                },
                {
                  "internalType": "uint256",
                  "name": "collateralId",
                  "type": "uint256"
                },
                {
                  "components": [
                    {
                      "internalType": "uint256",
                      "name": "maxAmount",
                      "type": "uint256"
                    },
                    {
                      "internalType": "uint256",
                      "name": "rate",
                      "type": "uint256"
                    },
                    {
                      "internalType": "uint256",
                      "name": "duration",
                      "type": "uint256"
                    },
                    {
                      "internalType": "uint256",
                      "name": "maxPotentialDebt",
                      "type": "uint256"
                    },
                    {
                      "internalType": "uint256",
                      "name": "liquidationInitialAsk",
                      "type": "uint256"
                    }
                  ],
                  "internalType": "struct ILienToken.Details",
                  "name": "details",
                  "type": "tuple"
                }
              ],
              "internalType": "struct ILienToken.Lien",
              "name": "lien",
              "type": "tuple"
            },
            {
              "components": [
                {
                  "internalType": "uint88",
                  "name": "amount",
                  "type": "uint88"
                },
                {
                  "internalType": "uint8",
                  "name": "position",
                  "type": "uint8"
                },
                {
                  "internalType": "uint40",
                  "name": "last",
                  "type": "uint40"
                },
                {
                  "internalType": "uint40",
                  "name": "end",
                  "type": "uint40"
                },
                {
                  "internalType": "uint256",
                  "name": "lienId",
                  "type": "uint256"
                }
              ],
              "internalType": "struct ILienToken.Point",
              "name": "point",
              "type": "tuple"
            }
          ],
          "internalType": "struct ILienToken.Stack",
          "name": "stack",
          "type": "tuple"
        }
      ],
      "name": "getInterest",
      "outputs": [
        {
          "internalType": "uint256",
          "name": "",
          "type": "uint256"
        }
      ],
      "stateMutability": "view",
      "type": "function"
    },
    {
      "inputs": [
        {
          "components": [
            {
              "components": [
                {
                  "internalType": "address",
                  "name": "token",
                  "type": "address"
                },
                {
                  "internalType": "address",
                  "name": "vault",
                  "type": "address"
                },
                {
                  "internalType": "bytes32",
                  "name": "strategyRoot",
                  "type": "bytes32"
                },
                {
                  "internalType": "uint256",
                  "name": "collateralId",
                  "type": "uint256"
                },
                {
                  "components": [
                    {
                      "internalType": "uint256",
                      "name": "maxAmount",
                      "type": "uint256"
                    },
                    {
                      "internalType": "uint256",
                      "name": "rate",
                      "type": "uint256"
                    },
                    {
                      "internalType": "uint256",
                      "name": "duration",
                      "type": "uint256"
                    },
                    {
                      "internalType": "uint256",
                      "name": "maxPotentialDebt",
                      "type": "uint256"
                    },
                    {
                      "internalType": "uint256",
                      "name": "liquidationInitialAsk",
                      "type": "uint256"
                    }
                  ],
                  "internalType": "struct ILienToken.Details",
                  "name": "details",
                  "type": "tuple"
                }
              ],
              "internalType": "struct ILienToken.Lien",
              "name": "lien",
              "type": "tuple"
            },
            {
              "components": [
                {
                  "internalType": "uint88",
                  "name": "amount",
                  "type": "uint88"
                },
                {
                  "internalType": "uint8",
                  "name": "position",
                  "type": "uint8"
                },
                {
                  "internalType": "uint40",
                  "name": "last",
                  "type": "uint40"
                },
                {
                  "internalType": "uint40",
                  "name": "end",
                  "type": "uint40"
                },
                {
                  "internalType": "uint256",
                  "name": "lienId",
                  "type": "uint256"
                }
              ],
              "internalType": "struct ILienToken.Point",
              "name": "point",
              "type": "tuple"
            }
          ],
          "internalType": "struct ILienToken.Stack[]",
          "name": "stack",
          "type": "tuple[]"
        }
      ],
      "name": "getMaxPotentialDebtForCollateral",
      "outputs": [
        {
          "internalType": "uint256",
          "name": "maxPotentialDebt",
          "type": "uint256"
        }
      ],
      "stateMutability": "view",
      "type": "function"
    },
    {
      "inputs": [
        {
          "components": [
            {
              "components": [
                {
                  "internalType": "address",
                  "name": "token",
                  "type": "address"
                },
                {
                  "internalType": "address",
                  "name": "vault",
                  "type": "address"
                },
                {
                  "internalType": "bytes32",
                  "name": "strategyRoot",
                  "type": "bytes32"
                },
                {
                  "internalType": "uint256",
                  "name": "collateralId",
                  "type": "uint256"
                },
                {
                  "components": [
                    {
                      "internalType": "uint256",
                      "name": "maxAmount",
                      "type": "uint256"
                    },
                    {
                      "internalType": "uint256",
                      "name": "rate",
                      "type": "uint256"
                    },
                    {
                      "internalType": "uint256",
                      "name": "duration",
                      "type": "uint256"
                    },
                    {
                      "internalType": "uint256",
                      "name": "maxPotentialDebt",
                      "type": "uint256"
                    },
                    {
                      "internalType": "uint256",
                      "name": "liquidationInitialAsk",
                      "type": "uint256"
                    }
                  ],
                  "internalType": "struct ILienToken.Details",
                  "name": "details",
                  "type": "tuple"
                }
              ],
              "internalType": "struct ILienToken.Lien",
              "name": "lien",
              "type": "tuple"
            },
            {
              "components": [
                {
                  "internalType": "uint88",
                  "name": "amount",
                  "type": "uint88"
                },
                {
                  "internalType": "uint8",
                  "name": "position",
                  "type": "uint8"
                },
                {
                  "internalType": "uint40",
                  "name": "last",
                  "type": "uint40"
                },
                {
                  "internalType": "uint40",
                  "name": "end",
                  "type": "uint40"
                },
                {
                  "internalType": "uint256",
                  "name": "lienId",
                  "type": "uint256"
                }
              ],
              "internalType": "struct ILienToken.Point",
              "name": "point",
              "type": "tuple"
            }
          ],
          "internalType": "struct ILienToken.Stack[]",
          "name": "stack",
          "type": "tuple[]"
        },
        {
          "internalType": "uint256",
          "name": "end",
          "type": "uint256"
        }
      ],
      "name": "getMaxPotentialDebtForCollateral",
      "outputs": [
        {
          "internalType": "uint256",
          "name": "maxPotentialDebt",
          "type": "uint256"
        }
      ],
      "stateMutability": "view",
      "type": "function"
    },
    {
      "inputs": [
        {
          "components": [
            {
              "components": [
                {
                  "internalType": "address",
                  "name": "token",
                  "type": "address"
                },
                {
                  "internalType": "address",
                  "name": "vault",
                  "type": "address"
                },
                {
                  "internalType": "bytes32",
                  "name": "strategyRoot",
                  "type": "bytes32"
                },
                {
                  "internalType": "uint256",
                  "name": "collateralId",
                  "type": "uint256"
                },
                {
                  "components": [
                    {
                      "internalType": "uint256",
                      "name": "maxAmount",
                      "type": "uint256"
                    },
                    {
                      "internalType": "uint256",
                      "name": "rate",
                      "type": "uint256"
                    },
                    {
                      "internalType": "uint256",
                      "name": "duration",
                      "type": "uint256"
                    },
                    {
                      "internalType": "uint256",
                      "name": "maxPotentialDebt",
                      "type": "uint256"
                    },
                    {
                      "internalType": "uint256",
                      "name": "liquidationInitialAsk",
                      "type": "uint256"
                    }
                  ],
                  "internalType": "struct ILienToken.Details",
                  "name": "details",
                  "type": "tuple"
                }
              ],
              "internalType": "struct ILienToken.Lien",
              "name": "lien",
              "type": "tuple"
            },
            {
              "components": [
                {
                  "internalType": "uint88",
                  "name": "amount",
                  "type": "uint88"
                },
                {
                  "internalType": "uint8",
                  "name": "position",
                  "type": "uint8"
                },
                {
                  "internalType": "uint40",
                  "name": "last",
                  "type": "uint40"
                },
                {
                  "internalType": "uint40",
                  "name": "end",
                  "type": "uint40"
                },
                {
                  "internalType": "uint256",
                  "name": "lienId",
                  "type": "uint256"
                }
              ],
              "internalType": "struct ILienToken.Point",
              "name": "point",
              "type": "tuple"
            }
          ],
          "internalType": "struct ILienToken.Stack",
          "name": "stack",
          "type": "tuple"
        }
      ],
      "name": "getOwed",
      "outputs": [
        {
          "internalType": "uint192",
          "name": "",
          "type": "uint192"
        }
      ],
      "stateMutability": "view",
      "type": "function"
    },
    {
      "inputs": [
        {
          "components": [
            {
              "components": [
                {
                  "internalType": "address",
                  "name": "token",
                  "type": "address"
                },
                {
                  "internalType": "address",
                  "name": "vault",
                  "type": "address"
                },
                {
                  "internalType": "bytes32",
                  "name": "strategyRoot",
                  "type": "bytes32"
                },
                {
                  "internalType": "uint256",
                  "name": "collateralId",
                  "type": "uint256"
                },
                {
                  "components": [
                    {
                      "internalType": "uint256",
                      "name": "maxAmount",
                      "type": "uint256"
                    },
                    {
                      "internalType": "uint256",
                      "name": "rate",
                      "type": "uint256"
                    },
                    {
                      "internalType": "uint256",
                      "name": "duration",
                      "type": "uint256"
                    },
                    {
                      "internalType": "uint256",
                      "name": "maxPotentialDebt",
                      "type": "uint256"
                    },
                    {
                      "internalType": "uint256",
                      "name": "liquidationInitialAsk",
                      "type": "uint256"
                    }
                  ],
                  "internalType": "struct ILienToken.Details",
                  "name": "details",
                  "type": "tuple"
                }
              ],
              "internalType": "struct ILienToken.Lien",
              "name": "lien",
              "type": "tuple"
            },
            {
              "components": [
                {
                  "internalType": "uint88",
                  "name": "amount",
                  "type": "uint88"
                },
                {
                  "internalType": "uint8",
                  "name": "position",
                  "type": "uint8"
                },
                {
                  "internalType": "uint40",
                  "name": "last",
                  "type": "uint40"
                },
                {
                  "internalType": "uint40",
                  "name": "end",
                  "type": "uint40"
                },
                {
                  "internalType": "uint256",
                  "name": "lienId",
                  "type": "uint256"
                }
              ],
              "internalType": "struct ILienToken.Point",
              "name": "point",
              "type": "tuple"
            }
          ],
          "internalType": "struct ILienToken.Stack",
          "name": "stack",
          "type": "tuple"
        },
        {
          "internalType": "uint256",
          "name": "timestamp",
          "type": "uint256"
        }
      ],
      "name": "getOwed",
      "outputs": [
        {
          "internalType": "uint192",
          "name": "",
          "type": "uint192"
        }
      ],
      "stateMutability": "view",
      "type": "function"
    },
    {
      "inputs": [
        {
          "internalType": "uint256",
          "name": "lienId",
          "type": "uint256"
        }
      ],
      "name": "getPayee",
      "outputs": [
        {
          "internalType": "address",
          "name": "",
          "type": "address"
        }
      ],
      "stateMutability": "view",
      "type": "function"
    },
    {
      "inputs": [
        {
          "internalType": "address",
          "name": "owner",
          "type": "address"
        },
        {
          "internalType": "address",
          "name": "operator",
          "type": "address"
        }
      ],
      "name": "isApprovedForAll",
      "outputs": [
        {
          "internalType": "bool",
          "name": "",
          "type": "bool"
        }
      ],
      "stateMutability": "view",
      "type": "function"
    },
    {
      "inputs": [
        {
          "internalType": "uint256",
          "name": "collateralId",
          "type": "uint256"
        },
        {
          "components": [
            {
              "components": [
                {
                  "internalType": "address",
                  "name": "token",
                  "type": "address"
                },
                {
                  "internalType": "address",
                  "name": "vault",
                  "type": "address"
                },
                {
                  "internalType": "bytes32",
                  "name": "strategyRoot",
                  "type": "bytes32"
                },
                {
                  "internalType": "uint256",
                  "name": "collateralId",
                  "type": "uint256"
                },
                {
                  "components": [
                    {
                      "internalType": "uint256",
                      "name": "maxAmount",
                      "type": "uint256"
                    },
                    {
                      "internalType": "uint256",
                      "name": "rate",
                      "type": "uint256"
                    },
                    {
                      "internalType": "uint256",
                      "name": "duration",
                      "type": "uint256"
                    },
                    {
                      "internalType": "uint256",
                      "name": "maxPotentialDebt",
                      "type": "uint256"
                    },
                    {
                      "internalType": "uint256",
                      "name": "liquidationInitialAsk",
                      "type": "uint256"
                    }
                  ],
                  "internalType": "struct ILienToken.Details",
                  "name": "details",
                  "type": "tuple"
                }
              ],
              "internalType": "struct ILienToken.Lien",
              "name": "lien",
              "type": "tuple"
            },
            {
              "components": [
                {
                  "internalType": "uint88",
                  "name": "amount",
                  "type": "uint88"
                },
                {
                  "internalType": "uint8",
                  "name": "position",
                  "type": "uint8"
                },
                {
                  "internalType": "uint40",
                  "name": "last",
                  "type": "uint40"
                },
                {
                  "internalType": "uint40",
                  "name": "end",
                  "type": "uint40"
                },
                {
                  "internalType": "uint256",
                  "name": "lienId",
                  "type": "uint256"
                }
              ],
              "internalType": "struct ILienToken.Point",
              "name": "point",
              "type": "tuple"
            }
          ],
          "internalType": "struct ILienToken.Stack[]",
          "name": "stack",
          "type": "tuple[]"
        },
        {
          "internalType": "uint256",
          "name": "amount",
          "type": "uint256"
        }
      ],
      "name": "makePayment",
      "outputs": [
        {
          "components": [
            {
              "components": [
                {
                  "internalType": "address",
                  "name": "token",
                  "type": "address"
                },
                {
                  "internalType": "address",
                  "name": "vault",
                  "type": "address"
                },
                {
                  "internalType": "bytes32",
                  "name": "strategyRoot",
                  "type": "bytes32"
                },
                {
                  "internalType": "uint256",
                  "name": "collateralId",
                  "type": "uint256"
                },
                {
                  "components": [
                    {
                      "internalType": "uint256",
                      "name": "maxAmount",
                      "type": "uint256"
                    },
                    {
                      "internalType": "uint256",
                      "name": "rate",
                      "type": "uint256"
                    },
                    {
                      "internalType": "uint256",
                      "name": "duration",
                      "type": "uint256"
                    },
                    {
                      "internalType": "uint256",
                      "name": "maxPotentialDebt",
                      "type": "uint256"
                    },
                    {
                      "internalType": "uint256",
                      "name": "liquidationInitialAsk",
                      "type": "uint256"
                    }
                  ],
                  "internalType": "struct ILienToken.Details",
                  "name": "details",
                  "type": "tuple"
                }
              ],
              "internalType": "struct ILienToken.Lien",
              "name": "lien",
              "type": "tuple"
            },
            {
              "components": [
                {
                  "internalType": "uint88",
                  "name": "amount",
                  "type": "uint88"
                },
                {
                  "internalType": "uint8",
                  "name": "position",
                  "type": "uint8"
                },
                {
                  "internalType": "uint40",
                  "name": "last",
                  "type": "uint40"
                },
                {
                  "internalType": "uint40",
                  "name": "end",
                  "type": "uint40"
                },
                {
                  "internalType": "uint256",
                  "name": "lienId",
                  "type": "uint256"
                }
              ],
              "internalType": "struct ILienToken.Point",
              "name": "point",
              "type": "tuple"
            }
          ],
          "internalType": "struct ILienToken.Stack[]",
          "name": "newStack",
          "type": "tuple[]"
        }
      ],
      "stateMutability": "nonpayable",
      "type": "function"
    },
    {
      "inputs": [
        {
          "internalType": "uint256",
          "name": "collateralId",
          "type": "uint256"
        },
        {
          "components": [
            {
              "components": [
                {
                  "internalType": "address",
                  "name": "token",
                  "type": "address"
                },
                {
                  "internalType": "address",
                  "name": "vault",
                  "type": "address"
                },
                {
                  "internalType": "bytes32",
                  "name": "strategyRoot",
                  "type": "bytes32"
                },
                {
                  "internalType": "uint256",
                  "name": "collateralId",
                  "type": "uint256"
                },
                {
                  "components": [
                    {
                      "internalType": "uint256",
                      "name": "maxAmount",
                      "type": "uint256"
                    },
                    {
                      "internalType": "uint256",
                      "name": "rate",
                      "type": "uint256"
                    },
                    {
                      "internalType": "uint256",
                      "name": "duration",
                      "type": "uint256"
                    },
                    {
                      "internalType": "uint256",
                      "name": "maxPotentialDebt",
                      "type": "uint256"
                    },
                    {
                      "internalType": "uint256",
                      "name": "liquidationInitialAsk",
                      "type": "uint256"
                    }
                  ],
                  "internalType": "struct ILienToken.Details",
                  "name": "details",
                  "type": "tuple"
                }
              ],
              "internalType": "struct ILienToken.Lien",
              "name": "lien",
              "type": "tuple"
            },
            {
              "components": [
                {
                  "internalType": "uint88",
                  "name": "amount",
                  "type": "uint88"
                },
                {
                  "internalType": "uint8",
                  "name": "position",
                  "type": "uint8"
                },
                {
                  "internalType": "uint40",
                  "name": "last",
                  "type": "uint40"
                },
                {
                  "internalType": "uint40",
                  "name": "end",
                  "type": "uint40"
                },
                {
                  "internalType": "uint256",
                  "name": "lienId",
                  "type": "uint256"
                }
              ],
              "internalType": "struct ILienToken.Point",
              "name": "point",
              "type": "tuple"
            }
          ],
          "internalType": "struct ILienToken.Stack[]",
          "name": "stack",
          "type": "tuple[]"
        },
        {
          "internalType": "uint8",
          "name": "position",
          "type": "uint8"
        },
        {
          "internalType": "uint256",
          "name": "amount",
          "type": "uint256"
        }
      ],
      "name": "makePayment",
      "outputs": [
        {
          "components": [
            {
              "components": [
                {
                  "internalType": "address",
                  "name": "token",
                  "type": "address"
                },
                {
                  "internalType": "address",
                  "name": "vault",
                  "type": "address"
                },
                {
                  "internalType": "bytes32",
                  "name": "strategyRoot",
                  "type": "bytes32"
                },
                {
                  "internalType": "uint256",
                  "name": "collateralId",
                  "type": "uint256"
                },
                {
                  "components": [
                    {
                      "internalType": "uint256",
                      "name": "maxAmount",
                      "type": "uint256"
                    },
                    {
                      "internalType": "uint256",
                      "name": "rate",
                      "type": "uint256"
                    },
                    {
                      "internalType": "uint256",
                      "name": "duration",
                      "type": "uint256"
                    },
                    {
                      "internalType": "uint256",
                      "name": "maxPotentialDebt",
                      "type": "uint256"
                    },
                    {
                      "internalType": "uint256",
                      "name": "liquidationInitialAsk",
                      "type": "uint256"
                    }
                  ],
                  "internalType": "struct ILienToken.Details",
                  "name": "details",
                  "type": "tuple"
                }
              ],
              "internalType": "struct ILienToken.Lien",
              "name": "lien",
              "type": "tuple"
            },
            {
              "components": [
                {
                  "internalType": "uint88",
                  "name": "amount",
                  "type": "uint88"
                },
                {
                  "internalType": "uint8",
                  "name": "position",
                  "type": "uint8"
                },
                {
                  "internalType": "uint40",
                  "name": "last",
                  "type": "uint40"
                },
                {
                  "internalType": "uint40",
                  "name": "end",
                  "type": "uint40"
                },
                {
                  "internalType": "uint256",
                  "name": "lienId",
                  "type": "uint256"
                }
              ],
              "internalType": "struct ILienToken.Point",
              "name": "point",
              "type": "tuple"
            }
          ],
          "internalType": "struct ILienToken.Stack[]",
          "name": "newStack",
          "type": "tuple[]"
        }
      ],
      "stateMutability": "nonpayable",
      "type": "function"
    },
    {
      "inputs": [],
      "name": "owner",
      "outputs": [
        {
          "internalType": "address",
          "name": "",
          "type": "address"
        }
      ],
      "stateMutability": "view",
      "type": "function"
    },
    {
      "inputs": [
        {
          "internalType": "uint256",
          "name": "id",
          "type": "uint256"
        }
      ],
      "name": "ownerOf",
      "outputs": [
        {
          "internalType": "address",
          "name": "owner",
          "type": "address"
        }
      ],
      "stateMutability": "view",
      "type": "function"
    },
    {
      "inputs": [
        {
          "internalType": "uint256",
          "name": "collateralId",
          "type": "uint256"
        },
        {
          "internalType": "uint256",
          "name": "payment",
          "type": "uint256"
        }
      ],
      "name": "payDebtViaClearingHouse",
      "outputs": [],
      "stateMutability": "nonpayable",
      "type": "function"
    },
    {
      "inputs": [
        {
          "internalType": "address",
          "name": "from",
          "type": "address"
        },
        {
          "internalType": "address",
          "name": "to",
          "type": "address"
        },
        {
          "internalType": "uint256",
          "name": "id",
          "type": "uint256"
        }
      ],
      "name": "safeTransferFrom",
      "outputs": [],
      "stateMutability": "nonpayable",
      "type": "function"
    },
    {
      "inputs": [
        {
          "internalType": "address",
          "name": "from",
          "type": "address"
        },
        {
          "internalType": "address",
          "name": "to",
          "type": "address"
        },
        {
          "internalType": "uint256",
          "name": "id",
          "type": "uint256"
        },
        {
          "internalType": "bytes",
          "name": "data",
          "type": "bytes"
        }
      ],
      "name": "safeTransferFrom",
      "outputs": [],
      "stateMutability": "nonpayable",
      "type": "function"
    },
    {
      "inputs": [
        {
          "internalType": "address",
          "name": "operator",
          "type": "address"
        },
        {
          "internalType": "bool",
          "name": "approved",
          "type": "bool"
        }
      ],
      "name": "setApprovalForAll",
      "outputs": [],
      "stateMutability": "nonpayable",
      "type": "function"
    },
    {
      "inputs": [
        {
          "internalType": "contract Authority",
          "name": "newAuthority",
          "type": "address"
        }
      ],
      "name": "setAuthority",
      "outputs": [],
      "stateMutability": "nonpayable",
      "type": "function"
    },
    {
      "inputs": [
        {
          "components": [
            {
              "internalType": "address",
              "name": "token",
              "type": "address"
            },
            {
              "internalType": "address",
              "name": "vault",
              "type": "address"
            },
            {
              "internalType": "bytes32",
              "name": "strategyRoot",
              "type": "bytes32"
            },
            {
              "internalType": "uint256",
              "name": "collateralId",
              "type": "uint256"
            },
            {
              "components": [
                {
                  "internalType": "uint256",
                  "name": "maxAmount",
                  "type": "uint256"
                },
                {
                  "internalType": "uint256",
                  "name": "rate",
                  "type": "uint256"
                },
                {
                  "internalType": "uint256",
                  "name": "duration",
                  "type": "uint256"
                },
                {
                  "internalType": "uint256",
                  "name": "maxPotentialDebt",
                  "type": "uint256"
                },
                {
                  "internalType": "uint256",
                  "name": "liquidationInitialAsk",
                  "type": "uint256"
                }
              ],
              "internalType": "struct ILienToken.Details",
              "name": "details",
              "type": "tuple"
            }
          ],
          "internalType": "struct ILienToken.Lien",
          "name": "lien",
          "type": "tuple"
        },
        {
          "internalType": "address",
          "name": "newPayee",
          "type": "address"
        }
      ],
      "name": "setPayee",
      "outputs": [],
      "stateMutability": "nonpayable",
      "type": "function"
    },
    {
      "inputs": [
        {
          "internalType": "uint256",
          "name": "collateralId",
          "type": "uint256"
        },
        {
          "internalType": "uint256",
          "name": "auctionWindow",
          "type": "uint256"
        },
        {
          "components": [
            {
              "components": [
                {
                  "internalType": "address",
                  "name": "token",
                  "type": "address"
                },
                {
                  "internalType": "address",
                  "name": "vault",
                  "type": "address"
                },
                {
                  "internalType": "bytes32",
                  "name": "strategyRoot",
                  "type": "bytes32"
                },
                {
                  "internalType": "uint256",
                  "name": "collateralId",
                  "type": "uint256"
                },
                {
                  "components": [
                    {
                      "internalType": "uint256",
                      "name": "maxAmount",
                      "type": "uint256"
                    },
                    {
                      "internalType": "uint256",
                      "name": "rate",
                      "type": "uint256"
                    },
                    {
                      "internalType": "uint256",
                      "name": "duration",
                      "type": "uint256"
                    },
                    {
                      "internalType": "uint256",
                      "name": "maxPotentialDebt",
                      "type": "uint256"
                    },
                    {
                      "internalType": "uint256",
                      "name": "liquidationInitialAsk",
                      "type": "uint256"
                    }
                  ],
                  "internalType": "struct ILienToken.Details",
                  "name": "details",
                  "type": "tuple"
                }
              ],
              "internalType": "struct ILienToken.Lien",
              "name": "lien",
              "type": "tuple"
            },
            {
              "components": [
                {
                  "internalType": "uint88",
                  "name": "amount",
                  "type": "uint88"
                },
                {
                  "internalType": "uint8",
                  "name": "position",
                  "type": "uint8"
                },
                {
                  "internalType": "uint40",
                  "name": "last",
                  "type": "uint40"
                },
                {
                  "internalType": "uint40",
                  "name": "end",
                  "type": "uint40"
                },
                {
                  "internalType": "uint256",
                  "name": "lienId",
                  "type": "uint256"
                }
              ],
              "internalType": "struct ILienToken.Point",
              "name": "point",
              "type": "tuple"
            }
          ],
          "internalType": "struct ILienToken.Stack[]",
          "name": "stack",
          "type": "tuple[]"
        },
        {
          "internalType": "address",
          "name": "liquidator",
          "type": "address"
        }
      ],
      "name": "stopLiens",
      "outputs": [],
      "stateMutability": "nonpayable",
      "type": "function"
    },
    {
      "inputs": [
        {
          "internalType": "bytes4",
          "name": "interfaceId",
          "type": "bytes4"
        }
      ],
      "name": "supportsInterface",
      "outputs": [
        {
          "internalType": "bool",
          "name": "",
          "type": "bool"
        }
      ],
      "stateMutability": "view",
      "type": "function"
    },
    {
      "inputs": [
        {
          "internalType": "uint256",
          "name": "tokenId",
          "type": "uint256"
        }
      ],
      "name": "tokenURI",
      "outputs": [
        {
          "internalType": "string",
          "name": "",
          "type": "string"
        }
      ],
      "stateMutability": "pure",
      "type": "function"
    },
    {
      "inputs": [
        {
          "internalType": "address",
          "name": "from",
          "type": "address"
        },
        {
          "internalType": "address",
          "name": "to",
          "type": "address"
        },
        {
          "internalType": "uint256",
          "name": "id",
          "type": "uint256"
        }
      ],
      "name": "transferFrom",
      "outputs": [],
      "stateMutability": "nonpayable",
      "type": "function"
    },
    {
      "inputs": [
        {
          "internalType": "address",
          "name": "newOwner",
          "type": "address"
        }
      ],
      "name": "transferOwnership",
      "outputs": [],
      "stateMutability": "nonpayable",
      "type": "function"
    },
    {
      "inputs": [
        {
          "components": [
            {
              "internalType": "address",
              "name": "token",
              "type": "address"
            },
            {
              "internalType": "address",
              "name": "vault",
              "type": "address"
            },
            {
              "internalType": "bytes32",
              "name": "strategyRoot",
              "type": "bytes32"
            },
            {
              "internalType": "uint256",
              "name": "collateralId",
              "type": "uint256"
            },
            {
              "components": [
                {
                  "internalType": "uint256",
                  "name": "maxAmount",
                  "type": "uint256"
                },
                {
                  "internalType": "uint256",
                  "name": "rate",
                  "type": "uint256"
                },
                {
                  "internalType": "uint256",
                  "name": "duration",
                  "type": "uint256"
                },
                {
                  "internalType": "uint256",
                  "name": "maxPotentialDebt",
                  "type": "uint256"
                },
                {
                  "internalType": "uint256",
                  "name": "liquidationInitialAsk",
                  "type": "uint256"
                }
              ],
              "internalType": "struct ILienToken.Details",
              "name": "details",
              "type": "tuple"
            }
          ],
          "internalType": "struct ILienToken.Lien",
          "name": "lien",
          "type": "tuple"
        }
      ],
      "name": "validateLien",
      "outputs": [
        {
          "internalType": "uint256",
          "name": "lienId",
          "type": "uint256"
        }
      ],
      "stateMutability": "view",
      "type": "function"
    }
  ],
  "bytecode": {
    "object": "0x60806040523480156200001157600080fd5b50604051620055ca380380620055ca83398101604081905262000034916200020a565b33836040518060400160405280601281526020017120b9ba30b934b0902634b2b7102a37b5b2b760711b8152506040518060400160405280600381526020016210531560ea1b81525060006200008f620001cd60201b60201c565b9050806200009e848262000303565b5060018101620000af838262000303565b5050600080546001600160a01b03199081166001600160a01b03878116918217845560018054909316908716179091556040519093503392507f8be0079c531659141344cd1fd0a4f28419497f9722a3daafe3b4186f6b6457e09190a36040516001600160a01b0382169033907fa3396fd7f6e0a21b50e5089d2da70d5ac0a3bbbd1f617a93f134b7638998019890600090a350507f784074eabfd770c66f3ce9775f7de467d76c7082c00549d7c34362d167cafc4c80546001600160a01b0319166001600160a01b039384161790557f784074eabfd770c66f3ce9775f7de467d76c7082c00549d7c34362d167cafc4b805460056001600160a81b0319909116610100939094169290920260ff19169290921717905550620003cf565b7ffc8793c2139a57fdc041f52e5a6e70e2c8f6402d67cb75321c29bc8c4ab736ab90565b6001600160a01b03811681146200020757600080fd5b50565b6000806000606084860312156200022057600080fd5b83516200022d81620001f1565b60208501519093506200024081620001f1565b60408501519092506200025381620001f1565b809150509250925092565b634e487b7160e01b600052604160045260246000fd5b600181811c908216806200028957607f821691505b602082108103620002aa57634e487b7160e01b600052602260045260246000fd5b50919050565b601f821115620002fe57600081815260208120601f850160051c81016020861015620002d95750805b601f850160051c820191505b81811015620002fa57828155600101620002e5565b5050505b505050565b81516001600160401b038111156200031f576200031f6200025e565b620003378162000330845462000274565b84620002b0565b602080601f8311600181146200036f5760008415620003565750858301515b600019600386901b1c1916600185901b178555620002fa565b600085815260208120601f198616915b82811015620003a0578886015182559484019460019091019084016200037f565b5085821015620003bf5787850151600019600388901b60f8161c191681555b5050505050600190811b01905550565b6151eb80620003df6000396000f3fe608060405234801561001057600080fd5b50600436106102325760003560e01c806370a0823111610130578063c87b56dd116100b8578063e985e9c51161007c578063e985e9c514610581578063eb189538146105dc578063f2fde38b146105fe578063f5f1f1a714610611578063f790695e1461061957600080fd5b8063c87b56dd146104ef578063c97deeee1461051d578063d13136fd14610548578063d2d583251461055b578063e544b5941461056e57600080fd5b8063a22cb465116100ff578063a22cb46514610490578063a6fb7bc0146104a3578063b05e52fd146104b6578063b88d4fde146104c9578063bf7e214f146104dc57600080fd5b806370a08231146104365780637a9e5e4b146104495780638da5cb5b1461045c5780639b9761fb1461046f57600080fd5b8063396173d5116101be57806352335c8d1161018257806352335c8d146103c257806359c63afc146103ea5780636037a83a146103fd5780636352211e146104105780636a53691c1461042357600080fd5b8063396173d5146103565780633e6723961461036957806342842e0e1461037c57806344f27e301461038f5780634bf1c849146103af57600080fd5b806323b872dd1161020557806323b872dd146102f5578063289952d3146103085780632e3b88831461031b5780632fd0c78b1461032e5780633398b6371461034e57600080fd5b806301ffc9a714610237578063081812fc1461025f578063082f62c6146102bf578063095ea7b3146102e0575b600080fd5b61024a610245366004614159565b61062c565b60405190151581526020015b60405180910390f35b6102a761026d366004614176565b60009081527ffc8793c2139a57fdc041f52e5a6e70e2c8f6402d67cb75321c29bc8c4ab736af60205260409020546001600160a01b031690565b6040516001600160a01b039091168152602001610256565b6102d26102cd3660046142ae565b610657565b604051908152602001610256565b6102f36102ee3660046142cb565b6106e1565b005b6102f36103033660046142f7565b6107e5565b6102d26103163660046144bc565b61083f565b6102d26103293660046144f0565b6108ec565b61034161033c366004614552565b610966565b60405161025691906146a7565b6102a7610a52565b6102d26103643660046146ba565b610a6e565b6102d26103773660046144bc565b610a88565b6102f361038a3660046142f7565b610b06565b6103a261039d366004614176565b610bfe565b60405161025691906146d3565b6102f36103bd36600461475e565b610cd5565b6103d56103d03660046146ba565b610d7b565b60408051928352602083019190915201610256565b6103416103f836600461479f565b610d98565b6102f361040b366004614804565b610eeb565b6102a761041e366004614176565b611006565b6102d2610431366004614176565b611065565b6102d261044436600461486e565b611083565b6102f361045736600461486e565b611105565b6000546102a7906001600160a01b031681565b61048261047d36600461488b565b6111ef565b6040516102569291906148c5565b6102f361049e3660046148f7565b6113b1565b6102f36104b1366004614925565b61143c565b6102f36104c4366004614947565b611647565b6102f36104d7366004614981565b6117db565b6001546102a7906001600160a01b031681565b6105106104fd366004614176565b5060408051602081019091526000815290565b6040516102569190614a65565b61053061052b3660046144f0565b6118c3565b6040516001600160c01b039091168152602001610256565b6102a7610556366004614176565b6118ec565b610530610569366004614a78565b611928565b6102d261057c366004614aa5565b611952565b61024a61058f366004614ae9565b6001600160a01b0391821660009081527ffc8793c2139a57fdc041f52e5a6e70e2c8f6402d67cb75321c29bc8c4ab736b06020908152604080832093909416825291909152205460ff1690565b6105ef6105ea366004614b99565b611a4f565b60405161025693929190614bcd565b6102f361060c36600461486e565b611c1a565b6102a7611c97565b6102d26106273660046146ba565b611cb3565b60006001600160e01b03198216631ba8001d60e21b1480610651575061065182611d11565b92915050565b60008160405160200161066a9190614bf6565b60408051601f1981840301815290829052805160209182012092506106b39161069591859101614bf6565b6040516020818303038152906040528051906020012060001c611d5f565b6106dc57600360405163683f44bb60e11b81526004016106d39190614c1b565b60405180910390fd5b919050565b60008181526000805160206151768339815191526020526040902054600080516020615196833981519152906001600160a01b03163381148061074957506001600160a01b0381166000908152600583016020908152604080832033845290915290205460ff165b6107865760405162461bcd60e51b815260206004820152600e60248201526d1393d517d055551213d49256915160921b60448201526064016106d3565b600083815260048301602052604080822080546001600160a01b0319166001600160a01b0388811691821790925591518693918516917f8c5be1e5ebec7d5bd14f71427d1e84f3dd0314c0f7b2291e5b200ac8c7c3b92591a450505050565b60006107ef611d89565b6000838152600682016020526040902054909150600160a01b900460ff161561082e57600460405163683f44bb60e11b81526004016106d39190614c1b565b610839848484611dad565b50505050565b60008160008151811061085457610854614c35565b6020026020010151600001516060015182600061086f611d89565b600084815260048201602052604090205490915080158015906108b85750808360405160200161089f91906146a7565b6040516020818303038152906040528051906020012014155b156108d957600a60405163683f44bb60e11b81526004016106d39190614c1b565b6108e286610a88565b9695505050505050565b6000806109088384602001516060015164ffffffffff16611f11565b6001600160581b0316905061095f60018460200151604001518560200151606001516109349190614c61565b64ffffffffff168560200151600001516001600160581b0316846109589190614c86565b9190611f35565b9392505050565b6060848484808060200260200160405190810160405280939291908181526020016000905b828210156109b8576109a96101c083028601368190038101906144f0565b8152602001906001019061098b565b505050505060006109c7611d89565b60008481526004820160205260409020549091508015801590610a10575080836040516020016109f791906146a7565b6040516020818303038152906040528051906020012014155b15610a3157600a60405163683f44bb60e11b81526004016106d39190614c1b565b610a44610a3c611d89565b898989611f53565b509998505050505050505050565b6000610a5c611d89565b600201546001600160a01b0316919050565b6000610651610a82368490038401846144f0565b42612011565b8051600090815b81811015610aff57610ae2848281518110610aac57610aac614c35565b6020026020010151858381518110610ac657610ac6614c35565b6020026020010151602001516060015164ffffffffff16611f11565b610af5906001600160581b031684614c99565b9250600101610a8f565b5050919050565b610b118383836107e5565b6001600160a01b0382163b1580610bba5750604051630a85bd0160e11b8082523360048301526001600160a01b03858116602484015260448301849052608060648401526000608484015290919084169063150b7a029060a4016020604051808303816000875af1158015610b8a573d6000803e3d6000fd5b505050506040513d601f19601f82011682018060405250810190610bae9190614cac565b6001600160e01b031916145b610bf95760405162461bcd60e51b815260206004820152601060248201526f155394d0519157d49150d2541251539560821b60448201526064016106d3565b505050565b604080518082019091526000815260606020820152610c1b611d89565b6000838152600591909101602090815260408083208151808301835281546001600160a01b031681526001820180548451818702810187019095528085529195929486810194939192919084015b82821015610cc75760008481526020908190206040805160608101825260028602909201805483526001908101546001600160581b03811684860152600160581b900464ffffffffff16918301919091529083529092019101610c69565b505050915250909392505050565b6000610cdf611d89565b90506000610cf56102cd368690038601866142ae565b9050610d0081611006565b6001600160a01b0316336001600160a01b03161480610d2b575060028201546001600160a01b031633145b610d3457600080fd5b6000818152600683016020526040902054600160a01b900460ff1615610d7057600460405163683f44bb60e11b81526004016106d39190614c1b565b610839828285612076565b600080610d8f610d89611d89565b846120d2565b91509150915091565b6060858585808060200260200160405190810160405280939291908181526020016000905b82821015610dea57610ddb6101c083028601368190038101906144f0565b81526020019060010190610dbd565b50505050506000610df9611d89565b60008481526004820160205260409020549091508015801590610e4257508083604051602001610e2991906146a7565b6040516020818303038152906040528051906020012014155b15610e6357600a60405163683f44bb60e11b81526004016106d39190614c1b565b6000610e6d611d89565b9050610ecf818b8b808060200260200160405190810160405280939291908181526020016000905b82821015610ec257610eb36101c083028601368190038101906144f0565b81526020019060010190610e95565b50505050508a8a336121a2565b509550610edd818c88612628565b505050505095945050505050565b848383808060200260200160405190810160405280939291908181526020016000905b82821015610f3b57610f2c6101c083028601368190038101906144f0565b81526020019060010190610f0e565b50505050506000610f4a611d89565b60008481526004820160205260409020549091508015801590610f9357508083604051602001610f7a91906146a7565b6040516020818303038152906040528051906020012014155b15610fb457600a60405163683f44bb60e11b81526004016106d39190614c1b565b610fca336000356001600160e01b031916612684565b610fe65760405162461bcd60e51b81526004016106d390614cc9565b610ffb610ff1611d89565b8a8a8a8a8a61272e565b505050505050505050565b600081815260008051602061517683398151915260205260409020546001600160a01b0316806106dc5760405162461bcd60e51b815260206004820152600a6024820152691393d517d3525395115160b21b60448201526064016106d3565b600061106f611d89565b600092835260040160205250604090205490565b60006001600160a01b0382166110ca5760405162461bcd60e51b815260206004820152600c60248201526b5a45524f5f4144445245535360a01b60448201526064016106d3565b506001600160a01b031660009081527ffc8793c2139a57fdc041f52e5a6e70e2c8f6402d67cb75321c29bc8c4ab736ae602052604090205490565b6000546001600160a01b031633148061119a575060015460405163b700961360e01b81526001600160a01b039091169063b70096139061115990339030906001600160e01b03196000351690600401614cef565b602060405180830381865afa158015611176573d6000803e3d6000fd5b505050506040513d601f19601f8201168201806040525081019061119a9190614d1c565b6111a357600080fd5b600180546001600160a01b0319166001600160a01b03831690811790915560405133907fa3396fd7f6e0a21b50e5089d2da70d5ac0a3bbbd1f617a93f134b7638998019890600090a350565b60606111f9614089565b6112066040840184614d39565b356112146040850185614d39565b61122390610180810190614d5a565b808060200260200160405190810160405280939291908181526020016000905b82821015611270576112616101c083028601368190038101906144f0565b81526020019060010190611243565b5050505050600061127f611d89565b600084815260048201602052604090205490915080158015906112c8575080836040516020016112af91906146a7565b6040516020818303038152906040528051906020012014155b156112e957600a60405163683f44bb60e11b81526004016106d39190614c1b565b6112f66040880188614d39565b61130790606081019060400161486e565b6001600160a01b0316336001600160a01b031614611393573360009081527ffc8793c2139a57fdc041f52e5a6e70e2c8f6402d67cb75321c29bc8c4ab736b06020526040808220919061135c908a018a614d39565b61136d90606081019060400161486e565b6001600160a01b0316815260208101919091526040016000205460ff1661139357600080fd5b6113a461139e611d89565b88612a32565b9550955050505050915091565b3360008181527ffc8793c2139a57fdc041f52e5a6e70e2c8f6402d67cb75321c29bc8c4ab736b0602090815260408083206001600160a01b03871680855290835292819020805460ff191686151590811790915590519081529192917f17307eab39ab6107e8899845ad3d59bd9653f200f220920489ca2b5937696c31910160405180910390a35050565b6000611446611d89565b600381015460405163db067b4360e01b8152600481018690529192506001600160a01b03169063db067b4390602401602060405180830381865afa158015611492573d6000803e3d6000fd5b505050506040513d601f19601f820116820180604052508101906114b69190614da3565b6001600160a01b0316336001600160a01b0316146114d357600080fd5b60006114e182858533613008565b60008581526004840160205260408120559050828110156115e1576001820154825460038401546040516331a9108f60e11b8152600481018890526001600160a01b039384169363f3913e699361010090048116923392911690636352211e90602401602060405180830381865afa158015611561573d6000803e3d6000fd5b505050506040513d601f19601f820116820180604052508101906115859190614da3565b61158f8689614c86565b6040518563ffffffff1660e01b81526004016115ae9493929190614dc0565b600060405180830381600087803b1580156115c857600080fd5b505af11580156115dc573d6000803e3d6000fd5b505050505b6003820154604051632e99361160e01b8152600481018690526001600160a01b0390911690632e99361190602401600060405180830381600087803b15801561162957600080fd5b505af115801561163d573d6000803e3d6000fd5b5050505050505050565b61165d336000356001600160e01b031916612684565b6116795760405162461bcd60e51b81526004016106d390614cc9565b60006116886020830183614dea565b905060006116996020840184614e0b565b8080601f01602080910402602001604051908101604052809392919081815260200183838082843760009201829052509394506116d99250611d89915050565b905060028360038111156116ef576116ef614c05565b0361172f57818060200190518101906117089190614da3565b6003820180546001600160a01b0319166001600160a01b039290921691909117905561179c565b600383600381111561174357611743614c05565b03611783578180602001905181019061175c9190614da3565b6002820180546001600160a01b0319166001600160a01b039290921691909117905561179c565b6040516345f279ab60e01b815260040160405180910390fd5b7f4aa20127da97281124f6c5bf77f293274afb4745d8b41b9c40434f8e51ac7c8183836040516117cd929190614e61565b60405180910390a150505050565b6117e68585856107e5565b6001600160a01b0384163b158061187d5750604051630a85bd0160e11b808252906001600160a01b0386169063150b7a029061182e9033908a90899089908990600401614e83565b6020604051808303816000875af115801561184d573d6000803e3d6000fd5b505050506040513d601f19601f820116820180604052508101906118719190614cac565b6001600160e01b031916145b6118bc5760405162461bcd60e51b815260206004820152601060248201526f155394d0519157d49150d2541251539560821b60448201526064016106d3565b5050505050565b60006118d28260000151610657565b506118dd8242611f11565b6001600160581b031692915050565b60006118f782611d5f565b61191757600360405163683f44bb60e11b81526004016106d39190614c1b565b610651611922611d89565b836131f7565b60006119378360000151610657565b506119428383611f11565b6001600160581b03169392505050565b60008260008151811061196757611967614c35565b60200260200101516000015160600151836000611982611d89565b600084815260048201602052604090205490915080158015906119cb575080836040516020016119b291906146a7565b6040516020818303038152906040528051906020012014155b156119ec57600a60405163683f44bb60e11b81526004016106d39190614c1b565b6000945060005b8751811015611a4457611a1f888281518110611a1157611a11614c35565b602002602001015188611f11565b611a32906001600160581b031687614c99565b9550611a3d81614ed7565b90506119f3565b505050505092915050565b600060606000611a6b336000356001600160e01b031916612684565b611a875760405162461bcd60e51b81526004016106d390614cc9565b835160808501516000611a98611d89565b60008481526004820160205260409020549091508015801590611ae157508083604051602001611ac891906146a7565b6040516020818303038152906040528051906020012014155b15611b0257600a60405163683f44bb60e11b81526004016106d39190614c1b565b6000611b0c611d89565b9050611b16614089565b611b20828b613243565b60808c0151919a509150611b369083908361349e565b975087604051602001611b4991906146a7565b60408051601f1981840301815291815281516020928301208c51600090815260048601909352912055611b7b816108ec565b9650888a600001517f7d5042e14bf2254b1f6f4812678ad179feafa7b8e9598a95b4cf0898bca9515283602001516020015184604051611bbc929190614ef0565b60405180910390a389600001517e91645657b25a8b16b44338f8bf3de2287a9eeee105bc6dc303632d9dca978882602001516020015160018b51604051611c0593929190614f08565b60405180910390a25050505050509193909250565b611c30336000356001600160e01b031916612684565b611c4c5760405162461bcd60e51b81526004016106d390614cc9565b600080546001600160a01b0319166001600160a01b0383169081178255604051909133917f8be0079c531659141344cd1fd0a4f28419497f9722a3daafe3b4186f6b6457e09190a350565b6000611ca1611d89565b600301546001600160a01b0316919050565b6000611cbd611d89565b606083013560009081526005919091016020526040902060010180546101a0840135908110611cee57611cee614c35565b60009182526020909120600160029092020101546001600160581b031692915050565b60006301ffc9a760e01b6001600160e01b031983161480611d4257506380ac58cd60e01b6001600160e01b03198316145b806106515750506001600160e01b031916635b5e139f60e01b1490565b600090815260008051602061517683398151915260205260409020546001600160a01b0316151590565b7f784074eabfd770c66f3ce9775f7de467d76c7082c00549d7c34362d167cafc4b90565b60008181526000805160206151768339815191526020526040902054600080516020615196833981519152906001600160a01b03858116911614611e205760405162461bcd60e51b815260206004820152600a60248201526957524f4e475f46524f4d60b01b60448201526064016106d3565b6001600160a01b038316611e6a5760405162461bcd60e51b81526020600482015260116024820152701253959053125117d49150d25412515395607a1b60448201526064016106d3565b336001600160a01b0385161480611ea657506001600160a01b0384166000908152600582016020908152604080832033845290915290205460ff165b80611ec9575060008281526004820160205260409020546001600160a01b031633145b611f065760405162461bcd60e51b815260206004820152600e60248201526d1393d517d055551213d49256915160921b60448201526064016106d3565b61083984848461369d565b6000611f25611f208484612011565b61378b565b60208401515161095f9190614f32565b6000826000190484118302158202611f4c57600080fd5b5091020490565b6060600083815b81811015611fdb57611fc2888888808060200260200160405190810160405280939291908181526020016000905b82821015611fb557611fa66101c083028601368190038101906144f0565b81526020019060010190611f88565b50505050508388336121a2565b9094509250611fd18386614c86565b9450600101611f5a565b506120078787876000818110611ff357611ff3614c35565b90506101c002016000016060013585612628565b5094509492505050565b60008083602001516040015164ffffffffff168361202f9190614c86565b905061206e8460200151600001516001600160581b031661206886600001516080015160200151600185611f359092919063ffffffff16565b906137a1565b949350505050565b600082815260068401602052604080822080546001600160a01b0319166001600160a01b0385169081179091559051909184917f22178795f41268ec023f6a5c2fcb5d7098c4aadccddf002ae2cd25d569c20c0d9190a3505050565b600080806120ee6120e8368690038601866144f0565b42611f11565b60028601546001600160581b039190911691506000906001600160a01b031663aaf6b93b61212a88612125368a90038a018a6144f0565b6137b6565b6040518263ffffffff1660e01b815260040161214891815260200190565b602060405180830381865afa158015612165573d6000803e3d6000fd5b505050506040513d601f19601f820116820180604052508101906121899190614f52565b6121939083614c99565b919350909150505b9250929050565b6060600080868660ff16815181106121bc576121bc614c35565b6020908102919091018101518082015160800151600081815260068c01909352604090922054909250600160a01b900460ff161561221057600460405163683f44bb60e11b81526004016106d39190614c1b565b60208201516060015164ffffffffff16428110156122415760405163046c4b6360e51b815260040160405180910390fd5b600061224d8442611f11565b6001600160581b03169050600061226384611006565b905060006122718d8361380d565b9050600061227f8e876131f7565b9050838b111561228d57839a505b811561234157826001600160a01b03166338663c3f60405180606001604052806122b68b6108ec565b81526020018a60200151600001516001600160581b031681526020018a60200151600001516001600160581b0316886122ef9190614c86565b8152506040518263ffffffff1660e01b815260040161230e9190614f6b565b600060405180830381600087803b15801561232857600080fd5b505af115801561233c573d6000803e3d6000fd5b505050505b61234a8461378b565b60208801516001600160581b039091169052612365426138f4565b60208801805164ffffffffff90921660409092019190915251516001600160581b03168b101561242a576123988b61378b565b602088015180516123aa908390614f8c565b6001600160581b0316905250811561242557826001600160a01b03166359f9556e6123d4896108ec565b6040518263ffffffff1660e01b81526004016123f291815260200190565b600060405180830381600087803b15801561240c57600080fd5b505af1158015612420573d6000803e3d6000fd5b505050505b612548565b6020870151516001600160581b03169a5081156125145760405163349f723d60e01b81526001600160401b03861660048201526001600160a01b0384169063f1e9f4f590829063349f723d90602401602060405180830381865afa158015612496573d6000803e3d6000fd5b505050506040513d601f19601f820116820180604052508101906124ba9190614fac565b6040516001600160e01b031960e084901b1681526001600160401b039091166004820152602401600060405180830381600087803b1580156124fb57600080fd5b505af115801561250f573d6000803e3d6000fd5b505050505b600086815260068f016020526040902080546001600160a81b031916905561253b86613908565b6125458d8d6139f9565b9c505b8d60010160009054906101000a90046001600160a01b03166001600160a01b031663f3913e698f60000160019054906101000a90046001600160a01b03168c848f6040518563ffffffff1660e01b81526004016125a89493929190614dc0565b600060405180830381600087803b1580156125c257600080fd5b505af11580156125d6573d6000803e3d6000fd5b50505050857f7c3f93091d6a13e0438473f0d6ba31c52b56b0c08e0220f29ef563a5ab833a0a8c60405161260c91815260200190565b60405180910390a2509a9c989b50979950505050505050505050565b8051600003612647576000828152600484016020526040812055505050565b8060405160200161265891906146a7565b60408051601f198184030181529181528151602092830120600085815260048701909352912055505050565b6001546000906001600160a01b0316801580159061270e575060405163b700961360e01b81526001600160a01b0382169063b7009613906126cd90879030908890600401614cef565b602060405180830381865afa1580156126ea573d6000803e3d6000fd5b505050506040513d601f19601f8201168201806040525081019061270e9190614d1c565b8061206e57506000546001600160a01b0385811691161491505092915050565b6000858152600587016020526040812080546001600160a01b0319166001600160a01b0384161790555b82811015612a0657604080516060810182526000808252602082018190529181019190915284848381811061278f5761278f614c35565b6101c002919091016101a001358252508484838181106127b1576127b1614c35565b6127cd926101a06101c090920201908101915061018001614fd5565b64ffffffffff16604082015260006128078686858181106127f0576127f0614c35565b90506101c002018036038101906120e891906144f0565b6001600160581b0380821660208086019182528551600090815260068e0182526040808220805460ff60a01b1916600160a01b1790558d825260058f01835280822060019081018054808301825590845293832089516002909502018481559451940180549189015164ffffffffff16600160581b026fffffffffffffffffffffffffffffffff199092169490951693909317929092179092559192506128af908b906131f7565b90506128bb8a8261380d565b156129f8576000816001600160a01b031663cd12030f8a60405180606001604052806129098d8d8c8181106128f2576128f2614c35565b90506101c0020180360381019061032991906144f0565b8152602001876001600160581b031681526020018c8c8b81811061292f5761292f614c35565b61294b926101a06101c090920201908101915061018001614fd5565b64ffffffffff908116909152604080516001600160e01b031960e087901b1681526004810194909452825160248501526020830151604485015291909101511660648201526084016020604051808303816000875af11580156129b2573d6000803e3d6000fd5b505050506040513d601f19601f820116820180604052508101906129d69190614da3565b90506001600160a01b038116156129f6576129f68b856000015183612076565b505b836001019350505050612758565b505050600092835250506004909101602052604090206d20a1aa24ab22afa0aaa1aa24a7a760911b9055565b6060612a3c614089565b612a5b84612a4d6040860186614d39565b612a5690614ff0565b613243565b60028601549092506001600160a01b031690506334e4b616612a806040860186614d39565b606001612a936040870160208801614ffc565b612aa06040880188614d39565b612aaf90610180810190614d5a565b6040518563ffffffff1660e01b8152600401612ace949392919061508c565b602060405180830381865afa158015612aeb573d6000803e3d6000fd5b505050506040513d601f19601f82011682018060405250810190612b0f9190614d1c565b612b2c576040516369a61bf560e11b815260040160405180910390fd5b6d20a1aa24ab22afa0aaa1aa24a7a760911b600485016000612b516040870187614d39565b6060016060013581526020019081526020016000205403612b8857600460405163683f44bb60e11b81526004016106d39190614c1b565b600080612bd986612b9c6040880188614d39565b612bab90610180810190614d5a565b612bbb60408a0160208b01614ffc565b60ff16818110612bcd57612bcd614c35565b90506101c002016120d2565b9092509050612beb6040860186614d39565b6101400135612c66612c006040880188614d39565b612c0f90610180810190614d5a565b808060200260200160405190810160405280939291908181526020016000905b82821015612c5c57612c4d6101c083028601368190038101906144f0565b81526020019060010190612c2f565b5050505050610a88565b1115612c8857600860405163683f44bb60e11b81526004016106d39190614c1b565b81612c966040870187614d39565b60e001351015612cd457612cad6040860186614d39565b60405163f4657c5360e01b815260e0909101356004820152602481018390526044016106d3565b600186015486546001600160a01b039182169163f3913e699161010090041633612d4a8a612d0560408c018c614d39565b612d1490610180810190614d5a565b612d2460408e0160208f01614ffc565b60ff16818110612d3657612d36614c35565b90506101c0020161012001608001356131f7565b856040518563ffffffff1660e01b8152600401612d6a9493929190614dc0565b600060405180830381600087803b158015612d8457600080fd5b505af1158015612d98573d6000803e3d6000fd5b505050506000612dd187878060400190612db29190614d39565b612dc190610180810190614d5a565b612d2460408b0160208c01614ffc565b9050612ddd878261380d565b15612f6a57806001600160a01b0316632d4ece9d6040518060600160405280612e408a8060400190612e0f9190614d39565b612e1e90610180810190614d5a565b612e2e60408e0160208f01614ffc565b60ff168181106128f2576128f2614c35565b8152602001612e5260408b018b614d39565b612e6190610180810190614d5a565b612e7160408d0160208e01614ffc565b60ff16818110612e8357612e83614c35565b612e9f926101a06101c090920201908101915061018001614fd5565b64ffffffffff168152602001612eb860408b018b614d39565b612ec790610180810190614d5a565b612ed760408d0160208e01614ffc565b60ff16818110612ee957612ee9614c35565b612f05926101406101c09092020190810191506101200161515a565b612f18906001600160581b031687614c86565b8152506040518263ffffffff1660e01b8152600401612f379190614f6b565b600060405180830381600087803b158015612f5157600080fd5b505af1158015612f65573d6000803e3d6000fd5b505050505b612ffc87612f7b6040890189614d39565b612f8a90610180810190614d5a565b612f9a60408b0160208c01614ffc565b60ff1688612fab60408d018d614d39565b612fba90610180810190614d5a565b8d6020016020810190612fcd9190614ffc565b60ff16818110612fdf57612fdf614c35565b90506101c0020161012001608001358a6020015160800151613b6f565b94505050509250929050565b600083815260058501602052604080822060028701549151631276cf5360e01b81526004810186905260019091019183916001600160a01b0390911690631276cf5390602401602060405180830381865afa15801561306b573d6000803e3d6000fd5b505050506040513d601f19601f8201168201806040525081019061308f9190614f52565b60018801548854600089815260058b0160205260409081902054905163f3913e6960e01b81529394506001600160a01b039283169363f3913e69936130e59361010090048116928a929116908790600401614dc0565b600060405180830381600087803b1580156130ff57600080fd5b505af1158015613113573d6000803e3d6000fd5b5050505080856131239190614c86565b945061312f8184614c99565b925060005b82548110156131ec5760006131cf898986805480602002602001604051908101604052809291908181526020016000905b828210156131c35760008481526020908190206040805160608101825260028602909201805483526001908101546001600160581b03811684860152600160581b900464ffffffffff16918301919091529083529092019101613165565b50505050858b8b613c17565b9687900396949094019350806131e481614ed7565b915050613134565b505050949350505050565b60008181526006830160205260408120546001600160a01b03166132235761321e82611006565b61095f565b50600090815260069190910160205260409020546001600160a01b031690565b600061324d614089565b825160009081526004850160205260409020546d5f5e55db54dd505f555e55db585960911b0161329357600460405163683f44bb60e11b81526004016106d39190614c1b565b835460808401515160ff909116116132c157600960405163683f44bb60e11b81526004016106d39190614c1b565b82602001518360600151608001516080015110806132eb5750826060015160800151608001516000145b1561330c57600b60405163683f44bb60e11b81526004016106d39190614c1b565b6080830151511561336857826080015160008151811061332e5761332e614c35565b602002602001015160000151606001518360600151606001511461336857600160405163683f44bb60e11b81526004016106d39190614c1b565b608083015151156133c457826080015160008151811061338a5761338a614c35565b60200260200101516000015160600151836060015160600151146133c457600160405163683f44bb60e11b81526004016106d39190614c1b565b82606001516040516020016133d99190614bf6565b6040516020818303038152906040528051906020012060001c915060006040518060a0016040528061340e866020015161378b565b6001600160581b0316815260200185608001515160ff168152602001613433426138f4565b64ffffffffff16815260200161345f866060015160800151604001514261345a9190614c99565b6138f4565b64ffffffffff16815260200184815250905061347f846040015184613f5c565b6040805180820190915260609490940151845260208401525092909150565b6060825160016134ae9190614c99565b6001600160401b038111156134c5576134c561418f565b6040519080825280602002602001820160405280156134fe57816020015b6134eb614089565b8152602001906001900390816134e35790505b509050818184518151811061351557613515614c35565b6020026020010181905250600061353b8384602001516060015164ffffffffff16611f11565b6001600160581b031690506000845190505b801561365a576000613560600183614c86565b905085818151811061357457613574614c35565b602002602001015184828151811061358e5761358e614c35565b60200260200101819052508381815181106135ab576135ab614c35565b6020026020010151602001516060015164ffffffffff164211156135e557600760405163683f44bb60e11b81526004016106d39190614c1b565b6135fa848281518110610aac57610aac614c35565b6001600160581b03168301925083818151811061361957613619614c35565b602002602001015160000151608001516080015183111561365057600c60405163683f44bb60e11b81526004016106d39190614c1b565b506000190161354d565b506000845111801561367457508251608001516060015181115b1561369557600860405163683f44bb60e11b81526004016106d39190614c1b565b509392505050565b6001600160a01b0383811660008181527ffc8793c2139a57fdc041f52e5a6e70e2c8f6402d67cb75321c29bc8c4ab736ae60209081526040808320805460001901905593861680835284832080546001019055858352600080516020615176833981519152825284832080546001600160a01b031990811683179091557ffc8793c2139a57fdc041f52e5a6e70e2c8f6402d67cb75321c29bc8c4ab736af90925284832080549092169091559251600080516020615196833981519152938593909290917fddf252ad1be2c89b69c2b068fc378daa952ba7f163c4a11628f55a4df523b3ef9190a450505050565b6000600160581b821061379d57600080fd5b5090565b600061095f8383670de0b6b3a7640000611f35565b6000804283602001516060015164ffffffffff166137d49190614c86565b905061206e8360200151600001516001600160581b031661206885600001516080015160200151600185611f359092919063ffffffff16565b6002820154604051630642194560e41b81526001600160a01b0383811660048301526000921690636421945090602401602060405180830381865afa15801561385a573d6000803e3d6000fd5b505050506040513d601f19601f8201168201806040525081019061387e9190614d1c565b801561095f57506040516301ffc9a760e01b81526301929e5560e11b60048201526001600160a01b038316906301ffc9a790602401602060405180830381865afa1580156138d0573d6000803e3d6000fd5b505050506040513d601f19601f8201168201806040525081019061095f9190614d1c565b600065010000000000821061379d57600080fd5b60008181526000805160206151768339815191526020526040902054600080516020615196833981519152906001600160a01b0316806139775760405162461bcd60e51b815260206004820152600a6024820152691393d517d3525395115160b21b60448201526064016106d3565b6001600160a01b03811660008181526003840160209081526040808320805460001901905586835260028601825280832080546001600160a01b0319908116909155600487019092528083208054909216909155518592907fddf252ad1be2c89b69c2b068fc378daa952ba7f163c4a11628f55a4df523b3ef908390a4505050565b815160609060ff83168111613a0d57600080fd5b613a18600182614c86565b6001600160401b03811115613a2f57613a2f61418f565b604051908082528060200260200182016040528015613a6857816020015b613a55614089565b815260200190600190039081613a4d5790505b50915060005b8360ff16811015613ab857848181518110613a8b57613a8b614c35565b6020026020010151838281518110613aa557613aa5614c35565b6020908102919091010152600101613a6e565b6001015b81811015613b0657848160010181518110613ad957613ad9614c35565b6020026020010151838281518110613af357613af3614c35565b6020908102919091010152600101613abc565b848460ff1681518110613b1b57613b1b614c35565b602002602001015160000151606001517e91645657b25a8b16b44338f8bf3de2287a9eeee105bc6dc303632d9dca97888560028651604051613b5f93929190614f08565b60405180910390a2505092915050565b60608686808060200260200160405190810160405280939291908181526020016000905b82821015613bc057613bb16101c083028601368190038101906144f0565b81526020019060010190613b93565b5050505050905083818681518110613bda57613bda614c35565b6020026020010181905250613bee83613908565b60009283526006909701602052506040902080546001600160a81b031916905550929392505050565b600080858581518110613c2c57613c2c614c35565b60200260200101516000015190506000868681518110613c4e57613c4e614c35565b60200260200101516040015164ffffffffff1690506000878781518110613c7757613c77614c35565b6020026020010151602001516001600160581b031690506000613c9984611006565b90506000613ca78c866131f7565b9050613cb28861378b565b6001600160581b0316831115613d0657613ccb8861378b565b8a8a81518110613cdd57613cdd614c35565b6020026020010151602001818151613cf59190614f8c565b6001600160581b0316905250613d0a565b8297505b60018c01548c5460405163f3913e6960e01b81526001600160a01b039283169263f3913e6992613d4c92610100909104909116908b9086908e90600401614dc0565b600060405180830381600087803b158015613d6657600080fd5b505af1158015613d7a573d6000803e3d6000fd5b505050600086815260068e016020526040902080546001600160a81b03191690555089518a908a908110613db057613db0614c35565b60200260200101613deb60405180606001604052806000815260200160006001600160581b03168152602001600064ffffffffff1681525090565b9052613df685613908565b613e008c8261380d565b15613f1257806001600160a01b0316826001600160a01b031603613e895760408051602081018252858152905163aaed42b760e01b8152905160048201526001600160a01b0382169063aaed42b790602401600060405180830381600087803b158015613e6c57600080fd5b505af1158015613e80573d6000803e3d6000fd5b50505050613f12565b806001600160a01b031663f1e9f4f58b8b81518110613eaa57613eaa614c35565b6020026020010151604001516040518263ffffffff1660e01b8152600401613edf919064ffffffffff91909116815260200190565b600060405180830381600087803b158015613ef957600080fd5b505af1158015613f0d573d6000803e3d6000fd5b505050505b847f7c3f93091d6a13e0438473f0d6ba31c52b56b0c08e0220f29ef563a5ab833a0a89604051613f4491815260200190565b60405180910390a250959a9950505050505050505050565b6001600160a01b038216613fa65760405162461bcd60e51b81526020600482015260116024820152701253959053125117d49150d25412515395607a1b60448201526064016106d3565b60008181526000805160206151768339815191526020526040902054600080516020615196833981519152906001600160a01b0316156140195760405162461bcd60e51b815260206004820152600e60248201526d1053149150511657d3525395115160921b60448201526064016106d3565b6001600160a01b03831660008181526003830160209081526040808320805460010190558583526002850190915280822080546001600160a01b0319168417905551849291907fddf252ad1be2c89b69c2b068fc378daa952ba7f163c4a11628f55a4df523b3ef908290a4505050565b604051806040016040528061409c6140d2565b81526040805160a0810182526000808252602082810182905292820181905260608201819052608082015291015290565b905290565b6040518060a0016040528060006001600160a01b0316815260200160006001600160a01b0316815260200160008019168152602001600081526020016140cd6040518060a0016040528060008152602001600081526020016000815260200160008152602001600081525090565b6001600160e01b03198116811461415657600080fd5b50565b60006020828403121561416b57600080fd5b813561095f81614140565b60006020828403121561418857600080fd5b5035919050565b634e487b7160e01b600052604160045260246000fd5b60405160a081016001600160401b03811182821017156141c7576141c761418f565b60405290565b604080519081016001600160401b03811182821017156141c7576141c761418f565b6001600160a01b038116811461415657600080fd5b600081830361012081121561421857600080fd5b6142206141a5565b9150823561422d816141ef565b8252602083013561423d816141ef565b6020830152604083810135908301526060808401359083015260a0607f198201121561426857600080fd5b506142716141a5565b6080830135815260a0830135602082015260c0830135604082015260e0830135606082015261010083013560808201528060808301525092915050565b600061012082840312156142c157600080fd5b61095f8383614204565b600080604083850312156142de57600080fd5b82356142e9816141ef565b946020939093013593505050565b60008060006060848603121561430c57600080fd5b8335614317816141ef565b92506020840135614327816141ef565b929592945050506040919091013590565b80356001600160581b03811681146106dc57600080fd5b803560ff811681146106dc57600080fd5b803564ffffffffff811681146106dc57600080fd5b60008183036101c081121561438957600080fd5b6143916141cd565b915061439d8484614204565b825260a061011f19820112156143b257600080fd5b506143bb6141a5565b6143c86101208401614338565b81526143d7610140840161434f565b60208201526143e96101608401614360565b60408201526143fb6101808401614360565b60608201526101a083013560808201528060208301525092915050565b600082601f83011261442957600080fd5b813560206001600160401b03808311156144455761444561418f565b604051601f19603f8560051b0116810181811083821117156144695761446961418f565b6040528381526101c0938402860183019383820192508785111561448c57600080fd5b8387015b858110156144af576144a28982614375565b8452928401928101614490565b5090979650505050505050565b6000602082840312156144ce57600080fd5b81356001600160401b038111156144e457600080fd5b61206e84828501614418565b60006101c0828403121561450357600080fd5b61095f8383614375565b60008083601f84011261451f57600080fd5b5081356001600160401b0381111561453657600080fd5b6020830191508360206101c08302850101111561219b57600080fd5b6000806000806060858703121561456857600080fd5b8435935060208501356001600160401b0381111561458557600080fd5b6145918782880161450d565b9598909750949560400135949350505050565b80516001600160a01b0390811683526020808301519091168184015260408083015181850152606080840151818601526080938401518051858701529283015160a08601529082015160c085015281015160e0840152015161010090910152565b6146108282516145a4565b60209081015180516001600160581b03166101208401529081015160ff16610140830152604081015164ffffffffff908116610160840152606082015116610180830152608001516101a090910152565b600081518084526020808501945080840160005b8381101561469c57614688878351614605565b6101c0969096019590820190600101614675565b509495945050505050565b60208152600061095f6020830184614661565b60006101c082840312156146cd57600080fd5b50919050565b602080825282516001600160a01b031682820152828101516040808401819052815160608086018290526000949390929084019185919060808801905b8084101561475157845180518352878101516001600160581b03168884015283015164ffffffffff1683830152938601936001939093019290850190614710565b5098975050505050505050565b60008082840361014081121561477357600080fd5b6101208082121561478357600080fd5b8493508301359050614794816141ef565b809150509250929050565b6000806000806000608086880312156147b757600080fd5b8535945060208601356001600160401b038111156147d457600080fd5b6147e08882890161450d565b90955093506147f390506040870161434f565b949793965091946060013592915050565b60008060008060006080868803121561481c57600080fd5b853594506020860135935060408601356001600160401b0381111561484057600080fd5b61484c8882890161450d565b9094509250506060860135614860816141ef565b809150509295509295909350565b60006020828403121561488057600080fd5b813561095f816141ef565b60006020828403121561489d57600080fd5b81356001600160401b038111156148b357600080fd5b82016060818503121561095f57600080fd5b60006101e08083526148d981840186614661565b91505061095f6020830184614605565b801515811461415657600080fd5b6000806040838503121561490a57600080fd5b8235614915816141ef565b91506020830135614794816148e9565b6000806040838503121561493857600080fd5b50508035926020909101359150565b60006020828403121561495957600080fd5b81356001600160401b0381111561496f57600080fd5b82016040818503121561095f57600080fd5b60008060008060006080868803121561499957600080fd5b85356149a4816141ef565b945060208601356149b4816141ef565b93506040860135925060608601356001600160401b03808211156149d757600080fd5b818801915088601f8301126149eb57600080fd5b8135818111156149fa57600080fd5b896020828501011115614a0c57600080fd5b9699959850939650602001949392505050565b6000815180845260005b81811015614a4557602081850181015186830182015201614a29565b506000602082860101526020601f19601f83011685010191505092915050565b60208152600061095f6020830184614a1f565b6000806101e08385031215614a8c57600080fd5b614a968484614375565b946101c0939093013593505050565b60008060408385031215614ab857600080fd5b82356001600160401b03811115614ace57600080fd5b614ada85828601614418565b95602094909401359450505050565b60008060408385031215614afc57600080fd5b8235614b07816141ef565b91506020830135614794816141ef565b60006101a08284031215614b2a57600080fd5b614b326141a5565b905081358152602082013560208201526040820135614b50816141ef565b6040820152614b628360608401614204565b60608201526101808201356001600160401b03811115614b8157600080fd5b614b8d84828501614418565b60808301525092915050565b600060208284031215614bab57600080fd5b81356001600160401b03811115614bc157600080fd5b61206e84828501614b17565b838152606060208201526000614be66060830185614661565b9050826040830152949350505050565b610120810161065182846145a4565b634e487b7160e01b600052602160045260246000fd5b60208101600d8310614c2f57614c2f614c05565b91905290565b634e487b7160e01b600052603260045260246000fd5b634e487b7160e01b600052601160045260246000fd5b64ffffffffff828116828216039080821115614c7f57614c7f614c4b565b5092915050565b8181038181111561065157610651614c4b565b8082018082111561065157610651614c4b565b600060208284031215614cbe57600080fd5b815161095f81614140565b6020808252600c908201526b15539055551213d49256915160a21b604082015260600190565b6001600160a01b0393841681529190921660208201526001600160e01b0319909116604082015260600190565b600060208284031215614d2e57600080fd5b815161095f816148e9565b6000823561019e19833603018112614d5057600080fd5b9190910192915050565b6000808335601e19843603018112614d7157600080fd5b8301803591506001600160401b03821115614d8b57600080fd5b60200191506101c08102360382131561219b57600080fd5b600060208284031215614db557600080fd5b815161095f816141ef565b6001600160a01b039485168152928416602084015292166040820152606081019190915260800190565b600060208284031215614dfc57600080fd5b81356004811061095f57600080fd5b6000808335601e19843603018112614e2257600080fd5b8301803591506001600160401b03821115614e3c57600080fd5b60200191503681900382131561219b57600080fd5b6004811061415657614156614c05565b614e6a83614e51565b82815260406020820152600061206e6040830184614a1f565b6001600160a01b038681168252851660208201526040810184905260806060820181905281018290526000828460a0840137600060a0848401015260a0601f19601f85011683010190509695505050505050565b600060018201614ee957614ee9614c4b565b5060010190565b60ff831681526101e0810161095f6020830184614605565b60ff8416815260608101614f1b84614e51565b83602083015260ff83166040830152949350505050565b6001600160581b03818116838216019080821115614c7f57614c7f614c4b565b600060208284031215614f6457600080fd5b5051919050565b81518152602080830151908201526040808301519082015260608101610651565b6001600160581b03828116828216039080821115614c7f57614c7f614c4b565b600060208284031215614fbe57600080fd5b81516001600160401b038116811461095f57600080fd5b600060208284031215614fe757600080fd5b61095f82614360565b60006106513683614b17565b60006020828403121561500e57600080fd5b61095f8261434f565b8035615022816141ef565b6001600160a01b03908116835260208201359061503e826141ef565b16602083015260408181013590830152606080820135908301526080808201359083015260a0808201359083015260c0808201359083015260e0808201359083015261010090810135910152565b600061016080830161509e8489615017565b61012060ff80891682870152610140848188015283888552610180945084880190508960005b8a811015615148576150d68383615017565b6001600160581b036150e9878401614338565b1686840152846150fa85840161434f565b168484015261510a888301614360565b64ffffffffff8082168a860152806151238a8601614360565b16858a015250506101a082810135908401526101c092830192909101906001016150c4565b50909c9b505050505050505050505050565b60006020828403121561516c57600080fd5b61095f8261433856fefc8793c2139a57fdc041f52e5a6e70e2c8f6402d67cb75321c29bc8c4ab736adfc8793c2139a57fdc041f52e5a6e70e2c8f6402d67cb75321c29bc8c4ab736aba264697066735822122062423cc7e1734ab493c5bb064b45cb23f07db41f7f543d9a89e18642268e2d8464736f6c63430008110033",
    "linkReferences": {}
  },
  "methodIdentifiers": {
    "ASTARIA_ROUTER()": "3398b637",
    "COLLATERAL_TOKEN()": "f5f1f1a7",
    "_getMaxPotentialDebtForCollateral(((address,address,bytes32,uint256,(uint256,uint256,uint256,uint256,uint256)),(uint88,uint8,uint40,uint40,uint256))[])": "3e672396",
    "approve(address,uint256)": "095ea7b3",
    "authority()": "bf7e214f",
    "balanceOf(address)": "70a08231",
    "buyoutLien(((address,uint256,((uint8,uint256,address),((address,address,bytes32,uint256,(uint256,uint256,uint256,uint256,uint256)),(uint88,uint8,uint40,uint40,uint256))[],bytes,(bytes32,bytes32[]),uint256,uint8,bytes32,bytes32)),uint8,(uint256,uint256,address,(address,address,bytes32,uint256,(uint256,uint256,uint256,uint256,uint256)),((address,address,bytes32,uint256,(uint256,uint256,uint256,uint256,uint256)),(uint88,uint8,uint40,uint40,uint256))[])))": "9b9761fb",
    "calculateSlope(((address,address,bytes32,uint256,(uint256,uint256,uint256,uint256,uint256)),(uint88,uint8,uint40,uint40,uint256)))": "2e3b8883",
    "createLien((uint256,uint256,address,(address,address,bytes32,uint256,(uint256,uint256,uint256,uint256,uint256)),((address,address,bytes32,uint256,(uint256,uint256,uint256,uint256,uint256)),(uint88,uint8,uint40,uint40,uint256))[]))": "eb189538",
    "file((uint8,bytes))": "b05e52fd",
    "getAmountOwingAtLiquidation(((address,address,bytes32,uint256,(uint256,uint256,uint256,uint256,uint256)),(uint88,uint8,uint40,uint40,uint256)))": "f790695e",
    "getApproved(uint256)": "081812fc",
    "getAuctionData(uint256)": "44f27e30",
    "getBuyout(((address,address,bytes32,uint256,(uint256,uint256,uint256,uint256,uint256)),(uint88,uint8,uint40,uint40,uint256)))": "52335c8d",
    "getCollateralState(uint256)": "6a53691c",
    "getInterest(((address,address,bytes32,uint256,(uint256,uint256,uint256,uint256,uint256)),(uint88,uint8,uint40,uint40,uint256)))": "396173d5",
    "getMaxPotentialDebtForCollateral(((address,address,bytes32,uint256,(uint256,uint256,uint256,uint256,uint256)),(uint88,uint8,uint40,uint40,uint256))[])": "289952d3",
    "getMaxPotentialDebtForCollateral(((address,address,bytes32,uint256,(uint256,uint256,uint256,uint256,uint256)),(uint88,uint8,uint40,uint40,uint256))[],uint256)": "e544b594",
    "getOwed(((address,address,bytes32,uint256,(uint256,uint256,uint256,uint256,uint256)),(uint88,uint8,uint40,uint40,uint256)))": "c97deeee",
    "getOwed(((address,address,bytes32,uint256,(uint256,uint256,uint256,uint256,uint256)),(uint88,uint8,uint40,uint40,uint256)),uint256)": "d2d58325",
    "getPayee(uint256)": "d13136fd",
    "isApprovedForAll(address,address)": "e985e9c5",
    "makePayment(uint256,((address,address,bytes32,uint256,(uint256,uint256,uint256,uint256,uint256)),(uint88,uint8,uint40,uint40,uint256))[],uint256)": "2fd0c78b",
    "makePayment(uint256,((address,address,bytes32,uint256,(uint256,uint256,uint256,uint256,uint256)),(uint88,uint8,uint40,uint40,uint256))[],uint8,uint256)": "59c63afc",
    "owner()": "8da5cb5b",
    "ownerOf(uint256)": "6352211e",
    "payDebtViaClearingHouse(uint256,uint256)": "a6fb7bc0",
    "safeTransferFrom(address,address,uint256)": "42842e0e",
    "safeTransferFrom(address,address,uint256,bytes)": "b88d4fde",
    "setApprovalForAll(address,bool)": "a22cb465",
    "setAuthority(address)": "7a9e5e4b",
    "setPayee((address,address,bytes32,uint256,(uint256,uint256,uint256,uint256,uint256)),address)": "4bf1c849",
    "stopLiens(uint256,uint256,((address,address,bytes32,uint256,(uint256,uint256,uint256,uint256,uint256)),(uint88,uint8,uint40,uint40,uint256))[],address)": "6037a83a",
    "supportsInterface(bytes4)": "01ffc9a7",
    "tokenURI(uint256)": "c87b56dd",
    "transferFrom(address,address,uint256)": "23b872dd",
    "transferOwnership(address)": "f2fde38b",
    "validateLien((address,address,bytes32,uint256,(uint256,uint256,uint256,uint256,uint256)))": "082f62c6"
  },
  "id": 133
}