{
  "abi": [
    {
      "inputs": [],
      "stateMutability": "nonpayable",
      "type": "constructor"
    },
    {
      "inputs": [],
      "name": "InexactFraction",
      "type": "error"
    },
    {
      "inputs": [
        {
          "internalType": "uint256",
          "name": "lienMaxAmount",
          "type": "uint256"
        },
        {
          "internalType": "uint256",
          "name": "owed",
          "type": "uint256"
        }
      ],
      "name": "InvalidBuyoutDetails",
      "type": "error"
    },
    {
      "inputs": [
        {
          "internalType": "enum ILienToken.InvalidStates",
          "name": "",
          "type": "uint8"
        }
      ],
      "name": "InvalidCollateralState",
      "type": "error"
    },
    {
      "inputs": [],
      "name": "InvalidFileData",
      "type": "error"
    },
    {
      "inputs": [],
      "name": "InvalidLoanState",
      "type": "error"
    },
    {
      "inputs": [],
      "name": "InvalidRefinance",
      "type": "error"
    },
    {
      "inputs": [
        {
          "internalType": "uint256",
          "name": "",
          "type": "uint256"
        }
      ],
      "name": "InvalidRefinanceCollateral",
      "type": "error"
    },
    {
      "inputs": [],
      "name": "InvalidSender",
      "type": "error"
    },
    {
      "inputs": [
        {
          "internalType": "enum ILienToken.InvalidStates",
          "name": "",
          "type": "uint8"
        }
      ],
      "name": "InvalidState",
      "type": "error"
    },
    {
      "inputs": [],
      "name": "InvalidTerms",
      "type": "error"
    },
    {
      "inputs": [
        {
          "internalType": "uint256",
          "name": "tokenId",
          "type": "uint256"
        }
      ],
      "name": "InvalidTokenId",
      "type": "error"
    },
    {
      "inputs": [],
      "name": "RefinanceBlocked",
      "type": "error"
    },
    {
      "inputs": [],
      "name": "UnsupportedFile",
      "type": "error"
    },
    {
      "anonymous": false,
      "inputs": [
        {
          "indexed": true,
          "internalType": "uint256",
          "name": "collateralId",
          "type": "uint256"
        },
        {
          "indexed": false,
          "internalType": "uint8",
          "name": "position",
          "type": "uint8"
        },
        {
          "indexed": false,
          "internalType": "uint8",
          "name": "stackLength",
          "type": "uint8"
        },
        {
          "components": [
            {
              "components": [
                {
                  "internalType": "uint8",
                  "name": "collateralType",
                  "type": "uint8"
                },
                {
                  "internalType": "address",
                  "name": "token",
                  "type": "address"
                },
                {
                  "internalType": "address",
                  "name": "vault",
                  "type": "address"
                },
                {
                  "internalType": "bytes32",
                  "name": "strategyRoot",
                  "type": "bytes32"
                },
                {
                  "internalType": "uint256",
                  "name": "collateralId",
                  "type": "uint256"
                },
                {
                  "components": [
                    {
                      "internalType": "uint256",
                      "name": "maxAmount",
                      "type": "uint256"
                    },
                    {
                      "internalType": "uint256",
                      "name": "rate",
                      "type": "uint256"
                    },
                    {
                      "internalType": "uint256",
                      "name": "duration",
                      "type": "uint256"
                    },
                    {
                      "internalType": "uint256",
                      "name": "maxPotentialDebt",
                      "type": "uint256"
                    },
                    {
                      "internalType": "uint256",
                      "name": "liquidationInitialAsk",
                      "type": "uint256"
                    }
                  ],
                  "internalType": "struct ILienToken.Details",
                  "name": "details",
                  "type": "tuple"
                }
              ],
              "internalType": "struct ILienToken.Lien",
              "name": "lien",
              "type": "tuple"
            },
            {
              "components": [
                {
                  "internalType": "uint256",
                  "name": "amount",
                  "type": "uint256"
                },
                {
                  "internalType": "uint40",
                  "name": "last",
                  "type": "uint40"
                },
                {
                  "internalType": "uint40",
                  "name": "end",
                  "type": "uint40"
                },
                {
                  "internalType": "uint256",
                  "name": "lienId",
                  "type": "uint256"
                }
              ],
              "internalType": "struct ILienToken.Point",
              "name": "point",
              "type": "tuple"
            }
          ],
          "indexed": false,
          "internalType": "struct ILienToken.Stack",
          "name": "stack",
          "type": "tuple"
        }
      ],
      "name": "AddLien",
      "type": "event"
    },
    {
      "anonymous": false,
      "inputs": [
        {
          "indexed": true,
          "internalType": "address",
          "name": "owner",
          "type": "address"
        },
        {
          "indexed": true,
          "internalType": "address",
          "name": "spender",
          "type": "address"
        },
        {
          "indexed": true,
          "internalType": "uint256",
          "name": "id",
          "type": "uint256"
        }
      ],
      "name": "Approval",
      "type": "event"
    },
    {
      "anonymous": false,
      "inputs": [
        {
          "indexed": true,
          "internalType": "address",
          "name": "owner",
          "type": "address"
        },
        {
          "indexed": true,
          "internalType": "address",
          "name": "operator",
          "type": "address"
        },
        {
          "indexed": false,
          "internalType": "bool",
          "name": "approved",
          "type": "bool"
        }
      ],
      "name": "ApprovalForAll",
      "type": "event"
    },
    {
      "anonymous": false,
      "inputs": [
        {
          "indexed": true,
          "internalType": "address",
          "name": "user",
          "type": "address"
        },
        {
          "indexed": true,
          "internalType": "contract Authority",
          "name": "newAuthority",
          "type": "address"
        }
      ],
      "name": "AuthorityUpdated",
      "type": "event"
    },
    {
      "anonymous": false,
      "inputs": [
        {
          "indexed": true,
          "internalType": "address",
          "name": "buyer",
          "type": "address"
        },
        {
          "indexed": false,
          "internalType": "uint256",
          "name": "lienId",
          "type": "uint256"
        },
        {
          "indexed": false,
          "internalType": "uint256",
          "name": "buyout",
          "type": "uint256"
        }
      ],
      "name": "BuyoutLien",
      "type": "event"
    },
    {
      "anonymous": false,
      "inputs": [
        {
          "indexed": false,
          "internalType": "enum ILienToken.FileType",
          "name": "what",
          "type": "uint8"
        },
        {
          "indexed": false,
          "internalType": "bytes",
          "name": "data",
          "type": "bytes"
        }
      ],
      "name": "FileUpdated",
      "type": "event"
    },
    {
      "anonymous": false,
      "inputs": [
        {
          "indexed": false,
          "internalType": "uint8",
          "name": "version",
          "type": "uint8"
        }
      ],
      "name": "Initialized",
      "type": "event"
    },
    {
      "anonymous": false,
      "inputs": [
        {
          "indexed": true,
          "internalType": "address",
          "name": "user",
          "type": "address"
        },
        {
          "indexed": true,
          "internalType": "address",
          "name": "newOwner",
          "type": "address"
        }
      ],
      "name": "OwnershipTransferred",
      "type": "event"
    },
    {
      "anonymous": false,
      "inputs": [
        {
          "indexed": true,
          "internalType": "uint256",
          "name": "lienId",
          "type": "uint256"
        },
        {
          "indexed": true,
          "internalType": "address",
          "name": "payee",
          "type": "address"
        }
      ],
      "name": "PayeeChanged",
      "type": "event"
    },
    {
      "anonymous": false,
      "inputs": [
        {
          "indexed": true,
          "internalType": "uint256",
          "name": "lienId",
          "type": "uint256"
        },
        {
          "indexed": false,
          "internalType": "uint256",
          "name": "amount",
          "type": "uint256"
        }
      ],
      "name": "Payment",
      "type": "event"
    },
    {
      "anonymous": false,
      "inputs": [
        {
          "indexed": true,
          "internalType": "uint256",
          "name": "collateralId",
          "type": "uint256"
        },
        {
          "indexed": false,
          "internalType": "uint8",
          "name": "position",
          "type": "uint8"
        }
      ],
      "name": "RemoveLien",
      "type": "event"
    },
    {
      "anonymous": false,
      "inputs": [
        {
          "indexed": true,
          "internalType": "uint256",
          "name": "collateralId",
          "type": "uint256"
        }
      ],
      "name": "RemovedLiens",
      "type": "event"
    },
    {
      "anonymous": false,
      "inputs": [
        {
          "indexed": true,
          "internalType": "address",
          "name": "from",
          "type": "address"
        },
        {
          "indexed": true,
          "internalType": "address",
          "name": "to",
          "type": "address"
        },
        {
          "indexed": true,
          "internalType": "uint256",
          "name": "id",
          "type": "uint256"
        }
      ],
      "name": "Transfer",
      "type": "event"
    },
    {
      "inputs": [],
      "name": "ASTARIA_ROUTER",
      "outputs": [
        {
          "internalType": "contract IAstariaRouter",
          "name": "",
          "type": "address"
        }
      ],
      "stateMutability": "view",
      "type": "function"
    },
    {
      "inputs": [],
      "name": "COLLATERAL_TOKEN",
      "outputs": [
        {
          "internalType": "contract ICollateralToken",
          "name": "",
          "type": "address"
        }
      ],
      "stateMutability": "view",
      "type": "function"
    },
    {
      "inputs": [
        {
          "internalType": "address",
          "name": "spender",
          "type": "address"
        },
        {
          "internalType": "uint256",
          "name": "id",
          "type": "uint256"
        }
      ],
      "name": "approve",
      "outputs": [],
      "stateMutability": "nonpayable",
      "type": "function"
    },
    {
      "inputs": [],
      "name": "authority",
      "outputs": [
        {
          "internalType": "contract Authority",
          "name": "",
          "type": "address"
        }
      ],
      "stateMutability": "view",
      "type": "function"
    },
    {
      "inputs": [
        {
          "internalType": "address",
          "name": "owner",
          "type": "address"
        }
      ],
      "name": "balanceOf",
      "outputs": [
        {
          "internalType": "uint256",
          "name": "",
          "type": "uint256"
        }
      ],
      "stateMutability": "view",
      "type": "function"
    },
    {
      "inputs": [
        {
          "components": [
            {
              "internalType": "bool",
              "name": "chargeable",
              "type": "bool"
            },
            {
              "internalType": "uint8",
              "name": "position",
              "type": "uint8"
            },
            {
              "components": [
                {
                  "internalType": "uint256",
                  "name": "amount",
                  "type": "uint256"
                },
                {
                  "internalType": "address",
                  "name": "receiver",
                  "type": "address"
                },
                {
                  "components": [
                    {
                      "internalType": "uint8",
                      "name": "collateralType",
                      "type": "uint8"
                    },
                    {
                      "internalType": "address",
                      "name": "token",
                      "type": "address"
                    },
                    {
                      "internalType": "address",
                      "name": "vault",
                      "type": "address"
                    },
                    {
                      "internalType": "bytes32",
                      "name": "strategyRoot",
                      "type": "bytes32"
                    },
                    {
                      "internalType": "uint256",
                      "name": "collateralId",
                      "type": "uint256"
                    },
                    {
                      "components": [
                        {
                          "internalType": "uint256",
                          "name": "maxAmount",
                          "type": "uint256"
                        },
                        {
                          "internalType": "uint256",
                          "name": "rate",
                          "type": "uint256"
                        },
                        {
                          "internalType": "uint256",
                          "name": "duration",
                          "type": "uint256"
                        },
                        {
                          "internalType": "uint256",
                          "name": "maxPotentialDebt",
                          "type": "uint256"
                        },
                        {
                          "internalType": "uint256",
                          "name": "liquidationInitialAsk",
                          "type": "uint256"
                        }
                      ],
                      "internalType": "struct ILienToken.Details",
                      "name": "details",
                      "type": "tuple"
                    }
                  ],
                  "internalType": "struct ILienToken.Lien",
                  "name": "lien",
                  "type": "tuple"
                },
                {
                  "components": [
                    {
                      "components": [
                        {
                          "internalType": "uint8",
                          "name": "collateralType",
                          "type": "uint8"
                        },
                        {
                          "internalType": "address",
                          "name": "token",
                          "type": "address"
                        },
                        {
                          "internalType": "address",
                          "name": "vault",
                          "type": "address"
                        },
                        {
                          "internalType": "bytes32",
                          "name": "strategyRoot",
                          "type": "bytes32"
                        },
                        {
                          "internalType": "uint256",
                          "name": "collateralId",
                          "type": "uint256"
                        },
                        {
                          "components": [
                            {
                              "internalType": "uint256",
                              "name": "maxAmount",
                              "type": "uint256"
                            },
                            {
                              "internalType": "uint256",
                              "name": "rate",
                              "type": "uint256"
                            },
                            {
                              "internalType": "uint256",
                              "name": "duration",
                              "type": "uint256"
                            },
                            {
                              "internalType": "uint256",
                              "name": "maxPotentialDebt",
                              "type": "uint256"
                            },
                            {
                              "internalType": "uint256",
                              "name": "liquidationInitialAsk",
                              "type": "uint256"
                            }
                          ],
                          "internalType": "struct ILienToken.Details",
                          "name": "details",
                          "type": "tuple"
                        }
                      ],
                      "internalType": "struct ILienToken.Lien",
                      "name": "lien",
                      "type": "tuple"
                    },
                    {
                      "components": [
                        {
                          "internalType": "uint256",
                          "name": "amount",
                          "type": "uint256"
                        },
                        {
                          "internalType": "uint40",
                          "name": "last",
                          "type": "uint40"
                        },
                        {
                          "internalType": "uint40",
                          "name": "end",
                          "type": "uint40"
                        },
                        {
                          "internalType": "uint256",
                          "name": "lienId",
                          "type": "uint256"
                        }
                      ],
                      "internalType": "struct ILienToken.Point",
                      "name": "point",
                      "type": "tuple"
                    }
                  ],
                  "internalType": "struct ILienToken.Stack[]",
                  "name": "stack",
                  "type": "tuple[]"
                }
              ],
              "internalType": "struct ILienToken.LienActionEncumber",
              "name": "encumber",
              "type": "tuple"
            }
          ],
          "internalType": "struct ILienToken.LienActionBuyout",
          "name": "params",
          "type": "tuple"
        }
      ],
      "name": "buyoutLien",
      "outputs": [
        {
          "components": [
            {
              "components": [
                {
                  "internalType": "uint8",
                  "name": "collateralType",
                  "type": "uint8"
                },
                {
                  "internalType": "address",
                  "name": "token",
                  "type": "address"
                },
                {
                  "internalType": "address",
                  "name": "vault",
                  "type": "address"
                },
                {
                  "internalType": "bytes32",
                  "name": "strategyRoot",
                  "type": "bytes32"
                },
                {
                  "internalType": "uint256",
                  "name": "collateralId",
                  "type": "uint256"
                },
                {
                  "components": [
                    {
                      "internalType": "uint256",
                      "name": "maxAmount",
                      "type": "uint256"
                    },
                    {
                      "internalType": "uint256",
                      "name": "rate",
                      "type": "uint256"
                    },
                    {
                      "internalType": "uint256",
                      "name": "duration",
                      "type": "uint256"
                    },
                    {
                      "internalType": "uint256",
                      "name": "maxPotentialDebt",
                      "type": "uint256"
                    },
                    {
                      "internalType": "uint256",
                      "name": "liquidationInitialAsk",
                      "type": "uint256"
                    }
                  ],
                  "internalType": "struct ILienToken.Details",
                  "name": "details",
                  "type": "tuple"
                }
              ],
              "internalType": "struct ILienToken.Lien",
              "name": "lien",
              "type": "tuple"
            },
            {
              "components": [
                {
                  "internalType": "uint256",
                  "name": "amount",
                  "type": "uint256"
                },
                {
                  "internalType": "uint40",
                  "name": "last",
                  "type": "uint40"
                },
                {
                  "internalType": "uint40",
                  "name": "end",
                  "type": "uint40"
                },
                {
                  "internalType": "uint256",
                  "name": "lienId",
                  "type": "uint256"
                }
              ],
              "internalType": "struct ILienToken.Point",
              "name": "point",
              "type": "tuple"
            }
          ],
          "internalType": "struct ILienToken.Stack[]",
          "name": "stacks",
          "type": "tuple[]"
        },
        {
          "components": [
            {
              "components": [
                {
                  "internalType": "uint8",
                  "name": "collateralType",
                  "type": "uint8"
                },
                {
                  "internalType": "address",
                  "name": "token",
                  "type": "address"
                },
                {
                  "internalType": "address",
                  "name": "vault",
                  "type": "address"
                },
                {
                  "internalType": "bytes32",
                  "name": "strategyRoot",
                  "type": "bytes32"
                },
                {
                  "internalType": "uint256",
                  "name": "collateralId",
                  "type": "uint256"
                },
                {
                  "components": [
                    {
                      "internalType": "uint256",
                      "name": "maxAmount",
                      "type": "uint256"
                    },
                    {
                      "internalType": "uint256",
                      "name": "rate",
                      "type": "uint256"
                    },
                    {
                      "internalType": "uint256",
                      "name": "duration",
                      "type": "uint256"
                    },
                    {
                      "internalType": "uint256",
                      "name": "maxPotentialDebt",
                      "type": "uint256"
                    },
                    {
                      "internalType": "uint256",
                      "name": "liquidationInitialAsk",
                      "type": "uint256"
                    }
                  ],
                  "internalType": "struct ILienToken.Details",
                  "name": "details",
                  "type": "tuple"
                }
              ],
              "internalType": "struct ILienToken.Lien",
              "name": "lien",
              "type": "tuple"
            },
            {
              "components": [
                {
                  "internalType": "uint256",
                  "name": "amount",
                  "type": "uint256"
                },
                {
                  "internalType": "uint40",
                  "name": "last",
                  "type": "uint40"
                },
                {
                  "internalType": "uint40",
                  "name": "end",
                  "type": "uint40"
                },
                {
                  "internalType": "uint256",
                  "name": "lienId",
                  "type": "uint256"
                }
              ],
              "internalType": "struct ILienToken.Point",
              "name": "point",
              "type": "tuple"
            }
          ],
          "internalType": "struct ILienToken.Stack",
          "name": "newStack",
          "type": "tuple"
        },
        {
          "components": [
            {
              "internalType": "uint256",
              "name": "lienSlope",
              "type": "uint256"
            },
            {
              "internalType": "uint256",
              "name": "lienEnd",
              "type": "uint256"
            }
          ],
          "internalType": "struct ILienToken.BuyoutLienParams",
          "name": "buyoutParams",
          "type": "tuple"
        }
      ],
      "stateMutability": "nonpayable",
      "type": "function"
    },
    {
      "inputs": [
        {
          "components": [
            {
              "components": [
                {
                  "internalType": "uint8",
                  "name": "collateralType",
                  "type": "uint8"
                },
                {
                  "internalType": "address",
                  "name": "token",
                  "type": "address"
                },
                {
                  "internalType": "address",
                  "name": "vault",
                  "type": "address"
                },
                {
                  "internalType": "bytes32",
                  "name": "strategyRoot",
                  "type": "bytes32"
                },
                {
                  "internalType": "uint256",
                  "name": "collateralId",
                  "type": "uint256"
                },
                {
                  "components": [
                    {
                      "internalType": "uint256",
                      "name": "maxAmount",
                      "type": "uint256"
                    },
                    {
                      "internalType": "uint256",
                      "name": "rate",
                      "type": "uint256"
                    },
                    {
                      "internalType": "uint256",
                      "name": "duration",
                      "type": "uint256"
                    },
                    {
                      "internalType": "uint256",
                      "name": "maxPotentialDebt",
                      "type": "uint256"
                    },
                    {
                      "internalType": "uint256",
                      "name": "liquidationInitialAsk",
                      "type": "uint256"
                    }
                  ],
                  "internalType": "struct ILienToken.Details",
                  "name": "details",
                  "type": "tuple"
                }
              ],
              "internalType": "struct ILienToken.Lien",
              "name": "lien",
              "type": "tuple"
            },
            {
              "components": [
                {
                  "internalType": "uint256",
                  "name": "amount",
                  "type": "uint256"
                },
                {
                  "internalType": "uint40",
                  "name": "last",
                  "type": "uint40"
                },
                {
                  "internalType": "uint40",
                  "name": "end",
                  "type": "uint40"
                },
                {
                  "internalType": "uint256",
                  "name": "lienId",
                  "type": "uint256"
                }
              ],
              "internalType": "struct ILienToken.Point",
              "name": "point",
              "type": "tuple"
            }
          ],
          "internalType": "struct ILienToken.Stack",
          "name": "stack",
          "type": "tuple"
        }
      ],
      "name": "calculateSlope",
      "outputs": [
        {
          "internalType": "uint256",
          "name": "",
          "type": "uint256"
        }
      ],
      "stateMutability": "pure",
      "type": "function"
    },
    {
      "inputs": [
        {
          "components": [
            {
              "internalType": "uint256",
              "name": "amount",
              "type": "uint256"
            },
            {
              "internalType": "address",
              "name": "receiver",
              "type": "address"
            },
            {
              "components": [
                {
                  "internalType": "uint8",
                  "name": "collateralType",
                  "type": "uint8"
                },
                {
                  "internalType": "address",
                  "name": "token",
                  "type": "address"
                },
                {
                  "internalType": "address",
                  "name": "vault",
                  "type": "address"
                },
                {
                  "internalType": "bytes32",
                  "name": "strategyRoot",
                  "type": "bytes32"
                },
                {
                  "internalType": "uint256",
                  "name": "collateralId",
                  "type": "uint256"
                },
                {
                  "components": [
                    {
                      "internalType": "uint256",
                      "name": "maxAmount",
                      "type": "uint256"
                    },
                    {
                      "internalType": "uint256",
                      "name": "rate",
                      "type": "uint256"
                    },
                    {
                      "internalType": "uint256",
                      "name": "duration",
                      "type": "uint256"
                    },
                    {
                      "internalType": "uint256",
                      "name": "maxPotentialDebt",
                      "type": "uint256"
                    },
                    {
                      "internalType": "uint256",
                      "name": "liquidationInitialAsk",
                      "type": "uint256"
                    }
                  ],
                  "internalType": "struct ILienToken.Details",
                  "name": "details",
                  "type": "tuple"
                }
              ],
              "internalType": "struct ILienToken.Lien",
              "name": "lien",
              "type": "tuple"
            },
            {
              "components": [
                {
                  "components": [
                    {
                      "internalType": "uint8",
                      "name": "collateralType",
                      "type": "uint8"
                    },
                    {
                      "internalType": "address",
                      "name": "token",
                      "type": "address"
                    },
                    {
                      "internalType": "address",
                      "name": "vault",
                      "type": "address"
                    },
                    {
                      "internalType": "bytes32",
                      "name": "strategyRoot",
                      "type": "bytes32"
                    },
                    {
                      "internalType": "uint256",
                      "name": "collateralId",
                      "type": "uint256"
                    },
                    {
                      "components": [
                        {
                          "internalType": "uint256",
                          "name": "maxAmount",
                          "type": "uint256"
                        },
                        {
                          "internalType": "uint256",
                          "name": "rate",
                          "type": "uint256"
                        },
                        {
                          "internalType": "uint256",
                          "name": "duration",
                          "type": "uint256"
                        },
                        {
                          "internalType": "uint256",
                          "name": "maxPotentialDebt",
                          "type": "uint256"
                        },
                        {
                          "internalType": "uint256",
                          "name": "liquidationInitialAsk",
                          "type": "uint256"
                        }
                      ],
                      "internalType": "struct ILienToken.Details",
                      "name": "details",
                      "type": "tuple"
                    }
                  ],
                  "internalType": "struct ILienToken.Lien",
                  "name": "lien",
                  "type": "tuple"
                },
                {
                  "components": [
                    {
                      "internalType": "uint256",
                      "name": "amount",
                      "type": "uint256"
                    },
                    {
                      "internalType": "uint40",
                      "name": "last",
                      "type": "uint40"
                    },
                    {
                      "internalType": "uint40",
                      "name": "end",
                      "type": "uint40"
                    },
                    {
                      "internalType": "uint256",
                      "name": "lienId",
                      "type": "uint256"
                    }
                  ],
                  "internalType": "struct ILienToken.Point",
                  "name": "point",
                  "type": "tuple"
                }
              ],
              "internalType": "struct ILienToken.Stack[]",
              "name": "stack",
              "type": "tuple[]"
            }
          ],
          "internalType": "struct ILienToken.LienActionEncumber",
          "name": "params",
          "type": "tuple"
        }
      ],
      "name": "createLien",
      "outputs": [
        {
          "internalType": "uint256",
          "name": "lienId",
          "type": "uint256"
        },
        {
          "components": [
            {
              "components": [
                {
                  "internalType": "uint8",
                  "name": "collateralType",
                  "type": "uint8"
                },
                {
                  "internalType": "address",
                  "name": "token",
                  "type": "address"
                },
                {
                  "internalType": "address",
                  "name": "vault",
                  "type": "address"
                },
                {
                  "internalType": "bytes32",
                  "name": "strategyRoot",
                  "type": "bytes32"
                },
                {
                  "internalType": "uint256",
                  "name": "collateralId",
                  "type": "uint256"
                },
                {
                  "components": [
                    {
                      "internalType": "uint256",
                      "name": "maxAmount",
                      "type": "uint256"
                    },
                    {
                      "internalType": "uint256",
                      "name": "rate",
                      "type": "uint256"
                    },
                    {
                      "internalType": "uint256",
                      "name": "duration",
                      "type": "uint256"
                    },
                    {
                      "internalType": "uint256",
                      "name": "maxPotentialDebt",
                      "type": "uint256"
                    },
                    {
                      "internalType": "uint256",
                      "name": "liquidationInitialAsk",
                      "type": "uint256"
                    }
                  ],
                  "internalType": "struct ILienToken.Details",
                  "name": "details",
                  "type": "tuple"
                }
              ],
              "internalType": "struct ILienToken.Lien",
              "name": "lien",
              "type": "tuple"
            },
            {
              "components": [
                {
                  "internalType": "uint256",
                  "name": "amount",
                  "type": "uint256"
                },
                {
                  "internalType": "uint40",
                  "name": "last",
                  "type": "uint40"
                },
                {
                  "internalType": "uint40",
                  "name": "end",
                  "type": "uint40"
                },
                {
                  "internalType": "uint256",
                  "name": "lienId",
                  "type": "uint256"
                }
              ],
              "internalType": "struct ILienToken.Point",
              "name": "point",
              "type": "tuple"
            }
          ],
          "internalType": "struct ILienToken.Stack[]",
          "name": "newStack",
          "type": "tuple[]"
        },
        {
          "internalType": "uint256",
          "name": "lienSlope",
          "type": "uint256"
        }
      ],
      "stateMutability": "nonpayable",
      "type": "function"
    },
    {
      "inputs": [
        {
          "components": [
            {
              "internalType": "enum ILienToken.FileType",
              "name": "what",
              "type": "uint8"
            },
            {
              "internalType": "bytes",
              "name": "data",
              "type": "bytes"
            }
          ],
          "internalType": "struct ILienToken.File",
          "name": "incoming",
          "type": "tuple"
        }
      ],
      "name": "file",
      "outputs": [],
      "stateMutability": "nonpayable",
      "type": "function"
    },
    {
      "inputs": [
        {
          "components": [
            {
              "components": [
                {
                  "internalType": "uint8",
                  "name": "collateralType",
                  "type": "uint8"
                },
                {
                  "internalType": "address",
                  "name": "token",
                  "type": "address"
                },
                {
                  "internalType": "address",
                  "name": "vault",
                  "type": "address"
                },
                {
                  "internalType": "bytes32",
                  "name": "strategyRoot",
                  "type": "bytes32"
                },
                {
                  "internalType": "uint256",
                  "name": "collateralId",
                  "type": "uint256"
                },
                {
                  "components": [
                    {
                      "internalType": "uint256",
                      "name": "maxAmount",
                      "type": "uint256"
                    },
                    {
                      "internalType": "uint256",
                      "name": "rate",
                      "type": "uint256"
                    },
                    {
                      "internalType": "uint256",
                      "name": "duration",
                      "type": "uint256"
                    },
                    {
                      "internalType": "uint256",
                      "name": "maxPotentialDebt",
                      "type": "uint256"
                    },
                    {
                      "internalType": "uint256",
                      "name": "liquidationInitialAsk",
                      "type": "uint256"
                    }
                  ],
                  "internalType": "struct ILienToken.Details",
                  "name": "details",
                  "type": "tuple"
                }
              ],
              "internalType": "struct ILienToken.Lien",
              "name": "lien",
              "type": "tuple"
            },
            {
              "components": [
                {
                  "internalType": "uint256",
                  "name": "amount",
                  "type": "uint256"
                },
                {
                  "internalType": "uint40",
                  "name": "last",
                  "type": "uint40"
                },
                {
                  "internalType": "uint40",
                  "name": "end",
                  "type": "uint40"
                },
                {
                  "internalType": "uint256",
                  "name": "lienId",
                  "type": "uint256"
                }
              ],
              "internalType": "struct ILienToken.Point",
              "name": "point",
              "type": "tuple"
            }
          ],
          "internalType": "struct ILienToken.Stack",
          "name": "stack",
          "type": "tuple"
        }
      ],
      "name": "getAmountOwingAtLiquidation",
      "outputs": [
        {
          "internalType": "uint256",
          "name": "",
          "type": "uint256"
        }
      ],
      "stateMutability": "view",
      "type": "function"
    },
    {
      "inputs": [
        {
          "internalType": "uint256",
          "name": "tokenId",
          "type": "uint256"
        }
      ],
      "name": "getApproved",
      "outputs": [
        {
          "internalType": "address",
          "name": "",
          "type": "address"
        }
      ],
      "stateMutability": "view",
      "type": "function"
    },
    {
      "inputs": [
        {
          "internalType": "uint256",
          "name": "collateralId",
          "type": "uint256"
        }
      ],
      "name": "getAuctionData",
      "outputs": [
        {
          "components": [
            {
              "internalType": "uint256",
              "name": "startAmount",
              "type": "uint256"
            },
            {
              "internalType": "uint256",
              "name": "endAmount",
              "type": "uint256"
            },
            {
              "internalType": "uint48",
              "name": "startTime",
              "type": "uint48"
            },
            {
              "internalType": "uint48",
              "name": "endTime",
              "type": "uint48"
            },
            {
              "internalType": "address",
              "name": "liquidator",
              "type": "address"
            },
            {
              "internalType": "address",
              "name": "token",
              "type": "address"
            },
            {
              "components": [
                {
                  "internalType": "uint256",
                  "name": "lienId",
                  "type": "uint256"
                },
                {
                  "internalType": "uint256",
                  "name": "amountOwed",
                  "type": "uint256"
                },
                {
                  "internalType": "uint40",
                  "name": "end",
                  "type": "uint40"
                }
              ],
              "internalType": "struct ClearingHouse.AuctionStack[]",
              "name": "stack",
              "type": "tuple[]"
            }
          ],
          "internalType": "struct ClearingHouse.AuctionData",
          "name": "",
          "type": "tuple"
        }
      ],
      "stateMutability": "view",
      "type": "function"
    },
    {
      "inputs": [
        {
          "internalType": "uint256",
          "name": "collateralId",
          "type": "uint256"
        }
      ],
      "name": "getAuctionLiquidator",
      "outputs": [
        {
          "internalType": "address",
          "name": "liquidator",
          "type": "address"
        }
      ],
      "stateMutability": "view",
      "type": "function"
    },
    {
      "inputs": [
        {
          "components": [
            {
              "components": [
                {
                  "internalType": "uint8",
                  "name": "collateralType",
                  "type": "uint8"
                },
                {
                  "internalType": "address",
                  "name": "token",
                  "type": "address"
                },
                {
                  "internalType": "address",
                  "name": "vault",
                  "type": "address"
                },
                {
                  "internalType": "bytes32",
                  "name": "strategyRoot",
                  "type": "bytes32"
                },
                {
                  "internalType": "uint256",
                  "name": "collateralId",
                  "type": "uint256"
                },
                {
                  "components": [
                    {
                      "internalType": "uint256",
                      "name": "maxAmount",
                      "type": "uint256"
                    },
                    {
                      "internalType": "uint256",
                      "name": "rate",
                      "type": "uint256"
                    },
                    {
                      "internalType": "uint256",
                      "name": "duration",
                      "type": "uint256"
                    },
                    {
                      "internalType": "uint256",
                      "name": "maxPotentialDebt",
                      "type": "uint256"
                    },
                    {
                      "internalType": "uint256",
                      "name": "liquidationInitialAsk",
                      "type": "uint256"
                    }
                  ],
                  "internalType": "struct ILienToken.Details",
                  "name": "details",
                  "type": "tuple"
                }
              ],
              "internalType": "struct ILienToken.Lien",
              "name": "lien",
              "type": "tuple"
            },
            {
              "components": [
                {
                  "internalType": "uint256",
                  "name": "amount",
                  "type": "uint256"
                },
                {
                  "internalType": "uint40",
                  "name": "last",
                  "type": "uint40"
                },
                {
                  "internalType": "uint40",
                  "name": "end",
                  "type": "uint40"
                },
                {
                  "internalType": "uint256",
                  "name": "lienId",
                  "type": "uint256"
                }
              ],
              "internalType": "struct ILienToken.Point",
              "name": "point",
              "type": "tuple"
            }
          ],
          "internalType": "struct ILienToken.Stack",
          "name": "stack",
          "type": "tuple"
        }
      ],
      "name": "getBuyout",
      "outputs": [
        {
          "internalType": "uint256",
          "name": "owed",
          "type": "uint256"
        },
        {
          "internalType": "uint256",
          "name": "buyout",
          "type": "uint256"
        }
      ],
      "stateMutability": "view",
      "type": "function"
    },
    {
      "inputs": [
        {
          "internalType": "uint256",
          "name": "remainingInterestIn",
          "type": "uint256"
        },
        {
          "internalType": "uint256",
          "name": "end",
          "type": "uint256"
        },
        {
          "internalType": "uint256",
          "name": "duration",
          "type": "uint256"
        }
      ],
      "name": "getBuyoutFee",
      "outputs": [
        {
          "internalType": "uint256",
          "name": "fee",
          "type": "uint256"
        }
      ],
      "stateMutability": "view",
      "type": "function"
    },
    {
      "inputs": [
        {
          "internalType": "uint256",
          "name": "collateralId",
          "type": "uint256"
        }
      ],
      "name": "getCollateralState",
      "outputs": [
        {
          "internalType": "bytes32",
          "name": "",
          "type": "bytes32"
        }
      ],
      "stateMutability": "view",
      "type": "function"
    },
    {
      "inputs": [
        {
          "components": [
            {
              "components": [
                {
                  "internalType": "uint8",
                  "name": "collateralType",
                  "type": "uint8"
                },
                {
                  "internalType": "address",
                  "name": "token",
                  "type": "address"
                },
                {
                  "internalType": "address",
                  "name": "vault",
                  "type": "address"
                },
                {
                  "internalType": "bytes32",
                  "name": "strategyRoot",
                  "type": "bytes32"
                },
                {
                  "internalType": "uint256",
                  "name": "collateralId",
                  "type": "uint256"
                },
                {
                  "components": [
                    {
                      "internalType": "uint256",
                      "name": "maxAmount",
                      "type": "uint256"
                    },
                    {
                      "internalType": "uint256",
                      "name": "rate",
                      "type": "uint256"
                    },
                    {
                      "internalType": "uint256",
                      "name": "duration",
                      "type": "uint256"
                    },
                    {
                      "internalType": "uint256",
                      "name": "maxPotentialDebt",
                      "type": "uint256"
                    },
                    {
                      "internalType": "uint256",
                      "name": "liquidationInitialAsk",
                      "type": "uint256"
                    }
                  ],
                  "internalType": "struct ILienToken.Details",
                  "name": "details",
                  "type": "tuple"
                }
              ],
              "internalType": "struct ILienToken.Lien",
              "name": "lien",
              "type": "tuple"
            },
            {
              "components": [
                {
                  "internalType": "uint256",
                  "name": "amount",
                  "type": "uint256"
                },
                {
                  "internalType": "uint40",
                  "name": "last",
                  "type": "uint40"
                },
                {
                  "internalType": "uint40",
                  "name": "end",
                  "type": "uint40"
                },
                {
                  "internalType": "uint256",
                  "name": "lienId",
                  "type": "uint256"
                }
              ],
              "internalType": "struct ILienToken.Point",
              "name": "point",
              "type": "tuple"
            }
          ],
          "internalType": "struct ILienToken.Stack",
          "name": "stack",
          "type": "tuple"
        }
      ],
      "name": "getInterest",
      "outputs": [
        {
          "internalType": "uint256",
          "name": "",
          "type": "uint256"
        }
      ],
      "stateMutability": "view",
      "type": "function"
    },
    {
      "inputs": [
        {
          "components": [
            {
              "components": [
                {
                  "internalType": "uint8",
                  "name": "collateralType",
                  "type": "uint8"
                },
                {
                  "internalType": "address",
                  "name": "token",
                  "type": "address"
                },
                {
                  "internalType": "address",
                  "name": "vault",
                  "type": "address"
                },
                {
                  "internalType": "bytes32",
                  "name": "strategyRoot",
                  "type": "bytes32"
                },
                {
                  "internalType": "uint256",
                  "name": "collateralId",
                  "type": "uint256"
                },
                {
                  "components": [
                    {
                      "internalType": "uint256",
                      "name": "maxAmount",
                      "type": "uint256"
                    },
                    {
                      "internalType": "uint256",
                      "name": "rate",
                      "type": "uint256"
                    },
                    {
                      "internalType": "uint256",
                      "name": "duration",
                      "type": "uint256"
                    },
                    {
                      "internalType": "uint256",
                      "name": "maxPotentialDebt",
                      "type": "uint256"
                    },
                    {
                      "internalType": "uint256",
                      "name": "liquidationInitialAsk",
                      "type": "uint256"
                    }
                  ],
                  "internalType": "struct ILienToken.Details",
                  "name": "details",
                  "type": "tuple"
                }
              ],
              "internalType": "struct ILienToken.Lien",
              "name": "lien",
              "type": "tuple"
            },
            {
              "components": [
                {
                  "internalType": "uint256",
                  "name": "amount",
                  "type": "uint256"
                },
                {
                  "internalType": "uint40",
                  "name": "last",
                  "type": "uint40"
                },
                {
                  "internalType": "uint40",
                  "name": "end",
                  "type": "uint40"
                },
                {
                  "internalType": "uint256",
                  "name": "lienId",
                  "type": "uint256"
                }
              ],
              "internalType": "struct ILienToken.Point",
              "name": "point",
              "type": "tuple"
            }
          ],
          "internalType": "struct ILienToken.Stack[]",
          "name": "stack",
          "type": "tuple[]"
        },
        {
          "internalType": "uint256",
          "name": "end",
          "type": "uint256"
        }
      ],
      "name": "getMaxPotentialDebtForCollateral",
      "outputs": [
        {
          "internalType": "uint256",
          "name": "maxPotentialDebt",
          "type": "uint256"
        }
      ],
      "stateMutability": "view",
      "type": "function"
    },
    {
      "inputs": [
        {
          "components": [
            {
              "components": [
                {
                  "internalType": "uint8",
                  "name": "collateralType",
                  "type": "uint8"
                },
                {
                  "internalType": "address",
                  "name": "token",
                  "type": "address"
                },
                {
                  "internalType": "address",
                  "name": "vault",
                  "type": "address"
                },
                {
                  "internalType": "bytes32",
                  "name": "strategyRoot",
                  "type": "bytes32"
                },
                {
                  "internalType": "uint256",
                  "name": "collateralId",
                  "type": "uint256"
                },
                {
                  "components": [
                    {
                      "internalType": "uint256",
                      "name": "maxAmount",
                      "type": "uint256"
                    },
                    {
                      "internalType": "uint256",
                      "name": "rate",
                      "type": "uint256"
                    },
                    {
                      "internalType": "uint256",
                      "name": "duration",
                      "type": "uint256"
                    },
                    {
                      "internalType": "uint256",
                      "name": "maxPotentialDebt",
                      "type": "uint256"
                    },
                    {
                      "internalType": "uint256",
                      "name": "liquidationInitialAsk",
                      "type": "uint256"
                    }
                  ],
                  "internalType": "struct ILienToken.Details",
                  "name": "details",
                  "type": "tuple"
                }
              ],
              "internalType": "struct ILienToken.Lien",
              "name": "lien",
              "type": "tuple"
            },
            {
              "components": [
                {
                  "internalType": "uint256",
                  "name": "amount",
                  "type": "uint256"
                },
                {
                  "internalType": "uint40",
                  "name": "last",
                  "type": "uint40"
                },
                {
                  "internalType": "uint40",
                  "name": "end",
                  "type": "uint40"
                },
                {
                  "internalType": "uint256",
                  "name": "lienId",
                  "type": "uint256"
                }
              ],
              "internalType": "struct ILienToken.Point",
              "name": "point",
              "type": "tuple"
            }
          ],
          "internalType": "struct ILienToken.Stack[]",
          "name": "stack",
          "type": "tuple[]"
        }
      ],
      "name": "getMaxPotentialDebtForCollateral",
      "outputs": [
        {
          "internalType": "uint256",
          "name": "maxPotentialDebt",
          "type": "uint256"
        }
      ],
      "stateMutability": "view",
      "type": "function"
    },
    {
      "inputs": [
        {
          "components": [
            {
              "components": [
                {
                  "internalType": "uint8",
                  "name": "collateralType",
                  "type": "uint8"
                },
                {
                  "internalType": "address",
                  "name": "token",
                  "type": "address"
                },
                {
                  "internalType": "address",
                  "name": "vault",
                  "type": "address"
                },
                {
                  "internalType": "bytes32",
                  "name": "strategyRoot",
                  "type": "bytes32"
                },
                {
                  "internalType": "uint256",
                  "name": "collateralId",
                  "type": "uint256"
                },
                {
                  "components": [
                    {
                      "internalType": "uint256",
                      "name": "maxAmount",
                      "type": "uint256"
                    },
                    {
                      "internalType": "uint256",
                      "name": "rate",
                      "type": "uint256"
                    },
                    {
                      "internalType": "uint256",
                      "name": "duration",
                      "type": "uint256"
                    },
                    {
                      "internalType": "uint256",
                      "name": "maxPotentialDebt",
                      "type": "uint256"
                    },
                    {
                      "internalType": "uint256",
                      "name": "liquidationInitialAsk",
                      "type": "uint256"
                    }
                  ],
                  "internalType": "struct ILienToken.Details",
                  "name": "details",
                  "type": "tuple"
                }
              ],
              "internalType": "struct ILienToken.Lien",
              "name": "lien",
              "type": "tuple"
            },
            {
              "components": [
                {
                  "internalType": "uint256",
                  "name": "amount",
                  "type": "uint256"
                },
                {
                  "internalType": "uint40",
                  "name": "last",
                  "type": "uint40"
                },
                {
                  "internalType": "uint40",
                  "name": "end",
                  "type": "uint40"
                },
                {
                  "internalType": "uint256",
                  "name": "lienId",
                  "type": "uint256"
                }
              ],
              "internalType": "struct ILienToken.Point",
              "name": "point",
              "type": "tuple"
            }
          ],
          "internalType": "struct ILienToken.Stack",
          "name": "stack",
          "type": "tuple"
        }
      ],
      "name": "getOwed",
      "outputs": [
        {
          "internalType": "uint256",
          "name": "",
          "type": "uint256"
        }
      ],
      "stateMutability": "view",
      "type": "function"
    },
    {
      "inputs": [
        {
          "components": [
            {
              "components": [
                {
                  "internalType": "uint8",
                  "name": "collateralType",
                  "type": "uint8"
                },
                {
                  "internalType": "address",
                  "name": "token",
                  "type": "address"
                },
                {
                  "internalType": "address",
                  "name": "vault",
                  "type": "address"
                },
                {
                  "internalType": "bytes32",
                  "name": "strategyRoot",
                  "type": "bytes32"
                },
                {
                  "internalType": "uint256",
                  "name": "collateralId",
                  "type": "uint256"
                },
                {
                  "components": [
                    {
                      "internalType": "uint256",
                      "name": "maxAmount",
                      "type": "uint256"
                    },
                    {
                      "internalType": "uint256",
                      "name": "rate",
                      "type": "uint256"
                    },
                    {
                      "internalType": "uint256",
                      "name": "duration",
                      "type": "uint256"
                    },
                    {
                      "internalType": "uint256",
                      "name": "maxPotentialDebt",
                      "type": "uint256"
                    },
                    {
                      "internalType": "uint256",
                      "name": "liquidationInitialAsk",
                      "type": "uint256"
                    }
                  ],
                  "internalType": "struct ILienToken.Details",
                  "name": "details",
                  "type": "tuple"
                }
              ],
              "internalType": "struct ILienToken.Lien",
              "name": "lien",
              "type": "tuple"
            },
            {
              "components": [
                {
                  "internalType": "uint256",
                  "name": "amount",
                  "type": "uint256"
                },
                {
                  "internalType": "uint40",
                  "name": "last",
                  "type": "uint40"
                },
                {
                  "internalType": "uint40",
                  "name": "end",
                  "type": "uint40"
                },
                {
                  "internalType": "uint256",
                  "name": "lienId",
                  "type": "uint256"
                }
              ],
              "internalType": "struct ILienToken.Point",
              "name": "point",
              "type": "tuple"
            }
          ],
          "internalType": "struct ILienToken.Stack",
          "name": "stack",
          "type": "tuple"
        },
        {
          "internalType": "uint256",
          "name": "timestamp",
          "type": "uint256"
        }
      ],
      "name": "getOwed",
      "outputs": [
        {
          "internalType": "uint256",
          "name": "",
          "type": "uint256"
        }
      ],
      "stateMutability": "view",
      "type": "function"
    },
    {
      "inputs": [
        {
          "internalType": "uint256",
          "name": "lienId",
          "type": "uint256"
        }
      ],
      "name": "getPayee",
      "outputs": [
        {
          "internalType": "address",
          "name": "",
          "type": "address"
        }
      ],
      "stateMutability": "view",
      "type": "function"
    },
    {
      "inputs": [
        {
          "internalType": "contract Authority",
          "name": "_AUTHORITY",
          "type": "address"
        },
        {
          "internalType": "contract ITransferProxy",
          "name": "_TRANSFER_PROXY",
          "type": "address"
        }
      ],
      "name": "initialize",
      "outputs": [],
      "stateMutability": "nonpayable",
      "type": "function"
    },
    {
      "inputs": [
        {
          "internalType": "address",
          "name": "owner",
          "type": "address"
        },
        {
          "internalType": "address",
          "name": "operator",
          "type": "address"
        }
      ],
      "name": "isApprovedForAll",
      "outputs": [
        {
          "internalType": "bool",
          "name": "",
          "type": "bool"
        }
      ],
      "stateMutability": "view",
      "type": "function"
    },
    {
      "inputs": [
        {
          "components": [
            {
              "internalType": "uint8",
              "name": "collateralType",
              "type": "uint8"
            },
            {
              "internalType": "address",
              "name": "token",
              "type": "address"
            },
            {
              "internalType": "address",
              "name": "vault",
              "type": "address"
            },
            {
              "internalType": "bytes32",
              "name": "strategyRoot",
              "type": "bytes32"
            },
            {
              "internalType": "uint256",
              "name": "collateralId",
              "type": "uint256"
            },
            {
              "components": [
                {
                  "internalType": "uint256",
                  "name": "maxAmount",
                  "type": "uint256"
                },
                {
                  "internalType": "uint256",
                  "name": "rate",
                  "type": "uint256"
                },
                {
                  "internalType": "uint256",
                  "name": "duration",
                  "type": "uint256"
                },
                {
                  "internalType": "uint256",
                  "name": "maxPotentialDebt",
                  "type": "uint256"
                },
                {
                  "internalType": "uint256",
                  "name": "liquidationInitialAsk",
                  "type": "uint256"
                }
              ],
              "internalType": "struct ILienToken.Details",
              "name": "details",
              "type": "tuple"
            }
          ],
          "internalType": "struct ILienToken.Lien",
          "name": "newLien",
          "type": "tuple"
        },
        {
          "internalType": "uint8",
          "name": "position",
          "type": "uint8"
        },
        {
          "components": [
            {
              "components": [
                {
                  "internalType": "uint8",
                  "name": "collateralType",
                  "type": "uint8"
                },
                {
                  "internalType": "address",
                  "name": "token",
                  "type": "address"
                },
                {
                  "internalType": "address",
                  "name": "vault",
                  "type": "address"
                },
                {
                  "internalType": "bytes32",
                  "name": "strategyRoot",
                  "type": "bytes32"
                },
                {
                  "internalType": "uint256",
                  "name": "collateralId",
                  "type": "uint256"
                },
                {
                  "components": [
                    {
                      "internalType": "uint256",
                      "name": "maxAmount",
                      "type": "uint256"
                    },
                    {
                      "internalType": "uint256",
                      "name": "rate",
                      "type": "uint256"
                    },
                    {
                      "internalType": "uint256",
                      "name": "duration",
                      "type": "uint256"
                    },
                    {
                      "internalType": "uint256",
                      "name": "maxPotentialDebt",
                      "type": "uint256"
                    },
                    {
                      "internalType": "uint256",
                      "name": "liquidationInitialAsk",
                      "type": "uint256"
                    }
                  ],
                  "internalType": "struct ILienToken.Details",
                  "name": "details",
                  "type": "tuple"
                }
              ],
              "internalType": "struct ILienToken.Lien",
              "name": "lien",
              "type": "tuple"
            },
            {
              "components": [
                {
                  "internalType": "uint256",
                  "name": "amount",
                  "type": "uint256"
                },
                {
                  "internalType": "uint40",
                  "name": "last",
                  "type": "uint40"
                },
                {
                  "internalType": "uint40",
                  "name": "end",
                  "type": "uint40"
                },
                {
                  "internalType": "uint256",
                  "name": "lienId",
                  "type": "uint256"
                }
              ],
              "internalType": "struct ILienToken.Point",
              "name": "point",
              "type": "tuple"
            }
          ],
          "internalType": "struct ILienToken.Stack[]",
          "name": "stack",
          "type": "tuple[]"
        },
        {
          "internalType": "uint256",
          "name": "owed",
          "type": "uint256"
        },
        {
          "internalType": "uint256",
          "name": "buyout",
          "type": "uint256"
        },
        {
          "internalType": "bool",
          "name": "chargeable",
          "type": "bool"
        }
      ],
      "name": "isValidRefinance",
      "outputs": [
        {
          "internalType": "bool",
          "name": "",
          "type": "bool"
        }
      ],
      "stateMutability": "view",
      "type": "function"
    },
    {
      "inputs": [
        {
          "internalType": "uint256",
          "name": "collateralId",
          "type": "uint256"
        },
        {
          "components": [
            {
              "components": [
                {
                  "internalType": "uint8",
                  "name": "collateralType",
                  "type": "uint8"
                },
                {
                  "internalType": "address",
                  "name": "token",
                  "type": "address"
                },
                {
                  "internalType": "address",
                  "name": "vault",
                  "type": "address"
                },
                {
                  "internalType": "bytes32",
                  "name": "strategyRoot",
                  "type": "bytes32"
                },
                {
                  "internalType": "uint256",
                  "name": "collateralId",
                  "type": "uint256"
                },
                {
                  "components": [
                    {
                      "internalType": "uint256",
                      "name": "maxAmount",
                      "type": "uint256"
                    },
                    {
                      "internalType": "uint256",
                      "name": "rate",
                      "type": "uint256"
                    },
                    {
                      "internalType": "uint256",
                      "name": "duration",
                      "type": "uint256"
                    },
                    {
                      "internalType": "uint256",
                      "name": "maxPotentialDebt",
                      "type": "uint256"
                    },
                    {
                      "internalType": "uint256",
                      "name": "liquidationInitialAsk",
                      "type": "uint256"
                    }
                  ],
                  "internalType": "struct ILienToken.Details",
                  "name": "details",
                  "type": "tuple"
                }
              ],
              "internalType": "struct ILienToken.Lien",
              "name": "lien",
              "type": "tuple"
            },
            {
              "components": [
                {
                  "internalType": "uint256",
                  "name": "amount",
                  "type": "uint256"
                },
                {
                  "internalType": "uint40",
                  "name": "last",
                  "type": "uint40"
                },
                {
                  "internalType": "uint40",
                  "name": "end",
                  "type": "uint40"
                },
                {
                  "internalType": "uint256",
                  "name": "lienId",
                  "type": "uint256"
                }
              ],
              "internalType": "struct ILienToken.Point",
              "name": "point",
              "type": "tuple"
            }
          ],
          "internalType": "struct ILienToken.Stack[]",
          "name": "stack",
          "type": "tuple[]"
        },
        {
          "internalType": "uint256",
          "name": "amount",
          "type": "uint256"
        }
      ],
      "name": "makePayment",
      "outputs": [
        {
          "components": [
            {
              "components": [
                {
                  "internalType": "uint8",
                  "name": "collateralType",
                  "type": "uint8"
                },
                {
                  "internalType": "address",
                  "name": "token",
                  "type": "address"
                },
                {
                  "internalType": "address",
                  "name": "vault",
                  "type": "address"
                },
                {
                  "internalType": "bytes32",
                  "name": "strategyRoot",
                  "type": "bytes32"
                },
                {
                  "internalType": "uint256",
                  "name": "collateralId",
                  "type": "uint256"
                },
                {
                  "components": [
                    {
                      "internalType": "uint256",
                      "name": "maxAmount",
                      "type": "uint256"
                    },
                    {
                      "internalType": "uint256",
                      "name": "rate",
                      "type": "uint256"
                    },
                    {
                      "internalType": "uint256",
                      "name": "duration",
                      "type": "uint256"
                    },
                    {
                      "internalType": "uint256",
                      "name": "maxPotentialDebt",
                      "type": "uint256"
                    },
                    {
                      "internalType": "uint256",
                      "name": "liquidationInitialAsk",
                      "type": "uint256"
                    }
                  ],
                  "internalType": "struct ILienToken.Details",
                  "name": "details",
                  "type": "tuple"
                }
              ],
              "internalType": "struct ILienToken.Lien",
              "name": "lien",
              "type": "tuple"
            },
            {
              "components": [
                {
                  "internalType": "uint256",
                  "name": "amount",
                  "type": "uint256"
                },
                {
                  "internalType": "uint40",
                  "name": "last",
                  "type": "uint40"
                },
                {
                  "internalType": "uint40",
                  "name": "end",
                  "type": "uint40"
                },
                {
                  "internalType": "uint256",
                  "name": "lienId",
                  "type": "uint256"
                }
              ],
              "internalType": "struct ILienToken.Point",
              "name": "point",
              "type": "tuple"
            }
          ],
          "internalType": "struct ILienToken.Stack[]",
          "name": "newStack",
          "type": "tuple[]"
        }
      ],
      "stateMutability": "nonpayable",
      "type": "function"
    },
    {
      "inputs": [
        {
          "internalType": "uint256",
          "name": "collateralId",
          "type": "uint256"
        },
        {
          "components": [
            {
              "components": [
                {
                  "internalType": "uint8",
                  "name": "collateralType",
                  "type": "uint8"
                },
                {
                  "internalType": "address",
                  "name": "token",
                  "type": "address"
                },
                {
                  "internalType": "address",
                  "name": "vault",
                  "type": "address"
                },
                {
                  "internalType": "bytes32",
                  "name": "strategyRoot",
                  "type": "bytes32"
                },
                {
                  "internalType": "uint256",
                  "name": "collateralId",
                  "type": "uint256"
                },
                {
                  "components": [
                    {
                      "internalType": "uint256",
                      "name": "maxAmount",
                      "type": "uint256"
                    },
                    {
                      "internalType": "uint256",
                      "name": "rate",
                      "type": "uint256"
                    },
                    {
                      "internalType": "uint256",
                      "name": "duration",
                      "type": "uint256"
                    },
                    {
                      "internalType": "uint256",
                      "name": "maxPotentialDebt",
                      "type": "uint256"
                    },
                    {
                      "internalType": "uint256",
                      "name": "liquidationInitialAsk",
                      "type": "uint256"
                    }
                  ],
                  "internalType": "struct ILienToken.Details",
                  "name": "details",
                  "type": "tuple"
                }
              ],
              "internalType": "struct ILienToken.Lien",
              "name": "lien",
              "type": "tuple"
            },
            {
              "components": [
                {
                  "internalType": "uint256",
                  "name": "amount",
                  "type": "uint256"
                },
                {
                  "internalType": "uint40",
                  "name": "last",
                  "type": "uint40"
                },
                {
                  "internalType": "uint40",
                  "name": "end",
                  "type": "uint40"
                },
                {
                  "internalType": "uint256",
                  "name": "lienId",
                  "type": "uint256"
                }
              ],
              "internalType": "struct ILienToken.Point",
              "name": "point",
              "type": "tuple"
            }
          ],
          "internalType": "struct ILienToken.Stack[]",
          "name": "stack",
          "type": "tuple[]"
        },
        {
          "internalType": "uint8",
          "name": "position",
          "type": "uint8"
        },
        {
          "internalType": "uint256",
          "name": "amount",
          "type": "uint256"
        }
      ],
      "name": "makePayment",
      "outputs": [
        {
          "components": [
            {
              "components": [
                {
                  "internalType": "uint8",
                  "name": "collateralType",
                  "type": "uint8"
                },
                {
                  "internalType": "address",
                  "name": "token",
                  "type": "address"
                },
                {
                  "internalType": "address",
                  "name": "vault",
                  "type": "address"
                },
                {
                  "internalType": "bytes32",
                  "name": "strategyRoot",
                  "type": "bytes32"
                },
                {
                  "internalType": "uint256",
                  "name": "collateralId",
                  "type": "uint256"
                },
                {
                  "components": [
                    {
                      "internalType": "uint256",
                      "name": "maxAmount",
                      "type": "uint256"
                    },
                    {
                      "internalType": "uint256",
                      "name": "rate",
                      "type": "uint256"
                    },
                    {
                      "internalType": "uint256",
                      "name": "duration",
                      "type": "uint256"
                    },
                    {
                      "internalType": "uint256",
                      "name": "maxPotentialDebt",
                      "type": "uint256"
                    },
                    {
                      "internalType": "uint256",
                      "name": "liquidationInitialAsk",
                      "type": "uint256"
                    }
                  ],
                  "internalType": "struct ILienToken.Details",
                  "name": "details",
                  "type": "tuple"
                }
              ],
              "internalType": "struct ILienToken.Lien",
              "name": "lien",
              "type": "tuple"
            },
            {
              "components": [
                {
                  "internalType": "uint256",
                  "name": "amount",
                  "type": "uint256"
                },
                {
                  "internalType": "uint40",
                  "name": "last",
                  "type": "uint40"
                },
                {
                  "internalType": "uint40",
                  "name": "end",
                  "type": "uint40"
                },
                {
                  "internalType": "uint256",
                  "name": "lienId",
                  "type": "uint256"
                }
              ],
              "internalType": "struct ILienToken.Point",
              "name": "point",
              "type": "tuple"
            }
          ],
          "internalType": "struct ILienToken.Stack[]",
          "name": "newStack",
          "type": "tuple[]"
        }
      ],
      "stateMutability": "nonpayable",
      "type": "function"
    },
    {
      "inputs": [],
      "name": "name",
      "outputs": [
        {
          "internalType": "string",
          "name": "",
          "type": "string"
        }
      ],
      "stateMutability": "view",
      "type": "function"
    },
    {
      "inputs": [],
      "name": "owner",
      "outputs": [
        {
          "internalType": "address",
          "name": "",
          "type": "address"
        }
      ],
      "stateMutability": "view",
      "type": "function"
    },
    {
      "inputs": [
        {
          "internalType": "uint256",
          "name": "id",
          "type": "uint256"
        }
      ],
      "name": "ownerOf",
      "outputs": [
        {
          "internalType": "address",
          "name": "owner",
          "type": "address"
        }
      ],
      "stateMutability": "view",
      "type": "function"
    },
    {
      "inputs": [
        {
          "internalType": "address",
          "name": "token",
          "type": "address"
        },
        {
          "internalType": "uint256",
          "name": "collateralId",
          "type": "uint256"
        },
        {
          "internalType": "uint256",
          "name": "payment",
          "type": "uint256"
        },
        {
          "components": [
            {
              "internalType": "uint256",
              "name": "lienId",
              "type": "uint256"
            },
            {
              "internalType": "uint256",
              "name": "amountOwed",
              "type": "uint256"
            },
            {
              "internalType": "uint40",
              "name": "end",
              "type": "uint40"
            }
          ],
          "internalType": "struct ClearingHouse.AuctionStack[]",
          "name": "auctionStack",
          "type": "tuple[]"
        }
      ],
      "name": "payDebtViaClearingHouse",
      "outputs": [],
      "stateMutability": "nonpayable",
      "type": "function"
    },
    {
      "inputs": [
        {
          "internalType": "address",
          "name": "from",
          "type": "address"
        },
        {
          "internalType": "address",
          "name": "to",
          "type": "address"
        },
        {
          "internalType": "uint256",
          "name": "id",
          "type": "uint256"
        }
      ],
      "name": "safeTransferFrom",
      "outputs": [],
      "stateMutability": "nonpayable",
      "type": "function"
    },
    {
      "inputs": [
        {
          "internalType": "address",
          "name": "from",
          "type": "address"
        },
        {
          "internalType": "address",
          "name": "to",
          "type": "address"
        },
        {
          "internalType": "uint256",
          "name": "id",
          "type": "uint256"
        },
        {
          "internalType": "bytes",
          "name": "data",
          "type": "bytes"
        }
      ],
      "name": "safeTransferFrom",
      "outputs": [],
      "stateMutability": "nonpayable",
      "type": "function"
    },
    {
      "inputs": [
        {
          "internalType": "address",
          "name": "operator",
          "type": "address"
        },
        {
          "internalType": "bool",
          "name": "approved",
          "type": "bool"
        }
      ],
      "name": "setApprovalForAll",
      "outputs": [],
      "stateMutability": "nonpayable",
      "type": "function"
    },
    {
      "inputs": [
        {
          "internalType": "contract Authority",
          "name": "newAuthority",
          "type": "address"
        }
      ],
      "name": "setAuthority",
      "outputs": [],
      "stateMutability": "nonpayable",
      "type": "function"
    },
    {
      "inputs": [
        {
          "internalType": "uint256",
          "name": "collateralId",
          "type": "uint256"
        },
        {
          "internalType": "uint256",
          "name": "auctionWindow",
          "type": "uint256"
        },
        {
          "components": [
            {
              "components": [
                {
                  "internalType": "uint8",
                  "name": "collateralType",
                  "type": "uint8"
                },
                {
                  "internalType": "address",
                  "name": "token",
                  "type": "address"
                },
                {
                  "internalType": "address",
                  "name": "vault",
                  "type": "address"
                },
                {
                  "internalType": "bytes32",
                  "name": "strategyRoot",
                  "type": "bytes32"
                },
                {
                  "internalType": "uint256",
                  "name": "collateralId",
                  "type": "uint256"
                },
                {
                  "components": [
                    {
                      "internalType": "uint256",
                      "name": "maxAmount",
                      "type": "uint256"
                    },
                    {
                      "internalType": "uint256",
                      "name": "rate",
                      "type": "uint256"
                    },
                    {
                      "internalType": "uint256",
                      "name": "duration",
                      "type": "uint256"
                    },
                    {
                      "internalType": "uint256",
                      "name": "maxPotentialDebt",
                      "type": "uint256"
                    },
                    {
                      "internalType": "uint256",
                      "name": "liquidationInitialAsk",
                      "type": "uint256"
                    }
                  ],
                  "internalType": "struct ILienToken.Details",
                  "name": "details",
                  "type": "tuple"
                }
              ],
              "internalType": "struct ILienToken.Lien",
              "name": "lien",
              "type": "tuple"
            },
            {
              "components": [
                {
                  "internalType": "uint256",
                  "name": "amount",
                  "type": "uint256"
                },
                {
                  "internalType": "uint40",
                  "name": "last",
                  "type": "uint40"
                },
                {
                  "internalType": "uint40",
                  "name": "end",
                  "type": "uint40"
                },
                {
                  "internalType": "uint256",
                  "name": "lienId",
                  "type": "uint256"
                }
              ],
              "internalType": "struct ILienToken.Point",
              "name": "point",
              "type": "tuple"
            }
          ],
          "internalType": "struct ILienToken.Stack[]",
          "name": "stack",
          "type": "tuple[]"
        },
        {
          "internalType": "address",
          "name": "liquidator",
          "type": "address"
        }
      ],
      "name": "stopLiens",
      "outputs": [],
      "stateMutability": "nonpayable",
      "type": "function"
    },
    {
      "inputs": [
        {
          "internalType": "bytes4",
          "name": "interfaceId",
          "type": "bytes4"
        }
      ],
      "name": "supportsInterface",
      "outputs": [
        {
          "internalType": "bool",
          "name": "",
          "type": "bool"
        }
      ],
      "stateMutability": "view",
      "type": "function"
    },
    {
      "inputs": [],
      "name": "symbol",
      "outputs": [
        {
          "internalType": "string",
          "name": "",
          "type": "string"
        }
      ],
      "stateMutability": "view",
      "type": "function"
    },
    {
      "inputs": [
        {
          "internalType": "uint256",
          "name": "tokenId",
          "type": "uint256"
        }
      ],
      "name": "tokenURI",
      "outputs": [
        {
          "internalType": "string",
          "name": "",
          "type": "string"
        }
      ],
      "stateMutability": "view",
      "type": "function"
    },
    {
      "inputs": [
        {
          "internalType": "address",
          "name": "from",
          "type": "address"
        },
        {
          "internalType": "address",
          "name": "to",
          "type": "address"
        },
        {
          "internalType": "uint256",
          "name": "id",
          "type": "uint256"
        }
      ],
      "name": "transferFrom",
      "outputs": [],
      "stateMutability": "nonpayable",
      "type": "function"
    },
    {
      "inputs": [
        {
          "internalType": "address",
          "name": "newOwner",
          "type": "address"
        }
      ],
      "name": "transferOwnership",
      "outputs": [],
      "stateMutability": "nonpayable",
      "type": "function"
    },
    {
      "inputs": [
        {
          "components": [
            {
              "internalType": "uint8",
              "name": "collateralType",
              "type": "uint8"
            },
            {
              "internalType": "address",
              "name": "token",
              "type": "address"
            },
            {
              "internalType": "address",
              "name": "vault",
              "type": "address"
            },
            {
              "internalType": "bytes32",
              "name": "strategyRoot",
              "type": "bytes32"
            },
            {
              "internalType": "uint256",
              "name": "collateralId",
              "type": "uint256"
            },
            {
              "components": [
                {
                  "internalType": "uint256",
                  "name": "maxAmount",
                  "type": "uint256"
                },
                {
                  "internalType": "uint256",
                  "name": "rate",
                  "type": "uint256"
                },
                {
                  "internalType": "uint256",
                  "name": "duration",
                  "type": "uint256"
                },
                {
                  "internalType": "uint256",
                  "name": "maxPotentialDebt",
                  "type": "uint256"
                },
                {
                  "internalType": "uint256",
                  "name": "liquidationInitialAsk",
                  "type": "uint256"
                }
              ],
              "internalType": "struct ILienToken.Details",
              "name": "details",
              "type": "tuple"
            }
          ],
          "internalType": "struct ILienToken.Lien",
          "name": "lien",
          "type": "tuple"
        }
      ],
      "name": "validateLien",
      "outputs": [
        {
          "internalType": "uint256",
          "name": "lienId",
          "type": "uint256"
        }
      ],
      "stateMutability": "view",
      "type": "function"
    }
  ],
  "bytecode": {
    "object": "0x60806040523480156200001157600080fd5b506200001c62000022565b62000147565b60006200002e620000ef565b8054909150610100900460ff16156200009d5760405162461bcd60e51b815260206004820152602760248201527f496e697469616c697a61626c653a20636f6e747261637420697320696e697469604482015266616c697a696e6760c81b606482015260840160405180910390fd5b805460ff9081161015620000ec57805460ff191660ff90811782556040519081527f7f26b83ff96e1f2b6a682f133852f6798a09c465da95921460cefb38474024989060200160405180910390a15b50565b6000806200011f60017fe54d104cc32597338d9a7867d41ca0c8fb6144529e0565413f4b3671fc57878562000125565b92915050565b818103818111156200011f57634e487b7160e01b600052601160045260246000fd5b615e0c80620001576000396000f3fe608060405234801561001057600080fd5b506004361061025e5760003560e01c806395d89b4111610146578063d13136fd116100c3578063e2ec85d011610087578063e2ec85d01461056f578063e88ab37614610582578063e985e9c514610595578063f2fde38b146105a8578063f5f1f1a7146105bb578063f828a47c146105c357600080fd5b8063d13136fd14610510578063d4606b7014610523578063d5840bb214610536578063d7dd548214610549578063d893a9ac1461055c57600080fd5b8063bf7e214f1161010a578063bf7e214f146104bc578063c08835bc146104c4578063c3929d45146104d7578063c66e79d6146104ea578063c87b56dd146104fd57600080fd5b806395d89b411461045b5780639d13d8b514610463578063a22cb46514610483578063b05e52fd14610496578063b88d4fde146104a957600080fd5b806342842e0e116101df5780636d995c3b116101a35780636d995c3b146103c157806370a08231146103e95780637a9e5e4b146103fc5780637d5961921461040f5780638da5cb5b1461043157806392310e101461043957600080fd5b806342842e0e1461035557806344f27e3014610368578063485cc955146103885780636352211e1461039b5780636a53691c146103ae57600080fd5b806323b872dd1161022657806323b872dd146103015780632ad6681d146103145780633398b637146103275780633cdd1c1e1461032f5780633e45b0a41461034257600080fd5b806301ffc9a714610263578063045283b61461028b57806306fdde03146102ac578063081812fc146102c1578063095ea7b3146102ec575b600080fd5b610276610271366004614a2d565b6105d6565b60405190151581526020015b60405180910390f35b61029e610299366004614a4a565b610601565b604051908152602001610282565b6102b4610695565b6040516102829190614abc565b6102d46102cf366004614acf565b61072d565b6040516001600160a01b039091168152602001610282565b6102ff6102fa366004614afd565b610754565b005b6102ff61030f366004614b29565b61084f565b61029e610322366004614e89565b61091a565b6102d4610a31565b6102ff61033d366004614f12565b610a4d565b610276610350366004614f8a565b610b97565b6102ff610363366004614b29565b610dd4565b61037b610376366004614acf565b610ecc565b6040516102829190615024565b6102ff6103963660046150f5565b610faf565b6102d46103a9366004614acf565b6111b7565b61029e6103bc366004614acf565b611220565b6103d46103cf36600461512e565b61123e565b60408051928352602083019190915201610282565b61029e6103f7366004615147565b61125b565b6102ff61040a366004615147565b6112cc565b61042261041d366004615164565b6113c7565b6040516102829392919061529b565b6102d461163c565b61044c6104473660046152d7565b611655565b60405161028293929190615312565b6102b461188c565b61047661047136600461533b565b6118a4565b604051610282919061538d565b6102ff6104913660046153a0565b6119be565b6102ff6104a43660046153ce565b611a41565b6102ff6104b7366004615408565b611de9565b6102d4611ed1565b61029e6104d236600461512e565b611edb565b61029e6104e53660046154a6565b611ef5565b6102d46104f8366004614acf565b611f13565b6102b461050b366004614acf565b611f4e565b6102d461051e366004614acf565b611f8d565b61029e6105313660046154c3565b611fc9565b61029e6105443660046154a6565b612020565b61029e6105573660046154e0565b61203a565b6102ff61056a36600461550d565b61205b565b61047661057d3660046155f7565b612115565b61029e61059036600461565c565b612297565b6102766105a33660046150f5565b61236b565b6102ff6105b6366004615147565b6123a8565b6102d4612432565b61029e6105d136600461512e565b61244e565b60006001600160e01b0319821663107928d760e31b14806105fb57506105fb8261248b565b92915050565b60008061060c6124d9565b9050600061061a84866156a6565b600583015490915061068b9061064690889063ffffffff80821691640100000000900481169061250716565b6005840154600090849061067a90899063ffffffff680100000000000000008204811691600160601b900481169061250716565b61068490866156b9565b6001612525565b9695505050505050565b606061069f61257c565b80546106aa906156cc565b80601f01602080910402602001604051908101604052809291908181526020018280546106d6906156cc565b80156107235780601f106106f857610100808354040283529160200191610723565b820191906000526020600020905b81548152906001019060200180831161070657829003601f168201915b5050505050905090565b600061073761257c565b60009283526004016020525060409020546001600160a01b031690565b600061075e61257c565b60008381526002820160205260409020549091506001600160a01b0316338114806107ae57506001600160a01b0381166000908152600583016020908152604080832033845290915290205460ff165b6107f05760405162461bcd60e51b815260206004820152600e60248201526d1393d517d055551213d49256915160921b60448201526064015b60405180910390fd5b600083815260048301602052604080822080546001600160a01b0319166001600160a01b0388811691821790925591518693918516917f8c5be1e5ebec7d5bd14f71427d1e84f3dd0314c0f7b2291e5b200ac8c7c3b92591a450505050565b60006108596124d9565b905061086581846125aa565b1561088657600f60405163683f44bb60e11b81526004016107e79190615716565b6000828152600482016020526040902054600160a01b900460ff16156108c257600560405163683f44bb60e11b81526004016107e79190615716565b600082815260048201602052604080822080546001600160a01b03191690555183907f22178795f41268ec023f6a5c2fcb5d7098c4aadccddf002ae2cd25d569c20c0d908390a3610914848484612691565b50505050565b60008260008151811061092f5761092f615730565b6020026020010151600001516080015183600061094a6124d9565b60008481526003820160205260409020549091508015801561096c5750825115155b1561098d57600e60405163683f44bb60e11b81526004016107e79190615716565b80158015906109c2575080836040516020016109a9919061538d565b6040516020818303038152906040528051906020012014155b156109e357600b60405163683f44bb60e11b81526004016107e79190615716565b60005b8751811015610a2657610a12888281518110610a0457610a04615730565b6020026020010151886127e7565b610a1c90876156b9565b95506001016109e6565b505050505092915050565b6000610a3b6124d9565b600101546001600160a01b0316919050565b848383808060200260200160405190810160405280939291908181526020016000905b82821015610a9d57610a8e6101c083028601368190038101906154a6565b81526020019060010190610a70565b50505050506000610aac6124d9565b600084815260038201602052604090205490915080158015610ace5750825115155b15610aef57600e60405163683f44bb60e11b81526004016107e79190615716565b8015801590610b2457508083604051602001610b0b919061538d565b6040516020818303038152906040528051906020012014155b15610b4557600b60405163683f44bb60e11b81526004016107e79190615716565b610b5b336000356001600160e01b031916612803565b610b775760405162461bcd60e51b81526004016107e790615746565b610b8c610b826124d9565b8a8a8a8a8a6128b9565b505050505050505050565b600080610ba26124d9565b6005810154909150600090600160a01b900463ffffffff16888860ff8c16818110610bcf57610bcf615730565b610be6939260c06101c090920201013590506156a6565b905087876000818110610bfb57610bfb615730565b90506101c00201600001608001358a6080013514610c325760405163d513b3ed60e01b815260808b013560048201526024016107e7565b6000610c3e83336125aa565b9050868611808015610c4e575085155b15610c6c576040516357ff12c360e11b815260040160405180910390fd5b600060c08d01358410801590610ccb57508a8a8d60ff16818110610c9257610c92615730565b610cae926101a06101c09092020190810191506101800161576c565b64ffffffffff16428e60a00160400135610cc891906156b9565b10155b905060008560050160109054906101000a900463ffffffff1663ffffffff168c8c8f60ff16818110610cff57610cff615730565b610d1b926101a06101c09092020190810191506101800161576c565b64ffffffffff168f60a0016040013542610d3591906156b9565b610d3f91906156a6565b10158015610d7957508b8b8e60ff16818110610d5d57610d5d615730565b90506101c0020160000160a001602001358e60a0016020013511155b905060008c8c8f60ff16818110610d9257610d92615730565b90506101c0020160000160a001608001358f60a00160800135101590508280610db85750815b8015610dc15750805b9f9e505050505050505050505050505050565b610ddf83838361084f565b6001600160a01b0382163b1580610e885750604051630a85bd0160e11b8082523360048301526001600160a01b03858116602484015260448301849052608060648401526000608484015290919084169063150b7a029060a4016020604051808303816000875af1158015610e58573d6000803e3d6000fd5b505050506040513d601f19601f82011682018060405250810190610e7c9190615789565b6001600160e01b031916145b610ec75760405162461bcd60e51b815260206004820152601060248201526f155394d0519157d49150d2541251539560821b60448201526064016107e7565b505050565b610ed46148fb565b610edc6124d9565b6002015460405163db067b4360e01b8152600481018490526001600160a01b039091169063db067b4390602401602060405180830381865afa158015610f26573d6000803e3d6000fd5b505050506040513d601f19601f82011682018060405250810190610f4a91906157a6565b6001600160a01b0316636a67acc56040518163ffffffff1660e01b8152600401600060405180830381865afa158015610f87573d6000803e3d6000fd5b505050506040513d6000823e601f3d908101601f191682016040526105fb9190810190615874565b6000610fb9612d30565b8054909150610100900460ff1615808015610fda57508154600160ff909116105b80610ff35750303b158015610ff35750815460ff166001145b6110565760405162461bcd60e51b815260206004820152602e60248201527f496e697469616c697a61626c653a20636f6e747261637420697320616c72656160448201526d191e481a5b9a5d1a585b1a5e995960921b60648201526084016107e7565b815460ff19166001178255801561107557815461ff0019166101001782555b61107f3385612d5e565b6110ce6040518060400160405280601281526020017120b9ba30b934b0902634b2b7102a37b5b2b760711b8152506040518060400160405280600381526020016210531560ea1b815250612e4d565b60006110d86124d9565b805460056001600160a81b03199091166101006001600160a01b0388160260ff1916178117825580820180546001600160a01b03191672069780000003e800000384000003e8000000641790559091506301e13380906111409066038d7ea4c6800090615938565b61114a919061594f565b8160050160146101000a81548163ffffffff021916908363ffffffff16021790555050801561091457815461ff0019168255604051600181527f7f26b83ff96e1f2b6a682f133852f6798a09c465da95921460cefb3847402498906020015b60405180910390a150505050565b6000806111c261257c565b600084815260029190910160205260409020546001600160a01b03169150810361121b5760405162461bcd60e51b815260206004820152600a6024820152691393d517d3525395115160b21b60448201526064016107e7565b919050565b600061122a6124d9565b600092835260030160205250604090205490565b60008061125261124c6124d9565b84612e73565b91509150915091565b60006001600160a01b0382166112a25760405162461bcd60e51b815260206004820152600c60248201526b5a45524f5f4144445245535360a01b60448201526064016107e7565b6112aa61257c565b6001600160a01b03909216600090815260039290920160205250604090205490565b60006112d6612f97565b80549091506001600160a01b031633148061136f5750600181015460405163b700961360e01b81526001600160a01b039091169063b70096139061132e90339030906001600160e01b03196000351690600401615971565b602060405180830381865afa15801561134b573d6000803e3d6000fd5b505050506040513d601f19601f8201168201806040525081019061136f919061599e565b61137857600080fd5b6001810180546001600160a01b0319166001600160a01b03841690811790915560405133907fa3396fd7f6e0a21b50e5089d2da70d5ac0a3bbbd1f617a93f134b7638998019890600090a35050565b60606113d161495a565b60408051808201909152600080825260208201526113f260408501856159bb565b60c0013561140360408601866159bb565b611412906101808101906159dc565b808060200260200160405190810160405280939291908181526020016000905b8282101561145f576114506101c083028601368190038101906154a6565b81526020019060010190611432565b5050505050600061146e6124d9565b6000848152600382016020526040902054909150801580156114905750825115155b156114b157600e60405163683f44bb60e11b81526004016107e79190615716565b80158015906114e6575080836040516020016114cd919061538d565b6040516020818303038152906040528051906020012014155b1561150757600b60405163683f44bb60e11b81526004016107e79190615716565b61151460408901896159bb565b611523906101808101906159dc565b61153360408b0160208c01615a25565b60ff1681811061154557611545615730565b611561926101a06101c09092020190810191506101800161576c565b64ffffffffff16421061158a57600860405163683f44bb60e11b81526004016107e79190615716565b60006115946124d9565b6001810154604051630642194560e41b81523360048201529192506001600160a01b031690636421945090602401602060405180830381865afa1580156115df573d6000803e3d6000fd5b505050506040513d601f19601f82011682018060405250810190611603919061599e565b61162057604051636edaef2f60e11b815260040160405180910390fd5b61162a818a612fc5565b97509750975050505050509193909250565b6000611646612f97565b546001600160a01b0316919050565b600060606000611671336000356001600160e01b031916612803565b61168d5760405162461bcd60e51b81526004016107e790615746565b60c08401356116a06101808601866159dc565b808060200260200160405190810160405280939291908181526020016000905b828210156116ed576116de6101c083028601368190038101906154a6565b815260200190600101906116c0565b505050505060006116fc6124d9565b60008481526003820160205260409020549091508015801561171e5750825115155b1561173f57600e60405163683f44bb60e11b81526004016107e79190615716565b80158015906117745750808360405160200161175b919061538d565b6040516020818303038152906040528051906020012014155b1561179557600b60405163683f44bb60e11b81526004016107e79190615716565b600061179f6124d9565b90506117a961495a565b6117b3828b613548565b90995090506117d0826117ca6101808d018d6159dc565b8461378a565b97506117db88613896565b876040516020016117ec919061538d565b60408051601f19818403018152918152815160209283012060c08d013560009081526003860190935291205561182181611ef5565b965060c08a01357f6bbf117a6a1981fedea686ba2b7dde29398228316f636082a68cb3535d53b8ad6118576101808d018d6159dc565b90506118676101808e018e6159dc565b6040516118779392508690615a40565b60405180910390a25050505050509193909250565b606061189661257c565b60010180546106aa906156cc565b6060848484808060200260200160405190810160405280939291908181526020016000905b828210156118f6576118e76101c083028601368190038101906154a6565b815260200190600101906118c9565b505050505060006119056124d9565b6000848152600382016020526040902054909150801580156119275750825115155b1561194857600e60405163683f44bb60e11b81526004016107e79190615716565b801580159061197d57508083604051602001611964919061538d565b6040516020818303038152906040528051906020012014155b1561199e57600b60405163683f44bb60e11b81526004016107e79190615716565b6119b16119a96124d9565b898989613a51565b9998505050505050505050565b806119c761257c565b336000818152600592909201602090815260408084206001600160a01b038816808652925292839020805494151560ff199095169490941790935590517f17307eab39ab6107e8899845ad3d59bd9653f200f220920489ca2b5937696c3190611a3590851515815260200190565b60405180910390a35050565b611a57336000356001600160e01b031916612803565b611a735760405162461bcd60e51b81526004016107e790615746565b6000611a826020830183615a60565b90506000611a936020840184615a81565b8080601f0160208091040260200160405190810160405280939291908181526020018383808284376000920182905250939450611ad392506124d9915050565b90506001836006811115611ae957611ae9615700565b03611b295781806020019051810190611b0291906157a6565b6002820180546001600160a01b0319166001600160a01b0392909216919091179055611db8565b6002836006811115611b3d57611b3d615700565b03611b7d5781806020019051810190611b5691906157a6565b6001820180546001600160a01b0319166001600160a01b0392909216919091179055611db8565b6003836006811115611b9157611b91615700565b03611c295760008083806020019051810190611bad9190615ac7565b9150915081811015611bd2576040516350ca491160e11b815260040160405180910390fd5b611bdb82613b28565b60058401805463ffffffff191663ffffffff92909216919091179055611c0081613b28565b8360050160046101000a81548163ffffffff021916908363ffffffff1602179055505050611db8565b6004836006811115611c3d57611c3d615700565b03611cdb5760008083806020019051810190611c599190615ac7565b9150915081811015611c7e576040516350ca491160e11b815260040160405180910390fd5b611c8782613b28565b8360050160086101000a81548163ffffffff021916908363ffffffff160217905550611cb281613b28565b83600501600c6101000a81548163ffffffff021916908363ffffffff1602179055505050611db8565b6005836006811115611cef57611cef615700565b03611d3d57600082806020019051810190611d0a9190615aeb565b9050611d1581613b28565b8260050160146101000a81548163ffffffff021916908363ffffffff16021790555050611db8565b6006836006811115611d5157611d51615700565b03611d9f57600082806020019051810190611d6c9190615aeb565b9050611d7781613b28565b8260050160106101000a81548163ffffffff021916908363ffffffff16021790555050611db8565b6040516345f279ab60e01b815260040160405180910390fd5b7f4aa20127da97281124f6c5bf77f293274afb4745d8b41b9c40434f8e51ac7c8183836040516111a9929190615b04565b611df485858561084f565b6001600160a01b0384163b1580611e8b5750604051630a85bd0160e11b808252906001600160a01b0386169063150b7a0290611e3c9033908a90899089908990600401615b2d565b6020604051808303816000875af1158015611e5b573d6000803e3d6000fd5b505050506040513d601f19601f82011682018060405250810190611e7f9190615789565b6001600160e01b031916145b611eca5760405162461bcd60e51b815260206004820152601060248201526f155394d0519157d49150d2541251539560821b60448201526064016107e7565b5050505050565b6000610a3b612f97565b60006105fb611eef368490038401846154a6565b42613b3f565b60208082015151825160a00151909101516000916105fb9190613b81565b6000611f1e82610ecc565b6080015190506001600160a01b03811661121b57601060405163683f44bb60e11b81526004016107e79190615716565b6060611f5982613b96565b611f795760405163ed15e6cf60e01b8152600481018390526024016107e7565b505060408051602081019091526000815290565b6000611f9882613b96565b611fb857600460405163683f44bb60e11b81526004016107e79190615716565b6105fb611fc36124d9565b83613bc4565b600081604051602001611fdc9190615b81565b6040516020818303038152906040528051906020012060001c905061200081613b96565b61121b57600460405163683f44bb60e11b81526004016107e79190615716565b600061202f8260000151611fc9565b506105fb82426127e7565b60006120498360000151611fc9565b5061205483836127e7565b9392505050565b60006120656124d9565b600281015460405163db067b4360e01b8152600481018790529192506001600160a01b03169063db067b4390602401602060405180830381865afa1580156120b1573d6000803e3d6000fd5b505050506040513d601f19601f820116820180604052508101906120d591906157a6565b6001600160a01b0316336001600160a01b0316146120f257600080fd5b6120ff8186853386613c10565b5060009384526003016020525050604081205550565b6060858585808060200260200160405190810160405280939291908181526020016000905b82821015612167576121586101c083028601368190038101906154a6565b8152602001906001019061213a565b505050505060006121766124d9565b6000848152600382016020526040902054909150801580156121985750825115155b156121b957600e60405163683f44bb60e11b81526004016107e79190615716565b80158015906121ee575080836040516020016121d5919061538d565b6040516020818303038152906040528051906020012014155b1561220f57600b60405163683f44bb60e11b81526004016107e79190615716565b60006122196124d9565b905061227b818b8b808060200260200160405190810160405280939291908181526020016000905b8282101561226e5761225f6101c083028601368190038101906154a6565b81526020019060010190612241565b50505050508a8a33613c4a565b509550612289818c88614086565b505050505095945050505050565b6000816000815181106122ac576122ac615730565b602002602001015160000151608001518260006122c76124d9565b6000848152600382016020526040902054909150801580156122e95750825115155b1561230a57600e60405163683f44bb60e11b81526004016107e79190615716565b801580159061233f57508083604051602001612326919061538d565b6040516020818303038152906040528051906020012014155b1561236057600b60405163683f44bb60e11b81526004016107e79190615716565b61068b8687516140e2565b600061237561257c565b6001600160a01b039384166000908152600591909101602090815260408083209490951682529290925250205460ff1690565b6123be336000356001600160e01b031916612803565b6123da5760405162461bcd60e51b81526004016107e790615746565b60006123e4612f97565b80546001600160a01b0319166001600160a01b03841690811782556040519192509033907f8be0079c531659141344cd1fd0a4f28419497f9722a3daafe3b4186f6b6457e090600090a35050565b600061243c6124d9565b600201546001600160a01b0316919050565b600061245d6080830135610ecc565b60c0015180516101a084013590811061247857612478615730565b6020026020010151602001519050919050565b60006301ffc9a760e01b6001600160e01b0319831614806124bc57506380ac58cd60e01b6001600160e01b03198316145b806105fb5750506001600160e01b031916635b5e139f60e01b1490565b6000806105fb60017fa99758713b7e86e6ab54e91e4ebd363d15715480a132628bc452a040660f2c5f6156a6565b600082600019048411830215820261251e57600080fd5b5091020490565b600084861461257057838303428590038082036000612544838a615938565b61254e838c615938565b61255891906156b9565b90508584878303040181151502945050505050612573565b50835b95945050505050565b6000806105fb60017ffc8793c2139a57fdc041f52e5a6e70e2c8f6402d67cb75321c29bc8c4ab736ab6156a6565b6001820154604051630642194560e41b81526001600160a01b0383811660048301526000921690636421945090602401602060405180830381865afa1580156125f7573d6000803e3d6000fd5b505050506040513d601f19601f8201168201806040525081019061261b919061599e565b801561205457506040516301ffc9a760e01b8152636919637d60e11b60048201526001600160a01b038316906301ffc9a790602401602060405180830381865afa15801561266d573d6000803e3d6000fd5b505050506040513d601f19601f82011682018060405250810190612054919061599e565b600061269b61257c565b60008381526002820160205260409020549091506001600160a01b038581169116146126f65760405162461bcd60e51b815260206004820152600a60248201526957524f4e475f46524f4d60b01b60448201526064016107e7565b6001600160a01b0383166127405760405162461bcd60e51b81526020600482015260116024820152701253959053125117d49150d25412515395607a1b60448201526064016107e7565b336001600160a01b038516148061277c57506001600160a01b0384166000908152600582016020908152604080832033845290915290205460ff165b8061279f575060008281526004820160205260409020546001600160a01b031633145b6127dc5760405162461bcd60e51b815260206004820152600e60248201526d1393d517d055551213d49256915160921b60448201526064016107e7565b610914848484614138565b60006127f38383613b3f565b60208401515161205491906156b9565b60008061280e612f97565b60018101549091506001600160a01b0316801580159061289a575060405163b700961360e01b81526001600160a01b0382169063b70096139061285990889030908990600401615971565b602060405180830381865afa158015612876573d6000803e3d6000fd5b505050506040513d601f19601f8201168201806040525081019061289a919061599e565b80612573575081546001600160a01b0386811691161495945050505050565b6128c16148fb565b6001600160a01b038216608082015283836000816128e1576128e1615730565b6128fb9260406101c0909202019081019150602001615147565b6001600160a01b031660a0820152826001600160401b0381111561292157612921614b6a565b60405190808252806020026020018201604052801561297d57816020015b61296a60405180606001604052806000815260200160008152602001600064ffffffffff1681525090565b81526020019060019003908161293f5790505b5060c082015260005b83811015612bd8576129b960405180606001604052806000815260200160008152602001600064ffffffffff1681525090565b8585838181106129cb576129cb615730565b6101c002919091016101a001358252508585838181106129ed576129ed615730565b612a09926101a06101c09092020190810191506101800161576c565b64ffffffffff1660408201526000612a49878785818110612a2c57612a2c615730565b90506101c00201803603810190612a4391906154a6565b426127e7565b60208084018290528351600090815260048d0190915260409020805460ff60a01b1916600160a01b17905560c08501518051919250839185908110612a9057612a90615730565b60200260200101819052506000612aab8b8460000151613bc4565b9050612ab78b826125aa565b15612bca576000816001600160a01b031663cd12030f8b6040518060600160405280612b058e8e8c818110612aee57612aee615730565b90506101c002018036038101906104e591906154a6565b81526020018781526020018d8d8b818110612b2257612b22615730565b612b3e926101a06101c09092020190810191506101800161576c565b64ffffffffff168152506040518363ffffffff1660e01b8152600401612b65929190615b90565b6020604051808303816000875af1158015612b84573d6000803e3d6000fd5b505050506040513d601f19601f82011682018060405250810190612ba891906157a6565b90506001600160a01b03811615612bc857612bc88c8560000151836141da565b505b836001019350505050612986565b600087815260038901602052604090206d20a1aa24ab22afa0aaa1aa24a7a760911b9055612c0542614236565b65ffffffffffff166040830152612c24612c1f87426156b9565b614236565b65ffffffffffff1660608301528484600081612c4257612c42615730565b6101c0029190910161012001358352506103e86020830152600288015460405163db067b4360e01b8152600481018990526001600160a01b039091169063db067b4390602401602060405180830381865afa158015612ca5573d6000803e3d6000fd5b505050506040513d601f19601f82011682018060405250810190612cc991906157a6565b6001600160a01b03166336c43afd836040518263ffffffff1660e01b8152600401612cf49190615024565b600060405180830381600087803b158015612d0e57600080fd5b505af1158015612d22573d6000803e3d6000fd5b505050505050505050505050565b6000806105fb60017fe54d104cc32597338d9a7867d41ca0c8fb6144529e0565413f4b3671fc5787856156a6565b6000612d68612f97565b80549091506001600160a01b031615612db95760405162461bcd60e51b8152602060048201526013602482015272105b1c9958591e481a5b9a5d1a585b1a5e9959606a1b60448201526064016107e7565b80546001600160a01b03199081166001600160a01b0385811691821784556001840180549093169085161790915560405133907f8be0079c531659141344cd1fd0a4f28419497f9722a3daafe3b4186f6b6457e090600090a36040516001600160a01b0383169033907fa3396fd7f6e0a21b50e5089d2da70d5ac0a3bbbd1f617a93f134b7638998019890600090a3505050565b6000612e5761257c565b905080612e648482615c0d565b50600181016109148382615c0d565b600080612e88612a43368590038501856154a6565b60028501546040516331a9108f60e11b8152608086013560048201529193508392506001600160a01b031690636352211e90602401602060405180830381865afa158015612eda573d6000803e3d6000fd5b505050506040513d601f19601f82011682018060405250810190612efe91906157a6565b6001600160a01b0316326001600160a01b031614158015612f405750612f2a6060840160408501615147565b6001600160a01b0316336001600160a01b031614155b15612f9057612f83612f6085612f5b368790038701876154a6565b61424b565b612f726101a08601610180870161576c565b64ffffffffff1660e0860135610601565b612f8d90826156b9565b90505b9250929050565b6000806105fb60017f39509ba13edbf55c1c882ff847dd8db4cc4806e85b9952f85673490851bc713b6156a6565b6060612fcf61495a565b6040805180820190915260008082526020820152612ff985612ff460408701876159bb565b613548565b9250600090508061304e8761301160408901896159bb565b613020906101808101906159dc565b61303060408b0160208c01615a25565b60ff1681811061304257613042615730565b90506101c00201612e73565b90925090506130a461306360408801886159bb565b6040018760200160208101906130799190615a25565b61308660408a018a6159bb565b613095906101808101906159dc565b868661035060208e018e615ccc565b6130c1576040516369a61bf560e11b815260040160405180910390fd5b6d20a1aa24ab22afa0aaa1aa24a7a760911b6003880160006130e660408a018a6159bb565b604001608001358152602001908152602001600020540361311d57600560405163683f44bb60e11b81526004016107e79190615716565b8061312b60408801886159bb565b60e0013510156131695761314260408701876159bb565b60405163f4657c5360e01b815260e0909101356004820152602481018290526044016107e7565b60006131c18861317c60408a018a6159bb565b61318b906101808101906159dc565b61319b60408c0160208d01615a25565b60ff168181106131ad576131ad615730565b90506101c002016101400160600135613bc4565b90506131cd88826125aa565b1561330657806001600160a01b031663de6c284860405180604001604052806132338b80604001906131ff91906159bb565b61320e906101808101906159dc565b8d60200160208101906132219190615a25565b60ff16818110612aee57612aee615730565b815260200161324560408c018c6159bb565b613254906101808101906159dc565b61326460408e0160208f01615a25565b60ff1681811061327657613276615730565b613292926101a06101c09092020190810191506101800161576c565b64ffffffffff1690526132a586866156a6565b6040516001600160e01b031960e085901b1681528251600482015260209092015160248301526044820152606401600060405180830381600087803b1580156132ed57600080fd5b505af1158015613301573d6000803e3d6000fd5b505050505b875461010090046001600160a01b031663e3db128261332860408a018a6159bb565b613337906101808101906159dc565b61334760408c0160208d01615a25565b60ff1681811061335957613359615730565b6133739260406101c0909202019081019150602001615147565b3384866040518563ffffffff1660e01b81526004016133959493929190615ce9565b600060405180830381600087803b1580156133af57600080fd5b505af11580156133c3573d6000803e3d6000fd5b50505050613453888880604001906133db91906159bb565b6133ea906101808101906159dc565b6133fa60408c0160208d01615a25565b60ff168961340b60408e018e6159bb565b61341a906101808101906159dc565b8e602001602081019061342d9190615a25565b60ff1681811061343f5761343f615730565b90506101c00201610140016060013561428b565b955061345e86613896565b60405180604001604052806134a0888a60200160208101906134809190615a25565b60ff168151811061349357613493615730565b6020026020010151611ef5565b8152602001878960200160208101906134b99190615a25565b60ff16815181106134cc576134cc615730565b6020026020010151602001516040015164ffffffffff168152509350856040516020016134f9919061538d565b6040516020818303038152906040528051906020012088600301600089806040019061352591906159bb565b604001608001358152602001908152602001600020819055505050509250925092565b600061355261495a565b60c083013560009081526003850160205260409020546d5f5e55db54dd505f555e55db585960911b0161359b57600560405163683f44bb60e11b81526004016107e79190615716565b823561016084013510806135b25750610160830135155b156135d357600c60405163683f44bb60e11b81526004016107e79190615716565b60006135e36101808501856159dc565b905011156136bd576135f96101808401846159dc565b600081811061360a5761360a615730565b90506101c002016000016080013583604001608001351461364157600160405163683f44bb60e11b81526004016107e79190615716565b61364f6101808401846159dc565b600081811061366057613660615730565b61367a9260406101c0909202019081019150602001615147565b6001600160a01b03166136936080850160608601615147565b6001600160a01b0316146136bd57600260405163683f44bb60e11b81526004016107e79190615716565b826040016040516020016136d19190615d13565b60408051601f198184030181528282528051602091820120608084019092528535835290935060009190810161370642614332565b64ffffffffff168152602001613729613724610120880135426156b9565b614332565b64ffffffffff1681526020018481525090506137578460200160208101906137519190615147565b84614346565b8260405180604001604052808660400180360381019061377791906154c3565b8152602001929092529590945092505050565b835460609060ff1683106137b457600a60405163683f44bb60e11b81526004016107e79190615716565b6137bf8360016156b9565b6001600160401b038111156137d6576137d6614b6a565b60405190808252806020026020018201604052801561380f57816020015b6137fc61495a565b8152602001906001900390816137f45790505b5090508181858590508151811061382857613828615730565b602002602001018190525060005b8381101561388c5784848281811061385057613850615730565b90506101c0020180360381019061386791906154a6565b82828151811061387957613879615730565b6020908102919091010152600101613836565b505b949350505050565b6000805b8251811015613996578281815181106138b5576138b5615730565b6020026020010151602001516040015164ffffffffff1642106138ee57600860405163683f44bb60e11b81526004016107e79190615716565b82818151811061390057613900615730565b60200260200101516000015160a001516060015182111561393757600960405163683f44bb60e11b81526004016107e79190615716565b61398283828151811061394c5761394c615730565b602002602001015184838151811061396657613966615730565b6020026020010151602001516040015164ffffffffff166127e7565b61398c90836156b9565b915060010161389a565b505080516000905b8015610ec7576139e9836139b36001846156a6565b815181106139c3576139c3615730565b6020026020010151846001846139d991906156a6565b8151811061396657613966615730565b6139f390836156b9565b915082613a016001836156a6565b81518110613a1157613a11615730565b60200260200101516000015160a0015160800151821115613a4857600d60405163683f44bb60e11b81526004016107e79190615716565b6000190161399e565b60608383808060200260200160405190810160405280939291908181526020016000905b82821015613aa257613a936101c083028601368190038101906154a6565b81526020019060010190613a75565b5050505050905060005b8151811015613afc5781516000613ac68885858833613c4a565b9094509050613ad581866156a6565b945084600003613ae6575050613afc565b81845103613af5578260010192505b5050613aac565b5061388e8585856000818110613b1457613b14615730565b90506101c002016000016080013583614086565b60006401000000008210613b3b57600080fd5b5090565b60008083602001516020015164ffffffffff1683613b5d91906156a6565b60208086015151865160a001519091015191925061388e91613b7f9084615938565b905b60006120548383670de0b6b3a7640000612507565b600080613ba161257c565b60009384526002016020526040909220546001600160a01b031690911415919050565b60008181526004830160205260408120546001600160a01b0316613bf057613beb826111b7565b612054565b50600090815260049190910160205260409020546001600160a01b031690565b6000805b8251811015613c40576000613c2d888886858a8a614465565b9586900395929092019150600101613c14565b5095945050505050565b6060600080868660ff1681518110613c6457613c64615730565b6020908102919091018101518082015160600151600081815260048c01909352604090922054909250600160a01b900460ff1615613cb857600560405163683f44bb60e11b81526004016107e79190615716565b60208201516040015164ffffffffff16428111613ce85760405163046c4b6360e51b815260040160405180910390fd5b6000613cf484426127e7565b90506000613d01846111b7565b90506000613d0f8d836125aa565b90506000613d1d8e87613bc4565b9050838b1115613d2b57839a505b8115613de157826001600160a01b03166338663c3f6040518060600160405280613d548b611ef5565b81526020018a602001516000015181526020018a602001516000015188613d7b91906156a6565b9052604080516001600160e01b031960e085901b16815282516004820152602083015160248201529101516044820152606401600060405180830381600087803b158015613dc857600080fd5b505af1158015613ddc573d6000803e3d6000fd5b505050505b6020870151849052613df242614332565b6020808901805164ffffffffff909316929091019190915251518b1015613ea0578a8760200151600001818151613e2991906156a6565b9052508115613e9b57826001600160a01b03166359f9556e613e4a89611ef5565b6040518263ffffffff1660e01b8152600401613e6891815260200190565b600060405180830381600087803b158015613e8257600080fd5b505af1158015613e96573d6000803e3d6000fd5b505050505b613fb5565b6020870151519a508115613f815760405163349f723d60e01b81526001600160401b03861660048201526001600160a01b0384169063f1e9f4f590829063349f723d90602401602060405180830381865afa158015613f03573d6000803e3d6000fd5b505050506040513d601f19601f82011682018060405250810190613f279190615dad565b6040516001600160e01b031960e084901b1681526001600160401b039091166004820152602401600060405180830381600087803b158015613f6857600080fd5b505af1158015613f7c573d6000803e3d6000fd5b505050505b600086815260048f016020526040902080546001600160a81b0319169055613fa8866146a1565b613fb28d8d614784565b9c505b8d60000160019054906101000a90046001600160a01b03166001600160a01b031663e3db12828860000151602001518c848f6040518563ffffffff1660e01b81526004016140069493929190615ce9565b600060405180830381600087803b15801561402057600080fd5b505af1158015614034573d6000803e3d6000fd5b50505050857f7c3f93091d6a13e0438473f0d6ba31c52b56b0c08e0220f29ef563a5ab833a0a8c60405161406a91815260200190565b60405180910390a2509a9c989b50979950505050505050505050565b80516000036140a5576000828152600384016020526040812055505050565b806040516020016140b6919061538d565b60408051601f198184030181529181528151602092830120600085815260038701909352912055505050565b6000805b828110156141315761411d84828151811061410357614103615730565b602002602001015185838151811061396657613966615730565b61412790836156b9565b91506001016140e6565b5092915050565b600061414261257c565b6001600160a01b038086166000818152600384016020908152604080832080546000190190559388168083528483208054600101905587835260028601825284832080546001600160a01b03199081168317909155600487019092528483208054909216909155925193945085937fddf252ad1be2c89b69c2b068fc378daa952ba7f163c4a11628f55a4df523b3ef9190a450505050565b600082815260048401602052604080822080546001600160a01b0319166001600160a01b0385169081179091559051909184917f22178795f41268ec023f6a5c2fcb5d7098c4aadccddf002ae2cd25d569c20c0d9190a3505050565b600066010000000000008210613b3b57600080fd5b6000804283602001516040015164ffffffffff1661426991906156a6565b60208085015151855160a001519091015191925061388e91613b7f9084615938565b60608585808060200260200160405190810160405280939291908181526020016000905b828210156142dc576142cd6101c083028601368190038101906154a6565b815260200190600101906142af565b50505050509050828185815181106142f6576142f6615730565b602002602001018190525061430a826146a1565b600091825260049096016020526040902080546001600160a81b031916905550929392505050565b6000650100000000008210613b3b57600080fd5b6001600160a01b0382166143905760405162461bcd60e51b81526020600482015260116024820152701253959053125117d49150d25412515395607a1b60448201526064016107e7565b600061439a61257c565b60008381526002820160205260409020549091506001600160a01b0316156143f55760405162461bcd60e51b815260206004820152600e60248201526d1053149150511657d3525395115160921b60448201526064016107e7565b6001600160a01b03831660008181526003830160209081526040808320805460010190558583526002850190915280822080546001600160a01b0319168417905551849291907fddf252ad1be2c89b69c2b068fc378daa952ba7f163c4a11628f55a4df523b3ef908290a4505050565b60008085858151811061447a5761447a615730565b6020026020010151600001519050600086868151811061449c5761449c615730565b60200260200101516040015164ffffffffff16905060008787815181106144c5576144c5615730565b602002602001015160200151905060006144df8b85613bc4565b90506000878311156144fc576144f588846156a6565b9050614500565b8297505b8715614572578b546040516371ed894160e11b81526101009091046001600160a01b03169063e3db12829061453f908e908b9087908e90600401615ce9565b600060405180830381600087803b15801561455957600080fd5b505af115801561456d573d6000803e3d6000fd5b505050505b600085815260048d016020526040902080546001600160a81b031916905589518a908a9081106145a4576145a4615730565b602002602001016145d660405180606001604052806000815260200160008152602001600064ffffffffff1681525090565b90526145e1856146a1565b6145eb8c836125aa565b156146575760408051602081018252828152905163aaed42b760e01b8152905160048201526001600160a01b0383169063aaed42b790602401600060405180830381600087803b15801561463e57600080fd5b505af1158015614652573d6000803e3d6000fd5b505050505b847f7c3f93091d6a13e0438473f0d6ba31c52b56b0c08e0220f29ef563a5ab833a0a8960405161468991815260200190565b60405180910390a250959a9950505050505050505050565b60006146ab61257c565b60008381526002820160205260409020549091506001600160a01b0316806147025760405162461bcd60e51b815260206004820152600a6024820152691393d517d3525395115160b21b60448201526064016107e7565b6001600160a01b03811660008181526003840160209081526040808320805460001901905586835260028601825280832080546001600160a01b0319908116909155600487019092528083208054909216909155518592907fddf252ad1be2c89b69c2b068fc378daa952ba7f163c4a11628f55a4df523b3ef908390a4505050565b815160609060ff8316811161479857600080fd5b6147a36001826156a6565b6001600160401b038111156147ba576147ba614b6a565b6040519080825280602002602001820160405280156147f357816020015b6147e061495a565b8152602001906001900390816147d85790505b50915060005b8360ff168110156148435784818151811061481657614816615730565b602002602001015183828151811061483057614830615730565b60209081029190910101526001016147f9565b61484e6001836156a6565b8110156148975784816001018151811061486a5761486a615730565b602002602001015183828151811061488457614884615730565b6020908102919091010152600101614843565b848460ff16815181106148ac576148ac615730565b602090810291909101810151516080015160405160ff8716815290917f7da093bd23afb7bd1904518ce9e4f811662ce9d7c1b6f349603c64b899dda635910160405180910390a2505092915050565b6040518060e001604052806000815260200160008152602001600065ffffffffffff168152602001600065ffffffffffff16815260200160006001600160a01b0316815260200160006001600160a01b03168152602001606081525090565b604051806040016040528061496d61499c565b81526040805160808101825260008082526020828101829052928201819052606082015291015290565b905290565b6040518060c00160405280600060ff16815260200160006001600160a01b0316815260200160006001600160a01b0316815260200160008019168152602001600081526020016149976040518060a0016040528060008152602001600081526020016000815260200160008152602001600081525090565b6001600160e01b031981168114614a2a57600080fd5b50565b600060208284031215614a3f57600080fd5b813561205481614a14565b600080600060608486031215614a5f57600080fd5b505081359360208301359350604090920135919050565b6000815180845260005b81811015614a9c57602081850181015186830182015201614a80565b506000602082860101526020601f19601f83011685010191505092915050565b6020815260006120546020830184614a76565b600060208284031215614ae157600080fd5b5035919050565b6001600160a01b0381168114614a2a57600080fd5b60008060408385031215614b1057600080fd5b8235614b1b81614ae8565b946020939093013593505050565b600080600060608486031215614b3e57600080fd5b8335614b4981614ae8565b92506020840135614b5981614ae8565b929592945050506040919091013590565b634e487b7160e01b600052604160045260246000fd5b60405160c081016001600160401b0381118282101715614ba257614ba2614b6a565b60405290565b60405160a081016001600160401b0381118282101715614ba257614ba2614b6a565b604051608081016001600160401b0381118282101715614ba257614ba2614b6a565b604051606081016001600160401b0381118282101715614ba257614ba2614b6a565b60405160e081016001600160401b0381118282101715614ba257614ba2614b6a565b604051601f8201601f191681016001600160401b0381118282101715614c5857614c58614b6a565b604052919050565b60006001600160401b03821115614c7957614c79614b6a565b5060051b60200190565b803560ff8116811461121b57600080fd5b6000818303610140811215614ca857600080fd5b614cb0614b80565b9150614cbb83614c83565b82526020830135614ccb81614ae8565b60208301526040830135614cde81614ae8565b6040830152606083810135908301526080808401359083015260a0609f1982011215614d0957600080fd5b50614d12614ba8565b60a0830135815260c0830135602082015260e08301356040820152610100830135606082015261012083013560808201528060a08301525092915050565b64ffffffffff81168114614a2a57600080fd5b60008183036101c0811215614d7757600080fd5b604051604081018181106001600160401b0382111715614d9957614d99614b6a565b604052915081614da98585614c94565b8152608061013f1983011215614dbe57600080fd5b614dc6614bca565b91506101408401358252610160840135614ddf81614d50565b6020830152610180840135614df381614d50565b806040840152506101a08401356060830152816020820152505092915050565b600082601f830112614e2457600080fd5b81356020614e39614e3483614c60565b614c30565b8281526101c09283028501820192828201919087851115614e5957600080fd5b8387015b85811015614e7c57614e6f8982614d63565b8452928401928101614e5d565b5090979650505050505050565b60008060408385031215614e9c57600080fd5b82356001600160401b03811115614eb257600080fd5b614ebe85828601614e13565b95602094909401359450505050565b60008083601f840112614edf57600080fd5b5081356001600160401b03811115614ef657600080fd5b6020830191508360206101c083028501011115612f9057600080fd5b600080600080600060808688031215614f2a57600080fd5b853594506020860135935060408601356001600160401b03811115614f4e57600080fd5b614f5a88828901614ecd565b9094509250506060860135614f6e81614ae8565b809150509295509295909350565b8015158114614a2a57600080fd5b60008060008060008060008789036101e0811215614fa757600080fd5b61014080821215614fb757600080fd5b899850614fc5818b01614c83565b975050506101608801356001600160401b03811115614fe357600080fd5b614fef8a828b01614ecd565b90965094505061018088013592506101a088013591506101c088013561501481614f7c565b8091505092959891949750929550565b6000602080835261010083018451828501528185015160408501526040850151606065ffffffffffff808316828801528082890151166080880152506080870151915060018060a01b0380831660a08801528060a08901511660c08801525060c0870151915060e080870152828251808552610120880191508584019450600093505b808410156150e9576150d5828651805182526020808201519083015260409081015164ffffffffff16910152565b9385019360019390930192908201906150a7565b50979650505050505050565b6000806040838503121561510857600080fd5b823561511381614ae8565b9150602083013561512381614ae8565b809150509250929050565b60006101c0828403121561514157600080fd5b50919050565b60006020828403121561515957600080fd5b813561205481614ae8565b60006020828403121561517657600080fd5b81356001600160401b0381111561518c57600080fd5b82016060818503121561205457600080fd5b805160ff1682526020808201516001600160a01b039081168285015260408084015190911681850152606080840151818601526080808501518187015260a0948501518051958701959095529284015160c08601529083015160e0850152820151610100840152015161012090910152565b61521b82825161519e565b60209081015180516101408401529081015164ffffffffff908116610160840152604082015116610180830152606001516101a090910152565b600081518084526020808501945080840160005b838110156152905761527c878351615210565b6101c0969096019590820190600101615269565b509495945050505050565b60006102208083526152af81840187615255565b9150506152bf6020830185615210565b82516101e0830152602083015161020083015261388e565b6000602082840312156152e957600080fd5b81356001600160401b038111156152ff57600080fd5b82016101a0818503121561205457600080fd5b83815260606020820152600061532b6060830185615255565b9050826040830152949350505050565b6000806000806060858703121561535157600080fd5b8435935060208501356001600160401b0381111561536e57600080fd5b61537a87828801614ecd565b9598909750949560400135949350505050565b6020815260006120546020830184615255565b600080604083850312156153b357600080fd5b82356153be81614ae8565b9150602083013561512381614f7c565b6000602082840312156153e057600080fd5b81356001600160401b038111156153f657600080fd5b82016040818503121561205457600080fd5b60008060008060006080868803121561542057600080fd5b853561542b81614ae8565b9450602086013561543b81614ae8565b93506040860135925060608601356001600160401b038082111561545e57600080fd5b818801915088601f83011261547257600080fd5b81358181111561548157600080fd5b89602082850101111561549357600080fd5b9699959850939650602001949392505050565b60006101c082840312156154b957600080fd5b6120548383614d63565b600061014082840312156154d657600080fd5b6120548383614c94565b6000806101e083850312156154f457600080fd5b6154fe8484614d63565b946101c0939093013593505050565b6000806000806080858703121561552357600080fd5b843561552e81614ae8565b9350602085810135935060408087013593506060808801356001600160401b0381111561555a57600080fd5b8801601f81018a1361556b57600080fd5b8035615579614e3482614c60565b8181529083028201850190858101908c83111561559557600080fd5b928601925b828410156155e65784848e0312156155b25760008081fd5b6155ba614bec565b843581528785013588820152868501356155d381614d50565b818801528252928401929086019061559a565b999c989b5096995050505050505050565b60008060008060006080868803121561560f57600080fd5b8535945060208601356001600160401b0381111561562c57600080fd5b61563888828901614ecd565b909550935061564b905060408701614c83565b949793965091946060013592915050565b60006020828403121561566e57600080fd5b81356001600160401b0381111561568457600080fd5b61388e84828501614e13565b634e487b7160e01b600052601160045260246000fd5b818103818111156105fb576105fb615690565b808201808211156105fb576105fb615690565b600181811c908216806156e057607f821691505b60208210810361514157634e487b7160e01b600052602260045260246000fd5b634e487b7160e01b600052602160045260246000fd5b602081016011831061572a5761572a615700565b91905290565b634e487b7160e01b600052603260045260246000fd5b6020808252600c908201526b15539055551213d49256915160a21b604082015260600190565b60006020828403121561577e57600080fd5b813561205481614d50565b60006020828403121561579b57600080fd5b815161205481614a14565b6000602082840312156157b857600080fd5b815161205481614ae8565b805165ffffffffffff8116811461121b57600080fd5b805161121b81614ae8565b600082601f8301126157f557600080fd5b81516020615805614e3483614c60565b8281526060928302850182019282820191908785111561582457600080fd5b8387015b85811015614e7c5781818a0312156158405760008081fd5b615848614bec565b81518152858201518682015260408083015161586381614d50565b908201528452928401928101615828565b60006020828403121561588657600080fd5b81516001600160401b038082111561589d57600080fd5b9083019060e082860312156158b157600080fd5b6158b9614c0e565b82518152602083015160208201526158d3604084016157c3565b60408201526158e4606084016157c3565b60608201526158f5608084016157d9565b608082015261590660a084016157d9565b60a082015260c08301518281111561591d57600080fd5b615929878286016157e4565b60c08301525095945050505050565b80820281158282048414176105fb576105fb615690565b60008261596c57634e487b7160e01b600052601260045260246000fd5b500490565b6001600160a01b0393841681529190921660208201526001600160e01b0319909116604082015260600190565b6000602082840312156159b057600080fd5b815161205481614f7c565b6000823561019e198336030181126159d257600080fd5b9190910192915050565b6000808335601e198436030181126159f357600080fd5b8301803591506001600160401b03821115615a0d57600080fd5b60200191506101c081023603821315612f9057600080fd5b600060208284031215615a3757600080fd5b61205482614c83565b60ff848116825283166020820152610200810161388e6040830184615210565b600060208284031215615a7257600080fd5b81356007811061205457600080fd5b6000808335601e19843603018112615a9857600080fd5b8301803591506001600160401b03821115615ab257600080fd5b602001915036819003821315612f9057600080fd5b60008060408385031215615ada57600080fd5b505080516020909101519092909150565b600060208284031215615afd57600080fd5b5051919050565b600060078410615b1657615b16615700565b8382526040602083015261388e6040830184614a76565b6001600160a01b038681168252851660208201526040810184905260806060820181905281018290526000828460a0840137600060a0848401015260a0601f19601f85011683010190509695505050505050565b61014081016105fb828461519e565b828152608081016120546020830184805182526020808201519083015260409081015164ffffffffff16910152565b601f821115610ec757600081815260208120601f850160051c81016020861015615be65750805b601f850160051c820191505b81811015615c0557828155600101615bf2565b505050505050565b81516001600160401b03811115615c2657615c26614b6a565b615c3a81615c3484546156cc565b84615bbf565b602080601f831160018114615c6f5760008415615c575750858301515b600019600386901b1c1916600185901b178555615c05565b600085815260208120601f198616915b82811015615c9e57888601518255948401946001909101908401615c7f565b5085821015615cbc5787850151600019600388901b60f8161c191681555b5050505050600190811b01905550565b600060208284031215615cde57600080fd5b813561205481614f7c565b6001600160a01b039485168152928416602084015292166040820152606081019190915260800190565b610140810160ff615d2384614c83565b1682526020830135615d3481614ae8565b6001600160a01b039081166020840152604084013590615d5382614ae8565b80821660408501525050606083013560608301526080830135608083015260a083013560a083015260c083013560c083015260e083013560e083015261010080840135818401525061012080840135818401525092915050565b600060208284031215615dbf57600080fd5b81516001600160401b038116811461205457600080fdfea2646970667358221220c268db01ae9ed5bfe1fe57b0b11e7c379eb03e2640441230576d6cdd39f088d364736f6c63430008110033",
    "linkReferences": {}
  },
  "methodIdentifiers": {
    "ASTARIA_ROUTER()": "3398b637",
    "COLLATERAL_TOKEN()": "f5f1f1a7",
    "approve(address,uint256)": "095ea7b3",
    "authority()": "bf7e214f",
    "balanceOf(address)": "70a08231",
    "buyoutLien((bool,uint8,(uint256,address,(uint8,address,address,bytes32,uint256,(uint256,uint256,uint256,uint256,uint256)),((uint8,address,address,bytes32,uint256,(uint256,uint256,uint256,uint256,uint256)),(uint256,uint40,uint40,uint256))[])))": "7d596192",
    "calculateSlope(((uint8,address,address,bytes32,uint256,(uint256,uint256,uint256,uint256,uint256)),(uint256,uint40,uint40,uint256)))": "c3929d45",
    "createLien((uint256,address,(uint8,address,address,bytes32,uint256,(uint256,uint256,uint256,uint256,uint256)),((uint8,address,address,bytes32,uint256,(uint256,uint256,uint256,uint256,uint256)),(uint256,uint40,uint40,uint256))[]))": "92310e10",
    "file((uint8,bytes))": "b05e52fd",
    "getAmountOwingAtLiquidation(((uint8,address,address,bytes32,uint256,(uint256,uint256,uint256,uint256,uint256)),(uint256,uint40,uint40,uint256)))": "f828a47c",
    "getApproved(uint256)": "081812fc",
    "getAuctionData(uint256)": "44f27e30",
    "getAuctionLiquidator(uint256)": "c66e79d6",
    "getBuyout(((uint8,address,address,bytes32,uint256,(uint256,uint256,uint256,uint256,uint256)),(uint256,uint40,uint40,uint256)))": "6d995c3b",
    "getBuyoutFee(uint256,uint256,uint256)": "045283b6",
    "getCollateralState(uint256)": "6a53691c",
    "getInterest(((uint8,address,address,bytes32,uint256,(uint256,uint256,uint256,uint256,uint256)),(uint256,uint40,uint40,uint256)))": "c08835bc",
    "getMaxPotentialDebtForCollateral(((uint8,address,address,bytes32,uint256,(uint256,uint256,uint256,uint256,uint256)),(uint256,uint40,uint40,uint256))[])": "e88ab376",
    "getMaxPotentialDebtForCollateral(((uint8,address,address,bytes32,uint256,(uint256,uint256,uint256,uint256,uint256)),(uint256,uint40,uint40,uint256))[],uint256)": "2ad6681d",
    "getOwed(((uint8,address,address,bytes32,uint256,(uint256,uint256,uint256,uint256,uint256)),(uint256,uint40,uint40,uint256)))": "d5840bb2",
    "getOwed(((uint8,address,address,bytes32,uint256,(uint256,uint256,uint256,uint256,uint256)),(uint256,uint40,uint40,uint256)),uint256)": "d7dd5482",
    "getPayee(uint256)": "d13136fd",
    "initialize(address,address)": "485cc955",
    "isApprovedForAll(address,address)": "e985e9c5",
    "isValidRefinance((uint8,address,address,bytes32,uint256,(uint256,uint256,uint256,uint256,uint256)),uint8,((uint8,address,address,bytes32,uint256,(uint256,uint256,uint256,uint256,uint256)),(uint256,uint40,uint40,uint256))[],uint256,uint256,bool)": "3e45b0a4",
    "makePayment(uint256,((uint8,address,address,bytes32,uint256,(uint256,uint256,uint256,uint256,uint256)),(uint256,uint40,uint40,uint256))[],uint256)": "9d13d8b5",
    "makePayment(uint256,((uint8,address,address,bytes32,uint256,(uint256,uint256,uint256,uint256,uint256)),(uint256,uint40,uint40,uint256))[],uint8,uint256)": "e2ec85d0",
    "name()": "06fdde03",
    "owner()": "8da5cb5b",
    "ownerOf(uint256)": "6352211e",
    "payDebtViaClearingHouse(address,uint256,uint256,(uint256,uint256,uint40)[])": "d893a9ac",
    "safeTransferFrom(address,address,uint256)": "42842e0e",
    "safeTransferFrom(address,address,uint256,bytes)": "b88d4fde",
    "setApprovalForAll(address,bool)": "a22cb465",
    "setAuthority(address)": "7a9e5e4b",
    "stopLiens(uint256,uint256,((uint8,address,address,bytes32,uint256,(uint256,uint256,uint256,uint256,uint256)),(uint256,uint40,uint40,uint256))[],address)": "3cdd1c1e",
    "supportsInterface(bytes4)": "01ffc9a7",
    "symbol()": "95d89b41",
    "tokenURI(uint256)": "c87b56dd",
    "transferFrom(address,address,uint256)": "23b872dd",
    "transferOwnership(address)": "f2fde38b",
    "validateLien((uint8,address,address,bytes32,uint256,(uint256,uint256,uint256,uint256,uint256)))": "d4606b70"
  },
  "id": 148
}