{
  "abi": [
    {
      "inputs": [],
      "stateMutability": "nonpayable",
      "type": "constructor"
    },
    {
      "inputs": [
        {
          "internalType": "uint256",
          "name": "lienMaxAmount",
          "type": "uint256"
        },
        {
          "internalType": "uint256",
          "name": "owed",
          "type": "uint256"
        }
      ],
      "name": "InvalidBuyoutDetails",
      "type": "error"
    },
    {
      "inputs": [
        {
          "internalType": "enum ILienToken.InvalidStates",
          "name": "",
          "type": "uint8"
        }
      ],
      "name": "InvalidCollateralState",
      "type": "error"
    },
    {
      "inputs": [],
      "name": "InvalidLoanState",
      "type": "error"
    },
    {
      "inputs": [],
      "name": "InvalidRefinance",
      "type": "error"
    },
    {
      "inputs": [],
      "name": "InvalidSender",
      "type": "error"
    },
    {
      "inputs": [
        {
          "internalType": "enum ILienToken.InvalidStates",
          "name": "",
          "type": "uint8"
        }
      ],
      "name": "InvalidState",
      "type": "error"
    },
    {
      "inputs": [],
      "name": "InvalidTerms",
      "type": "error"
    },
    {
      "inputs": [
        {
          "internalType": "uint256",
          "name": "tokenId",
          "type": "uint256"
        }
      ],
      "name": "InvalidTokenId",
      "type": "error"
    },
    {
      "inputs": [],
      "name": "UnsupportedFile",
      "type": "error"
    },
    {
      "anonymous": false,
      "inputs": [
        {
          "indexed": true,
          "internalType": "uint256",
          "name": "collateralId",
          "type": "uint256"
        },
        {
          "indexed": false,
          "internalType": "uint8",
          "name": "position",
          "type": "uint8"
        },
        {
          "indexed": true,
          "internalType": "uint256",
          "name": "lienId",
          "type": "uint256"
        },
        {
          "components": [
            {
              "components": [
                {
                  "internalType": "uint8",
                  "name": "collateralType",
                  "type": "uint8"
                },
                {
                  "internalType": "address",
                  "name": "token",
                  "type": "address"
                },
                {
                  "internalType": "address",
                  "name": "vault",
                  "type": "address"
                },
                {
                  "internalType": "bytes32",
                  "name": "strategyRoot",
                  "type": "bytes32"
                },
                {
                  "internalType": "uint256",
                  "name": "collateralId",
                  "type": "uint256"
                },
                {
                  "components": [
                    {
                      "internalType": "uint256",
                      "name": "maxAmount",
                      "type": "uint256"
                    },
                    {
                      "internalType": "uint256",
                      "name": "rate",
                      "type": "uint256"
                    },
                    {
                      "internalType": "uint256",
                      "name": "duration",
                      "type": "uint256"
                    },
                    {
                      "internalType": "uint256",
                      "name": "maxPotentialDebt",
                      "type": "uint256"
                    },
                    {
                      "internalType": "uint256",
                      "name": "liquidationInitialAsk",
                      "type": "uint256"
                    }
                  ],
                  "internalType": "struct ILienToken.Details",
                  "name": "details",
                  "type": "tuple"
                }
              ],
              "internalType": "struct ILienToken.Lien",
              "name": "lien",
              "type": "tuple"
            },
            {
              "components": [
                {
                  "internalType": "uint88",
                  "name": "amount",
                  "type": "uint88"
                },
                {
                  "internalType": "uint40",
                  "name": "last",
                  "type": "uint40"
                },
                {
                  "internalType": "uint40",
                  "name": "end",
                  "type": "uint40"
                },
                {
                  "internalType": "uint256",
                  "name": "lienId",
                  "type": "uint256"
                }
              ],
              "internalType": "struct ILienToken.Point",
              "name": "point",
              "type": "tuple"
            }
          ],
          "indexed": false,
          "internalType": "struct ILienToken.Stack",
          "name": "stack",
          "type": "tuple"
        }
      ],
      "name": "AddLien",
      "type": "event"
    },
    {
      "anonymous": false,
      "inputs": [
        {
          "indexed": true,
          "internalType": "address",
          "name": "owner",
          "type": "address"
        },
        {
          "indexed": true,
          "internalType": "address",
          "name": "spender",
          "type": "address"
        },
        {
          "indexed": true,
          "internalType": "uint256",
          "name": "id",
          "type": "uint256"
        }
      ],
      "name": "Approval",
      "type": "event"
    },
    {
      "anonymous": false,
      "inputs": [
        {
          "indexed": true,
          "internalType": "address",
          "name": "owner",
          "type": "address"
        },
        {
          "indexed": true,
          "internalType": "address",
          "name": "operator",
          "type": "address"
        },
        {
          "indexed": false,
          "internalType": "bool",
          "name": "approved",
          "type": "bool"
        }
      ],
      "name": "ApprovalForAll",
      "type": "event"
    },
    {
      "anonymous": false,
      "inputs": [
        {
          "indexed": true,
          "internalType": "address",
          "name": "user",
          "type": "address"
        },
        {
          "indexed": true,
          "internalType": "contract Authority",
          "name": "newAuthority",
          "type": "address"
        }
      ],
      "name": "AuthorityUpdated",
      "type": "event"
    },
    {
      "anonymous": false,
      "inputs": [
        {
          "indexed": true,
          "internalType": "address",
          "name": "buyer",
          "type": "address"
        },
        {
          "indexed": false,
          "internalType": "uint256",
          "name": "lienId",
          "type": "uint256"
        },
        {
          "indexed": false,
          "internalType": "uint256",
          "name": "buyout",
          "type": "uint256"
        }
      ],
      "name": "BuyoutLien",
      "type": "event"
    },
    {
      "anonymous": false,
      "inputs": [
        {
          "indexed": false,
          "internalType": "enum ILienToken.FileType",
          "name": "what",
          "type": "uint8"
        },
        {
          "indexed": false,
          "internalType": "bytes",
          "name": "data",
          "type": "bytes"
        }
      ],
      "name": "FileUpdated",
      "type": "event"
    },
    {
      "anonymous": false,
      "inputs": [
        {
          "indexed": false,
          "internalType": "uint8",
          "name": "version",
          "type": "uint8"
        }
      ],
      "name": "Initialized",
      "type": "event"
    },
    {
      "anonymous": false,
      "inputs": [
        {
          "indexed": true,
          "internalType": "uint256",
          "name": "collateralId",
          "type": "uint256"
        },
        {
          "indexed": false,
          "internalType": "uint8",
          "name": "position",
          "type": "uint8"
        },
        {
          "indexed": false,
          "internalType": "enum ILienToken.StackAction",
          "name": "action",
          "type": "uint8"
        },
        {
          "indexed": false,
          "internalType": "uint8",
          "name": "stackLength",
          "type": "uint8"
        }
      ],
      "name": "LienStackUpdated",
      "type": "event"
    },
    {
      "anonymous": false,
      "inputs": [
        {
          "indexed": true,
          "internalType": "address",
          "name": "user",
          "type": "address"
        },
        {
          "indexed": true,
          "internalType": "address",
          "name": "newOwner",
          "type": "address"
        }
      ],
      "name": "OwnershipTransferred",
      "type": "event"
    },
    {
      "anonymous": false,
      "inputs": [
        {
          "indexed": true,
          "internalType": "uint256",
          "name": "lienId",
          "type": "uint256"
        },
        {
          "indexed": true,
          "internalType": "address",
          "name": "payee",
          "type": "address"
        }
      ],
      "name": "PayeeChanged",
      "type": "event"
    },
    {
      "anonymous": false,
      "inputs": [
        {
          "indexed": true,
          "internalType": "uint256",
          "name": "lienId",
          "type": "uint256"
        },
        {
          "indexed": false,
          "internalType": "uint256",
          "name": "amount",
          "type": "uint256"
        }
      ],
      "name": "Payment",
      "type": "event"
    },
    {
      "anonymous": false,
      "inputs": [
        {
          "indexed": true,
          "internalType": "uint256",
          "name": "collateralId",
          "type": "uint256"
        }
      ],
      "name": "RemovedLiens",
      "type": "event"
    },
    {
      "anonymous": false,
      "inputs": [
        {
          "indexed": true,
          "internalType": "address",
          "name": "from",
          "type": "address"
        },
        {
          "indexed": true,
          "internalType": "address",
          "name": "to",
          "type": "address"
        },
        {
          "indexed": true,
          "internalType": "uint256",
          "name": "id",
          "type": "uint256"
        }
      ],
      "name": "Transfer",
      "type": "event"
    },
    {
      "inputs": [],
      "name": "ASTARIA_ROUTER",
      "outputs": [
        {
          "internalType": "contract IAstariaRouter",
          "name": "",
          "type": "address"
        }
      ],
      "stateMutability": "view",
      "type": "function"
    },
    {
      "inputs": [],
      "name": "COLLATERAL_TOKEN",
      "outputs": [
        {
          "internalType": "contract ICollateralToken",
          "name": "",
          "type": "address"
        }
      ],
      "stateMutability": "view",
      "type": "function"
    },
    {
      "inputs": [
        {
          "internalType": "address",
          "name": "spender",
          "type": "address"
        },
        {
          "internalType": "uint256",
          "name": "id",
          "type": "uint256"
        }
      ],
      "name": "approve",
      "outputs": [],
      "stateMutability": "nonpayable",
      "type": "function"
    },
    {
      "inputs": [],
      "name": "authority",
      "outputs": [
        {
          "internalType": "contract Authority",
          "name": "",
          "type": "address"
        }
      ],
      "stateMutability": "view",
      "type": "function"
    },
    {
      "inputs": [
        {
          "internalType": "address",
          "name": "owner",
          "type": "address"
        }
      ],
      "name": "balanceOf",
      "outputs": [
        {
          "internalType": "uint256",
          "name": "",
          "type": "uint256"
        }
      ],
      "stateMutability": "view",
      "type": "function"
    },
    {
      "inputs": [
        {
          "components": [
            {
              "internalType": "uint8",
              "name": "position",
              "type": "uint8"
            },
            {
              "components": [
                {
                  "internalType": "uint256",
                  "name": "amount",
                  "type": "uint256"
                },
                {
                  "internalType": "address",
                  "name": "receiver",
                  "type": "address"
                },
                {
                  "components": [
                    {
                      "internalType": "uint8",
                      "name": "collateralType",
                      "type": "uint8"
                    },
                    {
                      "internalType": "address",
                      "name": "token",
                      "type": "address"
                    },
                    {
                      "internalType": "address",
                      "name": "vault",
                      "type": "address"
                    },
                    {
                      "internalType": "bytes32",
                      "name": "strategyRoot",
                      "type": "bytes32"
                    },
                    {
                      "internalType": "uint256",
                      "name": "collateralId",
                      "type": "uint256"
                    },
                    {
                      "components": [
                        {
                          "internalType": "uint256",
                          "name": "maxAmount",
                          "type": "uint256"
                        },
                        {
                          "internalType": "uint256",
                          "name": "rate",
                          "type": "uint256"
                        },
                        {
                          "internalType": "uint256",
                          "name": "duration",
                          "type": "uint256"
                        },
                        {
                          "internalType": "uint256",
                          "name": "maxPotentialDebt",
                          "type": "uint256"
                        },
                        {
                          "internalType": "uint256",
                          "name": "liquidationInitialAsk",
                          "type": "uint256"
                        }
                      ],
                      "internalType": "struct ILienToken.Details",
                      "name": "details",
                      "type": "tuple"
                    }
                  ],
                  "internalType": "struct ILienToken.Lien",
                  "name": "lien",
                  "type": "tuple"
                },
                {
                  "components": [
                    {
                      "components": [
                        {
                          "internalType": "uint8",
                          "name": "collateralType",
                          "type": "uint8"
                        },
                        {
                          "internalType": "address",
                          "name": "token",
                          "type": "address"
                        },
                        {
                          "internalType": "address",
                          "name": "vault",
                          "type": "address"
                        },
                        {
                          "internalType": "bytes32",
                          "name": "strategyRoot",
                          "type": "bytes32"
                        },
                        {
                          "internalType": "uint256",
                          "name": "collateralId",
                          "type": "uint256"
                        },
                        {
                          "components": [
                            {
                              "internalType": "uint256",
                              "name": "maxAmount",
                              "type": "uint256"
                            },
                            {
                              "internalType": "uint256",
                              "name": "rate",
                              "type": "uint256"
                            },
                            {
                              "internalType": "uint256",
                              "name": "duration",
                              "type": "uint256"
                            },
                            {
                              "internalType": "uint256",
                              "name": "maxPotentialDebt",
                              "type": "uint256"
                            },
                            {
                              "internalType": "uint256",
                              "name": "liquidationInitialAsk",
                              "type": "uint256"
                            }
                          ],
                          "internalType": "struct ILienToken.Details",
                          "name": "details",
                          "type": "tuple"
                        }
                      ],
                      "internalType": "struct ILienToken.Lien",
                      "name": "lien",
                      "type": "tuple"
                    },
                    {
                      "components": [
                        {
                          "internalType": "uint88",
                          "name": "amount",
                          "type": "uint88"
                        },
                        {
                          "internalType": "uint40",
                          "name": "last",
                          "type": "uint40"
                        },
                        {
                          "internalType": "uint40",
                          "name": "end",
                          "type": "uint40"
                        },
                        {
                          "internalType": "uint256",
                          "name": "lienId",
                          "type": "uint256"
                        }
                      ],
                      "internalType": "struct ILienToken.Point",
                      "name": "point",
                      "type": "tuple"
                    }
                  ],
                  "internalType": "struct ILienToken.Stack[]",
                  "name": "stack",
                  "type": "tuple[]"
                }
              ],
              "internalType": "struct ILienToken.LienActionEncumber",
              "name": "encumber",
              "type": "tuple"
            }
          ],
          "internalType": "struct ILienToken.LienActionBuyout",
          "name": "params",
          "type": "tuple"
        }
      ],
      "name": "buyoutLien",
      "outputs": [
        {
          "components": [
            {
              "components": [
                {
                  "internalType": "uint8",
                  "name": "collateralType",
                  "type": "uint8"
                },
                {
                  "internalType": "address",
                  "name": "token",
                  "type": "address"
                },
                {
                  "internalType": "address",
                  "name": "vault",
                  "type": "address"
                },
                {
                  "internalType": "bytes32",
                  "name": "strategyRoot",
                  "type": "bytes32"
                },
                {
                  "internalType": "uint256",
                  "name": "collateralId",
                  "type": "uint256"
                },
                {
                  "components": [
                    {
                      "internalType": "uint256",
                      "name": "maxAmount",
                      "type": "uint256"
                    },
                    {
                      "internalType": "uint256",
                      "name": "rate",
                      "type": "uint256"
                    },
                    {
                      "internalType": "uint256",
                      "name": "duration",
                      "type": "uint256"
                    },
                    {
                      "internalType": "uint256",
                      "name": "maxPotentialDebt",
                      "type": "uint256"
                    },
                    {
                      "internalType": "uint256",
                      "name": "liquidationInitialAsk",
                      "type": "uint256"
                    }
                  ],
                  "internalType": "struct ILienToken.Details",
                  "name": "details",
                  "type": "tuple"
                }
              ],
              "internalType": "struct ILienToken.Lien",
              "name": "lien",
              "type": "tuple"
            },
            {
              "components": [
                {
                  "internalType": "uint88",
                  "name": "amount",
                  "type": "uint88"
                },
                {
                  "internalType": "uint40",
                  "name": "last",
                  "type": "uint40"
                },
                {
                  "internalType": "uint40",
                  "name": "end",
                  "type": "uint40"
                },
                {
                  "internalType": "uint256",
                  "name": "lienId",
                  "type": "uint256"
                }
              ],
              "internalType": "struct ILienToken.Point",
              "name": "point",
              "type": "tuple"
            }
          ],
          "internalType": "struct ILienToken.Stack[]",
          "name": "",
          "type": "tuple[]"
        },
        {
          "components": [
            {
              "components": [
                {
                  "internalType": "uint8",
                  "name": "collateralType",
                  "type": "uint8"
                },
                {
                  "internalType": "address",
                  "name": "token",
                  "type": "address"
                },
                {
                  "internalType": "address",
                  "name": "vault",
                  "type": "address"
                },
                {
                  "internalType": "bytes32",
                  "name": "strategyRoot",
                  "type": "bytes32"
                },
                {
                  "internalType": "uint256",
                  "name": "collateralId",
                  "type": "uint256"
                },
                {
                  "components": [
                    {
                      "internalType": "uint256",
                      "name": "maxAmount",
                      "type": "uint256"
                    },
                    {
                      "internalType": "uint256",
                      "name": "rate",
                      "type": "uint256"
                    },
                    {
                      "internalType": "uint256",
                      "name": "duration",
                      "type": "uint256"
                    },
                    {
                      "internalType": "uint256",
                      "name": "maxPotentialDebt",
                      "type": "uint256"
                    },
                    {
                      "internalType": "uint256",
                      "name": "liquidationInitialAsk",
                      "type": "uint256"
                    }
                  ],
                  "internalType": "struct ILienToken.Details",
                  "name": "details",
                  "type": "tuple"
                }
              ],
              "internalType": "struct ILienToken.Lien",
              "name": "lien",
              "type": "tuple"
            },
            {
              "components": [
                {
                  "internalType": "uint88",
                  "name": "amount",
                  "type": "uint88"
                },
                {
                  "internalType": "uint40",
                  "name": "last",
                  "type": "uint40"
                },
                {
                  "internalType": "uint40",
                  "name": "end",
                  "type": "uint40"
                },
                {
                  "internalType": "uint256",
                  "name": "lienId",
                  "type": "uint256"
                }
              ],
              "internalType": "struct ILienToken.Point",
              "name": "point",
              "type": "tuple"
            }
          ],
          "internalType": "struct ILienToken.Stack",
          "name": "newStack",
          "type": "tuple"
        }
      ],
      "stateMutability": "nonpayable",
      "type": "function"
    },
    {
      "inputs": [
        {
          "components": [
            {
              "components": [
                {
                  "internalType": "uint8",
                  "name": "collateralType",
                  "type": "uint8"
                },
                {
                  "internalType": "address",
                  "name": "token",
                  "type": "address"
                },
                {
                  "internalType": "address",
                  "name": "vault",
                  "type": "address"
                },
                {
                  "internalType": "bytes32",
                  "name": "strategyRoot",
                  "type": "bytes32"
                },
                {
                  "internalType": "uint256",
                  "name": "collateralId",
                  "type": "uint256"
                },
                {
                  "components": [
                    {
                      "internalType": "uint256",
                      "name": "maxAmount",
                      "type": "uint256"
                    },
                    {
                      "internalType": "uint256",
                      "name": "rate",
                      "type": "uint256"
                    },
                    {
                      "internalType": "uint256",
                      "name": "duration",
                      "type": "uint256"
                    },
                    {
                      "internalType": "uint256",
                      "name": "maxPotentialDebt",
                      "type": "uint256"
                    },
                    {
                      "internalType": "uint256",
                      "name": "liquidationInitialAsk",
                      "type": "uint256"
                    }
                  ],
                  "internalType": "struct ILienToken.Details",
                  "name": "details",
                  "type": "tuple"
                }
              ],
              "internalType": "struct ILienToken.Lien",
              "name": "lien",
              "type": "tuple"
            },
            {
              "components": [
                {
                  "internalType": "uint88",
                  "name": "amount",
                  "type": "uint88"
                },
                {
                  "internalType": "uint40",
                  "name": "last",
                  "type": "uint40"
                },
                {
                  "internalType": "uint40",
                  "name": "end",
                  "type": "uint40"
                },
                {
                  "internalType": "uint256",
                  "name": "lienId",
                  "type": "uint256"
                }
              ],
              "internalType": "struct ILienToken.Point",
              "name": "point",
              "type": "tuple"
            }
          ],
          "internalType": "struct ILienToken.Stack",
          "name": "stack",
          "type": "tuple"
        }
      ],
      "name": "calculateSlope",
      "outputs": [
        {
          "internalType": "uint256",
          "name": "",
          "type": "uint256"
        }
      ],
      "stateMutability": "pure",
      "type": "function"
    },
    {
      "inputs": [
        {
          "components": [
            {
              "internalType": "uint256",
              "name": "amount",
              "type": "uint256"
            },
            {
              "internalType": "address",
              "name": "receiver",
              "type": "address"
            },
            {
              "components": [
                {
                  "internalType": "uint8",
                  "name": "collateralType",
                  "type": "uint8"
                },
                {
                  "internalType": "address",
                  "name": "token",
                  "type": "address"
                },
                {
                  "internalType": "address",
                  "name": "vault",
                  "type": "address"
                },
                {
                  "internalType": "bytes32",
                  "name": "strategyRoot",
                  "type": "bytes32"
                },
                {
                  "internalType": "uint256",
                  "name": "collateralId",
                  "type": "uint256"
                },
                {
                  "components": [
                    {
                      "internalType": "uint256",
                      "name": "maxAmount",
                      "type": "uint256"
                    },
                    {
                      "internalType": "uint256",
                      "name": "rate",
                      "type": "uint256"
                    },
                    {
                      "internalType": "uint256",
                      "name": "duration",
                      "type": "uint256"
                    },
                    {
                      "internalType": "uint256",
                      "name": "maxPotentialDebt",
                      "type": "uint256"
                    },
                    {
                      "internalType": "uint256",
                      "name": "liquidationInitialAsk",
                      "type": "uint256"
                    }
                  ],
                  "internalType": "struct ILienToken.Details",
                  "name": "details",
                  "type": "tuple"
                }
              ],
              "internalType": "struct ILienToken.Lien",
              "name": "lien",
              "type": "tuple"
            },
            {
              "components": [
                {
                  "components": [
                    {
                      "internalType": "uint8",
                      "name": "collateralType",
                      "type": "uint8"
                    },
                    {
                      "internalType": "address",
                      "name": "token",
                      "type": "address"
                    },
                    {
                      "internalType": "address",
                      "name": "vault",
                      "type": "address"
                    },
                    {
                      "internalType": "bytes32",
                      "name": "strategyRoot",
                      "type": "bytes32"
                    },
                    {
                      "internalType": "uint256",
                      "name": "collateralId",
                      "type": "uint256"
                    },
                    {
                      "components": [
                        {
                          "internalType": "uint256",
                          "name": "maxAmount",
                          "type": "uint256"
                        },
                        {
                          "internalType": "uint256",
                          "name": "rate",
                          "type": "uint256"
                        },
                        {
                          "internalType": "uint256",
                          "name": "duration",
                          "type": "uint256"
                        },
                        {
                          "internalType": "uint256",
                          "name": "maxPotentialDebt",
                          "type": "uint256"
                        },
                        {
                          "internalType": "uint256",
                          "name": "liquidationInitialAsk",
                          "type": "uint256"
                        }
                      ],
                      "internalType": "struct ILienToken.Details",
                      "name": "details",
                      "type": "tuple"
                    }
                  ],
                  "internalType": "struct ILienToken.Lien",
                  "name": "lien",
                  "type": "tuple"
                },
                {
                  "components": [
                    {
                      "internalType": "uint88",
                      "name": "amount",
                      "type": "uint88"
                    },
                    {
                      "internalType": "uint40",
                      "name": "last",
                      "type": "uint40"
                    },
                    {
                      "internalType": "uint40",
                      "name": "end",
                      "type": "uint40"
                    },
                    {
                      "internalType": "uint256",
                      "name": "lienId",
                      "type": "uint256"
                    }
                  ],
                  "internalType": "struct ILienToken.Point",
                  "name": "point",
                  "type": "tuple"
                }
              ],
              "internalType": "struct ILienToken.Stack[]",
              "name": "stack",
              "type": "tuple[]"
            }
          ],
          "internalType": "struct ILienToken.LienActionEncumber",
          "name": "params",
          "type": "tuple"
        }
      ],
      "name": "createLien",
      "outputs": [
        {
          "internalType": "uint256",
          "name": "lienId",
          "type": "uint256"
        },
        {
          "components": [
            {
              "components": [
                {
                  "internalType": "uint8",
                  "name": "collateralType",
                  "type": "uint8"
                },
                {
                  "internalType": "address",
                  "name": "token",
                  "type": "address"
                },
                {
                  "internalType": "address",
                  "name": "vault",
                  "type": "address"
                },
                {
                  "internalType": "bytes32",
                  "name": "strategyRoot",
                  "type": "bytes32"
                },
                {
                  "internalType": "uint256",
                  "name": "collateralId",
                  "type": "uint256"
                },
                {
                  "components": [
                    {
                      "internalType": "uint256",
                      "name": "maxAmount",
                      "type": "uint256"
                    },
                    {
                      "internalType": "uint256",
                      "name": "rate",
                      "type": "uint256"
                    },
                    {
                      "internalType": "uint256",
                      "name": "duration",
                      "type": "uint256"
                    },
                    {
                      "internalType": "uint256",
                      "name": "maxPotentialDebt",
                      "type": "uint256"
                    },
                    {
                      "internalType": "uint256",
                      "name": "liquidationInitialAsk",
                      "type": "uint256"
                    }
                  ],
                  "internalType": "struct ILienToken.Details",
                  "name": "details",
                  "type": "tuple"
                }
              ],
              "internalType": "struct ILienToken.Lien",
              "name": "lien",
              "type": "tuple"
            },
            {
              "components": [
                {
                  "internalType": "uint88",
                  "name": "amount",
                  "type": "uint88"
                },
                {
                  "internalType": "uint40",
                  "name": "last",
                  "type": "uint40"
                },
                {
                  "internalType": "uint40",
                  "name": "end",
                  "type": "uint40"
                },
                {
                  "internalType": "uint256",
                  "name": "lienId",
                  "type": "uint256"
                }
              ],
              "internalType": "struct ILienToken.Point",
              "name": "point",
              "type": "tuple"
            }
          ],
          "internalType": "struct ILienToken.Stack[]",
          "name": "newStack",
          "type": "tuple[]"
        },
        {
          "internalType": "uint256",
          "name": "lienSlope",
          "type": "uint256"
        }
      ],
      "stateMutability": "nonpayable",
      "type": "function"
    },
    {
      "inputs": [
        {
          "components": [
            {
              "internalType": "enum ILienToken.FileType",
              "name": "what",
              "type": "uint8"
            },
            {
              "internalType": "bytes",
              "name": "data",
              "type": "bytes"
            }
          ],
          "internalType": "struct ILienToken.File",
          "name": "incoming",
          "type": "tuple"
        }
      ],
      "name": "file",
      "outputs": [],
      "stateMutability": "nonpayable",
      "type": "function"
    },
    {
      "inputs": [
        {
          "components": [
            {
              "components": [
                {
                  "internalType": "uint8",
                  "name": "collateralType",
                  "type": "uint8"
                },
                {
                  "internalType": "address",
                  "name": "token",
                  "type": "address"
                },
                {
                  "internalType": "address",
                  "name": "vault",
                  "type": "address"
                },
                {
                  "internalType": "bytes32",
                  "name": "strategyRoot",
                  "type": "bytes32"
                },
                {
                  "internalType": "uint256",
                  "name": "collateralId",
                  "type": "uint256"
                },
                {
                  "components": [
                    {
                      "internalType": "uint256",
                      "name": "maxAmount",
                      "type": "uint256"
                    },
                    {
                      "internalType": "uint256",
                      "name": "rate",
                      "type": "uint256"
                    },
                    {
                      "internalType": "uint256",
                      "name": "duration",
                      "type": "uint256"
                    },
                    {
                      "internalType": "uint256",
                      "name": "maxPotentialDebt",
                      "type": "uint256"
                    },
                    {
                      "internalType": "uint256",
                      "name": "liquidationInitialAsk",
                      "type": "uint256"
                    }
                  ],
                  "internalType": "struct ILienToken.Details",
                  "name": "details",
                  "type": "tuple"
                }
              ],
              "internalType": "struct ILienToken.Lien",
              "name": "lien",
              "type": "tuple"
            },
            {
              "components": [
                {
                  "internalType": "uint88",
                  "name": "amount",
                  "type": "uint88"
                },
                {
                  "internalType": "uint40",
                  "name": "last",
                  "type": "uint40"
                },
                {
                  "internalType": "uint40",
                  "name": "end",
                  "type": "uint40"
                },
                {
                  "internalType": "uint256",
                  "name": "lienId",
                  "type": "uint256"
                }
              ],
              "internalType": "struct ILienToken.Point",
              "name": "point",
              "type": "tuple"
            }
          ],
          "internalType": "struct ILienToken.Stack",
          "name": "stack",
          "type": "tuple"
        }
      ],
      "name": "getAmountOwingAtLiquidation",
      "outputs": [
        {
          "internalType": "uint256",
          "name": "",
          "type": "uint256"
        }
      ],
      "stateMutability": "view",
      "type": "function"
    },
    {
      "inputs": [
        {
          "internalType": "uint256",
          "name": "tokenId",
          "type": "uint256"
        }
      ],
      "name": "getApproved",
      "outputs": [
        {
          "internalType": "address",
          "name": "",
          "type": "address"
        }
      ],
      "stateMutability": "view",
      "type": "function"
    },
    {
      "inputs": [
        {
          "internalType": "uint256",
          "name": "collateralId",
          "type": "uint256"
        }
      ],
      "name": "getAuctionData",
      "outputs": [
        {
          "components": [
            {
              "internalType": "uint88",
              "name": "startAmount",
              "type": "uint88"
            },
            {
              "internalType": "uint88",
              "name": "endAmount",
              "type": "uint88"
            },
            {
              "internalType": "uint48",
              "name": "startTime",
              "type": "uint48"
            },
            {
              "internalType": "uint48",
              "name": "endTime",
              "type": "uint48"
            },
            {
              "internalType": "address",
              "name": "liquidator",
              "type": "address"
            },
            {
              "components": [
                {
                  "internalType": "uint256",
                  "name": "lienId",
                  "type": "uint256"
                },
                {
                  "internalType": "uint88",
                  "name": "amountOwed",
                  "type": "uint88"
                },
                {
                  "internalType": "uint40",
                  "name": "end",
                  "type": "uint40"
                }
              ],
              "internalType": "struct ILienToken.AuctionStack[]",
              "name": "stack",
              "type": "tuple[]"
            }
          ],
          "internalType": "struct ILienToken.AuctionData",
          "name": "",
          "type": "tuple"
        }
      ],
      "stateMutability": "view",
      "type": "function"
    },
    {
      "inputs": [
        {
          "internalType": "uint256",
          "name": "collateralId",
          "type": "uint256"
        }
      ],
      "name": "getAuctionLiquidator",
      "outputs": [
        {
          "internalType": "address",
          "name": "liquidator",
          "type": "address"
        }
      ],
      "stateMutability": "view",
      "type": "function"
    },
    {
      "inputs": [
        {
          "components": [
            {
              "components": [
                {
                  "internalType": "uint8",
                  "name": "collateralType",
                  "type": "uint8"
                },
                {
                  "internalType": "address",
                  "name": "token",
                  "type": "address"
                },
                {
                  "internalType": "address",
                  "name": "vault",
                  "type": "address"
                },
                {
                  "internalType": "bytes32",
                  "name": "strategyRoot",
                  "type": "bytes32"
                },
                {
                  "internalType": "uint256",
                  "name": "collateralId",
                  "type": "uint256"
                },
                {
                  "components": [
                    {
                      "internalType": "uint256",
                      "name": "maxAmount",
                      "type": "uint256"
                    },
                    {
                      "internalType": "uint256",
                      "name": "rate",
                      "type": "uint256"
                    },
                    {
                      "internalType": "uint256",
                      "name": "duration",
                      "type": "uint256"
                    },
                    {
                      "internalType": "uint256",
                      "name": "maxPotentialDebt",
                      "type": "uint256"
                    },
                    {
                      "internalType": "uint256",
                      "name": "liquidationInitialAsk",
                      "type": "uint256"
                    }
                  ],
                  "internalType": "struct ILienToken.Details",
                  "name": "details",
                  "type": "tuple"
                }
              ],
              "internalType": "struct ILienToken.Lien",
              "name": "lien",
              "type": "tuple"
            },
            {
              "components": [
                {
                  "internalType": "uint88",
                  "name": "amount",
                  "type": "uint88"
                },
                {
                  "internalType": "uint40",
                  "name": "last",
                  "type": "uint40"
                },
                {
                  "internalType": "uint40",
                  "name": "end",
                  "type": "uint40"
                },
                {
                  "internalType": "uint256",
                  "name": "lienId",
                  "type": "uint256"
                }
              ],
              "internalType": "struct ILienToken.Point",
              "name": "point",
              "type": "tuple"
            }
          ],
          "internalType": "struct ILienToken.Stack",
          "name": "stack",
          "type": "tuple"
        }
      ],
      "name": "getBuyout",
      "outputs": [
        {
          "internalType": "uint256",
          "name": "owed",
          "type": "uint256"
        },
        {
          "internalType": "uint256",
          "name": "buyout",
          "type": "uint256"
        }
      ],
      "stateMutability": "view",
      "type": "function"
    },
    {
      "inputs": [
        {
          "internalType": "uint256",
          "name": "collateralId",
          "type": "uint256"
        }
      ],
      "name": "getCollateralState",
      "outputs": [
        {
          "internalType": "bytes32",
          "name": "",
          "type": "bytes32"
        }
      ],
      "stateMutability": "view",
      "type": "function"
    },
    {
      "inputs": [
        {
          "components": [
            {
              "components": [
                {
                  "internalType": "uint8",
                  "name": "collateralType",
                  "type": "uint8"
                },
                {
                  "internalType": "address",
                  "name": "token",
                  "type": "address"
                },
                {
                  "internalType": "address",
                  "name": "vault",
                  "type": "address"
                },
                {
                  "internalType": "bytes32",
                  "name": "strategyRoot",
                  "type": "bytes32"
                },
                {
                  "internalType": "uint256",
                  "name": "collateralId",
                  "type": "uint256"
                },
                {
                  "components": [
                    {
                      "internalType": "uint256",
                      "name": "maxAmount",
                      "type": "uint256"
                    },
                    {
                      "internalType": "uint256",
                      "name": "rate",
                      "type": "uint256"
                    },
                    {
                      "internalType": "uint256",
                      "name": "duration",
                      "type": "uint256"
                    },
                    {
                      "internalType": "uint256",
                      "name": "maxPotentialDebt",
                      "type": "uint256"
                    },
                    {
                      "internalType": "uint256",
                      "name": "liquidationInitialAsk",
                      "type": "uint256"
                    }
                  ],
                  "internalType": "struct ILienToken.Details",
                  "name": "details",
                  "type": "tuple"
                }
              ],
              "internalType": "struct ILienToken.Lien",
              "name": "lien",
              "type": "tuple"
            },
            {
              "components": [
                {
                  "internalType": "uint88",
                  "name": "amount",
                  "type": "uint88"
                },
                {
                  "internalType": "uint40",
                  "name": "last",
                  "type": "uint40"
                },
                {
                  "internalType": "uint40",
                  "name": "end",
                  "type": "uint40"
                },
                {
                  "internalType": "uint256",
                  "name": "lienId",
                  "type": "uint256"
                }
              ],
              "internalType": "struct ILienToken.Point",
              "name": "point",
              "type": "tuple"
            }
          ],
          "internalType": "struct ILienToken.Stack",
          "name": "stack",
          "type": "tuple"
        }
      ],
      "name": "getInterest",
      "outputs": [
        {
          "internalType": "uint256",
          "name": "",
          "type": "uint256"
        }
      ],
      "stateMutability": "view",
      "type": "function"
    },
    {
      "inputs": [
        {
          "components": [
            {
              "components": [
                {
                  "internalType": "uint8",
                  "name": "collateralType",
                  "type": "uint8"
                },
                {
                  "internalType": "address",
                  "name": "token",
                  "type": "address"
                },
                {
                  "internalType": "address",
                  "name": "vault",
                  "type": "address"
                },
                {
                  "internalType": "bytes32",
                  "name": "strategyRoot",
                  "type": "bytes32"
                },
                {
                  "internalType": "uint256",
                  "name": "collateralId",
                  "type": "uint256"
                },
                {
                  "components": [
                    {
                      "internalType": "uint256",
                      "name": "maxAmount",
                      "type": "uint256"
                    },
                    {
                      "internalType": "uint256",
                      "name": "rate",
                      "type": "uint256"
                    },
                    {
                      "internalType": "uint256",
                      "name": "duration",
                      "type": "uint256"
                    },
                    {
                      "internalType": "uint256",
                      "name": "maxPotentialDebt",
                      "type": "uint256"
                    },
                    {
                      "internalType": "uint256",
                      "name": "liquidationInitialAsk",
                      "type": "uint256"
                    }
                  ],
                  "internalType": "struct ILienToken.Details",
                  "name": "details",
                  "type": "tuple"
                }
              ],
              "internalType": "struct ILienToken.Lien",
              "name": "lien",
              "type": "tuple"
            },
            {
              "components": [
                {
                  "internalType": "uint88",
                  "name": "amount",
                  "type": "uint88"
                },
                {
                  "internalType": "uint40",
                  "name": "last",
                  "type": "uint40"
                },
                {
                  "internalType": "uint40",
                  "name": "end",
                  "type": "uint40"
                },
                {
                  "internalType": "uint256",
                  "name": "lienId",
                  "type": "uint256"
                }
              ],
              "internalType": "struct ILienToken.Point",
              "name": "point",
              "type": "tuple"
            }
          ],
          "internalType": "struct ILienToken.Stack[]",
          "name": "stack",
          "type": "tuple[]"
        },
        {
          "internalType": "uint256",
          "name": "end",
          "type": "uint256"
        }
      ],
      "name": "getMaxPotentialDebtForCollateral",
      "outputs": [
        {
          "internalType": "uint256",
          "name": "maxPotentialDebt",
          "type": "uint256"
        }
      ],
      "stateMutability": "view",
      "type": "function"
    },
    {
      "inputs": [
        {
          "components": [
            {
              "components": [
                {
                  "internalType": "uint8",
                  "name": "collateralType",
                  "type": "uint8"
                },
                {
                  "internalType": "address",
                  "name": "token",
                  "type": "address"
                },
                {
                  "internalType": "address",
                  "name": "vault",
                  "type": "address"
                },
                {
                  "internalType": "bytes32",
                  "name": "strategyRoot",
                  "type": "bytes32"
                },
                {
                  "internalType": "uint256",
                  "name": "collateralId",
                  "type": "uint256"
                },
                {
                  "components": [
                    {
                      "internalType": "uint256",
                      "name": "maxAmount",
                      "type": "uint256"
                    },
                    {
                      "internalType": "uint256",
                      "name": "rate",
                      "type": "uint256"
                    },
                    {
                      "internalType": "uint256",
                      "name": "duration",
                      "type": "uint256"
                    },
                    {
                      "internalType": "uint256",
                      "name": "maxPotentialDebt",
                      "type": "uint256"
                    },
                    {
                      "internalType": "uint256",
                      "name": "liquidationInitialAsk",
                      "type": "uint256"
                    }
                  ],
                  "internalType": "struct ILienToken.Details",
                  "name": "details",
                  "type": "tuple"
                }
              ],
              "internalType": "struct ILienToken.Lien",
              "name": "lien",
              "type": "tuple"
            },
            {
              "components": [
                {
                  "internalType": "uint88",
                  "name": "amount",
                  "type": "uint88"
                },
                {
                  "internalType": "uint40",
                  "name": "last",
                  "type": "uint40"
                },
                {
                  "internalType": "uint40",
                  "name": "end",
                  "type": "uint40"
                },
                {
                  "internalType": "uint256",
                  "name": "lienId",
                  "type": "uint256"
                }
              ],
              "internalType": "struct ILienToken.Point",
              "name": "point",
              "type": "tuple"
            }
          ],
          "internalType": "struct ILienToken.Stack[]",
          "name": "stack",
          "type": "tuple[]"
        }
      ],
      "name": "getMaxPotentialDebtForCollateral",
      "outputs": [
        {
          "internalType": "uint256",
          "name": "maxPotentialDebt",
          "type": "uint256"
        }
      ],
      "stateMutability": "view",
      "type": "function"
    },
    {
      "inputs": [
        {
          "components": [
            {
              "components": [
                {
                  "internalType": "uint8",
                  "name": "collateralType",
                  "type": "uint8"
                },
                {
                  "internalType": "address",
                  "name": "token",
                  "type": "address"
                },
                {
                  "internalType": "address",
                  "name": "vault",
                  "type": "address"
                },
                {
                  "internalType": "bytes32",
                  "name": "strategyRoot",
                  "type": "bytes32"
                },
                {
                  "internalType": "uint256",
                  "name": "collateralId",
                  "type": "uint256"
                },
                {
                  "components": [
                    {
                      "internalType": "uint256",
                      "name": "maxAmount",
                      "type": "uint256"
                    },
                    {
                      "internalType": "uint256",
                      "name": "rate",
                      "type": "uint256"
                    },
                    {
                      "internalType": "uint256",
                      "name": "duration",
                      "type": "uint256"
                    },
                    {
                      "internalType": "uint256",
                      "name": "maxPotentialDebt",
                      "type": "uint256"
                    },
                    {
                      "internalType": "uint256",
                      "name": "liquidationInitialAsk",
                      "type": "uint256"
                    }
                  ],
                  "internalType": "struct ILienToken.Details",
                  "name": "details",
                  "type": "tuple"
                }
              ],
              "internalType": "struct ILienToken.Lien",
              "name": "lien",
              "type": "tuple"
            },
            {
              "components": [
                {
                  "internalType": "uint88",
                  "name": "amount",
                  "type": "uint88"
                },
                {
                  "internalType": "uint40",
                  "name": "last",
                  "type": "uint40"
                },
                {
                  "internalType": "uint40",
                  "name": "end",
                  "type": "uint40"
                },
                {
                  "internalType": "uint256",
                  "name": "lienId",
                  "type": "uint256"
                }
              ],
              "internalType": "struct ILienToken.Point",
              "name": "point",
              "type": "tuple"
            }
          ],
          "internalType": "struct ILienToken.Stack",
          "name": "stack",
          "type": "tuple"
        }
      ],
      "name": "getOwed",
      "outputs": [
        {
          "internalType": "uint88",
          "name": "",
          "type": "uint88"
        }
      ],
      "stateMutability": "view",
      "type": "function"
    },
    {
      "inputs": [
        {
          "components": [
            {
              "components": [
                {
                  "internalType": "uint8",
                  "name": "collateralType",
                  "type": "uint8"
                },
                {
                  "internalType": "address",
                  "name": "token",
                  "type": "address"
                },
                {
                  "internalType": "address",
                  "name": "vault",
                  "type": "address"
                },
                {
                  "internalType": "bytes32",
                  "name": "strategyRoot",
                  "type": "bytes32"
                },
                {
                  "internalType": "uint256",
                  "name": "collateralId",
                  "type": "uint256"
                },
                {
                  "components": [
                    {
                      "internalType": "uint256",
                      "name": "maxAmount",
                      "type": "uint256"
                    },
                    {
                      "internalType": "uint256",
                      "name": "rate",
                      "type": "uint256"
                    },
                    {
                      "internalType": "uint256",
                      "name": "duration",
                      "type": "uint256"
                    },
                    {
                      "internalType": "uint256",
                      "name": "maxPotentialDebt",
                      "type": "uint256"
                    },
                    {
                      "internalType": "uint256",
                      "name": "liquidationInitialAsk",
                      "type": "uint256"
                    }
                  ],
                  "internalType": "struct ILienToken.Details",
                  "name": "details",
                  "type": "tuple"
                }
              ],
              "internalType": "struct ILienToken.Lien",
              "name": "lien",
              "type": "tuple"
            },
            {
              "components": [
                {
                  "internalType": "uint88",
                  "name": "amount",
                  "type": "uint88"
                },
                {
                  "internalType": "uint40",
                  "name": "last",
                  "type": "uint40"
                },
                {
                  "internalType": "uint40",
                  "name": "end",
                  "type": "uint40"
                },
                {
                  "internalType": "uint256",
                  "name": "lienId",
                  "type": "uint256"
                }
              ],
              "internalType": "struct ILienToken.Point",
              "name": "point",
              "type": "tuple"
            }
          ],
          "internalType": "struct ILienToken.Stack",
          "name": "stack",
          "type": "tuple"
        },
        {
          "internalType": "uint256",
          "name": "timestamp",
          "type": "uint256"
        }
      ],
      "name": "getOwed",
      "outputs": [
        {
          "internalType": "uint88",
          "name": "",
          "type": "uint88"
        }
      ],
      "stateMutability": "view",
      "type": "function"
    },
    {
      "inputs": [
        {
          "internalType": "uint256",
          "name": "lienId",
          "type": "uint256"
        }
      ],
      "name": "getPayee",
      "outputs": [
        {
          "internalType": "address",
          "name": "",
          "type": "address"
        }
      ],
      "stateMutability": "view",
      "type": "function"
    },
    {
      "inputs": [
        {
          "internalType": "contract Authority",
          "name": "_AUTHORITY",
          "type": "address"
        },
        {
          "internalType": "contract ITransferProxy",
          "name": "_TRANSFER_PROXY",
          "type": "address"
        }
      ],
      "name": "initialize",
      "outputs": [],
      "stateMutability": "nonpayable",
      "type": "function"
    },
    {
      "inputs": [
        {
          "internalType": "address",
          "name": "owner",
          "type": "address"
        },
        {
          "internalType": "address",
          "name": "operator",
          "type": "address"
        }
      ],
      "name": "isApprovedForAll",
      "outputs": [
        {
          "internalType": "bool",
          "name": "",
          "type": "bool"
        }
      ],
      "stateMutability": "view",
      "type": "function"
    },
    {
      "inputs": [
        {
          "internalType": "uint256",
          "name": "collateralId",
          "type": "uint256"
        },
        {
          "components": [
            {
              "components": [
                {
                  "internalType": "uint8",
                  "name": "collateralType",
                  "type": "uint8"
                },
                {
                  "internalType": "address",
                  "name": "token",
                  "type": "address"
                },
                {
                  "internalType": "address",
                  "name": "vault",
                  "type": "address"
                },
                {
                  "internalType": "bytes32",
                  "name": "strategyRoot",
                  "type": "bytes32"
                },
                {
                  "internalType": "uint256",
                  "name": "collateralId",
                  "type": "uint256"
                },
                {
                  "components": [
                    {
                      "internalType": "uint256",
                      "name": "maxAmount",
                      "type": "uint256"
                    },
                    {
                      "internalType": "uint256",
                      "name": "rate",
                      "type": "uint256"
                    },
                    {
                      "internalType": "uint256",
                      "name": "duration",
                      "type": "uint256"
                    },
                    {
                      "internalType": "uint256",
                      "name": "maxPotentialDebt",
                      "type": "uint256"
                    },
                    {
                      "internalType": "uint256",
                      "name": "liquidationInitialAsk",
                      "type": "uint256"
                    }
                  ],
                  "internalType": "struct ILienToken.Details",
                  "name": "details",
                  "type": "tuple"
                }
              ],
              "internalType": "struct ILienToken.Lien",
              "name": "lien",
              "type": "tuple"
            },
            {
              "components": [
                {
                  "internalType": "uint88",
                  "name": "amount",
                  "type": "uint88"
                },
                {
                  "internalType": "uint40",
                  "name": "last",
                  "type": "uint40"
                },
                {
                  "internalType": "uint40",
                  "name": "end",
                  "type": "uint40"
                },
                {
                  "internalType": "uint256",
                  "name": "lienId",
                  "type": "uint256"
                }
              ],
              "internalType": "struct ILienToken.Point",
              "name": "point",
              "type": "tuple"
            }
          ],
          "internalType": "struct ILienToken.Stack[]",
          "name": "stack",
          "type": "tuple[]"
        },
        {
          "internalType": "uint256",
          "name": "amount",
          "type": "uint256"
        }
      ],
      "name": "makePayment",
      "outputs": [
        {
          "components": [
            {
              "components": [
                {
                  "internalType": "uint8",
                  "name": "collateralType",
                  "type": "uint8"
                },
                {
                  "internalType": "address",
                  "name": "token",
                  "type": "address"
                },
                {
                  "internalType": "address",
                  "name": "vault",
                  "type": "address"
                },
                {
                  "internalType": "bytes32",
                  "name": "strategyRoot",
                  "type": "bytes32"
                },
                {
                  "internalType": "uint256",
                  "name": "collateralId",
                  "type": "uint256"
                },
                {
                  "components": [
                    {
                      "internalType": "uint256",
                      "name": "maxAmount",
                      "type": "uint256"
                    },
                    {
                      "internalType": "uint256",
                      "name": "rate",
                      "type": "uint256"
                    },
                    {
                      "internalType": "uint256",
                      "name": "duration",
                      "type": "uint256"
                    },
                    {
                      "internalType": "uint256",
                      "name": "maxPotentialDebt",
                      "type": "uint256"
                    },
                    {
                      "internalType": "uint256",
                      "name": "liquidationInitialAsk",
                      "type": "uint256"
                    }
                  ],
                  "internalType": "struct ILienToken.Details",
                  "name": "details",
                  "type": "tuple"
                }
              ],
              "internalType": "struct ILienToken.Lien",
              "name": "lien",
              "type": "tuple"
            },
            {
              "components": [
                {
                  "internalType": "uint88",
                  "name": "amount",
                  "type": "uint88"
                },
                {
                  "internalType": "uint40",
                  "name": "last",
                  "type": "uint40"
                },
                {
                  "internalType": "uint40",
                  "name": "end",
                  "type": "uint40"
                },
                {
                  "internalType": "uint256",
                  "name": "lienId",
                  "type": "uint256"
                }
              ],
              "internalType": "struct ILienToken.Point",
              "name": "point",
              "type": "tuple"
            }
          ],
          "internalType": "struct ILienToken.Stack[]",
          "name": "newStack",
          "type": "tuple[]"
        }
      ],
      "stateMutability": "nonpayable",
      "type": "function"
    },
    {
      "inputs": [
        {
          "internalType": "uint256",
          "name": "collateralId",
          "type": "uint256"
        },
        {
          "components": [
            {
              "components": [
                {
                  "internalType": "uint8",
                  "name": "collateralType",
                  "type": "uint8"
                },
                {
                  "internalType": "address",
                  "name": "token",
                  "type": "address"
                },
                {
                  "internalType": "address",
                  "name": "vault",
                  "type": "address"
                },
                {
                  "internalType": "bytes32",
                  "name": "strategyRoot",
                  "type": "bytes32"
                },
                {
                  "internalType": "uint256",
                  "name": "collateralId",
                  "type": "uint256"
                },
                {
                  "components": [
                    {
                      "internalType": "uint256",
                      "name": "maxAmount",
                      "type": "uint256"
                    },
                    {
                      "internalType": "uint256",
                      "name": "rate",
                      "type": "uint256"
                    },
                    {
                      "internalType": "uint256",
                      "name": "duration",
                      "type": "uint256"
                    },
                    {
                      "internalType": "uint256",
                      "name": "maxPotentialDebt",
                      "type": "uint256"
                    },
                    {
                      "internalType": "uint256",
                      "name": "liquidationInitialAsk",
                      "type": "uint256"
                    }
                  ],
                  "internalType": "struct ILienToken.Details",
                  "name": "details",
                  "type": "tuple"
                }
              ],
              "internalType": "struct ILienToken.Lien",
              "name": "lien",
              "type": "tuple"
            },
            {
              "components": [
                {
                  "internalType": "uint88",
                  "name": "amount",
                  "type": "uint88"
                },
                {
                  "internalType": "uint40",
                  "name": "last",
                  "type": "uint40"
                },
                {
                  "internalType": "uint40",
                  "name": "end",
                  "type": "uint40"
                },
                {
                  "internalType": "uint256",
                  "name": "lienId",
                  "type": "uint256"
                }
              ],
              "internalType": "struct ILienToken.Point",
              "name": "point",
              "type": "tuple"
            }
          ],
          "internalType": "struct ILienToken.Stack[]",
          "name": "stack",
          "type": "tuple[]"
        },
        {
          "internalType": "uint8",
          "name": "position",
          "type": "uint8"
        },
        {
          "internalType": "uint256",
          "name": "amount",
          "type": "uint256"
        }
      ],
      "name": "makePayment",
      "outputs": [
        {
          "components": [
            {
              "components": [
                {
                  "internalType": "uint8",
                  "name": "collateralType",
                  "type": "uint8"
                },
                {
                  "internalType": "address",
                  "name": "token",
                  "type": "address"
                },
                {
                  "internalType": "address",
                  "name": "vault",
                  "type": "address"
                },
                {
                  "internalType": "bytes32",
                  "name": "strategyRoot",
                  "type": "bytes32"
                },
                {
                  "internalType": "uint256",
                  "name": "collateralId",
                  "type": "uint256"
                },
                {
                  "components": [
                    {
                      "internalType": "uint256",
                      "name": "maxAmount",
                      "type": "uint256"
                    },
                    {
                      "internalType": "uint256",
                      "name": "rate",
                      "type": "uint256"
                    },
                    {
                      "internalType": "uint256",
                      "name": "duration",
                      "type": "uint256"
                    },
                    {
                      "internalType": "uint256",
                      "name": "maxPotentialDebt",
                      "type": "uint256"
                    },
                    {
                      "internalType": "uint256",
                      "name": "liquidationInitialAsk",
                      "type": "uint256"
                    }
                  ],
                  "internalType": "struct ILienToken.Details",
                  "name": "details",
                  "type": "tuple"
                }
              ],
              "internalType": "struct ILienToken.Lien",
              "name": "lien",
              "type": "tuple"
            },
            {
              "components": [
                {
                  "internalType": "uint88",
                  "name": "amount",
                  "type": "uint88"
                },
                {
                  "internalType": "uint40",
                  "name": "last",
                  "type": "uint40"
                },
                {
                  "internalType": "uint40",
                  "name": "end",
                  "type": "uint40"
                },
                {
                  "internalType": "uint256",
                  "name": "lienId",
                  "type": "uint256"
                }
              ],
              "internalType": "struct ILienToken.Point",
              "name": "point",
              "type": "tuple"
            }
          ],
          "internalType": "struct ILienToken.Stack[]",
          "name": "newStack",
          "type": "tuple[]"
        }
      ],
      "stateMutability": "nonpayable",
      "type": "function"
    },
    {
      "inputs": [],
      "name": "name",
      "outputs": [
        {
          "internalType": "string",
          "name": "",
          "type": "string"
        }
      ],
      "stateMutability": "view",
      "type": "function"
    },
    {
      "inputs": [],
      "name": "owner",
      "outputs": [
        {
          "internalType": "address",
          "name": "",
          "type": "address"
        }
      ],
      "stateMutability": "view",
      "type": "function"
    },
    {
      "inputs": [
        {
          "internalType": "uint256",
          "name": "id",
          "type": "uint256"
        }
      ],
      "name": "ownerOf",
      "outputs": [
        {
          "internalType": "address",
          "name": "owner",
          "type": "address"
        }
      ],
      "stateMutability": "view",
      "type": "function"
    },
    {
      "inputs": [
        {
          "internalType": "address",
          "name": "token",
          "type": "address"
        },
        {
          "internalType": "uint256",
          "name": "collateralId",
          "type": "uint256"
        },
        {
          "internalType": "uint256",
          "name": "payment",
          "type": "uint256"
        },
        {
          "components": [
            {
              "internalType": "uint256",
              "name": "lienId",
              "type": "uint256"
            },
            {
              "internalType": "uint88",
              "name": "amountOwed",
              "type": "uint88"
            },
            {
              "internalType": "uint40",
              "name": "end",
              "type": "uint40"
            }
          ],
          "internalType": "struct ILienToken.AuctionStack[]",
          "name": "auctionStack",
          "type": "tuple[]"
        }
      ],
      "name": "payDebtViaClearingHouse",
      "outputs": [],
      "stateMutability": "nonpayable",
      "type": "function"
    },
    {
      "inputs": [
        {
          "internalType": "address",
          "name": "from",
          "type": "address"
        },
        {
          "internalType": "address",
          "name": "to",
          "type": "address"
        },
        {
          "internalType": "uint256",
          "name": "id",
          "type": "uint256"
        }
      ],
      "name": "safeTransferFrom",
      "outputs": [],
      "stateMutability": "nonpayable",
      "type": "function"
    },
    {
      "inputs": [
        {
          "internalType": "address",
          "name": "from",
          "type": "address"
        },
        {
          "internalType": "address",
          "name": "to",
          "type": "address"
        },
        {
          "internalType": "uint256",
          "name": "id",
          "type": "uint256"
        },
        {
          "internalType": "bytes",
          "name": "data",
          "type": "bytes"
        }
      ],
      "name": "safeTransferFrom",
      "outputs": [],
      "stateMutability": "nonpayable",
      "type": "function"
    },
    {
      "inputs": [
        {
          "internalType": "address",
          "name": "operator",
          "type": "address"
        },
        {
          "internalType": "bool",
          "name": "approved",
          "type": "bool"
        }
      ],
      "name": "setApprovalForAll",
      "outputs": [],
      "stateMutability": "nonpayable",
      "type": "function"
    },
    {
      "inputs": [
        {
          "internalType": "contract Authority",
          "name": "newAuthority",
          "type": "address"
        }
      ],
      "name": "setAuthority",
      "outputs": [],
      "stateMutability": "nonpayable",
      "type": "function"
    },
    {
      "inputs": [
        {
          "internalType": "uint256",
          "name": "collateralId",
          "type": "uint256"
        },
        {
          "internalType": "uint256",
          "name": "auctionWindow",
          "type": "uint256"
        },
        {
          "components": [
            {
              "components": [
                {
                  "internalType": "uint8",
                  "name": "collateralType",
                  "type": "uint8"
                },
                {
                  "internalType": "address",
                  "name": "token",
                  "type": "address"
                },
                {
                  "internalType": "address",
                  "name": "vault",
                  "type": "address"
                },
                {
                  "internalType": "bytes32",
                  "name": "strategyRoot",
                  "type": "bytes32"
                },
                {
                  "internalType": "uint256",
                  "name": "collateralId",
                  "type": "uint256"
                },
                {
                  "components": [
                    {
                      "internalType": "uint256",
                      "name": "maxAmount",
                      "type": "uint256"
                    },
                    {
                      "internalType": "uint256",
                      "name": "rate",
                      "type": "uint256"
                    },
                    {
                      "internalType": "uint256",
                      "name": "duration",
                      "type": "uint256"
                    },
                    {
                      "internalType": "uint256",
                      "name": "maxPotentialDebt",
                      "type": "uint256"
                    },
                    {
                      "internalType": "uint256",
                      "name": "liquidationInitialAsk",
                      "type": "uint256"
                    }
                  ],
                  "internalType": "struct ILienToken.Details",
                  "name": "details",
                  "type": "tuple"
                }
              ],
              "internalType": "struct ILienToken.Lien",
              "name": "lien",
              "type": "tuple"
            },
            {
              "components": [
                {
                  "internalType": "uint88",
                  "name": "amount",
                  "type": "uint88"
                },
                {
                  "internalType": "uint40",
                  "name": "last",
                  "type": "uint40"
                },
                {
                  "internalType": "uint40",
                  "name": "end",
                  "type": "uint40"
                },
                {
                  "internalType": "uint256",
                  "name": "lienId",
                  "type": "uint256"
                }
              ],
              "internalType": "struct ILienToken.Point",
              "name": "point",
              "type": "tuple"
            }
          ],
          "internalType": "struct ILienToken.Stack[]",
          "name": "stack",
          "type": "tuple[]"
        },
        {
          "internalType": "address",
          "name": "liquidator",
          "type": "address"
        }
      ],
      "name": "stopLiens",
      "outputs": [],
      "stateMutability": "nonpayable",
      "type": "function"
    },
    {
      "inputs": [
        {
          "internalType": "bytes4",
          "name": "interfaceId",
          "type": "bytes4"
        }
      ],
      "name": "supportsInterface",
      "outputs": [
        {
          "internalType": "bool",
          "name": "",
          "type": "bool"
        }
      ],
      "stateMutability": "view",
      "type": "function"
    },
    {
      "inputs": [],
      "name": "symbol",
      "outputs": [
        {
          "internalType": "string",
          "name": "",
          "type": "string"
        }
      ],
      "stateMutability": "view",
      "type": "function"
    },
    {
      "inputs": [
        {
          "internalType": "uint256",
          "name": "tokenId",
          "type": "uint256"
        }
      ],
      "name": "tokenURI",
      "outputs": [
        {
          "internalType": "string",
          "name": "",
          "type": "string"
        }
      ],
      "stateMutability": "view",
      "type": "function"
    },
    {
      "inputs": [
        {
          "internalType": "address",
          "name": "from",
          "type": "address"
        },
        {
          "internalType": "address",
          "name": "to",
          "type": "address"
        },
        {
          "internalType": "uint256",
          "name": "id",
          "type": "uint256"
        }
      ],
      "name": "transferFrom",
      "outputs": [],
      "stateMutability": "nonpayable",
      "type": "function"
    },
    {
      "inputs": [
        {
          "internalType": "address",
          "name": "newOwner",
          "type": "address"
        }
      ],
      "name": "transferOwnership",
      "outputs": [],
      "stateMutability": "nonpayable",
      "type": "function"
    },
    {
      "inputs": [
        {
          "components": [
            {
              "internalType": "uint8",
              "name": "collateralType",
              "type": "uint8"
            },
            {
              "internalType": "address",
              "name": "token",
              "type": "address"
            },
            {
              "internalType": "address",
              "name": "vault",
              "type": "address"
            },
            {
              "internalType": "bytes32",
              "name": "strategyRoot",
              "type": "bytes32"
            },
            {
              "internalType": "uint256",
              "name": "collateralId",
              "type": "uint256"
            },
            {
              "components": [
                {
                  "internalType": "uint256",
                  "name": "maxAmount",
                  "type": "uint256"
                },
                {
                  "internalType": "uint256",
                  "name": "rate",
                  "type": "uint256"
                },
                {
                  "internalType": "uint256",
                  "name": "duration",
                  "type": "uint256"
                },
                {
                  "internalType": "uint256",
                  "name": "maxPotentialDebt",
                  "type": "uint256"
                },
                {
                  "internalType": "uint256",
                  "name": "liquidationInitialAsk",
                  "type": "uint256"
                }
              ],
              "internalType": "struct ILienToken.Details",
              "name": "details",
              "type": "tuple"
            }
          ],
          "internalType": "struct ILienToken.Lien",
          "name": "lien",
          "type": "tuple"
        }
      ],
      "name": "validateLien",
      "outputs": [
        {
          "internalType": "uint256",
          "name": "lienId",
          "type": "uint256"
        }
      ],
      "stateMutability": "view",
      "type": "function"
    }
  ],
  "bytecode": {
    "object": "0x60806040523480156200001157600080fd5b506200001c62000022565b62000147565b60006200002e620000ef565b8054909150610100900460ff16156200009d5760405162461bcd60e51b815260206004820152602760248201527f496e697469616c697a61626c653a20636f6e747261637420697320696e697469604482015266616c697a696e6760c81b606482015260840160405180910390fd5b805460ff9081161015620000ec57805460ff191660ff90811782556040519081527f7f26b83ff96e1f2b6a682f133852f6798a09c465da95921460cefb38474024989060200160405180910390a15b50565b6000806200011f60017fe54d104cc32597338d9a7867d41ca0c8fb6144529e0565413f4b3671fc57878562000125565b92915050565b818103818111156200011f57634e487b7160e01b600052601160045260246000fd5b61599b80620001576000396000f3fe608060405234801561001057600080fd5b50600436106102485760003560e01c80636a53691c1161013b578063bf7e214f116100b8578063d4606b701161007c578063d4606b701461055d578063e7c3330114610570578063e985e9c514610583578063f2fde38b14610596578063f5f1f1a7146105a957600080fd5b8063bf7e214f14610509578063c66e79d614610511578063c87b56dd14610524578063cd298f1e14610537578063d13136fd1461054a57600080fd5b80638da5cb5b116100ff5780638da5cb5b146104c057806395d89b41146104c8578063a22cb465146104d0578063b05e52fd146104e3578063b88d4fde146104f657600080fd5b80636a53691c1461046157806370a08231146104745780637a9e5e4b146104875780637da8b5271461049a5780638d265c05146104ad57600080fd5b806342842e0e116101c95780635b2ed2871161018d5780635b2ed287146103d25780636201bcd5146103f35780636352211e1461041357806365b95e0a1461042657806368cd42b81461044e57600080fd5b806342842e0e1461034e57806344f27e3014610361578063485cc955146103815780634a366bc91461039457806359c8fbd6146103a757600080fd5b80631e66036f116102105780631e66036f146102eb5780631ee72026146102fe57806323b872dd14610311578063333f3de8146103245780633398b6371461034657600080fd5b806301ffc9a71461024d57806306fdde0314610275578063081812fc1461028a578063095ea7b3146102b55780631c18a687146102ca575b600080fd5b61026061025b36600461470a565b6105b1565b60405190151581526020015b60405180910390f35b61027d6105dc565b60405161026c919061476d565b61029d610298366004614780565b610674565b6040516001600160a01b03909116815260200161026c565b6102c86102c33660046147ae565b61069b565b005b6102dd6102d8366004614af1565b610796565b60405190815260200161026c565b6102dd6102f9366004614b35565b6108b6565b6102dd61030c366004614b69565b610994565b6102c861031f366004614b82565b6109f2565b610337610332366004614c3b565b610abd565b60405161026c93929190614d75565b61029d610cc6565b6102c861035c366004614b82565b610ce2565b61037461036f366004614780565b610dda565b60405161026c9190614d9e565b6102c861038f366004614e66565b610f17565b6102dd6103a2366004614b69565b6110b5565b6103ba6103b5366004614e9f565b6110cf565b6040516001600160581b03909116815260200161026c565b6103e56103e0366004614ece565b6110e9565b60405161026c929190614f02565b610406610401366004614f6b565b611343565b60405161026c9190614fbd565b61029d610421366004614780565b61145d565b610439610434366004614b69565b6114c6565b6040805192835260208301919091520161026c565b61040661045c366004614fd0565b6114e3565b6102dd61046f366004614780565b611665565b6102dd610482366004615035565b611683565b6102c8610495366004615035565b6116f4565b6102c86104a8366004615052565b6117ef565b6102dd6104bb366004614e9f565b6118a9565b61029d6118d0565b61027d6118e9565b6102c86104de36600461514f565b611901565b6102c86104f1366004614ece565b611984565b6102c861050436600461517d565b611b0a565b61029d611bf2565b61029d61051f366004614780565b611c0e565b61027d610532366004614780565b611c61565b6103ba61054536600461521b565b611ca0565b61029d610558366004614780565b611cc1565b6102dd61056b366004615248565b611cfd565b6102c861057e366004615265565b611d54565b610260610591366004614e66565b611e9e565b6102c86105a4366004615035565b611edb565b61029d611f65565b60006001600160e01b031982166324e714ff60e11b14806105d657506105d682611f81565b92915050565b60606105e6611fcf565b80546105f1906152cf565b80601f016020809104026020016040519081016040528092919081815260200182805461061d906152cf565b801561066a5780601f1061063f5761010080835404028352916020019161066a565b820191906000526020600020905b81548152906001019060200180831161064d57829003601f168201915b5050505050905090565b600061067e611fcf565b60009283526004016020525060409020546001600160a01b031690565b60006106a5611fcf565b60008381526002820160205260409020549091506001600160a01b0316338114806106f557506001600160a01b0381166000908152600583016020908152604080832033845290915290205460ff165b6107375760405162461bcd60e51b815260206004820152600e60248201526d1393d517d055551213d49256915160921b60448201526064015b60405180910390fd5b600083815260048301602052604080822080546001600160a01b0319166001600160a01b0388811691821790925591518693918516917f8c5be1e5ebec7d5bd14f71427d1e84f3dd0314c0f7b2291e5b200ac8c7c3b92591a450505050565b6000826000815181106107ab576107ab615303565b602002602001015160000151608001518360006107c6611ffd565b6000848152600482016020526040902054909150801580156107e85750825115155b1561080957600e60405163683f44bb60e11b815260040161072e919061532f565b801580159061083e575080836040516020016108259190614fbd565b6040516020818303038152906040528051906020012014155b1561085f57600b60405163683f44bb60e11b815260040161072e919061532f565b60005b87518110156108ab5761088e88828151811061088057610880615303565b60200260200101518861202b565b6108a1906001600160581b03168761535f565b9550600101610862565b505050505092915050565b6000816000815181106108cb576108cb615303565b602002602001015160000151608001518260006108e6611ffd565b6000848152600482016020526040902054909150801580156109085750825115155b1561092957600e60405163683f44bb60e11b815260040161072e919061532f565b801580159061095e575080836040516020016109459190614fbd565b6040516020818303038152906040528051906020012014155b1561097f57600b60405163683f44bb60e11b815260040161072e919061532f565b61098a86875161204f565b9695505050505050565b600061099e611ffd565b608083013560009081526005919091016020526040902060020180546101a08401359081106109cf576109cf615303565b60009182526020909120600160029092020101546001600160581b031692915050565b60006109fc611ffd565b9050610a0881846120ca565b15610a2957600f60405163683f44bb60e11b815260040161072e919061532f565b6000828152600682016020526040902054600160a01b900460ff1615610a6557600560405163683f44bb60e11b815260040161072e919061532f565b600082815260068201602052604080822080546001600160a01b03191690555183907f22178795f41268ec023f6a5c2fcb5d7098c4aadccddf002ae2cd25d569c20c0d908390a3610ab78484846121b1565b50505050565b600060606000610ad9336000356001600160e01b031916612307565b610af55760405162461bcd60e51b815260040161072e90615372565b83604001516080015184606001516000610b0d611ffd565b600084815260048201602052604090205490915080158015610b2f5750825115155b15610b5057600e60405163683f44bb60e11b815260040161072e919061532f565b8015801590610b8557508083604051602001610b6c9190614fbd565b6040516020818303038152906040528051906020012014155b15610ba657600b60405163683f44bb60e11b815260040161072e919061532f565b6000610bb0611ffd565b9050610bba614637565b610bc4828b6123be565b60608c0151919a509150610bda908390836125e6565b975087604051602001610bed9190614fbd565b60408051601f1981840301815291815281516020928301208c82015160800151600090815260048601909352912055610c25816118a9565b9650888a60400151608001517f0b440aad7aea55ef42eb969d3def7c1c3a3c8444f4d19e18ecaf33a4b5ffb1e38c606001515184604051610c67929190615398565b60405180910390a38960400151608001517e91645657b25a8b16b44338f8bf3de2287a9eeee105bc6dc303632d9dca97888b606001515160018b51604051610cb1939291906153b0565b60405180910390a25050505050509193909250565b6000610cd0611ffd565b600201546001600160a01b0316919050565b610ced8383836109f2565b6001600160a01b0382163b1580610d965750604051630a85bd0160e11b8082523360048301526001600160a01b03858116602484015260448301849052608060648401526000608484015290919084169063150b7a029060a4016020604051808303816000875af1158015610d66573d6000803e3d6000fd5b505050506040513d601f19601f82011682018060405250810190610d8a91906153e1565b6001600160e01b031916145b610dd55760405162461bcd60e51b815260206004820152601060248201526f155394d0519157d49150d2541251539560821b604482015260640161072e565b505050565b6040805160c0810182526000808252602082018190529181018290526060808201839052608082019290925260a0810191909152610e16611ffd565b600083815260059190910160209081526040808320815160c08101835281546001600160581b038082168352600160581b82041682860152600160b01b900465ffffffffffff9081168285015260018301549081166060830152600160301b90046001600160a01b031660808201526002820180548451818702810187019095528085529195929460a0870194939192919084015b82821015610f095760008481526020908190206040805160608101825260028602909201805483526001908101546001600160581b03811684860152600160581b900464ffffffffff16918301919091529083529092019101610eab565b505050915250909392505050565b6000610f2161280c565b8054909150610100900460ff1615808015610f4257508154600160ff909116105b80610f5b5750303b158015610f5b5750815460ff166001145b610fbe5760405162461bcd60e51b815260206004820152602e60248201527f496e697469616c697a61626c653a20636f6e747261637420697320616c72656160448201526d191e481a5b9a5d1a585b1a5e995960921b606482015260840161072e565b815460ff191660011782558015610fdd57815461ff0019166101001782555b610fe7338561283a565b6110366040518060400160405280601281526020017120b9ba30b934b0902634b2b7102a37b5b2b760711b8152506040518060400160405280600381526020016210531560ea1b815250612929565b6000611040611ffd565b6001810180546001600160a01b0387166001600160a01b0319909116179055805460ff19166005179055508015610ab757815461ff0019168255604051600181527f7f26b83ff96e1f2b6a682f133852f6798a09c465da95921460cefb3847402498906020015b60405180910390a150505050565b60006105d66110c936849003840184614e9f565b4261294f565b60006110de8260000151611cfd565b506105d6824261202b565b60606110f3614637565b61110060208401846153fe565b60c0013561111160208501856153fe565b6111209061018081019061541f565b808060200260200160405190810160405280939291908181526020016000905b8282101561116d5761115e6101c08302860136819003810190614e9f565b81526020019060010190611140565b5050505050600061117c611ffd565b60008481526004820160205260409020549091508015801561119e5750825115155b156111bf57600e60405163683f44bb60e11b815260040161072e919061532f565b80158015906111f4575080836040516020016111db9190614fbd565b6040516020818303038152906040528051906020012014155b1561121557600b60405163683f44bb60e11b815260040161072e919061532f565b61122260208801886153fe565b6112319061018081019061541f565b61123e60208a018a615468565b60ff1681811061125057611250615303565b61126c926101a06101c090920201908101915061018001615483565b64ffffffffff16421061129557600860405163683f44bb60e11b815260040161072e919061532f565b600061129f611ffd565b6002810154604051630642194560e41b81523360048201529192506001600160a01b031690636421945090602401602060405180830381865afa1580156112ea573d6000803e3d6000fd5b505050506040513d601f19601f8201168201806040525081019061130e919061549e565b61132b57604051636edaef2f60e11b815260040160405180910390fd5b61133581896129aa565b965096505050505050915091565b6060848484808060200260200160405190810160405280939291908181526020016000905b82821015611395576113866101c08302860136819003810190614e9f565b81526020019060010190611368565b505050505060006113a4611ffd565b6000848152600482016020526040902054909150801580156113c65750825115155b156113e757600e60405163683f44bb60e11b815260040161072e919061532f565b801580159061141c575080836040516020016114039190614fbd565b6040516020818303038152906040528051906020012014155b1561143d57600b60405163683f44bb60e11b815260040161072e919061532f565b611450611448611ffd565b898989613214565b9998505050505050505050565b600080611468611fcf565b600084815260029190910160205260409020546001600160a01b0316915081036114c15760405162461bcd60e51b815260206004820152600a6024820152691393d517d3525395115160b21b604482015260640161072e565b919050565b6000806114da6114d4611ffd565b846132eb565b91509150915091565b6060858585808060200260200160405190810160405280939291908181526020016000905b82821015611535576115266101c08302860136819003810190614e9f565b81526020019060010190611508565b50505050506000611544611ffd565b6000848152600482016020526040902054909150801580156115665750825115155b1561158757600e60405163683f44bb60e11b815260040161072e919061532f565b80158015906115bc575080836040516020016115a39190614fbd565b6040516020818303038152906040528051906020012014155b156115dd57600b60405163683f44bb60e11b815260040161072e919061532f565b60006115e7611ffd565b9050611649818b8b808060200260200160405190810160405280939291908181526020016000905b8282101561163c5761162d6101c08302860136819003810190614e9f565b8152602001906001019061160f565b50505050508a8a336133b1565b509550611657818c88613827565b505050505095945050505050565b600061166f611ffd565b600092835260040160205250604090205490565b60006001600160a01b0382166116ca5760405162461bcd60e51b815260206004820152600c60248201526b5a45524f5f4144445245535360a01b604482015260640161072e565b6116d2611fcf565b6001600160a01b03909216600090815260039290920160205250604090205490565b60006116fe613883565b80549091506001600160a01b03163314806117975750600181015460405163b700961360e01b81526001600160a01b039091169063b70096139061175690339030906001600160e01b031960003516906004016154bb565b602060405180830381865afa158015611773573d6000803e3d6000fd5b505050506040513d601f19601f82011682018060405250810190611797919061549e565b6117a057600080fd5b6001810180546001600160a01b0319166001600160a01b03841690811790915560405133907fa3396fd7f6e0a21b50e5089d2da70d5ac0a3bbbd1f617a93f134b7638998019890600090a35050565b60006117f9611ffd565b600381015460405163db067b4360e01b8152600481018790529192506001600160a01b03169063db067b4390602401602060405180830381865afa158015611845573d6000803e3d6000fd5b505050506040513d601f19601f8201168201806040525081019061186991906154e8565b6001600160a01b0316336001600160a01b03161461188657600080fd5b61189381868533866138b1565b5060009384526004016020525050604081205550565b60208082015151825160a00151909101516000916105d691906001600160581b03166138eb565b60006118da613883565b546001600160a01b0316919050565b60606118f3611fcf565b60010180546105f1906152cf565b8061190a611fcf565b336000818152600592909201602090815260408084206001600160a01b038816808652925292839020805494151560ff199095169490941790935590517f17307eab39ab6107e8899845ad3d59bd9653f200f220920489ca2b5937696c319061197890851515815260200190565b60405180910390a35050565b61199a336000356001600160e01b031916612307565b6119b65760405162461bcd60e51b815260040161072e90615372565b60006119c56020830183615505565b905060006119d66020840184615526565b8080601f0160208091040260200160405190810160405280939291908181526020018383808284376000920182905250939450611a169250611ffd915050565b90506001836002811115611a2c57611a2c615319565b03611a6c5781806020019051810190611a4591906154e8565b6003820180546001600160a01b0319166001600160a01b0392909216919091179055611ad9565b6002836002811115611a8057611a80615319565b03611ac05781806020019051810190611a9991906154e8565b6002820180546001600160a01b0319166001600160a01b0392909216919091179055611ad9565b6040516345f279ab60e01b815260040160405180910390fd5b7f4aa20127da97281124f6c5bf77f293274afb4745d8b41b9c40434f8e51ac7c8183836040516110a792919061556c565b611b158585856109f2565b6001600160a01b0384163b1580611bac5750604051630a85bd0160e11b808252906001600160a01b0386169063150b7a0290611b5d9033908a90899089908990600401615595565b6020604051808303816000875af1158015611b7c573d6000803e3d6000fd5b505050506040513d601f19601f82011682018060405250810190611ba091906153e1565b6001600160e01b031916145b611beb5760405162461bcd60e51b815260206004820152601060248201526f155394d0519157d49150d2541251539560821b604482015260640161072e565b5050505050565b6000611bfc613883565b600101546001600160a01b0316919050565b6000611c18611ffd565b60008381526005919091016020526040902060010154600160301b90046001600160a01b03169050806114c157601060405163683f44bb60e11b815260040161072e919061532f565b6060611c6c82613900565b611c8c5760405163ed15e6cf60e01b81526004810183905260240161072e565b505060408051602081019091526000815290565b6000611caf8360000151611cfd565b50611cba838361202b565b9392505050565b6000611ccc82613900565b611cec57600460405163683f44bb60e11b815260040161072e919061532f565b6105d6611cf7611ffd565b8361392e565b600081604051602001611d1091906155e9565b6040516020818303038152906040528051906020012060001c9050611d3481613900565b6114c157600460405163683f44bb60e11b815260040161072e919061532f565b848383808060200260200160405190810160405280939291908181526020016000905b82821015611da457611d956101c08302860136819003810190614e9f565b81526020019060010190611d77565b50505050506000611db3611ffd565b600084815260048201602052604090205490915080158015611dd55750825115155b15611df657600e60405163683f44bb60e11b815260040161072e919061532f565b8015801590611e2b57508083604051602001611e129190614fbd565b6040516020818303038152906040528051906020012014155b15611e4c57600b60405163683f44bb60e11b815260040161072e919061532f565b611e62336000356001600160e01b031916612307565b611e7e5760405162461bcd60e51b815260040161072e90615372565b611e93611e89611ffd565b8a8a8a8a8a61397a565b505050505050505050565b6000611ea8611fcf565b6001600160a01b039384166000908152600591909101602090815260408083209490951682529290925250205460ff1690565b611ef1336000356001600160e01b031916612307565b611f0d5760405162461bcd60e51b815260040161072e90615372565b6000611f17613883565b80546001600160a01b0319166001600160a01b03841690811782556040519192509033907f8be0079c531659141344cd1fd0a4f28419497f9722a3daafe3b4186f6b6457e090600090a35050565b6000611f6f611ffd565b600301546001600160a01b0316919050565b60006301ffc9a760e01b6001600160e01b031983161480611fb257506380ac58cd60e01b6001600160e01b03198316145b806105d65750506001600160e01b031916635b5e139f60e01b1490565b6000806105d660017ffc8793c2139a57fdc041f52e5a6e70e2c8f6402d67cb75321c29bc8c4ab736ab6155f8565b6000806105d660017fa99758713b7e86e6ab54e91e4ebd363d15715480a132628bc452a040660f2c5f6155f8565b600061203f61203a848461294f565b613e20565b602084015151611cba919061560b565b6000805b828110156120c3576120a684828151811061207057612070615303565b602002602001015185838151811061208a5761208a615303565b6020026020010151602001516040015164ffffffffff1661202b565b6120b9906001600160581b03168361535f565b9150600101612053565b5092915050565b6002820154604051630642194560e41b81526001600160a01b0383811660048301526000921690636421945090602401602060405180830381865afa158015612117573d6000803e3d6000fd5b505050506040513d601f19601f8201168201806040525081019061213b919061549e565b8015611cba57506040516301ffc9a760e01b8152634e6bf98f60e11b60048201526001600160a01b038316906301ffc9a790602401602060405180830381865afa15801561218d573d6000803e3d6000fd5b505050506040513d601f19601f82011682018060405250810190611cba919061549e565b60006121bb611fcf565b60008381526002820160205260409020549091506001600160a01b038581169116146122165760405162461bcd60e51b815260206004820152600a60248201526957524f4e475f46524f4d60b01b604482015260640161072e565b6001600160a01b0383166122605760405162461bcd60e51b81526020600482015260116024820152701253959053125117d49150d25412515395607a1b604482015260640161072e565b336001600160a01b038516148061229c57506001600160a01b0384166000908152600582016020908152604080832033845290915290205460ff165b806122bf575060008281526004820160205260409020546001600160a01b031633145b6122fc5760405162461bcd60e51b815260206004820152600e60248201526d1393d517d055551213d49256915160921b604482015260640161072e565b610ab7848484613e36565b600080612312613883565b60018101549091506001600160a01b0316801580159061239e575060405163b700961360e01b81526001600160a01b0382169063b70096139061235d908890309089906004016154bb565b602060405180830381865afa15801561237a573d6000803e3d6000fd5b505050506040513d601f19601f8201168201806040525081019061239e919061549e565b806123b5575081546001600160a01b038681169116145b95945050505050565b60006123c8614637565b6040808401516080015160009081526004860160205220546d5f5e55db54dd505f555e55db585960911b0161241357600560405163683f44bb60e11b815260040161072e919061532f565b8251604084015160a001516080015110806124385750604083015160a0015160800151155b1561245957600c60405163683f44bb60e11b815260040161072e919061532f565b6060830151511561251857826060015160008151811061247b5761247b615303565b60200260200101516000015160800151836040015160800151146124b557600160405163683f44bb60e11b815260040161072e919061532f565b82606001516000815181106124cc576124cc615303565b602002602001015160000151602001516001600160a01b03168360400151602001516001600160a01b03161461251857600260405163683f44bb60e11b815260040161072e919061532f565b826040015160405160200161252d91906155e9565b6040516020818303038152906040528051906020012060001c9150600060405180608001604052806125628660000151613e20565b6001600160581b0316815260200161257942613ed8565b64ffffffffff1681526020016125a5866040015160a0015160400151426125a0919061535f565b613ed8565b64ffffffffff1681526020018481525090506125c5846020015184613eec565b604080518082018252908501518152602081019190915290505b9250929050565b8254825160609160ff161161261157600a60405163683f44bb60e11b815260040161072e919061532f565b825161261e90600161535f565b6001600160401b03811115612635576126356147da565b60405190808252806020026020018201604052801561266e57816020015b61265b614637565b8152602001906001900390816126535790505b509050818184518151811061268557612685615303565b602002602001018190525060006126ab8384602001516040015164ffffffffff1661202b565b6001600160581b031690506000845190505b80156127c95760006126d06001836155f8565b90508581815181106126e4576126e4615303565b60200260200101518482815181106126fe576126fe615303565b602002602001018190525083818151811061271b5761271b615303565b6020026020010151602001516040015164ffffffffff16421061275457600860405163683f44bb60e11b815260040161072e919061532f565b61276984828151811061207057612070615303565b6001600160581b03168301925083818151811061278857612788615303565b60200260200101516000015160a00151608001518311156127bf57600d60405163683f44bb60e11b815260040161072e919061532f565b50600019016126bd565b50600084511180156127e35750825160a001516060015181115b1561280457600960405163683f44bb60e11b815260040161072e919061532f565b509392505050565b6000806105d660017fe54d104cc32597338d9a7867d41ca0c8fb6144529e0565413f4b3671fc5787856155f8565b6000612844613883565b80549091506001600160a01b0316156128955760405162461bcd60e51b8152602060048201526013602482015272105b1c9958591e481a5b9a5d1a585b1a5e9959606a1b604482015260640161072e565b80546001600160a01b03199081166001600160a01b0385811691821784556001840180549093169085161790915560405133907f8be0079c531659141344cd1fd0a4f28419497f9722a3daafe3b4186f6b6457e090600090a36040516001600160a01b0383169033907fa3396fd7f6e0a21b50e5089d2da70d5ac0a3bbbd1f617a93f134b7638998019890600090a3505050565b6000612933611fcf565b9050806129408482615679565b5060018101610ab78382615679565b60008083602001516020015164ffffffffff168361296d91906155f8565b90506129a28460200151600001516001600160581b0316856000015160a00151602001518361299c9190615738565b906138eb565b949350505050565b60606129b4614637565b6129d3846129c560208601866153fe565b6129ce9061574f565b6123be565b60028601549092506001600160a01b0316905063e4f40d456129f860208601866153fe565b604001612a086020870187615468565b612a1560208801886153fe565b612a249061018081019061541f565b6040518563ffffffff1660e01b8152600401612a4394939291906157e5565b602060405180830381865afa158015612a60573d6000803e3d6000fd5b505050506040513d601f19601f82011682018060405250810190612a84919061549e565b612aa1576040516369a61bf560e11b815260040160405180910390fd5b6d20a1aa24ab22afa0aaa1aa24a7a760911b600485016000612ac660208701876153fe565b6040016080013581526020019081526020016000205403612afd57600560405163683f44bb60e11b815260040161072e919061532f565b600080612b4b86612b1160208801886153fe565b612b209061018081019061541f565b612b2d60208a018a615468565b60ff16818110612b3f57612b3f615303565b90506101c002016132eb565b909250905081612b5e60208701876153fe565b60e001351015612b9c57612b7560208601866153fe565b60405163f4657c5360e01b815260e09091013560048201526024810183905260440161072e565b600080612bac60208801886153fe565b612bbb9061018081019061541f565b9150505b8015612d5e576000612bd26001836155f8565b9050612be160208901896153fe565b612bf09061018081019061541f565b82818110612c0057612c00615303565b612c1c926101a06101c090920201908101915061018001615483565b64ffffffffff164210612c4557600860405163683f44bb60e11b815260040161072e919061532f565b612cdf612c5560208a018a6153fe565b612c649061018081019061541f565b83818110612c7457612c74615303565b90506101c00201803603810190612c8b9190614e9f565b612c9860208b018b6153fe565b612ca79061018081019061541f565b84818110612cb757612cb7615303565b612cd3926101a06101c090920201908101915061018001615483565b64ffffffffff1661202b565b612cf2906001600160581b03168461535f565b9250612d0160208901896153fe565b612d109061018081019061541f565b82818110612d2057612d20615303565b90506101c0020160000160a00160800135831115612d5457600d60405163683f44bb60e11b815260040161072e919061532f565b5060001901612bbf565b506000612db488612d7260208a018a6153fe565b612d819061018081019061541f565b612d8e60208c018c615468565b60ff16818110612da057612da0615303565b90506101c00201610140016060013561392e565b60018901549091506001600160a01b031663f3913e69612dd760208a018a6153fe565b612de69061018081019061541f565b612df360208c018c615468565b60ff16818110612e0557612e05615303565b612e1f9260406101c0909202019081019150602001615035565b3384876040518563ffffffff1660e01b8152600401612e41949392919061589d565b600060405180830381600087803b158015612e5b57600080fd5b505af1158015612e6f573d6000803e3d6000fd5b50505050612e7d88826120ca565b1561301e57806001600160a01b0316632d4ece9d6040518060600160405280612ef48b8060200190612eaf91906153fe565b612ebe9061018081019061541f565b612ecb60208f018f615468565b60ff16818110612edd57612edd615303565b90506101c002018036038101906104bb9190614e9f565b81526020018a8060200190612f0991906153fe565b612f189061018081019061541f565b612f2560208e018e615468565b60ff16818110612f3757612f37615303565b612f53926101a06101c090920201908101915061018001615483565b64ffffffffff1681526020018a8060200190612f6f91906153fe565b612f7e9061018081019061541f565b612f8b60208e018e615468565b60ff16818110612f9d57612f9d615303565b612fb9926101606101c0909202019081019150610140016158c7565b612fcc906001600160581b0316886155f8565b8152506040518263ffffffff1660e01b8152600401612feb91906158e2565b600060405180830381600087803b15801561300557600080fd5b505af1158015613019573d6000803e3d6000fd5b505050505b6130a48861302f60208a018a6153fe565b61303e9061018081019061541f565b61304b60208c018c615468565b60ff168961305c60208e018e6153fe565b61306b9061018081019061541f565b8e600001602081019061307e9190615468565b60ff1681811061309057613090615303565b90506101c00201610140016060013561400b565b8051909650600090815b818110156131b0576130e58982815181106130cb576130cb615303565b60200260200101518a838151811061208a5761208a615303565b6130f8906001600160581b03168461535f565b925061310760208b018b615468565b60ff1681036131455761311d60208b018b6153fe565b610140013583111561314557600960405163683f44bb60e11b815260040161072e919061532f565b61315260208b018b615468565b60ff1681118015613187575088818151811061317057613170615303565b60200260200101516000015160a001516060015183115b156131a857600960405163683f44bb60e11b815260040161072e919061532f565b6001016130ae565b886040516020016131c19190614fbd565b604051602081830303815290604052805190602001208b60040160008c80602001906131ed91906153fe565b60400160800135815260200190815260200160002081905550505050505050509250929050565b60608383808060200260200160405190810160405280939291908181526020016000905b82821015613265576132566101c08302860136819003810190614e9f565b81526020019060010190613238565b5050505050905060005b81518110156132bf578151600061328988858588336133b1565b909450905061329881866155f8565b9450846000036132a95750506132bf565b818451036132b8578260010192505b505061326f565b506129a285858560008181106132d7576132d7615303565b90506101c002016000016080013583613827565b60008061330661330036859003850185614e9f565b4261202b565b60028501546001600160581b039190911692506001600160a01b031663aaf6b93b61333f8661333a36889003880188614e9f565b6140b2565b6040518263ffffffff1660e01b815260040161335d91815260200190565b602060405180830381865afa15801561337a573d6000803e3d6000fd5b505050506040513d601f19601f8201168201806040525081019061339e9190615903565b6133a8908361535f565b90509250929050565b6060600080868660ff16815181106133cb576133cb615303565b6020908102919091018101518082015160600151600081815260068c01909352604090922054909250600160a01b900460ff161561341f57600560405163683f44bb60e11b815260040161072e919061532f565b60208201516040015164ffffffffff1642811161344f5760405163046c4b6360e51b815260040160405180910390fd5b600061345b844261202b565b6001600160581b0316905060006134718461145d565b9050600061347f8d836120ca565b9050600061348d8e8761392e565b9050838b111561349b57839a505b811561354f57826001600160a01b03166338663c3f60405180606001604052806134c48b6118a9565b81526020018a60200151600001516001600160581b031681526020018a60200151600001516001600160581b0316886134fd91906155f8565b8152506040518263ffffffff1660e01b815260040161351c91906158e2565b600060405180830381600087803b15801561353657600080fd5b505af115801561354a573d6000803e3d6000fd5b505050505b61355884613e20565b60208801516001600160581b03909116905261357342613ed8565b6020808901805164ffffffffff909316929091019190915251516001600160581b03168b1015613638576135a68b613e20565b602088015180516135b890839061591c565b6001600160581b0316905250811561363357826001600160a01b03166359f9556e6135e2896118a9565b6040518263ffffffff1660e01b815260040161360091815260200190565b600060405180830381600087803b15801561361a57600080fd5b505af115801561362e573d6000803e3d6000fd5b505050505b613756565b6020870151516001600160581b03169a5081156137225760405163349f723d60e01b81526001600160401b03861660048201526001600160a01b0384169063f1e9f4f590829063349f723d90602401602060405180830381865afa1580156136a4573d6000803e3d6000fd5b505050506040513d601f19601f820116820180604052508101906136c8919061593c565b6040516001600160e01b031960e084901b1681526001600160401b039091166004820152602401600060405180830381600087803b15801561370957600080fd5b505af115801561371d573d6000803e3d6000fd5b505050505b600086815260068f016020526040902080546001600160a81b0319169055613749866140ff565b6137538d8d6141e2565b9c505b8d60010160009054906101000a90046001600160a01b03166001600160a01b031663f3913e698860000151602001518c848f6040518563ffffffff1660e01b81526004016137a7949392919061589d565b600060405180830381600087803b1580156137c157600080fd5b505af11580156137d5573d6000803e3d6000fd5b50505050857f7c3f93091d6a13e0438473f0d6ba31c52b56b0c08e0220f29ef563a5ab833a0a8c60405161380b91815260200190565b60405180910390a2509a9c989b50979950505050505050505050565b8051600003613846576000828152600484016020526040812055505050565b806040516020016138579190614fbd565b60408051601f198184030181529181528151602092830120600085815260048701909352912055505050565b6000806105d660017f39509ba13edbf55c1c882ff847dd8db4cc4806e85b9952f85673490851bc713b6155f8565b6000805b82518110156138e15760006138ce888886858a8a61435e565b95869003959290920191506001016138b5565b5095945050505050565b6000611cba8383670de0b6b3a76400006145ab565b60008061390b611fcf565b60009384526002016020526040909220546001600160a01b031690911415919050565b60008181526006830160205260408120546001600160a01b031661395a576139558261145d565b611cba565b50600090815260069190910160205260409020546001600160a01b031690565b6040805160c08101825260008082526020820181905291810182905260608082019290925260a08101919091526001600160a01b0382166080820152826001600160401b038111156139ce576139ce6147da565b604051908082528060200260200182016040528015613a1957816020015b60408051606081018252600080825260208083018290529282015282526000199092019101816139ec5790505b5060a08201526000868152600588016020526040812060010180546601000000000000600160d01b031916600160301b6001600160a01b038616021790555b83811015613cb4576040805160608101825260008082526020820181905291810191909152858583818110613a8f57613a8f615303565b6101c002919091016101a00135825250858583818110613ab157613ab1615303565b613acd926101a06101c090920201908101915061018001615483565b64ffffffffff1660408201526000613b07878785818110613af057613af0615303565b90506101c002018036038101906133009190614e9f565b6001600160581b0381166020808501919091528351600090815260068d0190915260409020805460ff60a01b1916600160a01b17905560a08501518051919250839185908110613b5957613b59615303565b60200260200101819052506000613b748b846000015161392e565b9050613b808b826120ca565b15613ca6576000816001600160a01b031663cd12030f8b6040518060600160405280613bb78e8e8c818110612edd57612edd615303565b8152602001876001600160581b031681526020018d8d8b818110613bdd57613bdd615303565b613bf9926101a06101c090920201908101915061018001615483565b64ffffffffff908116909152604080516001600160e01b031960e087901b1681526004810194909452825160248501526020830151604485015291909101511660648201526084016020604051808303816000875af1158015613c60573d6000803e3d6000fd5b505050506040513d601f19601f82011682018060405250810190613c8491906154e8565b90506001600160a01b03811615613ca457613ca48c8560000151836145c9565b505b836001019350505050613a58565b600087815260048901602052604090206d20a1aa24ab22afa0aaa1aa24a7a760911b9055613ce142614625565b65ffffffffffff166040830152613d00613cfb874261535f565b614625565b65ffffffffffff166060830152613d378585600081613d2157613d21615303565b90506101c0020160000160a00160800135613e20565b6001600160581b031682526103e86020830152600388015460405163db067b4360e01b8152600481018990526001600160a01b039091169063db067b4390602401602060405180830381865afa158015613d95573d6000803e3d6000fd5b505050506040513d601f19601f82011682018060405250810190613db991906154e8565b6001600160a01b0316631a82a1cc836040518263ffffffff1660e01b8152600401613de49190614d9e565b600060405180830381600087803b158015613dfe57600080fd5b505af1158015613e12573d6000803e3d6000fd5b505050505050505050505050565b6000600160581b8210613e3257600080fd5b5090565b6000613e40611fcf565b6001600160a01b038086166000818152600384016020908152604080832080546000190190559388168083528483208054600101905587835260028601825284832080546001600160a01b03199081168317909155600487019092528483208054909216909155925193945085937fddf252ad1be2c89b69c2b068fc378daa952ba7f163c4a11628f55a4df523b3ef9190a450505050565b6000650100000000008210613e3257600080fd5b6001600160a01b038216613f365760405162461bcd60e51b81526020600482015260116024820152701253959053125117d49150d25412515395607a1b604482015260640161072e565b6000613f40611fcf565b60008381526002820160205260409020549091506001600160a01b031615613f9b5760405162461bcd60e51b815260206004820152600e60248201526d1053149150511657d3525395115160921b604482015260640161072e565b6001600160a01b03831660008181526003830160209081526040808320805460010190558583526002850190915280822080546001600160a01b0319168417905551849291907fddf252ad1be2c89b69c2b068fc378daa952ba7f163c4a11628f55a4df523b3ef908290a4505050565b60608585808060200260200160405190810160405280939291908181526020016000905b8282101561405c5761404d6101c08302860136819003810190614e9f565b8152602001906001019061402f565b505050505090508281858151811061407657614076615303565b602002602001018190525061408a826140ff565b600091825260069096016020526040902080546001600160a81b031916905550929392505050565b6000804283602001516040015164ffffffffff166140d091906155f8565b90506129a28360200151600001516001600160581b0316846000015160a00151602001518361299c9190615738565b6000614109611fcf565b60008381526002820160205260409020549091506001600160a01b0316806141605760405162461bcd60e51b815260206004820152600a6024820152691393d517d3525395115160b21b604482015260640161072e565b6001600160a01b03811660008181526003840160209081526040808320805460001901905586835260028601825280832080546001600160a01b0319908116909155600487019092528083208054909216909155518592907fddf252ad1be2c89b69c2b068fc378daa952ba7f163c4a11628f55a4df523b3ef908390a4505050565b815160609060ff831681116141f657600080fd5b6142016001826155f8565b6001600160401b03811115614218576142186147da565b60405190808252806020026020018201604052801561425157816020015b61423e614637565b8152602001906001900390816142365790505b50915060005b8360ff168110156142a15784818151811061427457614274615303565b602002602001015183828151811061428e5761428e615303565b6020908102919091010152600101614257565b6142ac6001836155f8565b8110156142f5578481600101815181106142c8576142c8615303565b60200260200101518382815181106142e2576142e2615303565b60209081029190910101526001016142a1565b848460ff168151811061430a5761430a615303565b602002602001015160000151608001517e91645657b25a8b16b44338f8bf3de2287a9eeee105bc6dc303632d9dca9788856002865160405161434e939291906153b0565b60405180910390a2505092915050565b60008085858151811061437357614373615303565b6020026020010151600001519050600086868151811061439557614395615303565b60200260200101516040015164ffffffffff16905060008787815181106143be576143be615303565b6020026020010151602001516001600160581b0316905060006143e18b8561392e565b905060006143ee88613e20565b6001600160581b031683111561440f5761440888846155f8565b9050614413565b8297505b87156144845760018c015460405163f3913e6960e01b81526001600160a01b039091169063f3913e6990614451908e908b9087908e9060040161589d565b600060405180830381600087803b15801561446b57600080fd5b505af115801561447f573d6000803e3d6000fd5b505050505b600085815260068d016020526040902080546001600160a81b031916905589518a908a9081106144b6576144b6615303565b602002602001016144e0604080516060810182526000808252602082018190529181019190915290565b90526144eb856140ff565b6144f58c836120ca565b156145615760408051602081018252828152905163aaed42b760e01b8152905160048201526001600160a01b0383169063aaed42b790602401600060405180830381600087803b15801561454857600080fd5b505af115801561455c573d6000803e3d6000fd5b505050505b847f7c3f93091d6a13e0438473f0d6ba31c52b56b0c08e0220f29ef563a5ab833a0a8960405161459391815260200190565b60405180910390a250959a9950505050505050505050565b60008260001904841183021582026145c257600080fd5b5091020490565b600082815260068401602052604080822080546001600160a01b0319166001600160a01b0385169081179091559051909184917f22178795f41268ec023f6a5c2fcb5d7098c4aadccddf002ae2cd25d569c20c0d9190a3505050565b6000600160301b8210613e3257600080fd5b604051806040016040528061464a614679565b81526040805160808101825260008082526020828101829052928201819052606082015291015290565b905290565b6040518060c00160405280600060ff16815260200160006001600160a01b0316815260200160006001600160a01b0316815260200160008019168152602001600081526020016146746040518060a0016040528060008152602001600081526020016000815260200160008152602001600081525090565b6001600160e01b03198116811461470757600080fd5b50565b60006020828403121561471c57600080fd5b8135611cba816146f1565b6000815180845260005b8181101561474d57602081850181015186830182015201614731565b506000602082860101526020601f19601f83011685010191505092915050565b602081526000611cba6020830184614727565b60006020828403121561479257600080fd5b5035919050565b6001600160a01b038116811461470757600080fd5b600080604083850312156147c157600080fd5b82356147cc81614799565b946020939093013593505050565b634e487b7160e01b600052604160045260246000fd5b60405160c081016001600160401b0381118282101715614812576148126147da565b60405290565b60405160a081016001600160401b0381118282101715614812576148126147da565b604051608081016001600160401b0381118282101715614812576148126147da565b604051606081016001600160401b0381118282101715614812576148126147da565b604051601f8201601f191681016001600160401b03811182821017156148a6576148a66147da565b604052919050565b60006001600160401b038211156148c7576148c76147da565b5060051b60200190565b803560ff811681146114c157600080fd5b60008183036101408112156148f657600080fd5b6148fe6147f0565b9150614909836148d1565b8252602083013561491981614799565b6020830152604083013561492c81614799565b6040830152606083810135908301526080808401359083015260a0609f198201121561495757600080fd5b50614960614818565b60a0830135815260c0830135602082015260e08301356040820152610100830135606082015261012083013560808201528060a08301525092915050565b80356001600160581b03811681146114c157600080fd5b803564ffffffffff811681146114c157600080fd5b60008183036101c08112156149de57600080fd5b604051604081018181106001600160401b0382111715614a0057614a006147da565b604052915081614a1085856148e2565b8152608061013f1983011215614a2557600080fd5b614a2d61483a565b9150614a3c610140850161499e565b8252614a4b61016085016149b5565b6020830152614a5d61018085016149b5565b60408301526101a08401356060830152816020820152505092915050565b600082601f830112614a8c57600080fd5b81356020614aa1614a9c836148ae565b61487e565b8281526101c09283028501820192828201919087851115614ac157600080fd5b8387015b85811015614ae457614ad789826149ca565b8452928401928101614ac5565b5090979650505050505050565b60008060408385031215614b0457600080fd5b82356001600160401b03811115614b1a57600080fd5b614b2685828601614a7b565b95602094909401359450505050565b600060208284031215614b4757600080fd5b81356001600160401b03811115614b5d57600080fd5b6129a284828501614a7b565b60006101c08284031215614b7c57600080fd5b50919050565b600080600060608486031215614b9757600080fd5b8335614ba281614799565b92506020840135614bb281614799565b929592945050506040919091013590565b60006101a08284031215614bd657600080fd5b614bde61483a565b9050813581526020820135614bf281614799565b6020820152614c0483604084016148e2565b60408201526101808201356001600160401b03811115614c2357600080fd5b614c2f84828501614a7b565b60608301525092915050565b600060208284031215614c4d57600080fd5b81356001600160401b03811115614c6357600080fd5b6129a284828501614bc3565b805160ff1682526020808201516001600160a01b039081168285015260408084015190911681850152606080840151818601526080808501518187015260a0948501518051958701959095529284015160c08601529083015160e0850152820151610100840152015161012090910152565b614cec828251614c6f565b60209081015180516001600160581b03166101408401529081015164ffffffffff908116610160840152604082015116610180830152606001516101a090910152565b600081518084526020808501945080840160005b83811015614d6a57614d56878351614ce1565b6101c0969096019590820190600101614d43565b509495945050505050565b838152606060208201526000614d8e6060830185614d2f565b9050826040830152949350505050565b6000602080835260e083016001600160581b03808651168386015282860151604082821681880152808801519150606065ffffffffffff808416828a015280828b01511660808a01525060018060a01b0360808a01511660a089015260a0890151925060c0808901528483518087526101008a0191508785019650600094505b80851015614e58578651805183528881015187168984015284015164ffffffffff1684830152958701956001949094019390820190614e1e565b509998505050505050505050565b60008060408385031215614e7957600080fd5b8235614e8481614799565b91506020830135614e9481614799565b809150509250929050565b60006101c08284031215614eb257600080fd5b611cba83836149ca565b600060408284031215614b7c57600080fd5b600060208284031215614ee057600080fd5b81356001600160401b03811115614ef657600080fd5b6129a284828501614ebc565b60006101e0808352614f1681840186614d2f565b915050611cba6020830184614ce1565b60008083601f840112614f3857600080fd5b5081356001600160401b03811115614f4f57600080fd5b6020830191508360206101c0830285010111156125df57600080fd5b60008060008060608587031215614f8157600080fd5b8435935060208501356001600160401b03811115614f9e57600080fd5b614faa87828801614f26565b9598909750949560400135949350505050565b602081526000611cba6020830184614d2f565b600080600080600060808688031215614fe857600080fd5b8535945060208601356001600160401b0381111561500557600080fd5b61501188828901614f26565b90955093506150249050604087016148d1565b949793965091946060013592915050565b60006020828403121561504757600080fd5b8135611cba81614799565b6000806000806080858703121561506857600080fd5b843561507381614799565b9350602085810135935060408087013593506060808801356001600160401b0381111561509f57600080fd5b8801601f81018a136150b057600080fd5b80356150be614a9c826148ae565b8181529083028201850190858101908c8311156150da57600080fd5b928601925b828410156151305784848e0312156150f75760008081fd5b6150ff61485c565b8435815261510e88860161499e565b8882015261511d8786016149b5565b81880152825292840192908601906150df565b999c989b5096995050505050505050565b801515811461470757600080fd5b6000806040838503121561516257600080fd5b823561516d81614799565b91506020830135614e9481615141565b60008060008060006080868803121561519557600080fd5b85356151a081614799565b945060208601356151b081614799565b93506040860135925060608601356001600160401b03808211156151d357600080fd5b818801915088601f8301126151e757600080fd5b8135818111156151f657600080fd5b89602082850101111561520857600080fd5b9699959850939650602001949392505050565b6000806101e0838503121561522f57600080fd5b61523984846149ca565b946101c0939093013593505050565b6000610140828403121561525b57600080fd5b611cba83836148e2565b60008060008060006080868803121561527d57600080fd5b853594506020860135935060408601356001600160401b038111156152a157600080fd5b6152ad88828901614f26565b90945092505060608601356152c181614799565b809150509295509295909350565b600181811c908216806152e357607f821691505b602082108103614b7c57634e487b7160e01b600052602260045260246000fd5b634e487b7160e01b600052603260045260246000fd5b634e487b7160e01b600052602160045260246000fd5b602081016011831061534357615343615319565b91905290565b634e487b7160e01b600052601160045260246000fd5b808201808211156105d6576105d6615349565b6020808252600c908201526b15539055551213d49256915160a21b604082015260600190565b60ff831681526101e08101611cba6020830184614ce1565b60ff8416815260608101600484106153ca576153ca615319565b83602083015260ff83166040830152949350505050565b6000602082840312156153f357600080fd5b8151611cba816146f1565b6000823561019e1983360301811261541557600080fd5b9190910192915050565b6000808335601e1984360301811261543657600080fd5b8301803591506001600160401b0382111561545057600080fd5b60200191506101c0810236038213156125df57600080fd5b60006020828403121561547a57600080fd5b611cba826148d1565b60006020828403121561549557600080fd5b611cba826149b5565b6000602082840312156154b057600080fd5b8151611cba81615141565b6001600160a01b0393841681529190921660208201526001600160e01b0319909116604082015260600190565b6000602082840312156154fa57600080fd5b8151611cba81614799565b60006020828403121561551757600080fd5b813560038110611cba57600080fd5b6000808335601e1984360301811261553d57600080fd5b8301803591506001600160401b0382111561555757600080fd5b6020019150368190038213156125df57600080fd5b60006003841061557e5761557e615319565b838252604060208301526129a26040830184614727565b6001600160a01b038681168252851660208201526040810184905260806060820181905281018290526000828460a0840137600060a0848401015260a0601f19601f85011683010190509695505050505050565b61014081016105d68284614c6f565b818103818111156105d6576105d6615349565b6001600160581b038181168382160190808211156120c3576120c3615349565b601f821115610dd557600081815260208120601f850160051c810160208610156156525750805b601f850160051c820191505b818110156156715782815560010161565e565b505050505050565b81516001600160401b03811115615692576156926147da565b6156a6816156a084546152cf565b8461562b565b602080601f8311600181146156db57600084156156c35750858301515b600019600386901b1c1916600185901b178555615671565b600085815260208120601f198616915b8281101561570a578886015182559484019460019091019084016156eb565b50858210156157285787850151600019600388901b60f8161c191681555b5050505050600190811b01905550565b80820281158282048414176105d6576105d6615349565b60006105d63683614bc3565b60ff615766826148d1565b168252602081013561577781614799565b6001600160a01b03908116602084015260408201359061579682614799565b166040830152606081810135908301526080808201359083015260a0808201359083015260c0808201359083015260e08082013590830152610100808201359083015261012090810135910152565b60006101808083016157f7848961575b565b61014060ff8816818601526101608381870152828784526101a0935083870190508860005b8981101561588c5761582e838361575b565b6001600160581b0361584186840161499e565b16858401526158518483016149b5565b64ffffffffff808216868601528061586a8a86016149b5565b16858a0152505081860135868401526101c0928301929091019060010161581c565b50909b9a5050505050505050505050565b6001600160a01b039485168152928416602084015292166040820152606081019190915260800190565b6000602082840312156158d957600080fd5b611cba8261499e565b815181526020808301519082015260408083015190820152606081016105d6565b60006020828403121561591557600080fd5b5051919050565b6001600160581b038281168282160390808211156120c3576120c3615349565b60006020828403121561594e57600080fd5b81516001600160401b0381168114611cba57600080fdfea2646970667358221220f8641a6be560408f79d688009aca0ab35c1fe4fba2505a3d161f39cde1ec105364736f6c63430008110033",
    "linkReferences": {}
  },
  "methodIdentifiers": {
    "ASTARIA_ROUTER()": "3398b637",
    "COLLATERAL_TOKEN()": "f5f1f1a7",
    "approve(address,uint256)": "095ea7b3",
    "authority()": "bf7e214f",
    "balanceOf(address)": "70a08231",
    "buyoutLien((uint8,(uint256,address,(uint8,address,address,bytes32,uint256,(uint256,uint256,uint256,uint256,uint256)),((uint8,address,address,bytes32,uint256,(uint256,uint256,uint256,uint256,uint256)),(uint88,uint40,uint40,uint256))[])))": "5b2ed287",
    "calculateSlope(((uint8,address,address,bytes32,uint256,(uint256,uint256,uint256,uint256,uint256)),(uint88,uint40,uint40,uint256)))": "8d265c05",
    "createLien((uint256,address,(uint8,address,address,bytes32,uint256,(uint256,uint256,uint256,uint256,uint256)),((uint8,address,address,bytes32,uint256,(uint256,uint256,uint256,uint256,uint256)),(uint88,uint40,uint40,uint256))[]))": "333f3de8",
    "file((uint8,bytes))": "b05e52fd",
    "getAmountOwingAtLiquidation(((uint8,address,address,bytes32,uint256,(uint256,uint256,uint256,uint256,uint256)),(uint88,uint40,uint40,uint256)))": "1ee72026",
    "getApproved(uint256)": "081812fc",
    "getAuctionData(uint256)": "44f27e30",
    "getAuctionLiquidator(uint256)": "c66e79d6",
    "getBuyout(((uint8,address,address,bytes32,uint256,(uint256,uint256,uint256,uint256,uint256)),(uint88,uint40,uint40,uint256)))": "65b95e0a",
    "getCollateralState(uint256)": "6a53691c",
    "getInterest(((uint8,address,address,bytes32,uint256,(uint256,uint256,uint256,uint256,uint256)),(uint88,uint40,uint40,uint256)))": "4a366bc9",
    "getMaxPotentialDebtForCollateral(((uint8,address,address,bytes32,uint256,(uint256,uint256,uint256,uint256,uint256)),(uint88,uint40,uint40,uint256))[])": "1e66036f",
    "getMaxPotentialDebtForCollateral(((uint8,address,address,bytes32,uint256,(uint256,uint256,uint256,uint256,uint256)),(uint88,uint40,uint40,uint256))[],uint256)": "1c18a687",
    "getOwed(((uint8,address,address,bytes32,uint256,(uint256,uint256,uint256,uint256,uint256)),(uint88,uint40,uint40,uint256)))": "59c8fbd6",
    "getOwed(((uint8,address,address,bytes32,uint256,(uint256,uint256,uint256,uint256,uint256)),(uint88,uint40,uint40,uint256)),uint256)": "cd298f1e",
    "getPayee(uint256)": "d13136fd",
    "initialize(address,address)": "485cc955",
    "isApprovedForAll(address,address)": "e985e9c5",
    "makePayment(uint256,((uint8,address,address,bytes32,uint256,(uint256,uint256,uint256,uint256,uint256)),(uint88,uint40,uint40,uint256))[],uint256)": "6201bcd5",
    "makePayment(uint256,((uint8,address,address,bytes32,uint256,(uint256,uint256,uint256,uint256,uint256)),(uint88,uint40,uint40,uint256))[],uint8,uint256)": "68cd42b8",
    "name()": "06fdde03",
    "owner()": "8da5cb5b",
    "ownerOf(uint256)": "6352211e",
    "payDebtViaClearingHouse(address,uint256,uint256,(uint256,uint88,uint40)[])": "7da8b527",
    "safeTransferFrom(address,address,uint256)": "42842e0e",
    "safeTransferFrom(address,address,uint256,bytes)": "b88d4fde",
    "setApprovalForAll(address,bool)": "a22cb465",
    "setAuthority(address)": "7a9e5e4b",
    "stopLiens(uint256,uint256,((uint8,address,address,bytes32,uint256,(uint256,uint256,uint256,uint256,uint256)),(uint88,uint40,uint40,uint256))[],address)": "e7c33301",
    "supportsInterface(bytes4)": "01ffc9a7",
    "symbol()": "95d89b41",
    "tokenURI(uint256)": "c87b56dd",
    "transferFrom(address,address,uint256)": "23b872dd",
    "transferOwnership(address)": "f2fde38b",
    "validateLien((uint8,address,address,bytes32,uint256,(uint256,uint256,uint256,uint256,uint256)))": "d4606b70"
  },
  "id": 148
}