{
  "abi": [
    {
      "inputs": [
        {
          "internalType": "address",
          "name": "_owner",
          "type": "address"
        },
        {
          "internalType": "contract Authority",
          "name": "_authority",
          "type": "address"
        }
      ],
      "stateMutability": "nonpayable",
      "type": "constructor"
    },
    {
      "anonymous": false,
      "inputs": [
        {
          "indexed": true,
          "internalType": "address",
          "name": "user",
          "type": "address"
        },
        {
          "indexed": true,
          "internalType": "contract Authority",
          "name": "newAuthority",
          "type": "address"
        }
      ],
      "name": "AuthorityUpdated",
      "type": "event"
    },
    {
      "anonymous": false,
      "inputs": [
        {
          "indexed": true,
          "internalType": "address",
          "name": "user",
          "type": "address"
        },
        {
          "indexed": true,
          "internalType": "address",
          "name": "newOwner",
          "type": "address"
        }
      ],
      "name": "OwnershipTransferred",
      "type": "event"
    },
    {
      "anonymous": false,
      "inputs": [
        {
          "indexed": true,
          "internalType": "bytes4",
          "name": "functionSig",
          "type": "bytes4"
        },
        {
          "indexed": false,
          "internalType": "bool",
          "name": "enabled",
          "type": "bool"
        }
      ],
      "name": "PublicCapabilityUpdated",
      "type": "event"
    },
    {
      "anonymous": false,
      "inputs": [
        {
          "indexed": true,
          "internalType": "uint8",
          "name": "role",
          "type": "uint8"
        },
        {
          "indexed": true,
          "internalType": "bytes4",
          "name": "functionSig",
          "type": "bytes4"
        },
        {
          "indexed": false,
          "internalType": "bool",
          "name": "enabled",
          "type": "bool"
        }
      ],
      "name": "RoleCapabilityUpdated",
      "type": "event"
    },
    {
      "anonymous": false,
      "inputs": [
        {
          "indexed": true,
          "internalType": "address",
          "name": "target",
          "type": "address"
        },
        {
          "indexed": true,
          "internalType": "contract Authority",
          "name": "authority",
          "type": "address"
        }
      ],
      "name": "TargetCustomAuthorityUpdated",
      "type": "event"
    },
    {
      "anonymous": false,
      "inputs": [
        {
          "indexed": true,
          "internalType": "address",
          "name": "user",
          "type": "address"
        },
        {
          "indexed": true,
          "internalType": "uint8",
          "name": "role",
          "type": "uint8"
        },
        {
          "indexed": false,
          "internalType": "bool",
          "name": "enabled",
          "type": "bool"
        }
      ],
      "name": "UserRoleUpdated",
      "type": "event"
    },
    {
      "inputs": [],
      "name": "authority",
      "outputs": [
        {
          "internalType": "contract Authority",
          "name": "",
          "type": "address"
        }
      ],
      "stateMutability": "view",
      "type": "function"
    },
    {
      "inputs": [
        {
          "internalType": "address",
          "name": "user",
          "type": "address"
        },
        {
          "internalType": "address",
          "name": "target",
          "type": "address"
        },
        {
          "internalType": "bytes4",
          "name": "functionSig",
          "type": "bytes4"
        }
      ],
      "name": "canCall",
      "outputs": [
        {
          "internalType": "bool",
          "name": "",
          "type": "bool"
        }
      ],
      "stateMutability": "view",
      "type": "function"
    },
    {
      "inputs": [
        {
          "internalType": "uint8",
          "name": "role",
          "type": "uint8"
        },
        {
          "internalType": "bytes4",
          "name": "functionSig",
          "type": "bytes4"
        }
      ],
      "name": "doesRoleHaveCapability",
      "outputs": [
        {
          "internalType": "bool",
          "name": "",
          "type": "bool"
        }
      ],
      "stateMutability": "view",
      "type": "function"
    },
    {
      "inputs": [
        {
          "internalType": "address",
          "name": "user",
          "type": "address"
        },
        {
          "internalType": "uint8",
          "name": "role",
          "type": "uint8"
        }
      ],
      "name": "doesUserHaveRole",
      "outputs": [
        {
          "internalType": "bool",
          "name": "",
          "type": "bool"
        }
      ],
      "stateMutability": "view",
      "type": "function"
    },
    {
      "inputs": [
        {
          "internalType": "bytes4",
          "name": "",
          "type": "bytes4"
        }
      ],
      "name": "getRolesWithCapability",
      "outputs": [
        {
          "internalType": "bytes32",
          "name": "",
          "type": "bytes32"
        }
      ],
      "stateMutability": "view",
      "type": "function"
    },
    {
      "inputs": [
        {
          "internalType": "address",
          "name": "",
          "type": "address"
        }
      ],
      "name": "getTargetCustomAuthority",
      "outputs": [
        {
          "internalType": "contract Authority",
          "name": "",
          "type": "address"
        }
      ],
      "stateMutability": "view",
      "type": "function"
    },
    {
      "inputs": [
        {
          "internalType": "address",
          "name": "",
          "type": "address"
        }
      ],
      "name": "getUserRoles",
      "outputs": [
        {
          "internalType": "bytes32",
          "name": "",
          "type": "bytes32"
        }
      ],
      "stateMutability": "view",
      "type": "function"
    },
    {
      "inputs": [
        {
          "internalType": "bytes4",
          "name": "",
          "type": "bytes4"
        }
      ],
      "name": "isCapabilityPublic",
      "outputs": [
        {
          "internalType": "bool",
          "name": "",
          "type": "bool"
        }
      ],
      "stateMutability": "view",
      "type": "function"
    },
    {
      "inputs": [],
      "name": "owner",
      "outputs": [
        {
          "internalType": "address",
          "name": "",
          "type": "address"
        }
      ],
      "stateMutability": "view",
      "type": "function"
    },
    {
      "inputs": [
        {
          "internalType": "contract Authority",
          "name": "newAuthority",
          "type": "address"
        }
      ],
      "name": "setAuthority",
      "outputs": [],
      "stateMutability": "nonpayable",
      "type": "function"
    },
    {
      "inputs": [
        {
          "internalType": "bytes4",
          "name": "functionSig",
          "type": "bytes4"
        },
        {
          "internalType": "bool",
          "name": "enabled",
          "type": "bool"
        }
      ],
      "name": "setPublicCapability",
      "outputs": [],
      "stateMutability": "nonpayable",
      "type": "function"
    },
    {
      "inputs": [
        {
          "internalType": "uint8",
          "name": "role",
          "type": "uint8"
        },
        {
          "internalType": "bytes4",
          "name": "functionSig",
          "type": "bytes4"
        },
        {
          "internalType": "bool",
          "name": "enabled",
          "type": "bool"
        }
      ],
      "name": "setRoleCapability",
      "outputs": [],
      "stateMutability": "nonpayable",
      "type": "function"
    },
    {
      "inputs": [
        {
          "internalType": "address",
          "name": "target",
          "type": "address"
        },
        {
          "internalType": "contract Authority",
          "name": "customAuthority",
          "type": "address"
        }
      ],
      "name": "setTargetCustomAuthority",
      "outputs": [],
      "stateMutability": "nonpayable",
      "type": "function"
    },
    {
      "inputs": [
        {
          "internalType": "address",
          "name": "user",
          "type": "address"
        },
        {
          "internalType": "uint8",
          "name": "role",
          "type": "uint8"
        },
        {
          "internalType": "bool",
          "name": "enabled",
          "type": "bool"
        }
      ],
      "name": "setUserRole",
      "outputs": [],
      "stateMutability": "nonpayable",
      "type": "function"
    },
    {
      "inputs": [
        {
          "internalType": "address",
          "name": "newOwner",
          "type": "address"
        }
      ],
      "name": "transferOwnership",
      "outputs": [],
      "stateMutability": "nonpayable",
      "type": "function"
    }
  ],
  "bytecode": {
    "object": "0x608060405234801561001057600080fd5b50604051610c8c380380610c8c83398101604081905261002f916100e1565b600080546001600160a01b03199081166001600160a01b0385811691821784556001805490931690851617909155604051849284929133917f8be0079c531659141344cd1fd0a4f28419497f9722a3daafe3b4186f6b6457e091a36040516001600160a01b0382169033907fa3396fd7f6e0a21b50e5089d2da70d5ac0a3bbbd1f617a93f134b7638998019890600090a35050505061011b565b6001600160a01b03811681146100de57600080fd5b50565b600080604083850312156100f457600080fd5b82516100ff816100c9565b6020840151909250610110816100c9565b809150509250929050565b610b628061012a6000396000f3fe608060405234801561001057600080fd5b50600436106100f55760003560e01c80638da5cb5b11610097578063e688747b11610066578063e688747b1461023b578063ea7ca27614610271578063ed0d0efb146102a8578063f2fde38b146102c857600080fd5b80638da5cb5b146101c1578063b7009613146101ec578063bf7e214f146101ff578063c53a39851461021257600080fd5b80634b5159da116100d35780634b5159da1461017557806367aff48414610188578063728b952b1461019b5780637a9e5e4b146101ae57600080fd5b806306a36aee146100fa5780630bade8a41461012d5780630ea9b75b14610160575b600080fd5b61011a6101083660046108c8565b60036020526000908152604090205481565b6040519081526020015b60405180910390f35b61015061013b366004610902565b60046020526000908152604090205460ff1681565b6040519015158152602001610124565b61017361016e36600461093c565b6102db565b005b610173610183366004610983565b6103bc565b6101736101963660046109ba565b61044e565b6101736101a93660046109e8565b610516565b6101736101bc3660046108c8565b61059f565b6000546101d4906001600160a01b031681565b6040516001600160a01b039091168152602001610124565b6101506101fa366004610a16565b610689565b6001546101d4906001600160a01b031681565b6101d46102203660046108c8565b6002602052600090815260409020546001600160a01b031681565b610150610249366004610a5d565b6001600160e01b03191660009081526005602052604090205460ff919091161c600116151590565b61015061027f366004610a90565b6001600160a01b0391909116600090815260036020526040902054600160ff9092161c16151590565b61011a6102b6366004610902565b60056020526000908152604090205481565b6101736102d63660046108c8565b610789565b6102f1336000356001600160e01b031916610806565b6103165760405162461bcd60e51b815260040161030d90610abc565b60405180910390fd5b8015610346576001600160e01b0319821660009081526005602052604090208054600160ff86161b17905561036d565b6001600160e01b0319821660009081526005602052604090208054600160ff86161b191690555b816001600160e01b0319168360ff167fbfe16b2c35ce23dfd1ab0e7b5d086a10060c9b52d1574e1680c881b3b3a2b151836040516103af911515815260200190565b60405180910390a3505050565b6103d2336000356001600160e01b031916610806565b6103ee5760405162461bcd60e51b815260040161030d90610abc565b6001600160e01b03198216600081815260046020908152604091829020805460ff191685151590811790915591519182527f36d28126bef21a4f3765d7fcb7c45cead463ae4c41094ef3b771ede598544103910160405180910390a25050565b610464336000356001600160e01b031916610806565b6104805760405162461bcd60e51b815260040161030d90610abc565b80156104af576001600160a01b03831660009081526003602052604090208054600160ff85161b1790556104d5565b6001600160a01b03831660009081526003602052604090208054600160ff85161b191690555b8160ff16836001600160a01b03167f4c9bdd0c8e073eb5eda2250b18d8e5121ff27b62064fbeeeed4869bb99bc5bf2836040516103af911515815260200190565b61052c336000356001600160e01b031916610806565b6105485760405162461bcd60e51b815260040161030d90610abc565b6001600160a01b0382811660008181526002602052604080822080546001600160a01b0319169486169485179055517fa4908e11a5f895b13d51526c331ac93cdd30e59772361c5d07874eb36bff20659190a35050565b6000546001600160a01b0316331480610634575060015460405163b700961360e01b81526001600160a01b039091169063b7009613906105f390339030906001600160e01b03196000351690600401610ae2565b602060405180830381865afa158015610610573d6000803e3d6000fd5b505050506040513d601f19601f820116820180604052508101906106349190610b0f565b61063d57600080fd5b600180546001600160a01b0319166001600160a01b03831690811790915560405133907fa3396fd7f6e0a21b50e5089d2da70d5ac0a3bbbd1f617a93f134b7638998019890600090a350565b6001600160a01b0380831660009081526002602052604081205490911680156107255760405163b700961360e01b81526001600160a01b0382169063b7009613906106dc90889088908890600401610ae2565b602060405180830381865afa1580156106f9573d6000803e3d6000fd5b505050506040513d601f19601f8201168201806040525081019061071d9190610b0f565b915050610782565b6001600160e01b0319831660009081526004602052604090205460ff168061077e57506001600160e01b031983166000908152600560209081526040808320546001600160a01b03891684526003909252909120541615155b9150505b9392505050565b61079f336000356001600160e01b031916610806565b6107bb5760405162461bcd60e51b815260040161030d90610abc565b600080546001600160a01b0319166001600160a01b0383169081178255604051909133917f8be0079c531659141344cd1fd0a4f28419497f9722a3daafe3b4186f6b6457e09190a350565b6001546000906001600160a01b03168015801590610890575060405163b700961360e01b81526001600160a01b0382169063b70096139061084f90879030908890600401610ae2565b602060405180830381865afa15801561086c573d6000803e3d6000fd5b505050506040513d601f19601f820116820180604052508101906108909190610b0f565b806108a857506000546001600160a01b038581169116145b949350505050565b6001600160a01b03811681146108c557600080fd5b50565b6000602082840312156108da57600080fd5b8135610782816108b0565b80356001600160e01b0319811681146108fd57600080fd5b919050565b60006020828403121561091457600080fd5b610782826108e5565b803560ff811681146108fd57600080fd5b80151581146108c557600080fd5b60008060006060848603121561095157600080fd5b61095a8461091d565b9250610968602085016108e5565b915060408401356109788161092e565b809150509250925092565b6000806040838503121561099657600080fd5b61099f836108e5565b915060208301356109af8161092e565b809150509250929050565b6000806000606084860312156109cf57600080fd5b83356109da816108b0565b92506109686020850161091d565b600080604083850312156109fb57600080fd5b8235610a06816108b0565b915060208301356109af816108b0565b600080600060608486031215610a2b57600080fd5b8335610a36816108b0565b92506020840135610a46816108b0565b9150610a54604085016108e5565b90509250925092565b60008060408385031215610a7057600080fd5b610a798361091d565b9150610a87602084016108e5565b90509250929050565b60008060408385031215610aa357600080fd5b8235610aae816108b0565b9150610a876020840161091d565b6020808252600c908201526b15539055551213d49256915160a21b604082015260600190565b6001600160a01b0393841681529190921660208201526001600160e01b0319909116604082015260600190565b600060208284031215610b2157600080fd5b81516107828161092e56fea26469706673582212205fd468310582584802646013b3e447ae0699d7bc44265691f277e360fce69b0064736f6c63430008110033",
    "linkReferences": {}
  },
  "methodIdentifiers": {
    "authority()": "bf7e214f",
    "canCall(address,address,bytes4)": "b7009613",
    "doesRoleHaveCapability(uint8,bytes4)": "e688747b",
    "doesUserHaveRole(address,uint8)": "ea7ca276",
    "getRolesWithCapability(bytes4)": "ed0d0efb",
    "getTargetCustomAuthority(address)": "c53a3985",
    "getUserRoles(address)": "06a36aee",
    "isCapabilityPublic(bytes4)": "0bade8a4",
    "owner()": "8da5cb5b",
    "setAuthority(address)": "7a9e5e4b",
    "setPublicCapability(bytes4,bool)": "4b5159da",
    "setRoleCapability(uint8,bytes4,bool)": "0ea9b75b",
    "setTargetCustomAuthority(address,address)": "728b952b",
    "setUserRole(address,uint8,bool)": "67aff484",
    "transferOwnership(address)": "f2fde38b"
  },
  "id": 134
}