{
  "abi": [
    {
      "inputs": [],
      "name": "CreateFail",
      "type": "error"
    },
    {
      "inputs": [
        {
          "internalType": "enum IVaultImplementation.InvalidRequestReason",
          "name": "reason",
          "type": "uint8"
        }
      ],
      "name": "InvalidRequest",
      "type": "error"
    },
    {
      "inputs": [
        {
          "internalType": "enum IPublicVault.InvalidStates",
          "name": "",
          "type": "uint8"
        }
      ],
      "name": "InvalidState",
      "type": "error"
    },
    {
      "anonymous": false,
      "inputs": [
        {
          "indexed": true,
          "internalType": "address",
          "name": "owner",
          "type": "address"
        },
        {
          "indexed": true,
          "internalType": "address",
          "name": "spender",
          "type": "address"
        },
        {
          "indexed": false,
          "internalType": "uint256",
          "name": "value",
          "type": "uint256"
        }
      ],
      "name": "Approval",
      "type": "event"
    },
    {
      "anonymous": false,
      "inputs": [
        {
          "indexed": true,
          "internalType": "address",
          "name": "sender",
          "type": "address"
        },
        {
          "indexed": true,
          "internalType": "address",
          "name": "owner",
          "type": "address"
        },
        {
          "indexed": false,
          "internalType": "uint256",
          "name": "assets",
          "type": "uint256"
        },
        {
          "indexed": false,
          "internalType": "uint256",
          "name": "shares",
          "type": "uint256"
        }
      ],
      "name": "Deposit",
      "type": "event"
    },
    {
      "anonymous": false,
      "inputs": [
        {
          "indexed": false,
          "internalType": "uint32",
          "name": "nonce",
          "type": "uint32"
        }
      ],
      "name": "IncrementNonce",
      "type": "event"
    },
    {
      "anonymous": false,
      "inputs": [
        {
          "indexed": false,
          "internalType": "uint256",
          "name": "lienId",
          "type": "uint256"
        },
        {
          "indexed": false,
          "internalType": "uint256",
          "name": "epoch",
          "type": "uint256"
        }
      ],
      "name": "LienOpen",
      "type": "event"
    },
    {
      "anonymous": false,
      "inputs": [
        {
          "indexed": false,
          "internalType": "uint32",
          "name": "nonce",
          "type": "uint32"
        }
      ],
      "name": "NonceUpdated",
      "type": "event"
    },
    {
      "anonymous": false,
      "inputs": [
        {
          "indexed": true,
          "internalType": "address",
          "name": "from",
          "type": "address"
        },
        {
          "indexed": true,
          "internalType": "address",
          "name": "to",
          "type": "address"
        },
        {
          "indexed": false,
          "internalType": "uint256",
          "name": "value",
          "type": "uint256"
        }
      ],
      "name": "Transfer",
      "type": "event"
    },
    {
      "anonymous": false,
      "inputs": [],
      "name": "VaultShutdown",
      "type": "event"
    },
    {
      "anonymous": false,
      "inputs": [
        {
          "indexed": true,
          "internalType": "address",
          "name": "sender",
          "type": "address"
        },
        {
          "indexed": true,
          "internalType": "address",
          "name": "receiver",
          "type": "address"
        },
        {
          "indexed": true,
          "internalType": "address",
          "name": "owner",
          "type": "address"
        },
        {
          "indexed": false,
          "internalType": "uint256",
          "name": "assets",
          "type": "uint256"
        },
        {
          "indexed": false,
          "internalType": "uint256",
          "name": "shares",
          "type": "uint256"
        }
      ],
      "name": "Withdraw",
      "type": "event"
    },
    {
      "anonymous": false,
      "inputs": [
        {
          "indexed": false,
          "internalType": "uint256",
          "name": "amount",
          "type": "uint256"
        }
      ],
      "name": "WithdrawReserveTransferred",
      "type": "event"
    },
    {
      "anonymous": false,
      "inputs": [
        {
          "indexed": false,
          "internalType": "uint88",
          "name": "newYintercept",
          "type": "uint88"
        }
      ],
      "name": "YInterceptChanged",
      "type": "event"
    },
    {
      "inputs": [],
      "name": "COLLATERAL_TOKEN",
      "outputs": [
        {
          "internalType": "contract ICollateralToken",
          "name": "",
          "type": "address"
        }
      ],
      "stateMutability": "view",
      "type": "function"
    },
    {
      "inputs": [],
      "name": "DOMAIN_SEPARATOR",
      "outputs": [
        {
          "internalType": "bytes32",
          "name": "",
          "type": "bytes32"
        }
      ],
      "stateMutability": "view",
      "type": "function"
    },
    {
      "inputs": [],
      "name": "EPOCH_LENGTH",
      "outputs": [
        {
          "internalType": "uint256",
          "name": "",
          "type": "uint256"
        }
      ],
      "stateMutability": "pure",
      "type": "function"
    },
    {
      "inputs": [],
      "name": "IMPL_TYPE",
      "outputs": [
        {
          "internalType": "uint8",
          "name": "",
          "type": "uint8"
        }
      ],
      "stateMutability": "pure",
      "type": "function"
    },
    {
      "inputs": [],
      "name": "LIEN_TOKEN",
      "outputs": [
        {
          "internalType": "contract ILienToken",
          "name": "",
          "type": "address"
        }
      ],
      "stateMutability": "view",
      "type": "function"
    },
    {
      "inputs": [],
      "name": "ROUTER",
      "outputs": [
        {
          "internalType": "contract IAstariaRouter",
          "name": "",
          "type": "address"
        }
      ],
      "stateMutability": "pure",
      "type": "function"
    },
    {
      "inputs": [],
      "name": "START",
      "outputs": [
        {
          "internalType": "uint256",
          "name": "",
          "type": "uint256"
        }
      ],
      "stateMutability": "pure",
      "type": "function"
    },
    {
      "inputs": [],
      "name": "STRATEGY_TYPEHASH",
      "outputs": [
        {
          "internalType": "bytes32",
          "name": "",
          "type": "bytes32"
        }
      ],
      "stateMutability": "view",
      "type": "function"
    },
    {
      "inputs": [],
      "name": "VAULT_FEE",
      "outputs": [
        {
          "internalType": "uint256",
          "name": "",
          "type": "uint256"
        }
      ],
      "stateMutability": "pure",
      "type": "function"
    },
    {
      "inputs": [],
      "name": "accrue",
      "outputs": [
        {
          "internalType": "uint256",
          "name": "",
          "type": "uint256"
        }
      ],
      "stateMutability": "nonpayable",
      "type": "function"
    },
    {
      "inputs": [
        {
          "internalType": "uint256",
          "name": "computedSlope",
          "type": "uint256"
        }
      ],
      "name": "afterPayment",
      "outputs": [],
      "stateMutability": "nonpayable",
      "type": "function"
    },
    {
      "inputs": [
        {
          "internalType": "address",
          "name": "owner",
          "type": "address"
        },
        {
          "internalType": "address",
          "name": "spender",
          "type": "address"
        }
      ],
      "name": "allowance",
      "outputs": [
        {
          "internalType": "uint256",
          "name": "",
          "type": "uint256"
        }
      ],
      "stateMutability": "view",
      "type": "function"
    },
    {
      "inputs": [
        {
          "internalType": "address",
          "name": "spender",
          "type": "address"
        },
        {
          "internalType": "uint256",
          "name": "amount",
          "type": "uint256"
        }
      ],
      "name": "approve",
      "outputs": [
        {
          "internalType": "bool",
          "name": "",
          "type": "bool"
        }
      ],
      "stateMutability": "nonpayable",
      "type": "function"
    },
    {
      "inputs": [],
      "name": "asset",
      "outputs": [
        {
          "internalType": "address",
          "name": "",
          "type": "address"
        }
      ],
      "stateMutability": "pure",
      "type": "function"
    },
    {
      "inputs": [
        {
          "internalType": "address",
          "name": "account",
          "type": "address"
        }
      ],
      "name": "balanceOf",
      "outputs": [
        {
          "internalType": "uint256",
          "name": "",
          "type": "uint256"
        }
      ],
      "stateMutability": "view",
      "type": "function"
    },
    {
      "inputs": [
        {
          "components": [
            {
              "internalType": "uint256",
              "name": "lienSlope",
              "type": "uint256"
            },
            {
              "internalType": "uint256",
              "name": "amount",
              "type": "uint256"
            },
            {
              "internalType": "uint256",
              "name": "interestOwed",
              "type": "uint256"
            }
          ],
          "internalType": "struct IPublicVault.BeforePaymentParams",
          "name": "params",
          "type": "tuple"
        }
      ],
      "name": "beforePayment",
      "outputs": [],
      "stateMutability": "nonpayable",
      "type": "function"
    },
    {
      "inputs": [
        {
          "internalType": "uint256",
          "name": "collateralId",
          "type": "uint256"
        },
        {
          "internalType": "uint8",
          "name": "position",
          "type": "uint8"
        },
        {
          "components": [
            {
              "internalType": "address",
              "name": "tokenContract",
              "type": "address"
            },
            {
              "internalType": "uint256",
              "name": "tokenId",
              "type": "uint256"
            },
            {
              "components": [
                {
                  "components": [
                    {
                      "internalType": "uint8",
                      "name": "version",
                      "type": "uint8"
                    },
                    {
                      "internalType": "uint256",
                      "name": "deadline",
                      "type": "uint256"
                    },
                    {
                      "internalType": "address",
                      "name": "vault",
                      "type": "address"
                    }
                  ],
                  "internalType": "struct IAstariaRouter.StrategyDetails",
                  "name": "strategy",
                  "type": "tuple"
                },
                {
                  "components": [
                    {
                      "components": [
                        {
                          "internalType": "address",
                          "name": "token",
                          "type": "address"
                        },
                        {
                          "internalType": "address",
                          "name": "vault",
                          "type": "address"
                        },
                        {
                          "internalType": "bytes32",
                          "name": "strategyRoot",
                          "type": "bytes32"
                        },
                        {
                          "internalType": "uint256",
                          "name": "collateralId",
                          "type": "uint256"
                        },
                        {
                          "components": [
                            {
                              "internalType": "uint256",
                              "name": "maxAmount",
                              "type": "uint256"
                            },
                            {
                              "internalType": "uint256",
                              "name": "rate",
                              "type": "uint256"
                            },
                            {
                              "internalType": "uint256",
                              "name": "duration",
                              "type": "uint256"
                            },
                            {
                              "internalType": "uint256",
                              "name": "maxPotentialDebt",
                              "type": "uint256"
                            },
                            {
                              "internalType": "uint256",
                              "name": "liquidationInitialAsk",
                              "type": "uint256"
                            }
                          ],
                          "internalType": "struct ILienToken.Details",
                          "name": "details",
                          "type": "tuple"
                        }
                      ],
                      "internalType": "struct ILienToken.Lien",
                      "name": "lien",
                      "type": "tuple"
                    },
                    {
                      "components": [
                        {
                          "internalType": "uint88",
                          "name": "amount",
                          "type": "uint88"
                        },
                        {
                          "internalType": "uint8",
                          "name": "position",
                          "type": "uint8"
                        },
                        {
                          "internalType": "uint40",
                          "name": "last",
                          "type": "uint40"
                        },
                        {
                          "internalType": "uint40",
                          "name": "end",
                          "type": "uint40"
                        },
                        {
                          "internalType": "uint256",
                          "name": "lienId",
                          "type": "uint256"
                        }
                      ],
                      "internalType": "struct ILienToken.Point",
                      "name": "point",
                      "type": "tuple"
                    }
                  ],
                  "internalType": "struct ILienToken.Stack[]",
                  "name": "stack",
                  "type": "tuple[]"
                },
                {
                  "internalType": "bytes",
                  "name": "nlrDetails",
                  "type": "bytes"
                },
                {
                  "components": [
                    {
                      "internalType": "bytes32",
                      "name": "root",
                      "type": "bytes32"
                    },
                    {
                      "internalType": "bytes32[]",
                      "name": "proof",
                      "type": "bytes32[]"
                    }
                  ],
                  "internalType": "struct IAstariaRouter.MerkleData",
                  "name": "merkle",
                  "type": "tuple"
                },
                {
                  "internalType": "uint256",
                  "name": "amount",
                  "type": "uint256"
                },
                {
                  "internalType": "uint8",
                  "name": "v",
                  "type": "uint8"
                },
                {
                  "internalType": "bytes32",
                  "name": "r",
                  "type": "bytes32"
                },
                {
                  "internalType": "bytes32",
                  "name": "s",
                  "type": "bytes32"
                }
              ],
              "internalType": "struct IAstariaRouter.NewLienRequest",
              "name": "lienRequest",
              "type": "tuple"
            }
          ],
          "internalType": "struct IAstariaRouter.Commitment",
          "name": "incomingTerms",
          "type": "tuple"
        },
        {
          "components": [
            {
              "components": [
                {
                  "internalType": "address",
                  "name": "token",
                  "type": "address"
                },
                {
                  "internalType": "address",
                  "name": "vault",
                  "type": "address"
                },
                {
                  "internalType": "bytes32",
                  "name": "strategyRoot",
                  "type": "bytes32"
                },
                {
                  "internalType": "uint256",
                  "name": "collateralId",
                  "type": "uint256"
                },
                {
                  "components": [
                    {
                      "internalType": "uint256",
                      "name": "maxAmount",
                      "type": "uint256"
                    },
                    {
                      "internalType": "uint256",
                      "name": "rate",
                      "type": "uint256"
                    },
                    {
                      "internalType": "uint256",
                      "name": "duration",
                      "type": "uint256"
                    },
                    {
                      "internalType": "uint256",
                      "name": "maxPotentialDebt",
                      "type": "uint256"
                    },
                    {
                      "internalType": "uint256",
                      "name": "liquidationInitialAsk",
                      "type": "uint256"
                    }
                  ],
                  "internalType": "struct ILienToken.Details",
                  "name": "details",
                  "type": "tuple"
                }
              ],
              "internalType": "struct ILienToken.Lien",
              "name": "lien",
              "type": "tuple"
            },
            {
              "components": [
                {
                  "internalType": "uint88",
                  "name": "amount",
                  "type": "uint88"
                },
                {
                  "internalType": "uint8",
                  "name": "position",
                  "type": "uint8"
                },
                {
                  "internalType": "uint40",
                  "name": "last",
                  "type": "uint40"
                },
                {
                  "internalType": "uint40",
                  "name": "end",
                  "type": "uint40"
                },
                {
                  "internalType": "uint256",
                  "name": "lienId",
                  "type": "uint256"
                }
              ],
              "internalType": "struct ILienToken.Point",
              "name": "point",
              "type": "tuple"
            }
          ],
          "internalType": "struct ILienToken.Stack[]",
          "name": "stack",
          "type": "tuple[]"
        }
      ],
      "name": "buyoutLien",
      "outputs": [
        {
          "components": [
            {
              "components": [
                {
                  "internalType": "address",
                  "name": "token",
                  "type": "address"
                },
                {
                  "internalType": "address",
                  "name": "vault",
                  "type": "address"
                },
                {
                  "internalType": "bytes32",
                  "name": "strategyRoot",
                  "type": "bytes32"
                },
                {
                  "internalType": "uint256",
                  "name": "collateralId",
                  "type": "uint256"
                },
                {
                  "components": [
                    {
                      "internalType": "uint256",
                      "name": "maxAmount",
                      "type": "uint256"
                    },
                    {
                      "internalType": "uint256",
                      "name": "rate",
                      "type": "uint256"
                    },
                    {
                      "internalType": "uint256",
                      "name": "duration",
                      "type": "uint256"
                    },
                    {
                      "internalType": "uint256",
                      "name": "maxPotentialDebt",
                      "type": "uint256"
                    },
                    {
                      "internalType": "uint256",
                      "name": "liquidationInitialAsk",
                      "type": "uint256"
                    }
                  ],
                  "internalType": "struct ILienToken.Details",
                  "name": "details",
                  "type": "tuple"
                }
              ],
              "internalType": "struct ILienToken.Lien",
              "name": "lien",
              "type": "tuple"
            },
            {
              "components": [
                {
                  "internalType": "uint88",
                  "name": "amount",
                  "type": "uint88"
                },
                {
                  "internalType": "uint8",
                  "name": "position",
                  "type": "uint8"
                },
                {
                  "internalType": "uint40",
                  "name": "last",
                  "type": "uint40"
                },
                {
                  "internalType": "uint40",
                  "name": "end",
                  "type": "uint40"
                },
                {
                  "internalType": "uint256",
                  "name": "lienId",
                  "type": "uint256"
                }
              ],
              "internalType": "struct ILienToken.Point",
              "name": "point",
              "type": "tuple"
            }
          ],
          "internalType": "struct ILienToken.Stack[]",
          "name": "",
          "type": "tuple[]"
        },
        {
          "components": [
            {
              "components": [
                {
                  "internalType": "address",
                  "name": "token",
                  "type": "address"
                },
                {
                  "internalType": "address",
                  "name": "vault",
                  "type": "address"
                },
                {
                  "internalType": "bytes32",
                  "name": "strategyRoot",
                  "type": "bytes32"
                },
                {
                  "internalType": "uint256",
                  "name": "collateralId",
                  "type": "uint256"
                },
                {
                  "components": [
                    {
                      "internalType": "uint256",
                      "name": "maxAmount",
                      "type": "uint256"
                    },
                    {
                      "internalType": "uint256",
                      "name": "rate",
                      "type": "uint256"
                    },
                    {
                      "internalType": "uint256",
                      "name": "duration",
                      "type": "uint256"
                    },
                    {
                      "internalType": "uint256",
                      "name": "maxPotentialDebt",
                      "type": "uint256"
                    },
                    {
                      "internalType": "uint256",
                      "name": "liquidationInitialAsk",
                      "type": "uint256"
                    }
                  ],
                  "internalType": "struct ILienToken.Details",
                  "name": "details",
                  "type": "tuple"
                }
              ],
              "internalType": "struct ILienToken.Lien",
              "name": "lien",
              "type": "tuple"
            },
            {
              "components": [
                {
                  "internalType": "uint88",
                  "name": "amount",
                  "type": "uint88"
                },
                {
                  "internalType": "uint8",
                  "name": "position",
                  "type": "uint8"
                },
                {
                  "internalType": "uint40",
                  "name": "last",
                  "type": "uint40"
                },
                {
                  "internalType": "uint40",
                  "name": "end",
                  "type": "uint40"
                },
                {
                  "internalType": "uint256",
                  "name": "lienId",
                  "type": "uint256"
                }
              ],
              "internalType": "struct ILienToken.Point",
              "name": "point",
              "type": "tuple"
            }
          ],
          "internalType": "struct ILienToken.Stack",
          "name": "",
          "type": "tuple"
        }
      ],
      "stateMutability": "nonpayable",
      "type": "function"
    },
    {
      "inputs": [],
      "name": "claim",
      "outputs": [],
      "stateMutability": "nonpayable",
      "type": "function"
    },
    {
      "inputs": [
        {
          "components": [
            {
              "internalType": "address",
              "name": "tokenContract",
              "type": "address"
            },
            {
              "internalType": "uint256",
              "name": "tokenId",
              "type": "uint256"
            },
            {
              "components": [
                {
                  "components": [
                    {
                      "internalType": "uint8",
                      "name": "version",
                      "type": "uint8"
                    },
                    {
                      "internalType": "uint256",
                      "name": "deadline",
                      "type": "uint256"
                    },
                    {
                      "internalType": "address",
                      "name": "vault",
                      "type": "address"
                    }
                  ],
                  "internalType": "struct IAstariaRouter.StrategyDetails",
                  "name": "strategy",
                  "type": "tuple"
                },
                {
                  "components": [
                    {
                      "components": [
                        {
                          "internalType": "address",
                          "name": "token",
                          "type": "address"
                        },
                        {
                          "internalType": "address",
                          "name": "vault",
                          "type": "address"
                        },
                        {
                          "internalType": "bytes32",
                          "name": "strategyRoot",
                          "type": "bytes32"
                        },
                        {
                          "internalType": "uint256",
                          "name": "collateralId",
                          "type": "uint256"
                        },
                        {
                          "components": [
                            {
                              "internalType": "uint256",
                              "name": "maxAmount",
                              "type": "uint256"
                            },
                            {
                              "internalType": "uint256",
                              "name": "rate",
                              "type": "uint256"
                            },
                            {
                              "internalType": "uint256",
                              "name": "duration",
                              "type": "uint256"
                            },
                            {
                              "internalType": "uint256",
                              "name": "maxPotentialDebt",
                              "type": "uint256"
                            },
                            {
                              "internalType": "uint256",
                              "name": "liquidationInitialAsk",
                              "type": "uint256"
                            }
                          ],
                          "internalType": "struct ILienToken.Details",
                          "name": "details",
                          "type": "tuple"
                        }
                      ],
                      "internalType": "struct ILienToken.Lien",
                      "name": "lien",
                      "type": "tuple"
                    },
                    {
                      "components": [
                        {
                          "internalType": "uint88",
                          "name": "amount",
                          "type": "uint88"
                        },
                        {
                          "internalType": "uint8",
                          "name": "position",
                          "type": "uint8"
                        },
                        {
                          "internalType": "uint40",
                          "name": "last",
                          "type": "uint40"
                        },
                        {
                          "internalType": "uint40",
                          "name": "end",
                          "type": "uint40"
                        },
                        {
                          "internalType": "uint256",
                          "name": "lienId",
                          "type": "uint256"
                        }
                      ],
                      "internalType": "struct ILienToken.Point",
                      "name": "point",
                      "type": "tuple"
                    }
                  ],
                  "internalType": "struct ILienToken.Stack[]",
                  "name": "stack",
                  "type": "tuple[]"
                },
                {
                  "internalType": "bytes",
                  "name": "nlrDetails",
                  "type": "bytes"
                },
                {
                  "components": [
                    {
                      "internalType": "bytes32",
                      "name": "root",
                      "type": "bytes32"
                    },
                    {
                      "internalType": "bytes32[]",
                      "name": "proof",
                      "type": "bytes32[]"
                    }
                  ],
                  "internalType": "struct IAstariaRouter.MerkleData",
                  "name": "merkle",
                  "type": "tuple"
                },
                {
                  "internalType": "uint256",
                  "name": "amount",
                  "type": "uint256"
                },
                {
                  "internalType": "uint8",
                  "name": "v",
                  "type": "uint8"
                },
                {
                  "internalType": "bytes32",
                  "name": "r",
                  "type": "bytes32"
                },
                {
                  "internalType": "bytes32",
                  "name": "s",
                  "type": "bytes32"
                }
              ],
              "internalType": "struct IAstariaRouter.NewLienRequest",
              "name": "lienRequest",
              "type": "tuple"
            }
          ],
          "internalType": "struct IAstariaRouter.Commitment",
          "name": "params",
          "type": "tuple"
        },
        {
          "internalType": "address",
          "name": "receiver",
          "type": "address"
        }
      ],
      "name": "commitToLien",
      "outputs": [
        {
          "internalType": "uint256",
          "name": "lienId",
          "type": "uint256"
        },
        {
          "components": [
            {
              "components": [
                {
                  "internalType": "address",
                  "name": "token",
                  "type": "address"
                },
                {
                  "internalType": "address",
                  "name": "vault",
                  "type": "address"
                },
                {
                  "internalType": "bytes32",
                  "name": "strategyRoot",
                  "type": "bytes32"
                },
                {
                  "internalType": "uint256",
                  "name": "collateralId",
                  "type": "uint256"
                },
                {
                  "components": [
                    {
                      "internalType": "uint256",
                      "name": "maxAmount",
                      "type": "uint256"
                    },
                    {
                      "internalType": "uint256",
                      "name": "rate",
                      "type": "uint256"
                    },
                    {
                      "internalType": "uint256",
                      "name": "duration",
                      "type": "uint256"
                    },
                    {
                      "internalType": "uint256",
                      "name": "maxPotentialDebt",
                      "type": "uint256"
                    },
                    {
                      "internalType": "uint256",
                      "name": "liquidationInitialAsk",
                      "type": "uint256"
                    }
                  ],
                  "internalType": "struct ILienToken.Details",
                  "name": "details",
                  "type": "tuple"
                }
              ],
              "internalType": "struct ILienToken.Lien",
              "name": "lien",
              "type": "tuple"
            },
            {
              "components": [
                {
                  "internalType": "uint88",
                  "name": "amount",
                  "type": "uint88"
                },
                {
                  "internalType": "uint8",
                  "name": "position",
                  "type": "uint8"
                },
                {
                  "internalType": "uint40",
                  "name": "last",
                  "type": "uint40"
                },
                {
                  "internalType": "uint40",
                  "name": "end",
                  "type": "uint40"
                },
                {
                  "internalType": "uint256",
                  "name": "lienId",
                  "type": "uint256"
                }
              ],
              "internalType": "struct ILienToken.Point",
              "name": "point",
              "type": "tuple"
            }
          ],
          "internalType": "struct ILienToken.Stack[]",
          "name": "stack",
          "type": "tuple[]"
        }
      ],
      "stateMutability": "nonpayable",
      "type": "function"
    },
    {
      "inputs": [
        {
          "internalType": "uint256",
          "name": "shares",
          "type": "uint256"
        }
      ],
      "name": "convertToAssets",
      "outputs": [
        {
          "internalType": "uint256",
          "name": "",
          "type": "uint256"
        }
      ],
      "stateMutability": "view",
      "type": "function"
    },
    {
      "inputs": [
        {
          "internalType": "uint256",
          "name": "assets",
          "type": "uint256"
        }
      ],
      "name": "convertToShares",
      "outputs": [
        {
          "internalType": "uint256",
          "name": "",
          "type": "uint256"
        }
      ],
      "stateMutability": "view",
      "type": "function"
    },
    {
      "inputs": [],
      "name": "decimals",
      "outputs": [
        {
          "internalType": "uint8",
          "name": "",
          "type": "uint8"
        }
      ],
      "stateMutability": "pure",
      "type": "function"
    },
    {
      "inputs": [
        {
          "internalType": "uint64",
          "name": "epoch",
          "type": "uint64"
        }
      ],
      "name": "decreaseEpochLienCount",
      "outputs": [],
      "stateMutability": "nonpayable",
      "type": "function"
    },
    {
      "inputs": [
        {
          "internalType": "uint256",
          "name": "amount",
          "type": "uint256"
        }
      ],
      "name": "decreaseYIntercept",
      "outputs": [],
      "stateMutability": "nonpayable",
      "type": "function"
    },
    {
      "inputs": [
        {
          "internalType": "uint256",
          "name": "amount",
          "type": "uint256"
        },
        {
          "internalType": "address",
          "name": "receiver",
          "type": "address"
        }
      ],
      "name": "deposit",
      "outputs": [
        {
          "internalType": "uint256",
          "name": "",
          "type": "uint256"
        }
      ],
      "stateMutability": "nonpayable",
      "type": "function"
    },
    {
      "inputs": [],
      "name": "disableAllowList",
      "outputs": [],
      "stateMutability": "nonpayable",
      "type": "function"
    },
    {
      "inputs": [],
      "name": "domainSeparator",
      "outputs": [
        {
          "internalType": "bytes32",
          "name": "",
          "type": "bytes32"
        }
      ],
      "stateMutability": "view",
      "type": "function"
    },
    {
      "inputs": [],
      "name": "enableAllowList",
      "outputs": [],
      "stateMutability": "nonpayable",
      "type": "function"
    },
    {
      "inputs": [
        {
          "components": [
            {
              "internalType": "uint8",
              "name": "version",
              "type": "uint8"
            },
            {
              "internalType": "uint256",
              "name": "deadline",
              "type": "uint256"
            },
            {
              "internalType": "address",
              "name": "vault",
              "type": "address"
            }
          ],
          "internalType": "struct IAstariaRouter.StrategyDetails",
          "name": "strategy",
          "type": "tuple"
        },
        {
          "internalType": "bytes32",
          "name": "root",
          "type": "bytes32"
        }
      ],
      "name": "encodeStrategyData",
      "outputs": [
        {
          "internalType": "bytes",
          "name": "",
          "type": "bytes"
        }
      ],
      "stateMutability": "view",
      "type": "function"
    },
    {
      "inputs": [],
      "name": "getCurrentEpoch",
      "outputs": [
        {
          "internalType": "uint64",
          "name": "",
          "type": "uint64"
        }
      ],
      "stateMutability": "view",
      "type": "function"
    },
    {
      "inputs": [
        {
          "internalType": "uint256",
          "name": "epoch",
          "type": "uint256"
        }
      ],
      "name": "getEpochEnd",
      "outputs": [
        {
          "internalType": "uint64",
          "name": "",
          "type": "uint64"
        }
      ],
      "stateMutability": "pure",
      "type": "function"
    },
    {
      "inputs": [
        {
          "internalType": "uint64",
          "name": "end",
          "type": "uint64"
        }
      ],
      "name": "getLienEpoch",
      "outputs": [
        {
          "internalType": "uint64",
          "name": "",
          "type": "uint64"
        }
      ],
      "stateMutability": "pure",
      "type": "function"
    },
    {
      "inputs": [],
      "name": "getLiquidationWithdrawRatio",
      "outputs": [
        {
          "internalType": "uint256",
          "name": "",
          "type": "uint256"
        }
      ],
      "stateMutability": "view",
      "type": "function"
    },
    {
      "inputs": [],
      "name": "getShutdown",
      "outputs": [
        {
          "internalType": "bool",
          "name": "",
          "type": "bool"
        }
      ],
      "stateMutability": "view",
      "type": "function"
    },
    {
      "inputs": [],
      "name": "getSlope",
      "outputs": [
        {
          "internalType": "uint256",
          "name": "",
          "type": "uint256"
        }
      ],
      "stateMutability": "view",
      "type": "function"
    },
    {
      "inputs": [],
      "name": "getStrategistNonce",
      "outputs": [
        {
          "internalType": "uint32",
          "name": "",
          "type": "uint32"
        }
      ],
      "stateMutability": "view",
      "type": "function"
    },
    {
      "inputs": [
        {
          "internalType": "uint64",
          "name": "epoch",
          "type": "uint64"
        }
      ],
      "name": "getWithdrawProxy",
      "outputs": [
        {
          "internalType": "contract WithdrawProxy",
          "name": "",
          "type": "address"
        }
      ],
      "stateMutability": "view",
      "type": "function"
    },
    {
      "inputs": [],
      "name": "getWithdrawReserve",
      "outputs": [
        {
          "internalType": "uint256",
          "name": "",
          "type": "uint256"
        }
      ],
      "stateMutability": "view",
      "type": "function"
    },
    {
      "inputs": [],
      "name": "getYIntercept",
      "outputs": [
        {
          "internalType": "uint256",
          "name": "",
          "type": "uint256"
        }
      ],
      "stateMutability": "view",
      "type": "function"
    },
    {
      "inputs": [
        {
          "components": [
            {
              "internalType": "uint256",
              "name": "lienSlope",
              "type": "uint256"
            },
            {
              "internalType": "uint256",
              "name": "lienEnd",
              "type": "uint256"
            },
            {
              "internalType": "uint256",
              "name": "increaseYIntercept",
              "type": "uint256"
            }
          ],
          "internalType": "struct IPublicVault.BuyoutLienParams",
          "name": "params",
          "type": "tuple"
        }
      ],
      "name": "handleBuyoutLien",
      "outputs": [],
      "stateMutability": "nonpayable",
      "type": "function"
    },
    {
      "inputs": [],
      "name": "incrementNonce",
      "outputs": [],
      "stateMutability": "nonpayable",
      "type": "function"
    },
    {
      "inputs": [
        {
          "components": [
            {
              "internalType": "address",
              "name": "delegate",
              "type": "address"
            },
            {
              "internalType": "bool",
              "name": "allowListEnabled",
              "type": "bool"
            },
            {
              "internalType": "address[]",
              "name": "allowList",
              "type": "address[]"
            },
            {
              "internalType": "uint256",
              "name": "depositCap",
              "type": "uint256"
            }
          ],
          "internalType": "struct IVaultImplementation.InitParams",
          "name": "params",
          "type": "tuple"
        }
      ],
      "name": "init",
      "outputs": [],
      "stateMutability": "nonpayable",
      "type": "function"
    },
    {
      "inputs": [
        {
          "internalType": "address",
          "name": "",
          "type": "address"
        }
      ],
      "name": "maxDeposit",
      "outputs": [
        {
          "internalType": "uint256",
          "name": "",
          "type": "uint256"
        }
      ],
      "stateMutability": "view",
      "type": "function"
    },
    {
      "inputs": [
        {
          "internalType": "address",
          "name": "",
          "type": "address"
        }
      ],
      "name": "maxMint",
      "outputs": [
        {
          "internalType": "uint256",
          "name": "",
          "type": "uint256"
        }
      ],
      "stateMutability": "view",
      "type": "function"
    },
    {
      "inputs": [
        {
          "internalType": "address",
          "name": "owner",
          "type": "address"
        }
      ],
      "name": "maxRedeem",
      "outputs": [
        {
          "internalType": "uint256",
          "name": "",
          "type": "uint256"
        }
      ],
      "stateMutability": "view",
      "type": "function"
    },
    {
      "inputs": [
        {
          "internalType": "address",
          "name": "owner",
          "type": "address"
        }
      ],
      "name": "maxWithdraw",
      "outputs": [
        {
          "internalType": "uint256",
          "name": "",
          "type": "uint256"
        }
      ],
      "stateMutability": "view",
      "type": "function"
    },
    {
      "inputs": [
        {
          "internalType": "uint256",
          "name": "shares",
          "type": "uint256"
        },
        {
          "internalType": "address",
          "name": "receiver",
          "type": "address"
        }
      ],
      "name": "mint",
      "outputs": [
        {
          "internalType": "uint256",
          "name": "",
          "type": "uint256"
        }
      ],
      "stateMutability": "nonpayable",
      "type": "function"
    },
    {
      "inputs": [
        {
          "internalType": "address",
          "name": "depositor",
          "type": "address"
        },
        {
          "internalType": "bool",
          "name": "enabled",
          "type": "bool"
        }
      ],
      "name": "modifyAllowList",
      "outputs": [],
      "stateMutability": "nonpayable",
      "type": "function"
    },
    {
      "inputs": [
        {
          "internalType": "uint256",
          "name": "newCap",
          "type": "uint256"
        }
      ],
      "name": "modifyDepositCap",
      "outputs": [],
      "stateMutability": "nonpayable",
      "type": "function"
    },
    {
      "inputs": [],
      "name": "name",
      "outputs": [
        {
          "internalType": "string",
          "name": "",
          "type": "string"
        }
      ],
      "stateMutability": "view",
      "type": "function"
    },
    {
      "inputs": [
        {
          "internalType": "address",
          "name": "operator_",
          "type": "address"
        },
        {
          "internalType": "address",
          "name": "from_",
          "type": "address"
        },
        {
          "internalType": "uint256",
          "name": "tokenId_",
          "type": "uint256"
        },
        {
          "internalType": "bytes",
          "name": "data_",
          "type": "bytes"
        }
      ],
      "name": "onERC721Received",
      "outputs": [
        {
          "internalType": "bytes4",
          "name": "",
          "type": "bytes4"
        }
      ],
      "stateMutability": "pure",
      "type": "function"
    },
    {
      "inputs": [],
      "name": "owner",
      "outputs": [
        {
          "internalType": "address",
          "name": "",
          "type": "address"
        }
      ],
      "stateMutability": "pure",
      "type": "function"
    },
    {
      "inputs": [
        {
          "internalType": "address",
          "name": "owner",
          "type": "address"
        },
        {
          "internalType": "address",
          "name": "spender",
          "type": "address"
        },
        {
          "internalType": "uint256",
          "name": "value",
          "type": "uint256"
        },
        {
          "internalType": "uint256",
          "name": "deadline",
          "type": "uint256"
        },
        {
          "internalType": "uint8",
          "name": "v",
          "type": "uint8"
        },
        {
          "internalType": "bytes32",
          "name": "r",
          "type": "bytes32"
        },
        {
          "internalType": "bytes32",
          "name": "s",
          "type": "bytes32"
        }
      ],
      "name": "permit",
      "outputs": [],
      "stateMutability": "nonpayable",
      "type": "function"
    },
    {
      "inputs": [
        {
          "internalType": "uint256",
          "name": "assets",
          "type": "uint256"
        }
      ],
      "name": "previewDeposit",
      "outputs": [
        {
          "internalType": "uint256",
          "name": "",
          "type": "uint256"
        }
      ],
      "stateMutability": "view",
      "type": "function"
    },
    {
      "inputs": [
        {
          "internalType": "uint256",
          "name": "shares",
          "type": "uint256"
        }
      ],
      "name": "previewMint",
      "outputs": [
        {
          "internalType": "uint256",
          "name": "",
          "type": "uint256"
        }
      ],
      "stateMutability": "view",
      "type": "function"
    },
    {
      "inputs": [
        {
          "internalType": "uint256",
          "name": "shares",
          "type": "uint256"
        }
      ],
      "name": "previewRedeem",
      "outputs": [
        {
          "internalType": "uint256",
          "name": "",
          "type": "uint256"
        }
      ],
      "stateMutability": "view",
      "type": "function"
    },
    {
      "inputs": [
        {
          "internalType": "uint256",
          "name": "assets",
          "type": "uint256"
        }
      ],
      "name": "previewWithdraw",
      "outputs": [
        {
          "internalType": "uint256",
          "name": "",
          "type": "uint256"
        }
      ],
      "stateMutability": "view",
      "type": "function"
    },
    {
      "inputs": [],
      "name": "processEpoch",
      "outputs": [],
      "stateMutability": "nonpayable",
      "type": "function"
    },
    {
      "inputs": [],
      "name": "recipient",
      "outputs": [
        {
          "internalType": "address",
          "name": "",
          "type": "address"
        }
      ],
      "stateMutability": "view",
      "type": "function"
    },
    {
      "inputs": [
        {
          "internalType": "uint256",
          "name": "shares",
          "type": "uint256"
        },
        {
          "internalType": "address",
          "name": "receiver",
          "type": "address"
        },
        {
          "internalType": "address",
          "name": "owner",
          "type": "address"
        }
      ],
      "name": "redeem",
      "outputs": [
        {
          "internalType": "uint256",
          "name": "assets",
          "type": "uint256"
        }
      ],
      "stateMutability": "nonpayable",
      "type": "function"
    },
    {
      "inputs": [
        {
          "internalType": "uint256",
          "name": "shares",
          "type": "uint256"
        },
        {
          "internalType": "address",
          "name": "receiver",
          "type": "address"
        },
        {
          "internalType": "address",
          "name": "owner",
          "type": "address"
        },
        {
          "internalType": "uint64",
          "name": "epoch",
          "type": "uint64"
        }
      ],
      "name": "redeemFutureEpoch",
      "outputs": [
        {
          "internalType": "uint256",
          "name": "assets",
          "type": "uint256"
        }
      ],
      "stateMutability": "nonpayable",
      "type": "function"
    },
    {
      "inputs": [
        {
          "internalType": "address",
          "name": "delegate_",
          "type": "address"
        }
      ],
      "name": "setDelegate",
      "outputs": [],
      "stateMutability": "nonpayable",
      "type": "function"
    },
    {
      "inputs": [],
      "name": "shutdown",
      "outputs": [],
      "stateMutability": "nonpayable",
      "type": "function"
    },
    {
      "inputs": [
        {
          "internalType": "bytes4",
          "name": "interfaceId",
          "type": "bytes4"
        }
      ],
      "name": "supportsInterface",
      "outputs": [
        {
          "internalType": "bool",
          "name": "",
          "type": "bool"
        }
      ],
      "stateMutability": "pure",
      "type": "function"
    },
    {
      "inputs": [],
      "name": "symbol",
      "outputs": [
        {
          "internalType": "string",
          "name": "",
          "type": "string"
        }
      ],
      "stateMutability": "view",
      "type": "function"
    },
    {
      "inputs": [],
      "name": "timeToEpochEnd",
      "outputs": [
        {
          "internalType": "uint256",
          "name": "",
          "type": "uint256"
        }
      ],
      "stateMutability": "view",
      "type": "function"
    },
    {
      "inputs": [
        {
          "internalType": "uint256",
          "name": "epoch",
          "type": "uint256"
        }
      ],
      "name": "timeToEpochEnd",
      "outputs": [
        {
          "internalType": "uint256",
          "name": "",
          "type": "uint256"
        }
      ],
      "stateMutability": "view",
      "type": "function"
    },
    {
      "inputs": [],
      "name": "timeToSecondEpochEnd",
      "outputs": [
        {
          "internalType": "uint256",
          "name": "",
          "type": "uint256"
        }
      ],
      "stateMutability": "view",
      "type": "function"
    },
    {
      "inputs": [],
      "name": "totalAssets",
      "outputs": [
        {
          "internalType": "uint256",
          "name": "",
          "type": "uint256"
        }
      ],
      "stateMutability": "view",
      "type": "function"
    },
    {
      "inputs": [],
      "name": "totalSupply",
      "outputs": [
        {
          "internalType": "uint256",
          "name": "",
          "type": "uint256"
        }
      ],
      "stateMutability": "view",
      "type": "function"
    },
    {
      "inputs": [
        {
          "internalType": "address",
          "name": "to",
          "type": "address"
        },
        {
          "internalType": "uint256",
          "name": "amount",
          "type": "uint256"
        }
      ],
      "name": "transfer",
      "outputs": [
        {
          "internalType": "bool",
          "name": "",
          "type": "bool"
        }
      ],
      "stateMutability": "nonpayable",
      "type": "function"
    },
    {
      "inputs": [
        {
          "internalType": "address",
          "name": "from",
          "type": "address"
        },
        {
          "internalType": "address",
          "name": "to",
          "type": "address"
        },
        {
          "internalType": "uint256",
          "name": "amount",
          "type": "uint256"
        }
      ],
      "name": "transferFrom",
      "outputs": [
        {
          "internalType": "bool",
          "name": "",
          "type": "bool"
        }
      ],
      "stateMutability": "nonpayable",
      "type": "function"
    },
    {
      "inputs": [],
      "name": "transferWithdrawReserve",
      "outputs": [],
      "stateMutability": "nonpayable",
      "type": "function"
    },
    {
      "inputs": [
        {
          "components": [
            {
              "internalType": "uint256",
              "name": "lienEnd",
              "type": "uint256"
            }
          ],
          "internalType": "struct IPublicVault.LiquidationPaymentParams",
          "name": "params",
          "type": "tuple"
        }
      ],
      "name": "updateAfterLiquidationPayment",
      "outputs": [],
      "stateMutability": "nonpayable",
      "type": "function"
    },
    {
      "inputs": [
        {
          "internalType": "uint256",
          "name": "maxAuctionWindow",
          "type": "uint256"
        },
        {
          "components": [
            {
              "internalType": "uint256",
              "name": "lienSlope",
              "type": "uint256"
            },
            {
              "internalType": "uint256",
              "name": "newAmount",
              "type": "uint256"
            },
            {
              "internalType": "uint40",
              "name": "lienEnd",
              "type": "uint40"
            }
          ],
          "internalType": "struct IPublicVault.AfterLiquidationParams",
          "name": "params",
          "type": "tuple"
        }
      ],
      "name": "updateVaultAfterLiquidation",
      "outputs": [
        {
          "internalType": "address",
          "name": "withdrawProxyIfNearBoundary",
          "type": "address"
        }
      ],
      "stateMutability": "nonpayable",
      "type": "function"
    },
    {
      "inputs": [
        {
          "internalType": "uint256",
          "name": "assets",
          "type": "uint256"
        },
        {
          "internalType": "address",
          "name": "receiver",
          "type": "address"
        },
        {
          "internalType": "address",
          "name": "owner",
          "type": "address"
        }
      ],
      "name": "withdraw",
      "outputs": [
        {
          "internalType": "uint256",
          "name": "shares",
          "type": "uint256"
        }
      ],
      "stateMutability": "nonpayable",
      "type": "function"
    }
  ],
  "bytecode": {
    "object": "0x608060405234801561001057600080fd5b50615f5380620000216000396000f3fe608060405234801561001057600080fd5b50600436106104545760003560e01c8063834029ba11610241578063c6e6f5921161013b578063d905777e116100c3578063f1e9f4f511610087578063f1e9f4f51461095f578063f5f1f1a714610972578063f698da251461097a578063f8ba4cff14610982578063fc0e74d11461098a57600080fd5b8063d905777e1461071a578063dc2fbaee146108f6578063dd62ed3e146108fe578063dfb2b64514610944578063ef8b30f71461094c57600080fd5b8063ce96cb771161010a578063ce96cb7714610889578063cebbdf231461089c578063d4208b73146108af578063d505accf146108d0578063d5176d23146108e357600080fd5b8063c6e6f59214610848578063ca5eb5e11461085b578063cb58189d1461086e578063cd12030f1461087657600080fd5b8063ac4746ab116101c9578063ba0876521161018d578063ba0876521461081d578063ba9a061a14610830578063c0e9b05314610838578063c237c70314610840578063c63d75b61461065757600080fd5b8063ac4746ab146107df578063b19c2c70146107e7578063b3d7f6b9146107ef578063b460af9414610802578063b97dd9e21461081557600080fd5b806395d89b411161021057806395d89b41146107965780639d8f8fcc1461079e578063a3a911ba146107a6578063a9059cbb146107b9578063aaed42b7146107cc57600080fd5b8063834029ba1461076b5780638da5cb5b1461077357806390bec11d1461077b57806394bf804d1461078357600080fd5b80633644e5151161035257806351ab5c49116102da57806366d003ac1161029e57806366d003ac146106ff5780636e553f651461070757806370a082311461071a57806379c84f9c146107505780637f65a1141461075857600080fd5b806351ab5c49146106a257806359f9556e146106c9578063627cdcb9146106dc57806364e4cf3b146106e457806365612e68146106ec57600080fd5b8063402d267d11610321578063402d267d1461065757806341700b971461066c578063474a1e54146106745780634cdad506146106875780634e71d92d1461069a57600080fd5b80633644e5151461062157806338663c3f1461062957806338d52e0f1461063c5780633c96ce121461064457600080fd5b8063200298bf116103e057806330040e77116103a457806330040e7714610591578063313ce567146105ae5780633177e0fe146105c357806332fe7b26146105d6578063349f723d146105f657600080fd5b8063200298bf1461052d57806323b872dd146105355780632917e097146105485780632d4ece9d1461055b5780632d7342c01461057057600080fd5b8063095ea7b311610427578063095ea7b3146104bf5780630a28a477146104d2578063150b7a02146104e557806318160ddd1461051d5780631d5470e81461052557600080fd5b806301e1d1141461045957806301ffc9a71461047457806306fdde031461049757806307a2d13a146104ac575b600080fd5b610461610992565b6040519081526020015b60405180910390f35b61048761048236600461467e565b6109f9565b604051901515815260200161046b565b61049f610a81565b60405161046b91906146f8565b6104616104ba36600461470b565b610b14565b6104876104cd366004614739565b610b48565b6104616104e036600461470b565b610bce565b6105046104f3366004614765565b630a85bd0160e11b95945050505050565b6040516001600160e01b0319909116815260200161046b565b610461610c05565b610461610c3b565b610461610c5e565b610487610543366004614803565b610c81565b61049f61055636600461485c565b610d85565b61056e610569366004614887565b610da6565b005b61058361057e3660046148c2565b610eb0565b60405161046b929190614a66565b6105996114f8565b60405163ffffffff909116815260200161046b565b60125b60405160ff909116815260200161046b565b61056e6105d1366004614a98565b61150e565b6105de61156d565b6040516001600160a01b03909116815260200161046b565b610609610604366004614ae8565b611579565b6040516001600160401b03909116815260200161046b565b6104616115ba565b61056e610637366004614887565b6115c4565b6105de61164c565b61056e61065236600461470b565b611656565b610461610665366004614b03565b5060001990565b6105de6116be565b61056e610682366004614b20565b611729565b61046161069536600461470b565b61189c565b61056e6118a7565b6104617f679f3933bd13bd2e4ec6e9cde341ede07736ad7b635428a8a211e9cccb4393b081565b61056e6106d736600461470b565b611907565b61056e61196e565b61056e611a3c565b61056e6106fa36600461470b565b611d9a565b6105de611e2d565b610461610715366004614b5a565b611e4e565b610461610728366004614b03565b6001600160a01b03166000908152600080516020615ebe833981519152602052604090205490565b610461611fcd565b61046161076636600461470b565b611fec565b61056e61203a565b6105de612088565b610461612094565b610461610791366004614b5a565b61209e565b61049f612214565b610461612293565b6104616107b4366004614b7f565b6122ac565b6104876107c7366004614739565b6123f6565b61056e6107da366004614bd0565b61247a565b6104616124ba565b61056e6124c6565b6104616107fd36600461470b565b61298f565b610461610810366004614be2565b6129b5565b6106096129fa565b61046161082b366004614be2565b612a1a565b610461612a4a565b610487612a56565b6105b1612a73565b61046161085636600461470b565b612a7f565b61056e610869366004614b03565b612aa6565b610461612b2b565b6105de610884366004614c24565b612b37565b610461610897366004614b03565b612d3c565b6105de6108aa366004614ae8565b612d7b565b6108c26108bd366004614c51565b612db7565b60405161046b929190614c97565b61056e6108de366004614cb0565b612ef1565b6106096108f136600461470b565b613164565b61056e613198565b61046161090c366004614d21565b6001600160a01b039182166000908152600080516020615e7e8339815191526020908152604080832093909416825291909152205490565b6104616131c7565b61046161095a36600461470b565b6131e3565b61056e61096d366004614ae8565b6131ee565b6105de613247565b61046161328e565b61046161330d565b61056e61331f565b60008061099d613396565b80549091506000906109bd90600160881b900464ffffffffff1642614d65565b82549091506001600160581b038116906109e890600160581b900465ffffffffffff168360016133ba565b6109f29190614d78565b9250505090565b60006001600160e01b031982166301929e5560e11b1480610a2a57506001600160e01b0319821663043eff2d60e51b145b80610a4557506001600160e01b0319821663043eff2d60e51b145b80610a6057506001600160e01b031982166301342f9f60e31b145b80610a7b57506001600160e01b031982166301ffc9a760e01b145b92915050565b6060610a8b61164c565b6001600160a01b03166395d89b416040518163ffffffff1660e01b8152600401600060405180830381865afa158015610ac8573d6000803e3d6000fd5b505050506040513d6000823e601f3d908101601f19168201604052610af09190810190614e87565b604051602001610b009190614ef9565b604051602081830303815290604052905090565b600080610b1f610c05565b90508015610b3f57610b3a610b32610992565b8490836133ba565b610b41565b825b9392505050565b336000818152600080516020615e7e833981519152602090815260408083206001600160a01b03871680855290835281842086905590518581529293600080516020615efe83398151915293919290917f8c5be1e5ebec7d5bd14f71427d1e84f3dd0314c0f7b2291e5b200ac8c7c3b92591015b60405180910390a35060019392505050565b600080610bd9610c05565b90508015610bf557610b3a81610bed610992565b8591906133d8565b678ac7230489e800009392505050565b6000610c0f613396565b600201546001600160581b0316600080516020615efe83398151915254610c369190614d78565b905090565b6000610c45613396565b60010154600160581b90046001600160581b0316919050565b6000610c36610c6b613396565b54600160b01b90046001600160401b0316611fec565b6001600160a01b0383166000908152600080516020615e7e83398151915260209081526040808320338452909152812054600080516020615efe833981519152906000198114610cfc57610cd58482614d65565b6001600160a01b038716600090815260028401602090815260408083203384529091529020555b6001600160a01b038616600090815260018301602052604081208054869290610d26908490614d65565b90915550506001600160a01b03808616600081815260018501602052604090819020805488019055519091881690600080516020615ede83398151915290610d719088815260200190565b60405180910390a350600195945050505050565b60606000610d916133fe565b9050610d9e818585613422565b949350505050565b610dae6116be565b6001600160a01b0316336001600160a01b031614610dcb57600080fd5b6000610dd5613396565b9050610de182356134f8565b815465ffffffffffff600160581b8083048216939093031690910265ffffffffffff60581b19909116178155610e1a6040830135613511565b81546001600160581b031981166001600160581b039182169290920116178155610e4342613523565b815464ffffffffff91909116600160881b0264ffffffffff60881b19909116178155610e7e81610e796106046020860135613537565b613549565b80546040516001600160581b039091168152600080516020615e9e833981519152906020015b60405180910390a15050565b6060610eba6145c7565b610ec261156d565b6001600160a01b0316635c975abb6040518163ffffffff1660e01b8152600401602060405180830381865afa158015610eff573d6000803e3d6000fd5b505050506040513d601f19601f82011682018060405250810190610f239190614f2b565b15610f4d57600860405163eac08f1960e01b8152600401610f449190614f5e565b60405180910390fd5b610f556133fe565b60010154600160a81b900460ff1615610f8457600760405163eac08f1960e01b8152600401610f449190614f5e565b600080610f8f61156d565b6001600160a01b03166341700b976040518163ffffffff1660e01b8152600401602060405180830381865afa158015610fcc573d6000803e3d6000fd5b505050506040513d601f19601f82011682018060405250810190610ff09190614f78565b6001600160a01b03166352335c8d87878b60ff1681811061101357611013614f95565b90506101c002016040518263ffffffff1660e01b815260040161103691906150c5565b6040805180830381865afa158015611052573d6000803e3d6000fd5b505050506040513d601f19601f8201168201806040525081019061107691906150d4565b9150915061108261164c565b6040516370a0823160e01b81523060048201526001600160a01b0391909116906370a0823190602401602060405180830381865afa1580156110c8573d6000803e3d6000fd5b505050506040513d601f19601f820116820180604052508101906110ec91906150f8565b81111561110f57600460405163eac08f1960e01b8152600401610f449190614f5e565b6111208761111b611e2d565b613587565b6111a561112b61156d565b6001600160a01b03166396d6401d6040518163ffffffff1660e01b8152600401602060405180830381865afa158015611168573d6000803e3d6000fd5b505050506040513d601f19601f8201168201806040525081019061118c9190614f78565b8261119561164c565b6001600160a01b031691906139a4565b60006111af61156d565b6001600160a01b03166341700b976040518163ffffffff1660e01b8152600401602060405180830381865afa1580156111ec573d6000803e3d6000fd5b505050506040513d601f19601f820116820180604052508101906112109190614f78565b90503061121b611e2d565b6001600160a01b0316141580156112b65750806001600160a01b031663e985e9c530611245611e2d565b6040516001600160e01b031960e085901b1681526001600160a01b03928316600482015291166024820152604401602060405180830381865afa158015611290573d6000803e3d6000fd5b505050506040513d601f19601f820116820180604052508101906112b49190614f2b565b155b1561133357806001600160a01b031663a22cb4656112d2611e2d565b6040516001600160e01b031960e084901b1681526001600160a01b03909116600482015260016024820152604401600060405180830381600087803b15801561131a57600080fd5b505af115801561132e573d6000803e3d6000fd5b505050505b806001600160a01b0316639b9761fb60405180606001604052808b61135790615435565b81526020018c60ff1681526020016040518060a001604052808f81526020018d80604001906113869190615554565b60c001358152602001611397611e2d565b6001600160a01b031681526020016113ad61156d565b6001600160a01b031663f44794ca8f6113c4613a21565b6040518363ffffffff1660e01b81526004016113e192919061584b565b610120604051808303816000875af1158015611401573d6000803e3d6000fd5b505050506040513d601f19601f820116820180604052508101906114259190615917565b81526020018c8c808060200260200160405190810160405280939291908181526020016000905b828210156114795761146a6101c08302860136819003810190615934565b8152602001906001019061144c565b50505050508152508152506040518263ffffffff1660e01b81526004016114a091906159f8565b6000604051808303816000875af11580156114bf573d6000803e3d6000fd5b505050506040513d6000823e601f3d908101601f191682016040526114e79190810190615c2c565b945094505050509550959350505050565b60006115026133fe565b5463ffffffff16919050565b611516612088565b6001600160a01b0316336001600160a01b03161461153357600080fd5b8061153c6133fe565b6001600160a01b0393909316600090815260029093016020526040909220805460ff19169215159290921790915550565b6000610c366000613a3d565b6000610a7b60016115ab61158b612a4a565b6115959086615c72565b6001600160401b03166115a66124ba565b613a62565b6115b59190614d65565b613537565b6000610c36613a7a565b6115cc6116be565b6001600160a01b0316336001600160a01b0316146115e957600080fd5b60006115f3613396565b90506115fe81613a84565b5061160982356134f8565b815465ffffffffffff600160581b8083048216939093031690910265ffffffffffff60581b199091161781556116488160408401356020850135613b41565b5050565b6000610c36613bb8565b61165e612088565b6001600160a01b0316336001600160a01b03161461167b57600080fd5b61168481613511565b61168c6133fe565b80546001600160581b0392909216640100000000026effffffffffffffffffffff000000001990921691909117905550565b60006116c861156d565b6001600160a01b03166341700b976040518163ffffffff1660e01b8152600401602060405180830381865afa158015611705573d6000803e3d6000fd5b505050506040513d601f19601f82011682018060405250810190610c369190614f78565b61173161156d565b6001600160a01b0316336001600160a01b03161461174e57600080fd5b60006117586133fe565b905060006117696020840184614b03565b6001600160a01b0316146117a7576117846020830183614b03565b6001820180546001600160a01b0319166001600160a01b03929092169190911790555b6117b48260600135613511565b81546001600160581b0391909116640100000000026effffffffffffffffffffff00000000199091161781556117f06040830160208401615c99565b156116485760018101805460ff60a01b1916600160a01b17905560005b61181a6040840184615cb6565b90508110156118975760016002830160006118386040870187615cb6565b8581811061184857611848614f95565b905060200201602081019061185d9190614b03565b6001600160a01b031681526020810191909152604001600020805460ff19169115159190911790558061188f81615cff565b91505061180d565b505050565b6000610a7b82610b14565b6118af612088565b6001600160a01b0316336001600160a01b0316146118cc57600080fd5b60006118d6613396565b6002810180546001600160581b031981169091559091506001600160581b0316611648611901612088565b82613bc4565b61190f6116be565b6001600160a01b0316336001600160a01b03161461192c57600080fd5b611935816134f8565b61193d613396565b805465ffffffffffff600160581b80830482169094011690920265ffffffffffff60581b1990921691909117905550565b60006119786133fe565b9050611982612088565b6001600160a01b0316336001600160a01b0316141580156119b0575060018101546001600160a01b03163314155b156119d157600060405163eac08f1960e01b8152600401610f449190614f5e565b805463ffffffff168160006119e583615d18565b82546101009290920a63ffffffff8181021990931691831602179091558254604051911681527fd53ee127c4cc096a6aa01269ecbe5c887e5a1cbe71d83109974c55e865a0db82915060200160405180910390a150565b6000611a46613396565b8054909150600160b01b90046001600160401b031615611c4157805460009060038301908290611a8890600190600160b01b90046001600160401b0316615c72565b6001600160401b03168152602081019190915260400160002054600160401b90046001600160a01b031690508015611c3f576000611ac461164c565b6040516370a0823160e01b81523060048201526001600160a01b0391909116906370a0823190602401602060405180830381865afa158015611b0a573d6000803e3d6000fd5b505050506040513d601f19601f82011682018060405250810190611b2e91906150f8565b60018401549091506001600160581b03168110611b6857506001820180546001600160581b031981169091556001600160581b0316611b8d565b6001830180546001600160581b03808216849003166001600160581b03199091161790555b611baa8282611b9a61164c565b6001600160a01b03169190613c32565b604051630733d16f60e21b8152600481018290526001600160a01b03831690631ccf45bc90602401600060405180830381600087803b158015611bec57600080fd5b505af1158015611c00573d6000803e3d6000fd5b505050507f4fe4d5aa830b30718c35f3d40b9af9a9b42bcba60975357a1b1b40fad5c4eee481604051611c3591815260200190565b60405180910390a1505b505b8054600160b01b90046001600160401b031660009081526003820160205260409020546001820154600160401b9091046001600160a01b0316906001600160581b031615801590611c975750611c95610c5e565b155b8015611cab57506001600160a01b03811615155b156116485760018201548254600160b01b90046001600160401b039081166000190116600090815260038401602052604090819020549051630575d1a760e11b81526001600160581b039092166004830152600160401b90046001600160a01b039081166024830152611d6d9190831690630aeba34e906044016020604051808303816000875af1158015611d44573d6000803e3d6000fd5b505050506040513d601f19601f82011682018060405250810190611d6891906150f8565b613511565b60019290920180546001600160581b031981166001600160581b0391821694909403169290921790915550565b6000611da4613396565b8054909150600160b01b90046001600160401b0316611dc16116be565b6001600160a01b0316336001600160a01b03161480611e1a57508015801590611e1a5750600382016000611df6600184614d65565b8152602081019190915260400160002054600160401b90046001600160a01b031633145b611e2357600080fd5b6118978284613caa565b60006001611e39612a73565b60ff1603611e4657503090565b610c36612088565b6000611e5861156d565b6001600160a01b0316635c975abb6040518163ffffffff1660e01b8152600401602060405180830381865afa158015611e95573d6000803e3d6000fd5b505050506040513d601f19601f82011682018060405250810190611eb99190614f2b565b15611eda57600860405163eac08f1960e01b8152600401610f449190614f5e565b611ee26133fe565b60010154600160a81b900460ff1615611f1157600760405163eac08f1960e01b8152600401610f449190614f5e565b6000611f1b6133fe565b6001810154909150600160a01b900460ff1615611f59576001600160a01b038316600090815260028201602052604090205460ff16611f5957600080fd5b6000611f63610992565b825490915064010000000090046001600160581b031615801590611f995750815464010000000090046001600160581b03168110155b15611fba57600760405163683f44bb60e11b8152600401610f449190615d3b565b611fc48585613cf3565b95945050505050565b6000611fd7613396565b54600160581b900465ffffffffffff16919050565b600080611ff76124ba565b612002846001614d78565b61200c9190615d4f565b612014612a4a565b61201e9190614d78565b90508042106120305750600092915050565b610b414282614d65565b612042612088565b6001600160a01b0316336001600160a01b03161461205f57600080fd5b60006120696133fe565b6001018054911515600160a01b0260ff60a01b19909216919091179055565b6000610c366015613a3d565b6000610c36613a21565b60006120a861156d565b6001600160a01b0316635c975abb6040518163ffffffff1660e01b8152600401602060405180830381865afa1580156120e5573d6000803e3d6000fd5b505050506040513d601f19601f820116820180604052508101906121099190614f2b565b1561212a57600860405163eac08f1960e01b8152600401610f449190614f5e565b6121326133fe565b60010154600160a81b900460ff161561216157600760405163eac08f1960e01b8152600401610f449190614f5e565b600061216b6133fe565b6001810154909150600160a01b900460ff16156121a9576001600160a01b038316600090815260028201602052604090205460ff166121a957600080fd5b60006121b3610992565b825490915064010000000090046001600160581b0316158015906121e95750815464010000000090046001600160581b03168110155b1561220a57600760405163683f44bb60e11b8152600401610f449190615d3b565b611fc48585613db7565b606061221e61164c565b6001600160a01b03166395d89b416040518163ffffffff1660e01b8152600401600060405180830381865afa15801561225b573d6000803e3d6000fd5b505050506040513d6000823e601f3d908101601f191682016040526122839190810190614e87565b604051602001610b009190615d66565b600061229d613396565b546001600160581b0316919050565b6000806122b7613396565b80549091506001600160401b03600160b01b909104811690841610156122f357600060405163683f44bb60e11b8152600401610f449190615d3b565b6122ff30338189613e2c565b6123098184613eb6565b60408051838152602081018890526001600160a01b03808716929088169133917ffbde797d201c681b91056529119e0b02407c7bb96a4a2c75c01fc9667232c8db910160405180910390a46001600160401b0383166000908152600382016020526040908190205490516394bf804d60e01b8152600481018890526001600160a01b038781166024830152600160401b909204909116906394bf804d906044016020604051808303816000875af11580156123c8573d6000803e3d6000fd5b505050506040513d601f19601f820116820180604052508101906123ec91906150f8565b5050949350505050565b336000908152600080516020615ebe833981519152602052604081208054600080516020615efe8339815191529184918490612433908490614d65565b90915550506001600160a01b038416600081815260018301602052604090819020805486019055513390600080516020615ede83398151915290610bbc9087815260200190565b6124826116be565b6001600160a01b0316336001600160a01b03161461249f57600080fd5b6124b76124aa613396565b610e796106048435613537565b50565b6000610c36605d61403a565b60006124d0610c5e565b11156124f257600260405163683f44bb60e11b8152600401610f449190615d3b565b60006124fc613396565b60018101549091506001600160581b03161561252e57600360405163683f44bb60e11b8152600401610f449190615d3b565b8054600160b01b90046001600160401b03166000818152600383016020526040902054600160401b90046001600160a01b031690156126855781546000906003840190829061258f90600190600160b01b90046001600160401b0316615c72565b6001600160401b03168152602081019190915260400160002054600160401b90046001600160a01b03169050801580159061262a5750806001600160a01b031663989673b16040518163ffffffff1660e01b8152600401602060405180830381865afa158015612603573d6000803e3d6000fd5b505050506040513d601f19601f8201168201806040525081019061262791906150f8565b15155b1561268357806001600160a01b0316634e71d92d6040518163ffffffff1660e01b8152600401600060405180830381600087803b15801561266a57600080fd5b505af115801561267e573d6000803e3d6000fd5b505050505b505b81546001600160401b03600160b01b9091048116600090815260038401602052604090205416156126cc57600460405163683f44bb60e11b8152600401610f449190615d3b565b6001820180546affffffffffffffffffffff60581b191690556001600160a01b0381161561295d576000816001600160a01b03166318160ddd6040518163ffffffff1660e01b8152600401602060405180830381865afa158015612734573d6000803e3d6000fd5b505050506040513d601f19601f8201168201806040525081019061275891906150f8565b9050612779611d68670de0b6b3a7640000612771610c05565b8491906133ba565b6001840180546001600160581b0392909216600160581b026affffffffffffffffffffff60581b199092169190911790556001600160a01b038216156128285760018301546040516302177ab760e11b8152600160581b9091046001600160581b031660048201526001600160a01b0383169063042ef56e90602401600060405180830381600087803b15801561280f57600080fd5b505af1158015612823573d6000803e3d6000fd5b505050505b60006001600160a01b0383161561289e57826001600160a01b031663b701e7276040518163ffffffff1660e01b8152600401602060405180830381865afa158015612877573d6000803e3d6000fd5b505050506040513d601f19601f8201168201806040525081019061289b91906150f8565b90505b806128a7610992565b11156129015760018401546128da90611d6890600160581b90046001600160581b0316836128d3610992565b039061405c565b6001850180546001600160581b0319166001600160581b0392909216919091179055612914565b6001840180546001600160581b03191690555b600184015461295090859061294b90600160581b90046001600160581b0316670de0b6b3a7640000612944610992565b91906133ba565b613caa565b61295a3083614071565b50505b50805460016001600160401b03600160b01b808404821692909201160267ffffffffffffffff60b01b19909116179055565b60008061299a610c05565b90508015610bf557610b3a6129ad610992565b8490836133d8565b60006129c084610bce565b905060006129cc613396565b90506129f18285858460000160169054906101000a90046001600160401b03166122ac565b50509392505050565b6000612a04613396565b54600160b01b90046001600160401b0316919050565b600080612a25613396565b9050611fc48585858460000160169054906101000a90046001600160401b03166122ac565b6000610c36603d61403a565b6000612a606133fe565b60010154600160a81b900460ff16919050565b6000610c3660146140ee565b600080612a8a610c05565b90508015610b3f57610b3a81612a9e610992565b8591906133ba565b612aae612088565b6001600160a01b0316336001600160a01b031614612acb57600080fd5b6000612ad56133fe565b600180820180546001600160a01b03908116600090815260029094016020526040808520805460ff19908116909155969091168085529320805490951690911790935582546001600160a01b0319161790915550565b6000610c36607d61403a565b6000612b416116be565b6001600160a01b0316336001600160a01b031614612b5e57600080fd5b6000612b68613396565b8054909150612b9c90611d6890600160581b810465ffffffffffff1690600160881b900464ffffffffff16420360016133ba565b81546001600160581b031981166001600160581b039182169290920116178155612bc683356134f8565b815465ffffffffffff600160581b8083048216939093031690910265ffffffffffff60581b19909116178155612bfb42613523565b815464ffffffffff91909116600160881b0264ffffffffff60881b19909116178082556001600160401b03600160b01b9091041615612c3c57612c3c611a3c565b6000612c5d612c516060860160408701615d94565b64ffffffffff16611579565b9050612c698282613549565b6000612c7d826001600160401b0316611fec565b905085811015612cbf57612c918383613eb6565b6001600160401b0382166000908152600384016020526040902054600160401b90046001600160a01b031693505b6001600160a01b03841615612d33576040516359a13ae560e01b815260208601356004820152602481018790526001600160a01b038516906359a13ae590604401600060405180830381600087803b158015612d1a57600080fd5b505af1158015612d2e573d6000803e3d6000fd5b505050505b50505092915050565b6001600160a01b0381166000908152600080516020615ebe8339815191526020526040812054600080516020615efe83398151915290610b4190610b14565b6000612d85613396565b6001600160401b039290921660009081526003909201602052506040902054600160401b90046001600160a01b031690565b60006060612dc361156d565b6001600160a01b0316635c975abb6040518163ffffffff1660e01b8152600401602060405180830381865afa158015612e00573d6000803e3d6000fd5b505050506040513d601f19601f82011682018060405250810190612e249190614f2b565b15612e4557600860405163eac08f1960e01b8152600401610f449190614f5e565b612e4d6133fe565b60010154600160a81b900460ff1615612e7c57600760405163eac08f1960e01b8152600401610f449190614f5e565b612e868484614113565b6000612e928585614151565b81519295509093509150612ee9908390612eae90600190614d65565b81518110612ebe57612ebe614f95565b6020026020010151602001516060015184878060400190612edf9190615554565b60c001358461421d565b509250929050565b42841015612f415760405162461bcd60e51b815260206004820152601760248201527f5045524d49545f444541444c494e455f455850495245440000000000000000006044820152606401610f44565b60006001612f4d6115ba565b6001600160a01b03808b1660008181527f6c9d8be213da072972500acecface6c6d1d5ffbaace52819bc37703107293595602090815260409182902080546001810190915582517f6e71edae12b1b97f4d1f60370fef10105fa2faae0126114a169c64845d6126c98184015280840194909452938d166060840152608083018c905260a083019390935260c08083018b90528151808403909101815260e08301909152805192019190912061190160f01b6101008301526101028201929092526101228101919091526101420160408051601f198184030181528282528051602091820120600084529083018083525260ff871690820152606081018590526080810184905260a0016020604051602081039080840390855afa158015613078573d6000803e3d6000fd5b5050604051601f1901519150506001600160a01b038116158015906130ae5750876001600160a01b0316816001600160a01b0316145b6130eb5760405162461bcd60e51b815260206004820152600e60248201526d24a72b20a624a22fa9a4a3a722a960911b6044820152606401610f44565b6001600160a01b039081166000908152600080516020615e7e833981519152602090815260408083208a8516808552908352928190208990558051898152905192938b16927f8c5be1e5ebec7d5bd14f71427d1e84f3dd0314c0f7b2291e5b200ac8c7c3b925929181900390910190a350505050505050565b6000610a7b6131716124ba565b61317c846001614d78565b6131869190615d4f565b61318e612a4a565b6115b59190614d78565b6131a0612088565b6001600160a01b0316336001600160a01b0316146131bd57600080fd5b60016120696133fe565b60006131d1613396565b600101546001600160581b0316919050565b6000610a7b82612a7f565b6131f661156d565b6001600160a01b0316336001600160a01b0316148061322d57506132186116be565b6001600160a01b0316336001600160a01b0316145b61323657600080fd5b6124b7613241613396565b82613549565b600061325161156d565b6001600160a01b031663f5f1f1a76040518163ffffffff1660e01b8152600401602060405180830381865afa158015611705573d6000803e3d6000fd5b604080517f2aef22f9d7df5f9d21c56d14029233f3fdaa91917727e1eb68e504d27072d6cd60208201527f044852b2a670ade5407e78fb2863c51de9fcb96542a07186fe3aeda6bb8a116d9181019190915246606082015230608082015260009060a00160405160208183030381529060405280519060200120905090565b6000610c3661331a613396565b613a84565b613327612088565b6001600160a01b0316336001600160a01b03161461334457600080fd5b600161334e6133fe565b6001018054911515600160a81b0260ff60a81b199092169190911790556040517f43849b84f1a1ce86ba1205cd8a5d4fa1563bca4b169db452674f94b4b6ddaa6990600090a1565b7fc8b9e850684c861cb4124c86f9eebbd425d1f899eefe14aef183cd9cd8e16ef090565b60008260001904841183021582026133d157600080fd5b5091020490565b60008260001904841183021582026133ef57600080fd5b50910281810615159190040190565b7f8db05f23e24c991e45d8dd3599daf8e419ee5ab93565cf65b18905286a24ec1490565b8254604051606091600091613487917f679f3933bd13bd2e4ec6e9cde341ede07736ad7b635428a8a211e9cccb4393b09163ffffffff909116906020808901359188910193845263ffffffff9290921660208401526040830152606082015260800190565b60408051601f1981840301815291905280516020909101209050601960f81b600160f81b6134b361328e565b6040516001600160f81b031993841660208201529290911660218301526022820152604281018290526062016040516020818303038152906040529150509392505050565b60006601000000000000821061350d57600080fd5b5090565b6000600160581b821061350d57600080fd5b600065010000000000821061350d57600080fd5b6000600160401b821061350d57600080fd5b6001600160401b0390811660009081526003909201602052604090912080546000198184160190921667ffffffffffffffff19909216919091179055565b60006135e16020840180359061359d9086614b03565b6040805160609290921b6bffffffffffffffffffffffff19166020808401919091526034808401949094528151808403909401845260549092019052815191012090565b905060006135ed613247565b6040516331a9108f60e11b8152600481018490529091506000906001600160a01b03831690636352211e90602401602060405180830381865afa158015613638573d6000803e3d6000fd5b505050506040513d601f19601f8201168201806040525081019061365c9190614f78565b60405163020604bf60e21b8152600481018590529091506000906001600160a01b0384169063081812fc90602401602060405180830381865afa1580156136a7573d6000803e3d6000fd5b505050506040513d601f19601f820116820180604052508101906136cb9190614f78565b9050336001600160a01b038316148015906136f85750816001600160a01b0316856001600160a01b031614155b80156137165750806001600160a01b0316856001600160a01b031614155b8015613793575061372561156d565b604051630642194560e41b81526001600160a01b0387811660048301529190911690636421945090602401602060405180830381865afa15801561376d573d6000803e3d6000fd5b505050506040513d601f19601f820116820180604052508101906137919190614f2b565b155b15613845576001600160a01b038116156137ca57846001600160a01b0316816001600160a01b0316146137c557600080fd5b613845565b60405163e985e9c560e01b81526001600160a01b038381166004830152868116602483015284169063e985e9c590604401602060405180830381865afa158015613818573d6000803e3d6000fd5b505050506040513d601f19601f8201168201806040525081019061383c9190614f2b565b61384557600080fd5b600061384f6133fe565b9050600060016138878361386660408c018c615554565b61387360408d018d615554565b6138819060a0810190615db1565b35613422565b805160209091012061389c60408b018b615554565b6138ae9061010081019060e001615dc7565b6138bb60408c018c615554565b61010001356138cd60408d018d615554565b6040805160008152602081018083529590955260ff9093169284019290925260608301526101200135608082015260a0016020604051602081039080840390855afa158015613920573d6000803e3d6000fd5b505050602060405103519050613934612088565b6001600160a01b0316816001600160a01b031614158015613965575060018201546001600160a01b03828116911614155b801561397957506001600160a01b03811615155b1561399a57600160405163eac08f1960e01b8152600401610f449190614f5e565b5050505050505050565b600060405163095ea7b360e01b8152836004820152826024820152602060006044836000895af13d15601f3d1160016000511416171691505080613a1b5760405162461bcd60e51b815260206004820152600e60248201526d1054141493d59157d1905253115160921b6044820152606401610f44565b50505050565b6000613a2b6124ba565b613a33610c5e565b610c369190614d78565b600080613a54600119368181013560f01c90030190565b929092013560601c92915050565b600081613a6e57600080fd5b50808204910615150190565b6000610c3661328e565b8054600090613ab890611d6890600160881b810464ffffffffff16420390600160581b900465ffffffffffff1660016133ba565b82546001600160581b031981166001600160581b039182169290920116178255613ae142613523565b825464ffffffffff91909116600160881b0264ffffffffff60881b198216811784556040516001600160581b0391821691909216178152600080516020615e9e8339815191529060200160405180910390a150546001600160581b031690565b6000613b4b612b2b565b14611897576000828211613b5f5781613b61565b825b90506000613b7a613b70612b2b565b83906103e86133ba565b9050613b88611d6882612a7f565b6002860180546001600160581b038082169093019092166001600160581b03199092169190911790555050505050565b6000610c366029613a3d565b600080516020615efe833981519152805482908290600090613be7908490614d78565b90915550506001600160a01b0383166000818152600183016020908152604080832080548701905551858152600080516020615ede83398151915291015b60405180910390a3505050565b600060405163a9059cbb60e01b8152836004820152826024820152602060006044836000895af13d15601f3d1160016000511416171691505080613a1b5760405162461bcd60e51b815260206004820152600f60248201526e1514905394d1915497d19052531151608a1b6044820152606401610f44565b613cb381613511565b82546001600160581b031981166001600160581b0391821692909203169081178355604051908152600080516020615e9e83398151915290602001610ea4565b6000613cfe836131e3565b905080600003613d3e5760405162461bcd60e51b815260206004820152600b60248201526a5a45524f5f53484152455360a81b6044820152606401610f44565b613d5d333085613d4c61164c565b6001600160a01b0316929190613e2c565b613d678282613bc4565b60408051848152602081018390526001600160a01b0384169133917fdcbc1c05240f31ff3ad067ef1ee35ce4997762752e3a095284754544f4c709d7910160405180910390a3610a7b8382614340565b6000613dc28361298f565b9050613dd2333083613d4c61164c565b613ddc8284613bc4565b60408051828152602081018590526001600160a01b0384169133917fdcbc1c05240f31ff3ad067ef1ee35ce4997762752e3a095284754544f4c709d7910160405180910390a3610a7b8184614340565b60006040516323b872dd60e01b81528460048201528360248201528260448201526020600060648360008a5af13d15601f3d1160016000511416171691505080613eaf5760405162461bcd60e51b81526020600482015260146024820152731514905394d1915497d19493d357d1905253115160621b6044820152606401610f44565b5050505050565b6001600160401b0381166000908152600383016020526040902054600160401b90046001600160a01b031661164857613fee613ef061156d565b6001600160a01b0316631ff0c9d66040518163ffffffff1660e01b8152600401602060405180830381865afa158015613f2d573d6000803e3d6000fd5b505050506040513d601f19601f82011682018060405250810190613f519190614f78565b613f5961156d565b600230613f6461164c565b30613f70886001615de4565b604051606096871b6bffffffffffffffffffffffff19908116602083015260f89690961b6001600160f81b031916603482015293861b8516603585015291851b8416604984015290931b909116605d82015260c09190911b6001600160c01b031916607182015260790160405160208183030381529060405261439d565b6001600160401b0382166000908152600384016020526040902080546001600160a01b0392909216600160401b0268010000000000000000600160e01b03199092169190911790555050565b600080614051600119368181013560f01c90030190565b929092013592915050565b6000610b418383670de0b6b3a76400006133ba565b6001600160a01b0382166000908152600080516020615ebe833981519152602052604081208054600080516020615efe833981519152928492916140b6908490614d65565b9091555050805482900381556040518281526000906001600160a01b03851690600080516020615ede83398151915290602001613c25565b600080614105600119368181013560f01c90030190565b929092013560f81c92915050565b600061411d613396565b90506000614129610c5e565b03614136576118976124c6565b60018101546001600160581b03161561189757611897611a3c565b6000606060006141618585613587565b61416961156d565b6001600160a01b03166322d51d7e86614180611e2d565b6040518363ffffffff1660e01b815260040161419d929190615e04565b6000604051808303816000875af11580156141bc573d6000803e3d6000fd5b505050506040513d6000823e601f3d908101601f191682016040526141e49190810190615e2e565b9194509250905060006142066141fd6040880188615554565b60c001356144af565b90506142158582611b9a61164c565b509250925092565b6000614227613396565b905061423281613a84565b5061423c826134f8565b815465ffffffffffff600160581b80830482169093011690910265ffffffffffff60581b19909116178155600061427964ffffffffff8716611579565b6001600160401b0381811660009081526003850160205260409020805480831660010190921667ffffffffffffffff1990921691909117905590508154600160881b900464ffffffffff166000036142f7576142d442613523565b825464ffffffffff91909116600160881b0264ffffffffff60881b199091161782555b604080518681526001600160401b03831660208201527f62a344dd82c6dba4b37f8fd2af14110b8674bb9abdca665ff3b06692935bbee1910160405180910390a1505050505050565b600061434a613396565b905061435583613511565b81546001600160581b031981166001600160581b0391821692909201169081178255604051908152600080516020615e9e8339815191529060200160405180910390a1505050565b8051604051606160f81b81526039820160f081811b60018401526f3d81600a3d39f33d3d3d3d363d3d376160801b600384015260028401901b601383018190526560373639366160d01b6015840152601b83015262013d7360e81b601d830152606085901b6020808401919091526c5af43d3d93803e603557fd5bf360981b60348401526000939260438401929186019084604182015b602082106144535783518152602093840193601f199092019101614434565b835160001960208490036101000a0119908116825260f088901b91830191825286846000f098506001600160a01b0389166144a157604051631d7fde3160e31b815260040160405180910390fd5b505050505050505092915050565b6000806144ba61156d565b6001600160a01b031663017e7e586040518163ffffffff1660e01b81526004016020604051808303816000875af11580156144f9573d6000803e3d6000fd5b505050506040513d601f19601f8201168201806040525081019061451d9190614f78565b90506001600160a01b038116158015906145bf57600061453b61156d565b6001600160a01b0316630f0245ad866040518263ffffffff1660e01b815260040161456891815260200190565b602060405180830381865afa158015614585573d6000803e3d6000fd5b505050506040513d601f19601f820116820180604052508101906145a991906150f8565b905080850394506145bd8382611b9a61164c565b505b509192915050565b60405180604001604052806145da614610565b81526040805160a0810182526000808252602082810182905292820181905260608201819052608082015291015290565b905290565b6040518060a0016040528060006001600160a01b0316815260200160006001600160a01b03168152602001600080191681526020016000815260200161460b6040518060a0016040528060008152602001600081526020016000815260200160008152602001600081525090565b60006020828403121561469057600080fd5b81356001600160e01b031981168114610b4157600080fd5b60005b838110156146c35781810151838201526020016146ab565b50506000910152565b600081518084526146e48160208601602086016146a8565b601f01601f19169290920160200192915050565b602081526000610b4160208301846146cc565b60006020828403121561471d57600080fd5b5035919050565b6001600160a01b03811681146124b757600080fd5b6000806040838503121561474c57600080fd5b823561475781614724565b946020939093013593505050565b60008060008060006080868803121561477d57600080fd5b853561478881614724565b9450602086013561479881614724565b93506040860135925060608601356001600160401b03808211156147bb57600080fd5b818801915088601f8301126147cf57600080fd5b8135818111156147de57600080fd5b8960208285010111156147f057600080fd5b9699959850939650602001949392505050565b60008060006060848603121561481857600080fd5b833561482381614724565b9250602084013561483381614724565b929592945050506040919091013590565b60006060828403121561485657600080fd5b50919050565b6000806080838503121561486f57600080fd5b6148798484614844565b946060939093013593505050565b60006060828403121561489957600080fd5b610b418383614844565b60ff811681146124b757600080fd5b80356148bd816148a3565b919050565b6000806000806000608086880312156148da57600080fd5b8535945060208601356148ec816148a3565b935060408601356001600160401b038082111561490857600080fd5b61491489838a01614844565b9450606088013591508082111561492a57600080fd5b818801915088601f83011261493e57600080fd5b81358181111561494d57600080fd5b8960206101c0830285010111156147f057600080fd5b80516001600160a01b0390811683526020808301519091168184015260408083015181850152606080840151818601526080938401518051858701529283015160a08601529082015160c085015281015160e0840152015161010090910152565b6149cf828251614963565b60209081015180516001600160581b03166101208401529081015160ff16610140830152604081015164ffffffffff908116610160840152606082015116610180830152608001516101a090910152565b600081518084526020808501945080840160005b83811015614a5b57614a478783516149c4565b6101c0969096019590820190600101614a34565b509495945050505050565b60006101e0808352614a7a81840186614a20565b915050610b4160208301846149c4565b80151581146124b757600080fd5b60008060408385031215614aab57600080fd5b8235614ab681614724565b91506020830135614ac681614a8a565b809150509250929050565b80356001600160401b03811681146148bd57600080fd5b600060208284031215614afa57600080fd5b610b4182614ad1565b600060208284031215614b1557600080fd5b8135610b4181614724565b600060208284031215614b3257600080fd5b81356001600160401b03811115614b4857600080fd5b820160808185031215610b4157600080fd5b60008060408385031215614b6d57600080fd5b823591506020830135614ac681614724565b60008060008060808587031215614b9557600080fd5b843593506020850135614ba781614724565b92506040850135614bb781614724565b9150614bc560608601614ad1565b905092959194509250565b60006020828403121561485657600080fd5b600080600060608486031215614bf757600080fd5b833592506020840135614c0981614724565b91506040840135614c1981614724565b809150509250925092565b60008060808385031215614c3757600080fd5b82359150614c488460208501614844565b90509250929050565b60008060408385031215614c6457600080fd5b82356001600160401b03811115614c7a57600080fd5b614c8685828601614844565b9250506020830135614ac681614724565b828152604060208201526000610d9e6040830184614a20565b600080600080600080600060e0888a031215614ccb57600080fd5b8735614cd681614724565b96506020880135614ce681614724565b955060408801359450606088013593506080880135614d04816148a3565b9699959850939692959460a0840135945060c09093013592915050565b60008060408385031215614d3457600080fd5b8235614d3f81614724565b91506020830135614ac681614724565b634e487b7160e01b600052601160045260246000fd5b81810381811115610a7b57610a7b614d4f565b80820180821115610a7b57610a7b614d4f565b634e487b7160e01b600052604160045260246000fd5b604051606081016001600160401b0381118282101715614dc357614dc3614d8b565b60405290565b60405160a081016001600160401b0381118282101715614dc357614dc3614d8b565b604080519081016001600160401b0381118282101715614dc357614dc3614d8b565b60405161010081016001600160401b0381118282101715614dc357614dc3614d8b565b604051601f8201601f191681016001600160401b0381118282101715614e5857614e58614d8b565b604052919050565b60006001600160401b03821115614e7957614e79614d8b565b50601f01601f191660200190565b600060208284031215614e9957600080fd5b81516001600160401b03811115614eaf57600080fd5b8201601f81018413614ec057600080fd5b8051614ed3614ece82614e60565b614e30565b818152856020838501011115614ee857600080fd5b611fc48260208301602086016146a8565b694153542d5661756c742d60b01b815260008251614f1e81600a8501602087016146a8565b91909101600a0192915050565b600060208284031215614f3d57600080fd5b8151610b4181614a8a565b634e487b7160e01b600052602160045260246000fd5b6020810160098310614f7257614f72614f48565b91905290565b600060208284031215614f8a57600080fd5b8151610b4181614724565b634e487b7160e01b600052603260045260246000fd5b6001600160581b03811681146124b757600080fd5b64ffffffffff811681146124b757600080fd5b8035614fde81614fab565b6001600160581b031682526020810135614ff7816148a3565b60ff166020830152604081013561500d81614fc0565b64ffffffffff908116604084015260608201359061502a82614fc0565b166060830152608090810135910152565b803561504681614724565b6001600160a01b03908116835260208201359061506282614724565b8082166020850152505060408101356040830152606081013560608301526080810135608083015260a081013560a083015260c081013560c083015260e081013560e0830152610100808201358184015250610120611897818401828401614fd3565b6101c08101610a7b828461503b565b600080604083850312156150e757600080fd5b505080516020909101519092909150565b60006020828403121561510a57600080fd5b5051919050565b60006060828403121561512357600080fd5b61512b614da1565b90508135615138816148a3565b815260208281013590820152604082013561515281614724565b604082015292915050565b60006001600160401b0382111561517657615176614d8b565b5060051b60200190565b600060a0828403121561519257600080fd5b61519a614dc9565b905081356151a781614fab565b815260208201356151b7816148a3565b602082015260408201356151ca81614fc0565b604082015260608201356151dd81614fc0565b806060830152506080820135608082015292915050565b60008183036101c081121561520857600080fd5b615210614deb565b91506101208082121561522257600080fd5b61522a614dc9565b843561523581614724565b8152602085013561524581614724565b6020820152604085810135908201526060808601359082015260a0607f198401121561527057600080fd5b615278614dc9565b92506080850135835260a0850135602084015260c0850135604084015260e085013560608401526101008501356080840152826080820152808452506152c085828601615180565b6020840152505092915050565b600082601f8301126152de57600080fd5b813560206152ee614ece8361515d565b8281526101c0928302850182019282820191908785111561530e57600080fd5b8387015b858110156153315761532489826151f4565b8452928401928101615312565b5090979650505050505050565b600082601f83011261534f57600080fd5b813561535d614ece82614e60565b81815284602083860101111561537257600080fd5b816020850160208301376000918101602001919091529392505050565b6000604082840312156153a157600080fd5b6153a9614deb565b9050813581526020808301356001600160401b038111156153c957600080fd5b8301601f810185136153da57600080fd5b80356153e8614ece8261515d565b81815260059190911b8201830190838101908783111561540757600080fd5b928401925b828410156154255783358252928401929084019061540c565b8085870152505050505092915050565b60006060823603121561544757600080fd5b61544f614da1565b823561545a81614724565b81526020838101359082015260408301356001600160401b038082111561548057600080fd5b8185019150610140823603121561549657600080fd5b61549e614e0d565b6154a83684615111565b81526060830135828111156154bc57600080fd5b6154c8368286016152cd565b6020830152506080830135828111156154e057600080fd5b6154ec3682860161533e565b60408301525060a08301358281111561550457600080fd5b6155103682860161538f565b60608301525060c0830135608082015261552c60e084016148b2565b60a082015261010083013560c08201526101209092013560e083015250604082015292915050565b6000823561013e1983360301811261556b57600080fd5b9190910192915050565b6000808335601e1984360301811261558c57600080fd5b83016020810192503590506001600160401b038111156155ab57600080fd5b6101c0810236038213156155be57600080fd5b9250929050565b81835260208301925060008160005b848110156155fa576155e6868361503b565b6101c09586019591909101906001016155d4565b5093949350505050565b6000808335601e1984360301811261561b57600080fd5b83016020810192503590506001600160401b0381111561563a57600080fd5b8036038213156155be57600080fd5b81835281816020850137506000828201602090810191909152601f909101601f19169091010190565b60008235603e1983360301811261568857600080fd5b90910192915050565b8035825260006020820135601e198336030181126156ae57600080fd5b82016020810190356001600160401b038111156156ca57600080fd5b8060051b8036038313156156dd57600080fd5b60406020870181905286018290526001600160fb1b038211156156ff57600080fd5b8083606088013794909401606001949350505050565b6000813561572281614724565b6001600160a01b039081168452602083810135908501526040830135903684900361013e1901821261575357600080fd5b60606040860152908301908135615769816148a3565b60ff16606086015260208201356080860152604082013561578981614724565b1660a085015261579c6060820182615575565b6101408060c08801526157b46101a0880183856155c5565b92506157c36080850185615604565b9250605f19808986030160e08a01526157dd858584615649565b94506157ec60a0870187615672565b935061010091508089860301828a0152506158078484615691565b9350610120925060c08501358389015261582360e086016148b2565b60ff811689840152508401356101608801525090910135610180909401939093525090919050565b60408152600061585e6040830185615715565b90508260208301529392505050565b600081830361012081121561588157600080fd5b615889614dc9565b9150825161589681614724565b825260208301516158a681614724565b6020830152604083810151908301526060808401519083015260a0607f19820112156158d157600080fd5b506158da614dc9565b6080830151815260a0830151602082015260c0830151604082015260e0830151606082015261010083015160808201528060808301525092915050565b6000610120828403121561592a57600080fd5b610b41838361586d565b60006101c0828403121561594757600080fd5b610b4183836151f4565b600060408301825184526020808401516040828701528281518085526060880191508383019450600092505b8083101561599d578451825293830193600192909201919083019061597d565b509695505050505050565b60006101a0825184526020830151602085015260018060a01b03604084015116604085015260608301516159df6060860182614963565b50608083015181610180860152611fc482860182614a20565b60208152600082516060602084015260018060a01b038151166080840152602081015160a084015260408101519050606060c0840152615a5c60e084018251805160ff168252602080820151908301526040908101516001600160a01b0316910152565b602081015161014084810152615a76610220850182614a20565b9050604082015160df198086840301610160870152615a9583836146cc565b925060608401519150808684030161018087015250615ab48282615951565b91505060808201516101a085015260a0820151615ad76101c086018260ff169052565b5060c08201516101e085015260e090910151610200840152602084015160ff81166040850152906040850151848203601f190160608601529150611fc481836159a8565b60008183036101c0811215615b2f57600080fd5b615b37614deb565b9150615b43848461586d565b825260a061011f1982011215615b5857600080fd5b50615b61614dc9565b610120830151615b7081614fab565b8152610140830151615b81816148a3565b6020820152610160830151615b9581614fc0565b6040820152610180830151615ba981614fc0565b806060830152506101a083015160808201528060208301525092915050565b600082601f830112615bd957600080fd5b81516020615be9614ece8361515d565b8281526101c09283028501820192828201919087851115615c0957600080fd5b8387015b8581101561533157615c1f8982615b1b565b8452928401928101615c0d565b6000806101e08385031215615c4057600080fd5b82516001600160401b03811115615c5657600080fd5b615c6285828601615bc8565b925050614c488460208501615b1b565b6001600160401b03828116828216039080821115615c9257615c92614d4f565b5092915050565b600060208284031215615cab57600080fd5b8135610b4181614a8a565b6000808335601e19843603018112615ccd57600080fd5b8301803591506001600160401b03821115615ce757600080fd5b6020019150600581901b36038213156155be57600080fd5b600060018201615d1157615d11614d4f565b5060010190565b600063ffffffff808316818103615d3157615d31614d4f565b6001019392505050565b6020810160088310614f7257614f72614f48565b8082028115828204841417610a7b57610a7b614d4f565b654153542d562d60d01b815260008251615d878160068501602087016146a8565b9190910160060192915050565b600060208284031215615da657600080fd5b8135610b4181614fc0565b60008235603e1983360301811261556b57600080fd5b600060208284031215615dd957600080fd5b8135610b41816148a3565b6001600160401b03818116838216019080821115615c9257615c92614d4f565b604081526000615e176040830185615715565b905060018060a01b03831660208301529392505050565b600080600060608486031215615e4357600080fd5b8351925060208401516001600160401b03811115615e6057600080fd5b615e6c86828701615bc8565b92505060408401519050925092509256fe6c9d8be213da072972500acecface6c6d1d5ffbaace52819bc37703107293594d5e974b6c90a131480bfd514ad96b2f64e176d65b1abf41f902e897dc991e2156c9d8be213da072972500acecface6c6d1d5ffbaace52819bc37703107293593ddf252ad1be2c89b69c2b068fc378daa952ba7f163c4a11628f55a4df523b3ef6c9d8be213da072972500acecface6c6d1d5ffbaace52819bc37703107293592a2646970667358221220de6dd389f1e9d8ec4959f9d3e569aef44e79a0a43831fc170b3a40a703a1cf1364736f6c63430008110033",
    "linkReferences": {}
  },
  "methodIdentifiers": {
    "COLLATERAL_TOKEN()": "f5f1f1a7",
    "DOMAIN_SEPARATOR()": "3644e515",
    "EPOCH_LENGTH()": "ac4746ab",
    "IMPL_TYPE()": "c237c703",
    "LIEN_TOKEN()": "41700b97",
    "ROUTER()": "32fe7b26",
    "START()": "ba9a061a",
    "STRATEGY_TYPEHASH()": "51ab5c49",
    "VAULT_FEE()": "cb58189d",
    "accrue()": "f8ba4cff",
    "afterPayment(uint256)": "59f9556e",
    "allowance(address,address)": "dd62ed3e",
    "approve(address,uint256)": "095ea7b3",
    "asset()": "38d52e0f",
    "balanceOf(address)": "70a08231",
    "beforePayment((uint256,uint256,uint256))": "38663c3f",
    "buyoutLien(uint256,uint8,(address,uint256,((uint8,uint256,address),((address,address,bytes32,uint256,(uint256,uint256,uint256,uint256,uint256)),(uint88,uint8,uint40,uint40,uint256))[],bytes,(bytes32,bytes32[]),uint256,uint8,bytes32,bytes32)),((address,address,bytes32,uint256,(uint256,uint256,uint256,uint256,uint256)),(uint88,uint8,uint40,uint40,uint256))[])": "2d7342c0",
    "claim()": "4e71d92d",
    "commitToLien((address,uint256,((uint8,uint256,address),((address,address,bytes32,uint256,(uint256,uint256,uint256,uint256,uint256)),(uint88,uint8,uint40,uint40,uint256))[],bytes,(bytes32,bytes32[]),uint256,uint8,bytes32,bytes32)),address)": "d4208b73",
    "convertToAssets(uint256)": "07a2d13a",
    "convertToShares(uint256)": "c6e6f592",
    "decimals()": "313ce567",
    "decreaseEpochLienCount(uint64)": "f1e9f4f5",
    "decreaseYIntercept(uint256)": "65612e68",
    "deposit(uint256,address)": "6e553f65",
    "disableAllowList()": "834029ba",
    "domainSeparator()": "f698da25",
    "enableAllowList()": "dc2fbaee",
    "encodeStrategyData((uint8,uint256,address),bytes32)": "2917e097",
    "getCurrentEpoch()": "b97dd9e2",
    "getEpochEnd(uint256)": "d5176d23",
    "getLienEpoch(uint64)": "349f723d",
    "getLiquidationWithdrawRatio()": "1d5470e8",
    "getShutdown()": "c0e9b053",
    "getSlope()": "79c84f9c",
    "getStrategistNonce()": "30040e77",
    "getWithdrawProxy(uint64)": "cebbdf23",
    "getWithdrawReserve()": "dfb2b645",
    "getYIntercept()": "9d8f8fcc",
    "handleBuyoutLien((uint256,uint256,uint256))": "2d4ece9d",
    "incrementNonce()": "627cdcb9",
    "init((address,bool,address[],uint256))": "474a1e54",
    "maxDeposit(address)": "402d267d",
    "maxMint(address)": "c63d75b6",
    "maxRedeem(address)": "d905777e",
    "maxWithdraw(address)": "ce96cb77",
    "mint(uint256,address)": "94bf804d",
    "modifyAllowList(address,bool)": "3177e0fe",
    "modifyDepositCap(uint256)": "3c96ce12",
    "name()": "06fdde03",
    "onERC721Received(address,address,uint256,bytes)": "150b7a02",
    "owner()": "8da5cb5b",
    "permit(address,address,uint256,uint256,uint8,bytes32,bytes32)": "d505accf",
    "previewDeposit(uint256)": "ef8b30f7",
    "previewMint(uint256)": "b3d7f6b9",
    "previewRedeem(uint256)": "4cdad506",
    "previewWithdraw(uint256)": "0a28a477",
    "processEpoch()": "b19c2c70",
    "recipient()": "66d003ac",
    "redeem(uint256,address,address)": "ba087652",
    "redeemFutureEpoch(uint256,address,address,uint64)": "a3a911ba",
    "setDelegate(address)": "ca5eb5e1",
    "shutdown()": "fc0e74d1",
    "supportsInterface(bytes4)": "01ffc9a7",
    "symbol()": "95d89b41",
    "timeToEpochEnd()": "200298bf",
    "timeToEpochEnd(uint256)": "7f65a114",
    "timeToSecondEpochEnd()": "90bec11d",
    "totalAssets()": "01e1d114",
    "totalSupply()": "18160ddd",
    "transfer(address,uint256)": "a9059cbb",
    "transferFrom(address,address,uint256)": "23b872dd",
    "transferWithdrawReserve()": "64e4cf3b",
    "updateAfterLiquidationPayment((uint256))": "aaed42b7",
    "updateVaultAfterLiquidation(uint256,(uint256,uint256,uint40))": "cd12030f",
    "withdraw(uint256,address,address)": "b460af94"
  },
  "id": 134
}