{
  "abi": [
    {
      "inputs": [],
      "name": "CreateFail",
      "type": "error"
    },
    {
      "inputs": [
        {
          "internalType": "enum IVaultImplementation.InvalidRequestReason",
          "name": "reason",
          "type": "uint8"
        }
      ],
      "name": "InvalidRequest",
      "type": "error"
    },
    {
      "inputs": [
        {
          "internalType": "enum IPublicVault.InvalidStates",
          "name": "",
          "type": "uint8"
        }
      ],
      "name": "InvalidState",
      "type": "error"
    },
    {
      "anonymous": false,
      "inputs": [
        {
          "indexed": false,
          "internalType": "bool",
          "name": "",
          "type": "bool"
        }
      ],
      "name": "AllowListEnabled",
      "type": "event"
    },
    {
      "anonymous": false,
      "inputs": [
        {
          "indexed": false,
          "internalType": "address",
          "name": "",
          "type": "address"
        },
        {
          "indexed": false,
          "internalType": "bool",
          "name": "",
          "type": "bool"
        }
      ],
      "name": "AllowListUpdated",
      "type": "event"
    },
    {
      "anonymous": false,
      "inputs": [
        {
          "indexed": true,
          "internalType": "address",
          "name": "owner",
          "type": "address"
        },
        {
          "indexed": true,
          "internalType": "address",
          "name": "spender",
          "type": "address"
        },
        {
          "indexed": false,
          "internalType": "uint256",
          "name": "value",
          "type": "uint256"
        }
      ],
      "name": "Approval",
      "type": "event"
    },
    {
      "anonymous": false,
      "inputs": [
        {
          "indexed": false,
          "internalType": "address",
          "name": "",
          "type": "address"
        }
      ],
      "name": "DelegateUpdated",
      "type": "event"
    },
    {
      "anonymous": false,
      "inputs": [
        {
          "indexed": true,
          "internalType": "address",
          "name": "sender",
          "type": "address"
        },
        {
          "indexed": true,
          "internalType": "address",
          "name": "owner",
          "type": "address"
        },
        {
          "indexed": false,
          "internalType": "uint256",
          "name": "assets",
          "type": "uint256"
        },
        {
          "indexed": false,
          "internalType": "uint256",
          "name": "shares",
          "type": "uint256"
        }
      ],
      "name": "Deposit",
      "type": "event"
    },
    {
      "anonymous": false,
      "inputs": [
        {
          "indexed": false,
          "internalType": "uint256",
          "name": "nonce",
          "type": "uint256"
        }
      ],
      "name": "IncrementNonce",
      "type": "event"
    },
    {
      "anonymous": false,
      "inputs": [
        {
          "indexed": false,
          "internalType": "uint256",
          "name": "lienId",
          "type": "uint256"
        },
        {
          "indexed": false,
          "internalType": "uint256",
          "name": "epoch",
          "type": "uint256"
        }
      ],
      "name": "LienOpen",
      "type": "event"
    },
    {
      "anonymous": false,
      "inputs": [
        {
          "indexed": false,
          "internalType": "uint64",
          "name": "epoch",
          "type": "uint64"
        },
        {
          "indexed": false,
          "internalType": "uint256",
          "name": "liensOpenForEpoch",
          "type": "uint256"
        }
      ],
      "name": "LiensOpenForEpochRemaining",
      "type": "event"
    },
    {
      "anonymous": false,
      "inputs": [
        {
          "indexed": false,
          "internalType": "uint256",
          "name": "nonce",
          "type": "uint256"
        }
      ],
      "name": "NonceUpdated",
      "type": "event"
    },
    {
      "anonymous": false,
      "inputs": [
        {
          "indexed": false,
          "internalType": "uint256",
          "name": "newSlope",
          "type": "uint256"
        }
      ],
      "name": "SlopeUpdated",
      "type": "event"
    },
    {
      "anonymous": false,
      "inputs": [
        {
          "indexed": false,
          "internalType": "uint256",
          "name": "feeInShares",
          "type": "uint256"
        }
      ],
      "name": "StrategistFee",
      "type": "event"
    },
    {
      "anonymous": false,
      "inputs": [
        {
          "indexed": true,
          "internalType": "address",
          "name": "from",
          "type": "address"
        },
        {
          "indexed": true,
          "internalType": "address",
          "name": "to",
          "type": "address"
        },
        {
          "indexed": false,
          "internalType": "uint256",
          "name": "value",
          "type": "uint256"
        }
      ],
      "name": "Transfer",
      "type": "event"
    },
    {
      "anonymous": false,
      "inputs": [],
      "name": "VaultShutdown",
      "type": "event"
    },
    {
      "anonymous": false,
      "inputs": [
        {
          "indexed": true,
          "internalType": "address",
          "name": "sender",
          "type": "address"
        },
        {
          "indexed": true,
          "internalType": "address",
          "name": "receiver",
          "type": "address"
        },
        {
          "indexed": true,
          "internalType": "address",
          "name": "owner",
          "type": "address"
        },
        {
          "indexed": false,
          "internalType": "uint256",
          "name": "assets",
          "type": "uint256"
        },
        {
          "indexed": false,
          "internalType": "uint256",
          "name": "shares",
          "type": "uint256"
        }
      ],
      "name": "Withdraw",
      "type": "event"
    },
    {
      "anonymous": false,
      "inputs": [
        {
          "indexed": false,
          "internalType": "uint256",
          "name": "amount",
          "type": "uint256"
        }
      ],
      "name": "WithdrawReserveTransferred",
      "type": "event"
    },
    {
      "anonymous": false,
      "inputs": [
        {
          "indexed": false,
          "internalType": "uint256",
          "name": "newYintercept",
          "type": "uint256"
        }
      ],
      "name": "YInterceptChanged",
      "type": "event"
    },
    {
      "inputs": [],
      "name": "COLLATERAL_TOKEN",
      "outputs": [
        {
          "internalType": "contract ICollateralToken",
          "name": "",
          "type": "address"
        }
      ],
      "stateMutability": "view",
      "type": "function"
    },
    {
      "inputs": [],
      "name": "DOMAIN_SEPARATOR",
      "outputs": [
        {
          "internalType": "bytes32",
          "name": "",
          "type": "bytes32"
        }
      ],
      "stateMutability": "view",
      "type": "function"
    },
    {
      "inputs": [],
      "name": "EPOCH_LENGTH",
      "outputs": [
        {
          "internalType": "uint256",
          "name": "",
          "type": "uint256"
        }
      ],
      "stateMutability": "pure",
      "type": "function"
    },
    {
      "inputs": [],
      "name": "IMPL_TYPE",
      "outputs": [
        {
          "internalType": "uint8",
          "name": "",
          "type": "uint8"
        }
      ],
      "stateMutability": "pure",
      "type": "function"
    },
    {
      "inputs": [],
      "name": "LIEN_TOKEN",
      "outputs": [
        {
          "internalType": "contract ILienToken",
          "name": "",
          "type": "address"
        }
      ],
      "stateMutability": "view",
      "type": "function"
    },
    {
      "inputs": [],
      "name": "ROUTER",
      "outputs": [
        {
          "internalType": "contract IAstariaRouter",
          "name": "",
          "type": "address"
        }
      ],
      "stateMutability": "pure",
      "type": "function"
    },
    {
      "inputs": [],
      "name": "START",
      "outputs": [
        {
          "internalType": "uint256",
          "name": "",
          "type": "uint256"
        }
      ],
      "stateMutability": "pure",
      "type": "function"
    },
    {
      "inputs": [],
      "name": "STRATEGY_TYPEHASH",
      "outputs": [
        {
          "internalType": "bytes32",
          "name": "",
          "type": "bytes32"
        }
      ],
      "stateMutability": "view",
      "type": "function"
    },
    {
      "inputs": [],
      "name": "VAULT_FEE",
      "outputs": [
        {
          "internalType": "uint256",
          "name": "",
          "type": "uint256"
        }
      ],
      "stateMutability": "pure",
      "type": "function"
    },
    {
      "inputs": [],
      "name": "accrue",
      "outputs": [
        {
          "internalType": "uint256",
          "name": "",
          "type": "uint256"
        }
      ],
      "stateMutability": "nonpayable",
      "type": "function"
    },
    {
      "inputs": [
        {
          "internalType": "uint256",
          "name": "computedSlope",
          "type": "uint256"
        }
      ],
      "name": "afterPayment",
      "outputs": [],
      "stateMutability": "nonpayable",
      "type": "function"
    },
    {
      "inputs": [
        {
          "internalType": "address",
          "name": "owner",
          "type": "address"
        },
        {
          "internalType": "address",
          "name": "spender",
          "type": "address"
        }
      ],
      "name": "allowance",
      "outputs": [
        {
          "internalType": "uint256",
          "name": "",
          "type": "uint256"
        }
      ],
      "stateMutability": "view",
      "type": "function"
    },
    {
      "inputs": [
        {
          "internalType": "address",
          "name": "spender",
          "type": "address"
        },
        {
          "internalType": "uint256",
          "name": "amount",
          "type": "uint256"
        }
      ],
      "name": "approve",
      "outputs": [
        {
          "internalType": "bool",
          "name": "",
          "type": "bool"
        }
      ],
      "stateMutability": "nonpayable",
      "type": "function"
    },
    {
      "inputs": [],
      "name": "asset",
      "outputs": [
        {
          "internalType": "address",
          "name": "",
          "type": "address"
        }
      ],
      "stateMutability": "pure",
      "type": "function"
    },
    {
      "inputs": [
        {
          "internalType": "address",
          "name": "account",
          "type": "address"
        }
      ],
      "name": "balanceOf",
      "outputs": [
        {
          "internalType": "uint256",
          "name": "",
          "type": "uint256"
        }
      ],
      "stateMutability": "view",
      "type": "function"
    },
    {
      "inputs": [
        {
          "components": [
            {
              "internalType": "uint256",
              "name": "lienSlope",
              "type": "uint256"
            },
            {
              "internalType": "uint256",
              "name": "amount",
              "type": "uint256"
            },
            {
              "internalType": "uint256",
              "name": "interestOwed",
              "type": "uint256"
            }
          ],
          "internalType": "struct IPublicVault.BeforePaymentParams",
          "name": "params",
          "type": "tuple"
        }
      ],
      "name": "beforePayment",
      "outputs": [],
      "stateMutability": "nonpayable",
      "type": "function"
    },
    {
      "inputs": [
        {
          "components": [
            {
              "components": [
                {
                  "internalType": "uint8",
                  "name": "collateralType",
                  "type": "uint8"
                },
                {
                  "internalType": "address",
                  "name": "token",
                  "type": "address"
                },
                {
                  "internalType": "address",
                  "name": "vault",
                  "type": "address"
                },
                {
                  "internalType": "bytes32",
                  "name": "strategyRoot",
                  "type": "bytes32"
                },
                {
                  "internalType": "uint256",
                  "name": "collateralId",
                  "type": "uint256"
                },
                {
                  "components": [
                    {
                      "internalType": "uint256",
                      "name": "maxAmount",
                      "type": "uint256"
                    },
                    {
                      "internalType": "uint256",
                      "name": "rate",
                      "type": "uint256"
                    },
                    {
                      "internalType": "uint256",
                      "name": "duration",
                      "type": "uint256"
                    },
                    {
                      "internalType": "uint256",
                      "name": "maxPotentialDebt",
                      "type": "uint256"
                    },
                    {
                      "internalType": "uint256",
                      "name": "liquidationInitialAsk",
                      "type": "uint256"
                    }
                  ],
                  "internalType": "struct ILienToken.Details",
                  "name": "details",
                  "type": "tuple"
                }
              ],
              "internalType": "struct ILienToken.Lien",
              "name": "lien",
              "type": "tuple"
            },
            {
              "components": [
                {
                  "internalType": "uint256",
                  "name": "amount",
                  "type": "uint256"
                },
                {
                  "internalType": "uint40",
                  "name": "last",
                  "type": "uint40"
                },
                {
                  "internalType": "uint40",
                  "name": "end",
                  "type": "uint40"
                },
                {
                  "internalType": "uint256",
                  "name": "lienId",
                  "type": "uint256"
                }
              ],
              "internalType": "struct ILienToken.Point",
              "name": "point",
              "type": "tuple"
            }
          ],
          "internalType": "struct ILienToken.Stack[]",
          "name": "stack",
          "type": "tuple[]"
        },
        {
          "internalType": "uint8",
          "name": "position",
          "type": "uint8"
        },
        {
          "components": [
            {
              "internalType": "address",
              "name": "tokenContract",
              "type": "address"
            },
            {
              "internalType": "uint256",
              "name": "tokenId",
              "type": "uint256"
            },
            {
              "components": [
                {
                  "components": [
                    {
                      "internalType": "uint8",
                      "name": "version",
                      "type": "uint8"
                    },
                    {
                      "internalType": "uint256",
                      "name": "deadline",
                      "type": "uint256"
                    },
                    {
                      "internalType": "address",
                      "name": "vault",
                      "type": "address"
                    }
                  ],
                  "internalType": "struct IAstariaRouter.StrategyDetailsParam",
                  "name": "strategy",
                  "type": "tuple"
                },
                {
                  "components": [
                    {
                      "components": [
                        {
                          "internalType": "uint8",
                          "name": "collateralType",
                          "type": "uint8"
                        },
                        {
                          "internalType": "address",
                          "name": "token",
                          "type": "address"
                        },
                        {
                          "internalType": "address",
                          "name": "vault",
                          "type": "address"
                        },
                        {
                          "internalType": "bytes32",
                          "name": "strategyRoot",
                          "type": "bytes32"
                        },
                        {
                          "internalType": "uint256",
                          "name": "collateralId",
                          "type": "uint256"
                        },
                        {
                          "components": [
                            {
                              "internalType": "uint256",
                              "name": "maxAmount",
                              "type": "uint256"
                            },
                            {
                              "internalType": "uint256",
                              "name": "rate",
                              "type": "uint256"
                            },
                            {
                              "internalType": "uint256",
                              "name": "duration",
                              "type": "uint256"
                            },
                            {
                              "internalType": "uint256",
                              "name": "maxPotentialDebt",
                              "type": "uint256"
                            },
                            {
                              "internalType": "uint256",
                              "name": "liquidationInitialAsk",
                              "type": "uint256"
                            }
                          ],
                          "internalType": "struct ILienToken.Details",
                          "name": "details",
                          "type": "tuple"
                        }
                      ],
                      "internalType": "struct ILienToken.Lien",
                      "name": "lien",
                      "type": "tuple"
                    },
                    {
                      "components": [
                        {
                          "internalType": "uint256",
                          "name": "amount",
                          "type": "uint256"
                        },
                        {
                          "internalType": "uint40",
                          "name": "last",
                          "type": "uint40"
                        },
                        {
                          "internalType": "uint40",
                          "name": "end",
                          "type": "uint40"
                        },
                        {
                          "internalType": "uint256",
                          "name": "lienId",
                          "type": "uint256"
                        }
                      ],
                      "internalType": "struct ILienToken.Point",
                      "name": "point",
                      "type": "tuple"
                    }
                  ],
                  "internalType": "struct ILienToken.Stack[]",
                  "name": "stack",
                  "type": "tuple[]"
                },
                {
                  "internalType": "bytes",
                  "name": "nlrDetails",
                  "type": "bytes"
                },
                {
                  "components": [
                    {
                      "internalType": "bytes32",
                      "name": "root",
                      "type": "bytes32"
                    },
                    {
                      "internalType": "bytes32[]",
                      "name": "proof",
                      "type": "bytes32[]"
                    }
                  ],
                  "internalType": "struct IAstariaRouter.MerkleData",
                  "name": "merkle",
                  "type": "tuple"
                },
                {
                  "internalType": "uint256",
                  "name": "amount",
                  "type": "uint256"
                },
                {
                  "internalType": "uint8",
                  "name": "v",
                  "type": "uint8"
                },
                {
                  "internalType": "bytes32",
                  "name": "r",
                  "type": "bytes32"
                },
                {
                  "internalType": "bytes32",
                  "name": "s",
                  "type": "bytes32"
                }
              ],
              "internalType": "struct IAstariaRouter.NewLienRequest",
              "name": "lienRequest",
              "type": "tuple"
            }
          ],
          "internalType": "struct IAstariaRouter.Commitment",
          "name": "incomingTerms",
          "type": "tuple"
        }
      ],
      "name": "buyoutLien",
      "outputs": [
        {
          "components": [
            {
              "components": [
                {
                  "internalType": "uint8",
                  "name": "collateralType",
                  "type": "uint8"
                },
                {
                  "internalType": "address",
                  "name": "token",
                  "type": "address"
                },
                {
                  "internalType": "address",
                  "name": "vault",
                  "type": "address"
                },
                {
                  "internalType": "bytes32",
                  "name": "strategyRoot",
                  "type": "bytes32"
                },
                {
                  "internalType": "uint256",
                  "name": "collateralId",
                  "type": "uint256"
                },
                {
                  "components": [
                    {
                      "internalType": "uint256",
                      "name": "maxAmount",
                      "type": "uint256"
                    },
                    {
                      "internalType": "uint256",
                      "name": "rate",
                      "type": "uint256"
                    },
                    {
                      "internalType": "uint256",
                      "name": "duration",
                      "type": "uint256"
                    },
                    {
                      "internalType": "uint256",
                      "name": "maxPotentialDebt",
                      "type": "uint256"
                    },
                    {
                      "internalType": "uint256",
                      "name": "liquidationInitialAsk",
                      "type": "uint256"
                    }
                  ],
                  "internalType": "struct ILienToken.Details",
                  "name": "details",
                  "type": "tuple"
                }
              ],
              "internalType": "struct ILienToken.Lien",
              "name": "lien",
              "type": "tuple"
            },
            {
              "components": [
                {
                  "internalType": "uint256",
                  "name": "amount",
                  "type": "uint256"
                },
                {
                  "internalType": "uint40",
                  "name": "last",
                  "type": "uint40"
                },
                {
                  "internalType": "uint40",
                  "name": "end",
                  "type": "uint40"
                },
                {
                  "internalType": "uint256",
                  "name": "lienId",
                  "type": "uint256"
                }
              ],
              "internalType": "struct ILienToken.Point",
              "name": "point",
              "type": "tuple"
            }
          ],
          "internalType": "struct ILienToken.Stack[]",
          "name": "stacks",
          "type": "tuple[]"
        },
        {
          "components": [
            {
              "components": [
                {
                  "internalType": "uint8",
                  "name": "collateralType",
                  "type": "uint8"
                },
                {
                  "internalType": "address",
                  "name": "token",
                  "type": "address"
                },
                {
                  "internalType": "address",
                  "name": "vault",
                  "type": "address"
                },
                {
                  "internalType": "bytes32",
                  "name": "strategyRoot",
                  "type": "bytes32"
                },
                {
                  "internalType": "uint256",
                  "name": "collateralId",
                  "type": "uint256"
                },
                {
                  "components": [
                    {
                      "internalType": "uint256",
                      "name": "maxAmount",
                      "type": "uint256"
                    },
                    {
                      "internalType": "uint256",
                      "name": "rate",
                      "type": "uint256"
                    },
                    {
                      "internalType": "uint256",
                      "name": "duration",
                      "type": "uint256"
                    },
                    {
                      "internalType": "uint256",
                      "name": "maxPotentialDebt",
                      "type": "uint256"
                    },
                    {
                      "internalType": "uint256",
                      "name": "liquidationInitialAsk",
                      "type": "uint256"
                    }
                  ],
                  "internalType": "struct ILienToken.Details",
                  "name": "details",
                  "type": "tuple"
                }
              ],
              "internalType": "struct ILienToken.Lien",
              "name": "lien",
              "type": "tuple"
            },
            {
              "components": [
                {
                  "internalType": "uint256",
                  "name": "amount",
                  "type": "uint256"
                },
                {
                  "internalType": "uint40",
                  "name": "last",
                  "type": "uint40"
                },
                {
                  "internalType": "uint40",
                  "name": "end",
                  "type": "uint40"
                },
                {
                  "internalType": "uint256",
                  "name": "lienId",
                  "type": "uint256"
                }
              ],
              "internalType": "struct ILienToken.Point",
              "name": "point",
              "type": "tuple"
            }
          ],
          "internalType": "struct ILienToken.Stack",
          "name": "newStack",
          "type": "tuple"
        }
      ],
      "stateMutability": "nonpayable",
      "type": "function"
    },
    {
      "inputs": [],
      "name": "claim",
      "outputs": [],
      "stateMutability": "nonpayable",
      "type": "function"
    },
    {
      "inputs": [
        {
          "components": [
            {
              "internalType": "address",
              "name": "tokenContract",
              "type": "address"
            },
            {
              "internalType": "uint256",
              "name": "tokenId",
              "type": "uint256"
            },
            {
              "components": [
                {
                  "components": [
                    {
                      "internalType": "uint8",
                      "name": "version",
                      "type": "uint8"
                    },
                    {
                      "internalType": "uint256",
                      "name": "deadline",
                      "type": "uint256"
                    },
                    {
                      "internalType": "address",
                      "name": "vault",
                      "type": "address"
                    }
                  ],
                  "internalType": "struct IAstariaRouter.StrategyDetailsParam",
                  "name": "strategy",
                  "type": "tuple"
                },
                {
                  "components": [
                    {
                      "components": [
                        {
                          "internalType": "uint8",
                          "name": "collateralType",
                          "type": "uint8"
                        },
                        {
                          "internalType": "address",
                          "name": "token",
                          "type": "address"
                        },
                        {
                          "internalType": "address",
                          "name": "vault",
                          "type": "address"
                        },
                        {
                          "internalType": "bytes32",
                          "name": "strategyRoot",
                          "type": "bytes32"
                        },
                        {
                          "internalType": "uint256",
                          "name": "collateralId",
                          "type": "uint256"
                        },
                        {
                          "components": [
                            {
                              "internalType": "uint256",
                              "name": "maxAmount",
                              "type": "uint256"
                            },
                            {
                              "internalType": "uint256",
                              "name": "rate",
                              "type": "uint256"
                            },
                            {
                              "internalType": "uint256",
                              "name": "duration",
                              "type": "uint256"
                            },
                            {
                              "internalType": "uint256",
                              "name": "maxPotentialDebt",
                              "type": "uint256"
                            },
                            {
                              "internalType": "uint256",
                              "name": "liquidationInitialAsk",
                              "type": "uint256"
                            }
                          ],
                          "internalType": "struct ILienToken.Details",
                          "name": "details",
                          "type": "tuple"
                        }
                      ],
                      "internalType": "struct ILienToken.Lien",
                      "name": "lien",
                      "type": "tuple"
                    },
                    {
                      "components": [
                        {
                          "internalType": "uint256",
                          "name": "amount",
                          "type": "uint256"
                        },
                        {
                          "internalType": "uint40",
                          "name": "last",
                          "type": "uint40"
                        },
                        {
                          "internalType": "uint40",
                          "name": "end",
                          "type": "uint40"
                        },
                        {
                          "internalType": "uint256",
                          "name": "lienId",
                          "type": "uint256"
                        }
                      ],
                      "internalType": "struct ILienToken.Point",
                      "name": "point",
                      "type": "tuple"
                    }
                  ],
                  "internalType": "struct ILienToken.Stack[]",
                  "name": "stack",
                  "type": "tuple[]"
                },
                {
                  "internalType": "bytes",
                  "name": "nlrDetails",
                  "type": "bytes"
                },
                {
                  "components": [
                    {
                      "internalType": "bytes32",
                      "name": "root",
                      "type": "bytes32"
                    },
                    {
                      "internalType": "bytes32[]",
                      "name": "proof",
                      "type": "bytes32[]"
                    }
                  ],
                  "internalType": "struct IAstariaRouter.MerkleData",
                  "name": "merkle",
                  "type": "tuple"
                },
                {
                  "internalType": "uint256",
                  "name": "amount",
                  "type": "uint256"
                },
                {
                  "internalType": "uint8",
                  "name": "v",
                  "type": "uint8"
                },
                {
                  "internalType": "bytes32",
                  "name": "r",
                  "type": "bytes32"
                },
                {
                  "internalType": "bytes32",
                  "name": "s",
                  "type": "bytes32"
                }
              ],
              "internalType": "struct IAstariaRouter.NewLienRequest",
              "name": "lienRequest",
              "type": "tuple"
            }
          ],
          "internalType": "struct IAstariaRouter.Commitment",
          "name": "params",
          "type": "tuple"
        }
      ],
      "name": "commitToLien",
      "outputs": [
        {
          "internalType": "uint256",
          "name": "lienId",
          "type": "uint256"
        },
        {
          "components": [
            {
              "components": [
                {
                  "internalType": "uint8",
                  "name": "collateralType",
                  "type": "uint8"
                },
                {
                  "internalType": "address",
                  "name": "token",
                  "type": "address"
                },
                {
                  "internalType": "address",
                  "name": "vault",
                  "type": "address"
                },
                {
                  "internalType": "bytes32",
                  "name": "strategyRoot",
                  "type": "bytes32"
                },
                {
                  "internalType": "uint256",
                  "name": "collateralId",
                  "type": "uint256"
                },
                {
                  "components": [
                    {
                      "internalType": "uint256",
                      "name": "maxAmount",
                      "type": "uint256"
                    },
                    {
                      "internalType": "uint256",
                      "name": "rate",
                      "type": "uint256"
                    },
                    {
                      "internalType": "uint256",
                      "name": "duration",
                      "type": "uint256"
                    },
                    {
                      "internalType": "uint256",
                      "name": "maxPotentialDebt",
                      "type": "uint256"
                    },
                    {
                      "internalType": "uint256",
                      "name": "liquidationInitialAsk",
                      "type": "uint256"
                    }
                  ],
                  "internalType": "struct ILienToken.Details",
                  "name": "details",
                  "type": "tuple"
                }
              ],
              "internalType": "struct ILienToken.Lien",
              "name": "lien",
              "type": "tuple"
            },
            {
              "components": [
                {
                  "internalType": "uint256",
                  "name": "amount",
                  "type": "uint256"
                },
                {
                  "internalType": "uint40",
                  "name": "last",
                  "type": "uint40"
                },
                {
                  "internalType": "uint40",
                  "name": "end",
                  "type": "uint40"
                },
                {
                  "internalType": "uint256",
                  "name": "lienId",
                  "type": "uint256"
                }
              ],
              "internalType": "struct ILienToken.Point",
              "name": "point",
              "type": "tuple"
            }
          ],
          "internalType": "struct ILienToken.Stack[]",
          "name": "stack",
          "type": "tuple[]"
        }
      ],
      "stateMutability": "nonpayable",
      "type": "function"
    },
    {
      "inputs": [
        {
          "internalType": "uint256",
          "name": "shares",
          "type": "uint256"
        }
      ],
      "name": "convertToAssets",
      "outputs": [
        {
          "internalType": "uint256",
          "name": "",
          "type": "uint256"
        }
      ],
      "stateMutability": "view",
      "type": "function"
    },
    {
      "inputs": [
        {
          "internalType": "uint256",
          "name": "assets",
          "type": "uint256"
        }
      ],
      "name": "convertToShares",
      "outputs": [
        {
          "internalType": "uint256",
          "name": "",
          "type": "uint256"
        }
      ],
      "stateMutability": "view",
      "type": "function"
    },
    {
      "inputs": [],
      "name": "decimals",
      "outputs": [
        {
          "internalType": "uint8",
          "name": "",
          "type": "uint8"
        }
      ],
      "stateMutability": "pure",
      "type": "function"
    },
    {
      "inputs": [
        {
          "internalType": "uint64",
          "name": "epoch",
          "type": "uint64"
        }
      ],
      "name": "decreaseEpochLienCount",
      "outputs": [],
      "stateMutability": "nonpayable",
      "type": "function"
    },
    {
      "inputs": [
        {
          "internalType": "uint256",
          "name": "amount",
          "type": "uint256"
        }
      ],
      "name": "decreaseYIntercept",
      "outputs": [],
      "stateMutability": "nonpayable",
      "type": "function"
    },
    {
      "inputs": [
        {
          "internalType": "uint256",
          "name": "amount",
          "type": "uint256"
        },
        {
          "internalType": "address",
          "name": "receiver",
          "type": "address"
        }
      ],
      "name": "deposit",
      "outputs": [
        {
          "internalType": "uint256",
          "name": "",
          "type": "uint256"
        }
      ],
      "stateMutability": "nonpayable",
      "type": "function"
    },
    {
      "inputs": [],
      "name": "disableAllowList",
      "outputs": [],
      "stateMutability": "nonpayable",
      "type": "function"
    },
    {
      "inputs": [],
      "name": "domainSeparator",
      "outputs": [
        {
          "internalType": "bytes32",
          "name": "",
          "type": "bytes32"
        }
      ],
      "stateMutability": "view",
      "type": "function"
    },
    {
      "inputs": [],
      "name": "enableAllowList",
      "outputs": [],
      "stateMutability": "nonpayable",
      "type": "function"
    },
    {
      "inputs": [
        {
          "components": [
            {
              "internalType": "uint8",
              "name": "version",
              "type": "uint8"
            },
            {
              "internalType": "uint256",
              "name": "deadline",
              "type": "uint256"
            },
            {
              "internalType": "address",
              "name": "vault",
              "type": "address"
            }
          ],
          "internalType": "struct IAstariaRouter.StrategyDetailsParam",
          "name": "strategy",
          "type": "tuple"
        },
        {
          "internalType": "bytes32",
          "name": "root",
          "type": "bytes32"
        }
      ],
      "name": "encodeStrategyData",
      "outputs": [
        {
          "internalType": "bytes",
          "name": "",
          "type": "bytes"
        }
      ],
      "stateMutability": "view",
      "type": "function"
    },
    {
      "inputs": [],
      "name": "getCurrentEpoch",
      "outputs": [
        {
          "internalType": "uint64",
          "name": "",
          "type": "uint64"
        }
      ],
      "stateMutability": "view",
      "type": "function"
    },
    {
      "inputs": [
        {
          "internalType": "uint256",
          "name": "epoch",
          "type": "uint256"
        }
      ],
      "name": "getEpochEnd",
      "outputs": [
        {
          "internalType": "uint64",
          "name": "",
          "type": "uint64"
        }
      ],
      "stateMutability": "pure",
      "type": "function"
    },
    {
      "inputs": [
        {
          "internalType": "uint64",
          "name": "end",
          "type": "uint64"
        }
      ],
      "name": "getLienEpoch",
      "outputs": [
        {
          "internalType": "uint64",
          "name": "",
          "type": "uint64"
        }
      ],
      "stateMutability": "pure",
      "type": "function"
    },
    {
      "inputs": [],
      "name": "getLiquidationWithdrawRatio",
      "outputs": [
        {
          "internalType": "uint256",
          "name": "",
          "type": "uint256"
        }
      ],
      "stateMutability": "view",
      "type": "function"
    },
    {
      "inputs": [],
      "name": "getShutdown",
      "outputs": [
        {
          "internalType": "bool",
          "name": "",
          "type": "bool"
        }
      ],
      "stateMutability": "view",
      "type": "function"
    },
    {
      "inputs": [],
      "name": "getSlope",
      "outputs": [
        {
          "internalType": "uint256",
          "name": "",
          "type": "uint256"
        }
      ],
      "stateMutability": "view",
      "type": "function"
    },
    {
      "inputs": [],
      "name": "getStrategistNonce",
      "outputs": [
        {
          "internalType": "uint256",
          "name": "",
          "type": "uint256"
        }
      ],
      "stateMutability": "view",
      "type": "function"
    },
    {
      "inputs": [
        {
          "internalType": "uint64",
          "name": "epoch",
          "type": "uint64"
        }
      ],
      "name": "getWithdrawProxy",
      "outputs": [
        {
          "internalType": "contract WithdrawProxy",
          "name": "",
          "type": "address"
        }
      ],
      "stateMutability": "view",
      "type": "function"
    },
    {
      "inputs": [],
      "name": "getWithdrawReserve",
      "outputs": [
        {
          "internalType": "uint256",
          "name": "",
          "type": "uint256"
        }
      ],
      "stateMutability": "view",
      "type": "function"
    },
    {
      "inputs": [],
      "name": "getYIntercept",
      "outputs": [
        {
          "internalType": "uint256",
          "name": "",
          "type": "uint256"
        }
      ],
      "stateMutability": "view",
      "type": "function"
    },
    {
      "inputs": [
        {
          "components": [
            {
              "internalType": "uint256",
              "name": "lienSlope",
              "type": "uint256"
            },
            {
              "internalType": "uint256",
              "name": "lienEnd",
              "type": "uint256"
            }
          ],
          "internalType": "struct ILienToken.BuyoutLienParams",
          "name": "buyoutParams",
          "type": "tuple"
        },
        {
          "internalType": "uint256",
          "name": "buyoutFeeIfAny",
          "type": "uint256"
        }
      ],
      "name": "handleLoseLienToBuyout",
      "outputs": [],
      "stateMutability": "nonpayable",
      "type": "function"
    },
    {
      "inputs": [
        {
          "internalType": "uint256",
          "name": "amount",
          "type": "uint256"
        }
      ],
      "name": "increaseYIntercept",
      "outputs": [],
      "stateMutability": "nonpayable",
      "type": "function"
    },
    {
      "inputs": [],
      "name": "incrementNonce",
      "outputs": [],
      "stateMutability": "nonpayable",
      "type": "function"
    },
    {
      "inputs": [
        {
          "components": [
            {
              "internalType": "address",
              "name": "delegate",
              "type": "address"
            },
            {
              "internalType": "bool",
              "name": "allowListEnabled",
              "type": "bool"
            },
            {
              "internalType": "address[]",
              "name": "allowList",
              "type": "address[]"
            },
            {
              "internalType": "uint256",
              "name": "depositCap",
              "type": "uint256"
            }
          ],
          "internalType": "struct IVaultImplementation.InitParams",
          "name": "params",
          "type": "tuple"
        }
      ],
      "name": "init",
      "outputs": [],
      "stateMutability": "nonpayable",
      "type": "function"
    },
    {
      "inputs": [
        {
          "internalType": "address",
          "name": "addr",
          "type": "address"
        }
      ],
      "name": "isDelegateOrOwner",
      "outputs": [
        {
          "internalType": "bool",
          "name": "",
          "type": "bool"
        }
      ],
      "stateMutability": "view",
      "type": "function"
    },
    {
      "inputs": [
        {
          "internalType": "address",
          "name": "",
          "type": "address"
        }
      ],
      "name": "maxDeposit",
      "outputs": [
        {
          "internalType": "uint256",
          "name": "",
          "type": "uint256"
        }
      ],
      "stateMutability": "view",
      "type": "function"
    },
    {
      "inputs": [
        {
          "internalType": "address",
          "name": "",
          "type": "address"
        }
      ],
      "name": "maxMint",
      "outputs": [
        {
          "internalType": "uint256",
          "name": "",
          "type": "uint256"
        }
      ],
      "stateMutability": "view",
      "type": "function"
    },
    {
      "inputs": [
        {
          "internalType": "address",
          "name": "owner",
          "type": "address"
        }
      ],
      "name": "maxRedeem",
      "outputs": [
        {
          "internalType": "uint256",
          "name": "",
          "type": "uint256"
        }
      ],
      "stateMutability": "view",
      "type": "function"
    },
    {
      "inputs": [
        {
          "internalType": "address",
          "name": "owner",
          "type": "address"
        }
      ],
      "name": "maxWithdraw",
      "outputs": [
        {
          "internalType": "uint256",
          "name": "",
          "type": "uint256"
        }
      ],
      "stateMutability": "view",
      "type": "function"
    },
    {
      "inputs": [],
      "name": "minDepositAmount",
      "outputs": [
        {
          "internalType": "uint256",
          "name": "",
          "type": "uint256"
        }
      ],
      "stateMutability": "view",
      "type": "function"
    },
    {
      "inputs": [
        {
          "internalType": "uint256",
          "name": "shares",
          "type": "uint256"
        },
        {
          "internalType": "address",
          "name": "receiver",
          "type": "address"
        }
      ],
      "name": "mint",
      "outputs": [
        {
          "internalType": "uint256",
          "name": "",
          "type": "uint256"
        }
      ],
      "stateMutability": "nonpayable",
      "type": "function"
    },
    {
      "inputs": [
        {
          "internalType": "address",
          "name": "depositor",
          "type": "address"
        },
        {
          "internalType": "bool",
          "name": "enabled",
          "type": "bool"
        }
      ],
      "name": "modifyAllowList",
      "outputs": [],
      "stateMutability": "nonpayable",
      "type": "function"
    },
    {
      "inputs": [
        {
          "internalType": "uint256",
          "name": "newCap",
          "type": "uint256"
        }
      ],
      "name": "modifyDepositCap",
      "outputs": [],
      "stateMutability": "nonpayable",
      "type": "function"
    },
    {
      "inputs": [],
      "name": "name",
      "outputs": [
        {
          "internalType": "string",
          "name": "",
          "type": "string"
        }
      ],
      "stateMutability": "view",
      "type": "function"
    },
    {
      "inputs": [
        {
          "internalType": "address",
          "name": "",
          "type": "address"
        },
        {
          "internalType": "address",
          "name": "",
          "type": "address"
        },
        {
          "internalType": "uint256",
          "name": "",
          "type": "uint256"
        },
        {
          "internalType": "bytes",
          "name": "",
          "type": "bytes"
        }
      ],
      "name": "onERC721Received",
      "outputs": [
        {
          "internalType": "bytes4",
          "name": "",
          "type": "bytes4"
        }
      ],
      "stateMutability": "pure",
      "type": "function"
    },
    {
      "inputs": [],
      "name": "owner",
      "outputs": [
        {
          "internalType": "address",
          "name": "",
          "type": "address"
        }
      ],
      "stateMutability": "pure",
      "type": "function"
    },
    {
      "inputs": [
        {
          "internalType": "address",
          "name": "owner",
          "type": "address"
        },
        {
          "internalType": "address",
          "name": "spender",
          "type": "address"
        },
        {
          "internalType": "uint256",
          "name": "value",
          "type": "uint256"
        },
        {
          "internalType": "uint256",
          "name": "deadline",
          "type": "uint256"
        },
        {
          "internalType": "uint8",
          "name": "v",
          "type": "uint8"
        },
        {
          "internalType": "bytes32",
          "name": "r",
          "type": "bytes32"
        },
        {
          "internalType": "bytes32",
          "name": "s",
          "type": "bytes32"
        }
      ],
      "name": "permit",
      "outputs": [],
      "stateMutability": "nonpayable",
      "type": "function"
    },
    {
      "inputs": [
        {
          "internalType": "uint256",
          "name": "assets",
          "type": "uint256"
        }
      ],
      "name": "previewDeposit",
      "outputs": [
        {
          "internalType": "uint256",
          "name": "",
          "type": "uint256"
        }
      ],
      "stateMutability": "view",
      "type": "function"
    },
    {
      "inputs": [
        {
          "internalType": "uint256",
          "name": "shares",
          "type": "uint256"
        }
      ],
      "name": "previewMint",
      "outputs": [
        {
          "internalType": "uint256",
          "name": "",
          "type": "uint256"
        }
      ],
      "stateMutability": "view",
      "type": "function"
    },
    {
      "inputs": [
        {
          "internalType": "uint256",
          "name": "shares",
          "type": "uint256"
        }
      ],
      "name": "previewRedeem",
      "outputs": [
        {
          "internalType": "uint256",
          "name": "",
          "type": "uint256"
        }
      ],
      "stateMutability": "view",
      "type": "function"
    },
    {
      "inputs": [
        {
          "internalType": "uint256",
          "name": "assets",
          "type": "uint256"
        }
      ],
      "name": "previewWithdraw",
      "outputs": [
        {
          "internalType": "uint256",
          "name": "",
          "type": "uint256"
        }
      ],
      "stateMutability": "view",
      "type": "function"
    },
    {
      "inputs": [],
      "name": "processEpoch",
      "outputs": [],
      "stateMutability": "nonpayable",
      "type": "function"
    },
    {
      "inputs": [],
      "name": "recipient",
      "outputs": [
        {
          "internalType": "address",
          "name": "",
          "type": "address"
        }
      ],
      "stateMutability": "view",
      "type": "function"
    },
    {
      "inputs": [
        {
          "internalType": "uint256",
          "name": "shares",
          "type": "uint256"
        },
        {
          "internalType": "address",
          "name": "receiver",
          "type": "address"
        },
        {
          "internalType": "address",
          "name": "owner",
          "type": "address"
        }
      ],
      "name": "redeem",
      "outputs": [
        {
          "internalType": "uint256",
          "name": "assets",
          "type": "uint256"
        }
      ],
      "stateMutability": "nonpayable",
      "type": "function"
    },
    {
      "inputs": [
        {
          "internalType": "uint256",
          "name": "shares",
          "type": "uint256"
        },
        {
          "internalType": "address",
          "name": "receiver",
          "type": "address"
        },
        {
          "internalType": "address",
          "name": "owner",
          "type": "address"
        },
        {
          "internalType": "uint64",
          "name": "epoch",
          "type": "uint64"
        }
      ],
      "name": "redeemFutureEpoch",
      "outputs": [
        {
          "internalType": "uint256",
          "name": "assets",
          "type": "uint256"
        }
      ],
      "stateMutability": "nonpayable",
      "type": "function"
    },
    {
      "inputs": [
        {
          "internalType": "address",
          "name": "delegate_",
          "type": "address"
        }
      ],
      "name": "setDelegate",
      "outputs": [],
      "stateMutability": "nonpayable",
      "type": "function"
    },
    {
      "inputs": [],
      "name": "shutdown",
      "outputs": [],
      "stateMutability": "nonpayable",
      "type": "function"
    },
    {
      "inputs": [
        {
          "internalType": "bytes4",
          "name": "interfaceId",
          "type": "bytes4"
        }
      ],
      "name": "supportsInterface",
      "outputs": [
        {
          "internalType": "bool",
          "name": "",
          "type": "bool"
        }
      ],
      "stateMutability": "pure",
      "type": "function"
    },
    {
      "inputs": [],
      "name": "symbol",
      "outputs": [
        {
          "internalType": "string",
          "name": "",
          "type": "string"
        }
      ],
      "stateMutability": "view",
      "type": "function"
    },
    {
      "inputs": [],
      "name": "timeToEpochEnd",
      "outputs": [
        {
          "internalType": "uint256",
          "name": "",
          "type": "uint256"
        }
      ],
      "stateMutability": "view",
      "type": "function"
    },
    {
      "inputs": [
        {
          "internalType": "uint256",
          "name": "epoch",
          "type": "uint256"
        }
      ],
      "name": "timeToEpochEnd",
      "outputs": [
        {
          "internalType": "uint256",
          "name": "",
          "type": "uint256"
        }
      ],
      "stateMutability": "view",
      "type": "function"
    },
    {
      "inputs": [],
      "name": "timeToSecondEpochEnd",
      "outputs": [
        {
          "internalType": "uint256",
          "name": "",
          "type": "uint256"
        }
      ],
      "stateMutability": "view",
      "type": "function"
    },
    {
      "inputs": [],
      "name": "totalAssets",
      "outputs": [
        {
          "internalType": "uint256",
          "name": "",
          "type": "uint256"
        }
      ],
      "stateMutability": "view",
      "type": "function"
    },
    {
      "inputs": [],
      "name": "totalSupply",
      "outputs": [
        {
          "internalType": "uint256",
          "name": "",
          "type": "uint256"
        }
      ],
      "stateMutability": "view",
      "type": "function"
    },
    {
      "inputs": [
        {
          "internalType": "address",
          "name": "to",
          "type": "address"
        },
        {
          "internalType": "uint256",
          "name": "amount",
          "type": "uint256"
        }
      ],
      "name": "transfer",
      "outputs": [
        {
          "internalType": "bool",
          "name": "",
          "type": "bool"
        }
      ],
      "stateMutability": "nonpayable",
      "type": "function"
    },
    {
      "inputs": [
        {
          "internalType": "address",
          "name": "from",
          "type": "address"
        },
        {
          "internalType": "address",
          "name": "to",
          "type": "address"
        },
        {
          "internalType": "uint256",
          "name": "amount",
          "type": "uint256"
        }
      ],
      "name": "transferFrom",
      "outputs": [
        {
          "internalType": "bool",
          "name": "",
          "type": "bool"
        }
      ],
      "stateMutability": "nonpayable",
      "type": "function"
    },
    {
      "inputs": [],
      "name": "transferWithdrawReserve",
      "outputs": [],
      "stateMutability": "nonpayable",
      "type": "function"
    },
    {
      "inputs": [
        {
          "components": [
            {
              "internalType": "uint256",
              "name": "remaining",
              "type": "uint256"
            }
          ],
          "internalType": "struct IPublicVault.LiquidationPaymentParams",
          "name": "params",
          "type": "tuple"
        }
      ],
      "name": "updateAfterLiquidationPayment",
      "outputs": [],
      "stateMutability": "nonpayable",
      "type": "function"
    },
    {
      "inputs": [
        {
          "internalType": "uint256",
          "name": "maxAuctionWindow",
          "type": "uint256"
        },
        {
          "components": [
            {
              "internalType": "uint256",
              "name": "lienSlope",
              "type": "uint256"
            },
            {
              "internalType": "uint256",
              "name": "newAmount",
              "type": "uint256"
            },
            {
              "internalType": "uint40",
              "name": "lienEnd",
              "type": "uint40"
            }
          ],
          "internalType": "struct IPublicVault.AfterLiquidationParams",
          "name": "params",
          "type": "tuple"
        }
      ],
      "name": "updateVaultAfterLiquidation",
      "outputs": [
        {
          "internalType": "address",
          "name": "withdrawProxyIfNearBoundary",
          "type": "address"
        }
      ],
      "stateMutability": "nonpayable",
      "type": "function"
    },
    {
      "inputs": [
        {
          "internalType": "uint256",
          "name": "assets",
          "type": "uint256"
        },
        {
          "internalType": "address",
          "name": "receiver",
          "type": "address"
        },
        {
          "internalType": "address",
          "name": "owner",
          "type": "address"
        }
      ],
      "name": "withdraw",
      "outputs": [
        {
          "internalType": "uint256",
          "name": "shares",
          "type": "uint256"
        }
      ],
      "stateMutability": "nonpayable",
      "type": "function"
    }
  ],
  "bytecode": {
    "object": "0x608060405234801561001057600080fd5b50615dc880620000216000396000f3fe608060405234801561001057600080fd5b50600436106104755760003560e01c8063834029ba11610257578063c63d75b611610146578063dc2fbaee116100c3578063f1e9f4f511610087578063f1e9f4f514610956578063f5f1f1a714610969578063f698da2514610971578063f8ba4cff14610979578063fc0e74d11461098157600080fd5b8063dc2fbaee1461090d578063dd62ed3e14610915578063de6c284814610928578063dfb2b6451461093b578063ef8b30f71461094357600080fd5b8063ce96cb771161010a578063ce96cb77146108ae578063cebbdf23146108c1578063d505accf146108d4578063d5176d23146108e7578063d905777e146108fa57600080fd5b8063c63d75b614610663578063c6e6f5921461086d578063ca5eb5e114610880578063cb58189d14610893578063cd12030f1461089b57600080fd5b8063ac4746ab116101d4578063ba08765211610198578063ba08765214610821578063ba9a061a14610834578063bd2c6bae1461083c578063c0e9b0531461085d578063c237c7031461086557600080fd5b8063ac4746ab146107e3578063b19c2c70146107eb578063b3d7f6b9146107f3578063b460af9414610806578063b97dd9e21461081957600080fd5b80639d8f8fcc1161021b5780639d8f8fcc1461078f5780639ff2cfb414610797578063a3a911ba146107aa578063a9059cbb146107bd578063aaed42b7146107d057600080fd5b8063834029ba1461075c5780638da5cb5b1461076457806390bec11d1461076c57806394bf804d1461077457806395d89b411461078757600080fd5b80633644e5151161037357806359f9556e116102f057806366d003ac116102b457806366d003ac146107135780636e553f651461071b57806370a082311461072e57806379c84f9c146107415780637f65a1141461074957600080fd5b806359f9556e146106d5578063627cdcb9146106e8578063645006ca146106f057806364e4cf3b146106f857806365612e681461070057600080fd5b806341700b971161033757806341700b9714610678578063474a1e54146106805780634cdad506146106935780634e71d92d146106a657806351ab5c49146106ae57600080fd5b80633644e5151461062d57806338663c3f1461063557806338d52e0f146106485780633c96ce1214610650578063402d267d1461066357600080fd5b8063200298bf1161040157806330040e77116103c557806330040e77146105b0578063313ce567146105b85780633177e0fe146105cd57806332fe7b26146105e2578063349f723d1461060257600080fd5b8063200298bf1461054e57806323b872dd1461055657806328ff437d146105695780632917e0971461057c57806329aee4bd1461058f57600080fd5b8063095ea7b311610448578063095ea7b3146104e05780630a28a477146104f3578063150b7a021461050657806318160ddd1461053e5780631d5470e81461054657600080fd5b806301e1d1141461047a57806301ffc9a71461049557806306fdde03146104b857806307a2d13a146104cd575b600080fd5b610482610989565b6040519081526020015b60405180910390f35b6104a86104a3366004614848565b6109a5565b604051901515815260200161048c565b6104c0610a2d565b60405161048c91906148c2565b6104826104db3660046148d5565b610ac0565b6104a86104ee366004614903565b610af4565b6104826105013660046148d5565b610b69565b61052561051436600461492f565b630a85bd0160e11b95945050505050565b6040516001600160e01b0319909116815260200161048c565b610482610ba0565b610482610bc6565b610482610bd9565b6104a86105643660046149cd565b610bff565b6104a8610577366004614a0e565b610cf6565b6104c061058a366004614a43565b610d3a565b6105a261059d366004614a6e565b610d5b565b60405161048c929190614b9f565b610482610e86565b60125b60405160ff909116815260200161048c565b6105e06105db366004614bc6565b610e99565b005b6105ea610f36565b6040516001600160a01b03909116815260200161048c565b610615610610366004614c1b565b610f42565b6040516001600160401b03909116815260200161048c565b610482610f83565b6105e0610643366004614c36565b610f8d565b6105ea610ff3565b6105e061065e3660046148d5565b610ffd565b610482610671366004614a0e565b5060001990565b6105ea61102f565b6105e061068e366004614c52565b61109a565b6104826106a13660046148d5565b6111d1565b6105e06111dc565b6104827f679f3933bd13bd2e4ec6e9cde341ede07736ad7b635428a8a211e9cccb4393b081565b6105e06106e33660046148d5565b611223565b6105e06112a2565b61048261135c565b6105e06114da565b6105e061070e3660046148d5565b6118c0565b6105ea61194c565b610482610729366004614c8c565b611968565b61048261073c366004614a0e565b611a92565b610482611abe565b6104826107573660046148d5565b611ad1565b6105e0611b1f565b6105ea611ba2565b610482611bae565b610482610782366004614c8c565b611bb8565b6104c0611ccd565b610482611d4c565b6105e06107a53660046148d5565b611d5c565b6104826107b8366004614cb1565b611de3565b6104a86107cb366004614903565b611df9565b6105e06107de366004614d02565b611e71565b610482611ebd565b6105e0611ec9565b6104826108013660046148d5565b612318565b610482610814366004614d14565b61233e565b610615612384565b61048261082f366004614d14565b6123a7565b6104826123d8565b61084f61084a366004614d70565b6123e4565b60405161048c929190614e1b565b6104a86128db565b6105bb6128f8565b61048261087b3660046148d5565b612904565b6105e061088e366004614a0e565b61292b565b6104826129ef565b6105ea6108a9366004614e3f565b6129fb565b6104826108bc366004614a0e565b612b58565b6105ea6108cf366004614c1b565b612b8a565b6105e06108e2366004614e6c565b612bc6565b6106156108f53660046148d5565b612e28565b610482610908366004614a0e565b612e5c565b6105e0612e89565b610482610923366004614edd565b612f08565b6105e0610936366004614f0b565b612f44565b610482612fda565b6104826109513660046148d5565b612fed565b6105e0610964366004614c1b565b612ff8565b6105ea613031565b610482613078565b6104826130f7565b6105e0613109565b600080610994613180565b905061099f816131ae565b91505090565b60006001600160e01b03198216636ff515cb60e01b14806109d657506001600160e01b031982166371c7f1b560e11b145b806109f157506001600160e01b0319821663043eff2d60e51b145b80610a0c57506001600160e01b031982166301342f9f60e31b145b80610a2757506001600160e01b031982166301ffc9a760e01b145b92915050565b6060610a37610ff3565b6001600160a01b03166395d89b416040518163ffffffff1660e01b8152600401600060405180830381865afa158015610a74573d6000803e3d6000fd5b505050506040513d6000823e601f3d908101601f19168201604052610a9c9190810190615010565b604051602001610aac919061509a565b604051602081830303815290604052905090565b600080610acb610ba0565b90508015610aeb57610ae6610ade610989565b8490836131eb565b610aed565b825b9392505050565b600080610aff613209565b33600081815260028301602090815260408083206001600160a01b038a16808552908352928190208890555187815293945090927f8c5be1e5ebec7d5bd14f71427d1e84f3dd0314c0f7b2291e5b200ac8c7c3b92591015b60405180910390a35060019392505050565b600080610b74610ba0565b90508015610b9057610ae681610b88610989565b859190613237565b678ac7230489e800009392505050565b6000610baa613180565b60050154610bb6613209565b54610bc191906150e2565b905090565b6000610bd0613180565b60040154905090565b6000610bc1610be6613180565b60020154600160281b90046001600160401b0316611ad1565b600080610c0a613209565b6001600160a01b038616600090815260028201602090815260408083203384529091529020549091506000198114610c6d57610c4684826150f5565b6001600160a01b038716600090815260028401602090815260408083203384529091529020555b6001600160a01b038616600090815260018301602052604081208054869290610c979084906150f5565b90915550506001600160a01b03808616600081815260018501602052604090819020805488019055519091881690600080516020615d5383398151915290610ce29088815260200190565b60405180910390a350600195945050505050565b6000610d00611ba2565b6001600160a01b0316826001600160a01b03161480610a275750610d2261325d565b600101546001600160a01b0383811691161492915050565b60606000610d4661325d565b9050610d5381858561328b565b949350505050565b60006060610d67610f36565b6001600160a01b0316635c975abb6040518163ffffffff1660e01b8152600401602060405180830381865afa158015610da4573d6000803e3d6000fd5b505050506040513d601f19601f82011682018060405250810190610dc89190615108565b15610df257600a60405163eac08f1960e01b8152600401610de9919061513b565b60405180910390fd5b610dfa61325d565b60010154600160a81b900460ff1615610e2957600960405163eac08f1960e01b8152600401610de9919061513b565b610e3283613355565b6000610e3d8461338b565b81519295509093509150610e80908390610e59906001906150f5565b81518110610e6957610e69615155565b602002602001015160200151604001518483613454565b50915091565b6000610e9061325d565b60020154905090565b610ea1611ba2565b6001600160a01b0316336001600160a01b031614610ebe57600080fd5b80610ec761325d565b6001600160a01b03841660008181526003929092016020908152604092839020805460ff1916941515949094179093558151908152831515928101929092527f73121574a4eadb4cfdeb2ba56a6a88067b03edd1f0a0dfcac0a5a95682a2436791015b60405180910390a15050565b6000610bc160006134e2565b6000610a276001610f74610f546123d8565b610f5e908661516b565b6001600160401b0316610f6f611ebd565b613507565b610f7e91906150f5565b61351f565b6000610bc1613535565b610f9561102f565b6001600160a01b0316336001600160a01b031614610fb257600080fd5b6000610fbc613180565b9050610fc78161353f565b50600181015482359003610fdb828261359b565b50610fef81836040013584602001356135d2565b5050565b6000610bc161366e565b611005611ba2565b6001600160a01b0316336001600160a01b03161461102257600080fd5b8061102b61325d565b5550565b6000611039610f36565b6001600160a01b03166341700b976040518163ffffffff1660e01b8152600401602060405180830381865afa158015611076573d6000803e3d6000fd5b505050506040513d601f19601f82011682018060405250810190610bc19190615192565b6110a2610f36565b6001600160a01b0316336001600160a01b0316146110bf57600080fd5b60006110c961325d565b905060006110da6020840184614a0e565b6001600160a01b031614611118576110f56020830183614a0e565b6001820180546001600160a01b0319166001600160a01b03929092169190911790555b6060820135815561112f60408301602084016151af565b15610fef5760018101805460ff60a01b1916600160a01b17905560005b61115960408401846151cc565b90508110156111cc57600160038301600061117760408701876151cc565b8581811061118757611187615155565b905060200201602081019061119c9190614a0e565b6001600160a01b031681526020810191909152604001600020805460ff191691151591909117905560010161114c565b505050565b6000610a2782610ac0565b6111e4611ba2565b6001600160a01b0316336001600160a01b03161461120157600080fd5b600061120b613180565b6005810180546000909155909150610fef338261367a565b61122b61102f565b6001600160a01b0316336001600160a01b03161461124857600080fd5b6000611252613180565b90508181600101600082825461126891906150e2565b909155505060018101546040519081527f8658d090f98257c3dddbd5519a24e83bee296705ab98a9d4e3c2a95ab6ac831190602001610f2a565b60006112ac61325d565b90506112b6611ba2565b6001600160a01b0316336001600160a01b0316141580156112e4575060018101546001600160a01b03163314155b1561130557600060405163eac08f1960e01b8152600401610de9919061513b565b60028101805490600061131783615215565b91905055507fc6f316165836b9a9ca658ba2e3bbf32b3acff9aca1956fc77393fb506d26b0d6816002015460405161135191815260200190565b60405180910390a150565b60006004611368610ff3565b6001600160a01b031663313ce5676040518163ffffffff1660e01b8152600401602060405180830381865afa1580156113a5573d6000803e3d6000fd5b505050506040513d601f19601f820116820180604052508101906113c9919061522e565b60ff1610156114525760016113dc610ff3565b6001600160a01b031663313ce5676040518163ffffffff1660e01b8152600401602060405180830381865afa158015611419573d6000803e3d6000fd5b505050506040513d601f19601f8201168201806040525081019061143d919061522e565b611447919061524b565b610bc190600a615348565b600861145c610ff3565b6001600160a01b031663313ce5676040518163ffffffff1660e01b8152600401602060405180830381865afa158015611499573d6000803e3d6000fd5b505050506040513d601f19601f820116820180604052508101906114bd919061522e565b60ff1610156114d05760026113dc610ff3565b60066113dc610ff3565b60006114e4613180565b6002810154909150600160281b90046001600160401b03166115035750565b600081600601600060018460020160059054906101000a90046001600160401b031661152f919061516b565b6001600160401b03168152602081019190915260400160002054600160401b90046001600160a01b0316905080156116b157600061156b610ff3565b6040516370a0823160e01b81523060048201526001600160a01b0391909116906370a0823190602401602060405180830381865afa1580156115b1573d6000803e3d6000fd5b505050506040513d601f19601f820116820180604052508101906115d59190615357565b9050808360030154116115f3575060038201805460009091556115ff565b60038301805482900390555b61161c828261160c610ff3565b6001600160a01b031691906136e5565b604051630733d16f60e21b8152600481018290526001600160a01b03831690631ccf45bc90602401600060405180830381600087803b15801561165e57600080fd5b505af1158015611672573d6000803e3d6000fd5b505050507f4fe4d5aa830b30718c35f3d40b9af9a9b42bcba60975357a1b1b40fad5c4eee4816040516116a791815260200190565b60405180910390a1505b6002820154600160281b90046001600160401b031660009081526006830160205260409020546003830154600160401b9091046001600160a01b0316901580159061170157506116ff610bd9565b155b801561171557506001600160a01b03811615155b156111cc57600083600601600060018660020160059054906101000a90046001600160401b0316611746919061516b565b6001600160401b03166001600160401b0316815260200190815260200160002060000160089054906101000a90046001600160a01b031690506000826001600160a01b0316630aeba34e866003015487600601600060018a60020160059054906101000a90046001600160401b03166117bf919061516b565b6001600160401b031681526020810191909152604090810160002054905160e084901b6001600160e01b03191681526004810192909252600160401b90046001600160a01b031660248201526044016020604051808303816000875af115801561182d573d6000803e3d6000fd5b505050506040513d601f19601f820116820180604052508101906118519190615357565b6003860180548290039055604051630733d16f60e21b8152600481018290529091506001600160a01b03831690631ccf45bc90602401600060405180830381600087803b1580156118a157600080fd5b505af11580156118b5573d6000803e3d6000fd5b505050505050505050565b60006118ca613180565b6002810154909150600160281b90046001600160401b0316801580159061192a57506006820160006118fd60018461516b565b6001600160401b03168152602081019190915260400160002054600160401b90046001600160a01b031633145b61193357600080fd5b6111cc8284846000015461194791906150f5565b613763565b6000611956613784565b1561196057503090565b610bc1611ba2565b6000611972610f36565b6001600160a01b0316635c975abb6040518163ffffffff1660e01b8152600401602060405180830381865afa1580156119af573d6000803e3d6000fd5b505050506040513d601f19601f820116820180604052508101906119d39190615108565b156119f457600a60405163eac08f1960e01b8152600401610de9919061513b565b6119fc61325d565b60010154600160a81b900460ff1615611a2b57600960405163eac08f1960e01b8152600401610de9919061513b565b6000611a3561325d565b6001810154909150600160a01b900460ff1615611a73576001600160a01b038316600090815260038201602052604090205460ff16611a7357600080fd5b6000611a7d610989565b9050611a898585613799565b95945050505050565b6000611a9c613209565b6001600160a01b03909216600090815260019290920160205250604090205490565b6000611ac8613180565b60010154905090565b600080611adc611ebd565b611ae78460016150e2565b611af19190615370565b611af96123d8565b611b0391906150e2565b9050804210611b155750600092915050565b610aed42826150f5565b611b27611ba2565b6001600160a01b0316336001600160a01b031614611b4457600080fd5b6000611b4e61325d565b6001018054911515600160a01b0260ff60a01b19909216919091179055604051600081527f0efe10ef116fae4939f66482c28a1b970a12ed19dc4ced68d2080c5558106f11906020015b60405180910390a1565b6000610bc160156134e2565b6000610bc16138a5565b6000611bc2610f36565b6001600160a01b0316635c975abb6040518163ffffffff1660e01b8152600401602060405180830381865afa158015611bff573d6000803e3d6000fd5b505050506040513d601f19601f82011682018060405250810190611c239190615108565b15611c4457600a60405163eac08f1960e01b8152600401610de9919061513b565b611c4c61325d565b60010154600160a81b900460ff1615611c7b57600960405163eac08f1960e01b8152600401610de9919061513b565b6000611c8561325d565b6001810154909150600160a01b900460ff1615611cc3576001600160a01b038316600090815260038201602052604090205460ff16611cc357600080fd5b610d5384846138c1565b6060611cd7610ff3565b6001600160a01b03166395d89b416040518163ffffffff1660e01b8152600401600060405180830381865afa158015611d14573d6000803e3d6000fd5b505050506040513d6000823e601f3d908101601f19168201604052611d3c9190810190615010565b604051602001610aac9190615387565b6000611d56613180565b54919050565b6000611d66613180565b6002810154909150600160281b90046001600160401b03168015801590611dc65750600682016000611d9960018461516b565b6001600160401b03168152602081019190915260400160002054600160401b90046001600160a01b031633145b611dcf57600080fd5b6111cc8284846000015461194791906150e2565b6000611a89611df0613180565b8686868661397e565b600080611e04613209565b336000908152600182016020526040812080549293508592909190611e2a9084906150f5565b90915550506001600160a01b038416600081815260018301602052604090819020805486019055513390600080516020615d5383398151915290610b579087815260200190565b611e7961102f565b6001600160a01b0316336001600160a01b031614611e9657600080fd5b6000611ea0613180565b9050813515610fef578054610fef908290611947908535906150f5565b6000610bc1605d613bf3565b6000611ed3610bd9565b1115611ef557600260405163683f44bb60e11b8152600401610de991906153b5565b6000611eff613180565b600381015490915015611f2857600360405163683f44bb60e11b8152600401610de991906153b5565b6002810154600160281b90046001600160401b03166000818152600683016020526040902054600160401b90046001600160a01b0316901561208657600082600601600060018560020160059054906101000a90046001600160401b0316611f90919061516b565b6001600160401b03168152602081019190915260400160002054600160401b90046001600160a01b03169050801580159061202b5750806001600160a01b031663989673b16040518163ffffffff1660e01b8152600401602060405180830381865afa158015612004573d6000803e3d6000fd5b505050506040513d601f19601f820116820180604052508101906120289190615357565b15155b1561208457806001600160a01b0316634e71d92d6040518163ffffffff1660e01b8152600401600060405180830381600087803b15801561206b57600080fd5b505af115801561207f573d6000803e3d6000fd5b505050505b505b60028201546001600160401b03600160281b9091048116600090815260068401602052604090205416156120d057600460405163683f44bb60e11b8152600401610de991906153b5565b600060048301556001600160a01b038116156122e1576000816001600160a01b03166318160ddd6040518163ffffffff1660e01b8152600401602060405180830381865afa158015612126573d6000803e3d6000fd5b505050506040513d601f19601f8201168201806040525081019061214a9190615357565b9050612168670de0b6b3a7640000612160610ba0565b8391906131eb565b60048085018290556040516302177ab760e11b81526001600160a01b0385169263042ef56e9261219c920190815260200190565b600060405180830381600087803b1580156121b657600080fd5b505af11580156121ca573d6000803e3d6000fd5b505050506000826001600160a01b031663b701e7276040518163ffffffff1660e01b8152600401602060405180830381865afa15801561220e573d6000803e3d6000fd5b505050506040513d601f19601f820116820180604052508101906122329190615357565b90508061223d610989565b111561226e57612264846004015482612254610989565b61225e91906150f5565b90613c15565b6003850155612276565b600060038501555b6122ad846119478660040154670de0b6b3a764000061229591906150f5565b670de0b6b3a76400006122a6610989565b91906131eb565b6122b642613c2a565b60028501805464ffffffffff191664ffffffffff929092169190911790556122de3083613c3c565b50505b50600201805460016001600160401b03600160281b80840482169290920116026cffffffffffffffff000000000019909116179055565b600080612323610ba0565b90508015610b9057610ae6612336610989565b849083613237565b600061234984610b69565b90506000612355613180565b905061237b818386868560020160059054906101000a90046001600160401b031661397e565b50509392505050565b600061238e613180565b60020154600160281b90046001600160401b0316919050565b6000806123b2613180565b9050611a89818686868560020160059054906101000a90046001600160401b031661397e565b6000610bc1603d613bf3565b60606123ee61478e565b6123f6610f36565b6001600160a01b0316635c975abb6040518163ffffffff1660e01b8152600401602060405180830381865afa158015612433573d6000803e3d6000fd5b505050506040513d601f19601f820116820180604052508101906124579190615108565b1561247857600a60405163eac08f1960e01b8152600401610de9919061513b565b61248061325d565b60010154600160a81b900460ff16156124af57600960405163eac08f1960e01b8152600401610de9919061513b565b60006124b9610f36565b6001600160a01b03166341700b976040518163ffffffff1660e01b8152600401602060405180830381865afa1580156124f6573d6000803e3d6000fd5b505050506040513d601f19601f8201168201806040525081019061251a9190615192565b9050600080826001600160a01b0316636d995c3b8a8a8a60ff1681811061254357612543615155565b90506101c002016040518263ffffffff1660e01b815260040161256691906154b8565b6040805180830381865afa158015612582573d6000803e3d6000fd5b505050506040513d601f19601f820116820180604052508101906125a691906154c7565b915091506125b2610ff3565b6040516370a0823160e01b81523060048201526001600160a01b0391909116906370a0823190602401602060405180830381865afa1580156125f8573d6000803e3d6000fd5b505050506040513d601f19601f8201168201806040525081019061261c9190615357565b81111561263f57600660405163eac08f1960e01b8152600401610de9919061513b565b61264886613cad565b6126cd612653610f36565b6001600160a01b03166396d6401d6040518163ffffffff1660e01b8152600401602060405180830381865afa158015612690573d6000803e3d6000fd5b505050506040513d601f19601f820116820180604052508101906126b49190615192565b826126bd610ff3565b6001600160a01b03169190613e00565b6040805180820190915260008082526020820152836001600160a01b0316637d5961926040518060600160405280612703613784565b1580156127455750612713611ba2565b6001600160a01b0316336001600160a01b03161480612745575061273561325d565b600101546001600160a01b031633145b151581526020018b60ff168152602001604051806080016040528088815260200161276e61194c565b6001600160a01b03168152602001612784610f36565b6001600160a01b031663c2e4ba508e61279b6138a5565b6040518363ffffffff1660e01b81526004016127b89291906157ba565b610140604051808303816000875af11580156127d8573d6000803e3d6000fd5b505050506040513d601f19601f820116820180604052508101906127fc91906158b9565b81526020018f8f808060200260200160405190810160405280939291908181526020016000905b82821015612850576128416101c0830286013681900381019061592e565b81526020019060010190612823565b50505050508152508152506040518263ffffffff1660e01b81526004016128779190615a1a565b6000604051808303816000875af1158015612896573d6000803e3d6000fd5b505050506040513d6000823e601f3d908101601f191682016040526128be9190810190615ba2565b919750955090506128ce81613e77565b5050505094509492505050565b60006128e561325d565b60010154600160a81b900460ff16919050565b6000610bc16014613eeb565b60008061290f610ba0565b90508015610aeb57610ae681612923610989565b8591906131eb565b612933611ba2565b6001600160a01b0316336001600160a01b03161461295057600080fd5b600061295a61325d565b6001810180546001600160a01b0319166001600160a01b0385169081179091556040519081529091507fbf313af507f7586dc28510c0974f0196ee356634bf104cf3ab61a28a2616c1549060200160405180910390a1604080516001600160a01b0384168152600160208201527f73121574a4eadb4cfdeb2ba56a6a88067b03edd1f0a0dfcac0a5a95682a243679101610f2a565b6000610bc1607d613bf3565b6000612a0561102f565b6001600160a01b0316336001600160a01b031614612a2257600080fd5b6000612a2c613180565b9050612a378161353f565b50612a4c81846000013583600101540361359b565b6002810154600160281b90046001600160401b031615612a6e57612a6e6114da565b6000612a8f612a836060860160408701615c25565b64ffffffffff16610f42565b9050612a9b8282613f10565b6000612aaf826001600160401b0316611ad1565b905085811015612b4f57612ac38383613fab565b6001600160401b03821660009081526006840160209081526040918290205491516359a13ae560e01b815290870135600482015260248101889052600160401b9091046001600160a01b0316945084906359a13ae590604401600060405180830381600087803b158015612b3657600080fd5b505af1158015612b4a573d6000803e3d6000fd5b505050505b50505092915050565b600080612b63613209565b6001600160a01b0384166000908152600182016020526040902054909150610aed90610ac0565b6000612b94613180565b6001600160401b039290921660009081526006909201602052506040902054600160401b90046001600160a01b031690565b42841015612c165760405162461bcd60e51b815260206004820152601760248201527f5045524d49545f444541444c494e455f455850495245440000000000000000006044820152606401610de9565b60006001612c22610f83565b7f6e71edae12b1b97f4d1f60370fef10105fa2faae0126114a169c64845d6126c98a8a8a612c4e613209565b6001600160a01b038f8116600090815260039290920160209081526040928390208054600181019091558351808301989098529582168784015293166060860152608085019190915260a084019290925260c08084018b90528251808503909101815260e08401909252815191012061190160f01b6101008301526101028201929092526101228101919091526101420160408051601f198184030181528282528051602091820120600084529083018083525260ff871690820152606081018590526080810184905260a0016020604051602081039080840390855afa158015612d3d573d6000803e3d6000fd5b5050604051601f1901519150506001600160a01b03811615801590612d735750876001600160a01b0316816001600160a01b0316145b612db05760405162461bcd60e51b815260206004820152600e60248201526d24a72b20a624a22fa9a4a3a722a960911b6044820152606401610de9565b85612db9613209565b6001600160a01b039283166000908152600291909101602090815260408083208b86168085529083529281902093909355915188815290928a16917f8c5be1e5ebec7d5bd14f71427d1e84f3dd0314c0f7b2291e5b200ac8c7c3b925910160405180910390a350505050505050565b6000610a27612e35611ebd565b612e408460016150e2565b612e4a9190615370565b612e526123d8565b610f7e91906150e2565b600080612e67613209565b6001600160a01b03909316600090815260019093016020525050604090205490565b612e91611ba2565b6001600160a01b0316336001600160a01b031614612eae57600080fd5b6001612eb861325d565b60019081018054921515600160a01b0260ff60a01b19909316929092179091556040519081527f0efe10ef116fae4939f66482c28a1b970a12ed19dc4ced68d2080c5558106f1190602001611b98565b600080612f13613209565b6001600160a01b03948516600090815260029190910160209081526040808320959096168252939093525050205490565b612f4c61102f565b6001600160a01b0316336001600160a01b031614612f6957600080fd5b6000612f73613180565b9050612f7e8161353f565b50600181015483359003612f92828261359b565b50805482018155612fb281612fad610610602087013561351f565b613f10565b8054604051908152600080516020615d738339815191529060200160405180910390a1505050565b6000612fe4613180565b60030154905090565b6000610a2782612904565b61300061102f565b6001600160a01b0316336001600160a01b03161461301d57600080fd5b61302e613028613180565b82613f10565b50565b600061303b610f36565b6001600160a01b031663f5f1f1a76040518163ffffffff1660e01b8152600401602060405180830381865afa158015611076573d6000803e3d6000fd5b604080517f2aef22f9d7df5f9d21c56d14029233f3fdaa91917727e1eb68e504d27072d6cd60208201527f044852b2a670ade5407e78fb2863c51de9fcb96542a07186fe3aeda6bb8a116d9181019190915246606082015230608082015260009060a00160405160208183030381529060405280519060200120905090565b6000610bc1613104613180565b61353f565b613111611ba2565b6001600160a01b0316336001600160a01b03161461312e57600080fd5b600161313861325d565b6001018054911515600160a81b0260ff60a81b199092169190911790556040517f43849b84f1a1ce86ba1205cd8a5d4fa1563bca4b169db452674f94b4b6ddaa6990600090a1565b600080610a2760017fc8b9e850684c861cb4124c86f9eebbd425d1f899eefe14aef183cd9cd8e16ef06150f5565b600281015460009081906131c99064ffffffffff16426150f5565b835460018086015492935090916131e19184906131eb565b610aed91906150e2565b600082600019048411830215820261320257600080fd5b5091020490565b600080610a2760017f6c9d8be213da072972500acecface6c6d1d5ffbaace52819bc377031072935926150f5565b600082600019048411830215820261324e57600080fd5b50910281810615159190040190565b600080610a2760017f8db05f23e24c991e45d8dd3599daf8e419ee5ab93565cf65b18905286a24ec146150f5565b606060007f679f3933bd13bd2e4ec6e9cde341ede07736ad7b635428a8a211e9cccb4393b085600201548560200135856040516020016132e4949392919093845260208401929092526040830152606082015260800190565b60408051601f1981840301815291905280516020909101209050601960f81b600160f81b613310613078565b6040516001600160f81b031993841660208201529290911660218301526022820152604281018290526062016040516020818303038152906040529150509392505050565b600061335f613180565b600381015490915015613374576133746114da565b600061337e610bd9565b03610fef57610fef611ec9565b6000606060008061339b8561416b565b90506133a5610f36565b6001600160a01b031663191e0aca866133bc61194c565b6040518363ffffffff1660e01b81526004016133d9929190615c42565b6000604051808303816000875af11580156133f8573d6000803e3d6000fd5b505050506040513d6000823e601f3d908101601f191682016040526134209190810190615c6c565b9195509350915061344c8161344461343b6040890189615cbb565b60c0013561440f565b61160c610ff3565b509193909250565b600061345e613180565b90506134698161353f565b506001810154820161347b828261359b565b50600061348e8564ffffffffff16610f42565b905061349a8282614527565b604080518581526001600160401b03831660208201527f62a344dd82c6dba4b37f8fd2af14110b8674bb9abdca665ff3b06692935bbee1910160405180910390a15050505050565b6000806134f9600119368181013560f01c90030190565b929092013560601c92915050565b60008161351357600080fd5b50808204910615150190565b6000600160401b821061353157600080fd5b5090565b6000610bc1613078565b600061354a826131ae565b825561355542613c2a565b60028301805464ffffffffff191664ffffffffff929092169190911790558154604051908152600080516020615d738339815191529060200160405180910390a1505490565b600182018190556040518181527f8658d090f98257c3dddbd5519a24e83bee296705ab98a9d4e3c2a95ab6ac831190602001610f2a565b60006135dc6129ef565b146111cc5760008282116135f057816135f2565b825b9050600061360b6136016129ef565b83906127106131eb565b9050600061361882612904565b90508086600501600082825461362e91906150e2565b90915550506040518181527f2bd593ac0d40e025add00172e0df3212c8932be1f8434aef76e57f1816f463789060200160405180910390a1505050505050565b6000610bc160296134e2565b6000613684613209565b90508181600001600082825461369a91906150e2565b90915550506001600160a01b0383166000818152600183016020908152604080832080548701905551858152600080516020615d5383398151915291015b60405180910390a3505050565b600060405163a9059cbb60e01b8152836004820152826024820152602060006044836000895af13d15601f3d116001600051141617169150508061375d5760405162461bcd60e51b815260206004820152600f60248201526e1514905394d1915497d19052531151608a1b6044820152606401610de9565b50505050565b808255604051818152600080516020615d7383398151915290602001610f2a565b600060016137906128f8565b60ff1614905090565b60006137a483612fed565b9050806000036137e45760405162461bcd60e51b815260206004820152600b60248201526a5a45524f5f53484152455360a81b6044820152606401610de9565b6137ec61135c565b811161382c5760405162461bcd60e51b815260206004820152600f60248201526e159053155157d513d3d7d4d3505313608a1b6044820152606401610de9565b61384b33308561383a610ff3565b6001600160a01b0316929190614564565b613855828261367a565b60408051848152602081018390526001600160a01b0384169133917fdcbc1c05240f31ff3ad067ef1ee35ce4997762752e3a095284754544f4c709d7910160405180910390a3610a2783826145ee565b60006138af611ebd565b6138b7610bd9565b610bc191906150e2565b60006138cc83612318565b90506138d661135c565b81116139165760405162461bcd60e51b815260206004820152600f60248201526e159053155157d513d3d7d4d3505313608a1b6044820152606401610de9565b61392433308361383a610ff3565b61392e828461367a565b60408051828152602081018590526001600160a01b0384169133917fdcbc1c05240f31ff3ad067ef1ee35ce4997762752e3a095284754544f4c709d7910160405180910390a3610a2781846145ee565b600080613989613209565b9050336001600160a01b038516146139fd576001600160a01b0384166000908152600282016020908152604080832033845290915290205460001981146139fb576139d487826150f5565b6001600160a01b038616600090815260028401602090815260408083203384529091529020555b505b60028701546001600160401b03600160281b90910481169084161015613a3957600060405163683f44bb60e11b8152600401610de991906153b5565b613a42866111d1565b915081600003613a825760405162461bcd60e51b815260206004820152600b60248201526a5a45524f5f41535345545360a81b6044820152606401610de9565b6001600160a01b038416600090815260018201602052604081208054889290613aac9084906150f5565b909155505030600081815260018301602052604090819020805489019055516001600160a01b03861690600080516020615d5383398151915290613af3908a815260200190565b60405180910390a3613b058784613fab565b60408051838152602081018890526001600160a01b03808716929088169133917ffbde797d201c681b91056529119e0b02407c7bb96a4a2c75c01fc9667232c8db910160405180910390a46001600160401b0383166000908152600688016020526040908190205490516394bf804d60e01b8152600481018890526001600160a01b038781166024830152600160401b909204909116906394bf804d906044016020604051808303816000875af1158015613bc4573d6000803e3d6000fd5b505050506040513d601f19601f82011682018060405250810190613be89190615357565b505095945050505050565b600080613c0a600119368181013560f01c90030190565b929092013592915050565b6000610aed8383670de0b6b3a76400006131eb565b6000600160281b821061353157600080fd5b6000613c46613209565b6001600160a01b0384166000908152600182016020526040812080549293508492909190613c759084906150f5565b9091555050805482900381556040518281526000906001600160a01b03851690600080516020615d53833981519152906020016136d8565b6000613cb761325d565b905060006001613cef83613cce6040870187615cbb565b613cdb6040880188615cbb565b613ce99060a0810190615cdc565b3561328b565b8051602090910120613d046040860186615cbb565b613d169061010081019060e001615cf2565b613d236040870187615cbb565b6101000135613d356040880188615cbb565b6040805160008152602081018083529590955260ff9093169284019290925260608301526101200135608082015260a0016020604051602081039080840390855afa158015613d88573d6000803e3d6000fd5b505050602060405103519050613d9c611ba2565b6001600160a01b0316816001600160a01b031614158015613dcd575060018201546001600160a01b03828116911614155b80613ddf57506001600160a01b038116155b156111cc57600360405163eac08f1960e01b8152600401610de9919061513b565b600060405163095ea7b360e01b8152836004820152826024820152602060006044836000895af13d15601f3d116001600051141617169150508061375d5760405162461bcd60e51b815260206004820152600e60248201526d1054141493d59157d1905253115160921b6044820152606401610de9565b6000613e81613180565b9050613e8c8161353f565b50600381015415613e9f57613e9f6114da565b8151600182015401613eb1828261359b565b50613ecb81613ec6610610856020015161351f565b614527565b8054604051908152600080516020615d7383398151915290602001610f2a565b600080613f02600119368181013560f01c90030190565b929092013560f81c92915050565b6001600160401b038082166000908152600684016020526040812080549092169190613f3b83615d0f565b82546101009290920a6001600160401b038181021990931691831602179091558281166000818152600686016020908152604091829020548251938452909316928201929092527fc78e24d95d2fbcef8eeb6cf95914c9a7cfd906a017910a054d2404baac851231925001610f2a565b6001600160401b0381166000908152600683016020526040902054600160401b90046001600160a01b0316610fef5761411f613fe5610f36565b6001600160a01b0316631ff0c9d66040518163ffffffff1660e01b8152600401602060405180830381865afa158015614022573d6000803e3d6000fd5b505050506040513d601f19601f820116820180604052508101906140469190615192565b61404e610f36565b6002614058610ff3565b30614064876001615d32565b604051606095861b6bffffffffffffffffffffffff19908116602083015260f89590951b6001600160f81b031916603482015292851b84166035840152931b909116604982015260c09190911b6001600160c01b031916605d82015260650160408051601f19818403018152908290526bffffffffffffffffffffffff193060601b1660208301526001600160c01b031960c086901b16603483015290603c016040516020818303038152906040528051906020012061466f565b6001600160401b0382166000908152600684016020526040902080546001600160a01b0392909216600160401b0268010000000000000000600160e01b03199092169190911790555050565b60003061417b6040840184615cbb565b61418c906060810190604001614a0e565b6001600160a01b0316146141b657600260405163eac08f1960e01b8152600401610de9919061513b565b60006141e3602084018035906141cc9086614a0e565b6001600160a01b03166000526020526034600c2090565b905060006141ef613031565b6040516331a9108f60e11b8152600481018490529091506000906001600160a01b03831690636352211e90602401602060405180830381865afa15801561423a573d6000803e3d6000fd5b505050506040513d601f19601f8201168201806040525081019061425e9190615192565b60405163020604bf60e21b8152600481018590529091506000906001600160a01b0384169063081812fc90602401602060405180830381865afa1580156142a9573d6000803e3d6000fd5b505050506040513d601f19601f820116820180604052508101906142cd9190615192565b9050336001600160a01b038316148015906142f15750336001600160a01b03821614155b801561436a575060405163e985e9c560e01b81526001600160a01b03838116600483015233602483015284169063e985e9c590604401602060405180830381865afa158015614344573d6000803e3d6000fd5b505050506040513d601f19601f820116820180604052508101906143689190615108565b155b1561438b57600060405163eac08f1960e01b8152600401610de9919061513b565b6143986040870187615cbb565b602001354211156143bf57600b60405163eac08f1960e01b8152600401610de9919061513b565b6143c886613cad565b6001600160a01b038216331461440657333b156143ea57503395945050505050565b600160405163eac08f1960e01b8152600401610de9919061513b565b50949350505050565b60008061441a610f36565b6001600160a01b031663017e7e586040518163ffffffff1660e01b81526004016020604051808303816000875af1158015614459573d6000803e3d6000fd5b505050506040513d601f19601f8201168201806040525081019061447d9190615192565b90506001600160a01b0381161580159061451f57600061449b610f36565b6001600160a01b0316630f0245ad866040518263ffffffff1660e01b81526004016144c891815260200190565b602060405180830381865afa1580156144e5573d6000803e3d6000fd5b505050506040513d601f19601f820116820180604052508101906145099190615357565b9050808503945061451d838261160c610ff3565b505b509192915050565b6001600160401b03908116600090815260069092016020526040909120805480831660010190921667ffffffffffffffff19909216919091179055565b60006040516323b872dd60e01b81528460048201528360248201528260448201526020600060648360008a5af13d15601f3d11600160005114161716915050806145e75760405162461bcd60e51b81526020600482015260146024820152731514905394d1915497d19493d357d1905253115160621b6044820152606401610de9565b5050505050565b60006145f8613180565b8054840181559050600061460a61325d565b80549091501580159061462557508054614622610989565b10155b1561464657600760405163683f44bb60e11b8152600401610de991906153b5565b8154604051908152600080516020615d738339815191529060200160405180910390a150505050565b600080600061467e86866146b1565b915091508381836000f592506001600160a01b03831661237b57604051631d7fde3160e31b815260040160405180910390fd5b8051604051606160f81b81526039820160f081811b60018401526f3d81600a3d39f33d3d3d3d363d3d376160801b600384015260028401901b601383018190526560373639366160d01b6015840152601b83015262013d7360e81b601d830152606085901b6020808401919091526c5af43d3d93803e603557fd5bf360981b603484015291926043810192909190850182604186015b602082106147665782518152602092830192601f199092019101614747565b915160001960208390036101000a011916825260f09390931b920191909152505b9250929050565b60405180604001604052806147a16147d0565b81526040805160808101825260008082526020828101829052928201819052606082015291015290565b905290565b6040518060c00160405280600060ff16815260200160006001600160a01b0316815260200160006001600160a01b0316815260200160008019168152602001600081526020016147cb6040518060a0016040528060008152602001600081526020016000815260200160008152602001600081525090565b60006020828403121561485a57600080fd5b81356001600160e01b031981168114610aed57600080fd5b60005b8381101561488d578181015183820152602001614875565b50506000910152565b600081518084526148ae816020860160208601614872565b601f01601f19169290920160200192915050565b602081526000610aed6020830184614896565b6000602082840312156148e757600080fd5b5035919050565b6001600160a01b038116811461302e57600080fd5b6000806040838503121561491657600080fd5b8235614921816148ee565b946020939093013593505050565b60008060008060006080868803121561494757600080fd5b8535614952816148ee565b94506020860135614962816148ee565b93506040860135925060608601356001600160401b038082111561498557600080fd5b818801915088601f83011261499957600080fd5b8135818111156149a857600080fd5b8960208285010111156149ba57600080fd5b9699959850939650602001949392505050565b6000806000606084860312156149e257600080fd5b83356149ed816148ee565b925060208401356149fd816148ee565b929592945050506040919091013590565b600060208284031215614a2057600080fd5b8135610aed816148ee565b600060608284031215614a3d57600080fd5b50919050565b60008060808385031215614a5657600080fd5b614a608484614a2b565b946060939093013593505050565b600060208284031215614a8057600080fd5b81356001600160401b03811115614a9657600080fd5b610d5384828501614a2b565b805160ff1682526020808201516001600160a01b039081168285015260408084015190911681850152606080840151818601526080808501518187015260a0948501518051958701959095529284015160c08601529083015160e0850152820151610100840152015161012090910152565b614b1f828251614aa2565b60209081015180516101408401529081015164ffffffffff908116610160840152604082015116610180830152606001516101a090910152565b600081518084526020808501945080840160005b83811015614b9457614b80878351614b14565b6101c0969096019590820190600101614b6d565b509495945050505050565b828152604060208201526000610d536040830184614b59565b801515811461302e57600080fd5b60008060408385031215614bd957600080fd5b8235614be4816148ee565b91506020830135614bf481614bb8565b809150509250929050565b80356001600160401b0381168114614c1657600080fd5b919050565b600060208284031215614c2d57600080fd5b610aed82614bff565b600060608284031215614c4857600080fd5b610aed8383614a2b565b600060208284031215614c6457600080fd5b81356001600160401b03811115614c7a57600080fd5b820160808185031215610aed57600080fd5b60008060408385031215614c9f57600080fd5b823591506020830135614bf4816148ee565b60008060008060808587031215614cc757600080fd5b843593506020850135614cd9816148ee565b92506040850135614ce9816148ee565b9150614cf760608601614bff565b905092959194509250565b600060208284031215614a3d57600080fd5b600080600060608486031215614d2957600080fd5b833592506020840135614d3b816148ee565b91506040840135614d4b816148ee565b809150509250925092565b60ff8116811461302e57600080fd5b8035614c1681614d56565b60008060008060608587031215614d8657600080fd5b84356001600160401b0380821115614d9d57600080fd5b818701915087601f830112614db157600080fd5b813581811115614dc057600080fd5b8860206101c083028501011115614dd657600080fd5b60208301965080955050614dec60208801614d65565b93506040870135915080821115614e0257600080fd5b50614e0f87828801614a2b565b91505092959194509250565b60006101e0808352614e2f81840186614b59565b915050610aed6020830184614b14565b60008060808385031215614e5257600080fd5b82359150614e638460208501614a2b565b90509250929050565b600080600080600080600060e0888a031215614e8757600080fd5b8735614e92816148ee565b96506020880135614ea2816148ee565b955060408801359450606088013593506080880135614ec081614d56565b9699959850939692959460a0840135945060c09093013592915050565b60008060408385031215614ef057600080fd5b8235614efb816148ee565b91506020830135614bf4816148ee565b6000808284036060811215614f1f57600080fd5b6040811215614f2d57600080fd5b50919360408501359350915050565b634e487b7160e01b600052604160045260246000fd5b60405160c081016001600160401b0381118282101715614f7457614f74614f3c565b60405290565b604051608081016001600160401b0381118282101715614f7457614f74614f3c565b604080519081016001600160401b0381118282101715614f7457614f74614f3c565b60405160a081016001600160401b0381118282101715614f7457614f74614f3c565b604051601f8201601f191681016001600160401b038111828210171561500857615008614f3c565b604052919050565b60006020828403121561502257600080fd5b81516001600160401b038082111561503957600080fd5b818401915084601f83011261504d57600080fd5b81518181111561505f5761505f614f3c565b615072601f8201601f1916602001614fe0565b915080825285602082850101111561508957600080fd5b614406816020840160208601614872565b694153542d5661756c742d60b01b8152600082516150bf81600a850160208701614872565b91909101600a0192915050565b634e487b7160e01b600052601160045260246000fd5b80820180821115610a2757610a276150cc565b81810381811115610a2757610a276150cc565b60006020828403121561511a57600080fd5b8151610aed81614bb8565b634e487b7160e01b600052602160045260246000fd5b60208101600c831061514f5761514f615125565b91905290565b634e487b7160e01b600052603260045260246000fd5b6001600160401b0382811682821603908082111561518b5761518b6150cc565b5092915050565b6000602082840312156151a457600080fd5b8151610aed816148ee565b6000602082840312156151c157600080fd5b8135610aed81614bb8565b6000808335601e198436030181126151e357600080fd5b8301803591506001600160401b038211156151fd57600080fd5b6020019150600581901b360382131561478757600080fd5b600060018201615227576152276150cc565b5060010190565b60006020828403121561524057600080fd5b8151610aed81614d56565b60ff8281168282160390811115610a2757610a276150cc565b600181815b8085111561529f578160001904821115615285576152856150cc565b8085161561529257918102915b93841c9390800290615269565b509250929050565b6000826152b657506001610a27565b816152c357506000610a27565b81600181146152d957600281146152e3576152ff565b6001915050610a27565b60ff8411156152f4576152f46150cc565b50506001821b610a27565b5060208310610133831016604e8410600b8410161715615322575081810a610a27565b61532c8383615264565b8060001904821115615340576153406150cc565b029392505050565b6000610aed60ff8416836152a7565b60006020828403121561536957600080fd5b5051919050565b8082028115828204841417610a2757610a276150cc565b654153542d562d60d01b8152600082516153a8816006850160208701614872565b9190910160060192915050565b602081016008831061514f5761514f615125565b64ffffffffff8116811461302e57600080fd5b8035825260208101356153ee816153c9565b64ffffffffff908116602084015260408201359061540b826153c9565b166040830152606090810135910152565b803561542781614d56565b60ff168252602081013561543a816148ee565b6001600160a01b039081166020840152604082013590615459826148ee565b166040830152606081810135908301526080808201359083015260a0808201359083015260c0808201359083015260e08082013590830152610100808201359083015261012080820135908301526101406111cc8184018284016153dc565b6101c08101610a27828461541c565b600080604083850312156154da57600080fd5b505080516020909101519092909150565b6000808335601e1984360301811261550257600080fd5b83016020810192503590506001600160401b0381111561552157600080fd5b6101c08102360382131561478757600080fd5b81835260208301925060008160005b8481101561556957615555868361541c565b6101c0958601959190910190600101615543565b5093949350505050565b6000808335601e1984360301811261558a57600080fd5b83016020810192503590506001600160401b038111156155a957600080fd5b80360382131561478757600080fd5b81835281816020850137506000828201602090810191909152601f909101601f19169091010190565b60008235603e198336030181126155f757600080fd5b90910192915050565b8035825260006020820135601e1983360301811261561d57600080fd5b82016020810190356001600160401b0381111561563957600080fd5b8060051b80360383131561564c57600080fd5b60406020870181905286018290526001600160fb1b0382111561566e57600080fd5b8083606088013794909401606001949350505050565b60008135615691816148ee565b6001600160a01b039081168452602083810135908501526040830135903684900361013e190182126156c257600080fd5b606060408601529083019081356156d881614d56565b60ff1660608601526020820135608086015260408201356156f8816148ee565b1660a085015261570b60608201826154eb565b6101408060c08801526157236101a088018385615534565b92506157326080850185615573565b9250605f19808986030160e08a015261574c8585846155b8565b945061575b60a08701876155e1565b935061010091508089860301828a0152506157768484615600565b9350610120925060c08501358389015261579260e08601614d65565b60ff811689840152508401356101608801525090910135610180909401939093525090919050565b6040815260006157cd6040830185615684565b90508260208301529392505050565b60008183036101408112156157f057600080fd5b6157f8614f52565b9150825161580581614d56565b82526020830151615815816148ee565b60208301526040830151615828816148ee565b6040830152606083810151908301526080808401519083015260a0609f198201121561585357600080fd5b5060405160a081018181106001600160401b038211171561587657615876614f3c565b806040525060a0830151815260c0830151602082015260e08301516040820152610100830151606082015261012083015160808201528060a08301525092915050565b600061014082840312156158cc57600080fd5b610aed83836157dc565b6000608082840312156158e857600080fd5b6158f0614f7a565b9050813581526020820135615904816153c9565b60208201526040820135615917816153c9565b806040830152506060820135606082015292915050565b60008183036101c081121561594257600080fd5b61594a614f9c565b6101408083121561595a57600080fd5b615962614f52565b853561596d81614d56565b8152602086013561597d816148ee565b60208201526040860135615990816148ee565b6040820152606086810135908201526080808701359082015260a0609f19850112156159bb57600080fd5b6159c3614fbe565b935060a0860135845260c0860135602085015260e08601356040850152610100860135606085015261012086013560808501528360a082015280835250615a0c868287016158d6565b602083015250949350505050565b6020815281511515602082015260ff6020830151166040820152600060408301516060808401528051608084015260018060a01b0360208201511660a08401526040810151615a6c60c0850182614aa2565b50606001516101a0610200840152610d53610220840182614b59565b60008183036101c0811215615a9c57600080fd5b615aa4614f9c565b9150615ab084846157dc565b8252608061013f1982011215615ac557600080fd5b50615ace614f7a565b6101408301518152610160830151615ae5816153c9565b6020820152610180830151615af9816153c9565b806040830152506101a083015160608201528060208301525092915050565b600082601f830112615b2957600080fd5b815160206001600160401b03821115615b4457615b44614f3c565b615b52818360051b01614fe0565b8281526101c09283028501820192828201919087851115615b7257600080fd5b8387015b85811015615b9557615b888982615a88565b8452928401928101615b76565b5090979650505050505050565b6000806000838503610220811215615bb957600080fd5b84516001600160401b03811115615bcf57600080fd5b615bdb87828801615b18565b945050615beb8660208701615a88565b925060406101df1982011215615c0057600080fd5b50615c09614f9c565b6101e08501518152610200909401516020850152509093909250565b600060208284031215615c3757600080fd5b8135610aed816153c9565b604081526000615c556040830185615684565b905060018060a01b03831660208301529392505050565b600080600060608486031215615c8157600080fd5b8351925060208401516001600160401b03811115615c9e57600080fd5b615caa86828701615b18565b925050604084015190509250925092565b6000823561013e19833603018112615cd257600080fd5b9190910192915050565b60008235603e19833603018112615cd257600080fd5b600060208284031215615d0457600080fd5b8135610aed81614d56565b60006001600160401b03821680615d2857615d286150cc565b6000190192915050565b6001600160401b0381811683821601908082111561518b5761518b6150cc56feddf252ad1be2c89b69c2b068fc378daa952ba7f163c4a11628f55a4df523b3ef0d929f3d1cc26451e13ef120a91a57d7b74aabeb7d27aea8659f79232ded5bb7a264697066735822122086923baea19a11a4ec0c5a282a77d4fb4497c2c673dae87ebfddc41661f745c164736f6c63430008110033",
    "linkReferences": {}
  },
  "methodIdentifiers": {
    "COLLATERAL_TOKEN()": "f5f1f1a7",
    "DOMAIN_SEPARATOR()": "3644e515",
    "EPOCH_LENGTH()": "ac4746ab",
    "IMPL_TYPE()": "c237c703",
    "LIEN_TOKEN()": "41700b97",
    "ROUTER()": "32fe7b26",
    "START()": "ba9a061a",
    "STRATEGY_TYPEHASH()": "51ab5c49",
    "VAULT_FEE()": "cb58189d",
    "accrue()": "f8ba4cff",
    "afterPayment(uint256)": "59f9556e",
    "allowance(address,address)": "dd62ed3e",
    "approve(address,uint256)": "095ea7b3",
    "asset()": "38d52e0f",
    "balanceOf(address)": "70a08231",
    "beforePayment((uint256,uint256,uint256))": "38663c3f",
    "buyoutLien(((uint8,address,address,bytes32,uint256,(uint256,uint256,uint256,uint256,uint256)),(uint256,uint40,uint40,uint256))[],uint8,(address,uint256,((uint8,uint256,address),((uint8,address,address,bytes32,uint256,(uint256,uint256,uint256,uint256,uint256)),(uint256,uint40,uint40,uint256))[],bytes,(bytes32,bytes32[]),uint256,uint8,bytes32,bytes32)))": "bd2c6bae",
    "claim()": "4e71d92d",
    "commitToLien((address,uint256,((uint8,uint256,address),((uint8,address,address,bytes32,uint256,(uint256,uint256,uint256,uint256,uint256)),(uint256,uint40,uint40,uint256))[],bytes,(bytes32,bytes32[]),uint256,uint8,bytes32,bytes32)))": "29aee4bd",
    "convertToAssets(uint256)": "07a2d13a",
    "convertToShares(uint256)": "c6e6f592",
    "decimals()": "313ce567",
    "decreaseEpochLienCount(uint64)": "f1e9f4f5",
    "decreaseYIntercept(uint256)": "65612e68",
    "deposit(uint256,address)": "6e553f65",
    "disableAllowList()": "834029ba",
    "domainSeparator()": "f698da25",
    "enableAllowList()": "dc2fbaee",
    "encodeStrategyData((uint8,uint256,address),bytes32)": "2917e097",
    "getCurrentEpoch()": "b97dd9e2",
    "getEpochEnd(uint256)": "d5176d23",
    "getLienEpoch(uint64)": "349f723d",
    "getLiquidationWithdrawRatio()": "1d5470e8",
    "getShutdown()": "c0e9b053",
    "getSlope()": "79c84f9c",
    "getStrategistNonce()": "30040e77",
    "getWithdrawProxy(uint64)": "cebbdf23",
    "getWithdrawReserve()": "dfb2b645",
    "getYIntercept()": "9d8f8fcc",
    "handleLoseLienToBuyout((uint256,uint256),uint256)": "de6c2848",
    "increaseYIntercept(uint256)": "9ff2cfb4",
    "incrementNonce()": "627cdcb9",
    "init((address,bool,address[],uint256))": "474a1e54",
    "isDelegateOrOwner(address)": "28ff437d",
    "maxDeposit(address)": "402d267d",
    "maxMint(address)": "c63d75b6",
    "maxRedeem(address)": "d905777e",
    "maxWithdraw(address)": "ce96cb77",
    "minDepositAmount()": "645006ca",
    "mint(uint256,address)": "94bf804d",
    "modifyAllowList(address,bool)": "3177e0fe",
    "modifyDepositCap(uint256)": "3c96ce12",
    "name()": "06fdde03",
    "onERC721Received(address,address,uint256,bytes)": "150b7a02",
    "owner()": "8da5cb5b",
    "permit(address,address,uint256,uint256,uint8,bytes32,bytes32)": "d505accf",
    "previewDeposit(uint256)": "ef8b30f7",
    "previewMint(uint256)": "b3d7f6b9",
    "previewRedeem(uint256)": "4cdad506",
    "previewWithdraw(uint256)": "0a28a477",
    "processEpoch()": "b19c2c70",
    "recipient()": "66d003ac",
    "redeem(uint256,address,address)": "ba087652",
    "redeemFutureEpoch(uint256,address,address,uint64)": "a3a911ba",
    "setDelegate(address)": "ca5eb5e1",
    "shutdown()": "fc0e74d1",
    "supportsInterface(bytes4)": "01ffc9a7",
    "symbol()": "95d89b41",
    "timeToEpochEnd()": "200298bf",
    "timeToEpochEnd(uint256)": "7f65a114",
    "timeToSecondEpochEnd()": "90bec11d",
    "totalAssets()": "01e1d114",
    "totalSupply()": "18160ddd",
    "transfer(address,uint256)": "a9059cbb",
    "transferFrom(address,address,uint256)": "23b872dd",
    "transferWithdrawReserve()": "64e4cf3b",
    "updateAfterLiquidationPayment((uint256))": "aaed42b7",
    "updateVaultAfterLiquidation(uint256,(uint256,uint256,uint40))": "cd12030f",
    "withdraw(uint256,address,address)": "b460af94"
  },
  "id": 151
}