{
  "abi": [
    {
      "inputs": [],
      "name": "CreateFail",
      "type": "error"
    },
    {
      "inputs": [
        {
          "internalType": "enum IVaultImplementation.InvalidRequestReason",
          "name": "reason",
          "type": "uint8"
        }
      ],
      "name": "InvalidRequest",
      "type": "error"
    },
    {
      "inputs": [
        {
          "internalType": "enum IPublicVault.InvalidStates",
          "name": "",
          "type": "uint8"
        }
      ],
      "name": "InvalidState",
      "type": "error"
    },
    {
      "anonymous": false,
      "inputs": [
        {
          "indexed": false,
          "internalType": "bool",
          "name": "",
          "type": "bool"
        }
      ],
      "name": "AllowListEnabled",
      "type": "event"
    },
    {
      "anonymous": false,
      "inputs": [
        {
          "indexed": false,
          "internalType": "address",
          "name": "",
          "type": "address"
        },
        {
          "indexed": false,
          "internalType": "bool",
          "name": "",
          "type": "bool"
        }
      ],
      "name": "AllowListUpdated",
      "type": "event"
    },
    {
      "anonymous": false,
      "inputs": [
        {
          "indexed": true,
          "internalType": "address",
          "name": "owner",
          "type": "address"
        },
        {
          "indexed": true,
          "internalType": "address",
          "name": "spender",
          "type": "address"
        },
        {
          "indexed": false,
          "internalType": "uint256",
          "name": "value",
          "type": "uint256"
        }
      ],
      "name": "Approval",
      "type": "event"
    },
    {
      "anonymous": false,
      "inputs": [
        {
          "indexed": false,
          "internalType": "address",
          "name": "",
          "type": "address"
        }
      ],
      "name": "DelegateUpdated",
      "type": "event"
    },
    {
      "anonymous": false,
      "inputs": [
        {
          "indexed": true,
          "internalType": "address",
          "name": "sender",
          "type": "address"
        },
        {
          "indexed": true,
          "internalType": "address",
          "name": "owner",
          "type": "address"
        },
        {
          "indexed": false,
          "internalType": "uint256",
          "name": "assets",
          "type": "uint256"
        },
        {
          "indexed": false,
          "internalType": "uint256",
          "name": "shares",
          "type": "uint256"
        }
      ],
      "name": "Deposit",
      "type": "event"
    },
    {
      "anonymous": false,
      "inputs": [
        {
          "indexed": false,
          "internalType": "uint256",
          "name": "nonce",
          "type": "uint256"
        }
      ],
      "name": "IncrementNonce",
      "type": "event"
    },
    {
      "anonymous": false,
      "inputs": [
        {
          "indexed": false,
          "internalType": "uint256",
          "name": "lienId",
          "type": "uint256"
        },
        {
          "indexed": false,
          "internalType": "uint256",
          "name": "epoch",
          "type": "uint256"
        }
      ],
      "name": "LienOpen",
      "type": "event"
    },
    {
      "anonymous": false,
      "inputs": [
        {
          "indexed": false,
          "internalType": "uint64",
          "name": "epoch",
          "type": "uint64"
        },
        {
          "indexed": false,
          "internalType": "uint256",
          "name": "liensOpenForEpoch",
          "type": "uint256"
        }
      ],
      "name": "LiensOpenForEpochRemaining",
      "type": "event"
    },
    {
      "anonymous": false,
      "inputs": [
        {
          "indexed": false,
          "internalType": "uint256",
          "name": "nonce",
          "type": "uint256"
        }
      ],
      "name": "NonceUpdated",
      "type": "event"
    },
    {
      "anonymous": false,
      "inputs": [
        {
          "indexed": false,
          "internalType": "uint256",
          "name": "newSlope",
          "type": "uint256"
        }
      ],
      "name": "SlopeUpdated",
      "type": "event"
    },
    {
      "anonymous": false,
      "inputs": [
        {
          "indexed": false,
          "internalType": "uint256",
          "name": "feeInShares",
          "type": "uint256"
        }
      ],
      "name": "StrategistFee",
      "type": "event"
    },
    {
      "anonymous": false,
      "inputs": [
        {
          "indexed": true,
          "internalType": "address",
          "name": "from",
          "type": "address"
        },
        {
          "indexed": true,
          "internalType": "address",
          "name": "to",
          "type": "address"
        },
        {
          "indexed": false,
          "internalType": "uint256",
          "name": "value",
          "type": "uint256"
        }
      ],
      "name": "Transfer",
      "type": "event"
    },
    {
      "anonymous": false,
      "inputs": [],
      "name": "VaultShutdown",
      "type": "event"
    },
    {
      "anonymous": false,
      "inputs": [
        {
          "indexed": true,
          "internalType": "address",
          "name": "sender",
          "type": "address"
        },
        {
          "indexed": true,
          "internalType": "address",
          "name": "receiver",
          "type": "address"
        },
        {
          "indexed": true,
          "internalType": "address",
          "name": "owner",
          "type": "address"
        },
        {
          "indexed": false,
          "internalType": "uint256",
          "name": "assets",
          "type": "uint256"
        },
        {
          "indexed": false,
          "internalType": "uint256",
          "name": "shares",
          "type": "uint256"
        }
      ],
      "name": "Withdraw",
      "type": "event"
    },
    {
      "anonymous": false,
      "inputs": [
        {
          "indexed": false,
          "internalType": "uint256",
          "name": "amount",
          "type": "uint256"
        }
      ],
      "name": "WithdrawReserveTransferred",
      "type": "event"
    },
    {
      "anonymous": false,
      "inputs": [
        {
          "indexed": false,
          "internalType": "uint256",
          "name": "newYintercept",
          "type": "uint256"
        }
      ],
      "name": "YInterceptChanged",
      "type": "event"
    },
    {
      "inputs": [],
      "name": "COLLATERAL_TOKEN",
      "outputs": [
        {
          "internalType": "contract ICollateralToken",
          "name": "",
          "type": "address"
        }
      ],
      "stateMutability": "view",
      "type": "function"
    },
    {
      "inputs": [],
      "name": "DOMAIN_SEPARATOR",
      "outputs": [
        {
          "internalType": "bytes32",
          "name": "",
          "type": "bytes32"
        }
      ],
      "stateMutability": "view",
      "type": "function"
    },
    {
      "inputs": [],
      "name": "EPOCH_LENGTH",
      "outputs": [
        {
          "internalType": "uint256",
          "name": "",
          "type": "uint256"
        }
      ],
      "stateMutability": "pure",
      "type": "function"
    },
    {
      "inputs": [],
      "name": "IMPL_TYPE",
      "outputs": [
        {
          "internalType": "uint8",
          "name": "",
          "type": "uint8"
        }
      ],
      "stateMutability": "pure",
      "type": "function"
    },
    {
      "inputs": [],
      "name": "LIEN_TOKEN",
      "outputs": [
        {
          "internalType": "contract ILienToken",
          "name": "",
          "type": "address"
        }
      ],
      "stateMutability": "view",
      "type": "function"
    },
    {
      "inputs": [],
      "name": "ROUTER",
      "outputs": [
        {
          "internalType": "contract IAstariaRouter",
          "name": "",
          "type": "address"
        }
      ],
      "stateMutability": "pure",
      "type": "function"
    },
    {
      "inputs": [],
      "name": "START",
      "outputs": [
        {
          "internalType": "uint256",
          "name": "",
          "type": "uint256"
        }
      ],
      "stateMutability": "pure",
      "type": "function"
    },
    {
      "inputs": [],
      "name": "STRATEGY_TYPEHASH",
      "outputs": [
        {
          "internalType": "bytes32",
          "name": "",
          "type": "bytes32"
        }
      ],
      "stateMutability": "view",
      "type": "function"
    },
    {
      "inputs": [],
      "name": "VAULT_FEE",
      "outputs": [
        {
          "internalType": "uint256",
          "name": "",
          "type": "uint256"
        }
      ],
      "stateMutability": "pure",
      "type": "function"
    },
    {
      "inputs": [],
      "name": "accrue",
      "outputs": [
        {
          "internalType": "uint256",
          "name": "",
          "type": "uint256"
        }
      ],
      "stateMutability": "nonpayable",
      "type": "function"
    },
    {
      "inputs": [
        {
          "internalType": "uint256",
          "name": "computedSlope",
          "type": "uint256"
        }
      ],
      "name": "afterPayment",
      "outputs": [],
      "stateMutability": "nonpayable",
      "type": "function"
    },
    {
      "inputs": [
        {
          "internalType": "address",
          "name": "owner",
          "type": "address"
        },
        {
          "internalType": "address",
          "name": "spender",
          "type": "address"
        }
      ],
      "name": "allowance",
      "outputs": [
        {
          "internalType": "uint256",
          "name": "",
          "type": "uint256"
        }
      ],
      "stateMutability": "view",
      "type": "function"
    },
    {
      "inputs": [
        {
          "internalType": "address",
          "name": "spender",
          "type": "address"
        },
        {
          "internalType": "uint256",
          "name": "amount",
          "type": "uint256"
        }
      ],
      "name": "approve",
      "outputs": [
        {
          "internalType": "bool",
          "name": "",
          "type": "bool"
        }
      ],
      "stateMutability": "nonpayable",
      "type": "function"
    },
    {
      "inputs": [],
      "name": "asset",
      "outputs": [
        {
          "internalType": "address",
          "name": "",
          "type": "address"
        }
      ],
      "stateMutability": "pure",
      "type": "function"
    },
    {
      "inputs": [
        {
          "internalType": "address",
          "name": "account",
          "type": "address"
        }
      ],
      "name": "balanceOf",
      "outputs": [
        {
          "internalType": "uint256",
          "name": "",
          "type": "uint256"
        }
      ],
      "stateMutability": "view",
      "type": "function"
    },
    {
      "inputs": [
        {
          "components": [
            {
              "internalType": "uint256",
              "name": "lienSlope",
              "type": "uint256"
            },
            {
              "internalType": "uint256",
              "name": "amount",
              "type": "uint256"
            },
            {
              "internalType": "uint256",
              "name": "interestOwed",
              "type": "uint256"
            }
          ],
          "internalType": "struct IPublicVault.BeforePaymentParams",
          "name": "params",
          "type": "tuple"
        }
      ],
      "name": "beforePayment",
      "outputs": [],
      "stateMutability": "nonpayable",
      "type": "function"
    },
    {
      "inputs": [
        {
          "components": [
            {
              "components": [
                {
                  "internalType": "uint8",
                  "name": "collateralType",
                  "type": "uint8"
                },
                {
                  "internalType": "address",
                  "name": "token",
                  "type": "address"
                },
                {
                  "internalType": "address",
                  "name": "vault",
                  "type": "address"
                },
                {
                  "internalType": "bytes32",
                  "name": "strategyRoot",
                  "type": "bytes32"
                },
                {
                  "internalType": "uint256",
                  "name": "collateralId",
                  "type": "uint256"
                },
                {
                  "components": [
                    {
                      "internalType": "uint256",
                      "name": "maxAmount",
                      "type": "uint256"
                    },
                    {
                      "internalType": "uint256",
                      "name": "rate",
                      "type": "uint256"
                    },
                    {
                      "internalType": "uint256",
                      "name": "duration",
                      "type": "uint256"
                    },
                    {
                      "internalType": "uint256",
                      "name": "maxPotentialDebt",
                      "type": "uint256"
                    },
                    {
                      "internalType": "uint256",
                      "name": "liquidationInitialAsk",
                      "type": "uint256"
                    }
                  ],
                  "internalType": "struct ILienToken.Details",
                  "name": "details",
                  "type": "tuple"
                }
              ],
              "internalType": "struct ILienToken.Lien",
              "name": "lien",
              "type": "tuple"
            },
            {
              "components": [
                {
                  "internalType": "uint256",
                  "name": "amount",
                  "type": "uint256"
                },
                {
                  "internalType": "uint40",
                  "name": "last",
                  "type": "uint40"
                },
                {
                  "internalType": "uint40",
                  "name": "end",
                  "type": "uint40"
                },
                {
                  "internalType": "uint256",
                  "name": "lienId",
                  "type": "uint256"
                }
              ],
              "internalType": "struct ILienToken.Point",
              "name": "point",
              "type": "tuple"
            }
          ],
          "internalType": "struct ILienToken.Stack[]",
          "name": "stack",
          "type": "tuple[]"
        },
        {
          "internalType": "uint8",
          "name": "position",
          "type": "uint8"
        },
        {
          "components": [
            {
              "internalType": "address",
              "name": "tokenContract",
              "type": "address"
            },
            {
              "internalType": "uint256",
              "name": "tokenId",
              "type": "uint256"
            },
            {
              "components": [
                {
                  "components": [
                    {
                      "internalType": "uint8",
                      "name": "version",
                      "type": "uint8"
                    },
                    {
                      "internalType": "uint256",
                      "name": "deadline",
                      "type": "uint256"
                    },
                    {
                      "internalType": "address",
                      "name": "vault",
                      "type": "address"
                    }
                  ],
                  "internalType": "struct IAstariaRouter.StrategyDetailsParam",
                  "name": "strategy",
                  "type": "tuple"
                },
                {
                  "components": [
                    {
                      "components": [
                        {
                          "internalType": "uint8",
                          "name": "collateralType",
                          "type": "uint8"
                        },
                        {
                          "internalType": "address",
                          "name": "token",
                          "type": "address"
                        },
                        {
                          "internalType": "address",
                          "name": "vault",
                          "type": "address"
                        },
                        {
                          "internalType": "bytes32",
                          "name": "strategyRoot",
                          "type": "bytes32"
                        },
                        {
                          "internalType": "uint256",
                          "name": "collateralId",
                          "type": "uint256"
                        },
                        {
                          "components": [
                            {
                              "internalType": "uint256",
                              "name": "maxAmount",
                              "type": "uint256"
                            },
                            {
                              "internalType": "uint256",
                              "name": "rate",
                              "type": "uint256"
                            },
                            {
                              "internalType": "uint256",
                              "name": "duration",
                              "type": "uint256"
                            },
                            {
                              "internalType": "uint256",
                              "name": "maxPotentialDebt",
                              "type": "uint256"
                            },
                            {
                              "internalType": "uint256",
                              "name": "liquidationInitialAsk",
                              "type": "uint256"
                            }
                          ],
                          "internalType": "struct ILienToken.Details",
                          "name": "details",
                          "type": "tuple"
                        }
                      ],
                      "internalType": "struct ILienToken.Lien",
                      "name": "lien",
                      "type": "tuple"
                    },
                    {
                      "components": [
                        {
                          "internalType": "uint256",
                          "name": "amount",
                          "type": "uint256"
                        },
                        {
                          "internalType": "uint40",
                          "name": "last",
                          "type": "uint40"
                        },
                        {
                          "internalType": "uint40",
                          "name": "end",
                          "type": "uint40"
                        },
                        {
                          "internalType": "uint256",
                          "name": "lienId",
                          "type": "uint256"
                        }
                      ],
                      "internalType": "struct ILienToken.Point",
                      "name": "point",
                      "type": "tuple"
                    }
                  ],
                  "internalType": "struct ILienToken.Stack[]",
                  "name": "stack",
                  "type": "tuple[]"
                },
                {
                  "internalType": "bytes",
                  "name": "nlrDetails",
                  "type": "bytes"
                },
                {
                  "components": [
                    {
                      "internalType": "bytes32",
                      "name": "root",
                      "type": "bytes32"
                    },
                    {
                      "internalType": "bytes32[]",
                      "name": "proof",
                      "type": "bytes32[]"
                    }
                  ],
                  "internalType": "struct IAstariaRouter.MerkleData",
                  "name": "merkle",
                  "type": "tuple"
                },
                {
                  "internalType": "uint256",
                  "name": "amount",
                  "type": "uint256"
                },
                {
                  "internalType": "uint8",
                  "name": "v",
                  "type": "uint8"
                },
                {
                  "internalType": "bytes32",
                  "name": "r",
                  "type": "bytes32"
                },
                {
                  "internalType": "bytes32",
                  "name": "s",
                  "type": "bytes32"
                }
              ],
              "internalType": "struct IAstariaRouter.NewLienRequest",
              "name": "lienRequest",
              "type": "tuple"
            }
          ],
          "internalType": "struct IAstariaRouter.Commitment",
          "name": "incomingTerms",
          "type": "tuple"
        }
      ],
      "name": "buyoutLien",
      "outputs": [
        {
          "components": [
            {
              "components": [
                {
                  "internalType": "uint8",
                  "name": "collateralType",
                  "type": "uint8"
                },
                {
                  "internalType": "address",
                  "name": "token",
                  "type": "address"
                },
                {
                  "internalType": "address",
                  "name": "vault",
                  "type": "address"
                },
                {
                  "internalType": "bytes32",
                  "name": "strategyRoot",
                  "type": "bytes32"
                },
                {
                  "internalType": "uint256",
                  "name": "collateralId",
                  "type": "uint256"
                },
                {
                  "components": [
                    {
                      "internalType": "uint256",
                      "name": "maxAmount",
                      "type": "uint256"
                    },
                    {
                      "internalType": "uint256",
                      "name": "rate",
                      "type": "uint256"
                    },
                    {
                      "internalType": "uint256",
                      "name": "duration",
                      "type": "uint256"
                    },
                    {
                      "internalType": "uint256",
                      "name": "maxPotentialDebt",
                      "type": "uint256"
                    },
                    {
                      "internalType": "uint256",
                      "name": "liquidationInitialAsk",
                      "type": "uint256"
                    }
                  ],
                  "internalType": "struct ILienToken.Details",
                  "name": "details",
                  "type": "tuple"
                }
              ],
              "internalType": "struct ILienToken.Lien",
              "name": "lien",
              "type": "tuple"
            },
            {
              "components": [
                {
                  "internalType": "uint256",
                  "name": "amount",
                  "type": "uint256"
                },
                {
                  "internalType": "uint40",
                  "name": "last",
                  "type": "uint40"
                },
                {
                  "internalType": "uint40",
                  "name": "end",
                  "type": "uint40"
                },
                {
                  "internalType": "uint256",
                  "name": "lienId",
                  "type": "uint256"
                }
              ],
              "internalType": "struct ILienToken.Point",
              "name": "point",
              "type": "tuple"
            }
          ],
          "internalType": "struct ILienToken.Stack[]",
          "name": "stacks",
          "type": "tuple[]"
        },
        {
          "components": [
            {
              "components": [
                {
                  "internalType": "uint8",
                  "name": "collateralType",
                  "type": "uint8"
                },
                {
                  "internalType": "address",
                  "name": "token",
                  "type": "address"
                },
                {
                  "internalType": "address",
                  "name": "vault",
                  "type": "address"
                },
                {
                  "internalType": "bytes32",
                  "name": "strategyRoot",
                  "type": "bytes32"
                },
                {
                  "internalType": "uint256",
                  "name": "collateralId",
                  "type": "uint256"
                },
                {
                  "components": [
                    {
                      "internalType": "uint256",
                      "name": "maxAmount",
                      "type": "uint256"
                    },
                    {
                      "internalType": "uint256",
                      "name": "rate",
                      "type": "uint256"
                    },
                    {
                      "internalType": "uint256",
                      "name": "duration",
                      "type": "uint256"
                    },
                    {
                      "internalType": "uint256",
                      "name": "maxPotentialDebt",
                      "type": "uint256"
                    },
                    {
                      "internalType": "uint256",
                      "name": "liquidationInitialAsk",
                      "type": "uint256"
                    }
                  ],
                  "internalType": "struct ILienToken.Details",
                  "name": "details",
                  "type": "tuple"
                }
              ],
              "internalType": "struct ILienToken.Lien",
              "name": "lien",
              "type": "tuple"
            },
            {
              "components": [
                {
                  "internalType": "uint256",
                  "name": "amount",
                  "type": "uint256"
                },
                {
                  "internalType": "uint40",
                  "name": "last",
                  "type": "uint40"
                },
                {
                  "internalType": "uint40",
                  "name": "end",
                  "type": "uint40"
                },
                {
                  "internalType": "uint256",
                  "name": "lienId",
                  "type": "uint256"
                }
              ],
              "internalType": "struct ILienToken.Point",
              "name": "point",
              "type": "tuple"
            }
          ],
          "internalType": "struct ILienToken.Stack",
          "name": "newStack",
          "type": "tuple"
        }
      ],
      "stateMutability": "nonpayable",
      "type": "function"
    },
    {
      "inputs": [],
      "name": "claim",
      "outputs": [],
      "stateMutability": "nonpayable",
      "type": "function"
    },
    {
      "inputs": [
        {
          "components": [
            {
              "internalType": "address",
              "name": "tokenContract",
              "type": "address"
            },
            {
              "internalType": "uint256",
              "name": "tokenId",
              "type": "uint256"
            },
            {
              "components": [
                {
                  "components": [
                    {
                      "internalType": "uint8",
                      "name": "version",
                      "type": "uint8"
                    },
                    {
                      "internalType": "uint256",
                      "name": "deadline",
                      "type": "uint256"
                    },
                    {
                      "internalType": "address",
                      "name": "vault",
                      "type": "address"
                    }
                  ],
                  "internalType": "struct IAstariaRouter.StrategyDetailsParam",
                  "name": "strategy",
                  "type": "tuple"
                },
                {
                  "components": [
                    {
                      "components": [
                        {
                          "internalType": "uint8",
                          "name": "collateralType",
                          "type": "uint8"
                        },
                        {
                          "internalType": "address",
                          "name": "token",
                          "type": "address"
                        },
                        {
                          "internalType": "address",
                          "name": "vault",
                          "type": "address"
                        },
                        {
                          "internalType": "bytes32",
                          "name": "strategyRoot",
                          "type": "bytes32"
                        },
                        {
                          "internalType": "uint256",
                          "name": "collateralId",
                          "type": "uint256"
                        },
                        {
                          "components": [
                            {
                              "internalType": "uint256",
                              "name": "maxAmount",
                              "type": "uint256"
                            },
                            {
                              "internalType": "uint256",
                              "name": "rate",
                              "type": "uint256"
                            },
                            {
                              "internalType": "uint256",
                              "name": "duration",
                              "type": "uint256"
                            },
                            {
                              "internalType": "uint256",
                              "name": "maxPotentialDebt",
                              "type": "uint256"
                            },
                            {
                              "internalType": "uint256",
                              "name": "liquidationInitialAsk",
                              "type": "uint256"
                            }
                          ],
                          "internalType": "struct ILienToken.Details",
                          "name": "details",
                          "type": "tuple"
                        }
                      ],
                      "internalType": "struct ILienToken.Lien",
                      "name": "lien",
                      "type": "tuple"
                    },
                    {
                      "components": [
                        {
                          "internalType": "uint256",
                          "name": "amount",
                          "type": "uint256"
                        },
                        {
                          "internalType": "uint40",
                          "name": "last",
                          "type": "uint40"
                        },
                        {
                          "internalType": "uint40",
                          "name": "end",
                          "type": "uint40"
                        },
                        {
                          "internalType": "uint256",
                          "name": "lienId",
                          "type": "uint256"
                        }
                      ],
                      "internalType": "struct ILienToken.Point",
                      "name": "point",
                      "type": "tuple"
                    }
                  ],
                  "internalType": "struct ILienToken.Stack[]",
                  "name": "stack",
                  "type": "tuple[]"
                },
                {
                  "internalType": "bytes",
                  "name": "nlrDetails",
                  "type": "bytes"
                },
                {
                  "components": [
                    {
                      "internalType": "bytes32",
                      "name": "root",
                      "type": "bytes32"
                    },
                    {
                      "internalType": "bytes32[]",
                      "name": "proof",
                      "type": "bytes32[]"
                    }
                  ],
                  "internalType": "struct IAstariaRouter.MerkleData",
                  "name": "merkle",
                  "type": "tuple"
                },
                {
                  "internalType": "uint256",
                  "name": "amount",
                  "type": "uint256"
                },
                {
                  "internalType": "uint8",
                  "name": "v",
                  "type": "uint8"
                },
                {
                  "internalType": "bytes32",
                  "name": "r",
                  "type": "bytes32"
                },
                {
                  "internalType": "bytes32",
                  "name": "s",
                  "type": "bytes32"
                }
              ],
              "internalType": "struct IAstariaRouter.NewLienRequest",
              "name": "lienRequest",
              "type": "tuple"
            }
          ],
          "internalType": "struct IAstariaRouter.Commitment",
          "name": "params",
          "type": "tuple"
        }
      ],
      "name": "commitToLien",
      "outputs": [
        {
          "internalType": "uint256",
          "name": "lienId",
          "type": "uint256"
        },
        {
          "components": [
            {
              "components": [
                {
                  "internalType": "uint8",
                  "name": "collateralType",
                  "type": "uint8"
                },
                {
                  "internalType": "address",
                  "name": "token",
                  "type": "address"
                },
                {
                  "internalType": "address",
                  "name": "vault",
                  "type": "address"
                },
                {
                  "internalType": "bytes32",
                  "name": "strategyRoot",
                  "type": "bytes32"
                },
                {
                  "internalType": "uint256",
                  "name": "collateralId",
                  "type": "uint256"
                },
                {
                  "components": [
                    {
                      "internalType": "uint256",
                      "name": "maxAmount",
                      "type": "uint256"
                    },
                    {
                      "internalType": "uint256",
                      "name": "rate",
                      "type": "uint256"
                    },
                    {
                      "internalType": "uint256",
                      "name": "duration",
                      "type": "uint256"
                    },
                    {
                      "internalType": "uint256",
                      "name": "maxPotentialDebt",
                      "type": "uint256"
                    },
                    {
                      "internalType": "uint256",
                      "name": "liquidationInitialAsk",
                      "type": "uint256"
                    }
                  ],
                  "internalType": "struct ILienToken.Details",
                  "name": "details",
                  "type": "tuple"
                }
              ],
              "internalType": "struct ILienToken.Lien",
              "name": "lien",
              "type": "tuple"
            },
            {
              "components": [
                {
                  "internalType": "uint256",
                  "name": "amount",
                  "type": "uint256"
                },
                {
                  "internalType": "uint40",
                  "name": "last",
                  "type": "uint40"
                },
                {
                  "internalType": "uint40",
                  "name": "end",
                  "type": "uint40"
                },
                {
                  "internalType": "uint256",
                  "name": "lienId",
                  "type": "uint256"
                }
              ],
              "internalType": "struct ILienToken.Point",
              "name": "point",
              "type": "tuple"
            }
          ],
          "internalType": "struct ILienToken.Stack[]",
          "name": "stack",
          "type": "tuple[]"
        }
      ],
      "stateMutability": "nonpayable",
      "type": "function"
    },
    {
      "inputs": [
        {
          "internalType": "uint256",
          "name": "shares",
          "type": "uint256"
        }
      ],
      "name": "convertToAssets",
      "outputs": [
        {
          "internalType": "uint256",
          "name": "",
          "type": "uint256"
        }
      ],
      "stateMutability": "view",
      "type": "function"
    },
    {
      "inputs": [
        {
          "internalType": "uint256",
          "name": "assets",
          "type": "uint256"
        }
      ],
      "name": "convertToShares",
      "outputs": [
        {
          "internalType": "uint256",
          "name": "",
          "type": "uint256"
        }
      ],
      "stateMutability": "view",
      "type": "function"
    },
    {
      "inputs": [],
      "name": "decimals",
      "outputs": [
        {
          "internalType": "uint8",
          "name": "",
          "type": "uint8"
        }
      ],
      "stateMutability": "pure",
      "type": "function"
    },
    {
      "inputs": [
        {
          "internalType": "uint64",
          "name": "epoch",
          "type": "uint64"
        }
      ],
      "name": "decreaseEpochLienCount",
      "outputs": [],
      "stateMutability": "nonpayable",
      "type": "function"
    },
    {
      "inputs": [
        {
          "internalType": "uint256",
          "name": "amount",
          "type": "uint256"
        }
      ],
      "name": "decreaseYIntercept",
      "outputs": [],
      "stateMutability": "nonpayable",
      "type": "function"
    },
    {
      "inputs": [
        {
          "internalType": "uint256",
          "name": "amount",
          "type": "uint256"
        },
        {
          "internalType": "address",
          "name": "receiver",
          "type": "address"
        }
      ],
      "name": "deposit",
      "outputs": [
        {
          "internalType": "uint256",
          "name": "",
          "type": "uint256"
        }
      ],
      "stateMutability": "nonpayable",
      "type": "function"
    },
    {
      "inputs": [],
      "name": "disableAllowList",
      "outputs": [],
      "stateMutability": "nonpayable",
      "type": "function"
    },
    {
      "inputs": [],
      "name": "domainSeparator",
      "outputs": [
        {
          "internalType": "bytes32",
          "name": "",
          "type": "bytes32"
        }
      ],
      "stateMutability": "view",
      "type": "function"
    },
    {
      "inputs": [],
      "name": "enableAllowList",
      "outputs": [],
      "stateMutability": "nonpayable",
      "type": "function"
    },
    {
      "inputs": [
        {
          "components": [
            {
              "internalType": "uint8",
              "name": "version",
              "type": "uint8"
            },
            {
              "internalType": "uint256",
              "name": "deadline",
              "type": "uint256"
            },
            {
              "internalType": "address",
              "name": "vault",
              "type": "address"
            }
          ],
          "internalType": "struct IAstariaRouter.StrategyDetailsParam",
          "name": "strategy",
          "type": "tuple"
        },
        {
          "internalType": "bytes32",
          "name": "root",
          "type": "bytes32"
        }
      ],
      "name": "encodeStrategyData",
      "outputs": [
        {
          "internalType": "bytes",
          "name": "",
          "type": "bytes"
        }
      ],
      "stateMutability": "view",
      "type": "function"
    },
    {
      "inputs": [
        {
          "internalType": "address",
          "name": "depositor",
          "type": "address"
        }
      ],
      "name": "getAllowList",
      "outputs": [
        {
          "internalType": "bool",
          "name": "",
          "type": "bool"
        }
      ],
      "stateMutability": "view",
      "type": "function"
    },
    {
      "inputs": [],
      "name": "getCurrentEpoch",
      "outputs": [
        {
          "internalType": "uint64",
          "name": "",
          "type": "uint64"
        }
      ],
      "stateMutability": "view",
      "type": "function"
    },
    {
      "inputs": [
        {
          "internalType": "uint64",
          "name": "epoch",
          "type": "uint64"
        }
      ],
      "name": "getEpochData",
      "outputs": [
        {
          "internalType": "uint256",
          "name": "",
          "type": "uint256"
        },
        {
          "internalType": "address",
          "name": "",
          "type": "address"
        }
      ],
      "stateMutability": "view",
      "type": "function"
    },
    {
      "inputs": [
        {
          "internalType": "uint256",
          "name": "epoch",
          "type": "uint256"
        }
      ],
      "name": "getEpochEnd",
      "outputs": [
        {
          "internalType": "uint64",
          "name": "",
          "type": "uint64"
        }
      ],
      "stateMutability": "pure",
      "type": "function"
    },
    {
      "inputs": [
        {
          "internalType": "uint64",
          "name": "end",
          "type": "uint64"
        }
      ],
      "name": "getLienEpoch",
      "outputs": [
        {
          "internalType": "uint64",
          "name": "",
          "type": "uint64"
        }
      ],
      "stateMutability": "pure",
      "type": "function"
    },
    {
      "inputs": [],
      "name": "getLiquidationWithdrawRatio",
      "outputs": [
        {
          "internalType": "uint256",
          "name": "",
          "type": "uint256"
        }
      ],
      "stateMutability": "view",
      "type": "function"
    },
    {
      "inputs": [],
      "name": "getPublicVaultState",
      "outputs": [
        {
          "internalType": "uint256",
          "name": "",
          "type": "uint256"
        },
        {
          "internalType": "uint256",
          "name": "",
          "type": "uint256"
        },
        {
          "internalType": "uint40",
          "name": "",
          "type": "uint40"
        },
        {
          "internalType": "uint64",
          "name": "",
          "type": "uint64"
        },
        {
          "internalType": "uint256",
          "name": "",
          "type": "uint256"
        },
        {
          "internalType": "uint256",
          "name": "",
          "type": "uint256"
        },
        {
          "internalType": "uint256",
          "name": "",
          "type": "uint256"
        }
      ],
      "stateMutability": "view",
      "type": "function"
    },
    {
      "inputs": [],
      "name": "getShutdown",
      "outputs": [
        {
          "internalType": "bool",
          "name": "",
          "type": "bool"
        }
      ],
      "stateMutability": "view",
      "type": "function"
    },
    {
      "inputs": [],
      "name": "getSlope",
      "outputs": [
        {
          "internalType": "uint256",
          "name": "",
          "type": "uint256"
        }
      ],
      "stateMutability": "view",
      "type": "function"
    },
    {
      "inputs": [],
      "name": "getState",
      "outputs": [
        {
          "internalType": "uint256",
          "name": "",
          "type": "uint256"
        },
        {
          "internalType": "address",
          "name": "",
          "type": "address"
        },
        {
          "internalType": "bool",
          "name": "",
          "type": "bool"
        },
        {
          "internalType": "bool",
          "name": "",
          "type": "bool"
        },
        {
          "internalType": "uint256",
          "name": "",
          "type": "uint256"
        }
      ],
      "stateMutability": "view",
      "type": "function"
    },
    {
      "inputs": [],
      "name": "getStrategistNonce",
      "outputs": [
        {
          "internalType": "uint256",
          "name": "",
          "type": "uint256"
        }
      ],
      "stateMutability": "view",
      "type": "function"
    },
    {
      "inputs": [
        {
          "internalType": "uint64",
          "name": "epoch",
          "type": "uint64"
        }
      ],
      "name": "getWithdrawProxy",
      "outputs": [
        {
          "internalType": "contract WithdrawProxy",
          "name": "",
          "type": "address"
        }
      ],
      "stateMutability": "view",
      "type": "function"
    },
    {
      "inputs": [],
      "name": "getWithdrawReserve",
      "outputs": [
        {
          "internalType": "uint256",
          "name": "",
          "type": "uint256"
        }
      ],
      "stateMutability": "view",
      "type": "function"
    },
    {
      "inputs": [],
      "name": "getYIntercept",
      "outputs": [
        {
          "internalType": "uint256",
          "name": "",
          "type": "uint256"
        }
      ],
      "stateMutability": "view",
      "type": "function"
    },
    {
      "inputs": [
        {
          "components": [
            {
              "internalType": "uint256",
              "name": "lienSlope",
              "type": "uint256"
            },
            {
              "internalType": "uint256",
              "name": "lienEnd",
              "type": "uint256"
            }
          ],
          "internalType": "struct ILienToken.BuyoutLienParams",
          "name": "buyoutParams",
          "type": "tuple"
        },
        {
          "internalType": "uint256",
          "name": "buyoutFeeIfAny",
          "type": "uint256"
        }
      ],
      "name": "handleLoseLienToBuyout",
      "outputs": [],
      "stateMutability": "nonpayable",
      "type": "function"
    },
    {
      "inputs": [
        {
          "internalType": "uint256",
          "name": "amount",
          "type": "uint256"
        }
      ],
      "name": "increaseYIntercept",
      "outputs": [],
      "stateMutability": "nonpayable",
      "type": "function"
    },
    {
      "inputs": [],
      "name": "incrementNonce",
      "outputs": [],
      "stateMutability": "nonpayable",
      "type": "function"
    },
    {
      "inputs": [
        {
          "components": [
            {
              "internalType": "address",
              "name": "delegate",
              "type": "address"
            },
            {
              "internalType": "bool",
              "name": "allowListEnabled",
              "type": "bool"
            },
            {
              "internalType": "address[]",
              "name": "allowList",
              "type": "address[]"
            },
            {
              "internalType": "uint256",
              "name": "depositCap",
              "type": "uint256"
            }
          ],
          "internalType": "struct IVaultImplementation.InitParams",
          "name": "params",
          "type": "tuple"
        }
      ],
      "name": "init",
      "outputs": [],
      "stateMutability": "nonpayable",
      "type": "function"
    },
    {
      "inputs": [
        {
          "internalType": "address",
          "name": "",
          "type": "address"
        }
      ],
      "name": "maxDeposit",
      "outputs": [
        {
          "internalType": "uint256",
          "name": "",
          "type": "uint256"
        }
      ],
      "stateMutability": "view",
      "type": "function"
    },
    {
      "inputs": [
        {
          "internalType": "address",
          "name": "",
          "type": "address"
        }
      ],
      "name": "maxMint",
      "outputs": [
        {
          "internalType": "uint256",
          "name": "",
          "type": "uint256"
        }
      ],
      "stateMutability": "view",
      "type": "function"
    },
    {
      "inputs": [
        {
          "internalType": "address",
          "name": "owner",
          "type": "address"
        }
      ],
      "name": "maxRedeem",
      "outputs": [
        {
          "internalType": "uint256",
          "name": "",
          "type": "uint256"
        }
      ],
      "stateMutability": "view",
      "type": "function"
    },
    {
      "inputs": [
        {
          "internalType": "address",
          "name": "owner",
          "type": "address"
        }
      ],
      "name": "maxWithdraw",
      "outputs": [
        {
          "internalType": "uint256",
          "name": "",
          "type": "uint256"
        }
      ],
      "stateMutability": "view",
      "type": "function"
    },
    {
      "inputs": [],
      "name": "minDepositAmount",
      "outputs": [
        {
          "internalType": "uint256",
          "name": "",
          "type": "uint256"
        }
      ],
      "stateMutability": "view",
      "type": "function"
    },
    {
      "inputs": [
        {
          "internalType": "uint256",
          "name": "shares",
          "type": "uint256"
        },
        {
          "internalType": "address",
          "name": "receiver",
          "type": "address"
        }
      ],
      "name": "mint",
      "outputs": [
        {
          "internalType": "uint256",
          "name": "",
          "type": "uint256"
        }
      ],
      "stateMutability": "nonpayable",
      "type": "function"
    },
    {
      "inputs": [
        {
          "internalType": "address",
          "name": "depositor",
          "type": "address"
        },
        {
          "internalType": "bool",
          "name": "enabled",
          "type": "bool"
        }
      ],
      "name": "modifyAllowList",
      "outputs": [],
      "stateMutability": "nonpayable",
      "type": "function"
    },
    {
      "inputs": [
        {
          "internalType": "uint256",
          "name": "newCap",
          "type": "uint256"
        }
      ],
      "name": "modifyDepositCap",
      "outputs": [],
      "stateMutability": "nonpayable",
      "type": "function"
    },
    {
      "inputs": [],
      "name": "name",
      "outputs": [
        {
          "internalType": "string",
          "name": "",
          "type": "string"
        }
      ],
      "stateMutability": "view",
      "type": "function"
    },
    {
      "inputs": [
        {
          "internalType": "address",
          "name": "",
          "type": "address"
        },
        {
          "internalType": "address",
          "name": "",
          "type": "address"
        },
        {
          "internalType": "uint256",
          "name": "",
          "type": "uint256"
        },
        {
          "internalType": "bytes",
          "name": "",
          "type": "bytes"
        }
      ],
      "name": "onERC721Received",
      "outputs": [
        {
          "internalType": "bytes4",
          "name": "",
          "type": "bytes4"
        }
      ],
      "stateMutability": "pure",
      "type": "function"
    },
    {
      "inputs": [],
      "name": "owner",
      "outputs": [
        {
          "internalType": "address",
          "name": "",
          "type": "address"
        }
      ],
      "stateMutability": "pure",
      "type": "function"
    },
    {
      "inputs": [
        {
          "internalType": "address",
          "name": "owner",
          "type": "address"
        },
        {
          "internalType": "address",
          "name": "spender",
          "type": "address"
        },
        {
          "internalType": "uint256",
          "name": "value",
          "type": "uint256"
        },
        {
          "internalType": "uint256",
          "name": "deadline",
          "type": "uint256"
        },
        {
          "internalType": "uint8",
          "name": "v",
          "type": "uint8"
        },
        {
          "internalType": "bytes32",
          "name": "r",
          "type": "bytes32"
        },
        {
          "internalType": "bytes32",
          "name": "s",
          "type": "bytes32"
        }
      ],
      "name": "permit",
      "outputs": [],
      "stateMutability": "nonpayable",
      "type": "function"
    },
    {
      "inputs": [
        {
          "internalType": "uint256",
          "name": "assets",
          "type": "uint256"
        }
      ],
      "name": "previewDeposit",
      "outputs": [
        {
          "internalType": "uint256",
          "name": "",
          "type": "uint256"
        }
      ],
      "stateMutability": "view",
      "type": "function"
    },
    {
      "inputs": [
        {
          "internalType": "uint256",
          "name": "shares",
          "type": "uint256"
        }
      ],
      "name": "previewMint",
      "outputs": [
        {
          "internalType": "uint256",
          "name": "",
          "type": "uint256"
        }
      ],
      "stateMutability": "view",
      "type": "function"
    },
    {
      "inputs": [
        {
          "internalType": "uint256",
          "name": "shares",
          "type": "uint256"
        }
      ],
      "name": "previewRedeem",
      "outputs": [
        {
          "internalType": "uint256",
          "name": "",
          "type": "uint256"
        }
      ],
      "stateMutability": "view",
      "type": "function"
    },
    {
      "inputs": [
        {
          "internalType": "uint256",
          "name": "assets",
          "type": "uint256"
        }
      ],
      "name": "previewWithdraw",
      "outputs": [
        {
          "internalType": "uint256",
          "name": "",
          "type": "uint256"
        }
      ],
      "stateMutability": "view",
      "type": "function"
    },
    {
      "inputs": [],
      "name": "processEpoch",
      "outputs": [],
      "stateMutability": "nonpayable",
      "type": "function"
    },
    {
      "inputs": [],
      "name": "recipient",
      "outputs": [
        {
          "internalType": "address",
          "name": "",
          "type": "address"
        }
      ],
      "stateMutability": "view",
      "type": "function"
    },
    {
      "inputs": [
        {
          "internalType": "uint256",
          "name": "shares",
          "type": "uint256"
        },
        {
          "internalType": "address",
          "name": "receiver",
          "type": "address"
        },
        {
          "internalType": "address",
          "name": "owner",
          "type": "address"
        }
      ],
      "name": "redeem",
      "outputs": [
        {
          "internalType": "uint256",
          "name": "assets",
          "type": "uint256"
        }
      ],
      "stateMutability": "nonpayable",
      "type": "function"
    },
    {
      "inputs": [
        {
          "internalType": "uint256",
          "name": "shares",
          "type": "uint256"
        },
        {
          "internalType": "address",
          "name": "receiver",
          "type": "address"
        },
        {
          "internalType": "address",
          "name": "owner",
          "type": "address"
        },
        {
          "internalType": "uint64",
          "name": "epoch",
          "type": "uint64"
        }
      ],
      "name": "redeemFutureEpoch",
      "outputs": [
        {
          "internalType": "uint256",
          "name": "assets",
          "type": "uint256"
        }
      ],
      "stateMutability": "nonpayable",
      "type": "function"
    },
    {
      "inputs": [
        {
          "internalType": "address",
          "name": "delegate_",
          "type": "address"
        }
      ],
      "name": "setDelegate",
      "outputs": [],
      "stateMutability": "nonpayable",
      "type": "function"
    },
    {
      "inputs": [],
      "name": "shutdown",
      "outputs": [],
      "stateMutability": "nonpayable",
      "type": "function"
    },
    {
      "inputs": [
        {
          "internalType": "bytes4",
          "name": "interfaceId",
          "type": "bytes4"
        }
      ],
      "name": "supportsInterface",
      "outputs": [
        {
          "internalType": "bool",
          "name": "",
          "type": "bool"
        }
      ],
      "stateMutability": "pure",
      "type": "function"
    },
    {
      "inputs": [],
      "name": "symbol",
      "outputs": [
        {
          "internalType": "string",
          "name": "",
          "type": "string"
        }
      ],
      "stateMutability": "view",
      "type": "function"
    },
    {
      "inputs": [],
      "name": "timeToEpochEnd",
      "outputs": [
        {
          "internalType": "uint256",
          "name": "",
          "type": "uint256"
        }
      ],
      "stateMutability": "view",
      "type": "function"
    },
    {
      "inputs": [
        {
          "internalType": "uint256",
          "name": "epoch",
          "type": "uint256"
        }
      ],
      "name": "timeToEpochEnd",
      "outputs": [
        {
          "internalType": "uint256",
          "name": "",
          "type": "uint256"
        }
      ],
      "stateMutability": "view",
      "type": "function"
    },
    {
      "inputs": [],
      "name": "timeToSecondEpochEnd",
      "outputs": [
        {
          "internalType": "uint256",
          "name": "",
          "type": "uint256"
        }
      ],
      "stateMutability": "view",
      "type": "function"
    },
    {
      "inputs": [],
      "name": "totalAssets",
      "outputs": [
        {
          "internalType": "uint256",
          "name": "",
          "type": "uint256"
        }
      ],
      "stateMutability": "view",
      "type": "function"
    },
    {
      "inputs": [],
      "name": "totalSupply",
      "outputs": [
        {
          "internalType": "uint256",
          "name": "",
          "type": "uint256"
        }
      ],
      "stateMutability": "view",
      "type": "function"
    },
    {
      "inputs": [
        {
          "internalType": "address",
          "name": "to",
          "type": "address"
        },
        {
          "internalType": "uint256",
          "name": "amount",
          "type": "uint256"
        }
      ],
      "name": "transfer",
      "outputs": [
        {
          "internalType": "bool",
          "name": "",
          "type": "bool"
        }
      ],
      "stateMutability": "nonpayable",
      "type": "function"
    },
    {
      "inputs": [
        {
          "internalType": "address",
          "name": "from",
          "type": "address"
        },
        {
          "internalType": "address",
          "name": "to",
          "type": "address"
        },
        {
          "internalType": "uint256",
          "name": "amount",
          "type": "uint256"
        }
      ],
      "name": "transferFrom",
      "outputs": [
        {
          "internalType": "bool",
          "name": "",
          "type": "bool"
        }
      ],
      "stateMutability": "nonpayable",
      "type": "function"
    },
    {
      "inputs": [],
      "name": "transferWithdrawReserve",
      "outputs": [],
      "stateMutability": "nonpayable",
      "type": "function"
    },
    {
      "inputs": [
        {
          "components": [
            {
              "internalType": "uint256",
              "name": "remaining",
              "type": "uint256"
            }
          ],
          "internalType": "struct IPublicVault.LiquidationPaymentParams",
          "name": "params",
          "type": "tuple"
        }
      ],
      "name": "updateAfterLiquidationPayment",
      "outputs": [],
      "stateMutability": "nonpayable",
      "type": "function"
    },
    {
      "inputs": [
        {
          "internalType": "uint256",
          "name": "maxAuctionWindow",
          "type": "uint256"
        },
        {
          "components": [
            {
              "internalType": "uint256",
              "name": "lienSlope",
              "type": "uint256"
            },
            {
              "internalType": "uint256",
              "name": "newAmount",
              "type": "uint256"
            },
            {
              "internalType": "uint40",
              "name": "lienEnd",
              "type": "uint40"
            }
          ],
          "internalType": "struct IPublicVault.AfterLiquidationParams",
          "name": "params",
          "type": "tuple"
        }
      ],
      "name": "updateVaultAfterLiquidation",
      "outputs": [
        {
          "internalType": "address",
          "name": "withdrawProxyIfNearBoundary",
          "type": "address"
        }
      ],
      "stateMutability": "nonpayable",
      "type": "function"
    },
    {
      "inputs": [
        {
          "internalType": "uint256",
          "name": "assets",
          "type": "uint256"
        },
        {
          "internalType": "address",
          "name": "receiver",
          "type": "address"
        },
        {
          "internalType": "address",
          "name": "owner",
          "type": "address"
        }
      ],
      "name": "withdraw",
      "outputs": [
        {
          "internalType": "uint256",
          "name": "shares",
          "type": "uint256"
        }
      ],
      "stateMutability": "nonpayable",
      "type": "function"
    }
  ],
  "bytecode": {
    "object": "0x608060405234801561001057600080fd5b50615fa480620000216000396000f3fe608060405234801561001057600080fd5b50600436106104965760003560e01c8063834029ba11610262578063c63d75b611610151578063dc2fbaee116100ce578063ef8b30f711610092578063ef8b30f714610a23578063f1e9f4f514610a36578063f5f1f1a714610a49578063f698da2514610a51578063f8ba4cff14610a59578063fc0e74d114610a6157600080fd5b8063dc2fbaee146109bd578063dd62ed3e146109c5578063de6c2848146109d8578063dfb2b645146109eb578063eceea7e7146109f357600080fd5b8063ce96cb7711610115578063ce96cb771461095e578063cebbdf2314610971578063d505accf14610984578063d5176d2314610997578063d905777e146109aa57600080fd5b8063c63d75b6146106af578063c6e6f5921461091d578063ca5eb5e114610930578063cb58189d14610943578063cd12030f1461094b57600080fd5b8063ac4746ab116101df578063ba087652116101a3578063ba087652146108d1578063ba9a061a146108e4578063bd2c6bae146108ec578063c0e9b0531461090d578063c237c7031461091557600080fd5b8063ac4746ab14610893578063b19c2c701461089b578063b3d7f6b9146108a3578063b460af94146108b6578063b97dd9e2146108c957600080fd5b80639d8f8fcc116102265780639d8f8fcc1461083f5780639ff2cfb414610847578063a3a911ba1461085a578063a9059cbb1461086d578063aaed42b71461088057600080fd5b8063834029ba1461080c5780638da5cb5b1461081457806390bec11d1461081c57806394bf804d1461082457806395d89b411461083757600080fd5b806338663c3f1161038957806351ab5c491161030657806365612e68116102ca57806365612e68146107b057806366d003ac146107c35780636e553f65146107cb57806370a08231146107de57806379c84f9c146107f15780637f65a114146107f957600080fd5b806351ab5c491461075e57806359f9556e14610785578063627cdcb914610798578063645006ca146107a057806364e4cf3b146107a857600080fd5b8063474a1e541161034d578063474a1e54146106cc57806347c78fef146106df5780634cdad506146106f25780634e71d92d14610705578063512974d61461070d57600080fd5b806338663c3f1461068157806338d52e0f146106945780633c96ce121461069c578063402d267d146106af57806341700b97146106c457600080fd5b8063200298bf11610417578063313ce567116103db578063313ce567146106045780633177e0fe1461061957806332fe7b261461062e578063349f723d1461064e5780633644e5151461067957600080fd5b8063200298bf146105ad57806323b872dd146105b55780632917e097146105c857806329aee4bd146105db57806330040e77146105fc57600080fd5b80630a28a4771161045e5780630a28a47714610514578063150b7a021461052757806318160ddd1461055f5780631865c57d146105675780631d5470e8146105a557600080fd5b806301e1d1141461049b57806301ffc9a7146104b657806306fdde03146104d957806307a2d13a146104ee578063095ea7b314610501575b600080fd5b6104a3610a69565b6040519081526020015b60405180910390f35b6104c96104c4366004614a24565b610a85565b60405190151581526020016104ad565b6104e1610b0d565b6040516104ad9190614a9e565b6104a36104fc366004614ab1565b610ba0565b6104c961050f366004614adf565b610bd4565b6104a3610522366004614ab1565b610c49565b610546610535366004614b0b565b630a85bd0160e11b95945050505050565b6040516001600160e01b031990911681526020016104ad565b6104a3610c80565b61056f610ca6565b604080519586526001600160a01b039094166020860152911515928401929092529015156060830152608082015260a0016104ad565b6104a3610cf3565b6104a3610d06565b6104c96105c3366004614ba9565b610d2c565b6104e16105d6366004614c02565b610e23565b6105ee6105e9366004614c2d565b610e44565b6040516104ad929190614d5e565b6104a3610f6f565b60125b60405160ff90911681526020016104ad565b61062c610627366004614d85565b610f82565b005b61063661101f565b6040516001600160a01b0390911681526020016104ad565b61066161065c366004614dda565b61102b565b6040516001600160401b0390911681526020016104ad565b6104a361106c565b61062c61068f366004614df5565b611076565b6106366110dc565b61062c6106aa366004614ab1565b6110e6565b6104a36106bd366004614e11565b5060001990565b610636611118565b61062c6106da366004614e2e565b611183565b6104c96106ed366004614e11565b6112ba565b6104a3610700366004614ab1565b611308565b61062c611313565b61071561135a565b60408051978852602088019690965264ffffffffff909416948601949094526001600160401b039091166060850152608084015260a083019190915260c082015260e0016104ad565b6104a37f679f3933bd13bd2e4ec6e9cde341ede07736ad7b635428a8a211e9cccb4393b081565b61062c610793366004614ab1565b6113b8565b61062c611437565b6104a36114f1565b61062c61166f565b61062c6107be366004614ab1565b611a55565b610636611ae1565b6104a36107d9366004614e68565b611afd565b6104a36107ec366004614e11565b611c27565b6104a3611c53565b6104a3610807366004614ab1565b611c66565b61062c611cb4565b610636611d37565b6104a3611d43565b6104a3610832366004614e68565b611d4d565b6104e1611e62565b6104a3611ee1565b61062c610855366004614ab1565b611ef1565b6104a3610868366004614e8d565b611f78565b6104c961087b366004614adf565b611f8e565b61062c61088e366004614ede565b612006565b6104a3612052565b61062c61205e565b6104a36108b1366004614ab1565b6124ad565b6104a36108c4366004614ef0565b6124d3565b610661612519565b6104a36108df366004614ef0565b61253c565b6104a361256d565b6108ff6108fa366004614f4c565b612579565b6040516104ad929190614ff7565b6104c9612a70565b610607612a8d565b6104a361092b366004614ab1565b612a99565b61062c61093e366004614e11565b612ac0565b6104a3612b84565b61063661095936600461501b565b612b90565b6104a361096c366004614e11565b612ced565b61063661097f366004614dda565b612d1f565b61062c610992366004615048565b612d5b565b6106616109a5366004614ab1565b612fbd565b6104a36109b8366004614e11565b612ff1565b61062c61301e565b6104a36109d33660046150b9565b61309d565b61062c6109e63660046150e7565b6130d9565b6104a361316f565b610a06610a01366004614dda565b613182565b604080519283526001600160a01b039091166020830152016104ad565b6104a3610a31366004614ab1565b6131c9565b61062c610a44366004614dda565b6131d4565b61063661320d565b6104a3613254565b6104a36132d3565b61062c6132e5565b600080610a7461335c565b9050610a7f8161338a565b91505090565b60006001600160e01b03198216636919637d60e11b1480610ab657506001600160e01b031982166371c7f1b560e11b145b80610ad157506001600160e01b0319821663043eff2d60e51b145b80610aec57506001600160e01b031982166301342f9f60e31b145b80610b0757506001600160e01b031982166301ffc9a760e01b145b92915050565b6060610b176110dc565b6001600160a01b03166395d89b416040518163ffffffff1660e01b8152600401600060405180830381865afa158015610b54573d6000803e3d6000fd5b505050506040513d6000823e601f3d908101601f19168201604052610b7c91908101906151ec565b604051602001610b8c9190615276565b604051602081830303815290604052905090565b600080610bab610c80565b90508015610bcb57610bc6610bbe610a69565b8490836133c7565b610bcd565b825b9392505050565b600080610bdf6133e5565b33600081815260028301602090815260408083206001600160a01b038a16808552908352928190208890555187815293945090927f8c5be1e5ebec7d5bd14f71427d1e84f3dd0314c0f7b2291e5b200ac8c7c3b92591015b60405180910390a35060019392505050565b600080610c54610c80565b90508015610c7057610bc681610c68610a69565b859190613413565b678ac7230489e800009392505050565b6000610c8a61335c565b60050154610c966133e5565b54610ca191906152be565b905090565b600080600080600080610cb7613439565b8054600182015460029092015490986001600160a01b038316985060ff600160a01b840481169850600160a81b90930490921695509350915050565b6000610cfd61335c565b60040154905090565b6000610ca1610d1361335c565b60020154600160281b90046001600160401b0316611c66565b600080610d376133e5565b6001600160a01b038616600090815260028201602090815260408083203384529091529020549091506000198114610d9a57610d7384826152d1565b6001600160a01b038716600090815260028401602090815260408083203384529091529020555b6001600160a01b038616600090815260018301602052604081208054869290610dc49084906152d1565b90915550506001600160a01b03808616600081815260018501602052604090819020805488019055519091881690600080516020615f2f83398151915290610e0f9088815260200190565b60405180910390a350600195945050505050565b60606000610e2f613439565b9050610e3c818585613467565b949350505050565b60006060610e5061101f565b6001600160a01b0316635c975abb6040518163ffffffff1660e01b8152600401602060405180830381865afa158015610e8d573d6000803e3d6000fd5b505050506040513d601f19601f82011682018060405250810190610eb191906152e4565b15610edb57600a60405163eac08f1960e01b8152600401610ed29190615317565b60405180910390fd5b610ee3613439565b60010154600160a81b900460ff1615610f1257600960405163eac08f1960e01b8152600401610ed29190615317565b610f1b83613531565b6000610f2684613567565b81519295509093509150610f69908390610f42906001906152d1565b81518110610f5257610f52615331565b602002602001015160200151604001518483613630565b50915091565b6000610f79613439565b60020154905090565b610f8a611d37565b6001600160a01b0316336001600160a01b031614610fa757600080fd5b80610fb0613439565b6001600160a01b03841660008181526003929092016020908152604092839020805460ff1916941515949094179093558151908152831515928101929092527f73121574a4eadb4cfdeb2ba56a6a88067b03edd1f0a0dfcac0a5a95682a2436791015b60405180910390a15050565b6000610ca160006136be565b6000610b07600161105d61103d61256d565b6110479086615347565b6001600160401b0316611058612052565b6136e3565b61106791906152d1565b6136fb565b6000610ca1613711565b61107e611118565b6001600160a01b0316336001600160a01b03161461109b57600080fd5b60006110a561335c565b90506110b08161371b565b506001810154823590036110c48282613777565b506110d881836040013584602001356137ae565b5050565b6000610ca161384a565b6110ee611d37565b6001600160a01b0316336001600160a01b03161461110b57600080fd5b80611114613439565b5550565b600061112261101f565b6001600160a01b03166341700b976040518163ffffffff1660e01b8152600401602060405180830381865afa15801561115f573d6000803e3d6000fd5b505050506040513d601f19601f82011682018060405250810190610ca1919061536e565b61118b61101f565b6001600160a01b0316336001600160a01b0316146111a857600080fd5b60006111b2613439565b905060006111c36020840184614e11565b6001600160a01b031614611201576111de6020830183614e11565b6001820180546001600160a01b0319166001600160a01b03929092169190911790555b60608201358155611218604083016020840161538b565b156110d85760018101805460ff60a01b1916600160a01b17905560005b61124260408401846153a8565b90508110156112b557600160038301600061126060408701876153a8565b8581811061127057611270615331565b90506020020160208101906112859190614e11565b6001600160a01b031681526020810191909152604001600020805460ff1916911515919091179055600101611235565b505050565b6000806112c5613439565b6001810154909150600160a01b900460ff166112e45750600192915050565b6001600160a01b039092166000908152600390920160205250604090205460ff1690565b6000610b0782610ba0565b61131b611d37565b6001600160a01b0316336001600160a01b03161461133857600080fd5b600061134261335c565b60058101805460009091559091506110d83382613856565b60008060008060008060008061136e61335c565b80546001820154600283015460038401546004850154600590950154939d929c5064ffffffffff82169b50600160281b9091046001600160401b0316995097509195509350915050565b6113c0611118565b6001600160a01b0316336001600160a01b0316146113dd57600080fd5b60006113e761335c565b9050818160010160008282546113fd91906152be565b909155505060018101546040519081527f8658d090f98257c3dddbd5519a24e83bee296705ab98a9d4e3c2a95ab6ac831190602001611013565b6000611441613439565b905061144b611d37565b6001600160a01b0316336001600160a01b031614158015611479575060018101546001600160a01b03163314155b1561149a57600060405163eac08f1960e01b8152600401610ed29190615317565b6002810180549060006114ac836153f1565b91905055507fc6f316165836b9a9ca658ba2e3bbf32b3acff9aca1956fc77393fb506d26b0d681600201546040516114e691815260200190565b60405180910390a150565b600060046114fd6110dc565b6001600160a01b031663313ce5676040518163ffffffff1660e01b8152600401602060405180830381865afa15801561153a573d6000803e3d6000fd5b505050506040513d601f19601f8201168201806040525081019061155e919061540a565b60ff1610156115e75760016115716110dc565b6001600160a01b031663313ce5676040518163ffffffff1660e01b8152600401602060405180830381865afa1580156115ae573d6000803e3d6000fd5b505050506040513d601f19601f820116820180604052508101906115d2919061540a565b6115dc9190615427565b610ca190600a615524565b60086115f16110dc565b6001600160a01b031663313ce5676040518163ffffffff1660e01b8152600401602060405180830381865afa15801561162e573d6000803e3d6000fd5b505050506040513d601f19601f82011682018060405250810190611652919061540a565b60ff1610156116655760026115716110dc565b60066115716110dc565b600061167961335c565b6002810154909150600160281b90046001600160401b03166116985750565b600081600601600060018460020160059054906101000a90046001600160401b03166116c49190615347565b6001600160401b03168152602081019190915260400160002054600160401b90046001600160a01b0316905080156118465760006117006110dc565b6040516370a0823160e01b81523060048201526001600160a01b0391909116906370a0823190602401602060405180830381865afa158015611746573d6000803e3d6000fd5b505050506040513d601f19601f8201168201806040525081019061176a9190615533565b90508083600301541161178857506003820180546000909155611794565b60038301805482900390555b6117b182826117a16110dc565b6001600160a01b031691906138c1565b604051630733d16f60e21b8152600481018290526001600160a01b03831690631ccf45bc90602401600060405180830381600087803b1580156117f357600080fd5b505af1158015611807573d6000803e3d6000fd5b505050507f4fe4d5aa830b30718c35f3d40b9af9a9b42bcba60975357a1b1b40fad5c4eee48160405161183c91815260200190565b60405180910390a1505b6002820154600160281b90046001600160401b031660009081526006830160205260409020546003830154600160401b9091046001600160a01b031690158015906118965750611894610d06565b155b80156118aa57506001600160a01b03811615155b156112b557600083600601600060018660020160059054906101000a90046001600160401b03166118db9190615347565b6001600160401b03166001600160401b0316815260200190815260200160002060000160089054906101000a90046001600160a01b031690506000826001600160a01b0316630aeba34e866003015487600601600060018a60020160059054906101000a90046001600160401b03166119549190615347565b6001600160401b031681526020810191909152604090810160002054905160e084901b6001600160e01b03191681526004810192909252600160401b90046001600160a01b031660248201526044016020604051808303816000875af11580156119c2573d6000803e3d6000fd5b505050506040513d601f19601f820116820180604052508101906119e69190615533565b6003860180548290039055604051630733d16f60e21b8152600481018290529091506001600160a01b03831690631ccf45bc90602401600060405180830381600087803b158015611a3657600080fd5b505af1158015611a4a573d6000803e3d6000fd5b505050505050505050565b6000611a5f61335c565b6002810154909150600160281b90046001600160401b03168015801590611abf5750600682016000611a92600184615347565b6001600160401b03168152602081019190915260400160002054600160401b90046001600160a01b031633145b611ac857600080fd5b6112b582848460000154611adc91906152d1565b61393f565b6000611aeb613960565b15611af557503090565b610ca1611d37565b6000611b0761101f565b6001600160a01b0316635c975abb6040518163ffffffff1660e01b8152600401602060405180830381865afa158015611b44573d6000803e3d6000fd5b505050506040513d601f19601f82011682018060405250810190611b6891906152e4565b15611b8957600a60405163eac08f1960e01b8152600401610ed29190615317565b611b91613439565b60010154600160a81b900460ff1615611bc057600960405163eac08f1960e01b8152600401610ed29190615317565b6000611bca613439565b6001810154909150600160a01b900460ff1615611c08576001600160a01b038316600090815260038201602052604090205460ff16611c0857600080fd5b6000611c12610a69565b9050611c1e8585613975565b95945050505050565b6000611c316133e5565b6001600160a01b03909216600090815260019290920160205250604090205490565b6000611c5d61335c565b60010154905090565b600080611c71612052565b611c7c8460016152be565b611c86919061554c565b611c8e61256d565b611c9891906152be565b9050804210611caa5750600092915050565b610bcd42826152d1565b611cbc611d37565b6001600160a01b0316336001600160a01b031614611cd957600080fd5b6000611ce3613439565b6001018054911515600160a01b0260ff60a01b19909216919091179055604051600081527f0efe10ef116fae4939f66482c28a1b970a12ed19dc4ced68d2080c5558106f11906020015b60405180910390a1565b6000610ca160156136be565b6000610ca1613a81565b6000611d5761101f565b6001600160a01b0316635c975abb6040518163ffffffff1660e01b8152600401602060405180830381865afa158015611d94573d6000803e3d6000fd5b505050506040513d601f19601f82011682018060405250810190611db891906152e4565b15611dd957600a60405163eac08f1960e01b8152600401610ed29190615317565b611de1613439565b60010154600160a81b900460ff1615611e1057600960405163eac08f1960e01b8152600401610ed29190615317565b6000611e1a613439565b6001810154909150600160a01b900460ff1615611e58576001600160a01b038316600090815260038201602052604090205460ff16611e5857600080fd5b610e3c8484613a9d565b6060611e6c6110dc565b6001600160a01b03166395d89b416040518163ffffffff1660e01b8152600401600060405180830381865afa158015611ea9573d6000803e3d6000fd5b505050506040513d6000823e601f3d908101601f19168201604052611ed191908101906151ec565b604051602001610b8c9190615563565b6000611eeb61335c565b54919050565b6000611efb61335c565b6002810154909150600160281b90046001600160401b03168015801590611f5b5750600682016000611f2e600184615347565b6001600160401b03168152602081019190915260400160002054600160401b90046001600160a01b031633145b611f6457600080fd5b6112b582848460000154611adc91906152be565b6000611c1e611f8561335c565b86868686613b5a565b600080611f996133e5565b336000908152600182016020526040812080549293508592909190611fbf9084906152d1565b90915550506001600160a01b038416600081815260018301602052604090819020805486019055513390600080516020615f2f83398151915290610c379087815260200190565b61200e611118565b6001600160a01b0316336001600160a01b03161461202b57600080fd5b600061203561335c565b90508135156110d85780546110d8908290611adc908535906152d1565b6000610ca1605d613dcf565b6000612068610d06565b111561208a57600260405163683f44bb60e11b8152600401610ed29190615591565b600061209461335c565b6003810154909150156120bd57600360405163683f44bb60e11b8152600401610ed29190615591565b6002810154600160281b90046001600160401b03166000818152600683016020526040902054600160401b90046001600160a01b0316901561221b57600082600601600060018560020160059054906101000a90046001600160401b03166121259190615347565b6001600160401b03168152602081019190915260400160002054600160401b90046001600160a01b0316905080158015906121c05750806001600160a01b031663989673b16040518163ffffffff1660e01b8152600401602060405180830381865afa158015612199573d6000803e3d6000fd5b505050506040513d601f19601f820116820180604052508101906121bd9190615533565b15155b1561221957806001600160a01b0316634e71d92d6040518163ffffffff1660e01b8152600401600060405180830381600087803b15801561220057600080fd5b505af1158015612214573d6000803e3d6000fd5b505050505b505b60028201546001600160401b03600160281b90910481166000908152600684016020526040902054161561226557600460405163683f44bb60e11b8152600401610ed29190615591565b600060048301556001600160a01b03811615612476576000816001600160a01b03166318160ddd6040518163ffffffff1660e01b8152600401602060405180830381865afa1580156122bb573d6000803e3d6000fd5b505050506040513d601f19601f820116820180604052508101906122df9190615533565b90506122fd670de0b6b3a76400006122f5610c80565b8391906133c7565b60048085018290556040516302177ab760e11b81526001600160a01b0385169263042ef56e92612331920190815260200190565b600060405180830381600087803b15801561234b57600080fd5b505af115801561235f573d6000803e3d6000fd5b505050506000826001600160a01b031663b701e7276040518163ffffffff1660e01b8152600401602060405180830381865afa1580156123a3573d6000803e3d6000fd5b505050506040513d601f19601f820116820180604052508101906123c79190615533565b9050806123d2610a69565b1115612403576123f98460040154826123e9610a69565b6123f391906152d1565b90613df1565b600385015561240b565b600060038501555b61244284611adc8660040154670de0b6b3a764000061242a91906152d1565b670de0b6b3a764000061243b610a69565b91906133c7565b61244b42613e06565b60028501805464ffffffffff191664ffffffffff929092169190911790556124733083613e18565b50505b50600201805460016001600160401b03600160281b80840482169290920116026cffffffffffffffff000000000019909116179055565b6000806124b8610c80565b90508015610c7057610bc66124cb610a69565b849083613413565b60006124de84610c49565b905060006124ea61335c565b9050612510818386868560020160059054906101000a90046001600160401b0316613b5a565b50509392505050565b600061252361335c565b60020154600160281b90046001600160401b0316919050565b60008061254761335c565b9050611c1e818686868560020160059054906101000a90046001600160401b0316613b5a565b6000610ca1603d613dcf565b606061258361496a565b61258b61101f565b6001600160a01b0316635c975abb6040518163ffffffff1660e01b8152600401602060405180830381865afa1580156125c8573d6000803e3d6000fd5b505050506040513d601f19601f820116820180604052508101906125ec91906152e4565b1561260d57600a60405163eac08f1960e01b8152600401610ed29190615317565b612615613439565b60010154600160a81b900460ff161561264457600960405163eac08f1960e01b8152600401610ed29190615317565b600061264e61101f565b6001600160a01b03166341700b976040518163ffffffff1660e01b8152600401602060405180830381865afa15801561268b573d6000803e3d6000fd5b505050506040513d601f19601f820116820180604052508101906126af919061536e565b9050600080826001600160a01b0316636d995c3b8a8a8a60ff168181106126d8576126d8615331565b90506101c002016040518263ffffffff1660e01b81526004016126fb9190615694565b6040805180830381865afa158015612717573d6000803e3d6000fd5b505050506040513d601f19601f8201168201806040525081019061273b91906156a3565b915091506127476110dc565b6040516370a0823160e01b81523060048201526001600160a01b0391909116906370a0823190602401602060405180830381865afa15801561278d573d6000803e3d6000fd5b505050506040513d601f19601f820116820180604052508101906127b19190615533565b8111156127d457600660405163eac08f1960e01b8152600401610ed29190615317565b6127dd86613e89565b6128626127e861101f565b6001600160a01b03166396d6401d6040518163ffffffff1660e01b8152600401602060405180830381865afa158015612825573d6000803e3d6000fd5b505050506040513d601f19601f82011682018060405250810190612849919061536e565b826128526110dc565b6001600160a01b03169190613fdc565b6040805180820190915260008082526020820152836001600160a01b0316637d5961926040518060600160405280612898613960565b1580156128da57506128a8611d37565b6001600160a01b0316336001600160a01b031614806128da57506128ca613439565b600101546001600160a01b031633145b151581526020018b60ff1681526020016040518060800160405280888152602001612903611ae1565b6001600160a01b0316815260200161291961101f565b6001600160a01b031663c2e4ba508e612930613a81565b6040518363ffffffff1660e01b815260040161294d929190615996565b610140604051808303816000875af115801561296d573d6000803e3d6000fd5b505050506040513d601f19601f820116820180604052508101906129919190615a95565b81526020018f8f808060200260200160405190810160405280939291908181526020016000905b828210156129e5576129d66101c08302860136819003810190615b0a565b815260200190600101906129b8565b50505050508152508152506040518263ffffffff1660e01b8152600401612a0c9190615bf6565b6000604051808303816000875af1158015612a2b573d6000803e3d6000fd5b505050506040513d6000823e601f3d908101601f19168201604052612a539190810190615d7e565b91975095509050612a6381614053565b5050505094509492505050565b6000612a7a613439565b60010154600160a81b900460ff16919050565b6000610ca160146140c7565b600080612aa4610c80565b90508015610bcb57610bc681612ab8610a69565b8591906133c7565b612ac8611d37565b6001600160a01b0316336001600160a01b031614612ae557600080fd5b6000612aef613439565b6001810180546001600160a01b0319166001600160a01b0385169081179091556040519081529091507fbf313af507f7586dc28510c0974f0196ee356634bf104cf3ab61a28a2616c1549060200160405180910390a1604080516001600160a01b0384168152600160208201527f73121574a4eadb4cfdeb2ba56a6a88067b03edd1f0a0dfcac0a5a95682a243679101611013565b6000610ca1607d613dcf565b6000612b9a611118565b6001600160a01b0316336001600160a01b031614612bb757600080fd5b6000612bc161335c565b9050612bcc8161371b565b50612be1818460000135836001015403613777565b6002810154600160281b90046001600160401b031615612c0357612c0361166f565b6000612c24612c186060860160408701615e01565b64ffffffffff1661102b565b9050612c3082826140ec565b6000612c44826001600160401b0316611c66565b905085811015612ce457612c588383614187565b6001600160401b03821660009081526006840160209081526040918290205491516359a13ae560e01b815290870135600482015260248101889052600160401b9091046001600160a01b0316945084906359a13ae590604401600060405180830381600087803b158015612ccb57600080fd5b505af1158015612cdf573d6000803e3d6000fd5b505050505b50505092915050565b600080612cf86133e5565b6001600160a01b0384166000908152600182016020526040902054909150610bcd90610ba0565b6000612d2961335c565b6001600160401b039290921660009081526006909201602052506040902054600160401b90046001600160a01b031690565b42841015612dab5760405162461bcd60e51b815260206004820152601760248201527f5045524d49545f444541444c494e455f455850495245440000000000000000006044820152606401610ed2565b60006001612db761106c565b7f6e71edae12b1b97f4d1f60370fef10105fa2faae0126114a169c64845d6126c98a8a8a612de36133e5565b6001600160a01b038f8116600090815260039290920160209081526040928390208054600181019091558351808301989098529582168784015293166060860152608085019190915260a084019290925260c08084018b90528251808503909101815260e08401909252815191012061190160f01b6101008301526101028201929092526101228101919091526101420160408051601f198184030181528282528051602091820120600084529083018083525260ff871690820152606081018590526080810184905260a0016020604051602081039080840390855afa158015612ed2573d6000803e3d6000fd5b5050604051601f1901519150506001600160a01b03811615801590612f085750876001600160a01b0316816001600160a01b0316145b612f455760405162461bcd60e51b815260206004820152600e60248201526d24a72b20a624a22fa9a4a3a722a960911b6044820152606401610ed2565b85612f4e6133e5565b6001600160a01b039283166000908152600291909101602090815260408083208b86168085529083529281902093909355915188815290928a16917f8c5be1e5ebec7d5bd14f71427d1e84f3dd0314c0f7b2291e5b200ac8c7c3b925910160405180910390a350505050505050565b6000610b07612fca612052565b612fd58460016152be565b612fdf919061554c565b612fe761256d565b61106791906152be565b600080612ffc6133e5565b6001600160a01b03909316600090815260019093016020525050604090205490565b613026611d37565b6001600160a01b0316336001600160a01b03161461304357600080fd5b600161304d613439565b60019081018054921515600160a01b0260ff60a01b19909316929092179091556040519081527f0efe10ef116fae4939f66482c28a1b970a12ed19dc4ced68d2080c5558106f1190602001611d2d565b6000806130a86133e5565b6001600160a01b03948516600090815260029190910160209081526040808320959096168252939093525050205490565b6130e1611118565b6001600160a01b0316336001600160a01b0316146130fe57600080fd5b600061310861335c565b90506131138161371b565b506001810154833590036131278282613777565b508054820181556131478161314261065c60208701356136fb565b6140ec565b8054604051908152600080516020615f4f8339815191529060200160405180910390a1505050565b600061317961335c565b60030154905090565b600080600061318f61335c565b6001600160401b039485166000908152600691909101602052604090205493841694600160401b9094046001600160a01b03169392505050565b6000610b0782612a99565b6131dc611118565b6001600160a01b0316336001600160a01b0316146131f957600080fd5b61320a61320461335c565b826140ec565b50565b600061321761101f565b6001600160a01b031663f5f1f1a76040518163ffffffff1660e01b8152600401602060405180830381865afa15801561115f573d6000803e3d6000fd5b604080517f2aef22f9d7df5f9d21c56d14029233f3fdaa91917727e1eb68e504d27072d6cd60208201527f044852b2a670ade5407e78fb2863c51de9fcb96542a07186fe3aeda6bb8a116d9181019190915246606082015230608082015260009060a00160405160208183030381529060405280519060200120905090565b6000610ca16132e061335c565b61371b565b6132ed611d37565b6001600160a01b0316336001600160a01b03161461330a57600080fd5b6001613314613439565b6001018054911515600160a81b0260ff60a81b199092169190911790556040517f43849b84f1a1ce86ba1205cd8a5d4fa1563bca4b169db452674f94b4b6ddaa6990600090a1565b600080610b0760017fc8b9e850684c861cb4124c86f9eebbd425d1f899eefe14aef183cd9cd8e16ef06152d1565b600281015460009081906133a59064ffffffffff16426152d1565b835460018086015492935090916133bd9184906133c7565b610bcd91906152be565b60008260001904841183021582026133de57600080fd5b5091020490565b600080610b0760017f6c9d8be213da072972500acecface6c6d1d5ffbaace52819bc377031072935926152d1565b600082600019048411830215820261342a57600080fd5b50910281810615159190040190565b600080610b0760017f8db05f23e24c991e45d8dd3599daf8e419ee5ab93565cf65b18905286a24ec146152d1565b606060007f679f3933bd13bd2e4ec6e9cde341ede07736ad7b635428a8a211e9cccb4393b085600201548560200135856040516020016134c0949392919093845260208401929092526040830152606082015260800190565b60408051601f1981840301815291905280516020909101209050601960f81b600160f81b6134ec613254565b6040516001600160f81b031993841660208201529290911660218301526022820152604281018290526062016040516020818303038152906040529150509392505050565b600061353b61335c565b6003810154909150156135505761355061166f565b600061355a610d06565b036110d8576110d861205e565b6000606060008061357785614347565b905061358161101f565b6001600160a01b031663191e0aca86613598611ae1565b6040518363ffffffff1660e01b81526004016135b5929190615e1e565b6000604051808303816000875af11580156135d4573d6000803e3d6000fd5b505050506040513d6000823e601f3d908101601f191682016040526135fc9190810190615e48565b91955093509150613628816136206136176040890189615e97565b60c001356145eb565b6117a16110dc565b509193909250565b600061363a61335c565b90506136458161371b565b50600181015482016136578282613777565b50600061366a8564ffffffffff1661102b565b90506136768282614703565b604080518581526001600160401b03831660208201527f62a344dd82c6dba4b37f8fd2af14110b8674bb9abdca665ff3b06692935bbee1910160405180910390a15050505050565b6000806136d5600119368181013560f01c90030190565b929092013560601c92915050565b6000816136ef57600080fd5b50808204910615150190565b6000600160401b821061370d57600080fd5b5090565b6000610ca1613254565b60006137268261338a565b825561373142613e06565b60028301805464ffffffffff191664ffffffffff929092169190911790558154604051908152600080516020615f4f8339815191529060200160405180910390a1505490565b600182018190556040518181527f8658d090f98257c3dddbd5519a24e83bee296705ab98a9d4e3c2a95ab6ac831190602001611013565b60006137b8612b84565b146112b55760008282116137cc57816137ce565b825b905060006137e76137dd612b84565b83906127106133c7565b905060006137f482612a99565b90508086600501600082825461380a91906152be565b90915550506040518181527f2bd593ac0d40e025add00172e0df3212c8932be1f8434aef76e57f1816f463789060200160405180910390a1505050505050565b6000610ca160296136be565b60006138606133e5565b90508181600001600082825461387691906152be565b90915550506001600160a01b0383166000818152600183016020908152604080832080548701905551858152600080516020615f2f83398151915291015b60405180910390a3505050565b600060405163a9059cbb60e01b8152836004820152826024820152602060006044836000895af13d15601f3d11600160005114161716915050806139395760405162461bcd60e51b815260206004820152600f60248201526e1514905394d1915497d19052531151608a1b6044820152606401610ed2565b50505050565b808255604051818152600080516020615f4f83398151915290602001611013565b6000600161396c612a8d565b60ff1614905090565b6000613980836131c9565b9050806000036139c05760405162461bcd60e51b815260206004820152600b60248201526a5a45524f5f53484152455360a81b6044820152606401610ed2565b6139c86114f1565b8111613a085760405162461bcd60e51b815260206004820152600f60248201526e159053155157d513d3d7d4d3505313608a1b6044820152606401610ed2565b613a27333085613a166110dc565b6001600160a01b0316929190614740565b613a318282613856565b60408051848152602081018390526001600160a01b0384169133917fdcbc1c05240f31ff3ad067ef1ee35ce4997762752e3a095284754544f4c709d7910160405180910390a3610b0783826147ca565b6000613a8b612052565b613a93610d06565b610ca191906152be565b6000613aa8836124ad565b9050613ab26114f1565b8111613af25760405162461bcd60e51b815260206004820152600f60248201526e159053155157d513d3d7d4d3505313608a1b6044820152606401610ed2565b613b00333083613a166110dc565b613b0a8284613856565b60408051828152602081018590526001600160a01b0384169133917fdcbc1c05240f31ff3ad067ef1ee35ce4997762752e3a095284754544f4c709d7910160405180910390a3610b0781846147ca565b600080613b656133e5565b9050336001600160a01b03851614613bd9576001600160a01b038416600090815260028201602090815260408083203384529091529020546000198114613bd757613bb087826152d1565b6001600160a01b038616600090815260028401602090815260408083203384529091529020555b505b60028701546001600160401b03600160281b90910481169084161015613c1557600060405163683f44bb60e11b8152600401610ed29190615591565b613c1e86611308565b915081600003613c5e5760405162461bcd60e51b815260206004820152600b60248201526a5a45524f5f41535345545360a81b6044820152606401610ed2565b6001600160a01b038416600090815260018201602052604081208054889290613c889084906152d1565b909155505030600081815260018301602052604090819020805489019055516001600160a01b03861690600080516020615f2f83398151915290613ccf908a815260200190565b60405180910390a3613ce18784614187565b60408051838152602081018890526001600160a01b03808716929088169133917ffbde797d201c681b91056529119e0b02407c7bb96a4a2c75c01fc9667232c8db910160405180910390a46001600160401b0383166000908152600688016020526040908190205490516394bf804d60e01b8152600481018890526001600160a01b038781166024830152600160401b909204909116906394bf804d906044016020604051808303816000875af1158015613da0573d6000803e3d6000fd5b505050506040513d601f19601f82011682018060405250810190613dc49190615533565b505095945050505050565b600080613de6600119368181013560f01c90030190565b929092013592915050565b6000610bcd8383670de0b6b3a76400006133c7565b6000600160281b821061370d57600080fd5b6000613e226133e5565b6001600160a01b0384166000908152600182016020526040812080549293508492909190613e519084906152d1565b9091555050805482900381556040518281526000906001600160a01b03851690600080516020615f2f833981519152906020016138b4565b6000613e93613439565b905060006001613ecb83613eaa6040870187615e97565b613eb76040880188615e97565b613ec59060a0810190615eb8565b35613467565b8051602090910120613ee06040860186615e97565b613ef29061010081019060e001615ece565b613eff6040870187615e97565b6101000135613f116040880188615e97565b6040805160008152602081018083529590955260ff9093169284019290925260608301526101200135608082015260a0016020604051602081039080840390855afa158015613f64573d6000803e3d6000fd5b505050602060405103519050613f78611d37565b6001600160a01b0316816001600160a01b031614158015613fa9575060018201546001600160a01b03828116911614155b80613fbb57506001600160a01b038116155b156112b557600360405163eac08f1960e01b8152600401610ed29190615317565b600060405163095ea7b360e01b8152836004820152826024820152602060006044836000895af13d15601f3d11600160005114161716915050806139395760405162461bcd60e51b815260206004820152600e60248201526d1054141493d59157d1905253115160921b6044820152606401610ed2565b600061405d61335c565b90506140688161371b565b5060038101541561407b5761407b61166f565b815160018201540161408d8282613777565b506140a7816140a261065c85602001516136fb565b614703565b8054604051908152600080516020615f4f83398151915290602001611013565b6000806140de600119368181013560f01c90030190565b929092013560f81c92915050565b6001600160401b03808216600090815260068401602052604081208054909216919061411783615eeb565b82546101009290920a6001600160401b038181021990931691831602179091558281166000818152600686016020908152604091829020548251938452909316928201929092527fc78e24d95d2fbcef8eeb6cf95914c9a7cfd906a017910a054d2404baac851231925001611013565b6001600160401b0381166000908152600683016020526040902054600160401b90046001600160a01b03166110d8576142fb6141c161101f565b6001600160a01b0316631ff0c9d66040518163ffffffff1660e01b8152600401602060405180830381865afa1580156141fe573d6000803e3d6000fd5b505050506040513d601f19601f82011682018060405250810190614222919061536e565b61422a61101f565b60026142346110dc565b30614240876001615f0e565b604051606095861b6bffffffffffffffffffffffff19908116602083015260f89590951b6001600160f81b031916603482015292851b84166035840152931b909116604982015260c09190911b6001600160c01b031916605d82015260650160408051601f19818403018152908290526bffffffffffffffffffffffff193060601b1660208301526001600160c01b031960c086901b16603483015290603c016040516020818303038152906040528051906020012061484b565b6001600160401b0382166000908152600684016020526040902080546001600160a01b0392909216600160401b0268010000000000000000600160e01b03199092169190911790555050565b6000306143576040840184615e97565b614368906060810190604001614e11565b6001600160a01b03161461439257600260405163eac08f1960e01b8152600401610ed29190615317565b60006143bf602084018035906143a89086614e11565b6001600160a01b03166000526020526034600c2090565b905060006143cb61320d565b6040516331a9108f60e11b8152600481018490529091506000906001600160a01b03831690636352211e90602401602060405180830381865afa158015614416573d6000803e3d6000fd5b505050506040513d601f19601f8201168201806040525081019061443a919061536e565b60405163020604bf60e21b8152600481018590529091506000906001600160a01b0384169063081812fc90602401602060405180830381865afa158015614485573d6000803e3d6000fd5b505050506040513d601f19601f820116820180604052508101906144a9919061536e565b9050336001600160a01b038316148015906144cd5750336001600160a01b03821614155b8015614546575060405163e985e9c560e01b81526001600160a01b03838116600483015233602483015284169063e985e9c590604401602060405180830381865afa158015614520573d6000803e3d6000fd5b505050506040513d601f19601f8201168201806040525081019061454491906152e4565b155b1561456757600060405163eac08f1960e01b8152600401610ed29190615317565b6145746040870187615e97565b6020013542111561459b57600b60405163eac08f1960e01b8152600401610ed29190615317565b6145a486613e89565b6001600160a01b03821633146145e257333b156145c657503395945050505050565b600160405163eac08f1960e01b8152600401610ed29190615317565b50949350505050565b6000806145f661101f565b6001600160a01b031663017e7e586040518163ffffffff1660e01b81526004016020604051808303816000875af1158015614635573d6000803e3d6000fd5b505050506040513d601f19601f82011682018060405250810190614659919061536e565b90506001600160a01b038116158015906146fb57600061467761101f565b6001600160a01b0316630f0245ad866040518263ffffffff1660e01b81526004016146a491815260200190565b602060405180830381865afa1580156146c1573d6000803e3d6000fd5b505050506040513d601f19601f820116820180604052508101906146e59190615533565b905080850394506146f983826117a16110dc565b505b509192915050565b6001600160401b03908116600090815260069092016020526040909120805480831660010190921667ffffffffffffffff19909216919091179055565b60006040516323b872dd60e01b81528460048201528360248201528260448201526020600060648360008a5af13d15601f3d11600160005114161716915050806147c35760405162461bcd60e51b81526020600482015260146024820152731514905394d1915497d19493d357d1905253115160621b6044820152606401610ed2565b5050505050565b60006147d461335c565b805484018155905060006147e6613439565b805490915015801590614801575080546147fe610a69565b10155b1561482257600760405163683f44bb60e11b8152600401610ed29190615591565b8154604051908152600080516020615f4f8339815191529060200160405180910390a150505050565b600080600061485a868661488d565b915091508381836000f592506001600160a01b03831661251057604051631d7fde3160e31b815260040160405180910390fd5b8051604051606160f81b81526039820160f081811b60018401526f3d81600a3d39f33d3d3d3d363d3d376160801b600384015260028401901b601383018190526560373639366160d01b6015840152601b83015262013d7360e81b601d830152606085901b6020808401919091526c5af43d3d93803e603557fd5bf360981b603484015291926043810192909190850182604186015b602082106149425782518152602092830192601f199092019101614923565b915160001960208390036101000a011916825260f09390931b920191909152505b9250929050565b604051806040016040528061497d6149ac565b81526040805160808101825260008082526020828101829052928201819052606082015291015290565b905290565b6040518060c00160405280600060ff16815260200160006001600160a01b0316815260200160006001600160a01b0316815260200160008019168152602001600081526020016149a76040518060a0016040528060008152602001600081526020016000815260200160008152602001600081525090565b600060208284031215614a3657600080fd5b81356001600160e01b031981168114610bcd57600080fd5b60005b83811015614a69578181015183820152602001614a51565b50506000910152565b60008151808452614a8a816020860160208601614a4e565b601f01601f19169290920160200192915050565b602081526000610bcd6020830184614a72565b600060208284031215614ac357600080fd5b5035919050565b6001600160a01b038116811461320a57600080fd5b60008060408385031215614af257600080fd5b8235614afd81614aca565b946020939093013593505050565b600080600080600060808688031215614b2357600080fd5b8535614b2e81614aca565b94506020860135614b3e81614aca565b93506040860135925060608601356001600160401b0380821115614b6157600080fd5b818801915088601f830112614b7557600080fd5b813581811115614b8457600080fd5b896020828501011115614b9657600080fd5b9699959850939650602001949392505050565b600080600060608486031215614bbe57600080fd5b8335614bc981614aca565b92506020840135614bd981614aca565b929592945050506040919091013590565b600060608284031215614bfc57600080fd5b50919050565b60008060808385031215614c1557600080fd5b614c1f8484614bea565b946060939093013593505050565b600060208284031215614c3f57600080fd5b81356001600160401b03811115614c5557600080fd5b610e3c84828501614bea565b805160ff1682526020808201516001600160a01b039081168285015260408084015190911681850152606080840151818601526080808501518187015260a0948501518051958701959095529284015160c08601529083015160e0850152820151610100840152015161012090910152565b614cde828251614c61565b60209081015180516101408401529081015164ffffffffff908116610160840152604082015116610180830152606001516101a090910152565b600081518084526020808501945080840160005b83811015614d5357614d3f878351614cd3565b6101c0969096019590820190600101614d2c565b509495945050505050565b828152604060208201526000610e3c6040830184614d18565b801515811461320a57600080fd5b60008060408385031215614d9857600080fd5b8235614da381614aca565b91506020830135614db381614d77565b809150509250929050565b80356001600160401b0381168114614dd557600080fd5b919050565b600060208284031215614dec57600080fd5b610bcd82614dbe565b600060608284031215614e0757600080fd5b610bcd8383614bea565b600060208284031215614e2357600080fd5b8135610bcd81614aca565b600060208284031215614e4057600080fd5b81356001600160401b03811115614e5657600080fd5b820160808185031215610bcd57600080fd5b60008060408385031215614e7b57600080fd5b823591506020830135614db381614aca565b60008060008060808587031215614ea357600080fd5b843593506020850135614eb581614aca565b92506040850135614ec581614aca565b9150614ed360608601614dbe565b905092959194509250565b600060208284031215614bfc57600080fd5b600080600060608486031215614f0557600080fd5b833592506020840135614f1781614aca565b91506040840135614f2781614aca565b809150509250925092565b60ff8116811461320a57600080fd5b8035614dd581614f32565b60008060008060608587031215614f6257600080fd5b84356001600160401b0380821115614f7957600080fd5b818701915087601f830112614f8d57600080fd5b813581811115614f9c57600080fd5b8860206101c083028501011115614fb257600080fd5b60208301965080955050614fc860208801614f41565b93506040870135915080821115614fde57600080fd5b50614feb87828801614bea565b91505092959194509250565b60006101e080835261500b81840186614d18565b915050610bcd6020830184614cd3565b6000806080838503121561502e57600080fd5b8235915061503f8460208501614bea565b90509250929050565b600080600080600080600060e0888a03121561506357600080fd5b873561506e81614aca565b9650602088013561507e81614aca565b95506040880135945060608801359350608088013561509c81614f32565b9699959850939692959460a0840135945060c09093013592915050565b600080604083850312156150cc57600080fd5b82356150d781614aca565b91506020830135614db381614aca565b60008082840360608112156150fb57600080fd5b604081121561510957600080fd5b50919360408501359350915050565b634e487b7160e01b600052604160045260246000fd5b60405160c081016001600160401b038111828210171561515057615150615118565b60405290565b604051608081016001600160401b038111828210171561515057615150615118565b604080519081016001600160401b038111828210171561515057615150615118565b60405160a081016001600160401b038111828210171561515057615150615118565b604051601f8201601f191681016001600160401b03811182821017156151e4576151e4615118565b604052919050565b6000602082840312156151fe57600080fd5b81516001600160401b038082111561521557600080fd5b818401915084601f83011261522957600080fd5b81518181111561523b5761523b615118565b61524e601f8201601f19166020016151bc565b915080825285602082850101111561526557600080fd5b6145e2816020840160208601614a4e565b694153542d5661756c742d60b01b81526000825161529b81600a850160208701614a4e565b91909101600a0192915050565b634e487b7160e01b600052601160045260246000fd5b80820180821115610b0757610b076152a8565b81810381811115610b0757610b076152a8565b6000602082840312156152f657600080fd5b8151610bcd81614d77565b634e487b7160e01b600052602160045260246000fd5b60208101600c831061532b5761532b615301565b91905290565b634e487b7160e01b600052603260045260246000fd5b6001600160401b03828116828216039080821115615367576153676152a8565b5092915050565b60006020828403121561538057600080fd5b8151610bcd81614aca565b60006020828403121561539d57600080fd5b8135610bcd81614d77565b6000808335601e198436030181126153bf57600080fd5b8301803591506001600160401b038211156153d957600080fd5b6020019150600581901b360382131561496357600080fd5b600060018201615403576154036152a8565b5060010190565b60006020828403121561541c57600080fd5b8151610bcd81614f32565b60ff8281168282160390811115610b0757610b076152a8565b600181815b8085111561547b578160001904821115615461576154616152a8565b8085161561546e57918102915b93841c9390800290615445565b509250929050565b60008261549257506001610b07565b8161549f57506000610b07565b81600181146154b557600281146154bf576154db565b6001915050610b07565b60ff8411156154d0576154d06152a8565b50506001821b610b07565b5060208310610133831016604e8410600b84101617156154fe575081810a610b07565b6155088383615440565b806000190482111561551c5761551c6152a8565b029392505050565b6000610bcd60ff841683615483565b60006020828403121561554557600080fd5b5051919050565b8082028115828204841417610b0757610b076152a8565b654153542d562d60d01b815260008251615584816006850160208701614a4e565b9190910160060192915050565b602081016008831061532b5761532b615301565b64ffffffffff8116811461320a57600080fd5b8035825260208101356155ca816155a5565b64ffffffffff90811660208401526040820135906155e7826155a5565b166040830152606090810135910152565b803561560381614f32565b60ff168252602081013561561681614aca565b6001600160a01b03908116602084015260408201359061563582614aca565b166040830152606081810135908301526080808201359083015260a0808201359083015260c0808201359083015260e08082013590830152610100808201359083015261012080820135908301526101406112b58184018284016155b8565b6101c08101610b0782846155f8565b600080604083850312156156b657600080fd5b505080516020909101519092909150565b6000808335601e198436030181126156de57600080fd5b83016020810192503590506001600160401b038111156156fd57600080fd5b6101c08102360382131561496357600080fd5b81835260208301925060008160005b848110156157455761573186836155f8565b6101c095860195919091019060010161571f565b5093949350505050565b6000808335601e1984360301811261576657600080fd5b83016020810192503590506001600160401b0381111561578557600080fd5b80360382131561496357600080fd5b81835281816020850137506000828201602090810191909152601f909101601f19169091010190565b60008235603e198336030181126157d357600080fd5b90910192915050565b8035825260006020820135601e198336030181126157f957600080fd5b82016020810190356001600160401b0381111561581557600080fd5b8060051b80360383131561582857600080fd5b60406020870181905286018290526001600160fb1b0382111561584a57600080fd5b8083606088013794909401606001949350505050565b6000813561586d81614aca565b6001600160a01b039081168452602083810135908501526040830135903684900361013e1901821261589e57600080fd5b606060408601529083019081356158b481614f32565b60ff1660608601526020820135608086015260408201356158d481614aca565b1660a08501526158e760608201826156c7565b6101408060c08801526158ff6101a088018385615710565b925061590e608085018561574f565b9250605f19808986030160e08a0152615928858584615794565b945061593760a08701876157bd565b935061010091508089860301828a01525061595284846157dc565b9350610120925060c08501358389015261596e60e08601614f41565b60ff811689840152508401356101608801525090910135610180909401939093525090919050565b6040815260006159a96040830185615860565b90508260208301529392505050565b60008183036101408112156159cc57600080fd5b6159d461512e565b915082516159e181614f32565b825260208301516159f181614aca565b60208301526040830151615a0481614aca565b6040830152606083810151908301526080808401519083015260a0609f1982011215615a2f57600080fd5b5060405160a081018181106001600160401b0382111715615a5257615a52615118565b806040525060a0830151815260c0830151602082015260e08301516040820152610100830151606082015261012083015160808201528060a08301525092915050565b60006101408284031215615aa857600080fd5b610bcd83836159b8565b600060808284031215615ac457600080fd5b615acc615156565b9050813581526020820135615ae0816155a5565b60208201526040820135615af3816155a5565b806040830152506060820135606082015292915050565b60008183036101c0811215615b1e57600080fd5b615b26615178565b61014080831215615b3657600080fd5b615b3e61512e565b8535615b4981614f32565b81526020860135615b5981614aca565b60208201526040860135615b6c81614aca565b6040820152606086810135908201526080808701359082015260a0609f1985011215615b9757600080fd5b615b9f61519a565b935060a0860135845260c0860135602085015260e08601356040850152610100860135606085015261012086013560808501528360a082015280835250615be886828701615ab2565b602083015250949350505050565b6020815281511515602082015260ff6020830151166040820152600060408301516060808401528051608084015260018060a01b0360208201511660a08401526040810151615c4860c0850182614c61565b50606001516101a0610200840152610e3c610220840182614d18565b60008183036101c0811215615c7857600080fd5b615c80615178565b9150615c8c84846159b8565b8252608061013f1982011215615ca157600080fd5b50615caa615156565b6101408301518152610160830151615cc1816155a5565b6020820152610180830151615cd5816155a5565b806040830152506101a083015160608201528060208301525092915050565b600082601f830112615d0557600080fd5b815160206001600160401b03821115615d2057615d20615118565b615d2e818360051b016151bc565b8281526101c09283028501820192828201919087851115615d4e57600080fd5b8387015b85811015615d7157615d648982615c64565b8452928401928101615d52565b5090979650505050505050565b6000806000838503610220811215615d9557600080fd5b84516001600160401b03811115615dab57600080fd5b615db787828801615cf4565b945050615dc78660208701615c64565b925060406101df1982011215615ddc57600080fd5b50615de5615178565b6101e08501518152610200909401516020850152509093909250565b600060208284031215615e1357600080fd5b8135610bcd816155a5565b604081526000615e316040830185615860565b905060018060a01b03831660208301529392505050565b600080600060608486031215615e5d57600080fd5b8351925060208401516001600160401b03811115615e7a57600080fd5b615e8686828701615cf4565b925050604084015190509250925092565b6000823561013e19833603018112615eae57600080fd5b9190910192915050565b60008235603e19833603018112615eae57600080fd5b600060208284031215615ee057600080fd5b8135610bcd81614f32565b60006001600160401b03821680615f0457615f046152a8565b6000190192915050565b6001600160401b03818116838216019080821115615367576153676152a856feddf252ad1be2c89b69c2b068fc378daa952ba7f163c4a11628f55a4df523b3ef0d929f3d1cc26451e13ef120a91a57d7b74aabeb7d27aea8659f79232ded5bb7a2646970667358221220f40c6b62f6fd175453702a9c1a39e0b487b6fb785472112695ecb59bf7e9ab8864736f6c63430008110033",
    "linkReferences": {}
  },
  "methodIdentifiers": {
    "COLLATERAL_TOKEN()": "f5f1f1a7",
    "DOMAIN_SEPARATOR()": "3644e515",
    "EPOCH_LENGTH()": "ac4746ab",
    "IMPL_TYPE()": "c237c703",
    "LIEN_TOKEN()": "41700b97",
    "ROUTER()": "32fe7b26",
    "START()": "ba9a061a",
    "STRATEGY_TYPEHASH()": "51ab5c49",
    "VAULT_FEE()": "cb58189d",
    "accrue()": "f8ba4cff",
    "afterPayment(uint256)": "59f9556e",
    "allowance(address,address)": "dd62ed3e",
    "approve(address,uint256)": "095ea7b3",
    "asset()": "38d52e0f",
    "balanceOf(address)": "70a08231",
    "beforePayment((uint256,uint256,uint256))": "38663c3f",
    "buyoutLien(((uint8,address,address,bytes32,uint256,(uint256,uint256,uint256,uint256,uint256)),(uint256,uint40,uint40,uint256))[],uint8,(address,uint256,((uint8,uint256,address),((uint8,address,address,bytes32,uint256,(uint256,uint256,uint256,uint256,uint256)),(uint256,uint40,uint40,uint256))[],bytes,(bytes32,bytes32[]),uint256,uint8,bytes32,bytes32)))": "bd2c6bae",
    "claim()": "4e71d92d",
    "commitToLien((address,uint256,((uint8,uint256,address),((uint8,address,address,bytes32,uint256,(uint256,uint256,uint256,uint256,uint256)),(uint256,uint40,uint40,uint256))[],bytes,(bytes32,bytes32[]),uint256,uint8,bytes32,bytes32)))": "29aee4bd",
    "convertToAssets(uint256)": "07a2d13a",
    "convertToShares(uint256)": "c6e6f592",
    "decimals()": "313ce567",
    "decreaseEpochLienCount(uint64)": "f1e9f4f5",
    "decreaseYIntercept(uint256)": "65612e68",
    "deposit(uint256,address)": "6e553f65",
    "disableAllowList()": "834029ba",
    "domainSeparator()": "f698da25",
    "enableAllowList()": "dc2fbaee",
    "encodeStrategyData((uint8,uint256,address),bytes32)": "2917e097",
    "getAllowList(address)": "47c78fef",
    "getCurrentEpoch()": "b97dd9e2",
    "getEpochData(uint64)": "eceea7e7",
    "getEpochEnd(uint256)": "d5176d23",
    "getLienEpoch(uint64)": "349f723d",
    "getLiquidationWithdrawRatio()": "1d5470e8",
    "getPublicVaultState()": "512974d6",
    "getShutdown()": "c0e9b053",
    "getSlope()": "79c84f9c",
    "getState()": "1865c57d",
    "getStrategistNonce()": "30040e77",
    "getWithdrawProxy(uint64)": "cebbdf23",
    "getWithdrawReserve()": "dfb2b645",
    "getYIntercept()": "9d8f8fcc",
    "handleLoseLienToBuyout((uint256,uint256),uint256)": "de6c2848",
    "increaseYIntercept(uint256)": "9ff2cfb4",
    "incrementNonce()": "627cdcb9",
    "init((address,bool,address[],uint256))": "474a1e54",
    "maxDeposit(address)": "402d267d",
    "maxMint(address)": "c63d75b6",
    "maxRedeem(address)": "d905777e",
    "maxWithdraw(address)": "ce96cb77",
    "minDepositAmount()": "645006ca",
    "mint(uint256,address)": "94bf804d",
    "modifyAllowList(address,bool)": "3177e0fe",
    "modifyDepositCap(uint256)": "3c96ce12",
    "name()": "06fdde03",
    "onERC721Received(address,address,uint256,bytes)": "150b7a02",
    "owner()": "8da5cb5b",
    "permit(address,address,uint256,uint256,uint8,bytes32,bytes32)": "d505accf",
    "previewDeposit(uint256)": "ef8b30f7",
    "previewMint(uint256)": "b3d7f6b9",
    "previewRedeem(uint256)": "4cdad506",
    "previewWithdraw(uint256)": "0a28a477",
    "processEpoch()": "b19c2c70",
    "recipient()": "66d003ac",
    "redeem(uint256,address,address)": "ba087652",
    "redeemFutureEpoch(uint256,address,address,uint64)": "a3a911ba",
    "setDelegate(address)": "ca5eb5e1",
    "shutdown()": "fc0e74d1",
    "supportsInterface(bytes4)": "01ffc9a7",
    "symbol()": "95d89b41",
    "timeToEpochEnd()": "200298bf",
    "timeToEpochEnd(uint256)": "7f65a114",
    "timeToSecondEpochEnd()": "90bec11d",
    "totalAssets()": "01e1d114",
    "totalSupply()": "18160ddd",
    "transfer(address,uint256)": "a9059cbb",
    "transferFrom(address,address,uint256)": "23b872dd",
    "transferWithdrawReserve()": "64e4cf3b",
    "updateAfterLiquidationPayment((uint256))": "aaed42b7",
    "updateVaultAfterLiquidation(uint256,(uint256,uint256,uint40))": "cd12030f",
    "withdraw(uint256,address,address)": "b460af94"
  },
  "id": 149
}