{
  "abi": [
    {
      "inputs": [
        {
          "internalType": "enum WithdrawProxy.InvalidStates",
          "name": "",
          "type": "uint8"
        }
      ],
      "name": "InvalidState",
      "type": "error"
    },
    {
      "inputs": [],
      "name": "NotSupported",
      "type": "error"
    },
    {
      "anonymous": false,
      "inputs": [
        {
          "indexed": true,
          "internalType": "address",
          "name": "owner",
          "type": "address"
        },
        {
          "indexed": true,
          "internalType": "address",
          "name": "spender",
          "type": "address"
        },
        {
          "indexed": false,
          "internalType": "uint256",
          "name": "value",
          "type": "uint256"
        }
      ],
      "name": "Approval",
      "type": "event"
    },
    {
      "anonymous": false,
      "inputs": [
        {
          "indexed": false,
          "internalType": "address",
          "name": "withdrawProxy",
          "type": "address"
        },
        {
          "indexed": false,
          "internalType": "uint256",
          "name": "withdrawProxyAmount",
          "type": "uint256"
        },
        {
          "indexed": false,
          "internalType": "address",
          "name": "publicVault",
          "type": "address"
        },
        {
          "indexed": false,
          "internalType": "uint256",
          "name": "publicVaultAmount",
          "type": "uint256"
        }
      ],
      "name": "Claimed",
      "type": "event"
    },
    {
      "anonymous": false,
      "inputs": [
        {
          "indexed": true,
          "internalType": "address",
          "name": "sender",
          "type": "address"
        },
        {
          "indexed": true,
          "internalType": "address",
          "name": "owner",
          "type": "address"
        },
        {
          "indexed": false,
          "internalType": "uint256",
          "name": "assets",
          "type": "uint256"
        },
        {
          "indexed": false,
          "internalType": "uint256",
          "name": "shares",
          "type": "uint256"
        }
      ],
      "name": "Deposit",
      "type": "event"
    },
    {
      "anonymous": false,
      "inputs": [
        {
          "indexed": true,
          "internalType": "address",
          "name": "from",
          "type": "address"
        },
        {
          "indexed": true,
          "internalType": "address",
          "name": "to",
          "type": "address"
        },
        {
          "indexed": false,
          "internalType": "uint256",
          "name": "value",
          "type": "uint256"
        }
      ],
      "name": "Transfer",
      "type": "event"
    },
    {
      "anonymous": false,
      "inputs": [
        {
          "indexed": true,
          "internalType": "address",
          "name": "sender",
          "type": "address"
        },
        {
          "indexed": true,
          "internalType": "address",
          "name": "receiver",
          "type": "address"
        },
        {
          "indexed": true,
          "internalType": "address",
          "name": "owner",
          "type": "address"
        },
        {
          "indexed": false,
          "internalType": "uint256",
          "name": "assets",
          "type": "uint256"
        },
        {
          "indexed": false,
          "internalType": "uint256",
          "name": "shares",
          "type": "uint256"
        }
      ],
      "name": "Withdraw",
      "type": "event"
    },
    {
      "inputs": [],
      "name": "CLAIMABLE_EPOCH",
      "outputs": [
        {
          "internalType": "uint64",
          "name": "",
          "type": "uint64"
        }
      ],
      "stateMutability": "pure",
      "type": "function"
    },
    {
      "inputs": [],
      "name": "DOMAIN_SEPARATOR",
      "outputs": [
        {
          "internalType": "bytes32",
          "name": "",
          "type": "bytes32"
        }
      ],
      "stateMutability": "view",
      "type": "function"
    },
    {
      "inputs": [],
      "name": "IMPL_TYPE",
      "outputs": [
        {
          "internalType": "uint8",
          "name": "",
          "type": "uint8"
        }
      ],
      "stateMutability": "pure",
      "type": "function"
    },
    {
      "inputs": [],
      "name": "ROUTER",
      "outputs": [
        {
          "internalType": "contract IAstariaRouter",
          "name": "",
          "type": "address"
        }
      ],
      "stateMutability": "pure",
      "type": "function"
    },
    {
      "inputs": [],
      "name": "VAULT",
      "outputs": [
        {
          "internalType": "address",
          "name": "",
          "type": "address"
        }
      ],
      "stateMutability": "pure",
      "type": "function"
    },
    {
      "inputs": [
        {
          "internalType": "address",
          "name": "owner",
          "type": "address"
        },
        {
          "internalType": "address",
          "name": "spender",
          "type": "address"
        }
      ],
      "name": "allowance",
      "outputs": [
        {
          "internalType": "uint256",
          "name": "",
          "type": "uint256"
        }
      ],
      "stateMutability": "view",
      "type": "function"
    },
    {
      "inputs": [
        {
          "internalType": "address",
          "name": "spender",
          "type": "address"
        },
        {
          "internalType": "uint256",
          "name": "amount",
          "type": "uint256"
        }
      ],
      "name": "approve",
      "outputs": [
        {
          "internalType": "bool",
          "name": "",
          "type": "bool"
        }
      ],
      "stateMutability": "nonpayable",
      "type": "function"
    },
    {
      "inputs": [],
      "name": "asset",
      "outputs": [
        {
          "internalType": "address",
          "name": "",
          "type": "address"
        }
      ],
      "stateMutability": "pure",
      "type": "function"
    },
    {
      "inputs": [
        {
          "internalType": "address",
          "name": "account",
          "type": "address"
        }
      ],
      "name": "balanceOf",
      "outputs": [
        {
          "internalType": "uint256",
          "name": "",
          "type": "uint256"
        }
      ],
      "stateMutability": "view",
      "type": "function"
    },
    {
      "inputs": [],
      "name": "claim",
      "outputs": [],
      "stateMutability": "nonpayable",
      "type": "function"
    },
    {
      "inputs": [
        {
          "internalType": "uint256",
          "name": "shares",
          "type": "uint256"
        }
      ],
      "name": "convertToAssets",
      "outputs": [
        {
          "internalType": "uint256",
          "name": "",
          "type": "uint256"
        }
      ],
      "stateMutability": "view",
      "type": "function"
    },
    {
      "inputs": [
        {
          "internalType": "uint256",
          "name": "assets",
          "type": "uint256"
        }
      ],
      "name": "convertToShares",
      "outputs": [
        {
          "internalType": "uint256",
          "name": "",
          "type": "uint256"
        }
      ],
      "stateMutability": "view",
      "type": "function"
    },
    {
      "inputs": [],
      "name": "decimals",
      "outputs": [
        {
          "internalType": "uint8",
          "name": "",
          "type": "uint8"
        }
      ],
      "stateMutability": "pure",
      "type": "function"
    },
    {
      "inputs": [
        {
          "internalType": "uint256",
          "name": "assets",
          "type": "uint256"
        },
        {
          "internalType": "address",
          "name": "receiver",
          "type": "address"
        }
      ],
      "name": "deposit",
      "outputs": [
        {
          "internalType": "uint256",
          "name": "shares",
          "type": "uint256"
        }
      ],
      "stateMutability": "nonpayable",
      "type": "function"
    },
    {
      "inputs": [
        {
          "internalType": "uint256",
          "name": "amount",
          "type": "uint256"
        },
        {
          "internalType": "address",
          "name": "withdrawProxy",
          "type": "address"
        }
      ],
      "name": "drain",
      "outputs": [
        {
          "internalType": "uint256",
          "name": "",
          "type": "uint256"
        }
      ],
      "stateMutability": "nonpayable",
      "type": "function"
    },
    {
      "inputs": [],
      "name": "getExpected",
      "outputs": [
        {
          "internalType": "uint256",
          "name": "",
          "type": "uint256"
        }
      ],
      "stateMutability": "view",
      "type": "function"
    },
    {
      "inputs": [],
      "name": "getFinalAuctionEnd",
      "outputs": [
        {
          "internalType": "uint256",
          "name": "",
          "type": "uint256"
        }
      ],
      "stateMutability": "view",
      "type": "function"
    },
    {
      "inputs": [],
      "name": "getWithdrawRatio",
      "outputs": [
        {
          "internalType": "uint256",
          "name": "",
          "type": "uint256"
        }
      ],
      "stateMutability": "view",
      "type": "function"
    },
    {
      "inputs": [
        {
          "internalType": "uint256",
          "name": "newLienExpectedValue",
          "type": "uint256"
        },
        {
          "internalType": "uint256",
          "name": "finalAuctionDelta",
          "type": "uint256"
        }
      ],
      "name": "handleNewLiquidation",
      "outputs": [],
      "stateMutability": "nonpayable",
      "type": "function"
    },
    {
      "inputs": [
        {
          "internalType": "uint256",
          "name": "amount",
          "type": "uint256"
        }
      ],
      "name": "increaseWithdrawReserveReceived",
      "outputs": [],
      "stateMutability": "nonpayable",
      "type": "function"
    },
    {
      "inputs": [
        {
          "internalType": "address",
          "name": "",
          "type": "address"
        }
      ],
      "name": "maxDeposit",
      "outputs": [
        {
          "internalType": "uint256",
          "name": "",
          "type": "uint256"
        }
      ],
      "stateMutability": "view",
      "type": "function"
    },
    {
      "inputs": [
        {
          "internalType": "address",
          "name": "",
          "type": "address"
        }
      ],
      "name": "maxMint",
      "outputs": [
        {
          "internalType": "uint256",
          "name": "",
          "type": "uint256"
        }
      ],
      "stateMutability": "view",
      "type": "function"
    },
    {
      "inputs": [
        {
          "internalType": "address",
          "name": "owner",
          "type": "address"
        }
      ],
      "name": "maxRedeem",
      "outputs": [
        {
          "internalType": "uint256",
          "name": "",
          "type": "uint256"
        }
      ],
      "stateMutability": "view",
      "type": "function"
    },
    {
      "inputs": [
        {
          "internalType": "address",
          "name": "owner",
          "type": "address"
        }
      ],
      "name": "maxWithdraw",
      "outputs": [
        {
          "internalType": "uint256",
          "name": "",
          "type": "uint256"
        }
      ],
      "stateMutability": "view",
      "type": "function"
    },
    {
      "inputs": [
        {
          "internalType": "uint256",
          "name": "shares",
          "type": "uint256"
        },
        {
          "internalType": "address",
          "name": "receiver",
          "type": "address"
        }
      ],
      "name": "mint",
      "outputs": [
        {
          "internalType": "uint256",
          "name": "assets",
          "type": "uint256"
        }
      ],
      "stateMutability": "nonpayable",
      "type": "function"
    },
    {
      "inputs": [],
      "name": "name",
      "outputs": [
        {
          "internalType": "string",
          "name": "",
          "type": "string"
        }
      ],
      "stateMutability": "view",
      "type": "function"
    },
    {
      "inputs": [],
      "name": "owner",
      "outputs": [
        {
          "internalType": "address",
          "name": "",
          "type": "address"
        }
      ],
      "stateMutability": "pure",
      "type": "function"
    },
    {
      "inputs": [
        {
          "internalType": "address",
          "name": "owner",
          "type": "address"
        },
        {
          "internalType": "address",
          "name": "spender",
          "type": "address"
        },
        {
          "internalType": "uint256",
          "name": "value",
          "type": "uint256"
        },
        {
          "internalType": "uint256",
          "name": "deadline",
          "type": "uint256"
        },
        {
          "internalType": "uint8",
          "name": "v",
          "type": "uint8"
        },
        {
          "internalType": "bytes32",
          "name": "r",
          "type": "bytes32"
        },
        {
          "internalType": "bytes32",
          "name": "s",
          "type": "bytes32"
        }
      ],
      "name": "permit",
      "outputs": [],
      "stateMutability": "nonpayable",
      "type": "function"
    },
    {
      "inputs": [
        {
          "internalType": "uint256",
          "name": "assets",
          "type": "uint256"
        }
      ],
      "name": "previewDeposit",
      "outputs": [
        {
          "internalType": "uint256",
          "name": "",
          "type": "uint256"
        }
      ],
      "stateMutability": "view",
      "type": "function"
    },
    {
      "inputs": [
        {
          "internalType": "uint256",
          "name": "shares",
          "type": "uint256"
        }
      ],
      "name": "previewMint",
      "outputs": [
        {
          "internalType": "uint256",
          "name": "",
          "type": "uint256"
        }
      ],
      "stateMutability": "view",
      "type": "function"
    },
    {
      "inputs": [
        {
          "internalType": "uint256",
          "name": "shares",
          "type": "uint256"
        }
      ],
      "name": "previewRedeem",
      "outputs": [
        {
          "internalType": "uint256",
          "name": "",
          "type": "uint256"
        }
      ],
      "stateMutability": "view",
      "type": "function"
    },
    {
      "inputs": [
        {
          "internalType": "uint256",
          "name": "assets",
          "type": "uint256"
        }
      ],
      "name": "previewWithdraw",
      "outputs": [
        {
          "internalType": "uint256",
          "name": "",
          "type": "uint256"
        }
      ],
      "stateMutability": "view",
      "type": "function"
    },
    {
      "inputs": [
        {
          "internalType": "uint256",
          "name": "shares",
          "type": "uint256"
        },
        {
          "internalType": "address",
          "name": "receiver",
          "type": "address"
        },
        {
          "internalType": "address",
          "name": "owner",
          "type": "address"
        }
      ],
      "name": "redeem",
      "outputs": [
        {
          "internalType": "uint256",
          "name": "assets",
          "type": "uint256"
        }
      ],
      "stateMutability": "nonpayable",
      "type": "function"
    },
    {
      "inputs": [
        {
          "internalType": "uint256",
          "name": "liquidationWithdrawRatio",
          "type": "uint256"
        }
      ],
      "name": "setWithdrawRatio",
      "outputs": [],
      "stateMutability": "nonpayable",
      "type": "function"
    },
    {
      "inputs": [
        {
          "internalType": "bytes4",
          "name": "interfaceId",
          "type": "bytes4"
        }
      ],
      "name": "supportsInterface",
      "outputs": [
        {
          "internalType": "bool",
          "name": "",
          "type": "bool"
        }
      ],
      "stateMutability": "view",
      "type": "function"
    },
    {
      "inputs": [],
      "name": "symbol",
      "outputs": [
        {
          "internalType": "string",
          "name": "",
          "type": "string"
        }
      ],
      "stateMutability": "view",
      "type": "function"
    },
    {
      "inputs": [],
      "name": "totalAssets",
      "outputs": [
        {
          "internalType": "uint256",
          "name": "",
          "type": "uint256"
        }
      ],
      "stateMutability": "view",
      "type": "function"
    },
    {
      "inputs": [],
      "name": "totalSupply",
      "outputs": [
        {
          "internalType": "uint256",
          "name": "",
          "type": "uint256"
        }
      ],
      "stateMutability": "view",
      "type": "function"
    },
    {
      "inputs": [
        {
          "internalType": "address",
          "name": "to",
          "type": "address"
        },
        {
          "internalType": "uint256",
          "name": "amount",
          "type": "uint256"
        }
      ],
      "name": "transfer",
      "outputs": [
        {
          "internalType": "bool",
          "name": "",
          "type": "bool"
        }
      ],
      "stateMutability": "nonpayable",
      "type": "function"
    },
    {
      "inputs": [
        {
          "internalType": "address",
          "name": "from",
          "type": "address"
        },
        {
          "internalType": "address",
          "name": "to",
          "type": "address"
        },
        {
          "internalType": "uint256",
          "name": "amount",
          "type": "uint256"
        }
      ],
      "name": "transferFrom",
      "outputs": [
        {
          "internalType": "bool",
          "name": "",
          "type": "bool"
        }
      ],
      "stateMutability": "nonpayable",
      "type": "function"
    },
    {
      "inputs": [
        {
          "internalType": "uint256",
          "name": "assets",
          "type": "uint256"
        },
        {
          "internalType": "address",
          "name": "receiver",
          "type": "address"
        },
        {
          "internalType": "address",
          "name": "owner",
          "type": "address"
        }
      ],
      "name": "withdraw",
      "outputs": [
        {
          "internalType": "uint256",
          "name": "shares",
          "type": "uint256"
        }
      ],
      "stateMutability": "nonpayable",
      "type": "function"
    }
  ],
  "bytecode": {
    "object": "0x608060405234801561001057600080fd5b5061207a806100206000396000f3fe608060405234801561001057600080fd5b50600436106102535760003560e01c80636e553f6511610146578063b460af94116100c3578063c6e6f59211610087578063c6e6f5921461052f578063ce96cb7714610542578063d505accf14610555578063d905777e146103fb578063dd62ed3e14610568578063ef8b30f7146105ae57600080fd5b8063b460af94146104dc578063b701e727146104ef578063ba08765214610514578063c237c70314610527578063c63d75b61461039d57600080fd5b806395d89b411161010a57806395d89b411461046d578063989673b114610475578063a557372014610498578063a9059cbb146104b6578063b3d7f6b9146104c957600080fd5b80636e553f65146103e857806370a08231146103fb5780638da5cb5b1461043157806394bf804d14610439578063951b46af1461044c57600080fd5b806323b872dd116101d4578063402d267d11610198578063402d267d1461039d578063411557d1146103b25780634cdad506146103ba5780634e71d92d146103cd57806359a13ae5146103d557600080fd5b806323b872dd14610345578063313ce5671461035857806332fe7b261461036d5780633644e5151461038d57806338d52e0f1461039557600080fd5b8063095ea7b31161021b578063095ea7b3146102e45780630a28a477146102f75780630aeba34e1461030a57806318160ddd1461031d5780631ccf45bc1461033257600080fd5b806301e1d1141461025857806301ffc9a714610273578063042ef56e146102a757806306fdde03146102bc57806307a2d13a146102d1575b600080fd5b6102606105c1565b6040519081526020015b60405180910390f35b610297610281366004611a36565b6001600160e01b03191663d6b189c760e01b1490565b604051901515815260200161026a565b6102ba6102b5366004611a60565b61063a565b005b6102c461069c565b60405161026a9190611a9d565b6102606102df366004611a60565b61072f565b6102976102f2366004611aec565b610771565b610260610305366004611a60565b6107f9565b610260610318366004611b16565b61083e565b60008051602061200583398151915254610260565b6102ba610340366004611a60565b61090c565b610297610353366004611b42565b6109bb565b60125b60405160ff909116815260200161026a565b610375610abf565b6040516001600160a01b03909116815260200161026a565b610260610acb565b610375610b4f565b6102606103ab366004611b7e565b5060001990565b610375610b59565b6102606103c8366004611a60565b610b65565b6102ba610b70565b6102ba6103e3366004611b99565b610f81565b6102606103f6366004611b16565b611020565b610260610409366004611b7e565b6001600160a01b03166000908152600080516020611fc5833981519152602052604090205490565b61037561103b565b610260610447366004611b16565b611047565b6104546110b8565b60405167ffffffffffffffff909116815260200161026a565b6102c46110c4565b60008051602061202583398151915254600160b01b900464ffffffffff16610260565b600080516020612025833981519152546001600160581b0316610260565b6102976104c4366004611aec565b61114c565b6102606104d7366004611a60565b6111d0565b6102606104ea366004611bbb565b611204565b60008051602061202583398151915254600160581b90046001600160581b0316610260565b610260610522366004611bbb565b61125c565b61035b6112ab565b61026061053d366004611a60565b6112b7565b610260610550366004611b7e565b6112ec565b6102ba610563366004611c09565b61132b565b610260610576366004611c76565b6001600160a01b039182166000908152600080516020611fa58339815191526020908152604080832093909416825291909152205490565b6102606105bc366004611a60565b61159e565b60006105cb610b4f565b6040516370a0823160e01b81523060048201526001600160a01b0391909116906370a0823190602401602060405180830381865afa158015610611573d6000803e3d6000fd5b505050506040513d601f19601f820116820180604052508101906106359190611ca0565b905090565b610642610b59565b6001600160a01b0316336001600160a01b03161461065f57600080fd5b610668816115a9565b60008051602061202583398151915280546affffffffffffffffffffff19166001600160581b039290921691909117905550565b60606106a6610b4f565b6001600160a01b03166395d89b416040518163ffffffff1660e01b8152600401600060405180830381865afa1580156106e3573d6000803e3d6000fd5b505050506040513d6000823e601f3d908101601f1916820160405261070b9190810190611ccf565b60405160200161071b9190611d7c565b604051602081830303815290604052905090565b6000806107486000805160206120058339815191525490565b905080156107685761076361075b6105c1565b8490836115bf565b61076a565b825b9392505050565b336000818152600080516020611fa5833981519152602090815260408083206001600160a01b0387168085529083528184208690559051858152929360008051602061200583398151915293919290917f8c5be1e5ebec7d5bd14f71427d1e84f3dd0314c0f7b2291e5b200ac8c7c3b92591015b60405180910390a360019150505b92915050565b6000806108126000805160206120058339815191525490565b9050801561082e57610763816108266105c1565b8591906115dd565b678ac7230489e800009392505050565b6000610848610b59565b6001600160a01b0316336001600160a01b03161461086557600080fd5b600061086f610b4f565b6040516370a0823160e01b81523060048201526001600160a01b0391909116906370a0823190602401602060405180830381865afa1580156108b5573d6000803e3d6000fd5b505050506040513d601f19601f820116820180604052508101906108d99190611ca0565b9050808411156108e7578093505b61090483856108f4610b4f565b6001600160a01b03169190611603565b509192915050565b610914610b59565b6001600160a01b0316336001600160a01b03161461096f5760405162461bcd60e51b81526020600482015260136024820152721bdb9b1e481d985d5b1d0818d85b8818d85b1b606a1b60448201526064015b60405180910390fd5b7f9d9972a5048ce9bc4a301fa478468497c41609cb7f4770f91626fcf59211393580546000805160206120258339815191529183916000906109b2908490611dcc565b90915550505050565b6001600160a01b0383166000908152600080516020611fa583398151915260209081526040808320338452909152812054600080516020612005833981519152906000198114610a3657610a0f8482611ddf565b6001600160a01b038716600090815260028401602090815260408083203384529091529020555b6001600160a01b038616600090815260018301602052604081208054869290610a60908490611ddf565b90915550506001600160a01b03808616600081815260018501602052604090819020805488019055519091881690600080516020611fe583398151915290610aab9088815260200190565b60405180910390a350600195945050505050565b60006106356000611681565b6000610635604080517f2aef22f9d7df5f9d21c56d14029233f3fdaa91917727e1eb68e504d27072d6cd60208201527fc89efdaa54c0f20c7adf612882df0950f5a951637e0307cdcb4c672f298b8bc69181019190915246606082015230608082015260009060a00160405160208183030381529060405280519060200120905090565b60006106356116a6565b6000610635603d611681565b60006107f38261072f565b6000805160206120258339815191528054600160b01b900464ffffffffff16600003610bb257600360405163683f44bb60e11b81526004016109669190611df2565b610bba6110b8565b67ffffffffffffffff16610bcc610b59565b6001600160a01b031663b97dd9e26040518163ffffffff1660e01b8152600401602060405180830381865afa158015610c09573d6000803e3d6000fd5b505050506040513d601f19601f82011682018060405250810190610c2d9190611e1a565b67ffffffffffffffff161015610c5957600060405163683f44bb60e11b81526004016109669190611df2565b8054600160b01b900464ffffffffff16421015610c8c57600160405163683f44bb60e11b81526004016109669190611df2565b6000808260010154610c9c610b4f565b6040516370a0823160e01b81523060048201526001600160a01b0391909116906370a0823190602401602060405180830381865afa158015610ce2573d6000803e3d6000fd5b505050506040513d601f19601f82011682018060405250810190610d069190611ca0565b610d109190611ddf565b8354909150600160581b90046001600160581b0316811015610e4857610d34610b59565b83546001600160a01b0391909116906365612e6890610df7906001600160581b0316610d5e610b4f565b6001600160a01b031663313ce5676040518163ffffffff1660e01b8152600401602060405180830381865afa158015610d9b573d6000803e3d6000fd5b505050506040513d601f19601f82011682018060405250810190610dbf9190611e44565b610dca90600a611f45565b610dd49190611ddf565b8654610df1908690600160581b90046001600160581b0316611ddf565b906116b2565b6040518263ffffffff1660e01b8152600401610e1591815260200190565b600060405180830381600087803b158015610e2f57600080fd5b505af1158015610e43573d6000803e3d6000fd5b505050505b82546001600160581b0316610e7057610e6b610e62610b59565b826108f4610b4f565b610f11565b610efa81610e7c610b4f565b6001600160a01b031663313ce5676040518163ffffffff1660e01b8152600401602060405180830381865afa158015610eb9573d6000803e3d6000fd5b505050506040513d601f19601f82011682018060405250810190610edd9190611e44565b610ee890600a611f45565b85546001600160581b031691906115bf565b9150818103908214610f1157610f11610e62610b59565b825464ffffffffff60b01b191683557f8dab6d35466ca3cba614bc5b262979b277949786977e81107f375f7e39f7734a3083610f4b610b59565b604080516001600160a01b03948516815260208101939093529216818301526060810184905290519081900360800190a1505050565b610f89610b59565b6001600160a01b0316336001600160a01b031614610fa657600080fd5b600080516020612025833981519152610fbe836115a9565b81546001600160581b03600160581b8083048216909301169091026affffffffffffffffffffff60581b19909116178155610ffa4283016116c7565b815464ffffffffff91909116600160b01b0264ffffffffff60b01b199091161790555050565b6000604051630280e1e560e61b815260040160405180910390fd5b60006106356015611681565b600061105161103b565b6001600160a01b0316336001600160a01b0316146110a75760405162461bcd60e51b81526020600482015260136024820152721bdb9b1e481bdddb995c8818d85b881b5a5b9d606a1b6044820152606401610966565b6110b182846116db565b5090919050565b60006106356051611749565b60606110ce61103b565b6110d6610b4f565b6001600160a01b03166395d89b416040518163ffffffff1660e01b8152600401600060405180830381865afa158015611113573d6000803e3d6000fd5b505050506040513d6000823e601f3d908101601f1916820160405261113b9190810190611ccf565b60405160200161071b929190611f54565b336000908152600080516020611fc58339815191526020526040812080546000805160206120058339815191529184918490611189908490611ddf565b90915550506001600160a01b038416600081815260018301602052604090819020805486019055513390600080516020611fe5833981519152906107e59087815260200190565b6000806111e96000805160206120058339815191525490565b9050801561082e576107636111fc6105c1565b8490836115dd565b600080516020612025833981519152805460009190600160b01b900464ffffffffff161561124857600260405163683f44bb60e11b81526004016109669190611df2565b61125385858561176e565b95945050505050565b600080516020612025833981519152805460009190600160b01b900464ffffffffff16156112a057600260405163683f44bb60e11b81526004016109669190611df2565b611253858585611866565b60006106356014611994565b6000806112d06000805160206120058339815191525490565b9050801561076857610763816112e46105c1565b8591906115bf565b6001600160a01b0381166000908152600080516020611fc583398151915260205260408120546000805160206120058339815191529061076a9061072f565b4284101561137b5760405162461bcd60e51b815260206004820152601760248201527f5045524d49545f444541444c494e455f455850495245440000000000000000006044820152606401610966565b60006001611387610acb565b6001600160a01b03808b1660008181527f6c9d8be213da072972500acecface6c6d1d5ffbaace52819bc37703107293595602090815260409182902080546001810190915582517f6e71edae12b1b97f4d1f60370fef10105fa2faae0126114a169c64845d6126c98184015280840194909452938d166060840152608083018c905260a083019390935260c08083018b90528151808403909101815260e08301909152805192019190912061190160f01b6101008301526101028201929092526101228101919091526101420160408051601f198184030181528282528051602091820120600084529083018083525260ff871690820152606081018590526080810184905260a0016020604051602081039080840390855afa1580156114b2573d6000803e3d6000fd5b5050604051601f1901519150506001600160a01b038116158015906114e85750876001600160a01b0316816001600160a01b0316145b6115255760405162461bcd60e51b815260206004820152600e60248201526d24a72b20a624a22fa9a4a3a722a960911b6044820152606401610966565b6001600160a01b039081166000908152600080516020611fa5833981519152602090815260408083208a8516808552908352928190208990558051898152905192938b16927f8c5be1e5ebec7d5bd14f71427d1e84f3dd0314c0f7b2291e5b200ac8c7c3b925929181900390910190a350505050505050565b60006107f3826112b7565b6000600160581b82106115bb57600080fd5b5090565b60008260001904841183021582026115d657600080fd5b5091020490565b60008260001904841183021582026115f457600080fd5b50910281810615159190040190565b600060405163a9059cbb60e01b8152836004820152826024820152602060006044836000895af13d15601f3d116001600051141617169150508061167b5760405162461bcd60e51b815260206004820152600f60248201526e1514905394d1915497d19052531151608a1b6044820152606401610966565b50505050565b600080611698600119368181013560f01c90030190565b929092013560601c92915050565b60006106356029611681565b600061076a8383670de0b6b3a76400006115bf565b60006501000000000082106115bb57600080fd5b6000805160206120058339815191528054829082906000906116fe908490611dcc565b90915550506001600160a01b0383166000818152600183016020908152604080832080548701905551858152600080516020611fe583398151915291015b60405180910390a3505050565b600080611760600119368181013560f01c90030190565b929092013560c01c92915050565b6000611779846107f9565b90506000805160206120058339815191526001600160a01b03831633146117fc576001600160a01b0383166000908152600282016020908152604080832033845290915290205460001981146117fa576117d38382611ddf565b6001600160a01b038516600090815260028401602090815260408083203384529091529020555b505b61180683836119b9565b60408051868152602081018490526001600160a01b03808616929087169133917ffbde797d201c681b91056529119e0b02407c7bb96a4a2c75c01fc9667232c8db910160405180910390a461185e84866108f4610b4f565b509392505050565b60006000805160206120058339815191526001600160a01b03831633146118e9576001600160a01b0383166000908152600282016020908152604080832033845290915290205460001981146118e7576118c08682611ddf565b6001600160a01b038516600090815260028401602090815260408083203384529091529020555b505b6118f285610b65565b9150816000036119325760405162461bcd60e51b815260206004820152600b60248201526a5a45524f5f41535345545360a81b6044820152606401610966565b61193c83866119b9565b60408051838152602081018790526001600160a01b03808616929087169133917ffbde797d201c681b91056529119e0b02407c7bb96a4a2c75c01fc9667232c8db910160405180910390a461185e84836108f4610b4f565b6000806119ab600119368181013560f01c90030190565b929092013560f81c92915050565b6001600160a01b0382166000908152600080516020611fc5833981519152602052604081208054600080516020612005833981519152928492916119fe908490611ddf565b9091555050805482900381556040518281526000906001600160a01b03851690600080516020611fe58339815191529060200161173c565b600060208284031215611a4857600080fd5b81356001600160e01b03198116811461076a57600080fd5b600060208284031215611a7257600080fd5b5035919050565b60005b83811015611a94578181015183820152602001611a7c565b50506000910152565b6020815260008251806020840152611abc816040850160208701611a79565b601f01601f19169190910160400192915050565b80356001600160a01b0381168114611ae757600080fd5b919050565b60008060408385031215611aff57600080fd5b611b0883611ad0565b946020939093013593505050565b60008060408385031215611b2957600080fd5b82359150611b3960208401611ad0565b90509250929050565b600080600060608486031215611b5757600080fd5b611b6084611ad0565b9250611b6e60208501611ad0565b9150604084013590509250925092565b600060208284031215611b9057600080fd5b61076a82611ad0565b60008060408385031215611bac57600080fd5b50508035926020909101359150565b600080600060608486031215611bd057600080fd5b83359250611be060208501611ad0565b9150611bee60408501611ad0565b90509250925092565b60ff81168114611c0657600080fd5b50565b600080600080600080600060e0888a031215611c2457600080fd5b611c2d88611ad0565b9650611c3b60208901611ad0565b955060408801359450606088013593506080880135611c5981611bf7565b9699959850939692959460a0840135945060c09093013592915050565b60008060408385031215611c8957600080fd5b611c9283611ad0565b9150611b3960208401611ad0565b600060208284031215611cb257600080fd5b5051919050565b634e487b7160e01b600052604160045260246000fd5b600060208284031215611ce157600080fd5b815167ffffffffffffffff80821115611cf957600080fd5b818401915084601f830112611d0d57600080fd5b815181811115611d1f57611d1f611cb9565b604051601f8201601f19908116603f01168101908382118183101715611d4757611d47611cb9565b81604052828152876020848701011115611d6057600080fd5b611d71836020830160208801611a79565b979650505050505050565b714153542d57697468647261775661756c742d60701b815260008251611da9816012850160208701611a79565b9190910160120192915050565b634e487b7160e01b600052601160045260246000fd5b808201808211156107f3576107f3611db6565b818103818111156107f3576107f3611db6565b6020810160048310611e1457634e487b7160e01b600052602160045260246000fd5b91905290565b600060208284031215611e2c57600080fd5b815167ffffffffffffffff8116811461076a57600080fd5b600060208284031215611e5657600080fd5b815161076a81611bf7565b600181815b80851115611e9c578160001904821115611e8257611e82611db6565b80851615611e8f57918102915b93841c9390800290611e66565b509250929050565b600082611eb3575060016107f3565b81611ec0575060006107f3565b8160018114611ed65760028114611ee057611efc565b60019150506107f3565b60ff841115611ef157611ef1611db6565b50506001821b6107f3565b5060208310610133831016604e8410600b8410161715611f1f575081810a6107f3565b611f298383611e61565b8060001904821115611f3d57611f3d611db6565b029392505050565b600061076a60ff841683611ea4565b644153542d5760d81b81526bffffffffffffffffffffffff198360601b166005820152602d60f81b601982015260008251611f9681601a850160208701611a79565b91909101601a01939250505056fe6c9d8be213da072972500acecface6c6d1d5ffbaace52819bc377031072935946c9d8be213da072972500acecface6c6d1d5ffbaace52819bc37703107293593ddf252ad1be2c89b69c2b068fc378daa952ba7f163c4a11628f55a4df523b3ef6c9d8be213da072972500acecface6c6d1d5ffbaace52819bc377031072935929d9972a5048ce9bc4a301fa478468497c41609cb7f4770f91626fcf592113934a26469706673582212207bc7236bf63c6bf47cf64396bd1583124a19c2abdeb838ac18e491e27bece4c364736f6c63430008110033",
    "linkReferences": {}
  },
  "methodIdentifiers": {
    "CLAIMABLE_EPOCH()": "951b46af",
    "DOMAIN_SEPARATOR()": "3644e515",
    "IMPL_TYPE()": "c237c703",
    "ROUTER()": "32fe7b26",
    "VAULT()": "411557d1",
    "allowance(address,address)": "dd62ed3e",
    "approve(address,uint256)": "095ea7b3",
    "asset()": "38d52e0f",
    "balanceOf(address)": "70a08231",
    "claim()": "4e71d92d",
    "convertToAssets(uint256)": "07a2d13a",
    "convertToShares(uint256)": "c6e6f592",
    "decimals()": "313ce567",
    "deposit(uint256,address)": "6e553f65",
    "drain(uint256,address)": "0aeba34e",
    "getExpected()": "b701e727",
    "getFinalAuctionEnd()": "989673b1",
    "getWithdrawRatio()": "a5573720",
    "handleNewLiquidation(uint256,uint256)": "59a13ae5",
    "increaseWithdrawReserveReceived(uint256)": "1ccf45bc",
    "maxDeposit(address)": "402d267d",
    "maxMint(address)": "c63d75b6",
    "maxRedeem(address)": "d905777e",
    "maxWithdraw(address)": "ce96cb77",
    "mint(uint256,address)": "94bf804d",
    "name()": "06fdde03",
    "owner()": "8da5cb5b",
    "permit(address,address,uint256,uint256,uint8,bytes32,bytes32)": "d505accf",
    "previewDeposit(uint256)": "ef8b30f7",
    "previewMint(uint256)": "b3d7f6b9",
    "previewRedeem(uint256)": "4cdad506",
    "previewWithdraw(uint256)": "0a28a477",
    "redeem(uint256,address,address)": "ba087652",
    "setWithdrawRatio(uint256)": "042ef56e",
    "supportsInterface(bytes4)": "01ffc9a7",
    "symbol()": "95d89b41",
    "totalAssets()": "01e1d114",
    "totalSupply()": "18160ddd",
    "transfer(address,uint256)": "a9059cbb",
    "transferFrom(address,address,uint256)": "23b872dd",
    "withdraw(uint256,address,address)": "b460af94"
  },
  "id": 138
}