{
  "abi": [
    {
      "inputs": [
        {
          "internalType": "enum WithdrawProxy.InvalidStates",
          "name": "",
          "type": "uint8"
        }
      ],
      "name": "InvalidState",
      "type": "error"
    },
    {
      "inputs": [],
      "name": "NotSupported",
      "type": "error"
    },
    {
      "anonymous": false,
      "inputs": [
        {
          "indexed": true,
          "internalType": "address",
          "name": "owner",
          "type": "address"
        },
        {
          "indexed": true,
          "internalType": "address",
          "name": "spender",
          "type": "address"
        },
        {
          "indexed": false,
          "internalType": "uint256",
          "name": "value",
          "type": "uint256"
        }
      ],
      "name": "Approval",
      "type": "event"
    },
    {
      "anonymous": false,
      "inputs": [
        {
          "indexed": false,
          "internalType": "address",
          "name": "withdrawProxy",
          "type": "address"
        },
        {
          "indexed": false,
          "internalType": "uint256",
          "name": "withdrawProxyAmount",
          "type": "uint256"
        },
        {
          "indexed": false,
          "internalType": "address",
          "name": "publicVault",
          "type": "address"
        },
        {
          "indexed": false,
          "internalType": "uint256",
          "name": "publicVaultAmount",
          "type": "uint256"
        }
      ],
      "name": "Claimed",
      "type": "event"
    },
    {
      "anonymous": false,
      "inputs": [
        {
          "indexed": true,
          "internalType": "address",
          "name": "sender",
          "type": "address"
        },
        {
          "indexed": true,
          "internalType": "address",
          "name": "owner",
          "type": "address"
        },
        {
          "indexed": false,
          "internalType": "uint256",
          "name": "assets",
          "type": "uint256"
        },
        {
          "indexed": false,
          "internalType": "uint256",
          "name": "shares",
          "type": "uint256"
        }
      ],
      "name": "Deposit",
      "type": "event"
    },
    {
      "anonymous": false,
      "inputs": [
        {
          "indexed": true,
          "internalType": "address",
          "name": "from",
          "type": "address"
        },
        {
          "indexed": true,
          "internalType": "address",
          "name": "to",
          "type": "address"
        },
        {
          "indexed": false,
          "internalType": "uint256",
          "name": "value",
          "type": "uint256"
        }
      ],
      "name": "Transfer",
      "type": "event"
    },
    {
      "anonymous": false,
      "inputs": [
        {
          "indexed": true,
          "internalType": "address",
          "name": "sender",
          "type": "address"
        },
        {
          "indexed": true,
          "internalType": "address",
          "name": "receiver",
          "type": "address"
        },
        {
          "indexed": true,
          "internalType": "address",
          "name": "owner",
          "type": "address"
        },
        {
          "indexed": false,
          "internalType": "uint256",
          "name": "assets",
          "type": "uint256"
        },
        {
          "indexed": false,
          "internalType": "uint256",
          "name": "shares",
          "type": "uint256"
        }
      ],
      "name": "Withdraw",
      "type": "event"
    },
    {
      "inputs": [],
      "name": "CLAIMABLE_EPOCH",
      "outputs": [
        {
          "internalType": "uint64",
          "name": "",
          "type": "uint64"
        }
      ],
      "stateMutability": "pure",
      "type": "function"
    },
    {
      "inputs": [],
      "name": "DOMAIN_SEPARATOR",
      "outputs": [
        {
          "internalType": "bytes32",
          "name": "",
          "type": "bytes32"
        }
      ],
      "stateMutability": "view",
      "type": "function"
    },
    {
      "inputs": [],
      "name": "IMPL_TYPE",
      "outputs": [
        {
          "internalType": "uint8",
          "name": "",
          "type": "uint8"
        }
      ],
      "stateMutability": "pure",
      "type": "function"
    },
    {
      "inputs": [],
      "name": "ROUTER",
      "outputs": [
        {
          "internalType": "contract IAstariaRouter",
          "name": "",
          "type": "address"
        }
      ],
      "stateMutability": "pure",
      "type": "function"
    },
    {
      "inputs": [],
      "name": "VAULT",
      "outputs": [
        {
          "internalType": "address",
          "name": "",
          "type": "address"
        }
      ],
      "stateMutability": "pure",
      "type": "function"
    },
    {
      "inputs": [
        {
          "internalType": "address",
          "name": "owner",
          "type": "address"
        },
        {
          "internalType": "address",
          "name": "spender",
          "type": "address"
        }
      ],
      "name": "allowance",
      "outputs": [
        {
          "internalType": "uint256",
          "name": "",
          "type": "uint256"
        }
      ],
      "stateMutability": "view",
      "type": "function"
    },
    {
      "inputs": [
        {
          "internalType": "address",
          "name": "spender",
          "type": "address"
        },
        {
          "internalType": "uint256",
          "name": "amount",
          "type": "uint256"
        }
      ],
      "name": "approve",
      "outputs": [
        {
          "internalType": "bool",
          "name": "",
          "type": "bool"
        }
      ],
      "stateMutability": "nonpayable",
      "type": "function"
    },
    {
      "inputs": [],
      "name": "asset",
      "outputs": [
        {
          "internalType": "address",
          "name": "",
          "type": "address"
        }
      ],
      "stateMutability": "pure",
      "type": "function"
    },
    {
      "inputs": [
        {
          "internalType": "address",
          "name": "account",
          "type": "address"
        }
      ],
      "name": "balanceOf",
      "outputs": [
        {
          "internalType": "uint256",
          "name": "",
          "type": "uint256"
        }
      ],
      "stateMutability": "view",
      "type": "function"
    },
    {
      "inputs": [],
      "name": "claim",
      "outputs": [],
      "stateMutability": "nonpayable",
      "type": "function"
    },
    {
      "inputs": [
        {
          "internalType": "uint256",
          "name": "shares",
          "type": "uint256"
        }
      ],
      "name": "convertToAssets",
      "outputs": [
        {
          "internalType": "uint256",
          "name": "",
          "type": "uint256"
        }
      ],
      "stateMutability": "view",
      "type": "function"
    },
    {
      "inputs": [
        {
          "internalType": "uint256",
          "name": "assets",
          "type": "uint256"
        }
      ],
      "name": "convertToShares",
      "outputs": [
        {
          "internalType": "uint256",
          "name": "",
          "type": "uint256"
        }
      ],
      "stateMutability": "view",
      "type": "function"
    },
    {
      "inputs": [],
      "name": "decimals",
      "outputs": [
        {
          "internalType": "uint8",
          "name": "",
          "type": "uint8"
        }
      ],
      "stateMutability": "pure",
      "type": "function"
    },
    {
      "inputs": [
        {
          "internalType": "uint256",
          "name": "assets",
          "type": "uint256"
        },
        {
          "internalType": "address",
          "name": "receiver",
          "type": "address"
        }
      ],
      "name": "deposit",
      "outputs": [
        {
          "internalType": "uint256",
          "name": "shares",
          "type": "uint256"
        }
      ],
      "stateMutability": "nonpayable",
      "type": "function"
    },
    {
      "inputs": [
        {
          "internalType": "uint256",
          "name": "amount",
          "type": "uint256"
        },
        {
          "internalType": "address",
          "name": "withdrawProxy",
          "type": "address"
        }
      ],
      "name": "drain",
      "outputs": [
        {
          "internalType": "uint256",
          "name": "",
          "type": "uint256"
        }
      ],
      "stateMutability": "nonpayable",
      "type": "function"
    },
    {
      "inputs": [],
      "name": "getExpected",
      "outputs": [
        {
          "internalType": "uint256",
          "name": "",
          "type": "uint256"
        }
      ],
      "stateMutability": "view",
      "type": "function"
    },
    {
      "inputs": [],
      "name": "getFinalAuctionEnd",
      "outputs": [
        {
          "internalType": "uint256",
          "name": "",
          "type": "uint256"
        }
      ],
      "stateMutability": "view",
      "type": "function"
    },
    {
      "inputs": [],
      "name": "getWithdrawRatio",
      "outputs": [
        {
          "internalType": "uint256",
          "name": "",
          "type": "uint256"
        }
      ],
      "stateMutability": "view",
      "type": "function"
    },
    {
      "inputs": [
        {
          "internalType": "uint256",
          "name": "newLienExpectedValue",
          "type": "uint256"
        },
        {
          "internalType": "uint256",
          "name": "finalAuctionDelta",
          "type": "uint256"
        }
      ],
      "name": "handleNewLiquidation",
      "outputs": [],
      "stateMutability": "nonpayable",
      "type": "function"
    },
    {
      "inputs": [
        {
          "internalType": "uint256",
          "name": "amount",
          "type": "uint256"
        }
      ],
      "name": "increaseWithdrawReserveReceived",
      "outputs": [],
      "stateMutability": "nonpayable",
      "type": "function"
    },
    {
      "inputs": [
        {
          "internalType": "address",
          "name": "",
          "type": "address"
        }
      ],
      "name": "maxDeposit",
      "outputs": [
        {
          "internalType": "uint256",
          "name": "",
          "type": "uint256"
        }
      ],
      "stateMutability": "view",
      "type": "function"
    },
    {
      "inputs": [
        {
          "internalType": "address",
          "name": "",
          "type": "address"
        }
      ],
      "name": "maxMint",
      "outputs": [
        {
          "internalType": "uint256",
          "name": "",
          "type": "uint256"
        }
      ],
      "stateMutability": "view",
      "type": "function"
    },
    {
      "inputs": [
        {
          "internalType": "address",
          "name": "owner",
          "type": "address"
        }
      ],
      "name": "maxRedeem",
      "outputs": [
        {
          "internalType": "uint256",
          "name": "",
          "type": "uint256"
        }
      ],
      "stateMutability": "view",
      "type": "function"
    },
    {
      "inputs": [
        {
          "internalType": "address",
          "name": "owner",
          "type": "address"
        }
      ],
      "name": "maxWithdraw",
      "outputs": [
        {
          "internalType": "uint256",
          "name": "",
          "type": "uint256"
        }
      ],
      "stateMutability": "view",
      "type": "function"
    },
    {
      "inputs": [],
      "name": "minDepositAmount",
      "outputs": [
        {
          "internalType": "uint256",
          "name": "",
          "type": "uint256"
        }
      ],
      "stateMutability": "view",
      "type": "function"
    },
    {
      "inputs": [
        {
          "internalType": "uint256",
          "name": "shares",
          "type": "uint256"
        },
        {
          "internalType": "address",
          "name": "receiver",
          "type": "address"
        }
      ],
      "name": "mint",
      "outputs": [
        {
          "internalType": "uint256",
          "name": "assets",
          "type": "uint256"
        }
      ],
      "stateMutability": "nonpayable",
      "type": "function"
    },
    {
      "inputs": [],
      "name": "name",
      "outputs": [
        {
          "internalType": "string",
          "name": "",
          "type": "string"
        }
      ],
      "stateMutability": "view",
      "type": "function"
    },
    {
      "inputs": [
        {
          "internalType": "address",
          "name": "owner",
          "type": "address"
        },
        {
          "internalType": "address",
          "name": "spender",
          "type": "address"
        },
        {
          "internalType": "uint256",
          "name": "value",
          "type": "uint256"
        },
        {
          "internalType": "uint256",
          "name": "deadline",
          "type": "uint256"
        },
        {
          "internalType": "uint8",
          "name": "v",
          "type": "uint8"
        },
        {
          "internalType": "bytes32",
          "name": "r",
          "type": "bytes32"
        },
        {
          "internalType": "bytes32",
          "name": "s",
          "type": "bytes32"
        }
      ],
      "name": "permit",
      "outputs": [],
      "stateMutability": "nonpayable",
      "type": "function"
    },
    {
      "inputs": [
        {
          "internalType": "uint256",
          "name": "assets",
          "type": "uint256"
        }
      ],
      "name": "previewDeposit",
      "outputs": [
        {
          "internalType": "uint256",
          "name": "",
          "type": "uint256"
        }
      ],
      "stateMutability": "view",
      "type": "function"
    },
    {
      "inputs": [
        {
          "internalType": "uint256",
          "name": "shares",
          "type": "uint256"
        }
      ],
      "name": "previewMint",
      "outputs": [
        {
          "internalType": "uint256",
          "name": "",
          "type": "uint256"
        }
      ],
      "stateMutability": "view",
      "type": "function"
    },
    {
      "inputs": [
        {
          "internalType": "uint256",
          "name": "shares",
          "type": "uint256"
        }
      ],
      "name": "previewRedeem",
      "outputs": [
        {
          "internalType": "uint256",
          "name": "",
          "type": "uint256"
        }
      ],
      "stateMutability": "view",
      "type": "function"
    },
    {
      "inputs": [
        {
          "internalType": "uint256",
          "name": "assets",
          "type": "uint256"
        }
      ],
      "name": "previewWithdraw",
      "outputs": [
        {
          "internalType": "uint256",
          "name": "",
          "type": "uint256"
        }
      ],
      "stateMutability": "view",
      "type": "function"
    },
    {
      "inputs": [
        {
          "internalType": "uint256",
          "name": "shares",
          "type": "uint256"
        },
        {
          "internalType": "address",
          "name": "receiver",
          "type": "address"
        },
        {
          "internalType": "address",
          "name": "owner",
          "type": "address"
        }
      ],
      "name": "redeem",
      "outputs": [
        {
          "internalType": "uint256",
          "name": "assets",
          "type": "uint256"
        }
      ],
      "stateMutability": "nonpayable",
      "type": "function"
    },
    {
      "inputs": [
        {
          "internalType": "uint256",
          "name": "liquidationWithdrawRatio",
          "type": "uint256"
        }
      ],
      "name": "setWithdrawRatio",
      "outputs": [],
      "stateMutability": "nonpayable",
      "type": "function"
    },
    {
      "inputs": [
        {
          "internalType": "bytes4",
          "name": "interfaceId",
          "type": "bytes4"
        }
      ],
      "name": "supportsInterface",
      "outputs": [
        {
          "internalType": "bool",
          "name": "",
          "type": "bool"
        }
      ],
      "stateMutability": "view",
      "type": "function"
    },
    {
      "inputs": [],
      "name": "symbol",
      "outputs": [
        {
          "internalType": "string",
          "name": "",
          "type": "string"
        }
      ],
      "stateMutability": "view",
      "type": "function"
    },
    {
      "inputs": [],
      "name": "totalAssets",
      "outputs": [
        {
          "internalType": "uint256",
          "name": "",
          "type": "uint256"
        }
      ],
      "stateMutability": "view",
      "type": "function"
    },
    {
      "inputs": [],
      "name": "totalSupply",
      "outputs": [
        {
          "internalType": "uint256",
          "name": "",
          "type": "uint256"
        }
      ],
      "stateMutability": "view",
      "type": "function"
    },
    {
      "inputs": [
        {
          "internalType": "address",
          "name": "to",
          "type": "address"
        },
        {
          "internalType": "uint256",
          "name": "amount",
          "type": "uint256"
        }
      ],
      "name": "transfer",
      "outputs": [
        {
          "internalType": "bool",
          "name": "",
          "type": "bool"
        }
      ],
      "stateMutability": "nonpayable",
      "type": "function"
    },
    {
      "inputs": [
        {
          "internalType": "address",
          "name": "from",
          "type": "address"
        },
        {
          "internalType": "address",
          "name": "to",
          "type": "address"
        },
        {
          "internalType": "uint256",
          "name": "amount",
          "type": "uint256"
        }
      ],
      "name": "transferFrom",
      "outputs": [
        {
          "internalType": "bool",
          "name": "",
          "type": "bool"
        }
      ],
      "stateMutability": "nonpayable",
      "type": "function"
    },
    {
      "inputs": [
        {
          "internalType": "uint256",
          "name": "assets",
          "type": "uint256"
        },
        {
          "internalType": "address",
          "name": "receiver",
          "type": "address"
        },
        {
          "internalType": "address",
          "name": "owner",
          "type": "address"
        }
      ],
      "name": "withdraw",
      "outputs": [
        {
          "internalType": "uint256",
          "name": "shares",
          "type": "uint256"
        }
      ],
      "stateMutability": "nonpayable",
      "type": "function"
    }
  ],
  "bytecode": {
    "object": "0x608060405234801561001057600080fd5b506120a8806100206000396000f3fe608060405234801561001057600080fd5b50600436106102535760003560e01c8063645006ca11610146578063b460af94116100c3578063c6e6f59211610087578063c6e6f592146104b0578063ce96cb77146104c3578063d505accf146104d6578063d905777e146104e9578063dd62ed3e146104fc578063ef8b30f71461050f57600080fd5b8063b460af941461047a578063b701e7271461048d578063ba08765214610495578063c237c703146104a8578063c63d75b61461039057600080fd5b806395d89b411161010a57806395d89b411461043c578063989673b114610444578063a55737201461044c578063a9059cbb14610454578063b3d7f6b91461046757600080fd5b8063645006ca146103db5780636e553f65146103e257806370a08231146103f557806394bf804d14610408578063951b46af1461041b57600080fd5b806323b872dd116101d4578063402d267d11610198578063402d267d14610390578063411557d1146103a55780634cdad506146103ad5780634e71d92d146103c057806359a13ae5146103c857600080fd5b806323b872dd14610338578063313ce5671461034b57806332fe7b26146103605780633644e5151461038057806338d52e0f1461038857600080fd5b8063095ea7b31161021b578063095ea7b3146102e45780630a28a477146102f75780630aeba34e1461030a57806318160ddd1461031d5780631ccf45bc1461032557600080fd5b806301e1d1141461025857806301ffc9a714610273578063042ef56e146102a757806306fdde03146102bc57806307a2d13a146102d1575b600080fd5b610260610522565b6040519081526020015b60405180910390f35b610297610281366004611a90565b6001600160e01b0319166316c510a760e21b1490565b604051901515815260200161026a565b6102ba6102b5366004611aba565b61059b565b005b6102c4610612565b60405161026a9190611af7565b6102606102df366004611aba565b6106a5565b6102976102f2366004611b46565b6106d9565b610260610305366004611aba565b610750565b610260610318366004611b70565b610787565b610260610868565b6102ba610333366004611aba565b61087a565b610297610346366004611b9c565b6108db565b60125b60405160ff909116815260200161026a565b6103686109d2565b6040516001600160a01b03909116815260200161026a565b6102606109de565b610368610a62565b61026061039e366004611bd8565b5060001990565b610368610a6c565b6102606103bb366004611aba565b610a78565b6102ba610a83565b6102ba6103d6366004611bf3565b610edc565b6000610260565b6102606103f0366004611b70565b610faa565b610260610403366004611bd8565b610fc5565b610260610416366004611b70565b610ff1565b610423611062565b60405167ffffffffffffffff909116815260200161026a565b6102c461106e565b6102606110f6565b610260611116565b610297610462366004611b46565b611131565b610260610475366004611aba565b6111a9565b610260610488366004611c15565b6111cf565b610260611224565b6102606104a3366004611c15565b611246565b61034e611290565b6102606104be366004611aba565b61129c565b6102606104d1366004611bd8565b6112c3565b6102ba6104e4366004611c63565b6112f5565b6102606104f7366004611bd8565b611557565b61026061050a366004611cd0565b611584565b61026061051d366004611aba565b6115c0565b600061052c610a62565b6040516370a0823160e01b81523060048201526001600160a01b0391909116906370a0823190602401602060405180830381865afa158015610572573d6000803e3d6000fd5b505050506040513d601f19601f820116820180604052508101906105969190611cfa565b905090565b6105a3610a6c565b6001600160a01b0316336001600160a01b0316146105dc5760405162461bcd60e51b81526004016105d390611d13565b60405180910390fd5b6105e5816115cb565b6105ed6115e1565b80546affffffffffffffffffffff19166001600160581b039290921691909117905550565b606061061c610a62565b6001600160a01b03166395d89b416040518163ffffffff1660e01b8152600401600060405180830381865afa158015610659573d6000803e3d6000fd5b505050506040513d6000823e601f3d908101601f191682016040526106819190810190611d56565b6040516020016106919190611e03565b604051602081830303815290604052905090565b6000806106b0610868565b905080156106d0576106cb6106c3610522565b84908361160f565b6106d2565b825b9392505050565b6000806106e461162d565b33600081815260028301602090815260408083206001600160a01b038a16808552908352928190208890555187815293945090927f8c5be1e5ebec7d5bd14f71427d1e84f3dd0314c0f7b2291e5b200ac8c7c3b92591015b60405180910390a360019150505b92915050565b60008061075b610868565b90508015610777576106cb8161076f610522565b85919061165b565b678ac7230489e800009392505050565b6000610791610a6c565b6001600160a01b0316336001600160a01b0316146107c15760405162461bcd60e51b81526004016105d390611d13565b60006107cb610a62565b6040516370a0823160e01b81523060048201526001600160a01b0391909116906370a0823190602401602060405180830381865afa158015610811573d6000803e3d6000fd5b505050506040513d601f19601f820116820180604052508101906108359190611cfa565b905080841115610843578093505b6108608385610850610a62565b6001600160a01b03169190611681565b509192915050565b60008061087361162d565b5492915050565b610882610a6c565b6001600160a01b0316336001600160a01b0316146108b25760405162461bcd60e51b81526004016105d390611d13565b60006108bc6115e1565b9050818160010160008282546108d29190611e53565b90915550505050565b6000806108e661162d565b6001600160a01b038616600090815260028201602090815260408083203384529091529020549091506000198114610949576109228482611e66565b6001600160a01b038716600090815260028401602090815260408083203384529091529020555b6001600160a01b038616600090815260018301602052604081208054869290610973908490611e66565b90915550506001600160a01b03808616600081815260018501602052604090819020805488019055519091881690600080516020612053833981519152906109be9088815260200190565b60405180910390a350600195945050505050565b600061059660006116f9565b6000610596604080517f2aef22f9d7df5f9d21c56d14029233f3fdaa91917727e1eb68e504d27072d6cd60208201527fc89efdaa54c0f20c7adf612882df0950f5a951637e0307cdcb4c672f298b8bc69181019190915246606082015230608082015260009060a00160405160208183030381529060405280519060200120905090565b600061059661171e565b600061059660296116f9565b600061074a826106a5565b6000610a8d6115e1565b8054909150600160b01b900464ffffffffff16600003610ac357600360405163683f44bb60e11b81526004016105d39190611e79565b610acb611062565b67ffffffffffffffff16610add610a6c565b6001600160a01b031663b97dd9e26040518163ffffffff1660e01b8152600401602060405180830381865afa158015610b1a573d6000803e3d6000fd5b505050506040513d601f19601f82011682018060405250810190610b3e9190611ea1565b67ffffffffffffffff161015610b6a57600060405163683f44bb60e11b81526004016105d39190611e79565b8054600160b01b900464ffffffffff16421015610b9d57600160405163683f44bb60e11b81526004016105d39190611e79565b6000808260010154610bad610a62565b6040516370a0823160e01b81523060048201526001600160a01b0391909116906370a0823190602401602060405180830381865afa158015610bf3573d6000803e3d6000fd5b505050506040513d601f19601f82011682018060405250810190610c179190611cfa565b610c219190611e66565b8354909150600160581b90046001600160581b0316811015610cf657610c45610a6c565b83546001600160a01b0391909116906365612e6890610ca190610c79906001600160581b0316670de0b6b3a7640000611ecb565b86546001600160581b0391821691610c9b918791600160581b90910416611e66565b9061172a565b6040518263ffffffff1660e01b8152600401610cbf91815260200190565b600060405180830381600087803b158015610cd957600080fd5b505af1158015610ced573d6000803e3d6000fd5b50505050610da3565b610cfe610a6c565b83546001600160a01b039190911690639ff2cfb490610d5290610d32906001600160581b0316670de0b6b3a7640000611ecb565b86546001600160581b0391821691610c9b91600160581b90041686611e66565b6040518263ffffffff1660e01b8152600401610d7091815260200190565b600060405180830381600087803b158015610d8a57600080fd5b505af1158015610d9e573d6000803e3d6000fd5b505050505b82546001600160581b0316610dcb57610dc6610dbd610a6c565b82610850610a62565b610e6c565b610e5581610dd7610a62565b6001600160a01b031663313ce5676040518163ffffffff1660e01b8152600401602060405180830381865afa158015610e14573d6000803e3d6000fd5b505050506040513d601f19601f82011682018060405250810190610e389190611ef2565b610e4390600a611ff3565b85546001600160581b0316919061160f565b9150818103908214610e6c57610e6c610dbd610a6c565b825464ffffffffff60b01b191683557f8dab6d35466ca3cba614bc5b262979b277949786977e81107f375f7e39f7734a3083610ea6610a6c565b604080516001600160a01b03948516815260208101939093529216818301526060810184905290519081900360800190a1505050565b610ee4610a6c565b6001600160a01b0316336001600160a01b031614610f145760405162461bcd60e51b81526004016105d390611d13565b6000610f1e6115e1565b9050610f29836115cb565b81546001600160581b03600160581b8083048216909301169091026affffffffffffffffffffff60581b199091161781556000610f6742840161173f565b825490915064ffffffffff600160b01b90910481169082161115610fa457815464ffffffffff60b01b1916600160b01b64ffffffffff8316021782555b50505050565b6000604051630280e1e560e61b815260040160405180910390fd5b6000610fcf61162d565b6001600160a01b03909216600090815260019290920160205250604090205490565b6000610ffb610a6c565b6001600160a01b0316336001600160a01b0316146110515760405162461bcd60e51b81526020600482015260136024820152721bdb9b1e481d985d5b1d0818d85b881b5a5b9d606a1b60448201526064016105d3565b61105b8284611753565b5090919050565b6000610596603d6117be565b6060611078610a6c565b611080610a62565b6001600160a01b03166395d89b416040518163ffffffff1660e01b8152600401600060405180830381865afa1580156110bd573d6000803e3d6000fd5b505050506040513d6000823e601f3d908101601f191682016040526110e59190810190611d56565b604051602001610691929190612002565b6000806111016115e1565b54600160b01b900464ffffffffff1692915050565b6000806111216115e1565b546001600160581b031692915050565b60008061113c61162d565b336000908152600182016020526040812080549293508592909190611162908490611e66565b90915550506001600160a01b0384166000818152600183016020526040908190208054860190555133906000805160206120538339815191529061073c9087815260200190565b6000806111b4610868565b90508015610777576106cb6111c7610522565b84908361165b565b6000806111da6115e1565b8054909150600160b01b900464ffffffffff161561120e57600260405163683f44bb60e11b81526004016105d39190611e79565b6112198585856117e3565b91505b509392505050565b60008061122f6115e1565b54600160581b90046001600160581b031692915050565b6000806112516115e1565b8054909150600160b01b900464ffffffffff161561128557600260405163683f44bb60e11b81526004016105d39190611e79565b6112198585856118d0565b600061059660146119fa565b6000806112a7610868565b905080156106d0576106cb816112bb610522565b85919061160f565b6000806112ce61162d565b6001600160a01b03841660009081526001820160205260409020549091506106d2906106a5565b428410156113455760405162461bcd60e51b815260206004820152601760248201527f5045524d49545f444541444c494e455f4558504952454400000000000000000060448201526064016105d3565b600060016113516109de565b7f6e71edae12b1b97f4d1f60370fef10105fa2faae0126114a169c64845d6126c98a8a8a61137d61162d565b6001600160a01b038f8116600090815260039290920160209081526040928390208054600181019091558351808301989098529582168784015293166060860152608085019190915260a084019290925260c08084018b90528251808503909101815260e08401909252815191012061190160f01b6101008301526101028201929092526101228101919091526101420160408051601f198184030181528282528051602091820120600084529083018083525260ff871690820152606081018590526080810184905260a0016020604051602081039080840390855afa15801561146c573d6000803e3d6000fd5b5050604051601f1901519150506001600160a01b038116158015906114a25750876001600160a01b0316816001600160a01b0316145b6114df5760405162461bcd60e51b815260206004820152600e60248201526d24a72b20a624a22fa9a4a3a722a960911b60448201526064016105d3565b856114e861162d565b6001600160a01b039283166000908152600291909101602090815260408083208b86168085529083529281902093909355915188815290928a16917f8c5be1e5ebec7d5bd14f71427d1e84f3dd0314c0f7b2291e5b200ac8c7c3b925910160405180910390a350505050505050565b60008061156261162d565b6001600160a01b03909316600090815260019093016020525050604090205490565b60008061158f61162d565b6001600160a01b03948516600090815260029190910160209081526040808320959096168252939093525050205490565b600061074a8261129c565b6000600160581b82106115dd57600080fd5b5090565b60008061074a60017f9d9972a5048ce9bc4a301fa478468497c41609cb7f4770f91626fcf592113934611e66565b600082600019048411830215820261162657600080fd5b5091020490565b60008061074a60017f6c9d8be213da072972500acecface6c6d1d5ffbaace52819bc37703107293592611e66565b600082600019048411830215820261167257600080fd5b50910281810615159190040190565b600060405163a9059cbb60e01b8152836004820152826024820152602060006044836000895af13d15601f3d1160016000511416171691505080610fa45760405162461bcd60e51b815260206004820152600f60248201526e1514905394d1915497d19052531151608a1b60448201526064016105d3565b600080611710600119368181013560f01c90030190565b929092013560601c92915050565b600061059660156116f9565b60006106d28383670de0b6b3a764000061160f565b60006501000000000082106115dd57600080fd5b600061175d61162d565b9050818160000160008282546117739190611e53565b90915550506001600160a01b038316600081815260018301602090815260408083208054870190555185815260008051602061205383398151915291015b60405180910390a3505050565b6000806117d5600119368181013560f01c90030190565b929092013560c01c92915050565b60006117ee84610750565b905060006117fa61162d565b9050336001600160a01b0384161461186e576001600160a01b03831660009081526002820160209081526040808320338452909152902054600019811461186c576118458382611e66565b6001600160a01b038516600090815260028401602090815260408083203384529091529020555b505b6118788383611a1f565b60408051868152602081018490526001600160a01b03808616929087169133917ffbde797d201c681b91056529119e0b02407c7bb96a4a2c75c01fc9667232c8db910160405180910390a461121c8486610850610a62565b6000806118db61162d565b9050336001600160a01b0384161461194f576001600160a01b03831660009081526002820160209081526040808320338452909152902054600019811461194d576119268682611e66565b6001600160a01b038516600090815260028401602090815260408083203384529091529020555b505b61195885610a78565b9150816000036119985760405162461bcd60e51b815260206004820152600b60248201526a5a45524f5f41535345545360a81b60448201526064016105d3565b6119a28386611a1f565b60408051838152602081018790526001600160a01b03808616929087169133917ffbde797d201c681b91056529119e0b02407c7bb96a4a2c75c01fc9667232c8db910160405180910390a461121c8483610850610a62565b600080611a11600119368181013560f01c90030190565b929092013560f81c92915050565b6000611a2961162d565b6001600160a01b0384166000908152600182016020526040812080549293508492909190611a58908490611e66565b9091555050805482900381556040518281526000906001600160a01b03851690600080516020612053833981519152906020016117b1565b600060208284031215611aa257600080fd5b81356001600160e01b0319811681146106d257600080fd5b600060208284031215611acc57600080fd5b5035919050565b60005b83811015611aee578181015183820152602001611ad6565b50506000910152565b6020815260008251806020840152611b16816040850160208701611ad3565b601f01601f19169190910160400192915050565b80356001600160a01b0381168114611b4157600080fd5b919050565b60008060408385031215611b5957600080fd5b611b6283611b2a565b946020939093013593505050565b60008060408385031215611b8357600080fd5b82359150611b9360208401611b2a565b90509250929050565b600080600060608486031215611bb157600080fd5b611bba84611b2a565b9250611bc860208501611b2a565b9150604084013590509250925092565b600060208284031215611bea57600080fd5b6106d282611b2a565b60008060408385031215611c0657600080fd5b50508035926020909101359150565b600080600060608486031215611c2a57600080fd5b83359250611c3a60208501611b2a565b9150611c4860408501611b2a565b90509250925092565b60ff81168114611c6057600080fd5b50565b600080600080600080600060e0888a031215611c7e57600080fd5b611c8788611b2a565b9650611c9560208901611b2a565b955060408801359450606088013593506080880135611cb381611c51565b9699959850939692959460a0840135945060c09093013592915050565b60008060408385031215611ce357600080fd5b611cec83611b2a565b9150611b9360208401611b2a565b600060208284031215611d0c57600080fd5b5051919050565b6020808252601390820152721bdb9b1e481d985d5b1d0818d85b8818d85b1b606a1b604082015260600190565b634e487b7160e01b600052604160045260246000fd5b600060208284031215611d6857600080fd5b815167ffffffffffffffff80821115611d8057600080fd5b818401915084601f830112611d9457600080fd5b815181811115611da657611da6611d40565b604051601f8201601f19908116603f01168101908382118183101715611dce57611dce611d40565b81604052828152876020848701011115611de757600080fd5b611df8836020830160208801611ad3565b979650505050505050565b714153542d57697468647261775661756c742d60701b815260008251611e30816012850160208701611ad3565b9190910160120192915050565b634e487b7160e01b600052601160045260246000fd5b8082018082111561074a5761074a611e3d565b8181038181111561074a5761074a611e3d565b6020810160048310611e9b57634e487b7160e01b600052602160045260246000fd5b91905290565b600060208284031215611eb357600080fd5b815167ffffffffffffffff811681146106d257600080fd5b6001600160581b03828116828216039080821115611eeb57611eeb611e3d565b5092915050565b600060208284031215611f0457600080fd5b81516106d281611c51565b600181815b80851115611f4a578160001904821115611f3057611f30611e3d565b80851615611f3d57918102915b93841c9390800290611f14565b509250929050565b600082611f615750600161074a565b81611f6e5750600061074a565b8160018114611f845760028114611f8e57611faa565b600191505061074a565b60ff841115611f9f57611f9f611e3d565b50506001821b61074a565b5060208310610133831016604e8410600b8410161715611fcd575081810a61074a565b611fd78383611f0f565b8060001904821115611feb57611feb611e3d565b029392505050565b60006106d260ff841683611f52565b644153542d5760d81b81526bffffffffffffffffffffffff198360601b166005820152602d60f81b60198201526000825161204481601a850160208701611ad3565b91909101601a01939250505056feddf252ad1be2c89b69c2b068fc378daa952ba7f163c4a11628f55a4df523b3efa2646970667358221220565fad1937f128072e12c62891f6642f13a437341332893aba3a03fdbd4193a164736f6c63430008110033",
    "linkReferences": {}
  },
  "methodIdentifiers": {
    "CLAIMABLE_EPOCH()": "951b46af",
    "DOMAIN_SEPARATOR()": "3644e515",
    "IMPL_TYPE()": "c237c703",
    "ROUTER()": "32fe7b26",
    "VAULT()": "411557d1",
    "allowance(address,address)": "dd62ed3e",
    "approve(address,uint256)": "095ea7b3",
    "asset()": "38d52e0f",
    "balanceOf(address)": "70a08231",
    "claim()": "4e71d92d",
    "convertToAssets(uint256)": "07a2d13a",
    "convertToShares(uint256)": "c6e6f592",
    "decimals()": "313ce567",
    "deposit(uint256,address)": "6e553f65",
    "drain(uint256,address)": "0aeba34e",
    "getExpected()": "b701e727",
    "getFinalAuctionEnd()": "989673b1",
    "getWithdrawRatio()": "a5573720",
    "handleNewLiquidation(uint256,uint256)": "59a13ae5",
    "increaseWithdrawReserveReceived(uint256)": "1ccf45bc",
    "maxDeposit(address)": "402d267d",
    "maxMint(address)": "c63d75b6",
    "maxRedeem(address)": "d905777e",
    "maxWithdraw(address)": "ce96cb77",
    "minDepositAmount()": "645006ca",
    "mint(uint256,address)": "94bf804d",
    "name()": "06fdde03",
    "permit(address,address,uint256,uint256,uint8,bytes32,bytes32)": "d505accf",
    "previewDeposit(uint256)": "ef8b30f7",
    "previewMint(uint256)": "b3d7f6b9",
    "previewRedeem(uint256)": "4cdad506",
    "previewWithdraw(uint256)": "0a28a477",
    "redeem(uint256,address,address)": "ba087652",
    "setWithdrawRatio(uint256)": "042ef56e",
    "supportsInterface(bytes4)": "01ffc9a7",
    "symbol()": "95d89b41",
    "totalAssets()": "01e1d114",
    "totalSupply()": "18160ddd",
    "transfer(address,uint256)": "a9059cbb",
    "transferFrom(address,address,uint256)": "23b872dd",
    "withdraw(uint256,address,address)": "b460af94"
  },
  "id": 153
}